:020000040000FA
:04000000FEEF7FF0A0
:107B780001C0BCF102C0BDF1120001C0C0F102C0D9
:107B8800C1F1120001C0BEF102C0BFF11200026EC5
:107B98000250E5EC3DF0120003EC3EF0B9EC3FF08A
:107BA800D9EC3DF0F1EC3EF01200620E3901D96FCC
:107BB800000EDB6F000EDD6F020EDF6F000EDE6F52
:107BC8001200016E3901A6A7ECEF3DF0EEEF3DF093
:107BD800E6EF3DF0600007F0D2FD1200FF0E056EE3
:107BE800FF0E066EFF0E076E7F0E086E05C001F0D1
:107BF80006C002F007C003F008C004F01200000E2F
:107C08003901C06F000EC16F000EC26F000EC36F46
:107C1800000EC46F000EC56F000EC66F000EC76F52
:107C28001200C20E0001C86F000EC96F000EB86FB7
:107C3800000EB96FC0C0BAF0C1C0BBF0C80EBC6FAF
:107C4800000EBD6F50EC3FF0120000EE5CF2500EDB
:107C5800EE6AE806FDE10101C56BC46BC36BC26B3C
:107C680000EEE8F0170EEE6AE806FDE10001D6EF37
:107C780050F0E8C005F0E9C006F0EAC007F0EBC034
:107C880008F001C005F002C006F003C007F004C008
:107C980008F0089E05C001F006C002F007C003F016
:107CA80008C004F012004650471048104910D8B4D4
:107CB80060EF3EF062EF3EF06AEF3EF0000E461ACB
:107CC800000E471A000E481A800E491A46C046F0A0
:107CD80047C047F048C048F049C049F01200BF0EFD
:107CE800036EFF0E046E01C005F002C006F00350DB
:107CF80005260450062206500AE11A0E055CD8A093
:107D080088EF3EF08BEF3EF0010E8CEF3EF0000E58
:107D1800016E026A120001C003F002C004F097EF7E
:107D28003EF0014A022A600007F0D9FF60000BF01C
:107D3800DAFFDF50D8A4A3EF3EF0A5EF3EF095EFB1
:107D48003EF00350015C016E04500258026E1200AE
:107D5800000E126E000E116EBDEF3EF010C003F063
:107D6800046A0EC005F00FC006F003EC40F0114A9B
:107D7800122A11500C24D96E12500D20DA6EDF50E1
:107D8800106E1050D8A4CBEF3EF0CDEF3EF0B2EF1E
:107D98003EF01200000E2E1A000E2F1A000E301A96
:107DA800800E311A2AC01AF02BC01BF02CC01CF010
:107DB8002DC01DF02EC01EF02FC01FF030C020F0C7
:107DC80031C021F074EC55F01AC02AF01BC02BF01A
:107DD8001CC02CF01DC02DF01200000E3D01D46F08
:107DE800000ED66F000ED86FB00EDA6F800EDB6F04
:107DF800000EDC6F190EDD6F000EDE6F000EDF6FF8
:107E0800000EE06F000EE16F000EE26F000E016ED3
:107E1800000E026EC1EC3DF0000E016E000E026E07
:107E2800C6EC3DF0000E016E000E026EBCEC3DF09B
:107E3800000E0001FE6F1200BF0E096EFF0E0A6EE3
:107E480007C00BF008C00CF009500B260A500C2292
:107E58000C500AE11A0E0B5CD8A035EF3FF038EF52
:107E68003FF0010E39EF3FF0000E0D6E0E6A0D5017
:107E78000E10D8B442EF3FF044EF3FF04BEF3FF025
:107E8800200E0710076E0850086E4FEF3FF007C02E
:107E980007F008C008F01200BAC0BEF0BBC0BFF0BF
:107EA800000E0001F76F000EF66F6EEF3FF0B8C0DE
:107EB800A4F0B9C0A5F0BE0EA66F000EA76FBCC097
:107EC800A8F0BDC0A9F095EC4CF00001A451F6272C
:107ED800A551F7236000FBF2F6FF6000FFF2F7FF01
:107EE800F86A0800F5500009D8A47DEF3FF07FEF4D
:107EF8003FF05BEF3FF0F6C0B8F0F7C0B9F0120002
:107F080003C007F004C008F001C009F002C00AF07D
:107F18000750056E0850066E074A082A600017F0D9
:107F2800F6FF60001BF0F7FF000EF86E600027F008
:107F3800D9FF60002BF0DAFF094A0A2A0F0EF7640E
:107F480003D00800F55007D06F00DBFFE9FF6F0092
:107F5800DFFFEAFFEF50DF6EDF50D8A4B6EF3FF047
:107F6800B8EF3FF08CEF3FF01200000EBE6E000E2F
:107F7800BD6E000EBA6E000EBB6E000EBC6E070E14
:107F8800C66EC268BF0EC36EC468C5683A01706920
:107F980060697F0E506F070E806F4069000E716F29
:107FA800000E816F000E516F000E416F000E616F61
:107FB800000E5A6F000E5B6F000E6A6F000E6B6F3B
:107FC800000E7A6F000E7B6F000E826F000E426FFC
:107FD800000E526F000E626F000E726F4369536994
:107FE80063697369070E836F4469546964697469C6
:107FF8000F0E846F0F0EE86F160E0E6F12000550ED
:108008000610D8B40AEF40F00CEF40F015EF40F03E
:1080180005500610D8A413EF40F015EF40F01AEF02
:1080280040F00350CBEC3DF04DEF40F020EE04F073
:108038000550D9260650DA22DE50DE10D8B427EFD4
:1080480040F029EF40F044EF40F020EE04F00550F6
:10805800D9260650DA2210EE02F00550E126065025
:10806800E222DE50E65CE650800A0B6EDE50800AA3
:108078000B58D8B042EF40F044EF40F04DEF40F0DD
:1080880020EE02F00550D9260650DA22DE2A000E2C
:10809800DD221200000E0114096E000E02140A6E91
:1080A800800E03140B6E7F0E04140C6E09500A1018
:1080B8000B100C10D8A463EF40F065EF40F06DEFA3
:1080C80040F0000E016E000E026E000E036E000EF0
:1080D800046E000E0514096E000E06140A6E800E5A
:1080E80007140B6E7F0E08140C6E09500A100B1043
:1080F8000C10D8A482EF40F084EF40F08CEF40F0F1
:10810800000E056E000E066E000E076E000E086E5D
:10811800055001180FE1065002180CE1075003182A
:1081280009E108500418D8B49CEF40F09EEF40F0E5
:10813800A1EF40F0D890A2EF40F0D8801200000ED6
:10814800066E02BEACEF40F0AAEF40F0B2EF40F08E
:10815800016C021ED8B0022A010E066E04BEB9EFE9
:1081680040F0B7EF40F0BDEF40F0036C041ED8B00C
:10817800042A03500410D8B4C4EF40F0C6EF40F00E
:10818800EAEF40F0010E056ECEEF40F0D8900336CE
:108198000436052A04AED3EF40F0D5EF40F0CAEF1D
:1081A80040F00350015C04500258D8A0DEEF40F0C4
:1081B800E0EF40F0E4EF40F00350015E0450025A53
:1081C800D89004320332052ED5EF40F00650D8B4CB
:1081D800F0EF40F0F2EF40F0F6EF40F0016C021ED5
:1081E800D8B0022A01C001F002C002F01200000E4D
:1081F800066E04BE04EF41F002EF41F00AEF41F0D1
:10820800036C041ED8B0042A010E066E02BE11EFDC
:1082180041F00FEF41F017EF41F0016C021ED8B0AA
:10822800022A010E061A000E086E000E076E035091
:108238000410D8B422EF41F024EF41F04CEF41F0A4
:10824800010E056E2CEF41F0D89003360436052A4E
:1082580004AE31EF41F033EF41F028EF41F0D89010
:10826800073608360350015C04500258D8A03FEF87
:1082780041F041EF41F046EF41F00350015E0450F8
:10828800025A0780D89004320332052E33EF41F0AA
:108298000650D8B452EF41F054EF41F058EF41F096
:1082A800076C081ED8B0082A07C001F008C002F001
:1082B80012000001FCA163EF41F065EF41F06FEFA0
:1082C80041F015C00CF016C00DF013C00EF014C02C
:1082D8000FF0ACEC3EF018BE74EF41F076EF41F0D1
:1082E8007CEF41F017C01CF018C01DF080EF41F082
:1082F800000E1D6E000E1C6E000E1B6E000E1A6E18
:1083080092EF41F0000E046E200E036E13C005F0CC
:1083180014C006F003EC40F01A4A1B2A1C501A5CE1
:108328001B50800A196E1D50800A1958D8A09FEF5B
:1083380041F0A1EF41F086EF41F00001FCB1A7EF59
:1083480041F0A9EF41F0B3EF41F015C00CF016C0B1
:108358000DF013C00EF014C00FF0ACEC3EF015C0D9
:1083680001F016C002F08FEC3EF01C500124136E91
:108378001D500220146E120001C008F002C009F05E
:1083880003C00AF004C00BF00506D8A006060528AD
:1083980006E10628D8A4D3EF41F0D5EF41F0E2EF8B
:1083A80041F0000E026E000E016E39EF42F0084AED
:1083B800092A0A4A0B2A0506D8A00606600023F0F7
:1083C800D9FF600027F0DAFFDF50D8B4EEEF41F0B4
:1083D800F0EF41F023EF42F060002BF0F6FF600071
:1083E8002FF0F7FFF86A0800F5500009D8B4FFEF3E
:1083F80041F001EF42F023EF42F005500610D8B4E7
:1084080008EF42F00AEF42F023EF42F0600023F059
:10841800D9FF600027F0DAFFDF50076E60002BF00D
:10842800F6FF60002FF0F7FFF86A0800F55007180C
:10843800D8B421EF42F023EF42F0DBEF41F06000C7
:1084480023F0D9FF600027F0DAFFDF50076E6000E5
:108458002BF0F6FF60002FF0F7FFF86A0800F550E0
:10846800075C016E026AD8A002061200F0C00BF089
:10847800F1C00CF0F2C00DF0F3C00EF001C00BF02B
:1084880002C00CF003C00DF004C00EF00BC005F0E4
:108498000CC006F00DC007F00EC008F0180E5AEF19
:1084A80042F0D8900832073206320532E82E55EFEE
:1084B80042F00550096E0A6A09500A10D8A467EFFD
:1084C80042F069EF42F089EF42F0D8900B34056E24
:1084D8000C34066E0D34076E0E34086E0550061007
:1084E80007100810D8A47BEF42F07DEF42F083EF2D
:1084F80042F0000E026E020E016EB8EF42F0000E5E
:10850800026E030E016EB8EF42F009280A10D8A4D3
:1085180090EF42F092EF42F0B4EF42F00BC005F05A
:108528000CC006F00DC007F00EC008F0090ED89078
:108538000536063607360836E82E9BEF42F005501A
:10854800061007100810D8B4ACEF42F0AFEF42F0B5
:10855800010EB0EF42F0000E016E026AB8EF42F071
:10856800000E026E040E016E1200000E32143A6EF6
:10857800000E33143B6E800E34143C6E7F0E35149F
:108588003D6E3A503B103C103D10D8A4CEEF42F05F
:10859800D0EF42F0D8EF42F0000E326E000E336E8C
:1085A800000E346E000E356E000E36143A6E000E54
:1085B80037143B6E800E38143C6E7F0E39143D6EB6
:1085C8003A503B103C103D10D8A4EDEF42F0EFEFCD
:1085D80042F0F7EF42F0000E366E000E376E000ED6
:1085E800386E000E396E35AEFCEF42F0FEEF42F009
:1085F80007EF43F0326C331ED8B0332A341ED8B09C
:10860800342A800E355639AE0CEF43F00EEF43F0A6
:1086180017EF43F0366C371ED8B0372A381ED8B05B
:10862800382A800E3956000E321A000E331A000E00
:10863800341A800E351A000E361A000E371A000E3C
:10864800381A800E391A3650325C37503358385041
:10865800345839503558D8B034EF43F036EF43F03A
:1086680039EF43F0D8903AEF43F0D88012002C3419
:108678002D34336E3350D8A444EF43F046EF43F023
:1086880050EF43F0000E2A6E000E2B6E000E2C6E7B
:10869800000E2D6EBDEF43F02AC02EF02BC02FF038
:1086A8002CC030F02DC031F0200E60EF43F0D89090
:1086B800313230322F322E32E82E5BEF43F02E501B
:1086C800326E2C8EFF0E2A16FF0E2B16FF0E2C165E
:1086D800000E2D16960E335E33BE77EF43F075EF1E
:1086E80043F08DEF43F03350800A970FD8B07FEFF7
:1086F80043F081EF43F083EF43F046EF43F0D89027
:108708002D322C322B322A32333E83EF43F0A5EF41
:1087180043F01F0E336493EF43F095EF43F09DEF62
:1087280043F046EF43F0D8902A362B362C362D36B8
:1087380033063350D8A4A3EF43F0A5EF43F097EFE7
:1087480043F03250D8B4ABEF43F0ADEF43F0B5EFA0
:1087580043F02D1E2C1E2B1E2A6C000E2B222C22C1
:108768002D222AC02AF02BC02BF02CC02CF02DC0B3
:108778002DF01200096E0950D8B4C5EF43F0C7EFC9
:1087880043F0E9EF43F004BECEEF43F0CCEF43F003
:10879800E9EF43F001C005F002C006F003C007F09E
:1087A80004C008F0051E061E071E081E052A000E36
:1087B80006220722082205C00BF006C00CF007C0ED
:1087C8000DF008C00EF0F1EF43F001C00BF002C04D
:1087D8000CF003C00DF004C00EF00150021003109D
:1087E8000410D8A4FAEF43F0FCEF43F006EF44F08E
:1087F800000E016E000E026E000E036E000E046E77
:1088080097EF44F0960E0A6E10EF44F00A2AD890BB
:108818000E320D320C320B32000E0B14056E000EA8
:108828000C14066E000E0D14076EFE0E0E14086E64
:108838000550061007100810D8A425EF44F027EFBC
:1088480044F00AEF44F035EF44F00A2A010E0B26F3
:10885800000E0C220D220E22D8900E320D320C3250
:108868000B32000E0B14056E000E0C14066E000E73
:108878000D14076EFF0E0E14086E05500610071033
:108888000810D8A44AEF44F04CEF44F029EF44F024
:1088980054EF44F00A06D8900B360C360D360E36D7
:1088A8000DBE59EF44F05BEF44F063EF44F0020E65
:1088B8000A6061EF44F063EF44F04EEF44F00AB011
:1088C80068EF44F06AEF44F06BEF44F00D9ED890E7
:1088D8000A320AC005F0066A076A086A05C008F085
:1088E800076A066A056A05500B1206500C120750F3
:1088F8000D1208500E120950D8B485EF44F087EFD6
:1089080044F08FEF44F004BE8EEF44F08CEF44F057
:108918008FEF44F00E8E0BC001F00CC002F00DC0BA
:1089280003F00EC004F012002AC001F02BC002F0C0
:108938002CC003F02DC004F02AC005F02BC006F0AF
:108948002CC007F02DC008F0AFEC4EF001C042F08B
:1089580002C043F003C044F004C045F042C001F037
:1089680043C002F044C003F045C004F042C005F023
:1089780043C006F044C007F045C008F0AFEC4EF025
:1089880001C03EF002C03FF003C040F004C041F017
:10899800170E056E9A0E066ECC0E076E370E086E11
:1089A80042C001F043C002F044C003F045C004F0E7
:1089B800AFEC4EF001C01AF002C01BF003C01CF06F
:1089C80004C01DF03F0E1E6E040E1F6EB60E206E04
:1089D800BA0E216E74EC55F01AC02EF01BC02FF0A1
:1089E8001CC030F01DC031F0000E1E6E000E1F6E50
:1089F800800E206E3F0E216E000E056E000E066E74
:108A0800000E076EBF0E086E42C001F043C002F0B0
:108A180044C003F045C004F0AFEC4EF001C01AF0BA
:108A280002C01BF003C01CF004C01DF074EC55F02C
:108A38001AC032F01BC033F01CC034F01DC035F032
:108A480042C005F043C006F044C007F045C008F036
:108A58003EC001F03FC002F040C003F041C004F046
:108A6800AFEC4EF001C036F002C037F003C038F06A
:108A780004C039F09F0E056EAA0E066E2A0E076E08
:108A88003D0E086E3EC001F03FC002F040C003F04A
:108A980041C004F0AFEC4EF001C01EF002C01FF060
:108AA80003C020F004C021F032C01AF033C01BF01C
:108AB80034C01CF035C01DF074EC55F01AC03AF003
:108AC8001BC03BF01CC03CF01DC03DF03AC01AF082
:108AD8003BC01BF03CC01CF03DC01DF02EC005F093
:108AE8002FC006F030C007F031C008F036C001F0E2
:108AF80037C002F038C003F039C004F0AFEC4EF0D4
:108B080001C01EF002C01FF003C020F004C021F015
:108B180074EC55F01AC02AF01BC02BF01CC02CF0C6
:108B28001DC02DF01200C2C15BF0C3C15CF0C4C10E
:108B38005DF0C5C15EF04BC05BF04CC05CF04DC051
:108B48005DF04EC05EF0810E4F6EFF0E506E5BC042
:108B580051F05CC052F05DC053F05EC054F0180E86
:108B6800BBEF45F0D8905432533252325132E82E8E
:108B7800B6EF45F051504F24596E000E50205A6EF2
:108B88005ABED0EF45F05A5009E1170E595CD8A0EB
:108B9800D0EF45F0D2EF45F0DCEF45F04BC04BF09D
:108BA8004CC04CF04DC04DF04EC04EF09FEF46F01B
:108BB8005ABEE1EF45F0E3EF45F053EF46F059C0F8
:108BC8004FF0FF0E506EFF0E516E7F0E526E000E6C
:108BD800536E4F66F2EF45F0FAEF45F053345332D7
:108BE8005232513250324F2EEDEF45F050C055F011
:108BF80051C056F052C057F053C058F055505B144E
:108C08004F6E56505C14506E57505D14516E58504C
:108C18005E14526E4F50501051105210D8A417EFD6
:108C280046F019EF46F01BEF46F0D2EF45F05BC077
:108C38004FF05CC050F05DC051F05EC052F0200EA5
:108C48002BEF46F0D8905232513250324F32E82E44
:108C580026EF46F04F50501051105210D8B437EF4D
:108C680046F039EF46F041EF46F055505B26565036
:108C78005C2257505D2258505E22551C4F6E561C80
:108C8800506E571C516E581C526E4F505B16505008
:108C98005C1651505D1652505E1697EF46F05BC059
:108CA8004FF05CC050F05DC051F05EC052F0200E35
:108CB80063EF46F0D8905232513250324F32E82E9C
:108CC8005EEF46F04F50501051105210D8A46FEF7D
:108CD80046F071EF46F07BEF46F0000E5B6E000E3B
:108CE8005C6E000E5D6E000E5E6E97EF46F0D890DB
:108CF8005B344F6E5C34506E5D34516E5E34526E30
:108D08004F50501051105210D8B48DEF46F08FEFDD
:108D180046F097EF46F0000E5B6E000E5C6E800E1C
:108D28005D6EBF0E5E6E5BC04BF05CC04CF05DC00C
:108D38004DF05EC04EF012004AC001F04BC002F088
:108D48004CC003F04DC004F04AC005F04BC006F01B
:108D58004CC007F04DC008F0AFEC4EF001C078F001
:108D680002C079F003C07AF004C07BF078C001F04B
:108D780079C002F07AC003F07BC004F078C005F037
:108D880079C006F07AC007F07BC008F0AFEC4EF06F
:108D980001C064F002C065F003C066F004C067F06B
:108DA8003C0E056E6C0E066E360E076E360E086E9D
:108DB80078C001F079C002F07AC003F07BC004F0FB
:108DC800AFEC4EF001C01AF002C01BF003C01CF05B
:108DD80004C01DF0CF0E1E6E070E1F6E500E206EC3
:108DE800B90E216E74EC55F01AC060F01BC061F02A
:108DF8001CC062F01DC063F078C001F079C002F0B9
:108E08007AC003F07BC004F04AC005F04BC006F0FE
:108E18004CC007F04DC008F0AFEC4EF001C074F044
:108E280002C075F003C076F004C077F0AB0E1E6E7A
:108E3800AA0E1F6E2A0E206EBE0E216E840E056EBF
:108E4800880E066E080E076E3C0E086E78C001F09C
:108E580079C002F07AC003F07BC004F0AFEC4EF0AA
:108E680001C01AF002C01BF003C01CF004C01DF0C2
:108E780074EC55F01AC068F01BC069F01CC06AF0A9
:108E88001DC06BF064C005F065C006F066C007F051
:108E980067C008F074C001F075C002F076C003F036
:108EA80077C004F0AFEC4EF001C06CF002C06DF07A
:108EB80003C06EF004C06FF04AC01EF04BC01FF034
:108EC8004CC020F04DC021F074C005F075C006F00C
:108ED80076C007F077C008F068C001F069C002F0FA
:108EE8006AC003F06BC004F0AFEC4EF001C01AF09A
:108EF80002C01BF003C01CF004C01DF074EC55F058
:108F08001AC070F01BC071F01CC072F01DC073F065
:108F180070C01AF071C01BF072C01CF073C01DF055
:108F280060C005F061C006F062C007F063C008F0D9
:108F38006CC001F06DC002F06EC003F06FC004F0A9
:108F4800AFEC4EF001C01EF002C01FF003C020F0CD
:108F580004C021F074EC55F01AC04AF01BC04BF065
:108F68001CC04CF01DC04DF012001AC028F01BC0E8
:108F780029F01CC02AF01DC02BF01FBECDEF47F012
:108F88001F5009E1800E1E5CD8A0CDEF47F0CFEF4F
:108F980047F02DEF48F028C001F029C002F02AC0A0
:108FA80003F02BC004F0000E056E000E066E000ED6
:108FB800076E7F0E086EAFEC4EF001C028F002C0BD
:108FC80029F003C02AF004C02BF0810E1E26FF0EE4
:108FD8001F221FBEF9EF47F01F5009E1800E1E5CEB
:108FE800D8A0F9EF47F0FBEF47F097EF48F028C01B
:108FF80001F029C002F02AC003F02BC004F0000ED3
:10900800056E000E066E000E076E7F0E086EAFEC42
:109018004EF001C028F002C029F003C02AF004C0B5
:109028002BF0810E1E26FF0E1F221FBE25EF48F0D3
:109038001F5009E1800E1E5CD8A025EF48F027EFED
:1090480048F097EF48F0000E1F6E7F0E1E6E97EFE8
:1090580048F01FAE39EF48F0820E1E5CFF0E1F5815
:10906800D8B039EF48F03BEF48F097EF48F028C008
:1090780001F029C002F02AC003F02BC004F0000E52
:10908800056E000E066E800E076E0C0E086EAFECB5
:109098004EF001C028F002C029F003C02AF004C035
:1090A8002BF0660E1E26000E1F221FAE65EF48F03D
:1090B800820E1E5CFF0E1F58D8B065EF48F067EFB0
:1090C80048F097EF48F028C001F029C002F02AC004
:1090D80003F02BC004F0000E056E000E066E800E25
:1090E800076E0C0E086EAFEC4EF001C028F002C0FF
:1090F80029F003C02AF004C02BF0660E1E26000ECD
:109108001F221FAE91EF48F0820E1E5CFF0E1F5803
:10911800D8B091EF48F093EF48F097EF48F0FF0E82
:109128001F6E820E1E6E7F0E1E24206E000E1F20E4
:10913800216E226A236A170ED890203621362236ED
:109148002336E82EA0EF48F020C024F021C025F0F7
:1091580022C026F023C027F024C001F025C002F069
:1091680026C003F027C004F028C005F029C006F087
:109178002AC007F02BC008F0AFEC4EF001C01AF07F
:1091880002C01BF003C01CF004C01DF01AC01AF086
:109198001BC01BF01CC01CF01DC01DF01200355078
:1091A800800B426E35503524496E34AEDEEF48F000
:1091B800E0EF48F0E1EF48F049804950D8B4E7EFD4
:1091C80048F0E9EF48F0FEEF48F04928D8A4EFEF5F
:1091D80048F0F1EF48F0F9EF48F0000E326E000E5B
:1091E800336E000E346E000E356E348E000E356E02
:1091F80006EF49F0000E326E000E336E000E346E2C
:10920800000E356E3950800B421A395039244A6E97
:1092180038AE11EF49F013EF49F014EF49F04A80E6
:109228004A50D8B41AEF49F01CEF49F031EF49F031
:109238004A28D8A422EF49F024EF49F02CEF49F04E
:10924800000E366E000E376E000E386E000E396E48
:10925800388E000E396E39EF49F0000E366E000E6A
:10926800376E000E386E000E396E365037103810D3
:109278003910D8A442EF49F044EF49F05CEF49F0C7
:10928800000E326E000E336E000E346E000E356E18
:10929800800E34127F0E35124250351232C032F031
:1092A80033C033F034C034F035C035F09FEF4AF0A6
:1092B8004950D8A462EF49F064EF49F06EEF49F0E5
:1092C800000E326E000E336E000E346E000E356ED8
:1092D8009FEF4AF04A5049C03AF03B6A3A5E000EA6
:1092E8003B5A7F0E3A24436E000E3B20446E32C038
:1092F8003EF033C03FF034C040F035C041F0000EBE
:10930800326E000E336E000E346E000E356E000E97
:10931800456E000E466E000E476E000E486E000E3B
:109328004A6ECFEF49F04A50D8B49DEF49F09FEF0D
:1093380049F0B6EF49F0D8903E363F3640364136D0
:10934800D890323633363436353648AEAEEF49F03B
:10935800B0EF49F0B1EF49F03280D8904536463643
:109368004736483636503E5C37503F58385040589C
:1093780039504158D8A0C3EF49F0C5EF49F0CEEFB6
:1093880049F0488C36503E5E37503F5A3850405A64
:109398003950415A4A2A190E4A64D5EF49F0D7EF95
:1093A80049F097EF49F03E503F1040104110D8B4B3
:1093B800E0EF49F0E2EF49F0FAEF49F04580FAEFC3
:1093C80049F0D890323633363436353648AEEFEF7A
:1093D80049F0F1EF49F0F2EF49F03280D890453684
:1093E8004636473648364306D8A0440634AEFFEF23
:1093F80049F001EF4AF0E5EF49F0000E4A6E48AE39
:1094080008EF4AF00AEF4AF02EEF4AF0FF0E451433
:109418003A6EFF0E46143B6EFF0E47143C6E7F0EED
:1094280048143D6E3A503B103C103D10D8B41FEF25
:109438004AF021EF4AF025EF4AF0010E4A6E2EEF6E
:109448004AF032A02AEF4AF02CEF4AF02EEF4AF009
:1094580021EF4AF04A50D8B434EF4AF036EF4AF0D8
:109468005AEF4AF0010E3226000E332234223522FA
:1094780035A041EF4AF043EF4AF05AEF4AF032C0C4
:109488003AF033C03BF034C03CF035C03DF03D34D9
:109498003D323C323B323A323AC032F03BC033F0D4
:1094A8003CC034F03DC035F0434A442A44BE65EF21
:1094B8004AF0445008E14328D8A065EF4AF067EF26
:1094C8004AF072EF4AF0000E446E4368000E326EA6
:1094D800000E336E000E346E000E356E44BE7FEF04
:1094E8004AF0445006E14304D8B07DEF4AF07FEFDC
:1094F8004AF08DEF4AF0000E446E000E436E000EE7
:10950800326E000E336E000E346E000E356E000E95
:10951800426E43C049F049A094EF4AF096EF4AF0F2
:1095280099EF4AF0348E9AEF4AF0349ED890493039
:10953800356E50EF49F012004BC001F04CC002F0FC
:109548004DC003F04EC004F04BC005F04CC006F00F
:109558004DC007F04EC008F0AFEC4EF001C084F0EB
:1095680002C085F003C086F004C087F084C005F00F
:1095780085C006F086C007F087C008F0730EF66E47
:10958800FE0EF76EF86A09006F00D4FF01F00900BB
:109598006F00D4FF02F009006F00D4FF03F00A0047
:1095A8006F00D4FF04F0AFEC4EF001C01AF002C017
:1095B8001BF003C01CF004C01DF06F0EF66EFE0E0B
:1095C800F76EF86A09006F00D4FF1EF009006F00FB
:1095D800D4FF1FF009006F00D4FF20F00A006F00CD
:1095E800D4FF21F074EC55F01AC080F01BC081F054
:1095F8001CC082F01DC083F084C005F085C006F051
:1096080086C007F087C008F06B0EF66EFE0EF76E88
:10961800F86A09006F00D4FF01F009006F00D4FF59
:1096280002F009006F00D4FF03F00A006F00D4FFB6
:1096380004F0AFEC4EF001C01AF002C01BF003C0FA
:109648001CF004C01DF0670EF66EFE0EF76EF86A89
:1096580009006F00D4FF1EF009006F00D4FF1FF04F
:1096680009006F00D4FF20F00A006F00D4FF21F03A
:1096780074EC55F01AC060F01BC061F01CC062F0B9
:109688001DC063F084C001F085C002F086C003F0FD
:1096980087C004F084C005F085C006F086C007F0D6
:1096A80087C008F0AFEC4EF001C078F002C079F046
:1096B80003C07AF004C07BF084C001F085C002F0DA
:1096C80086C003F087C004F04BC005F04CC006F01C
:1096D8004DC007F04EC008F0AFEC4EF001C07CF072
:1096E80002C07DF003C07EF004C07FF084C005F0A6
:1096F80085C006F086C007F087C008F0630EF66ED6
:10970800FE0EF76EF86A09006F00D4FF01F0090039
:109718006F00D4FF02F009006F00D4FF03F00A00C5
:109728006F00D4FF04F0AFEC4EF001C01AF002C095
:109738001BF003C01CF004C01DF05F0EF66EFE0E99
:10974800F76E000EF86E09006F00D4FF1EF00900D6
:109758006F00D4FF1FF009006F00D4FF20F00A004B
:109768006F00D4FF21F074EC55F01AC064F01BC0F0
:1097780065F01CC066F01DC067F078C005F079C0C0
:1097880006F07AC007F07BC008F07CC001F07DC00D
:1097980002F07EC003F07FC004F0AFEC4EF001C0D1
:1097A80068F002C069F003C06AF004C06BF060C0E2
:1097B8001EF061C01FF062C020F063C021F080C0BD
:1097C80005F081C006F082C007F083C008F078C0B9
:1097D80001F079C002F07AC003F07BC004F0AFEC6E
:1097E8004EF001C01AF002C01BF003C01CF004C008
:1097F8001DF074EC55F01AC06CF01BC06DF01CC065
:109808006EF01DC06FF04BC01EF04CC01FF04DC075
:1098180020F04EC021F064C005F065C006F066C0B7
:1098280007F067C008F07CC001F07DC002F07EC080
:1098380003F07FC004F0AFEC4EF001C01AF002C094
:109848001BF003C01CF004C01DF074EC55F01AC0E6
:1098580070F01BC071F01CC072F01DC073F070C0B6
:109868001AF071C01BF072C01CF073C01DF068C004
:1098780005F069C006F06AC007F06BC008F06CC05C
:1098880001F06DC002F06EC003F06FC004F0AFECE1
:109898004EF001C01EF002C01FF003C020F004C04B
:1098A80021F074EC55F01AC080F01BC081F01CC088
:1098B80082F01DC083F04F505010D8A466EF4CF0D2
:1098C80068EF4CF072EF4CF080C074F081C075F016
:1098D80082C076F083C077F08CEF4CF0000E326EC9
:1098E800000E336E800E346EBF0E356E80C036F0BB
:1098F80081C037F082C038F083C039F0D3EC48F02B
:1099080032C074F033C075F034C076F035C077F0EB
:1099180074C04BF075C04CF076C04DF077C04EF077
:10992800120060009BF2D9FF60009FF2DAFF6F001F
:109938007BFFF6FF6F0077FFF7FFF86A0800F55026
:10994800250AD8A4AAEF4CF0ACEF4CF08CEF4EF0FF
:1099580060009BF2D9FF60009FF2DAFFDE2A000E5A
:10996800DD22000E0001F96F000EF86FF8C0FCF060
:10997800F9C0FDF0FA69FB6960009BF2D9FF60004D
:109988009FF2DAFF6F007BFFF6FF6F0077FFF7FFAC
:10999800F86A0800F550076E086A20EC3FF0075097
:1099A8000001B46FB451D8B4DCEF4CF0DEEF4CF0EA
:1099B80026EF4DF060009BF2D9FF60009FF2DAFFBE
:1099C8006F0078FFAAF06F0074FFABF0010EAA27B2
:1099D800000EAB236000ABF2F6FF6000AFF2F7FFBA
:1099E800F86A0800F550076E086A20EC3FF0075047
:1099F8000001B56FB551D8B404EF4DF006EF4DF046
:109A080026EF4DF060009BF2D9FF60009FF2DAFF6D
:109A18006F0078FFAAF06F0074FFABF0020EAA2760
:109A2800000EAB236000ABF2F6FF6000AFF2F7FF69
:109A3800F86A0800F550076E086A20EC3FF00750F6
:109A48000001B66F660EB419D8A42DEF4DF02FEFB4
:109A58004DF081EF4DF060009BF2D9FF60009FF25E
:109A6800DAFF6F007BFFF6FF6F0077FFF7FFF86AFA
:109A780008006F00D4FFB7F060009BF2D9FF6000C8
:109A88009FF2DAFFDE2A000EDD226000A3F2D9FF82
:109A98006000A7F2DAFF6F007CFFAAF0040EDE2652
:109AA8006F007CFFABF0000EDD226000ABF2D9FF47
:109AB8006000AFF2DAFF6F0078FFB0F06F0078FF58
:109AC800B1F06F0078FFB2F06F0078FFB3F0A4C078
:109AD80060F0A5C061F0B0C062F0B1C063F0B2C080
:109AE80064F0B3C065F0B7C066F0A9EC63F060C07D
:109AF800A4F061C0A5F0AEEF4EF0B40E016E000EFA
:109B0800026EF70E036EFF0E046E000E066E020E56
:109B1800056EC0EC41F001500210D8A496EF4DF04C
:109B280098EF4DF04BEF4EF060009BF2D9FF6000CC
:109B38009FF2DAFF6F0078FFAAF06F0074FFABF0B6
:109B4800010E0001AA27000EAB236000ABF2F6FF5E
:109B58006000AFF2F7FFF86A08006F00D4FFB7F0B3
:109B6800BF0EAA6FFF0EAB6F60009BF2D9FF6000BB
:109B78009FF2DAFF6F007BFFF6FF6F0077FFF7FFBA
:109B8800F86A0800F550AC6FAD6BAA51AC27AB5121
:109B9800AD23AD510AE11A0EAC5DD8A0D6EF4DF059
:109BA800D9EF4DF0010EDAEF4DF0000EAE6FAF6B4E
:109BB800AE51AF11D8B4E3EF4DF0E5EF4DF009EF3A
:109BC8004EF06000A3F2D9FF6000A7F2DAFF6F0041
:109BD8007CFFAAF0040EDE266F007CFFABF0000EBF
:109BE800DD226000ABF2D9FF6000AFF2DAFF6F0050
:109BF80078FFB0F06F0078FFB1F06F0078FFB2F037
:109C08006F0078FFB3F02BEF4EF06000A3F2D9FF9E
:109C18006000A7F2DAFF6F007CFFAAF0040EDE26D0
:109C28006F007CFFABF0000EDD226000ABF2D9FFC5
:109C38006000AFF2DAFF6F0078FFB0F06F0078FFD6
:109C4800B1F06F0078FFB2F06F0078FFB3F0020E4A
:109C580060009BF2D9FF60009FF2DAFFDE26000E5B
:109C6800DD22A4C060F0A5C061F0B0C062F0B1C050
:109C780063F0B2C064F0B3C065F0B7C066F0A9EC99
:109C880063F060C0A4F061C0A5F0AEEF4EF06000D4
:109C98009BF2D9FF60009FF2DAFF6F007BFFF6FFAF
:109CA8006F0077FFF7FFF86A0800F550250AD8A477
:109CB80060EF4EF062EF4EF07CEF4EF060009BF2EA
:109CC800D9FF60009FF2DAFFDE2A000EDD22000EC7
:109CD800046E250E036EA4C005F0A5C006F003ECC3
:109CE80040F0000E0001A56F010EA46FAEEF4EF01C
:109CF80060009BF2D9FF60009FF2DAFFDE2A000EB7
:109D0800DD22000E0001A56F000EA46FAEEF4EF02D
:109D180060009BF2D9FF60009FF2DAFF6F007BFFC3
:109D2800F6FF6F0077FFF7FFF86A0800F550036E3B
:109D3800046AA4C005F0A5C006F003EC40F060007A
:109D48009BF2D9FF60009FF2DAFFDE2A000EDD22C7
:109D580075EF4EF012000450800B0D6E0450042471
:109D6800136E03AEBAEF4EF0BCEF4EF0BDEF4EF0FF
:109D780013801350D8B4C3EF4EF0C5EF4EF0D8EFB0
:109D88004EF01328D8A4CBEF4EF0CDEF4EF0D5EF20
:109D98004EF0000E016E000E026E000E036E000EF5
:109DA800046E038EE0EF4EF0000E016E000E026EA0
:109DB800000E036E000E046E0850800B0D1A08503A
:109DC8000824126E07AEEBEF4EF0EDEF4EF0EEEF1B
:109DD8004EF012801250D8B4F4EF4EF0F6EF4EF079
:109DE80009EF4FF01228D8A4FCEF4EF0FEEF4EF02A
:109DF80006EF4FF0000E056E000E066E000E076EA1
:109E0800000E086E078E11EF4FF0000E056E000E63
:109E1800066E000E076E000E086E1250D8B417EFCB
:109E28004FF019EF4FF021EF4FF01350D8A41FEF68
:109E38004FF021EF4FF02BEF4FF0000E016E000EA8
:109E4800026E000E036E000E046ED5EF50F0075040
:109E580001026F00CCFF18F06F00D0FF19F0185006
:109E68000E6E0F6A106A116A1950146E156A166A16
:109E7800176A065002026F00CCFF18F06F00D0FF7F
:109E880019F018500E26000E0F2210221122195018
:109E98001426000E152216221722055003026F0001
:109EA800CCFF18F06F00D0FF19F018500E26000EE6
:109EB8000F221022112219501426000E15221622E4
:109EC800172210C011F00FC010F00EC00FF00E6A6C
:109ED800055002026F00CCFF18F06F00D0FF19F098
:109EE80018500E2619500F22000E1022000E1122B3
:109EF800065001026F00CCFF18F06F00D0FF19F078
:109F080018500E2619500F22000E1022000E112292
:109F180010C011F00FC010F00EC00FF00E6A0550FF
:109F280001026F00CCFF18F06F00D0FF19F0185035
:109F38000E2619500F22000E1022000E1122075073
:109F480002026F00CCFF18F06F00D0FF19F0185014
:109F5800142619501522000E1622000E172206503C
:109F680003026F00CCFF18F06F00D0FF19F01850F3
:109F7800142619501522000E1622000E172207501B
:109F880003026F00CCFF18F06F00D0FF19F01850D3
:109F9800096E19500A6E0B6A0C6A0BC00CF00AC0E5
:109FA8000BF009C00AF0096A095014260A50152254
:109FB8000B5016220C5017220EC009F00FC00AF0E1
:109FC80010C00BF011C00CF0190EF0EF4FF0D89044
:109FD8000C320B320A320932E82EEBEF4FF00950FF
:109FE80014260A5015220B5016220C50172210C0A6
:109FF80011F00FC010F00EC00FF00E6A125013C00F
:10A0080009F00A6A0926000E0A22820E0924186E2F
:10A01800FF0E0A20196E26EF50F0D8901436153628
:10A028001636173611AE1BEF50F01DEF50F01EEF2D
:10A0380050F01480D8900E360F36103611361806A8
:10A04800D8A0190616AE2BEF50F02DEF50F011EFF7
:10A0580050F0000E126E11AE34EF50F036EF50F0A3
:10A068005AEF50F0FF0E0E14096EFF0E0F140A6E11
:10A07800FF0E10140B6E7F0E11140C6E09500A108F
:10A088000B100C10D8B44BEF50F04DEF50F051EFCF
:10A0980050F0010E126E5AEF50F014A056EF50F027
:10A0A80058EF50F05AEF50F04DEF50F01250D8B42E
:10A0B80060EF50F062EF50F086EF50F0010E14267A
:10A0C800000E15221622172217A06DEF50F06FEF21
:10A0D80050F086EF50F014C009F015C00AF016C011
:10A0E8000BF017C00CF00C340C320B320A32093268
:10A0F80009C014F00AC015F00BC016F00CC017F018
:10A10800184A192A19BE91EF50F0195008E1182879
:10A11800D8A091EF50F093EF50F09DEF50F0000E63
:10A12800146E000E156E800E166E7F0E176ECBEF36
:10A1380050F019BEAAEF50F0195006E11804D8B033
:10A14800A8EF50F0AAEF50F0B6EF50F0000E146EE2
:10A15800000E156E000E166E000E176E000E0D6EB8
:10A16800CBEF50F018C013F0FF0E1416FF0E1516A3
:10A178007F0E1616000E171613A0C5EF50F0C7EF86
:10A1880050F0C8EF50F0168ED8901330176E0D505F
:10A19800171214C001F015C002F016C003F017C062
:10A1A80004F01200D0EC3DF0000E0201006F000E2A
:10A1B800016F100E026F400E036F7B0E046F140EBA
:10A1C800056F6E0E066F400E076F000E0001DB6F05
:10A1D800000EDC6F000EDD6F400EDE6F00C2D7F0A0
:10A1E80001C2D8F002C2D9F003C2DAF0FEEC69F07D
:10A1F800D7C034F2D8C035F2D9C036F2DAC037F257
:10A20800000E0001DB6F000EDC6F000EDD6F400EEC
:10A21800DE6F04C2D7F005C2D8F006C2D9F007C273
:10A22800DAF0FEEC69F0D7C038F2D8C039F2D9C0FC
:10A238003AF2DAC03BF234C21AF035C21BF036C229
:10A248001CF037C21DF038C21EF039C21FF03AC2E6
:10A2580020F03BC221F074EC55F01AC03CF21BC050
:10A268003DF21CC03EF21DC03FF23CC25CF03DC254
:10A278005DF03EC25EF03FC25FF0D4EC57F05CC0C8
:10A2880008F25DC009F25EC00AF25FC00BF27B0EF5
:10A298000001C06FFF0EC16F08C2C2F009C2C3F04F
:10A2A8000AC2C4F00BC2C5F015EC3EF0000E4B6EAE
:10A2B800000E4C6E800E4D6E3F0E4E6E68EC5FF0D9
:10A2C8004BC040F24CC041F24DC042F24EC043F286
:10A2D80040C201F041C202F042C203F043C204F09E
:10A2E800000E056E000E066E800E076E400E086E9C
:10A2F800AFEC4EF001C058F202C059F203C05AF256
:10A3080004C05BF2D70E0201106FA30E116F880E06
:10A31800126F400E136F000E056E000E066E0C0EC7
:10A32800076E420E086E58C201F059C202F05AC2B6
:10A3380003F05BC204F0AFEC4EF001C032F002C093
:10A3480033F003C034F004C035F0000E366E000E52
:10A35800376E340E386E430E396ED3EC48F032C087
:10A3680014F233C015F234C016F235C017F214C215
:10A3780054F015C255F016C256F017C257F09DECAE
:10A388005CF054C044F255C045F256C046F257C07E
:10A3980047F244C201F045C202F046C203F047C288
:10A3A80004F010C205F011C206F012C207F013C281
:10A3B80008F0AFEC4EF001C00CF202C00DF203C081
:10A3C8000EF204C00FF2960E0001C06FFF0EC16FAF
:10A3D8000CC2C2F00DC2C3F00EC2C4F00FC2C5F069
:10A3E80015EC3EF0330E02011C6F330E1D6FDB0EB1
:10A3F8001E6F400E1F6F000E056E000E066E040ED7
:10A40800076E420E086E58C201F059C202F05AC2D5
:10A4180003F05BC204F0AFEC4EF001C032F002C0B2
:10A4280033F003C034F004C035F0000E366E000E71
:10A43800376E340E386E430E396ED3EC48F032C0A6
:10A4480020F233C021F234C022F235C023F2000ECC
:10A458000001DB6F000EDC6F000EDD6F400EDE6F5B
:10A4680020C254F021C255F022C256F023C257F040
:10A4780021EC53F054C0D7F055C0D8F056C0D9F0ED
:10A4880057C0DAF0FEEC69F0D7C048F2D8C049F2FC
:10A49800D9C04AF2DAC04BF248C201F049C202F010
:10A4A8004AC203F04BC204F01CC205F01DC206F0FC
:10A4B8001EC207F01FC208F0AFEC4EF001C018F240
:10A4C80002C019F203C01AF204C01BF2B10E000157
:10A4D800C06FFF0EC16F18C2C2F019C2C3F01AC212
:10A4E800C4F01BC2C5F015EC3EF09A0E0201286FAD
:10A4F800990E296F090E2A6F400E2B6FC30E2C6F11
:10A50800F50E2D6F1C0E2E6F410E2F6F000E056E6F
:10A51800000E066E2C0E076E420E086E58C201F031
:10A5280059C202F05AC203F05BC204F0AFEC4EF01D
:10A5380001C032F002C033F003C034F004C035F07B
:10A54800000E366E000E376E340E386E430E396EBE
:10A55800D3EC48F032C030F233C031F234C032F2BA
:10A5680035C033F22CC205F02DC206F02EC207F01A
:10A578002FC208F028C201F029C202F02AC203F053
:10A588002BC204F0AFEC4EF001C04CF202C04DF209
:10A5980003C04EF204C04FF230C254F031C255F03D
:10A5A80032C256F033C257F021EC53F054C050F287
:10A5B80055C051F256C052F257C053F24CC201F086
:10A5C8004DC202F04EC203F04FC204F050C205F073
:10A5D80051C206F052C207F053C208F0AFEC4EF079
:10A5E80001C054F202C055F203C056F204C057F23B
:10A5F80054C25CF055C25DF056C25EF057C25FF0BF
:10A60800D4EC57F05CC024F25DC025F25EC026F29F
:10A618005FC027F2CC0E0001C06FFF0EC16F24C2CD
:10A62800C2F025C2C3F026C2C4F027C2C5F015EC9B
:10A638003EF01DEF53F0FEEF7FF054C08CF055C094
:10A648008DF056C08EF057C08FF08CC0A6F08DC02C
:10A65800A7F08EC0A8F08FC0A9F0A6C058F0A7C078
:10A6680059F0A8C05AF0A9C05BF0200E41EF53F092
:10A67800D8905B325A3259325832E82E3CEF53F0B8
:10A6880058C0A0F059C0A1F00001A99FDB0EA65D3B
:10A698000F0EA759490EA8593F0EA959D8B057EF20
:10A6A80053F059EF53F086EF53F0800EA85D390E42
:10A6B800A959D8B062EF53F064EF53F06EEF53F03E
:10A6C80054C054F055C055F056C056F057C057F016
:10A6D80073EF55F054C04BF055C04CF056C04DF0D8
:10A6E80057C04EF0000E506E000E4F6EA0EC4AF0B0
:10A6F8004BC054F04CC055F04DC056F04EC057F00A
:10A7080073EF55F0D20EA65D530EA7597B0EA859CC
:10A71800400EA959D8B093EF53F095EF53F052EF8C
:10A7280054F0E40EA65DCB0EA759160EA859400E9C
:10A73800A959D8B0A2EF53F0A4EF53F0FBEF53F0B0
:10A74800A051A111D8A4ABEF53F0ADEF53F0C9EF6E
:10A7580053F054C01AF055C01BF056C01CF057C037
:10A768001DF0DB0E1E6E0F0E1F6EC90E206EBF0E83
:10A77800216E74EC55F01AC090F01BC091F01CC00B
:10A7880092F01DC093F0E3EF53F054C01AF055C097
:10A798001BF056C01CF057C01DF0DB0E1E6E0F0ECE
:10A7A8001F6EC90E206E3F0E216E74EC55F01AC054
:10A7B80090F01BC091F01CC092F01DC093F090C0A7
:10A7C8004BF091C04CF092C04DF093C04EF0000E8B
:10A7D800506E010E4F6EA0EC4AF04BC054F04CC0C6
:10A7E80055F04DC056F04EC057F073EF55F0A051DC
:10A7F800A111D8A402EF54F004EF54F020EF54F064
:10A8080054C01AF055C01BF056C01CF057C01DF0BC
:10A81800DB0E1E6E0F0E1F6E490E206EC00E216ECF
:10A8280074EC55F01AC094F01BC095F01CC096F05B
:10A838001DC097F03AEF54F054C01AF055C01BF001
:10A8480056C01CF057C01DF0DB0E1E6E0F0E1F6E9B
:10A85800490E206E400E216E74EC55F01AC094F02B
:10A868001BC095F01CC096F01DC097F094C04BF02B
:10A8780095C04CF096C04DF097C04EF0000E506E4B
:10A88800000E4F6EA0EC4AF04BC054F04CC055F08F
:10A898004DC056F04EC057F073EF55F0D60EA65D7A
:10A8A800310EA759E20EA859400EA959D8B05FEF4A
:10A8B80054F061EF54F01EEF55F0E00EA65DED0E7A
:10A8C800A759AF0EA859400EA959D8B06EEF54F049
:10A8D80070EF54F0C7EF54F0A051A111D8A477EF4E
:10A8E80054F079EF54F095EF54F054C01AF055C075
:10A8F8001BF056C01CF057C01DF0E40E1E6ECB0EA8
:10A908001F6E960E206EC00E216E74EC55F01AC0A4
:10A9180098F01BC099F01CC09AF01DC09BF0AFEFD7
:10A9280054F054C01AF055C01BF056C01CF057C064
:10A938001DF0E40E1E6ECB0E1F6E960E206E400E9E
:10A94800216E74EC55F01AC098F01BC099F01CC029
:10A958009AF01DC09BF098C04BF099C04CF09AC07B
:10A968004DF09BC04EF0000E506E010E4F6EA0ECE5
:10A978004AF04BC054F04CC055F04DC056F04EC094
:10A9880057F073EF55F0A051A111D8A4CEEF54F0B1
:10A99800D0EF54F0ECEF54F054C01AF055C01BF04F
:10A9A80056C01CF057C01DF0DB0E1E6E0F0E1F6E3A
:10A9B800C90E206EC00E216E74EC55F01AC09CF0C2
:10A9C8001BC09DF01CC09EF01DC09FF006EF55F007
:10A9D80054C01AF055C01BF056C01CF057C01DF0EB
:10A9E800DB0E1E6E0F0E1F6EC90E206E400E216EFE
:10A9F80074EC55F01AC09CF01BC09DF01CC09EF072
:10AA08001DC09FF09CC04BF09DC04CF09EC04DF007
:10AA18009FC04EF0000E506E000E4F6EA0EC4AF034
:10AA28004BC054F04CC055F04DC056F04EC057F0D6
:10AA380073EF55F0800EA85D7F0EA959D8A027EFB7
:10AA480055F029EF55F045EF55F054C02AF055C0A0
:10AA58002BF056C02CF057C02DF054C02EF055C026
:10AA68002FF056C030F057C031F0CEEC3EF02AC07F
:10AA780054F02BC055F02CC056F02DC057F073EF92
:10AA880055F054C04AF055C04BF056C04CF057C072
:10AA98004DF0A20E4E6E000E4F6E34EC5AF04AC0C6
:10AAA80088F04BC089F00001000E89BFFF0E8A6F45
:10AAB8008B6FA2C04BF0A3C04CF0A4C04DF0A5C052
:10AAC8004EF0010E88154F6E506AA0EC4AF04BC04C
:10AAD80054F04CC055F04DC056F04EC057F012001F
:10AAE8001D50800B266E1D501D24286E1CAE7FEF56
:10AAF80055F081EF55F082EF55F028802850D8B4F2
:10AB080088EF55F08AEF55F09FEF55F02828D8A424
:10AB180090EF55F092EF55F09AEF55F0000E1A6E3F
:10AB2800000E1B6E000E1C6E000E1D6E1C8E000E9D
:10AB38001D6EA7EF55F0000E1A6E000E1B6E000E6C
:10AB48001C6E000E1D6E2150800B276E2650271894
:10AB5800D8B4B1EF55F0B3EF55F0B4EF55F0268CFB
:10AB680021502124276E20AEBCEF55F0BEEF55F0E2
:10AB7800BFEF55F027802750D8B4C5EF55F0C7EF81
:10AB880055F0DCEF55F02728D8A4CDEF55F0CFEFDE
:10AB980055F0D7EF55F0000E1E6E000E1F6E000E1A
:10ABA800206E000E216E208E000E216EE4EF55F00F
:10ABB800000E1E6E000E1F6E000E206E000E216E1F
:10ABC8002850275CD8B0EBEF55F0EDEF55F014EFB7
:10ABD80056F026ACF2EF55F0F4EF55F0F6EF55F0DD
:10ABE800800E261A28C029F027C028F029C027F08F
:10ABF8001AC029F01EC01AF029C01EF01BC029F087
:10AC08001FC01BF029C01FF01CC029F020C01CF079
:10AC180029C020F01DC029F021C01DF029C021F055
:10AC2800000E296E285027C022F0236A225E000EEB
:10AC3800235A23BE29EF56F0235009E11A0E225C4D
:10AC4800D8A029EF56F02BEF56F062EF56F01A50C5
:10AC58001B101C101D10D8A434EF56F037EF56F017
:10AC6800010E38EF56F0000E296E000E1A6E000E17
:10AC78001B6E000E1C6E000E1D6E27C028F06BEFB9
:10AC880056F029A04AEF56F04CEF56F052EF56F026
:10AC9800D89029300109296E54EF56F0D8902932FE
:10ACA8001AA059EF56F05BEF56F05CEF56F0298E7C
:10ACB8001D341D321C321B321A32282A2750285CB8
:10ACC800D8A069EF56F06BEF56F045EF56F026BC6A
:10ACD80070EF56F072EF56F0B2EF56F02850D8A445
:10ACE80078EF56F07AEF56F084EF56F0000E1A6EB1
:10ACF800000E1B6E000E1C6E000E1D6ED3EF57F07B
:10AD08001E501A261F501B2220501C2221501D2283
:10AD18001DA091EF56F093EF56F03FEF57F029A0A2
:10AD280098EF56F09AEF56F0A0EF56F0D8902930E9
:10AD38000109296EA2EF56F0D89029321AA0A7EF80
:10AD480056F0A9EF56F0AAEF56F0298E1D341D32A1
:10AD58001C321B321A32282A3FEF57F01E501A5C59
:10AD68001F501B5820501C581D50800A226E21501D
:10AD7800800A2258D8B0C3EF56F0C5EF56F0F0EF6E
:10AD880056F01A501E5C226E1B501F58236E1C5022
:10AD98002058246E1D502158256EFF0E22241A6E4D
:10ADA800FF0E23201B6EFF0E24201C6EFF0E252095
:10ADB8001D6E800E261A296C2950D8A4E6EF56F08D
:10ADC800E8EF56F0F8EF56F0010E1A26000E1B2297
:10ADD8001C221D22F8EF56F01E501A5E1F501B5AF7
:10ADE80020501C5A21501D5A1A501B101C101D109F
:10ADF800D8A401EF57F003EF57F038EF57F0295078
:10AE0800D8A409EF57F00BEF57F038EF57F0000EC2
:10AE18001A6E000E1B6E000E1C6E000E1D6ED3EF18
:10AE280057F0D8901A361B361C361D3629AE1FEF40
:10AE380057F021EF57F022EF57F01A8029A027EF9B
:10AE480057F029EF57F02DEF57F0D88029362FEF1C
:10AE580057F0D89029362850D8B435EF57F037EF47
:10AE680057F038EF57F028061CAE3DEF57F03FEF8C
:10AE780057F015EF57F0000E276E29AE46EF57F042
:10AE880048EF57F060EF57F029C022F07F0E2216E6
:10AE9800D8B451EF57F053EF57F057EF57F0010E72
:10AEA800276E60EF57F01AA05CEF57F05EEF57F08F
:10AEB80060EF57F053EF57F02750D8B466EF57F0CC
:10AEC80068EF57F093EF57F0010E1A26000E1B2279
:10AED8001C221D221DA073EF57F075EF57F093EF5A
:10AEE80057F01AC022F01BC023F01CC024F01DC06C
:10AEF80025F02534253224322332223222C01AF09A
:10AF080023C01BF024C01CF025C01DF02828D8B48D
:10AF180090EF57F092EF57F093EF57F0282A282830
:10AF2800D8B499EF57F09BEF57F0A3EF57F028509C
:10AF3800D8A4A1EF57F0A3EF57F0B5EF57F0000EE4
:10AF48001A6E000E1B6E000E1C6E000E1D6E285031
:10AF5800D8A4B1EF57F0B3EF57F0B5EF57F0000EA4
:10AF6800266E28A0BAEF57F0BCEF57F0BFEF57F0A6
:10AF78001C8EC0EF57F01C9ED89028301D6E26AE50
:10AF8800C8EF57F0CAEF57F0CBEF57F01D8E1AC035
:10AF98001AF01BC01BF01CC01CF01DC01DF01200D5
:10AFA8005CC0BBF05DC0BCF05EC0BDF05FC0BEF071
:10AFB800BBC0D3F0BCC0D4F0BDC0D5F0BEC0D6F085
:10AFC800000E0001D315AA6F000ED415AB6F800ECA
:10AFD800D515AC6F7F0ED615AD6F800EAC1909E193
:10AFE8007F0EAD19AA11AB11D8A4FDEF57F0FFEFF2
:10AFF80057F02DEF58F05CC005F05DC006F05EC05C
:10B0080007F05FC008F05CC001F05DC002F05EC0F0
:10B0180003F05FC004F0AFEC4EF001C01AF002C0BC
:10B028001BF003C01CF004C01DF05CC01EF05DC026
:10B038001FF05EC020F05FC021F074EC55F01AC01C
:10B048005CF01BC05DF01CC05EF01DC05FF033EF0C
:10B058005AF0D6BF3CEF58F0D651D511D41106E1BD
:10B06800D305D8B03AEF58F03CEF58F078EF58F0E5
:10B07800FF0ED315AA6FFF0ED415AB6FFF0ED515B3
:10B08800AC6F7F0ED615AD6FAA51AB11AC11AD11D7
:10B09800D8A451EF58F053EF58F05DEF58F05CC06A
:10B0A8005CF05DC05DF05EC05EF05FC05FF033EFE6
:10B0B8005AF0D6BF64EF58F062EF58F078EF58F0C6
:10B0C800000EF56F210EF46F950E016EFF0E026EE5
:10B0D800F2EC3DF001C05CF002C05DF003C05EF030
:10B0E80004C05FF033EF5AF0170EAA6FD3C0ABF06D
:10B0F800D4C0ACF0D5C0ADF0D6C0AEF0AA6787EF2B
:10B1080058F08FEF58F0AE35AE33AD33AC33AB33C8
:10B11800AA2F82EF58F0ABC0CBF0ACC0CCF0ADC0DA
:10B12800CDF0AEC0CEF00001CB51CC11CD11CE1177
:10B13800D8A4A1EF58F0A3EF58F0D3EF58F0000EC1
:10B14800B76F000EB86F000EB96F000EBA6FB8EF88
:10B1580058F0D890D337D437D537D637010EB7271C
:10B16800000EB823B923BA23D5AFBDEF58F0BFEF0F
:10B1780058F0ADEF58F0FF0EB725AA6FFF0EB821B3
:10B18800AB6FFF0EB921AC6FFF0EBA21AD6FAA519C
:10B19800CB5FAB51CC5BAC51CD5BAD51CE5B810E7F
:10B1A800CB27FF0ECC23FF0ECD23FF0ECE23FF0EA1
:10B1B800D315AA6FFF0ED415AB6F7F0ED515AC6FE4
:10B1C800000ED615AD6F000EAA11D36F000EAB118D
:10B1D800D46F800EAC11D56F000EAD11D66FCBA118
:10B1E800F8EF58F0FAEF58F002EF59F0D351D3279F
:10B1F800D451D423D551D523D651D623CE35CE33E9
:10B20800CD33CC33CB33D351D327D451D423D551D9
:10B21800D523D651D623000EB36F000EB46F000E9F
:10B22800B56F000EB66FB3C0BFF0B4C0C0F0B5C004
:10B23800C1F0B6C0C2F0000ECF6F000ED06F000E86
:10B24800D16F010ED26F71EF59F0B351CF25C36F93
:10B25800B451D021C46FB551D121C56FB651D22197
:10B26800C66FC351D35DC451D459C551D559D651B0
:10B27800800AAA6FC651800AAA59D8A046EF59F089
:10B2880048EF59F064EF59F0C351CF25B36FC4515B
:10B29800D021B46FC551D121B56FC651D221B66F37
:10B2A800C351D35FC451D45BC551D55BC651D65B7E
:10B2B800CF51BF27D051C023D151C123D251C2236E
:10B2C800D351D327D451D423D551D523D651D623FE
:10B2D800D890D233D133D033CF33CF51D011D1110D
:10B2E800D211D8A47AEF59F07CEF59F029EF59F030
:10B2F800D351D411D511D611D8B485EF59F087EFB1
:10B3080059F0E8EF59F0000EC76F000EC86F800EB5
:10B31800C96F3F0ECA6FC7C032F0C8C033F0C9C08A
:10B3280034F0CAC035F0000E366E000E376E800E4F
:10B33800386E3F0E396EB9EC42F0D8A0A6EF59F03E
:10B34800A8EF59F0E8EF59F0000E0001C76F000EA2
:10B35800C86F800EC96F3F0ECA6F000E326E000EA6
:10B36800336E800E346E3F0E356EC7C036F0C8C0DF
:10B3780037F0C9C038F0CAC039F0B9EC42F0D8B0DB
:10B38800C8EF59F0CAEF59F0D3EF59F0020E000197
:10B39800BF27000EC023C123C223E8EF59F0010ED6
:10B3A8000001BF15AA6F000EC015AB6F000EC115C6
:10B3B800AC6F000EC215AD6FAA51BF27AB51C023A9
:10B3C800AC51C123AD51C223BFC0AAF0C0C0ABF07D
:10B3D800C1C0ACF0C2C0ADF00001AD35AD33AC3387
:10B3E800AB33AA33000EAA25D36F000EAB21D46F5E
:10B3F800000EAC21D56F3F0EAD21D66FCBC0AAF0A1
:10B40800CCC0ABF0CDC0ACF0CEC0ADF0170ED8902C
:10B41800AA37AB37AC37AD37E82E0BEF5AF0AA5145
:10B42800D327AB51D423AC51D523AD51D623D3C0A8
:10B43800BBF0D4C0BCF0D5C0BDF0D6C0BEF0BBC018
:10B44800C7F0BCC0C8F0BDC0C9F0BEC0CAF0C7C014
:10B458005CF0C8C05DF0C9C05EF0CAC05FF0120001
:10B46800ECC06AF0EDC06BF0EEC06CF0EFC06DF0B0
:10B478004AC06AF04BC06BF04CC06CF04DC06DF028
:10B488006AC050F06BC051F06CC052F06DC053F000
:10B49800200E54EF5AF0D890533252325132503273
:10B4A800E82E4FEF5AF050C068F051C069F0FF0E17
:10B4B80000016A15646FFF0E6B15656FFF0E6C1542
:10B4C800666F7F0E6D15676F800E665D7F0E67591C
:10B4D800D8A071EF5AF073EF5AF09DEF5AF04AC0B6
:10B4E8002AF04BC02BF04CC02CF04DC02DF04AC0B8
:10B4F8002EF04BC02FF04CC030F04DC031F0CEECE8
:10B508003EF060003BF1D9FF60003FF1DAFF6000D8
:10B51800ABF0DEFF6000AFF0DEFF6000B3F0DEFFEF
:10B528006000B7F0DEFF000E4B6E000E4A6E9CEF17
:10B538005CF0DB0E645D0F0E6559C90E66594D0E41
:10B548006759D8B0AAEF5AF0ACEF5AF0ADEF5BF0FC
:10B558004AC001F04BC002F04CC003F04DC004F0EB
:10B568003DEC3EF001C076F002C077F003C078F001
:10B5780004C079F0000E1E6E000E1F6E000E206EC5
:10B588003F0E216E830E056EF90E066E220E076EB3
:10B598003F0E086E76C001F077C002F078C003F065
:10B5A80079C004F0AFEC4EF001C01AF002C01BF0F5
:10B5B80003C01CF004C01DF074EC55F01AC02AF04A
:10B5C8001BC02BF01CC02CF01DC02DF03BEC43F031
:10B5D8002AC07AF02BC07BF02CC07CF02DC07DF007
:10B5E8007AC001F07BC002F07CC003F07DC004F09B
:10B5F800010EBEEC43F001C072F002C073F003C04C
:10B6080074F004C075F0DA0E056E0F0E066EC90EE2
:10B61800076E3F0E086E72C001F073C002F074C06E
:10B6280003F075C004F0AFEC4EF001C02EF002C07C
:10B638002FF003C030F004C031F076C02AF077C094
:10B648002BF078C02CF079C02DF0CEEC3EF02AC05B
:10B658006EF02BC06FF02CC070F02DC071F06EC072
:10B668002AF06FC02BF070C02CF071C02DF0A30E23
:10B67800056E850E066E880E076E320E086E72C055
:10B6880001F073C002F074C003F075C004F0AFECB1
:10B698004EF001C02EF002C02FF003C030F004C0FD
:10B6A80031F0CEEC3EF060003BF1D9FF60003FF195
:10B6B800DAFF6000ABF0DEFF6000AFF0DEFF600095
:10B6C800B3F0DEFF6000B7F0DEFF000168516911DA
:10B6D800D8B471EF5BF073EF5BF0A7EF5BF060003D
:10B6E8003BF1D9FF60003FF1DAFF6F0078FF46F0C9
:10B6F8006F0078FF47F06F0078FF48F06F0078FF21
:10B7080049F057EC3EF060003BF1D9FF60003FF193
:10B71800DAFF60001BF1DEFF60001FF1DEFF600052
:10B7280023F1DEFF600027F1DEFF7AC050F07BC016
:10B7380051F0501E511E504A512A50C04AF051C073
:10B748004BF09CEF5CF07AC04AF07BC04BF09CEF6A
:10B758005CF04AC001F04BC002F04CC003F04DC091
:10B7680004F03DEC3EF001C076F002C077F003C073
:10B7780078F004C079F0000E1E6E000E1F6E000EE9
:10B78800206E3F0E216E830E056EF90E066E220E98
:10B79800076E3F0E086E76C001F077C002F078C0E1
:10B7A80003F079C004F0AFEC4EF001C01AF002C00B
:10B7B8001BF003C01CF004C01DF074EC55F01AC057
:10B7C8002AF01BC02BF01CC02CF01DC02DF03BEC48
:10B7D80043F02AC07AF02BC07BF02CC07CF02DC03F
:10B7E8007DF07AC001F07BC002F07CC003F07DC020
:10B7F80004F0010EBEEC43F001C072F002C073F019
:10B8080003C074F004C075F0DA0E056E0F0E066EF4
:10B81800C90E076E3F0E086E72C001F073C002F0C9
:10B8280074C003F075C004F0AFEC4EF001C02EF008
:10B8380002C02FF003C030F004C031F076C02AF007
:10B8480077C02BF078C02CF079C02DF0CEEC3EF00C
:10B858002AC06EF02BC06FF02CC070F02DC071F0B4
:10B868006EC02AF06FC02BF070C02CF071C02DF0A4
:10B87800A30E056E850E066E880E076E320E086ED4
:10B8880072C001F073C002F074C003F075C004F018
:10B89800AFEC4EF001C02EF002C02FF003C030F024
:10B8A80004C031F0CEEC3EF02AC060F02BC061F04D
:10B8B8002CC062F02DC063F0000168516911D8B442
:10B8C80068EF5CF06AEF5CF088EF5CF060C046F00F
:10B8D80061C047F062C048F063C049F057EC3EF0E1
:10B8E80060003BF1D9FF60003FF1DAFF60001BF117
:10B8F800DEFF60001FF1DEFF600023F1DEFF600065
:10B9080027F1DEFF99EF5BF060003BF1D9FF6000A3
:10B918003FF1DAFF600083F1DEFF600087F1DEFFB0
:10B9280060008BF1DEFF60008FF1DEFFA7EF5BF0B8
:10B93800120054C082F055C083F056C084F057C03E
:10B9480085F082C098F083C099F084C09AF085C0D1
:10B958009BF098C058F099C059F09AC05AF09BC013
:10B968005BF0200EBDEF5CF0D8905B325A32593252
:10B978005832E82EB8EF5CF058C092F059C093F0F6
:10B9880000019B9FDB0E985D0F0E9959490E9A593D
:10B998003F0E9B59D8B0D3EF5CF0D5EF5CF0FEEFCB
:10B9A8005CF0800E9A5D390E9B59D8B0DEEF5CF0E2
:10B9B800E0EF5CF0EAEF5CF0000E546E000E556E9E
:10B9C800800E566E3F0E576E67EF5FF054C02AF038
:10B9D80055C02BF056C02CF057C02DF098EC44F011
:10B9E8002AC054F02BC055F02CC056F02DC057F08B
:10B9F80067EF5FF0D20E985D530E99597B0E9A59F6
:10BA0800400E9B59D8B00BEF5DF00DEF5DF0D6EF0F
:10BA18005DF0E40E985DCB0E9959160E9A59400EBA
:10BA28009B59D8A01AEF5DF01CEF5DF079EF5DF03F
:10BA380092519311D8A423EF5DF025EF5DF041EF0B
:10BA48005DF054C01AF055C01BF056C01CF057C02A
:10BA58001DF0DB0E1E6E0F0E1F6E490E206EC00EFF
:10BA6800216E74EC55F01AC086F01BC087F01CC01C
:10BA780088F01DC089F05BEF5DF054C01AF055C026
:10BA88001BF056C01CF057C01DF0DB0E1E6E0F0ECB
:10BA98001F6E490E206E400E216E74EC55F01AC0D0
:10BAA80086F01BC087F01CC088F01DC089F086C0D6
:10BAB8002AF087C02BF088C02CF089C02DF098ECB4
:10BAC80044F02AC046F02BC047F02CC048F02DC0E7
:10BAD80049F057EC3EF046C054F047C055F048C016
:10BAE80056F049C057F067EF5FF092519311D8B400
:10BAF80080EF5DF082EF5DF0B0EF5DF054C01AF0BA
:10BB080055C01BF056C01CF057C01DF0DB0E1E6E52
:10BB18000F0E1F6EC90E206E3F0E216E74EC55F08D
:10BB28001AC08EF01BC08FF01CC090F01DC091F0A1
:10BB38008EC04AF08FC04BF090C04CF091C04DF0D1
:10BB4800A0EC46F04AC054F04BC055F04CC056F03B
:10BB58004DC057F067EF5FF0DB0E2A6E0F0E2B6EAD
:10BB6800C90E2C6E3F0E2D6E54C02EF055C02FF00E
:10BB780056C030F057C031F0CEEC3EF02AC04AF043
:10BB88002BC04BF02CC04CF02DC04DF0A0EC46F073
:10BB98004AC054F04BC055F04CC056F04DC057F059
:10BBA80067EF5FF0D60E985D310E9959E20E9A59FB
:10BBB800400E9B59D8B0E3EF5DF0E5EF5DF092EFF2
:10BBC8005EF0E00E985DED0E9959AF0E9A59400E51
:10BBD8009B59D8A0F2EF5DF0F4EF5DF047EF5EF00F
:10BBE80092519311D8A4FBEF5DF0FDEF5DF019EFD2
:10BBF8005EF054C01AF055C01BF056C01CF057C078
:10BC08001DF0DB0E1E6E0F0E1F6EC90E206EC00ECD
:10BC1800216E74EC55F01AC08AF01BC08BF01CC062
:10BC28008CF01DC08DF033EF5EF054C01AF055C093
:10BC38001BF056C01CF057C01DF0DB0E1E6E0F0E19
:10BC48001F6EC90E206E400E216E74EC55F01AC09E
:10BC58008AF01BC08BF01CC08CF01DC08DF08AC010
:10BC68002AF08BC02BF08CC02CF08DC02DF098ECF6
:10BC780044F02AC054F02BC055F02CC056F02DC00B
:10BC880057F067EF5FF092519311D8B44EEF5EF022
:10BC980050EF5EF076EF5EF0E40E2A6ECB0E2B6E60
:10BCA800960E2C6EC00E2D6E54C02EF055C02FF07F
:10BCB80056C030F057C031F0CEEC3EF02AC04AF002
:10BCC8002BC04BF02CC04CF02DC04DF0A0EC46F032
:10BCD8004AC054F04BC055F04CC056F04DC057F018
:10BCE80067EF5FF054C01AF055C01BF056C01CF047
:10BCF80057C01DF0E40E1E6ECB0E1F6E960E206E02
:10BD0800C00E216E74EC55F01AC08EF01BC08FF077
:10BD18001CC090F01DC091F09CEF5DF0800E9A5D04
:10BD28007F0E9B59D8A09BEF5EF09DEF5EF0B9EFB8
:10BD38005EF054C02AF055C02BF056C02CF057C006
:10BD48002DF054C02EF055C02FF056C030F057C01B
:10BD580031F0CEEC3EF02AC054F02BC055F02CC088
:10BD680056F02DC057F067EF5FF054C04AF055C049
:10BD78004BF056C04CF057C04DF0940E4E6E000E6E
:10BD88004F6E34EC5AF04AC07EF04BC07FF0000191
:10BD9800000E7FBFFF0E806F816F37EF5FF094C09A
:10BDA8002AF095C02BF096C02CF097C02DF098EC97
:10BDB80044F02AC054F02BC055F02CC056F02DC0CA
:10BDC80057F067EF5FF094C046F095C047F096C013
:10BDD80048F097C049F057EC3EF046C04AF047C0DB
:10BDE8004BF048C04CF049C04DF0A0EC46F04AC0BA
:10BDF80054F04BC055F04CC056F04DC057F067EFAB
:10BE08005FF094C02AF095C02BF096C02CF097C034
:10BE18002DF098EC44F02AC046F02BC047F02CC017
:10BE280048F02DC049F057EC3EF046C054F047C0EA
:10BE380055F048C056F049C057F067EF5FF094C01E
:10BE48004AF095C04BF096C04CF097C04DF0A0EC6E
:10BE580046F04AC054F04BC055F04CC056F04DC0A7
:10BE680057F067EF5FF0030E7E15586E000E7F15D2
:10BE7800596E000E80155A6E000E81155B6E5B5070
:10BE8800000AD8B460EF5FF023EF5FF05950000A62
:10BE9800D8B451EF5FF023EF5FF05850000AD8B4E0
:10BEA800D3EF5EF0010AD8B4E7EF5EF0030AD8B426
:10BEB80005EF5FF023EF5FF05A50000AD8B44AEF5D
:10BEC8005FF023EF5FF012004BC060F04CC061F0F0
:10BED8004DC062F04EC063F060C08EF061C08FF05C
:10BEE80062C090F063C091F08EC04FF08FC050F0E8
:10BEF80090C051F091C052F0200E88EF5FF0D890BA
:10BF08005232513250324F32E82E83EF5FF04FC039
:10BF180078F050C079F051C07AF052C07BF000013F
:10BF2800919F800E905D4C0E9159D8A09EEF5FF0C6
:10BF3800A0EF5FF00EEF60F04BC001F04CC002F0D4
:10BF48004DC003F04EC004F03AEC42F0015002102C
:10BF5800D8A4B1EF5FF0B3EF5FF0BDEF5FF04BC077
:10BF68004BF04CC04CF04DC04DF04EC04EF0A8EF19
:10BF780063F0A70EF66EFE0EF76EF86A09006F0002
:10BF8800D4FF1AF009006F00D4FF1BF009006F00FE
:10BF9800D4FF1CF00A006F00D4FF1DF0000E1E6EC7
:10BFA800000E1F6E800E206E030E216E74EC55F08D
:10BFB8001AC08AF01BC08BF01CC08CF01DC08DF01D
:10BFC8000001785179117A117B11D8A4EEEF5FF056
:10BFD800F0EF5FF0FAEF5FF08AC04BF08BC04CF0E7
:10BFE8008CC04DF08DC04EF0A8EF63F08AC046F0CB
:10BFF8008BC047F08CC048F08DC049F057EC3EF03C
:10C0080046C04BF047C04CF048C04DF049C04EF018
:10C01800A8EF63F0E00E905D3E0E9159D8B017EF8F
:10C0280060F019EF60F02AEF60F0800E905D390E35
:10C038009159D8B022EF60F024EF60F026EF60F05D
:10C04800B3EF5FF0886989696CEF61F04BC001F06C
:10C058004CC002F04DC003F04EC004F03DEC3EF081
:10C0680001C04BF002C04CF003C04DF004C04EF0CC
:10C07800980E0001905D3F0E9159D8B046EF60F0E0
:10C0880048EF60F0EDEF60F0300E905D3F0E915993
:10C09800D8B051EF60F053EF60F0A9EF60F0000EF8
:10C0A800896F000E886F000E1E6E000E1F6E800EC8
:10C0B800206EBF0E216E000E056E000E066E000E7D
:10C0C800076E400E086E4BC001F04CC002F04DC028
:10C0D80003F04EC004F0AFEC4EF001C01AF002C0FD
:10C0E8001BF003C01CF004C01DF074EC55F01AC01E
:10C0F80032F01BC033F01CC034F01DC035F0000E08
:10C108001E6E000E1F6E000E206E400E216E4BC07C
:10C118001AF04CC01BF04DC01CF04EC01DF074EC62
:10C1280055F01AC036F01BC037F01CC038F01DC0DF
:10C1380039F0D3EC48F032C04BF033C04CF034C087
:10C148004DF035C04EF06CEF61F0000E896F010EB6
:10C15800886F000E1E6E000E1F6E800E206EBF0EC2
:10C16800216E4BC01AF04CC01BF04DC01CF04EC0E5
:10C178001DF074EC55F01AC032F01BC033F01CC02F
:10C1880034F01DC035F0000E1E6E000E1F6E800EBE
:10C19800206E3F0E216E4BC01AF04CC01BF04DC0F4
:10C1A8001CF04EC01DF074EC55F01AC036F01BC0E0
:10C1B80037F01CC038F01DC039F0D3EC48F032C05D
:10C1C8004BF033C04CF034C04DF035C04EF06CEF3E
:10C1D80061F01C0E905D400E9159D8B0F6EF60F0FA
:10C1E800F8EF60F04EEF61F0000E896F020E886F75
:10C1F800000E1E6E000E1F6EC00E206EBF0E216E4A
:10C208004BC01AF04CC01BF04DC01CF04EC01DF0C6
:10C2180074EC55F01AC032F01BC033F01CC034F077
:10C228001DC035F0000E1E6E000E1F6E800E206EB3
:10C238003F0E216E000E056E000E066EC00E076ED4
:10C248003F0E086E4BC001F04CC002F04DC003F029
:10C258004EC004F0AFEC4EF001C01AF002C01BF063
:10C2680003C01CF004C01DF074EC55F01AC036F081
:10C278001BC037F01CC038F01DC039F0D3EC48F0B3
:10C2880032C04BF033C04CF034C04DF035C04EF0E6
:10C298006CEF61F0000E896F030E886F000E326E2E
:10C2A800000E336E800E346EBF0E356E4BC036F006
:10C2B8004CC037F04DC038F04EC039F0D3EC48F0E0
:10C2C80032C04BF033C04CF034C04DF035C04EF0A6
:10C2D8004BC001F04CC002F04DC003F04EC004F05A
:10C2E8004BC005F04CC006F04DC007F04EC008F03A
:10C2F800AFEC4EF001C08AF002C08BF003C08CF0A6
:10C3080004C08DF08AC001F08BC002F08CC003F02D
:10C318008DC004F08AC005F08BC006F08CC007F011
:10C328008DC008F0AFEC4EF001C084F002C085F07B
:10C3380003C086F004C087F07F0EF66EFE0EF76E1F
:10C34800F86A09006F00D4FF1EF009006F00D4FFDF
:10C358001FF009006F00D4FF20F00A006F00D4FF1F
:10C3680021F084C005F085C006F086C007F087C0BC
:10C3780008F0870EF66EFE0EF76EF86A09006F0079
:10C38800D4FF01F009006F00D4FF02F009006F002C
:10C39800D4FF03F00A006F00D4FF04F0AFEC4EF0B6
:10C3A80001C01AF002C01BF003C01CF004C01DF04D
:10C3B80074EC55F01AC07CF01BC07DF01CC07EF0F8
:10C3C8001DC07FF0770EF66EFE0EF76E000EF86E4B
:10C3D80009006F00D4FF1EF009006F00D4FF1FF0A2
:10C3E80009006F00D4FF20F00A006F00D4FF21F08D
:10C3F80084C005F085C006F086C007F087C008F045
:10C408007CC001F07DC002F07EC003F07FC004F064
:10C41800AFEC4EF001C01AF002C01BF003C01CF0D4
:10C4280004C01DF074EC55F01AC064F01BC065F030
:10C438001CC066F01DC067F064C001F065C002F062
:10C4480066C003F067C004F08AC005F08BC006F030
:10C458008CC007F08DC008F0AFEC4EF001C070F052
:10C4680002C071F003C072F004C073F07B0EF66E68
:10C47800FE0EF76EF86A09006F00D4FF1EF009007F
:10C488006F00D4FF1FF009006F00D4FF20F00A00EE
:10C498006F00D4FF21F084C005F085C006F086C087
:10C4A80007F087C008F0830EF66EFE0EF76EF86A86
:10C4B80009006F00D4FF01F009006F00D4FF02F0FB
:10C4C80009006F00D4FF03F00A006F00D4FF04F0E6
:10C4D800AFEC4EF001C01AF002C01BF003C01CF014
:10C4E80004C01DF074EC55F01AC07CF01BC07DF040
:10C4F8001CC07EF01DC07FF07CC001F07DC002F042
:10C508007EC003F07FC004F084C005F085C006F04B
:10C5180086C007F087C008F0AFEC4EF001C074F099
:10C5280002C075F003C076F004C077F0000189BF3F
:10C53800A2EF62F0A0EF62F0EAEF62F04BC005F004
:10C548004CC006F04DC007F04EC008F074C01EF095
:10C5580075C01FF076C020F077C021F070C01AF0C7
:10C5680071C01BF072C01CF073C01DF074EC55F064
:10C578001AC001F01BC002F01CC003F01DC004F07B
:10C58800AFEC4EF001C080F002C081F003C082F031
:10C5980004C083F04BC02AF04CC02BF04DC02CF0E7
:10C5A8004EC02DF080C02EF081C02FF082C030F038
:10C5B80083C031F0CEEC3EF02AC04BF02BC04CF0DB
:10C5C8002CC04DF02DC04EF0A8EF63F04BC005F025
:10C5D8004CC006F04DC007F04EC008F074C01EF005
:10C5E80075C01FF076C020F077C021F070C01AF037
:10C5F80071C01BF072C01CF073C01DF074EC55F0D4
:10C608001AC001F01BC002F01CC003F01DC004F0EA
:10C61800AFEC4EF001C080F002C081F003C082F0A0
:10C6280004C083F088C04FF089C050F0D8904F36CE
:10C638005036D8904F3650368B0E4F24F66EFE0E7D
:10C648005020F76EF86A000EF82209006F00D4FF38
:10C658002EF009006F00D4FF2FF009006F00D4FFFF
:10C6680030F00A006F00D4FF31F080C02AF081C09A
:10C678002BF082C02CF083C02DF0CEEC3EF02AC007
:10C6880068F02BC069F02CC06AF02DC06BF04BC06D
:10C698002EF04CC02FF04DC030F04EC031F068C0C5
:10C6A8002AF069C02BF06AC02CF06BC02DF0CEECDC
:10C6B8003EF02AC06CF02BC06DF02CC06EF02DC07F
:10C6C8006FF088C04FF089C050F0D8904F36503680
:10C6D800D8904F3650369B0E4F24F66EFE0E5020E3
:10C6E800F76EF86A000EF82209006F00D4FF2AF0EE
:10C6F80009006F00D4FF2BF009006F00D4FF2CF065
:10C708000A006F00D4FF2DF06CC02EF06DC02FF022
:10C718006EC030F06FC031F0CEEC3EF02AC08AF027
:10C728002BC08BF02CC08CF02DC08DF000017851FF
:10C7380079117A117B11D8A4A4EF63F0A6EF63F006
:10C74800FAEF5FF0F0EF5FF01200000E0001876F64
:10C75800000E866F62C098F063C099F064C09AF0CA
:10C7680065C09BF09BBFBDEF63F0BBEF63F0D3EFF9
:10C7780063F0000E876F010E866F98C046F099C06F
:10C7880047F09AC048F09BC049F057EC3EF046C0CD
:10C7980098F047C099F048C09AF049C09BF0000E45
:10C7A80000019F6F000E9E6FF8C08AF0F9C08BF0F1
:10C7B80086518711D8A4E3EF63F0E5EF63F0ECEF5F
:10C7C80063F0FCA5EAEF63F0ECEF63F006EF64F0CA
:10C7D80086518711D8A4F3EF63F0F5EF63F0FBEF10
:10C7E80063F0000E6D6F2B0E6C6FFFEF63F0000EA1
:10C7F8006D6F2D0E6C6F6CC05CF29E4B9F2B8A0781
:10C80800D8A08B0798C001F099C002F09AC003F035
:10C818009BC004F03AEC42F001040210D8A417EFD0
:10C8280064F019EF64F070EF64F0BF0E0001676FF9
:10C83800FF0E686F6651696F6A6B675169276851A7
:10C848006A236A510AE11A0E695DD8A02EEF64F0D6
:10C8580031EF64F0010E32EF64F0000E6E6F6F6B13
:10C868006E516F11D8B43BEF64F03DEF64F04BEFBD
:10C8780064F05C0E9E25016E020E9F21026EE70E8B
:10C88800036EFF0E046E84EC3FF057EF64F05C0E0D
:10C898009E25016E020E9F21026EEF0E036EFF0EA3
:10C8A800046E84EC3FF00001FD0E8A27FF0E8B23F7
:10C8B80060C013F061C014F05C0E156E020E166EA7
:10C8C8008AC017F08BC018F05DEC41F013C060F01F
:10C8D80014C061F0FDEF69F098C001F099C002F052
:10C8E8009AC003F09BC004F03AEC42F001500210E9
:10C8F800D8A481EF64F083EF64F0DAEF64F0BF0E40
:10C908000001676FFF0E686F6651696F6A6B675148
:10C91800692768516A236A510AE11A0E695DD8A02D
:10C9280098EF64F09BEF64F0010E9CEF64F0000E4A
:10C93800706F716B70517111D8B4A5EF64F0A7EFE7
:10C9480064F0B5EF64F05C0E9E25016E020E9F2127
:10C95800026EEB0E036EFF0E046E84EC3FF0C1EF27
:10C9680064F05C0E9E25016E020E9F21026EF30E8E
:10C97800036EFF0E046E84EC3FF00001FD0E8A2763
:10C98800FF0E8B2360C013F061C014F05C0E156EAF
:10C99800020E166E8AC017F08BC018F05DEC41F0DD
:10C9A80013C060F014C061F0FDEF69F0000E0001E3
:10C9B800A06F000EA16F800EA26F3F0EA36F000E36
:10C9C8009D6F000E9C6F98C001F099C002F09AC04C
:10C9D80003F09BC004F0000E056E000E066E000EFC
:10C9E800076E000E086E4EEC40F0D8B0FEEF64F013
:10C9F80000EF65F083EF65F01FEF65F0A0C001F070
:10CA0800A1C002F0A2C003F0A3C004F0000E056E9E
:10CA1800000E066E200E076E410E086EAFEC4EF04B
:10CA280001C0A0F002C0A1F003C0A2F004C0A3F0AE
:10CA380000019C4B9D2B98C032F099C033F09AC0EE
:10CA480034F09BC035F0000E056E000E066E200E09
:10CA5800076E410E086EA0C001F0A1C002F0A2C08E
:10CA680003F0A3C004F0AFEC4EF001C036F002C0F2
:10CA780037F003C038F004C039F0B9EC42F0D8B050
:10CA880048EF65F04AEF65F002EF65F06AEF65F090
:10CA9800A0C032F0A1C033F0A2C034F0A3C035F07A
:10CAA800000E366E000E376E200E386E410E396E4F
:10CAB800D3EC48F032C0A0F033C0A1F034C0A2F0EB
:10CAC80035C0A3F000019C07D8A09D0798C032F09C
:10CAD80099C033F09AC034F09BC035F0A0C036F04E
:10CAE800A1C037F0A2C038F0A3C039F0B9EC42F0C9
:10CAF800D8A081EF65F083EF65F04CEF65F066C074
:10CB080007F0086A20EC3FF0075000018D6F8DC0D8
:10CB18008CF0670E8D19D8A494EF65F096EF65F048
:10CB2800BCEF65F0FA51FB11D8A49DEF65F09FEFBB
:10CB380065F0A3EF65F0000EFB6F010EFA6FFBBF07
:10CB4800B0EF65F0FB5106E1FA05D8B0AEEF65F03D
:10CB5800B0EF65F0B6EF65F0000E896F060E886FCE
:10CB6800C5EF65F0FAC088F0FBC089F0C5EF65F045
:10CB7800FBBFC1EF65F0C3EF65F0B0EF65F0B6EF4E
:10CB880065F0670E8D19D8A4CCEF65F0CEEF65F08F
:10CB9800FDEF65F09DAFDCEF65F0FC0E9C5DFF0ED0
:10CBA8009D59D8A0DAEF65F0DCEF65F0FBEF65F092
:10CBB800FF0E676FFF0E686F88C069F089C06AF062
:10CBC8006751692768516A239C51695D6A51800AD7
:10CBD8006B6F9D51800A6B59D8A0F5EF65F0F7EFA0
:10CBE80065F0FBEF65F0660E8C6FFDEF65F0650E86
:10CBF8008C6F88C07EF089C07FF0670E8D19D8A42D
:10CC080008EF66F00AEF66F01AEF66F0660E8C1908
:10CC1800D8A411EF66F013EF66F01CEF66F09DBF25
:10CC28001AEF66F018EF66F01CEF66F07E4B7F2B6C
:10CC3800660E8C19D8A423EF66F025EF66F045EF51
:10CC480066F09DBF2CEF66F02AEF66F038EF66F0CD
:10CC5800000EA06F000EA16F800EA26F3F0EA36F93
:10CC6800000E9D6F000E9C6F670E8D19D8B43FEFB4
:10CC780066F041EF66F045EF66F09C517E279D51C6
:10CC88007F23000E976F000E966F98C08EF099C0A4
:10CC98008FF09AC090F09BC091F0A0C080F0A1C026
:10CCA80081F0A2C082F0A3C083F0D6EF66F08EC0F8
:10CCB80032F08FC033F090C034F091C035F0A0C08E
:10CCC80036F0A1C037F0A2C038F0A3C039F0D3ECD9
:10CCD80048F032C04BF033C04CF034C04DF035C092
:10CCE8004EF097EC45F04BC092F04CC093F04DC01D
:10CCF80094F04EC095F092C02AF093C02BF094C0E7
:10CD08002CF095C02DF03BEC43F02AC084F02BC0EA
:10CD180085F08EC02AF08FC02BF090C02CF091C007
:10CD28002DF0A0C005F0A1C006F0A2C007F0A3C076
:10CD380008F092C001F093C002F094C003F095C0CF
:10CD480004F0AFEC4EF001C02EF002C02FF003C08B
:10CD580030F004C031F0CEEC3EF02AC08EF02BC08B
:10CD68008FF02CC090F02DC091F0A0C032F0A1C07F
:10CD780033F0A2C034F0A3C035F0000E366E000EBA
:10CD8800376E200E386E410E396ED3EC48F032C043
:10CD9800A0F033C0A1F034C0A2F035C0A3F0000168
:10CDA800964B972B7E51965D9751800A676F7F51FE
:10CDB800800A6759D8A0E3EF66F0E5EF66F05BEF0D
:10CDC80066F0A0C001F0A1C002F0A2C003F0A3C0A9
:10CDD80004F0000E056E000E066EA00E076E400EE3
:10CDE800086EAFEC4EF001C092F002C093F003C0A1
:10CDF80094F004C095F08EC032F08FC033F090C02C
:10CE080034F091C035F092C036F093C037F094C03A
:10CE180038F095C039F0B9EC42F0D8B016EF67F0A9
:10CE280018EF67F023EF67F0000E0001926F000E15
:10CE3800936F000E946F000E956F4CEF67F08EC0E5
:10CE480001F08FC002F090C003F091C004F092C0CE
:10CE580005F093C006F094C007F095C008F04EECBA
:10CE680040F0D8A03AEF67F03CEF67F04CEF67F07E
:10CE7800000184B142EF67F044EF67F04CEF67F0D0
:10CE8800000E926F000E936F000E946F000E956F58
:10CE980098C01AF099C01BF09AC01CF09BC01DF0F6
:10CEA80092C01EF093C01FF094C020F095C021F0EE
:10CEB80074EC55F01AC08EF01BC08FF01CC090F0B7
:10CEC8001DC091F08EC032F08FC033F090C034F0A6
:10CED80091C035F0000E056E000E066E200E076E2E
:10CEE800410E086E80C001F081C002F082C003F0DC
:10CEF80083C004F0AFEC4EF001C036F002C037F04A
:10CF080003C038F004C039F0B9EC42F0D8A08FEF74
:10CF180067F091EF67F0BAEF67F000019C4B9D2B2B
:10CF280080C001F081C002F082C003F083C004F029
:10CF3800000E056E000E066E200E076E410E086E7E
:10CF4800AFEC4EF001C080F002C081F003C082F067
:10CF580004C083F0660E00018C19D8A4B6EF67F000
:10CF6800B8EF67F0BAEF67F07E4B7F2B80C0A0F078
:10CF780081C0A1F082C0A2F083C0A3F0650E0001B9
:10CF88008C19D8B4CAEF67F0CCEF67F0D2EF67F02E
:10CF98009CC07CF09DC07DF0D6EF67F0000E7D6FE1
:10CFA800000E7C6F000E7B6F000E7A6F000E796F9B
:10CFB800000E786F000E976F000E966FD1EF68F035
:10CFC8008EC032F08FC033F090C034F091C035F08D
:10CFD800A0C036F0A1C037F0A2C038F0A3C039F025
:10CFE800D3EC48F032C04BF033C04CF034C04DF0B5
:10CFF80035C04EF097EC45F04BC092F04CC093F022
:10D008004DC094F04EC095F092C02AF093C02BF01A
:10D0180094C02CF095C02DF03BEC43F02AC084F06E
:10D028002BC085F00001FCB91CEF68F01EEF68F01A
:10D038003BEF68F084518511D8A425EF68F027EFFD
:10D0480068F03BEF68F0670E8D19D8A42EEF68F0F2
:10D0580030EF68F03BEF68F07DBF37EF68F035EFF1
:10D0680068F03BEF68F0784B792B85EF68F07A51E0
:10D078007B11D8A442EF68F044EF68F06EEF68F0D7
:10D088007DBF4BEF68F049EF68F06EEF68F05C0E1B
:10D098009E25D96E020E9F21DA6E2E0EDF6E9E4BF4
:10D0A8009F2B8A07D8A08B07000E7B6F010E7A6F23
:10D0B8006EEF68F05C0E9E25D96E020E9F21DA6E27
:10D0C800300EDF6E9E4B9F2B8A07D8A08B07780700
:10D0D800D8A0790778517911D8A475EF68F077EF5F
:10D0E80068F05EEF68F05C0E9E25D96E020E9F21F7
:10D0F800DA6E8451300FDF6E9E4B9F2B8A07D8A0C3
:10D108008B078EC02AF08FC02BF090C02CF091C0F6
:10D118002DF0A0C005F0A1C006F0A2C007F0A3C082
:10D1280008F092C001F093C002F094C003F095C0DB
:10D1380004F0AFEC4EF001C02EF002C02FF003C097
:10D1480030F004C031F0CEEC3EF02AC08EF02BC097
:10D158008FF02CC090F02DC091F0A0C032F0A1C08B
:10D1680033F0A2C034F0A3C035F0000E366E000EC6
:10D17800376E200E386E410E396ED3EC48F032C04F
:10D18800A0F033C0A1F034C0A2F035C0A3F0000174
:10D198007C07D8A07D07964B972B7E51965D9751BB
:10D1A800800A676F7F51800A6759D8B0DEEF68F050
:10D1B800E0EF68F0EEEF68F09FBFECEF68F09F518A
:10D1C80009E14B0E9E5DD8A0ECEF68F0EEEF68F039
:10D1D800E4EF67F07A517B11D8A4F5EF68F0F7EF28
:10D1E80068F008EF69F0FCA9FCEF68F0FEEF68F062
:10D1F80008EF69F05C0E9E25D96E020E9F21DA6E4B
:10D208002E0EDF6E9E4B9F2B5C0E9E25D96E020E56
:10D218009F21DA6E000EDF6E650E8C19D8A417EF09
:10D2280069F019EF69F0EBEF69F0000E976F4F0E98
:10D23800966F5C0E9625D96E020E9721DA6E000E57
:10D24800DF6E000E876F000E866F9DBF30EF69F0AE
:10D258002EEF69F038EF69F0000E876F010E866FC8
:10D268009C6D9D1FD8B09D2B000E896F020E886F94
:10D2780069EF69F09607D8A097075C0E9625D96ED6
:10D28800020E9721DA6E9CC001F09DC002F0000EDC
:10D29800046E0A0E036EA3EC40F00150300FDF6EEF
:10D2A8009CC001F09DC002F0000E046E0A0E036ED1
:10D2B800FBEC40F001C09CF002C09DF00001880723
:10D2C800D8A089078A07D8A08B079C519D11D8A49C
:10D2D80070EF69F072EF69F03EEF69F089BF7FEF98
:10D2E80069F0895106E18805D8B07DEF69F07FEFD4
:10D2F80069F03EEF69F09607D8A097078651871125
:10D30800D8A489EF69F08BEF69F091EF69F0000E0E
:10D31800736F2B0E726F95EF69F0000E736F2D0E01
:10D32800726F5C0E9625D96E020E9721DA6E600038
:10D33800CBF1DFFF8A07D8A08B079607D8A09707FD
:10D34800BF0E676FFF0E686F6651696F6A6B675132
:10D35800692768516A236A510AE11A0E695DD8A0E3
:10D36800B8EF69F0BBEF69F0010EBCEF69F0000E91
:10D37800766F776B76517711D8A4C5EF69F0C7EF50
:10D3880069F0CDEF69F0000E756F650E746FD1EF1F
:10D3980069F0000E756F450E746F5C0E9625D96E98
:10D3A800020E9721DA6E6000D3F1DFFF8A07D8A05A
:10D3B8008B075C0E9E25016E020E9F21026E5C0E8D
:10D3C8009625036E020E9721046E84EC3FF060C030
:10D3D80013F061C014F05C0E156E020E166E8AC052
:10D3E80017F08BC018F05DEC41F013C060F014C06A
:10D3F80061F01200D7C0B8F1D8C0B9F1D9C0BAF1FC
:10D40800DAC0BBF1B8C160F1B9C161F1BAC162F16A
:10D41800BBC163F1DBC0B8F1DCC0B9F1DDC0BAF162
:10D42800DEC0BBF1B8C184F1B9C185F1BAC186F1DA
:10D43800BBC187F1FF0E01016015A86FFF0E6115D2
:10D44800A96FFF0E6215AA6F7F0E6315AB6FFF0EF3
:10D458008415986FFF0E8515996FFF0E86159A6FC4
:10D468007F0E87159B6F985199119A119B11D8A41B
:10D4780040EF6AF042EF6AF04DEF6AF0000E0001EB
:10D48800D76F000ED86F800ED96F3F0EDA6F2EEF70
:10D498007FF0800E621909E13F0E63196011611176
:10D4A800D8A459EF6AF05BEF6AF066EF6AF0000EF5
:10D4B8000001D76F000ED86F800ED96F3F0EDA6F5C
:10D4C8002EEF7FF0ABBF77EF6AF0A805000EA959E1
:10D4D800800EAA597F0EAB59D8B075EF6AF077EF76
:10D4E8006AF088EF6AF09BBF86EF6AF09805000E35
:10D4F8009959800E9A597F0E9B59D8A086EF6AF0E9
:10D5080088EF6AF0A4EF6AF0D7C01AF0D8C01BF011
:10D51800D9C01CF0DAC01DF0DBC01EF0DCC01FF063
:10D52800DDC020F0DEC021F074EC55F01AC0D7F051
:10D538001BC0D8F01CC0D9F01DC0DAF02EEF7FF068
:10D54800000E506F000E516F000E526F000E536F99
:10D5580063BFB3EF6AF0B1EF6AF07FEF6BF09BBF88
:10D56800BFEF6AF0800E9A5D4B0E9B59D8A0BFEFB3
:10D578006AF0C1EF6AF0CBEF6AF0020E506F000E4E
:10D58800516F000E526F000E536F7FEF6BF09BBF11
:10D59800D7EF6AF0800E9A5D3F0E9B59D8A0D7EF5F
:10D5A8006AF0D9EF6AF07FEF6BF0170E0001DF6FBA
:10D5B80098C1E0F099C1E1F09AC1E2F09BC1E3F0B3
:10D5C800DF67E9EF6AF0F1EF6AF0E335E333E2335E
:10D5D800E133E033DF2FE4EF6AF0810E0001E0254C
:10D5E8000101A06FFF0E0001E1210101A16FFF0EF3
:10D5F8000001E2210101A26FFF0E0001E3210101F8
:10D60800A36FA05117080001DF6F98C1E0F099C11E
:10D61800E1F09AC1E2F09BC1E3F0DF6716EF6BF02F
:10D628001EEF6BF0E335E333E233E133E033DF2F12
:10D6380011EF6BF0E0C0ACF1E1C0ADF1E2C0AEF1CA
