:020000040000FA
:04000000FEEF7FF0A0
:0B1000000025632563256325630000C5
:10100C00000EBE6E000EBD6E000EBA6E000EBB6EF4
:10101C00000EBC6E070EC66EC268BF0EC36EBF0E4E
:10102C00C46EC5683A01706960697F0E506F070E17
:10103C00806F4069000E716F000E816F000E516F52
:10104C00000E416F000E616F000E5A6F000E5B6F49
:10105C00000E6A6F000E6B6F000E7A6F000E7B6FC6
:10106C00000E826F000E426F000E526F000E626F08
:10107C00000E726F4369536963697369070E836F5E
:10108C0044695469646974690F0E846F0F0EE86FBC
:10109C00160E0E6F0D0E166F1200000E3D01D46F62
:1010AC00000ED66F000ED86FB00EDA6F800EDB6FAD
:1010BC00000EDC6F0C0EDD6F000EDE6F000EDF6FAE
:1010CC00000EE06F000EE16F000EE26F000E016E7D
:1010DC00000E026E5BEC09F0000E016E000E026E4B
:1010EC0056EC09F0000E016E000E026E60EC09F079
:1010FC00000E106E1200000E3E01DE6F000EDF6F50
:10110C00000EE06F000EE16F000EE46F000EE56F55
:10111C00000EEA6F000EEC6F000EF16F000EF36F15
:10112C00000EF46F000EF56F000EF66F000EF76FE9
:10113C00000EF96F000EFA6F000EFB6F000EFC6FC5
:10114C00120EFD6F000EFE6F1F0EFF6F840EF86FF8
:10115C0012000DEC09F0040ECEEC08F001C006F004
:10116C0002C007F05F0E2BEC09F006502BEC09F0D7
:10117C0007502BEC09F0A00E2BEC09F0000E026EC0
:10118C00C80E016EE7EC08F0B1EF08F0FEEF7FF04F
:10119C00056E600017F0F1FE3E01F88FF89DF881A6
:1011AC00F8B1DBEF08F0DDEF08F0D6EF08F0F05106
:1011BC00046E036AEF510324016E000E0420026ECC
:1011CC001200EDEF08F0290EE82EFED700D0010634
:1011DC00D8A00206012806E10228D8A4F8EF08F0EE
:1011EC00FAEF08F0E9EF08F01200000E3901C06FB9
:1011FC00000EC16F000EC26F000EC36F000EC46FE5
:10120C00000EC56F000EC66F000EC76F1200FBEC10
:10121C0008F006EC08F044EC09F081EC08F038EC2E
:10122C0009F01CEC09F053EC08F01200010EAE6E44
:10123C00000EAD6E000EAF6E1E0EAB6E000EAA6EE3
:10124C003901A495F00EAC6E1200016E3901A6A7FF
:10125C0032EF09F034EF09F02CEF09F0600007F0E1
:10126C00D2FD1200800E6E6E070E6D6E800E6C6ECF
:10127C003F015F51FC0B01095F6F1200610E3901D8
:10128C00D96F000EDB6F000EDD6F000EDF6F000EEE
:10129C00DE6F1200106A0F6A0E6A0001AFEF08F0E1
:1012AC0001C00AF002C00BF0120001C00CF002C029
:0E12BC000DF0120001C008F002C009F012008F
:04FFFC0050EF09F0C9
:020000040020DA
:10000000FF0FFF0FFF0FFF0FFF0FFF0FFF0FFF0F80
:020000040030CA
:0A000000ECFEF7FF9FFFFFFFFFFF7C
:00000001FF
