:020000040000FA
:04000000FEEF7FF0A0
:10F04600120012001200B88E12000100000001C06A
:10F056003FF002C040F0120001C043F002C044F08D
:10F06600120001C041F002C042F01200026E0250CE
:10F0760067EC78F0120009C04CF00AC04DF04E6AF9
:10F086004F6A12003901A6B54BEF78F04EEF78F0D3
:10F09600010E4FEF78F0000E120085EC78F05EEC72
:10F0A6007BF05BEC78F0ACEC78F068EC79F0120071
:10F0B600620E3901D96F000EDB6F000EDD6F060E92
:10F0C600DF6F000EDE6F1200016E3901A6A76EEF2C
:10F0D60078F070EF78F068EF78F0600007F0D2FD16
:10F0E60012006F00D8FE07F06F00DCFE08F0085033
:10F0F600036E0750056E03C006F005C001F006C09A
:10F1060002F01200000E3901C06F000EC16F000E32
:10F11600C26F000EC36F000EC46F000EC56F000EE7
:10F12600C66F000EC76F1200015003026F00CCFFBE
:10F1360005F06F00D0FF06F001500402F3500626DA
:10F1460002500302F350062605C001F006C002F085
:10F156001200400EB96EBF0EB76EF00EB66EB65008
:10F166006F00DCFE01F0026A01C002F0016A0110C4
:10F17600456E0250466E3901A39F900EB86E12007E
:10F18600036E000E026E3A0E0360CCEF78F0CEEFFF
:10F1960078F0D8EF78F02F0E0364D4EF78F0D6EF3E
:10F1A60078F0D8EF78F0010E026E02C001F001305F
:10F1B6001200500EF66EF00EF76E000EF86E00EEB0
:10F1C6004CF010EE04F009006F00D7FFEEFFE5509B
:10F1D600E150F9E14B6A4A6A496A486A476A00019E
:10F1E6003AEF7EF001C005F002C006F0FFEF78F0BE
:10F1F600054A062A034A042A60000FF0D9FF600078
:10F2060013F0DAFF600017F0E1FF60001BF0E2FF89
:10F216006F007FFFE7FFE750D8A414EF79F016EFF1
:10F2260079F0FBEF78F0120045EC78F0E806D8B4F8
:10F236001FEF79F021EF79F017EF79F034EF79F0DD
:10F24600000E026E000E016E014A022A100E015CCB
:10F25600270E0258D8A032EF79F034EF79F027EF75
:10F2660079F013EC7BF00D0AD8A43CEF79F03EEF71
:10F2760079F023EF79F012004CC001F04DC002F096
:10F286004EC003F04FC004F06D0E056E4E0E066EB6
:10F29600C60E076E410E086EF7EC79F001C04CF011
:10F2A60002C04DF003C04EF004C04FF0390E4C269C
:10F2B600300E4D22000E4E22000E4F22FF0E4E142F
:10F2C6000D6E7F0E4F140E6E1200000E3D01D46FB0
:10F2D600000ED66F000ED86FB00EDA6F800EDB6FA1
:10F2E600000EDC6FCF0EDD6F000EDE6F000EDF6FDF
:10F2F600000EE06F000EE16F000EE26F480E016E29
:10F30600F00E026E2FEC78F04A0E016EF00E026ED1
:10F3160034EC78F0460E016EF00E026E2AEC78F0B0
:10F32600000E4B6E1200600007F0F6FF60000BF057
:10F33600F7FFF86A0800F5500318D8A4A5EF79F08E
:10F34600A7EF79F0ADEF79F001C001F002C002F04D
:10F35600C4EF79F0600007F0F6FF60000BF0F7FFEE
:10F36600014A022AF86A0800F5500009D8A4BEEF3F
:10F3760079F0C0EF79F096EF79F0000E016E000E8D
:10F38600026E12000A500B10D8B4CCEF79F0CEEF13
:10F3960079F0F2EF79F0010E0C6ED6EF79F0D89095
:10F3A6000A360B360C2A0BAEDBEF79F0DDEF79F07F
:10F3B600D2EF79F00A50085C0B500958D8A0E6EF56
:10F3C60079F0E8EF79F0ECEF79F00A50085E0B502F
:10F3D600095AD8900B320A320C2EDDEF79F008C0AC
:10F3E60008F009C009F01200000E096E000E0A6E40
:10F3F600000E0B6E000E0C6E01A004EF7AF006EF05
:10F406007AF00EEF7AF00550092606500A220750C8
:10F416000B2208500C22D8900536063607360836D9
:10F42600D890043203320232013201500210031026
:10F436000410D8A421EF7AF023EF7AF0FFEF79F0E9
:10F4460009C001F00AC002F00BC003F00CC004F0C2
:10F456001200000E0B6E000E0A6E36EF7AF0054AA9
:10F46600062A0A4A0B2A600017F0D9FF60001BF033
:10F47600DAFFDF50D8B442EF7AF044EF7AF05EEF6D
:10F486007AF007C001F008C002F0600017F0D9FF5B
:10F4960060001BF0DAFFDF50096E0950036E046A44
:10F4A60096EC79F001500210D8B45CEF7AF05EEF7A
:10F4B6007AF032EF7AF00AC005F00BC006F01200BF
:10F4C600000E0B6E000E0A6E6DEF7AF0054A062AE4
:10F4D6000A4A0B2A600017F0D9FF60001BF0DAFF1A
:10F4E600DF50D8B479EF7AF07BEF7AF095EF7AF0C7
:10F4F60007C001F008C002F0600017F0D9FF6000F5
:10F506001BF0DAFFDF50096E0950036E046A96ECB1
:10F5160079F001500210D8A493EF7AF095EF7AF0C3
:10F5260069EF7AF00AC005F00BC006F01200000E73
:10F53600066E000E056E03500410D8B4A5EF7AF0DF
:10F54600A7EF7AF0CFEF7AF0010E076EAFEF7AF001
:10F55600D89003360436072A04AEB4EF7AF0B6EF35
:10F566007AF0ABEF7AF0D890053606360350015C98
:10F5760004500258D8A0C2EF7AF0C4EF7AF0C9EF6F
:10F586007AF00350015E0450025A0580D890043286
:10F596000332072EB6EF7AF005C001F006C002F07E
:10F5A6001200DD0E0D6EFF0E0E6E000E106E1B0E9F
:10F5B6000F6E000E126E5B0E116E000E146E320E82
:10F5C600136E000E166E4A0E156E6FEC7DF0DD0E94
:10F5D6000D6EFF0E0E6E000E106E1B0E0F6E000EE1
:10F5E600126E5B0E116E000E146E330E136E000E4D
:10F5F600166E4A0E156E6FEC7DF0DF0E0D6EFF0E69
:10F606000E6E000E106E1B0E0F6E000E126E5B0E4F
:10F61600116E000E146E480E136E6FEC7DF0120024
:10F626003901A6A519EF7BF01BEF7BF013EF7BF0FA
:10F63600000E4B6E3D01E1A723EF7BF025EF7BF03B
:10F6460032EF7BF04B8202D832EF7BF00500FA6E88
:10F656004350FD6E4450FE6EFF6AFA5012003D01A3
:10F66600E1A338EF7BF03AEF7BF047EF7BF04B847A
:10F6760002D847EF7BF00500FA6E4150FD6E42500E
:10F68600FE6EFF6AFA5012004B50D8B44DEF7BF075
:10F696004FEF7BF05BEF7BF002D85BEF7BF0050072
:10F6A600FA6E3F50FD6E4050FE6EFF6AFA50120031
:10F6B6003D01D0511200000EBE6E000EBD6E000E52
:10F6C600BA6E000EBB6E000EBC6E070EC66EC2682A
:10F6D600BF0EC36EC468F90EC56EF90E3A01706F9F
:10F6E60060693F0E506F070E806F4069000E716FA4
:10F6F600000E816F000E516F000E416F000E616F9C
:10F70600000E5A6F000E5B6F000E6A6F000E6B6F75
:10F71600000E7A6F000E7B6F000E826F000E426F36
:10F72600000E526F000E626F000E726F43695369CE
:10F7360063697369070E836F446954696469746900
:10F746000F0E846F0F0EE86F160E0E6F1200000E6E
:10F75600066E02BEB3EF7BF0B1EF7BF0B9EF7BF044
:10F76600016C021ED8B0022A010E066E04BEC0EF5E
:10F776007BF0BEEF7BF0C4EF7BF0036C041ED8B0C9
:10F78600042A03500410D8B4CBEF7BF0CDEF7BF006
:10F79600F1EF7BF0010E056ED5EF7BF0D8900336C6
:10F7A6000436052A04AEDAEF7BF0DCEF7BF0D1EF0E
:10F7B6007BF00350015C04500258D8A0E5EF7BF0C3
:10F7C600E7EF7BF0EBEF7BF00350015E0450025A4B
:10F7D600D89004320332052EDCEF7BF00650D8B405
:10F7E600F7EF7BF0F9EF7BF0FDEF7BF0016C021E8B
:10F7F600D8B0022A01C001F002C002F01200000EC9
:10F806000A6E000E096E45EC78F0E806D8B40EEFE5
:10F816007CF010EF7CF006EF7CF013EC7BF0056ECD
:10F826000550076E086A7F0E07180810D8A41EEF49
:10F836007CF020EF7CF033EF7CF00906D8A00A06B6
:10F84600092806E10A28D8A42BEF7CF02DEF7CF0DE
:10F856003EEF7CF0000E0A6E000E096E3EEF7CF065
:10F8660009500124D96E0A500220DA6E60001FF09A
:10F87600DFFF094A0A2A0D0E07180810D8B446EF0A
:10F886007CF048EF7CF053EF7CF00950035C0A50A3
:10F896000458D8B051EF7CF053EF7CF006EF7CF0C3
:10F8A60009500124056E0A500220066EFF0E05243B
:10F8B600D96EFF0E0620DA6E000EDF6E12000C50B7
:10F8C6000D10D8A469EF7CF06BEF7CF06FEF7CF045
:10F8D60047C00CF048C00DF00C500D10D8A476EFC0
:10F8E6007CF078EF7CF07EEF7CF0000E0C6E000E64
:10F8F6000D6ED6EF7CF00CC005F00DC006F00EC004
:10F9060007F00FC008F063EC7AF005500C2606509D
:10F916000D22600033F0D9FF600037F0DAFFDF50C8
:10F92600D8A498EF7CF09AEF7CF0A4EF7CF0000E60
:10F93600476E000E486E47C00CF048C00DF0D6EF7B
:10F946007CF00CC005F00DC006F00EC007F00FC02D
:10F9560008F02CEC7AF005500C24476E06500D206A
:10F96600486E60001FF1D9FF600023F1DAFFDF5017
:10F97600D8B4C0EF7CF0C2EF7CF0CEEF7CF0600034
:10F986001FF1D9FF600023F1DAFF000EDF6E474A50
:10F99600482AD2EF7CF0000E476E000E486E0CC06F
:10F9A6000CF00DC00DF01200DBEF7CF0074A082AC0
:10F9B60060001FF0D9FF600023F0DAFF200EDE188A
:10F9C600D8B4E8EF7CF0EAEF7CF0D9EF7CF0600089
:10F9D6001FF0D9FF600023F0DAFF090EDE18D8B455
:10F9E600F7EF7CF0F9EF7CF0D9EF7CF0000E0D6EAE
:10F9F600000E0C6E000E0B6E60001FF0D9FF60004B
:10FA060023F0DAFF2D0EDE18D8A40CEF7DF00EEFF2
:10FA16007DF013EF7DF00B2A074A082A44EF7DF0AC
:10FA260060001FF0D9FF600023F0DAFF2B0EDE180E
:10FA3600D8A420EF7DF022EF7DF044EF7DF0074A59
:10FA4600082A44EF7DF00CC001F00DC002F0000E54
:10FA5600046E0A0E036E97EC78F060001FF0D9FF73
:10FA6600600023F0DAFFDF50096E09500126000E10
:10FA76000222D00E01240C6EFF0E02200D6E22EF24
:10FA86007DF060001FF0D9FF600023F0DAFFDF5041
:10FA9600C3EC78F0D8B052EF7DF054EF7DF026EF4E
:10FAA6007DF00B50D8B45AEF7DF05CEF7DF06AEF35
:10FAB6007DF00CC009F00DC00AF0091E0A1E094AA5
:10FAC6000A2A09C007F00AC008F06EEF7DF00CC0E4
:10FAD60007F00DC008F012000F0E1B6E000E1C6E14
:10FAE60024EF7EF0250E1D18D8B47CEF7DF07EEF56
:10FAF6007DF083EF7DF01D5039EC78F024EF7EF039
:10FB0600000E176E9CEF7DF060006FF0D9FF60006D
:10FB160073F0DAFFDF501D6E020E1B26000E1C224C
:10FB26001D5039EC78F024EF7EF0C00E1712B8EFB6
:10FB36007DF0600037F0F6FF60003BF0F7FF0D4AFE
:10FB46000E2AF86A08006F00D4FF1DF01D50000A47
:10FB5600D8B439EF7EF0630AD8B487EF7DF0160A81
:10FB6600D8B498EF7DF093EF7DF060006FF0D9FF89
:10FB7600600073F0DAFF6F0078FF18F06F0074FF13
:10FB860019F0020E1B26000E1C22010E1D6E1D50C2
:10FB9600020DCB0EF324F66EFE0EF420F76EF86A15
:10FBA600000EF8220900F550185C0900F5501958A6
:10FBB600D8B0E0EF7DF0E2EF7DF0E4EF7DF0EEEF20
:10FBC6007DF01D2A050E1D18D8A4ECEF7DF0EEEF92
:10FBD6007DF0CAEF7DF01DC01AF01BEF7EF01A50C3
:10FBE600020DCB0EF324F66EFE0EF420F76EF86AC5
:10FBF600000EF82209006F00D4FF03F00A006F0020
:10FC0600D4FF04F018C001F019C002F09AEC7AF0A3
:10FC160001C008F002C009F0000E0B6E0A0E0A6E53
:10FC2600C5EC79F00850300F1D6E1D5039EC78F098
:10FC36001A061A28D8A422EF7EF024EF7EF0F2EFFF
:10FC46007DF0600037F0F6FF60003BF0F7FF0D4AED
:10FC56000E2AF86A08006F00D4FF1DF01D50D8A4C4
:10FC660037EF7EF039EF7EF075EF7DF0120050EC45
:10FC760078F0D4EC7AF026EC78F0970E0D6EFF0E45
:10FC86000E6E6FEC7DF017EC79F074EC78F001C035
:10FC960009F002C00AF03EEC78F0D50E0D6EFE0EAD
:10FCA6000E6E6FEC7DF03FEC79F00DC037F00EC0B4
:10FCB60038F0B40E0D6EFF0E0E6E37C00FF038C062
:10FCC60010F06FEC7DF037C001F038C002F0000E86
:10FCD600046E640E036EAAEC7BF0010E01243D6EE9
:10FCE600000E02203E6E720E0D6EFF0E0E6E3DC0B1
:10FCF6000FF03EC010F06FEC7DF0000E346E000E7B
:10FD0600336E000E366E050E356E334A342A1F0EDC
:10FD1600016E000E026E000E046E140E036E02ECEF
:10FD26007CF01F0E0C6E000E0D6EF90E0E6EFF0EA1
:10FD36000F6E62EC7CF00CC03BF00DC03CF03B500B
:10FD46003C10D8B4A9EF7EF0ABEF7EF0B5EF7EF0B5
:10FD56002E0E016E000E026E3BC003F03CC004F096
:10FD6600F5EC78F0000E0C6E000E0D6EF70E0E6EB2
:10FD7600FF0E0F6E62EC7CF00CC03BF00DC03CF049
:10FD86003B503C10D8B4CAEF7EF0CCEF7EF0D6EFF5
:10FD96007EF0290E016E000E026E3BC003F03CC0E1
:10FDA60004F0F5EC78F0290E076E000E086ED7EC1D
:10FDB6007CF007C039F008C03AF03D50391807E129
:10FDC6003E503A18D8A4EAEF7EF0ECEF7EF00BEF47
:10FDD6007FF03D0E2E18D8A4F3EF7EF0F5EF7EF0FF
:10FDE6000BEF7FF04C0E0D6EFF0E0E6E3DC00FF04A
:10FDF6003EC010F06FEC7DF0150E0D6EFF0E0E6E10
:10FE060033C00FF034C010F06FEC7DF056EF7EF08B
:10FE16003E0E2E18D8A412EF7FF014EF7FF02BEFD2
:10FE26007FF03D50395C3A50800A1E6E3E50800A83
:10FE36001E58D8B021EF7FF023EF7FF02BEF7FF035
:10FE4600EF0E0D6EFF0E0E6E6FEC7DF057EF7FF02E
:10FE56003C0E2E18D8A432EF7FF034EF7FF04BEF34
:10FE66007FF039503D5C3E50800A1E6E3A50800A43
:10FE76001E58D8B041EF7FF043EF7FF04BEF7FF095
:10FE8600E60E0D6EFF0E0E6E6FEC7DF057EF7FF0F7
:10FE9600CD0E0D6EFF0E0E6E6FEC7DF0EB0E0D6E41
:10FEA600FF0E0E6E6FEC7DF0070E35183610D8A4D7
:10FEB6005FEF7FF061EF7FF088EF7EF056EF7EF028
:10FEC600FEEF7FF00001000A006400E803102749F6
:10FED60020686176652061206E756D6265722062AC
:10FEE60065747765656E203120616E64203130302F
:10FEF6002E2043616E20796F7520677565737320B8
:10FF060074686174206E756D6265723F0A0D000A31
:10FF16000D497420746F6F6B20796F7520257520DD
:10FF2600747269657320746F2067756573732074C6
:10FF36006865206E756D6265722C20477265617406
:10FF4600204A6F6221000A0D436F6E6772617473F7
:10FF560020796F7520776F6E2120546865206E7545
:10FF66006D62657220776173202575000A0D207217
:10FF7600616E646F6D206E756D6265722062657468
:10FF86007765656E20312D3130302025750A0D3AA2
:10FF960000507265737320456E74657220746F200D
:10FFA60053746172742047616D653A0A0D000A0D3B
:10FFB6002072616E646F6D206E756D626572206968
:10FFC600732025750A0D000A0D4E6F2C2074727968
:10FFD60020616761696E00256325632563256300DB
:10FFE6000A0D5965730A0D3A000A0D7965730A0DF3
:0AFFF600000000200000DCEF78F0AE
:020000040020DA
:10000000FF0FFF0FFF0FFF0FFF0FFF0FFF0FFF0F80
:020000040030CA
:0A000000ECFEF7FF9FFFFFFFFFFF7C
:00000001FF
