:020000040000FA
:04000000FEEF7FF0A0
:106F560001C0F9F102C0FAF1120001C0FDF102C050
:106F6600FEF1120001C0FBF102C0FCF11200026E3C
:106F76000250D4EC37F01200F2EC37F0AAEC39F0FC
:106F8600C8EC37F0DFEC38F01200620E3901D96F29
:106F9600000EDB6F000EDD6F020EDF6F000EDE6F80
:106FA6001200016E3901A6A7DBEF37F0DDEF37F0EF
:106FB600D5EF37F0600007F0D2FD1200FF0E056E28
:106FC600FF0E066EFF0E076E7F0E086E05C001F0FF
:106FD60006C002F007C003F008C004F01200000E5D
:106FE6003901C06F000EC16F000EC26F000EC36F75
:106FF600000EC46F000EC56F000EC66F000EC76F81
:10700600120000EEACF2500EEE6AE806FDE100EE6C
:10701600E1F1180EEE6AE806FDE10001FE6BFD6B7C
:107026005F6A0001F3EF5CF0D00E0001EE6F000E18
:10703600EF6F000EC86F000EC96FCEC0CAF0CFC08A
:10704600CBF0EE0ECC6F000ECD6F72EC39F0120065
:10705600E5C105F0E6C106F0E7C107F0E8C108F0B2
:1070660001C005F002C006F003C007F004C008F036
:10707600089E05C001F006C002F007C003F008C074
:1070860004F012005450551056105710D8B44EEF55
:1070960038F050EF38F058EF38F0000E541A000E62
:1070A600551A000E561A800E571A54C054F055C081
:1070B60055F056C056F057C057F01200BF0E036E7B
:1070C600FF0E046E01C005F002C006F0035005264F
:1070D6000450062206500AE11A0E055CD8A076EF87
:1070E60038F079EF38F0010E7AEF38F0000E016EC5
:1070F600026A120001C003F002C004F085EF38F006
:10710600014A022A600007F0D9FF60000BF0DAFF9F
:10711600DF50D8A491EF38F093EF38F083EF38F0D2
:107126000350015C016E04500258026E1200000EFC
:10713600126E000E116EABEF38F010C003F0046A49
:107146000EC005F00FC006F0F4EC39F0114A122A11
:1071560011500C24D96E12500D20DA6EDF50106ECD
:107166001050D8A4B9EF38F0BBEF38F0A0EF38F0E4
:107176001200000E3C1A000E3D1A000E3E1A800E3A
:107186003F1A38C00FF039C010F03AC011F03BC0BA
:1071960012F03CC013F03DC014F03EC015F03FC0E5
:1071A60016F048EC50F00FC038F010C039F011C09E
:1071B6003AF012C03BF01200000E3D01D46F000EF3
:1071C600D66F000ED86FB00EDA6F800EDB6F000E32
:1071D600DC6F190EDD6F000EDE6F000EDF6F000E26
:1071E600E06F000EE16F000EE26F000E016E000E02
:1071F600026EB0EC37F0000E016E000E026EB5ECBA
:1072060037F0000E016E000E026EABEC37F0000E8A
:107216005F6E1200BF0E096EFF0E0A6E07C00BF0FE
:1072260008C00CF009500B260A500C220C500AE13B
:107236001A0E0B5CD8A022EF39F025EF39F0010EBB
:1072460026EF39F0000E0D6E0E6A0D500E10D8B4F2
:107256002FEF39F031EF39F038EF39F0200E071003
:10726600076E0850086E3CEF39F007C007F008C0FB
:1072760008F0120003C007F004C008F001C009F0CE
:1072860002C00AF00750056E0850066E074A082A23
:10729600600017F0F6FF60001BF0F7FF000EF86EB7
:1072A600600027F0D9FF60002BF0DAFF094A0A2AAE
:1072B6000F0EF76403D00800F55007D06F00DBFF10
:1072C600E9FF6F00DFFFEAFFEF50DF6EDF50D8A463
:1072D6006FEF39F071EF39F045EF39F01200CAC09F
:1072E6005DF0CBC05EF0000E0101F46F000EF36F8F
:1072F60094EF39F0C8C0B4F0C9C0B5F05D0E000116
:10730600B66F000EB76FCCC0B8F0CDC0B9F0B4EC14
:1073160049F00001B4510101F3270001B551010103
:10732600F423600077F1F6FF60007BF1F7FFF86A5F
:107336000800F5500009D8A4A3EF39F0A5EF39F0FD
:107346007DEF39F0F3C1C8F0F4C1C9F01200000EA8
:10735600BE6E000EBD6E000EBA6E000EBB6E000E47
:10736600BC6E070EC66EC268BF0EC36EC468C56823
:107376003A01706960697F0E506F070E806F406931
:10738600000E716F000E816F000E516F000E416F7F
:10739600000E616F000E5A6F000E5B6F000E6A6F73
:1073A600000E6B6F000E7A6F000E7B6F000E826F01
:1073B600000E426F000E526F000E626F000E726F6B
:1073C6004369536963697369070E836F4469546936
:1073D600646974690F0E846F0F0EE86F160E0E6FD8
:1073E600120005500610D8B4FBEF39F0FDEF39F066
:1073F60006EF3AF005500610D8A404EF3AF006EF6F
:107406003AF00BEF3AF00350BAEC37F03EEF3AF0B1
:1074160020EE04F00550D9260650DA22DE50DE10A2
:10742600D8B418EF3AF01AEF3AF035EF3AF020EE0A
:1074360004F00550D9260650DA2210EE02F0055067
:10744600E1260650E222DE50E65CE650800A0B6E2C
:10745600DE50800A0B58D8B033EF3AF035EF3AF0E9
:107466003EEF3AF020EE02F00550D9260650DA2219
:10747600DE2A000EDD221200000E536E000E526E42
:10748600000E516E000E506E000E536E000E526EC0
:1074960053EF3AF05250502653505122524A532A33
:1074A6004CC040F04DC041F04EC042F04FC043F0DA
:1074B60052C001F053C002F0000E02BEFF0E036E72
:1074C600046E010EDBEC40F001C044F002C045F052
:1074D60003C046F004C047F063EC3DF0D8B076EF49
:1074E6003AF078EF3AF04DEF3AF050C001F051C063
:1074F60002F0000E02BEFF0E036E046E010EDBEC00
:1075060040F001C04CF002C04DF003C04EF004C084
:107516004FF01200000E0F14176E000E1014186EA6
:10752600800E1114196E7F0E12141A6E1750181051
:1075360019101A10D8A4A2EF3AF0A4EF3AF0ACEF63
:107546003AF0000E0F6E000E106E000E116E000E59
:10755600126E000E1314176E000E1414186E800EA1
:107566001514196E7F0E16141A6E1750181019106E
:107576001A10D8A4C1EF3AF0C3EF3AF0CBEF3AF0C5
:10758600000E136E000E146E000E156E000E166EB3
:1075960013500F180FE1145010180CE11550111864
:1075A60009E116501218D8B4DBEF3AF0DDEF3AF0E5
:1075B600E0EF3AF0D890E1EF3AF0D8801200000EF2
:1075C600066E02BEEBEF3AF0E9EF3AF0F1EF3AF071
:1075D600016C021ED8B0022A010E066E04BEF8EF38
:1075E6003AF0F6EF3AF0FCEF3AF0036C041ED8B02E
:1075F600042A03500410D8B403EF3BF005EF3BF028
:1076060029EF3BF0010E056E0DEF3BF0D8900336E7
:107616000436052A04AE12EF3BF014EF3BF009EFF7
:107626003BF00350015C04500258D8A01DEF3BF01C
:107636001FEF3BF023EF3BF00350015E0450025A6C
:10764600D89004320332052E14EF3BF00650D8B41E
:107656002FEF3BF031EF3BF035EF3BF0016C021EB4
:10766600D8B0022A01C001F002C002F01200000EDA
:10767600066E04BE43EF3BF041EF3BF049EF3BF0B3
:10768600036C041ED8B0042A010E066E02BE50EF2B
:107696003BF04EEF3BF056EF3BF0016C021ED8B0CC
:1076A600022A010E061A000E086E000E076E03501F
:1076B6000410D8B461EF3BF063EF3BF08BEF3BF087
:1076C600010E056E6BEF3BF0D89003360436052AA3
:1076D60004AE70EF3BF072EF3BF067EF3BF0D890F3
:1076E600073608360350015C04500258D8A07EEFD6
:1076F6003BF080EF3BF085EF3BF00350015E04501A
:10770600025A0780D89004320332052E72EF3BF0FE
:107716000650D8B491EF3BF093EF3BF097EF3BF078
:10772600076C081ED8B0082A07C001F008C002F08E
:1077360012000001FDA1A2EF3BF0A4EF3BF0AEEF7B
:107746003BF015C00CF016C00DF013C00EF014C0BF
:107756000FF09AEC38F018BEB3EF3BF0B5EF3BF004
:10776600BBEF3BF017C01CF018C01DF0BFEF3BF09D
:10777600000E1D6E000E1C6E000E1B6E000E1A6EA5
:10778600D1EF3BF0000E046E200E036E13C005F021
:1077960014C006F0F4EC39F01A4A1B2A1C501A5C85
:1077A6001B50800A196E1D50800A1958D8A0DEEFAA
:1077B6003BF0E0EF3BF0C5EF3BF00001FDB1E6EF3B
:1077C6003BF0E8EF3BF0F2EF3BF015C00CF016C0D3
:1077D6000DF013C00EF014C00FF09AEC38F015C07F
:1077E60001F016C002F07DEC38F01C500124136E37
:1077F6001D500220146E1200000E0001F56F000EDF
:10780600F66F000EF76F400EF86FC5C1F1F0C6C1F6
:10781600F2F0C7C1F3F0C8C1F4F079EC6AF0F1C038
:10782600D1F1F2C0D2F1F3C0D3F1F4C0D4F1000E1D
:107836000001F56F000EF66F000EF76F400EF86F41
:10784600C9C1F1F0CAC1F2F0CBC1F3F0CCC1F4F07A
:1078560079EC6AF0F1C0D5F1F2C0D6F1F3C0D7F1F8
:10786600F4C0D8F1D1C10FF0D2C110F0D3C111F0DC
:10787600D4C112F0D5C113F0D6C114F0D7C115F09A
:10788600D8C116F048EC50F00FC0D9F110C0DAF1AB
:1078960011C0DBF112C0DCF1D9C1C0F0DAC1C1F010
:1078A600DBC1C2F0DCC1C3F0A8EC52F0C0C0CDF120
:1078B600C1C0CEF1C2C0CFF1C3C0D0F1CDC1C5F1B8
:1078C600CEC1C6F1CFC1C7F1D0C1C8F1120001C007
:1078D60008F002C009F003C00AF004C00BF0050668
:1078E600D8A00606052806E10628D8A47DEF3CF0B8
:1078F6007FEF3CF08CEF3CF0000E026E000E016E46
:10790600E3EF3CF0084A092A0A4A0B2A0506D8A0E2
:107916000606600023F0D9FF600027F0DAFFDF508B
:10792600D8B498EF3CF09AEF3CF0CDEF3CF0600015
:107936002BF0F6FF60002FF0F7FFF86A0800F5500D
:107946000009D8B4A9EF3CF0ABEF3CF0CDEF3CF02A
:1079560005500610D8B4B2EF3CF0B4EF3CF0CDEFD2
:107966003CF0600023F0D9FF600027F0DAFFDF501B
:10797600076E60002BF0F6FF60002FF0F7FFF86A45
:107986000800F5500718D8B4CBEF3CF0CDEF3CF02B
:1079960085EF3CF0600023F0D9FF600027F0DAFFA6
:1079A600DF50076E60002BF0F6FF60002FF0F7FF48
:1079B600F86A0800F550075C016E026AD8A0020654
:1079C6001200EDC10BF0EEC10CF0EFC10DF0F0C1ED
:1079D6000EF001C00BF002C00CF003C00DF004C0A5
:1079E6000EF00BC005F00CC006F00DC007F00EC07F
:1079F60008F0180E04EF3DF0D89008320732063230
:107A06000532E82EFFEF3CF00550096E0A6A095070
:107A16000A10D8A411EF3DF013EF3DF033EF3DF01F
:107A2600D8900B34056E0C34066E0D34076E0E348A
:107A3600086E0550061007100810D8A425EF3DF073
:107A460027EF3DF02DEF3DF0000E026E020E016EA7
:107A560062EF3DF0000E026E030E016E62EF3DF026
:107A660009280A10D8A43AEF3DF03CEF3DF05EEF4E
:107A76003DF00BC005F00CC006F00DC007F00EC0BF
:107A860008F0090ED8900536063607360836E82E71
:107A960045EF3DF00550061007100810D8B456EF14
:107AA6003DF059EF3DF0010E5AEF3DF0000E016E2C
:107AB600026A62EF3DF0000E026E040E016E1200C5
:107AC600000E4014486E000E4114496E800E42149A
:107AD6004A6E7F0E43144B6E485049104A104B10A5
:107AE600D8A478EF3DF07AEF3DF082EF3DF0000E3E
:107AF600406E000E416E000E426E000E436E000E8A
:107B06004414486E000E4514496E800E46144A6EA3
:107B16007F0E47144B6E485049104A104B10D8A49C
:107B260097EF3DF099EF3DF0A1EF3DF0000E446E6A
:107B3600000E456E000E466E000E476E43AEA6EF73
:107B46003DF0A8EF3DF0B1EF3DF0406C411ED8B0DE
:107B5600412A421ED8B0422A800E435647AEB6EF9F
:107B66003DF0B8EF3DF0C1EF3DF0446C451ED8B096
:107B7600452A461ED8B0462A800E4756000E401AA1
:107B8600000E411A000E421A800E431A000E441AC5
:107B9600000E451A000E461A800E471A4450405CE5
:107BA600455041584650425847504358D8B0DEEFEA
:107BB6003DF0E0EF3DF0E3EF3DF0D890E4EF3DF02F
:107BC600D88012003A343B34416E4150D8A4EEEFCF
:107BD6003DF0F0EF3DF0FAEF3DF0000E386E000E8E
:107BE600396E000E3A6E000E3B6E67EF3EF038C0FF
:107BF6003CF039C03DF03AC03EF03BC03FF0200EAD
:107C06000AEF3EF0D8903F323E323D323C32E82E0B
:107C160005EF3EF03C50406E3A8EFF0E3816FF0ED2
:107C26003916FF0E3A16000E3B16960E415E41BE01
:107C360021EF3EF01FEF3EF037EF3EF04150800A55
:107C4600970FD8B029EF3EF02BEF3EF02DEF3EF028
:107C5600F0EF3DF0D8903B323A3239323832413E7D
:107C66002DEF3EF04FEF3EF01F0E41643DEF3EF02C
:107C76003FEF3EF047EF3EF0F0EF3DF0D89038365C
:107C860039363A363B3641064150D8A44DEF3EF0E0
:107C96004FEF3EF041EF3EF04050D8B455EF3EF086
:107CA60057EF3EF05FEF3EF03B1E3A1E391E386C32
:107CB600000E39223A223B2238C038F039C039F05A
:107CC6003AC03AF03BC03BF01200000E596E000E6F
:107CD6005A6E800E5B6E3F0E5C6EDDEC5FF059C037
:107CE600C8F05AC0C9F05BC0CAF05CC0CBF0000E49
:107CF600236E000E246E800E256E400E266EC0C0CA
:107D06001FF0C1C020F0C2C021F0C3C022F0CEECEB
:107D16004BF01FC0CCF020C0CDF021C0CEF022C069
:107D2600CFF0000E446E000E456E340E466E430EC6
:107D3600476EC8C023F0C9C024F0CAC025F0CBC026
:107D460026F0CCC01FF0CDC020F0CEC021F0CFC0B1
:107D560022F0CEEC4BF01FC040F020C041F021C015
:107D660042F022C043F0F2EC45F040C0D0F041C0F2
:107D7600D1F042C0D2F043C0D3F0D0C096F0D1C00B
:107D860097F0D2C098F0D3C099F028EC5AF096C07C
:107D9600D4F097C0D5F098C0D6F099C0D7F0D4C02B
:107DA6001FF0D5C020F0D6C021F0D7C022F0BCC04D
:107DB60023F0BDC024F0BEC025F0BFC026F0CEEC37
:107DC6004BF01FC0C4F020C0C5F021C0C6F022C0D1
:107DD600C7F0C4C0BCF0C5C0BDF0C6C0BEF0C7C0C9
:107DE600BFF01200000E0101DA6F000ED96F000E0F
:107DF600D56F000ED66F000ED76F000ED86F000E2F
:107E0600DA6F000ED96F54EF3FF0D9C101F0DAC135
:107E160002F0000E02BEFF0E036E046E010EDBECD6
:107E260040F001C0CDF102C0CEF103C0CFF104C0D5
:107E3600D0F1CDC1F5F0CEC1F6F0CFC1F7F0D0C18B
:107E4600F8F0000E0001F16F000EF26F000EF36FF6
:107E56003F0EF46F79EC6AF0F1C0D1F1F2C0D2F1C5
:107E6600F3C0D3F1F4C0D4F1D5C10FF0D6C110F0F0
:107E7600D7C111F0D8C112F0D1C113F0D2C114F09C
:107E8600D3C115F0D4C116F048EC50F00FC0D5F1AF
:107E960010C0D6F111C0D7F112C0D8F10101D94BEB
:107EA600DA2BC9C140F0CAC141F0CBC142F0CCC106
:107EB60043F0D9C101F0DAC102F0000E02BEFF0E96
:107EC600036E046E010EDBEC40F001C044F002C00C
:107ED60045F003C046F004C047F063EC3DF0D8B06F
:107EE60077EF3FF079EF3FF008EF3FF0D5C1C5F1EE
:107EF600D6C1C6F1D7C1C7F1D8C1C8F11200000E6C
:107F0600596E000E5A6E800E5B6E3F0E5C6EDDEC97
:107F16005FF059C0D1F15AC0D2F15BC0D3F15CC059
:107F2600D4F1000E236E000E246E800E256E400ED8
:107F3600266EC9C11FF0CAC120F0CBC121F0CCC149
:107F460022F0CEEC4BF01FC0D5F120C0D6F121C0F7
:107F5600D7F122C0D8F1000E446E000E456E340EE5
:107F6600466E430E476ED1C123F0D2C124F0D3C171
:107F760025F0D4C126F0D5C11FF0D6C120F0D7C157
:107F860021F0D8C122F0CEEC4BF01FC040F020C04B
:107F960041F021C042F022C043F0F2EC45F040C06F
:107FA600D9F141C0DAF142C0DBF143C0DCF1000E89
:107FB6000001F56F000EF66F000EF76F400EF86FBA
:107FC600D9C196F0DAC197F0DBC198F0DCC199F01F
:107FD600F5EC4DF096C0F1F097C0F2F098C0F3F0D2
:107FE60099C0F4F079EC6AF0F1C0DDF1F2C0DEF18F
:107FF600F3C0DFF1F4C0E0F1DDC11FF0DEC120F017
:10800600DFC121F0E0C122F0C5C123F0C6C124F0D2
:10801600C7C125F0C8C126F0CEEC4BF01FC0CDF18C
:1080260020C0CEF121C0CFF122C0D0F1CDC1C5F123
:10803600CEC1C6F1CFC1C7F1D0C1C8F11200000E42
:10804600596E000E5A6E800E5B6E3F0E5C6EDDEC56
:108056005FF059C004F15AC005F15BC006F15CC07F
:1080660007F1000E236E000E246E800E256E400E64
:10807600266EF9C01FF0FAC020F0FBC021F0FCC04C
:1080860022F0CEEC4BF01FC008F120C009F121C050
:108096000AF122C00BF1000E446E000E456E340E3E
:1080A600466E430E476E04C123F005C124F006C197
:1080B60025F007C126F008C11FF009C120F00AC14A
:1080C60021F00BC122F0CEEC4BF01FC040F020C0D7
:1080D60041F021C042F022C043F0F2EC45F040C02E
:1080E6000CF141C00DF142C00EF143C00FF1F5C0D5
:1080F60023F0F6C024F0F7C025F0F8C026F0F1C052
:108106001FF0F2C020F0F3C021F0F4C022F0CEEC54
:108116004BF01FC010F120C011F121C012F122C096
:1081260013F10CC196F00DC197F00EC198F00FC176
:1081360099F0F5EC4DF096C014F197C015F198C082
:1081460016F199C017F110C11FF011C120F012C12C
:1081560021F013C122F014C123F015C124F016C179
:1081660025F017C126F0CEEC4BF01FC018F120C049
:1081760019F121C01AF122C01BF118C1C0F019C1B2
:10818600C1F01AC1C2F01BC1C3F0A8EC52F0C0C0C6
:1081960000F1C1C001F1C2C002F1C3C003F100C1C8
:1081A600F1F001C1F2F002C1F3F003C1F4F01200E4
:1081B600096E0950D8B4E2EF40F0E4EF40F006EF64
:1081C60041F004BEEBEF40F0E9EF40F006EF41F07E
:1081D60001C005F002C006F003C007F004C008F0B5
:1081E600051E061E071E081E052A000E0622072269
:1081F600082205C00BF006C00CF007C00DF008C041
:108206000EF00EEF41F001C00BF002C00CF003C0FF
:108216000DF004C00EF00150021003100410D8A493
:1082260017EF41F019EF41F023EF41F0000E016E18
:10823600000E026E000E036E000E046EB4EF41F0E7
:10824600960E0A6E2DEF41F00A2AD8900E320D32A4
:108256000C320B32000E0B14056E000E0C14066E5B
:10826600000E0D14076EFE0E0E14086E0550061055
:1082760007100810D8A442EF41F044EF41F027EF71
:1082860041F052EF41F00A2A010E0B26000E0C2295
:108296000D220E22D8900E320D320C320B32000E09
:1082A6000B14056E000E0C14066E000E0D14076EF0
:1082B600FF0E0E14086E0550061007100810D8A4FD
:1082C60067EF41F069EF41F046EF41F071EF41F0A1
:1082D6000A06D8900B360C360D360E360DBE76EFE6
:1082E60041F078EF41F080EF41F0020E0A607EEF38
:1082F60041F080EF41F06BEF41F00AB085EF41F0BD
:1083060087EF41F088EF41F00D9ED8900A320AC0FF
:1083160005F0066A076A086A05C008F0076A066A71
:10832600056A05500B1206500C1207500D12085024
:108336000E120950D8B4A2EF41F0A4EF41F0ACEF11
:1083460041F004BEABEF41F0A9EF41F0ACEF41F0D4
:108356000E8E0BC001F00CC002F00DC003F00EC073
:1083660004F0120038C01FF039C020F03AC021F0E6
:108376003BC022F038C023F039C024F03AC025F0C3
:108386003BC026F0CEEC4BF01FC050F020C051F0A1
:1083960021C052F022C053F050C01FF051C020F04F
:1083A60052C021F053C022F050C023F051C024F037
:1083B60052C025F053C026F0CEEC4BF01FC04CF057
:1083C60020C04DF021C04EF022C04FF0170E236E94
:1083D6009A0E246ECC0E256E370E266E50C01FF0F8
:1083E60051C020F052C021F053C022F0CEEC4BF029
:1083F6001FC00FF020C010F021C011F022C012F0F3
:108406003F0E136E040E146EB60E156EBA0E166E71
:1084160048EC50F00FC03CF010C03DF011C03EF0EB
:1084260012C03FF0000E136E000E146E800E156E15
:108436003F0E166E000E236E000E246E000E256E85
:10844600BF0E266E50C01FF051C020F052C021F062
:1084560053C022F0CEEC4BF01FC00FF020C010F03E
:1084660021C011F022C012F048EC50F00FC040F0CD
:1084760010C041F011C042F012C043F050C023F0CA
:1084860051C024F052C025F053C026F04CC01FF056
:108496004DC020F04EC021F04FC022F0CEEC4BF084
:1084A6001FC044F020C045F021C046F022C047F06E
:1084B6009F0E236EAA0E246E2A0E256E3D0E266E84
:1084C6004CC01FF04DC020F04EC021F04FC022F02E
:1084D600CEEC4BF01FC013F020C014F021C015F0F5
:1084E60022C016F040C00FF041C010F042C011F09B
:1084F60043C012F048EC50F00FC048F010C049F0ED
:1085060011C04AF012C04BF048C00FF049C010F03D
:108516004AC011F04BC012F03CC023F03DC024F01D
:108526003EC025F03FC026F044C01FF045C020F0F5
:1085360046C021F047C022F0CEEC4BF01FC013F02E
:1085460020C014F021C015F022C016F048EC50F0FF
:108556000FC038F010C039F011C03AF012C03BF02D
:108566001200E1C16CF0E2C16DF0E3C16EF0E4C14E
:108576006FF059C06CF05AC06DF05BC06EF05CC015
:108586006FF0810E0001606FFF0E616F6CC062F0CC
:108596006DC063F06EC064F06FC065F0180ED9EF61
:1085A60042F0D8906533643363336233E82ED4EFF8
:1085B60042F0625160256A6F000E61216B6F6BBFDE
:1085C600EEEF42F06B5109E1170E6A5DD8A0EEEFAF
:1085D60042F0F0EF42F0FAEF42F059C059F05AC0BB
:1085E6005AF05BC05BF05CC05CF0BEEF43F06BBF63
:1085F600FFEF42F001EF43F072EF43F06AC060F024
:10860600FF0E616FFF0E626F7F0E636F000E646F69
:10861600606710EF43F018EF43F06435643363335B
:1086260062336133602F0BEF43F061C066F062C0C6
:1086360067F063C068F064C069F0000166516C15AC
:10864600606F67516D15616F68516E15626F695184
:108656006F15636F6051611162116311D8A436EF13
:1086660043F038EF43F03AEF43F0F0EF42F06CC0DE
:1086760060F06DC061F06EC062F06FC063F0200EF6
:108686004AEF43F0D8906333623361336033E82EA8
:1086960045EF43F06051611162116311D8B456EF92
:1086A60043F058EF43F060EF43F066516C27675193
:1086B6006D2368516E2369516F23661D606F671DB8
:1086C600616F681D626F691D636F60516C17615140
:1086D6006D1762516E1763516F17B6EF43F06CC09A
:1086E60060F06DC061F06EC062F06FC063F0200E86
:1086F60082EF43F0D8906333623361336033E82E00
:108706007DEF43F06051611162116311D8A48EEFC1
:1087160043F090EF43F09AEF43F0000E6C6F000EBB
:108726006D6F000E6E6F000E6F6FB6EF43F0D89050
:108736006C35606F6D35616F6E35626F6F35636F67
:108746006051611162116311D8B4ACEF43F0AEEF22
:1087560043F0B6EF43F0000E6C6F000E6D6F800EA7
:108766006E6FBF0E6F6F6CC059F06DC05AF06EC061
:108776005BF06FC05CF0120058C01FF059C020F0CB
:108786005AC021F05BC022F058C023F059C024F033
:108796005AC025F05BC026F0CEEC4BF01FC078F037
:1087A60020C079F021C07AF022C07BF078C01FF09B
:1087B60079C020F07AC021F07BC022F078C023F087
:1087C60079C024F07AC025F07BC026F0CEEC4BF0C1
:1087D6001FC064F020C065F021C066F022C067F0BB
:1087E6003C0E236E6C0E246E360E256E360E266EED
:1087F60078C01FF079C020F07AC021F07BC022F04B
:10880600CEEC4BF01FC00FF020C010F021C011F0CD
:1088160022C012F0CF0E136E070E146E500E156E98
:10882600B90E166E48EC50F00FC060F010C061F043
:1088360011C062F012C063F078C01FF079C020F05A
:108846007AC021F07BC022F058C023F059C024F032
:108856005AC025F05BC026F0CEEC4BF01FC074F07A
:1088660020C075F021C076F022C077F0AB0E136EF3
:10887600AA0E146E2A0E156EBE0E166E840E236E8A
:10888600880E246E080E256E3C0E266E78C01FF0EC
:1088960079C020F07AC021F07BC022F0CEEC4BF0FC
:1088A6001FC00FF020C010F021C011F022C012F03E
:1088B60048EC50F00FC068F010C069F011C06AF0C3
:1088C60012C06BF064C023F065C024F066C025F0CA
:1088D60067C026F074C01FF075C020F076C021F086
:1088E60077C022F0CEEC4BF01FC06CF020C06DF0CC
:1088F60021C06EF022C06FF058C013F059C014F0BA
:108906005AC015F05BC016F074C023F075C024F091
:1089160076C025F077C026F068C01FF069C020F049
:108926006AC021F06BC022F0CEEC4BF01FC00FF0F6
:1089360020C010F021C011F022C012F048EC50F017
:108946000FC070F010C071F011C072F012C073F059
:1089560070C00FF071C010F072C011F073C012F049
:1089660060C023F061C024F062C025F063C026F029
:108976006CC01FF06DC020F06EC021F06FC022F0F9
:10898600CEEC4BF01FC013F020C014F021C015F040
:1089960022C016F048EC50F00FC058F010C059F045
:1089A60011C05AF012C05BF0120038C046F039C050
:1089B60047F03AC048F03BC049F03DBEECEF44F00A
:1089C6003D5009E1800E3C5CD8A0ECEF44F0EEEFA0
:1089D60044F04CEF45F046C01FF047C020F048C0B9
:1089E60021F049C022F0000E236E000E246E000E08
:1089F600256E7F0E266ECEEC4BF01FC046F020C0D3
:108A060047F021C048F022C049F0810E3C26FF0EF7
:108A16003D223DBE18EF45F03D5009E1800E3C5C1D
:108A2600D8A018EF45F01AEF45F0B6EF45F046C06E
:108A36001FF047C020F048C021F049C022F0000EC8
:108A4600236E000E246E000E256E7F0E266ECEEC73
:108A56004BF01FC046F020C047F021C048F022C0AE
:108A660049F0810E3C26FF0E3D223DBE44EF45F007
:108A76003D5009E1800E3C5CD8A044EF45F046EF3E
:108A860045F0B6EF45F0000E3D6E7F0E3C6EB6EF3C
:108A960045F03DAE58EF45F0820E3C5CFF0E3D586A
:108AA600D8B058EF45F05AEF45F0B6EF45F046C05E
:108AB6001FF047C020F048C021F049C022F0000E48
:108AC600236E000E246E800E256E0C0E266ECEECE6
:108AD6004BF01FC046F020C047F021C048F022C02E
:108AE60049F0660E3C26000E3D223DAE84EF45F071
:108AF600820E3C5CFF0E3D58D8B084EF45F086EF01
:108B060045F0B6EF45F046C01FF047C020F048C01C
:108B160021F049C022F0000E236E000E246E800E56
:108B2600256E0C0E266ECEEC4BF01FC046F020C014
:108B360047F021C048F022C049F0660E3C26000EE0
:108B46003D223DAEB0EF45F0820E3C5CFF0E3D5837
:108B5600D8B0B0EF45F0B2EF45F0B6EF45F0FF0EF6
:108B66003D6E820E3C6E7F0E3C243E6E000E3D2016
:108B76003F6E406A416A170ED8903E363F36403601
:108B86004136E82EBFEF45F03EC042F03FC043F00D
:108B960040C044F041C045F042C01FF043C020F041
:108BA60044C021F045C022F046C023F047C024F05F
:108BB60048C025F049C026F0CEEC4BF01FC038F077
:108BC60020C039F021C03AF022C03BF038C038F05E
:108BD60039C039F03AC03AF03BC03BF0120043507E
:108BE600800B506E43504324576E42AEFDEF45F066
:108BF600FFEF45F000EF46F057805750D8B406EF28
:108C060046F008EF46F01DEF46F05728D8A40EEFC1
:108C160046F010EF46F018EF46F0000E406E000EDC
:108C2600416E000E426E000E436E428E000E436E83
:108C360025EF46F0000E406E000E416E000E426EAD
:108C4600000E436E4750800B501A47504724586E0B
:108C560046AE30EF46F032EF46F033EF46F058803E
:108C66005850D8B439EF46F03BEF46F050EF46F097
:108C76005828D8A441EF46F043EF46F04BEF46F0B4
:108C8600000E446E000E456E000E466E000E476ED8
:108C9600468E000E476E58EF46F0000E446E000EEC
:108CA600456E000E466E000E476E44504510461047
:108CB6004710D8A461EF46F063EF46F07BEF46F02D
:108CC600000E406E000E416E000E426E000E436EA8
:108CD600800E42127F0E43125050431240C040F0A5
:108CE60041C041F042C042F043C043F0BEEF47F0FE
:108CF6005750D8A481EF46F083EF46F08DEF46F04B
:108D0600000E406E000E416E000E426E000E436E67
:108D1600BEEF47F0585057C048F0496A485E000E0B
:108D2600495A7F0E4824516E000E4920526E40C0AB
:108D36004CF041C04DF042C04EF043C04FF0000E23
:108D4600406E000E416E000E426E000E436E000E27
:108D5600536E000E546E000E556E000E566E000ECB
:108D6600586EEEEF46F05850D8B4BCEF46F0BEEF62
:108D760046F0D5EF46F0D8904C364D364E364F3647
:108D8600D890403641364236433656AECDEF46F0A1
:108D9600CFEF46F0D0EF46F04080D89053365436A9
:108DA6005536563644504C5C45504D5846504E58F4
:108DB60047504F58D8A0E2EF46F0E4EF46F0EDEF0B
:108DC60046F0568C44504C5E45504D5A46504E5ACD
:108DD60047504F5A582A190E5864F4EF46F0F6EFEA
:108DE60046F0B6EF46F04C504D104E104F10D8B42A
:108DF600FFEF46F001EF47F019EF47F0538019EF08
:108E060047F0D890403641364236433656AE0EEFDE
:108E160047F010EF47F011EF47F04080D8905336F7
:108E26005436553656365106D8A0520642AE1EEF77
:108E360047F020EF47F004EF47F0000E586E56AEAD
:108E460027EF47F029EF47F04DEF47F0FF0E531499
:108E5600486EFF0E5414496EFF0E55144A6E7F0E6F
:108E660056144B6E485049104A104B10D8B43EEF7A
:108E760047F040EF47F044EF47F0010E586E4DEFD4
:108E860047F040A049EF47F04BEF47F04DEF47F072
:108E960040EF47F05850D8B453EF47F055EF47F03E
:108EA60079EF47F0010E4026000E4122422243226E
:108EB60043A060EF47F062EF47F079EF47F040C01C
:108EC60048F041C049F042C04AF043C04BF04B3431
:108ED6004B324A324932483248C040F049C041F02C
:108EE6004AC042F04BC043F0514A522A52BE84EF68
:108EF60047F0525008E15128D8A084EF47F086EF9A
:108F060047F091EF47F0000E526E5168000E406E2A
:108F1600000E416E000E426E000E436E52BE9EEF74
:108F260047F0525006E15104D8B09CEF47F09EEF4F
:108F360047F0ACEF47F0000E526E000E516E000E79
:108F4600406E000E416E000E426E000E436E000E25
:108F5600506E51C057F057A0B3EF47F0B5EF47F04A
:108F6600B8EF47F0428EB9EF47F0429ED89057309F
:108F7600436E6FEF46F0120059C01FF05AC020F042
:108F86005BC021F05CC022F059C023F05AC024F027
:108F96005BC025F05CC026F0CEEC4BF01FC084F021
:108FA60020C085F021C086F022C087F084C023F05F
:108FB60085C024F086C025F087C026F0490EF66EDF
:108FC600FE0EF76EF86A09006F00D4FF1FF0090065
:108FD6006F00D4FF20F009006F00D4FF21F00A00D3
:108FE6006F00D4FF22F0CEEC4BF01FC00FF020C074
:108FF60010F021C011F022C012F0450EF66EFE0EE2
:10900600F76EF86A09006F00D4FF13F009006F00CD
:10901600D4FF14F009006F00D4FF15F00A006F00AA
:10902600D4FF16F048EC50F00FC080F010C081F06D
:1090360011C082F012C083F084C023F085C024F0F2
:1090460086C025F087C026F0410EF66EFE0EF76E3E
:10905600F86A09006F00D4FF1FF009006F00D4FF03
:1090660020F009006F00D4FF21F00A006F00D4FF42
:1090760022F0CEEC4BF01FC00FF020C010F021C044
:1090860011F022C012F03D0EF66EFE0EF76EF86A73
:1090960009006F00D4FF13F009006F00D4FF14F02D
:1090A60009006F00D4FF15F00A006F00D4FF16F018
:1090B60048EC50F00FC060F010C061F011C062F0D3
:1090C60012C063F084C01FF085C020F086C021F076
:1090D60087C022F084C023F085C024F086C025F026
:1090E60087C026F0CEEC4BF01FC078F020C079F098
:1090F60021C07AF022C07BF084C01FF085C020F02A
:1091060086C021F087C022F059C023F05AC024F04F
:109116005BC025F05CC026F0CEEC4BF01FC07CF0A7
:1091260020C07DF021C07EF022C07FF084C023F0F5
:1091360085C024F086C025F087C026F0390EF66E6D
:10914600FE0EF76EF86A09006F00D4FF1FF00900E3
:109156006F00D4FF20F009006F00D4FF21F00A0051
:109166006F00D4FF22F0CEEC4BF01FC00FF020C0F2
:1091760010F021C011F022C012F0350EF66EFE0E70
:10918600F76E000EF86E09006F00D4FF13F00900A9
:109196006F00D4FF14F009006F00D4FF15F00A0029
:1091A6006F00D4FF16F048EC50F00FC064F010C00A
:1091B60065F011C066F012C067F078C023F079C080
:1091C60024F07AC025F07BC026F07CC01FF07DC05D
:1091D60020F07EC021F07FC022F0CEEC4BF01FC005
:1091E60068F020C069F021C06AF022C06BF060C050
:1091F60013F061C014F062C015F063C016F080C0B1
:1092060023F081C024F082C025F083C026F078C008
:109216001FF079C020F07AC021F07BC022F0CEEC9E
:109226004BF01FC00FF020C010F021C011F022C07B
:1092360012F048EC50F00FC06CF010C06DF011C089
:109246006EF012C06FF059C013F05AC014F05BC034
:1092560015F05CC016F064C023F065C024F066C04B
:1092660025F067C026F07CC01FF07DC020F07EC0D0
:1092760021F07FC022F0CEEC4BF01FC00FF020C0D3
:1092860010F021C011F022C012F048EC50F00FC0CF
:1092960070F010C071F011C072F012C073F070C09F
:1092A6000FF071C010F072C011F073C012F068C0F8
:1092B60023F069C024F06AC025F06BC026F06CC0AC
:1092C6001FF06DC020F06EC021F06FC022F0CEEC12
:1092D6004BF01FC013F020C014F021C015F022C0BF
:1092E60016F048EC50F00FC080F010C081F011C0AD
:1092F60082F012C083F05D505E10D8A485EF49F06D
:1093060087EF49F091EF49F080C074F081C075F0A5
:1093160082C076F083C077F0ABEF49F0000E406E66
:10932600000E416E800E426EBF0E436E80C044F04A
:1093360081C045F082C046F083C047F0F2EC45F0AC
:1093460040C074F041C075F042C076F043C077F07B
:1093560074C059F075C05AF076C05BF077C05CF007
:1093660012006000DBF2D9FF6000DFF2DAFF6F0067
:109376007BFFF6FF6F0077FFF7FFF86A0800F550EE
:10938600250AD8A4C9EF49F0CBEF49F0ABEF4BF073
:109396006000DBF2D9FF6000DFF2DAFFDE2A000EA2
:1093A600DD22000E0101F66F000EF56FF5C1FDF02E
:1093B600F6C1FEF0F769F8696000DBF2D9FF6000DC
:1093C600DFF2DAFF6F007BFFF6FF6F0077FFF7FF34
:1093D600F86A0800F550076E086A0DEC39F0075078
:1093E6000001C46FC451D8B4FBEF49F0FDEF49F05A
:1093F60045EF4AF06000DBF2D9FF6000DFF2DAFFEA
:109406006F0078FFBAF06F0074FFBBF0010EBA2749
:10941600000EBB236000EBF2F6FF6000EFF2F7FFF1
:10942600F86A0800F550076E086A0DEC39F0075027
:109436000001C56FC551D8B423EF4AF025EF4AF0B5
:1094460045EF4AF06000DBF2D9FF6000DFF2DAFF99
:109456006F0078FFBAF06F0074FFBBF0020EBA27F8
:10946600000EBB236000EBF2F6FF6000EFF2F7FFA1
:10947600F86A0800F550076E086A0DEC39F00750D7
:109486000001C66F660EC419D8A44CEF4AF04EEF21
:109496004AF0A0EF4AF06000DBF2D9FF6000DFF28D
:1094A600DAFF6F007BFFF6FF6F0077FFF7FFF86AC2
:1094B60008006F00D4FFC7F06000DBF2D9FF600040
:1094C600DFF2DAFFDE2A000EDD226000E3F2D9FFCA
:1094D6006000E7F2DAFF6F007CFFBAF0040EDE26CA
:1094E6006F007CFFBBF0000EDD226000EBF2D9FFBF
:1094F6006000EFF2DAFF6F0078FFC0F06F0078FFD0
:10950600C1F06F0078FFC2F06F0078FFC3F0B4C0FF
:1095160070F0B5C071F0C0C072F0C1C073F0C2C0C7
:1095260074F0C3C075F0C7C076F020EC64F070C06C
:10953600B4F071C0B5F0CDEF4BF0C40E016E000E65
:10954600026EF80E036EFF0E046E000E066E020E1D
:10955600056E6AEC3CF001500210D8A4B5EF4AF053
:10956600B7EF4AF06AEF4BF06000DBF2D9FF60001C
:10957600DFF2DAFF6F0078FFBAF06F0074FFBBF01E
:10958600010E0001BA27000EBB236000EBF2F6FFC6
:109596006000EFF2F7FFF86A08006F00D4FFC7F02B
:1095A600BF0EBA6FFF0EBB6F6000DBF2D9FF600023
:1095B600DFF2DAFF6F007BFFF6FF6F0077FFF7FF42
:1095C600F86A0800F550BC6FBD6BBA51BC27BB5199
:1095D600BD23BD510AE11A0EBC5DD8A0F5EF4AF0D5
:1095E600F8EF4AF0010EF9EF4AF0000EBE6FBF6BBE
:1095F600BE51BF11D8B402EF4BF004EF4BF028EF89
:109606004BF06000E3F2D9FF6000E7F2DAFF6F008B
:109616007CFFBAF0040EDE266F007CFFBBF0000E66
:10962600DD226000EBF2D9FF6000EFF2DAFF6F0097
:1096360078FFC0F06F0078FFC1F06F0078FFC2F0CE
:109646006F0078FFC3F04AEF4BF06000E3F2D9FFFA
:109656006000E7F2DAFF6F007CFFBAF0040EDE2648
:109666006F007CFFBBF0000EDD226000EBF2D9FF3D
:109676006000EFF2DAFF6F0078FFC0F06F0078FF4E
:10968600C1F06F0078FFC2F06F0078FFC3F0020EE2
:109696006000DBF2D9FF6000DFF2DAFFDE26000EA3
:1096A600DD22B4C070F0B5C071F0C0C072F0C1C0A8
:1096B60073F0C2C074F0C3C075F0C7C076F020EC7A
:1096C60064F070C0B4F071C0B5F0CDEF4BF060003F
:1096D600DBF2D9FF6000DFF2DAFF6F007BFFF6FFF7
:1096E6006F0077FFF7FFF86A0800F550250AD8A43F
:1096F6007FEF4BF081EF4BF09BEF4BF06000DBF21E
:10970600D9FF6000DFF2DAFFDE2A000EDD22000E4E
:10971600046E250E036EB4C005F0B5C006F0F4EC79
:1097260039F0000E0001B56F010EB46FCDEF4BF0AE
:109736006000DBF2D9FF6000DFF2DAFFDE2A000EFE
:10974600DD22000E0001B56F000EB46FCDEF4BF0B9
:109756006000DBF2D9FF6000DFF2DAFF6F007BFF0B
:10976600F6FF6F0077FFF7FFF86A0800F550036E03
:10977600046AB4C005F0B5C006F0F4EC39F0600038
:10978600DBF2D9FF6000DFF2DAFFDE2A000EDD220F
:1097960094EF4BF012002250800B2B6E22502224A5
:1097A600316E21AED9EF4BF0DBEF4BF0DCEF4BF037
:1097B60031803150D8B4E2EF4BF0E4EF4BF0F7EFE5
:1097C6004BF03128D8A4EAEF4BF0ECEF4BF0F4EF76
:1097D6004BF0000E1F6E000E206E000E216E000E66
:1097E600226E218EFFEF4BF0000E1F6E000E206ED4
:1097F600000E216E000E226E2650800B2B1A26506C
:109806002624306E25AE0AEF4CF00CEF4CF00DEF2F
:109816004CF030803050D8B413EF4CF015EF4CF0CC
:1098260028EF4CF03028D8A41BEF4CF01DEF4CF07D
:1098360025EF4CF0000E236E000E246E000E256EF2
:10984600000E266E258E30EF4CF0000E236E000EB5
:10985600246E000E256E000E266E3050D8B436EFFC
:109866004CF038EF4CF040EF4CF03150D8A43EEFBE
:109876004CF040EF4CF04AEF4CF0000E1F6E000E1D
:10988600206E000E216E000E226EF4EF4DF0255074
:109896001F026F00CCFF36F06F00D0FF37F0365056
:1098A6002C6E2D6A2E6A2F6A3750326E336A346AEE
:1098B600356A245020026F00CCFF36F06F00D0FFCF
:1098C60037F036502C26000E2D222E222F2237500E
:1098D6003226000E332234223522235021026F0015
:1098E600CCFF36F06F00D0FF37F036502C26000E36
:1098F6002D222E222F2237503226000E33223422DA
:1099060035222EC02FF02DC02EF02CC02DF02C6A43
:10991600235020026F00CCFF36F06F00D0FF37F0E7
:1099260036502C2637502D22000E2E22000E2F22C6
:1099360024501F026F00CCFF36F06F00D0FF37F0C7
:1099460036502C2637502D22000E2E22000E2F22A6
:109956002EC02FF02DC02EF02CC02DF02C6A2350D7
:109966001F026F00CCFF36F06F00D0FF37F0365085
:109976002C2637502D22000E2E22000E2F22255087
:1099860020026F00CCFF36F06F00D0FF37F0365064
:10999600322637503322000E3422000E3522245050
:1099A60021026F00CCFF36F06F00D0FF37F0365043
:1099B600322637503322000E3422000E352225502F
:1099C60021026F00CCFF36F06F00D0FF37F0365023
:1099D600276E3750286E296A2A6A29C02AF028C0BD
:1099E60029F027C028F0276A27503226285033222C
:1099F600295034222A5035222CC027F02DC028F0B9
:109A06002EC029F02FC02AF0190E0FEF4DF0D89076
:109A16002A32293228322732E82E0AEF4DF0275013
:109A2600322628503322295034222A5035222EC07D
:109A36002FF02DC02EF02CC02DF02C6A305031C0E6
:109A460027F0286A2726000E2822820E2724366E43
:109A5600FF0E2820376E45EF4DF0D890323633365C
:109A6600343635362FAE3AEF4DF03CEF4DF03DEF44
:109A76004DF03280D8902C362D362E362F363606BF
:109A8600D8A0370634AE4AEF4DF04CEF4DF030EF2C
:109A96004DF0000E306E2FAE53EF4DF055EF4DF0FA
:109AA60079EF4DF0FF0E2C14276EFF0E2D14286E45
:109AB600FF0E2E14296E7F0E2F142A6E27502810A3
:109AC60029102A10D8B46AEF4DF06CEF4DF070EF04
:109AD6004DF0010E306E79EF4DF032A075EF4DF07E
:109AE60077EF4DF079EF4DF06CEF4DF03050D8B484
:109AF6007FEF4DF081EF4DF0A5EF4DF0010E3226D0
:109B0600000E33223422352235A08CEF4DF08EEF35
:109B16004DF0A5EF4DF032C027F033C028F034C029
:109B260029F035C02AF02A342A322932283227323F
:109B360027C032F028C033F029C034F02AC035F0EF
:109B4600364A372A37BEB0EF4DF0375008E136288F
:109B5600D8A0B0EF4DF0B2EF4DF0BCEF4DF0000ED7
:109B6600326E000E336E800E346E7F0E356EEAEF67
:109B76004DF037BEC9EF4DF0375006E13604D8B088
:109B8600C7EF4DF0C9EF4DF0D5EF4DF0000E326E38
:109B9600000E336E000E346E000E356E000E2B6E08
:109BA600EAEF4DF036C031F0FF0E3216FF0E3316D7
:109BB6007F0E3416000E351631A0E4EF4DF0E6EFB9
:109BC6004DF0E7EF4DF0348ED8903130356E2B5096
:109BD600351232C01FF033C020F034C021F035C03A
:109BE60022F0120096C0A2F097C0A3F098C0A4F08D
:109BF60099C0A5F0A2C0BCF0A3C0BDF0A4C0BEF041
:109C0600A5C0BFF0BCC09AF0BDC09BF0BEC09CF022
:109C1600BFC09DF0200E16EF4EF00001D8909D3388
:109C26009C339B339A33E82E10EF4EF09AC0B6F071
:109C36009BC0B7F0BF9FDB0EBC5D0F0EBD59490E32
:109C4600BE593F0EBF59D8B02BEF4EF02DEF4EF058
:109C56005AEF4EF0800EBE5D390EBF59D8B036EFC2
:109C66004EF038EF4EF042EF4EF096C096F097C0A9
:109C760097F098C098F099C099F047EF50F096C0C9
:109C860059F097C05AF098C05BF099C05CF0000E8E
:109C96005E6E000E5D6EBFEC47F059C096F05AC07E
:109CA60097F05BC098F05CC099F047EF50F0D20E89
:109CB600BC5D530EBD597B0EBE59400EBF59D8B080
:109CC60067EF4EF069EF4EF026EF4FF0E40EBC5D05
:109CD600CB0EBD59160EBE59400EBF59D8B076EF01
:109CE6004EF078EF4EF0CFEF4EF0B651B711D8A444
:109CF6007FEF4EF081EF4EF09DEF4EF096C00FF0E5
:109D060097C010F098C011F099C012F0DB0E136ED8
:109D16000F0E146EC90E156EBF0E166E48EC50F07F
:109D26000FC0A6F010C0A7F011C0A8F012C0A9F08D
:109D3600B7EF4EF096C00FF097C010F098C011F034
:109D460099C012F0DB0E136E0F0E146EC90E156E4F
:109D56003F0E166E48EC50F00FC0A6F010C0A7F0EC
:109D660011C0A8F012C0A9F0A6C059F0A7C05AF0B9
:109D7600A8C05BF0A9C05CF0000E5E6E010E5D6EC1
:109D8600BFEC47F059C096F05AC097F05BC098F008
:109D96005CC099F047EF50F0B651B711D8A4D6EF92
:109DA6004EF0D8EF4EF0F4EF4EF096C00FF097C09D
:109DB60010F098C011F099C012F0DB0E136E0F0E62
:109DC600146E490E156EC00E166E48EC50F00FC09C
:109DD600AAF010C0ABF011C0ACF012C0ADF00EEF9F
:109DE6004FF096C00FF097C010F098C011F099C0D0
:109DF60012F0DB0E136E0F0E146E490E156E400E2A
:109E0600166E48EC50F00FC0AAF010C0ABF011C0AF
:109E1600ACF012C0ADF0AAC059F0ABC05AF0ACC05D
:109E26005BF0ADC05CF0000E5E6E000E5D6EBFECCA
:109E360047F059C096F05AC097F05BC098F05CC0E6
:109E460099F047EF50F0D60EBC5D310EBD59E20ECB
:109E5600BE59400EBF59D8B033EF4FF035EF4FF033
:109E6600F2EF4FF0E00EBC5DED0EBD59AF0EBE59E0
:109E7600400EBF59D8B042EF4FF044EF4FF09BEF82
:109E86004FF0B651B711D8A44BEF4FF04DEF4FF04E
:109E960069EF4FF096C00FF097C010F098C011F020
:109EA60099C012F0E40E136ECB0E146E960E156E5C
:109EB600C00E166E48EC50F00FC0AEF010C0AFF0FA
:109EC60011C0B0F012C0B1F083EF4FF096C00FF0A2
:109ED60097C010F098C011F099C012F0E40E136EFE
:109EE600CB0E146E960E156E400E166E48EC50F0A4
:109EF6000FC0AEF010C0AFF011C0B0F012C0B1F09C
:109F0600AEC059F0AFC05AF0B0C05BF0B1C05CF063
:109F1600000E5E6E010E5D6EBFEC47F059C096F006
:109F26005AC097F05BC098F05CC099F047EF50F0CC
:109F3600B651B711D8A4A2EF4FF0A4EF4FF0C0EF7F
:109F46004FF096C00FF097C010F098C011F099C06E
:109F560012F0DB0E136E0F0E146EC90E156EC00EC8
:109F6600166E48EC50F00FC0B2F010C0B3F011C03E
:109F7600B4F012C0B5F0DAEF4FF096C00FF097C00C
:109F860010F098C011F099C012F0DB0E136E0F0E90
:109F9600146EC90E156E400E166E48EC50F00FC0CA
:109FA600B2F010C0B3F011C0B4F012C0B5F0B2C038
:109FB60059F0B3C05AF0B4C05BF0B5C05CF0000E07
:109FC6005E6E000E5D6EBFEC47F059C096F05AC04B
:109FD60097F05BC098F05CC099F047EF50F0800EA8
:109FE600BE5D7F0EBF59D8A0FBEF4FF0FDEF4FF0DF
:109FF60019EF50F096C038F097C039F098C03AF093
:10A0060099C03BF096C03CF097C03DF098C03EF03A
:10A0160099C03FF0BCEC38F038C096F039C097F0E4
:10A026003AC098F03BC099F047EF50F096C058F010
:10A0360097C059F098C05AF099C05BF0B80E5C6EA4
:10A04600000E5D6E09EC55F058C09EF059C09FF0A9
:10A056000001000E9FBFFF0EA06FA16FB8C059F0A0
:10A06600B9C05AF0BAC05BF0BBC05CF0010E9E15D9
:10A076005D6E5E6ABFEC47F059C096F05AC097F025
:10A086005BC098F05CC099F012001250800B1B6EFA
:10A09600125012241D6E11AE53EF50F055EF50F0D2
:10A0A60056EF50F01D801D50D8B45CEF50F05EEFB7
:10A0B60050F073EF50F01D28D8A464EF50F066EF0F
:10A0C60050F06EEF50F0000E0F6E000E106E000E88
:10A0D600116E000E126E118E000E126E7BEF50F096
:10A0E600000E0F6E000E106E000E116E000E126E38
:10A0F6001650800B1C6E1B501C18D8B485EF50F000
:10A1060087EF50F088EF50F01B8C165016241C6E0B
:10A1160015AE90EF50F092EF50F093EF50F01C8098
:10A126001C50D8B499EF50F09BEF50F0B0EF50F0C0
:10A136001C28D8A4A1EF50F0A3EF50F0ABEF50F0DD
:10A14600000E136E000E146E000E156E000E166EC7
:10A15600158E000E166EB8EF50F0000E136E000E40
:10A16600146E000E156E000E166E1D501C5CD8B0D7
:10A17600BFEF50F0C1EF50F0E8EF50F01BACC6EF68
:10A1860050F0C8EF50F0CAEF50F0800E1B1A1DC0F9
:10A196001EF01CC01DF01EC01CF00FC01EF013C028
:10A1A6000FF01EC013F010C01EF014C010F01EC039
:10A1B60014F011C01EF015C011F01EC015F012C02B
:10A1C6001EF016C012F01EC016F0000E1E6E1D50B8
:10A1D6001CC017F0186A175E000E185A18BEFDEF5D
:10A1E60050F0185009E11A0E175CD8A0FDEF50F098
:10A1F600FFEF50F036EF51F00F5010101110121003
:10A20600D8A408EF51F00BEF51F0010E0CEF51F00E
:10A21600000E1E6E000E0F6E000E106E000E116EFA
:10A22600000E126E1CC01DF03FEF51F01EA01EEF77
:10A2360051F020EF51F026EF51F0D8901E30010971
:10A246001E6E28EF51F0D8901E320FA02DEF51F060
:10A256002FEF51F030EF51F01E8E123412321132C0
:10A2660010320F321D2A1C501D5CD8A03DEF51F054
:10A276003FEF51F019EF51F01BBC44EF51F046EFA0
:10A2860051F086EF51F01D50D8A44CEF51F04EEF2F
:10A2960051F058EF51F0000E0F6E000E106E000ECA
:10A2A600116E000E126EA7EF52F013500F261450C7
:10A2B6001022155011221650122212A065EF51F0ED
:10A2C60067EF51F013EF52F01EA06CEF51F06EEFF6
:10A2D60051F074EF51F0D8901E3001091E6E76EFE2
:10A2E60051F0D8901E320FA07BEF51F07DEF51F068
:10A2F6007EEF51F01E8E12341232113210320F32AE
:10A306001D2A13EF52F013500F5C145010581550BD
:10A3160011581250800A176E1650800A1758D8B076
:10A3260097EF51F099EF51F0C4EF51F00F50135CD5
:10A33600176E10501458186E11501558196E125089
:10A3460016581A6EFF0E17240F6EFF0E1820106E89
:10A35600FF0E1920116EFF0E1A20126E800E1B1AA8
:10A366001E6C1E50D8A4BAEF51F0BCEF51F0CCEFE2
:10A3760051F0010E0F26000E102211221222CCEFF0
:10A3860051F013500F5E1450105A1550115A1650B2
:10A39600125A0F50101011101210D8A4D5EF51F008
:10A3A600D7EF51F00CEF52F01E50D8A4DDEF51F06C
:10A3B600DFEF51F00CEF52F0000E0F6E000E106E34
:10A3C600000E116E000E126EA7EF52F0D8900F36E7
:10A3D6001036113612361EAEF3EF51F0F5EF51F08E
:10A3E600F6EF51F00F801EA0FBEF51F0FDEF51F09C
:10A3F60001EF52F0D8801E3603EF52F0D8901E3689
:10A406001D50D8B409EF52F00BEF52F00CEF52F09A
:10A416001D0611AE11EF52F013EF52F0E9EF51F0B5
:10A42600000E1C6E1EAE1AEF52F01CEF52F034EF07
:10A4360052F01EC017F07F0E1716D8B425EF52F053
:10A4460027EF52F02BEF52F0010E1C6E34EF52F054
:10A456000FA030EF52F032EF52F034EF52F027EF08
:10A4660052F01C50D8B43AEF52F03CEF52F067EF7E
:10A4760052F0010E0F26000E10221122122212A0F7
:10A4860047EF52F049EF52F067EF52F00FC017F066
:10A4960010C018F011C019F012C01AF01A341A328E
:10A4A60019321832173217C00FF018C010F019C041
:10A4B60011F01AC012F01D28D8B464EF52F066EFFE
:10A4C60052F067EF52F01D2A1D28D8B46DEF52F0F6
:10A4D6006FEF52F077EF52F01D50D8A475EF52F09F
:10A4E60077EF52F089EF52F0000E0F6E000E106EED
:10A4F600000E116E000E126E1D50D8A485EF52F09C
:10A5060087EF52F089EF52F0000E1B6E1DA08EEF02
:10A5160052F090EF52F093EF52F0118E94EF52F00A
:10A52600119ED8901D30126E1BAE9CEF52F09EEF1E
:10A5360052F09FEF52F0128E0FC00FF010C010F0C5
:10A5460011C011F012C012F01200C0C0D5F0C1C087
:10A55600D6F0C2C0D7F0C3C0D8F0D5C0EDF0D6C093
:10A56600EEF0D7C0EFF0D8C0F0F0000E0001ED1508
:10A57600C46F000EEE15C56F800EEF15C66F7F0E09
:10A58600F015C76F800EC61909E17F0EC719C411F1
:10A59600C511D8A4D1EF52F0D3EF52F001EF53F02A
:10A5A600C0C023F0C1C024F0C2C025F0C3C026F04D
:10A5B600C0C01FF0C1C020F0C2C021F0C3C022F04D
:10A5C600CEEC4BF01FC00FF020C010F021C011F0F0
:10A5D60022C012F0C0C013F0C1C014F0C2C015F002
:10A5E600C3C016F048EC50F00FC0C0F010C0C1F068
:10A5F60011C0C2F012C0C3F008EF55F0F0BF10EF63
:10A6060053F0F051EF11EE1106E1ED05D8B00EEF63
:10A6160053F010EF53F04DEF53F0FF0EED15C46FEE
:10A62600FF0EEE15C56FFF0EEF15C66F7F0EF01508
:10A63600C76FC451C511C611C711D8A425EF53F071
:10A6460027EF53F031EF53F0C0C0C0F0C1C0C1F0E6
:10A65600C2C0C2F0C3C0C3F008EF55F0F0BF38EF78
:10A6660053F036EF53F04DEF53F0000E0101F26F49
:10A67600210EF16FEB0E016EFF0E026EE1EC37F06C
:10A6860001C0C0F002C0C1F003C0C2F004C0C3F0F4
:10A6960008EF55F0170EC46FEDC0C5F0EEC0C6F05A
:10A6A600EFC0C7F0F0C0C8F0C4675CEF53F064EFCA
:10A6B60053F0C835C833C733C633C533C42F57EF35
:10A6C60053F0C5C0E5F0C6C0E6F0C7C0E7F0C8C0A5
:10A6D600E8F00001E551E611E711E811D8A476EF9C
:10A6E60053F078EF53F0A8EF53F0000ED16F000E41
:10A6F600D26F000ED36F000ED46F8DEF53F0D8904B
:10A70600ED37EE37EF37F037010ED127000ED223A3
:10A71600D323D423EFAF92EF53F094EF53F082EFAD
:10A7260053F0FF0ED125C46FFF0ED221C56FFF0E69
:10A73600D321C66FFF0ED421C76FC451E55FC55143
:10A74600E65BC651E75BC751E85B810EE527FF0E66
:10A75600E623FF0EE723FF0EE823FF0EED15C46F79
:10A76600FF0EEE15C56F7F0EEF15C66F000EF015C6
:10A77600C76F000EC411ED6F000EC511EE6F800E8F
:10A78600C611EF6F000EC711F06FE5A1CDEF53F0C4
:10A79600CFEF53F0D7EF53F0ED51ED27EE51EE2307
:10A7A600EF51EF23F051F023E835E833E733E63392
:10A7B600E533ED51ED27EE51EE23EF51EF23F05146
:10A7C600F023000ECD6F000ECE6F000ECF6F000E81
:10A7D600D06FCDC0D9F0CEC0DAF0CFC0DBF0D0C09C
:10A7E600DCF0000EE96F000EEA6F000EEB6F010E53
:10A7F600EC6F46EF54F0CD51E925DD6FCE51EA21DD
:10A80600DE6FCF51EB21DF6FD051EC21E06FDD51D0
:10A81600ED5DDE51EE59DF51EF59F051800AC46FFC
:10A82600E051800AC459D8A01BEF54F01DEF54F034
:10A8360039EF54F0DD51E925CD6FDE51EA21CE6FB7
:10A84600DF51EB21CF6FE051EC21D06FDD51ED5F91
:10A85600DE51EE5BDF51EF5BE051F05BE951D9274A
:10A86600EA51DA23EB51DB23EC51DC23ED51ED27E2
:10A87600EE51EE23EF51EF23F051F023D890EC3355
:10A88600EB33EA33E933E951EA11EB11EC11D8A4C1
:10A896004FEF54F051EF54F0FEEF53F0ED51EE113F
:10A8A600EF11F011D8B45AEF54F05CEF54F0BDEF4D
:10A8B60054F0000EE16F000EE26F800EE36F3F0E64
:10A8C600E46FE1C040F0E2C041F0E3C042F0E4C012
:10A8D60043F0000E446E000E456E800E466E3F0E2F
:10A8E600476E63EC3DF0D8A07BEF54F07DEF54F05B
:10A8F600BDEF54F0000E0001E16F000EE26F800E16
:10A90600E36F3F0EE46F000E406E000E416E800E48
:10A91600426E3F0E436EE1C044F0E2C045F0E3C034
:10A9260046F0E4C047F063EC3DF0D8B09DEF54F03C
:10A936009FEF54F0A8EF54F0020E0001D927000E45
:10A94600DA23DB23DC23BDEF54F0010E0001D91519
:10A95600C46F000EDA15C56F000EDB15C66F000E4C
:10A96600DC15C76FC451D927C551DA23C651DB237D
:10A97600C751DC23D9C0C4F0DAC0C5F0DBC0C6F0CD
:10A98600DCC0C7F00001C735C733C633C533C4338F
:10A99600000EC425ED6F000EC521EE6F000EC62118
:10A9A600EF6F3F0EC721F06FE5C0C4F0E6C0C5F0FB
:10A9B600E7C0C6F0E8C0C7F0170ED890C437C53751
:10A9C600C637C737E82EE0EF54F0C451ED27C5511E
:10A9D600EE23C651EF23C751F023EDC0D5F0EEC0EC
:10A9E600D6F0EFC0D7F0F0C0D8F0D5C0E1F0D6C0B1
:10A9F600E2F0D7C0E3F0D8C0E4F0E1C0C0F0E2C0B6
:10AA0600C1F0E3C0C2F0E4C0C3F01200E9C16EF0C9
:10AA1600EAC16FF0EBC170F0ECC171F058C06EF096
:10AA260059C06FF05AC070F05BC071F06EC060F034
:10AA36006FC061F070C062F071C063F0200E2AEF43
:10AA460055F00001D8906333623361336033E82EEA
:10AA560024EF55F060C06CF061C06DF0FF0E6E150E
:10AA6600686FFF0E6F15696FFF0E70156A6F7F0EA8
:10AA760071156B6F800E6A5D7F0E6B59D8A046EF1D
:10AA860055F048EF55F072EF55F058C038F059C000
:10AA960039F05AC03AF05BC03BF058C03CF059C0A0
:10AAA6003DF05AC03EF05BC03FF0BCEC38F06000B1
:10AAB60073F1D9FF600077F1DAFF6000E3F0DEFFA3
:10AAC6006000E7F0DEFF6000EBF0DEFF6000EFF015
:10AAD600DEFF000E596E000E586E72EF57F0DB0E59
:10AAE600685D0F0E6959C90E6A594D0E6B59D8B07B
:10AAF6007FEF55F081EF55F083EF56F058C001F027
:10AB060059C002F05AC003F05BC004F02BEC38F0D9
:10AB160001C07AF002C07BF003C07CF004C07DF077
:10AB2600000E136E000E146E000E156E3F0E166E9E
:10AB3600830E236EF90E246E220E256E3F0E266EB0
:10AB46007AC01FF07BC020F07CC021F07DC022F0CF
:10AB5600CEEC4BF01FC00FF020C010F021C011F05A
:10AB660022C012F048EC50F00FC038F010C039F097
:10AB760011C03AF012C03BF0E5EC3DF038C07EF073
:10AB860039C07FF03AC080F03BC081F07EC001F052
:10AB96007FC002F080C003F081C004F0010EDBEC40
:10ABA60040F001C076F002C077F003C078F004C030
:10ABB60079F0DA0E236E0F0E246EC90E256E3F0E47
:10ABC600266E76C01FF077C020F078C021F079C0DD
:10ABD60022F0CEEC4BF01FC03CF020C03DF021C06F
:10ABE6003EF022C03FF07AC038F07BC039F07CC01E
:10ABF6003AF07DC03BF0BCEC38F038C072F039C09A
:10AC060073F03AC074F03BC075F072C038F073C090
:10AC160039F074C03AF075C03BF0A30E236E850E72
:10AC2600246E880E256E320E266E76C01FF077C013
:10AC360020F078C021F079C022F0CEEC4BF01FC096
:10AC46003CF020C03DF021C03EF022C03FF0BCECFD
:10AC560038F0600073F1D9FF600077F1DAFF600029
:10AC6600E3F0DEFF6000E7F0DEFF6000EBF0DEFF02
:10AC76006000EFF0DEFF00016C516D11D8B446EFB5
:10AC860056F048EF56F07DEF56F0600073F1D9FFAD
:10AC9600600077F1DAFF6F0078FF54F06F0078FFFD
:10ACA60055F06F0078FF56F06F0078FF57F045ECCF
:10ACB60038F0600073F1D9FF600077F1DAFF6000C9
:10ACC60053F1DEFF600057F1DEFF60005BF1DEFF4F
:10ACD60060005FF1DEFF7EC060F07FC061F00001C2
:10ACE600601F611F604B612B60C058F061C059F056
:10ACF60072EF57F07EC058F07FC059F072EF57F0F0
:10AD060058C001F059C002F05AC003F05BC004F00D
:10AD16002BEC38F001C07AF002C07BF003C07CF067
:10AD260004C07DF0000E136E000E146E000E156E3C
:10AD36003F0E166E830E236EF90E246E220E256EBE
:10AD46003F0E266E7AC01FF07BC020F07CC021F03B
:10AD56007DC022F0CEEC4BF01FC00FF020C010F0EB
:10AD660021C011F022C012F048EC50F00FC038F0AC
:10AD760010C039F011C03AF012C03BF0E5EC3DF0DE
:10AD860038C07EF039C07FF03AC080F03BC081F019
:10AD96007EC001F07FC002F080C003F081C004F0E5
:10ADA600010EDBEC40F001C076F002C077F003C084
:10ADB60078F004C079F0DA0E236E0F0E246EC90EF9
:10ADC600256E3F0E266E76C01FF077C020F078C045
:10ADD60021F079C022F0CEEC4BF01FC03CF020C031
:10ADE6003DF021C03EF022C03FF07AC038F07BC073
:10ADF60039F07CC03AF07DC03BF0BCEC38F038C08E
:10AE060072F039C073F03AC074F03BC075F072C08E
:10AE160038F073C039F074C03AF075C03BF0A30E39
:10AE2600236E850E246E880E256E320E266E76C033
:10AE36001FF077C020F078C021F079C022F0CEEC68
:10AE46004BF01FC03CF020C03DF021C03EF022C0B8
:10AE56003FF0BCEC38F038C064F039C065F03AC059
:10AE660066F03BC067F000016C516D11D8B43EEF3F
:10AE760057F040EF57F05EEF57F064C054F065C0EE
:10AE860055F066C056F067C057F045EC38F06000E4
:10AE960073F1D9FF600077F1DAFF600053F1DEFF4E
:10AEA600600057F1DEFF60005BF1DEFF60005FF1DE
:10AEB600DEFF6EEF56F0600073F1D9FF600077F1A8
:10AEC600DAFF600093F1DEFF600097F1DEFF6000BD
:10AED6009BF1DEFF60009FF1DEFF7DEF56F0120072
:10AEE60060C03CF061C03DF062C03EF063C03FF020
:10AEF60064C038F065C039F066C03AF067C03BF010
:10AF0600BCEC38F038C040F039C041F03AC042F0ED
:10AF16003BC043F068C044F069C045F06AC046F0E3
:10AF26006BC047F0F2EC45F040C070F041C071F0E4
:10AF360042C072F043C073F0000E0001846F000E31
:10AF4600856F000E866F000E876F000E806F000EF5
:10AF5600816F000E826F000E836F000E886F000EE9
:10AF6600896F000E8A6F000E8B6F000E8C6F000EBD
:10AF76008D6F000E8E6F000E8F6F000E996F000E94
:10AF8600986F80EF59F098C001F099C002F0000E5A
:10AF960002BEFF0E036E046E010EDBEC40F001C034
:10AFA6001FF002C020F003C021F004C022F0000E02
:10AFB600236E000E246E000E256E3F0E266ECEEC1E
:10AFC6004BF01FC084F020C085F021C086F022C05F
:10AFD60087F0000198519911D8A4F4EF57F0F6EFD5
:10AFE60057F012EF58F060C01FF061C020F062C049
:10AFF60021F063C022F0000E236E000E246E000EB8
:10B00600256E3F0E266ECEEC4BF01FC084F020C09E
:10B0160085F021C086F022C087F07DEF59F098C0F8
:10B0260001F099C002F0000E02BEFF0E036E046E20
:10B03600010EDBEC40F001C00FF002C010F003C0BF
:10B0460011F004C012F068C013F069C014F06AC0B1
:10B0560015F06BC016F08DEC3AF0D8A035EF58F02D
:10B0660037EF58F053EF58F064C01FF065C020F07A
:10B0760066C021F067C022F0000E236E000E246E1B
:10B08600000E256E3F0E266ECEEC4BF01FC080F0F4
:10B0960020C081F021C082F022C083F07DEF59F0FC
:10B0A600000198B159EF58F05BEF58F0EDEF58F00A
:10B0B60068C044F069C045F06AC046F06BC047F00E
:10B0C60060C03CF061C03DF062C03EF063C03FF03E
:10B0D60064C038F065C039F066C03AF067C03BF02E
:10B0E600BCEC38F038C023F039C024F03AC025F063
:10B0F6003BC026F098C001F099C002F0000E02BED7
:10B10600FF0E036E046E010EDBEC40F001C01FF073
:10B1160002C020F003C021F004C022F0CEEC4BF0B8
:10B126001FC040F020C041F021C042F022C043F0D1
:10B13600F2EC45F040C090F041C091F042C092F070
:10B1460043C093F0000E236E000E246E800E256E13
:10B156003F0E266E60C013F061C014F062C015F099
:10B1660063C016F090C00FF091C010F092C011F0BD
:10B1760093C012F048EC50F00FC01FF010C020F042
:10B1860011C021F012C022F0CEEC4BF01FC094F09B
:10B1960020C095F021C096F022C097F088C00FF02D
:10B1A60089C010F08AC011F08BC012F094C013F061
:10B1B60095C014F096C015F097C016F048EC50F004
:10B1C6000FC088F010C089F011C08AF012C08BF051
:10B1D6007DEF59F068C044F069C045F06AC046F09A
:10B1E6006BC047F060C03CF061C03DF062C03EF00D
:10B1F60063C03FF064C038F065C039F066C03AF00D
:10B2060067C03BF0BCEC38F038C023F039C024F0FE
:10B216003AC025F03BC026F098C001F099C002F074
:10B22600000E02BEFF0E036E046E010EDBEC40F054
:10B2360001C01FF002C020F003C021F004C022F0BC
:10B24600CEEC4BF01FC040F020C041F021C042F0D0
:10B2560022C043F0F2EC45F040C090F041C091F0BE
:10B2660042C092F043C093F0000E236E000E246E8F
:10B27600000E256E400E266E60C013F061C014F0FD
:10B2860062C015F063C016F090C00FF091C010F0C8
:10B2960092C011F093C012F048EC50F00FC01FF0AE
:10B2A60010C020F011C021F012C022F0CEEC4BF0FD
:10B2B6001FC094F020C095F021C096F022C097F0F0
:10B2C6008CC00FF08DC010F08EC011F08FC012F040
:10B2D60094C013F095C014F096C015F097C016F000
:10B2E60048EC50F00FC08CF010C08DF011C08EF0FD
:10B2F60012C08FF00001984B992B68C040F069C0CE
:10B3060041F06AC042F06BC043F098C001F099C0AA
:10B3160002F0000E02BEFF0E036E046E010EDBECA1
:10B3260040F001C044F002C045F003C046F004C03E
:10B3360047F063EC3DF0D8B0A3EF59F0A5EF59F014
:10B34600C6EF57F080C013F081C014F082C015F02C
:10B3560083C016F084C00FF085C010F086C011F0CF
:10B3660087C012F048EC50F00FC07CF010C07DF0A2
:10B3760011C07EF012C07FF088C013F089C014F0AF
:10B386008AC015F08BC016F07CC00FF07DC010F09F
:10B396007EC011F07FC012F048EC50F00FC094F060
:10B3A60010C095F011C096F012C097F094C00FF03F
:10B3B60095C010F096C011F097C012F08CC013F033
:10B3C6008DC014F08EC015F08FC016F048EC50F00A
:10B3D6000FC078F010C079F011C07AF012C07BF07F
:10B3E60070C023F071C024F072C025F073C026F03F
:10B3F60078C01FF079C020F07AC021F07BC022F01F
:10B40600CEEC4BF01FC040F020C041F021C042F00E
:10B4160022C043F0000E446E000E456E400E466E8E
:10B42600400E476EF2EC45F040C074F041C075F036
:10B4360042C076F043C077F074C060F075C061F02A
:10B4460076C062F077C063F0120096C0A2F097C093
:10B45600A3F098C0A4F099C0A5F0A2C0B8F0A3C00C
:10B46600B9F0A4C0BAF0A5C0BBF0B8C09AF0B9C094
:10B476009BF0BAC09CF0BBC09DF0200E49EF5AF07D
:10B486000001D8909D339C339B339A33E82E43EFCB
:10B496005AF09AC0B2F09BC0B3F0BB9FDB0EB85D0A
:10B4A6000F0EB959490EBA593F0EBB59D8B05EEFC7
:10B4B6005AF060EF5AF089EF5AF0800EBA5D390EF5
:10B4C600BB59D8B069EF5AF06BEF5AF075EF5AF0E6
:10B4D600000E966F000E976F800E986F3F0E996F55
:10B4E600F2EF5CF096C038F097C039F098C03AF0A9
:10B4F60099C03BF0B5EC41F038C096F039C097F0F2
:10B506003AC098F03BC099F0F2EF5CF0D20EB85D0D
:10B51600530EB9597B0EBA59400EBB59D8B096EFA7
:10B526005AF098EF5AF061EF5BF0E40EB85DCB0E7F
:10B53600B959160EBA59400EBB59D8A0A5EF5AF004
:10B54600A7EF5AF004EF5BF0B251B311D8A4AEEFF7
:10B556005AF0B0EF5AF0CCEF5AF096C00FF097C001
:10B5660010F098C011F099C012F0DB0E136E0F0E9A
:10B57600146E490E156EC00E166E48EC50F00FC0D4
:10B58600A6F010C0A7F011C0A8F012C0A9F0E6EF0F
:10B596005AF096C00FF097C010F098C011F099C0FD
:10B5A60012F0DB0E136E0F0E146E490E156E400E62
:10B5B600166E48EC50F00FC0A6F010C0A7F011C0F0
:10B5C600A8F012C0A9F0A6C038F0A7C039F0A8C0EC
:10B5D6003AF0A9C03BF0B5EC41F038C054F039C0A0
:10B5E60055F03AC056F03BC057F045EC38F054C021
:10B5F60096F055C097F056C098F057C099F0F2EF04
:10B606005CF0B251B311D8B40BEF5BF00DEF5BF009
:10B616003BEF5BF096C00FF097C010F098C011F0AA
:10B6260099C012F0DB0E136E0F0E146EC90E156E56
:10B636003F0E166E48EC50F00FC0AEF010C0AFF0E3
:10B6460011C0B0F012C0B1F0AEC058F0AFC059F0A2
:10B65600B0C05AF0B1C05BF0BFEC43F058C096F0F2
:10B6660059C097F05AC098F05BC099F0F2EF5CF0C1
:10B67600DB0E386E0F0E396EC90E3A6E3F0E3B6EFC
:10B6860096C03CF097C03DF098C03EF099C03FF0A0
:10B69600BCEC38F038C058F039C059F03AC05AF00E
:10B6A6003BC05BF0BFEC43F058C096F059C097F032
:10B6B6005AC098F05BC099F0F2EF5CF0D60EB85D18
:10B6C600310EB959E20EBA59400EBB59D8B06EEFD9
:10B6D6005BF070EF5BF01DEF5CF0E00EB85DED0E19
:10B6E600B959AF0EBA59400EBB59D8A07DEF5BF0E1
:10B6F6007FEF5BF0D2EF5BF0B251B311D8A486EFC7
:10B706005BF088EF5BF0A4EF5BF096C00FF097C09C
:10B7160010F098C011F099C012F0DB0E136E0F0EE8
:10B72600146EC90E156EC00E166E48EC50F00FC0A2
:10B73600AAF010C0ABF011C0ACF012C0ADF0BEEF75
:10B746005BF096C00FF097C010F098C011F099C04A
:10B7560012F0DB0E136E0F0E146EC90E156E400E30
:10B76600166E48EC50F00FC0AAF010C0ABF011C036
:10B77600ACF012C0ADF0AAC038F0ABC039F0ACC026
:10B786003AF0ADC03BF0B5EC41F038C096F039C0A8
:10B7960097F03AC098F03BC099F0F2EF5CF0B251E6
:10B7A600B311D8B4D9EF5BF0DBEF5BF001EF5CF0DF
:10B7B600E40E386ECB0E396E960E3A6EC00E3B6EA8
:10B7C60096C03CF097C03DF098C03EF099C03FF05F
:10B7D600BCEC38F038C058F039C059F03AC05AF0CD
:10B7E6003BC05BF0BFEC43F058C096F059C097F0F1
:10B7F6005AC098F05BC099F0F2EF5CF096C00FF07B
:10B8060097C010F098C011F099C012F0E40E136EB4
:10B81600CB0E146E960E156EC00E166E48EC50F0DA
:10B826000FC0AEF010C0AFF011C0B0F012C0B1F052
:10B8360027EF5BF0800EBA5D7F0EBB59D8A026EFCE
:10B846005CF028EF5CF044EF5CF096C038F097C0EF
:10B8560039F098C03AF099C03BF096C03CF097C0DA
:10B866003DF098C03EF099C03FF0BCEC38F038C0CF
:10B8760096F039C097F03AC098F03BC099F0F2EFD5
:10B886005CF096C058F097C059F098C05AF099C02D
:10B896005BF0B40E5C6E000E5D6E09EC55F058C0A0
:10B8A6009EF059C09FF00001000E9FBFFF0EA06FD3
:10B8B600A16FC2EF5CF0B4C038F0B5C039F0B6C0C5
:10B8C6003AF0B7C03BF0B5EC41F038C096F039C05D
:10B8D60097F03AC098F03BC099F0F2EF5CF0B4C034
:10B8E60054F0B5C055F0B6C056F0B7C057F045ECA9
:10B8F60038F054C058F055C059F056C05AF057C0E9
:10B906005BF0BFEC43F058C096F059C097F05AC0B0
:10B9160098F05BC099F0F2EF5CF0B4C038F0B5C0B7
:10B9260039F0B6C03AF0B7C03BF0B5EC41F038C0DC
:10B9360054F039C055F03AC056F03BC057F045ECCC
:10B9460038F054C096F055C097F056C098F057C0DE
:10B9560099F0F2EF5CF0B4C058F0B5C059F0B6C03B
:10B966005AF0B7C05BF0BFEC43F058C096F059C030
:10B9760097F05AC098F05BC099F0F2EF5CF0030EB6
:10B986009E159A6F000E9F159B6F000EA0159C6F5B
:10B99600000EA1159D6F9D51000AD8B4EBEF5CF027
:10B9A600AEEF5CF09B51000AD8B4DCEF5CF0AEEF72
:10B9B6005CF09A51000AD8B45EEF5CF0010AD8B484
:10B9C60072EF5CF0030AD8B490EF5CF0AEEF5CF077
:10B9D6009C51000AD8B4D5EF5CF0AEEF5CF01200D3
:10B9E600BFEC37F0000E02011C6F000E1D6F100E2B
:10B9F6001E6F400E1F6F7B0E206F140E216F6E0E92
:10BA0600226F400E236FD70E246FA30E256F880E6C
:10BA1600266F400E276F000E286F000E296F0C0E42
:10BA26002A6F420E2B6F330E2C6F330E2D6FDB0EEB
:10BA36002E6F400E2F6F000E306F000E316F040E0A
:10BA4600326F420E336F9A0E346F990E356F090EB0
:10BA5600366F400E376FC30EA86FF50EA96F1C0E1A
:10BA6600AA6F410EAB6F000E386F000E396F2C0EA9
:10BA76003A6F420E3B6F000E3C6F000E3D6F000E9C
:10BA86003E6F3F0E3F6F000E406F000E416FA00EDF
:10BA9600426F410E436F000E446F000E456FC80E95
:10BAA600466F420E476F000E486F000E496F000E3C
:10BAB6004A6F000E4B6F000E4C6F000E4D6F000E5E
:10BAC6004E6F400E4F6F000E506F000E516F480EB6
:10BAD600526F430E536F1CC2C5F11DC2C6F11EC282
:10BAE600C7F11FC2C8F120C2C9F121C2CAF122C2E0
:10BAF600CBF123C2CCF1FFEC3BF0C5C100F2C6C1CD
:10BB060001F2C7C102F2C8C103F224C2BCF025C2C9
:10BB1600BDF026C2BEF027C2BFF028C2C0F029C2BF
:10BB2600C1F02AC2C2F02BC2C3F068EC3EF0BCC022
:10BB360004F2BDC005F2BEC006F2BFC007F22CC2B9
:10BB4600C5F12DC2C6F12EC2C7F12FC2C8F130C24F
:10BB5600C9F131C2CAF132C2CBF133C2CCF182ECA7
:10BB66003FF0C5C108F2C6C109F2C7C10AF2C8C191
:10BB76000BF234C2F1F035C2F2F036C2F3F037C23E
:10BB8600F4F0A8C2F5F0A9C2F6F0AAC2F7F0ABC26B
:10BB9600F8F038C2F9F039C2FAF03AC2FBF03BC20B
:10BBA600FCF022EC40F0F1C00CF2F2C00DF2F3C052
:10BBB6000EF2F4C00FF23CC2C5F13DC2C6F13EC260
:10BBC600C7F13FC2C8F140C2C9F141C2CAF142C27F
:10BBD600CBF143C2CCF1F5EC3EF0C5C110F2C6C1C3
:10BBE60011F2C7C112F2C8C113F244C24CF045C2E9
:10BBF6004DF046C24EF047C24FF03FEC3AF04CC013
:10BC060014F24DC015F24EC016F24FC017F248C2DC
:10BC160060F049C261F04AC262F04BC263F04CC2A6
:10BC260064F04DC265F04EC266F04FC267F050C276
:10BC360068F051C269F052C26AF053C26BF073ECFD
:10BC460057F060C018F261C019F262C01AF263C000
:10BC56001BF2510E0001CE6FFF0ECF6F00C2D0F067
:10BC660001C2D1F002C2D2F003C2D3F004C2D4F0B2
:10BC760005C2D5F006C2D6F007C2D7F008C2D8F082
:10BC860009C2D9F00AC2DAF00BC2DBF00CC2DCF052
:10BC96000DC2DDF00EC2DEF00FC2DFF010C2E0F022
:10BCA60011C2E1F012C2E2F013C2E3F014C2E4F0F2
:10BCB60015C2E5F016C2E6F017C2E7F018C2E8F0C2
:10BCC60019C2E9F01AC2EAF01BC2EBF017EC38F021
:10BCD600F60E0201706F280E716F840E726F400EA1
:10BCE600736F7B0E746F140E756F2E0E766F400E8B
:10BCF600776F000E786F000E796F8A0E7A6F410E9D
:10BD06007B6F000E7C6F000E7D6F700E7E6F410E96
:10BD16007F6FAE0E806F470E816FA10E826F3F0E52
:10BD2600836F000E846F000E856F980E866F410E2E
:10BD3600876F7B0E886F140E896F720E8A6F410EA5
:10BD46008B6F000E8C6F000E8D6FA80E8E6F410EDE
:10BD56008F6F000E906F000E916F400E926F3F0E28
:10BD6600936F000E946F000E956FC80E966F410E7E
:10BD7600976F000E986F000E996F480E9A6F420EDD
:10BD86009B6F000E9C6F000E9D6F800E9E6F3F0E88
:10BD96009F6FCD0EA06FCC0EA16F4C0EA26F400E02
:10BDA600A36F000EA46F000EA56F0C0EA66F430EB8
:10BDB600A76F70C2C5F171C2C6F172C2C7F173C274
:10BDC600C8F174C2C9F175C2CAF176C2CBF177C2A5
:10BDD600CCF1FFEC3BF0C5C154F2C6C155F2C7C168
:10BDE60056F2C8C157F278C2BCF079C2BDF07AC229
:10BDF600BEF07BC2BFF07CC2C0F07DC2C1F07EC285
:10BE0600C2F07FC2C3F068EC3EF0BCC058F2BDC0C1
:10BE160059F2BEC05AF2BFC05BF280C2C5F181C200
:10BE2600C6F182C2C7F183C2C8F184C2C9F185C214
:10BE3600CAF186C2CBF187C2CCF182EC3FF0C5C114
:10BE46005CF2C6C15DF2C7C15EF2C8C15FF288C2CC
:10BE5600F1F089C2F2F08AC2F3F08BC2F4F0A8C204
:10BE6600F5F0A9C2F6F0AAC2F7F0ABC2F8F08CC2A0
:10BE7600F9F08DC2FAF08EC2FBF08FC2FCF022EC14
:10BE860040F0F1C060F2F2C061F2F3C062F2F4C0B9
:10BE960063F290C2C5F191C2C6F192C2C7F193C2D4
:10BEA600C8F194C2C9F195C2CAF196C2CBF197C244
:10BEB600CCF1F5EC3EF0C5C164F2C6C165F2C7C16E
:10BEC60066F2C8C167F298C24CF099C24DF09AC2A8
:10BED6004EF09BC24FF03FEC3AF04CC068F24DC0BA
:10BEE60069F24EC06AF24FC06BF29CC260F09DC20E
:10BEF60061F09EC262F09FC263F0A0C264F0A1C26C
:10BF060065F0A2C266F0A3C267F0A4C268F0A5C23B
:10BF160069F0A6C26AF0A7C26BF073EC57F060C076
:10BF26006CF261C06DF262C06EF263C06FF29D0E7C
:10BF36000001CE6FFF0ECF6F54C2D0F055C2D1F0C4
:10BF460056C2D2F057C2D3F058C2D4F059C2D5F077
:10BF56005AC2D6F05BC2D7F05CC2D8F05DC2D9F047
:10BF66005EC2DAF05FC2DBF060C2DCF061C2DDF017
:10BF760062C2DEF063C2DFF064C2E0F065C2E1F0E7
:10BF860066C2E2F067C2E3F068C2E4F069C2E5F0B7
:10BF96006AC2E6F06BC2E7F06CC2E8F06DC2E9F087
:10BFA6006EC2EAF06FC2EBF017EC38F0D9EF5FF033
:10BFB600FEEF7FF059C064F05AC065F05BC066F0D2
:10BFC6005CC067F064C092F065C093F066C094F000
:10BFD60067C095F092C060F093C061F094C062F0C3
:10BFE60095C063F0200EFEEF5FF00001D89063333A
:10BFF600623361336033E82EF8EF5FF060C07CF0A7
:10C0060061C07DF062C07EF063C07FF0959F800EB8
:10C01600945D4C0E9559D8A013EF60F015EF60F0C3
:10C0260083EF60F059C001F05AC002F05BC003F024
:10C036005CC004F0E4EC3CF001500210D8A426EFFA
:10C0460060F028EF60F032EF60F059C059F05AC046
:10C056005AF05BC05BF05CC05CF01FEF64F07D0ED5
:10C06600F66EFE0EF76EF86A09006F00D4FF0FF049
:10C0760009006F00D4FF10F009006F00D4FF11F023
:10C086000A006F00D4FF12F0000E136E000E146E3D
:10C09600800E156E030E166E48EC50F00FC08EF033
:10C0A60010C08FF011C090F012C091F000017C51C9
:10C0B6007D117E117F11D8A463EF60F065EF60F00B
:10C0C6006FEF60F08EC059F08FC05AF090C05BF0F1
:10C0D60091C05CF01FEF64F08EC054F08FC055F035
:10C0E60090C056F091C057F045EC38F054C059F066
:10C0F60055C05AF056C05BF057C05CF01FEF64F0B5
:10C10600E00E945D3E0E9559D8B08CEF60F08EEF40
:10C1160060F09FEF60F0800E945D390E9559D8B0AF
:10C1260097EF60F099EF60F09BEF60F028EF60F01A
:10C136008C698D69E1EF61F059C001F05AC002F0D7
:10C146005BC003F05CC004F02BEC38F001C059F082
:10C1560002C05AF003C05BF004C05CF0980E000108
:10C16600945D3F0E9559D8B0BBEF60F0BDEF60F01F
:10C1760062EF61F0300E945D3F0E9559D8B0C6EF70
:10C1860060F0C8EF60F01EEF61F0000E8D6F000EDC
:10C196008C6F000E136E000E146E800E156EBF0EA1
:10C1A600166E000E236E000E246E000E256E400ED7
:10C1B600266E59C01FF05AC020F05BC021F05CC04B
:10C1C60022F0CEEC4BF01FC00FF020C010F021C0C3
:10C1D60011F022C012F048EC50F00FC040F010C031
:10C1E60041F011C042F012C043F0000E136E000E73
:10C1F600146E000E156E400E166E59C00FF05AC022
:10C2060010F05BC011F05CC012F048EC50F00FC0AB
:10C2160044F010C045F011C046F012C047F0F2ECF1
:10C2260045F040C059F041C05AF042C05BF043C0EF
:10C236005CF0E1EF61F0000E8D6F010E8C6F000E69
:10C24600136E000E146E800E156EBF0E166E59C05C
:10C256000FF05AC010F05BC011F05CC012F048EC51
:10C2660050F00FC040F010C041F011C042F012C0B3
:10C2760043F0000E136E000E146E800E156E3F0E08
:10C28600166E59C00FF05AC010F05BC011F05CC0BA
:10C2960012F048EC50F00FC044F010C045F011C049
:10C2A60046F012C047F0F2EC45F040C059F041C0EC
:10C2B6005AF042C05BF043C05CF0E1EF61F01C0E47
:10C2C600945D400E9559D8B06BEF61F06DEF61F05B
:10C2D600C3EF61F0000E8D6F020E8C6F000E136EB1
:10C2E600000E146EC00E156EBF0E166E59C00FF0FE
:10C2F6005AC010F05BC011F05CC012F048EC50F070
:10C306000FC040F010C041F011C042F012C043F01F
:10C31600000E136E000E146E800E156E3F0E166E16
:10C32600000E236E000E246EC00E256E3F0E266E86
:10C3360059C01FF05AC020F05BC021F05CC022F04B
:10C34600CEEC4BF01FC00FF020C010F021C011F052
:10C3560022C012F048EC50F00FC044F010C045F077
:10C3660011C046F012C047F0F2EC45F040C059F05B
:10C3760041C05AF042C05BF043C05CF0E1EF61F0AF
:10C38600000E8D6F030E8C6F000E406E000E416E18
:10C39600800E426EBF0E436E59C044F05AC045F03F
:10C3A6005BC046F05CC047F0F2EC45F040C059F087
:10C3B60041C05AF042C05BF043C05CF059C01FF068
:10C3C6005AC020F05BC021F05CC022F059C023F0B7
:10C3D6005AC024F05BC025F05CC026F0CEEC4BF0D2
:10C3E6001FC08EF020C08FF021C090F022C091F0C7
:10C3F6008EC01FF08FC020F090C021F091C022F0B7
:10C406008EC023F08FC024F090C025F091C026F096
:10C41600CEEC4BF01FC088F020C089F021C08AF016
:10C4260022C08BF0550EF66EFE0EF76EF86A090006
:10C436006F00D4FF13F009006F00D4FF14F0090059
:10C446006F00D4FF15F00A006F00D4FF16F088C005
:10C4560023F089C024F08AC025F08BC026F05D0E3B
:10C46600F66EFE0EF76EF86A09006F00D4FF1FF035
:10C4760009006F00D4FF20F009006F00D4FF21F0FF
:10C486000A006F00D4FF22F0CEEC4BF01FC00FF075
:10C4960020C010F021C011F022C012F048EC50F07C
:10C4A6000FC080F010C081F011C082F012C083F07E
:10C4B6004D0EF66EFE0EF76E000EF86E09006F005A
:10C4C600D4FF13F009006F00D4FF14F009006F00C9
:10C4D600D4FF15F00A006F00D4FF16F088C023F0D1
:10C4E60089C024F08AC025F08BC026F080C01FF0DA
:10C4F60081C020F082C021F083C022F0CEEC4BF048
:10C506001FC00FF020C010F021C011F022C012F0A1
:10C5160048EC50F00FC068F010C069F011C06AF026
:10C5260012C06BF068C01FF069C020F06AC021F02D
:10C536006BC022F08EC023F08FC024F090C025F08F
:10C5460091C026F0CEEC4BF01FC074F020C075F001
:10C5560021C076F022C077F0510EF66EFE0EF76E11
:10C56600F86A09006F00D4FF13F009006F00D4FFCA
:10C5760014F009006F00D4FF15F00A006F00D4FF15
:10C5860016F088C023F089C024F08AC025F08BC03D
:10C5960026F0590EF66EFE0EF76EF86A09006F0069
:10C5A600D4FF1FF009006F00D4FF20F009006F00D0
:10C5B600D4FF21F00A006F00D4FF22F0CEEC4BF03E
:10C5C6001FC00FF020C010F021C011F022C012F0E1
:10C5D60048EC50F00FC080F010C081F011C082F01E
:10C5E60012C083F080C01FF081C020F082C021F00D
:10C5F60083C022F088C023F089C024F08AC025F0C9
:10C606008BC026F0CEEC4BF01FC078F020C079F03E
:10C6160021C07AF022C07BF000018DBF17EF63F0D6
:10C6260015EF63F05FEF63F059C023F05AC024F0B2
:10C636005BC025F05CC026F078C013F079C014F01A
:10C646007AC015F07BC016F074C00FF075C010F0FC
:10C6560076C011F077C012F048EC50F00FC01FF012
:10C6660010C020F011C021F012C022F0CEEC4BF029
:10C676001FC084F020C085F021C086F022C087F05C
:10C6860059C038F05AC039F05BC03AF05CC03BF094
:10C6960084C03CF085C03DF086C03EF087C03FF0C8
:10C6A600BCEC38F038C059F039C05AF03AC05BF0EB
:10C6B6003BC05CF01FEF64F059C023F05AC024F071
:10C6C6005BC025F05CC026F078C013F079C014F08A
:10C6D6007AC015F07BC016F074C00FF075C010F06C
:10C6E60076C011F077C012F048EC50F00FC01FF082
:10C6F60010C020F011C021F012C022F0CEEC4BF099
:10C706001FC084F020C085F021C086F022C087F0CB
:10C716008CC060F08DC061F00001D8906037613741
:10C72600D89060376137610E6025F66EFE0E612186
:10C73600F76EF86A000EF82209006F00D4FF3CF08D
:10C7460009006F00D4FF3DF009006F00D4FF3EF0F2
:10C756000A006F00D4FF3FF084C038F085C039F07E
:10C7660086C03AF087C03BF0BCEC38F038C06CF0BD
:10C7760039C06DF03AC06EF03BC06FF059C03CF066
:10C786005AC03DF05BC03EF05CC03FF06CC038F074
:10C796006DC039F06EC03AF06FC03BF0BCEC38F0BB
:10C7A60038C070F039C071F03AC072F03BC073F017
:10C7B6008CC060F08DC061F00001D89060376137A1
:10C7C600D89060376137710E6025F66EFE0E6121D6
:10C7D600F76EF86A000EF82209006F00D4FF38F0F1
:10C7E60009006F00D4FF39F009006F00D4FF3AF05A
:10C7F6000A006F00D4FF3BF070C03CF071C03DF002
:10C8060072C03EF073C03FF0BCEC38F038C08EF01A
:10C8160039C08FF03AC090F03BC091F000017C51D6
:10C826007D117E117F11D8A41BEF64F01DEF64F01B
:10C836006FEF60F065EF60F01200000E0001976F79
:10C84600000E966F72C0A8F073C0A9F074C0AAF06B
:10C8560075C0ABF0ABBF34EF64F032EF64F04AEF73
:10C8660064F0000E976F010E966FA8C054F0A9C031
:10C8760055F0AAC056F0ABC057F045EC38F054C09E
:10C88600A8F055C0A9F056C0AAF057C0ABF0000EEC
:10C896000001AF6F000EAE6FF5C19AF0F6C19BF0C6
:10C8A60096519711D8A45AEF64F05CEF64F063EFE9
:10C8B60064F0FDA561EF64F063EF64F07DEF64F072
:10C8C60096519711D8A46AEF64F06CEF64F072EF9A
:10C8D60064F0000E7D6F2B0E7C6F76EF64F0000E19
:10C8E6007D6F2D0E7C6F7CC0ACF2AE4BAF2B9A07E2
:10C8F600D8A09B07A8C001F0A9C002F0AAC003F007
:10C90600ABC004F0E4EC3CF001040210D8A48EEFB6
:10C9160064F090EF64F0E7EF64F0BF0E0001776F0C
:10C92600FF0E786F7651796F7A6B77517927785148
:10C936007A237A510AE11A0E795DD8A0A5EF64F040
:10C94600A8EF64F0010EA9EF64F0000E7E6F7F6B16
:10C956007E517F11D8B4B2EF64F0B4EF64F0C2EF49
:10C9660064F0AC0EAE25016E020EAF21026EE80E2B
:10C97600036EFF0E046E3DEC39F0CEEF64F0AC0EA4
:10C98600AE25016E020EAF21026EF00E036EFF0E93
:10C99600046E3DEC39F00001FD0E9A27FF0E9B2335
:10C9A60070C013F071C014F0AC0E156E020E166E48
:10C9B6009AC017F09BC018F09CEC3BF013C070F0C7
:10C9C60014C071F078EF6AF0A8C001F0A9C002F0B7
:10C9D600AAC003F0ABC004F0E4EC3CF00150021036
:10C9E600D8A4F8EF64F0FAEF64F051EF65F0BF0EEB
:10C9F6000001776FFF0E786F7651796F7A6B7751FA
:10CA0600792778517A237A510AE11A0E795DD8A0EE
:10CA16000FEF65F012EF65F0010E13EF65F0000EF3
