:020000040000FA
:04000000FEEF7FF0A0
:10100000000A0D0A0D20546865206E756D626572C8
:101010007320646976697369626C65206279203334
:1010200020616E642037206172653A200A0D002528
:1010300064200A0D000020C038F021C039F022C021
:101040003AF023C03BF024C03CF025C03DF026C060
:101050003EF027C03FF03FBE30EF08F033EF08F01E
:10106000010E34EF08F0000E366E376A3650371036
:10107000D8B43DEF08F03FEF08F04FEF08F03F1E07
:101080003E1E3D1E3C1E3B1E3A1E391E386C000E95
:1010900039223A223B223C223D223E223F220001BD
:1010A00065BF55EF08F057EF08F058EF08F066936A
:1010B00065BF65EF08F0655106E16405D8B063EFE0
:1010C00008F065EF08F06BEF08F0000E336E010ECC
:1010D000326E6FEF08F064C032F065C033F062C06A
:1010E00034F063C035F036503710D8A47AEF08F0EA
:1010F0007CEF08F083EF08F066A581EF08F083EF3E
:1011000008F086EF08F03406D8A03506000E416ED0
:101110001F0E406E000E886F0AEF09F04006D8A03F
:101120004106690E4024D96E000E4120DA6E38C0A7
:1011300001F039C002F03AC003F03BC004F03CC0FB
:1011400005F03DC006F03EC007F03FC008F00A0EB3
:10115000096E000E0A6E000E0B6E000E0C6E000E75
:101160000D6E000E0E6E000E0F6E000E106E56EC21
:101170000BF001C028F002C029F003C02AF004C01F
:101180002BF005C02CF006C02DF007C02EF008C0D3
:101190002FF028C013F02AC014F02DEC0EF01350DD
:1011A000300FDF6E3206D8A033063406D8A03506DD
:1011B00038C001F039C002F03AC003F03BC004F07F
:1011C0003CC005F03DC006F03EC007F03FC008F04F
:1011D0000A0E096E000E0A6E000E0B6E000E0C6EEB
:1011E000000E0D6E000E0E6E000E0F6E000E106ED5
:1011F00092EC0AF001C038F002C039F003C03AF0B6
:1012000004C03BF005C03CF006C03DF007C03EF016
:1012100008C03FF041BE15EF09F0415008E140041D
:10122000D8A015EF09F017EF09F048EF09F0385092
:1012300039103A103B103C103D103E103F10D8A41E
:1012400024EF09F026EF09F08EEF08F033BE33EFFC
:1012500009F0335006E13204D8B031EF09F033EF32
:1012600009F08EEF08F035BE3EEF09F0355008E189
:101270003404D8A03EEF09F040EF09F048EF09F040
:10128000000166B346EF09F048EF09F08EEF08F071
:1012900036503710D8A44FEF09F051EF09F059EF4D
:1012A00009F0000166A557EF09F059EF09F078EF52
:1012B00009F04006D8A0410636503710D8A463EF95
:1012C00009F065EF09F06BEF09F0000E316E2B0E9F
:1012D000306E6FEF09F0000E316E2D0E306E690E1C
:1012E0004024D96E000E4120DA6E6000C3F0DFFFAB
:1012F0001EC013F01FC014F0690E4024156E000EBE
:101300004120166E34C017F035C018F008EC0CF010
:1013100013C01EF014C01FF01200600013F1D9FFBB
:10132000600017F1DAFF6F007BFFF6FF6F0077FFB9
:10133000F7FFF86A0800F550250AD8A4A2EF09F0D3
:10134000A4EF09F06FEF0AF0600013F1D9FF60001D
:1013500017F1DAFFDE2A000EDD22000E0001636FB6
:10136000000E626F62C066F063C067F06469656911
:10137000600013F1D9FF600017F1DAFF6F007BFF07
:10138000F6FF6F0077FFF7FFF86A0800F550640A70
:10139000D8B4CDEF09F0CFEF09F0E6EF09F0600027
:1013A00013F1D9FF600017F1DAFF6F007BFFF6FF42
:1013B0006F0077FFF7FFF86A0800F550690AD8A4B4
:1013C000E4EF09F0E6EF09F030EF0AF0600013F106
:1013D000D9FF600017F1DAFFDE2A000EDD2260007F
:1013E0001BF1D9FF60001FF1DAFF6F007CFF48F0AE
:1013F000020EDE266F007CFF49F0000EDD22600049
:1014000023F1D9FF600027F1DAFF6F0078FF4AF07F
:101410006F0074FF4BF0000E4BBEFF0E4C6E4D6E16
:101420004E6E4F6E506E516E42C01EF043C01FF0A4
:101430004AC020F04BC021F04CC022F04DC023F038
:101440004EC024F04FC025F050C026F051C027F008
:101450001BEC08F01EC042F01FC043F091EF0AF0F1
:10146000600013F1D9FF600017F1DAFF6F007BFF16
:10147000F6FF6F0077FFF7FFF86A0800F550250ABE
:10148000D8A445EF0AF047EF0AF060EF0AF06000D9
:1014900013F1D9FF600017F1DAFFDE2A000EDD221A
:1014A000000E046E250E036E42C005F043C006F028
:1014B00013EC0DF0000E436E010E426E91EF0AF038
:1014C000600013F1D9FF600017F1DAFFDE2A000E89
:1014D000DD22000E436E000E426E91EF0AF06000B6
:1014E00013F1D9FF600017F1DAFF6F007BFFF6FF01
:1014F0006F0077FFF7FFF86A0800F550036E046A83
:1015000042C005F043C006F013EC0DF0600013F18B
:10151000D9FF600017F1DAFFDE2A000EDD225AEF54
:101520000AF01200000E126E10BE9BEF0AF099EF47
:101530000AF0ADEF0AF0101E0F1E0E1E0D1E0C1E3F
:101540000B1E0A1E096C000E0A220B220C220D2211
:101550000E220F221022010E126E08BEB4EF0AF006
:10156000B2EF0AF0C6EF0AF0081E071E061E051E9F
:10157000041E031E021E016C000E0222032204221E
:101580000522062207220822010E121A20EE13F06D
:10159000070EDE6AE806FDE209500A100B100C1077
:1015A0000D100E100F101010D8B4D9EF0AF0DBEFA9
:1015B0000AF02DEF0BF0010E116EE9EF0AF0D89052
:1015C00009360A360B360C360D360E360F36103607
:1015D000112A10AEEEEF0AF0F0EF0AF0DFEF0AF09A
:1015E000D89013361436153616361736183619367F
:1015F0001A360950015C0A5002580B5003580C501F
:1016000004580D5005580E5006580F5007581050EA
:101610000858D8A00EEF0BF010EF0BF021EF0BF0F5
:101620000950015E0A50025A0B50035A0C50045ADA
:101630000D50055A0E50065A0F50075A1050085AAE
:101640001380D89010320F320E320D320C320B3222
:101650000A320932112EF0EF0AF01250D8B433EFEB
:101660000BF035EF0BF045EF0BF01A1E191E181E8C
:10167000171E161E151E141E136C000E14221522A2
:1016800016221722182219221A2213C001F014C0A0
:1016900002F015C003F016C004F017C005F018C022
:1016A00006F019C007F01AC008F01200000E126E02
:1016B00008BE5FEF0BF05DEF0BF071EF0BF0081E53
:1016C000071E061E051E041E031E021E016C000ED0
:1016D0000222032204220522062207220822010EEA
:1016E000126E10BE78EF0BF076EF0BF088EF0BF078
:1016F000101E0F1E0E1E0D1E0C1E0B1E0A1E096C48
:10170000000E0A220B220C220D220E220F22102282
:1017100009500A100B100C100D100E100F101010A5
:10172000D8B495EF0BF097EF0BF0DFEF0BF0010E55
:10173000116EA5EF0BF0D89009360A360B360C3631
:101740000D360E360F361036112A10AEAAEF0BF0FA
:10175000ACEF0BF09BEF0BF00950015C0A50025804
:101760000B5003580C5004580D5005580E50065895
:101770000F50075810500858D8A0C1EF0BF0C3EF16
:101780000BF0D3EF0BF00950015E0A50025A0B50D8
:10179000035A0C50045A0D50055A0E50065A0F5059
:1017A000075A1050085AD89010320F320E320D32AC
:1017B0000C320B320A320932112EACEF0BF0125000
:1017C000D8B4E5EF0BF0E7EF0BF0F7EF0BF0081EE6
:1017D000071E061E051E041E031E021E016C000EBF
:1017E000022203220422052206220722082201C027
:1017F00001F002C002F003C003F004C004F005C011
:1018000005F006C006F007C007F008C008F0120097
:10181000000166A10EEF0CF010EF0CF01AEF0CF0C7
:1018200015C00CF016C00DF013C00EF014C00FF070
:101830000BEC0EF018BE1FEF0CF021EF0CF027EFB1
:101840000CF017C01CF018C01DF02BEF0CF0000EB0
:101850001D6E000E1C6E000E1B6E000E1A6E3DEF0C
:101860000CF0000E046E200E036E13C005F014C0C1
:1018700006F013EC0DF01A4A1B2A1C501A5C1B5080
:10188000800A196E1D50800A1958D8A04AEF0CF032
:101890004CEF0CF031EF0CF0000166B152EF0CF0A0
:1018A00054EF0CF05EEF0CF015C00CF016C00DF00C
:1018B00013C00EF014C00FF00BEC0EF015C001F0C9
:1018C00016C002F04DEC0EF01C500124136E1D509A
:1018D0000220146E1200000E066E02BE74EF0CF0B1
:1018E00072EF0CF07AEF0CF0016C021ED8B0022AF5
:1018F000010E066E04BE81EF0CF07FEF0CF085EF59
:101900000CF0036C041ED8B0042A03500410D8B4A1
:101910008CEF0CF08EEF0CF0B2EF0CF0010E056EB8
:1019200096EF0CF0D89003360436052A04AE9BEFF0
:101930000CF09DEF0CF092EF0CF00350015C0450A2
:101940000258D8A0A6EF0CF0A8EF0CF0ACEF0CF00A
:101950000350015E0450025AD89004320332052E1F
:101960009DEF0CF00650D8B4B8EF0CF0BAEF0CF0C5
:10197000BEEF0CF0016C021ED8B0022A01C001F0CB
:1019800002C002F01200B2EC0EF0010E5A6E100E00
:101990005B6E6AEC0EF0000E5F6E010E5E6E5EC056
:1019A00001F05FC002F0000E046E030E036E6BECDC
:1019B0000CF001500210D8B4E0EF0CF0E2EF0CF0A4
:1019C000F5EF0CF05EC001F05FC002F0000E046E97
:1019D000070E036E6BEC0CF001500210D8A4F3EF6D
:1019E0000CF0F5EF0CF0FFEF0CF02F0E5A6E100E0E
:1019F0005B6E5EC05CF05FC05DF06AEC0EF05E4A4C
:101A00005F2A5FBE0DEF0DF0E90E5E5C030E5F58BE
:101A1000D8A00DEF0DF00FEF0DF0CFEF0CF00FEFA2
:101A20000DF0FEEF7FF005500610D8B41AEF0DF060
:101A30001CEF0DF025EF0DF005500610D8A423EF94
:101A40000DF025EF0DF02AEF0DF00350BBEC0EF07A
:101A50005DEF0DF020EE04F00550D9260650DA2295
:101A6000DE50DE10D8B437EF0DF039EF0DF054EF43
:101A70000DF020EE04F00550D9260650DA2210EEC3
:101A800002F00550E1260650E222DE50E65CE65008
:101A9000800A0B6EDE50800A0B58D8B052EF0DF062
:101AA00054EF0DF05DEF0DF020EE02F00550D92659
:101AB0000650DA22DE2A000EDD221200000EBE6E73
:101AC000000EBD6E000EBA6E000EBB6E000EBC6E38
:101AD000070EC66EC268BF0EC36EC468C5683A0101
:101AE000706960697F0E506F070E806F4069000E4D
:101AF000716F000E816F000E516F000E416F000E6E
:101B0000616F000E5A6F000E5B6F000E6A6F000E61
:101B10006B6F000E7A6F000E7B6F000E826F000EEF
:101B2000426F000E526F000E626F000E726F4369BB
:101B3000536963697369070E836F44695469646903
:101B400074690F0E846F0F0EE86F160E0E6F120081
:101B500054C058F055C059F0000E0001616F000EDE
:101B6000606FC6EF0DF052C042F053C043F0580E04
:101B7000446E000E456E56C046F057C047F08DECDF
:101B800009F042500001602743506123600063F177
:101B9000F6FF600067F1F7FFF86A0800F5500009EA
:101BA000D8A4D5EF0DF0D7EF0DF0B3EF0DF060C076
:101BB00052F061C053F01200000E3D01D46F000ED0
:101BC000D66F000ED86FB00EDA6F800EDB6F000E8E
:101BD000DC6F190EDD6F000EDE6F000EDF6F000E82
:101BE000E06F000EE16F000EE26F000E016E000E5E
:101BF000026EC5EC0EF0000E016E000E026EC0EC1F
:101C00000EF0000E016E000E026ECAEC0EF0000E19
:101C10000001686F1200000E126E000E116E1CEFB4
:101C20000EF010C003F0046A0EC005F00FC006F0FD
:101C300013EC0DF0114A122A11500C24D96E1250D7
:101C40000D20DA6EDF50106E1050D8A42AEF0EF07F
:101C50002CEF0EF011EF0EF0120014BE3AEF0EF062
:101C6000145006E11304D8B038EF0EF03AEF0EF03E
:101C700048EF0EF013C015F014C016F0151E161E16
:101C8000154A162A15C013F016C014F04CEF0EF0CA
:101C900013C013F014C014F0120001C003F002C00E
:101CA00004F055EF0EF0014A022A600007F0D9FF58
:101CB00060000BF0DAFFDF50D8A461EF0EF063EFA5
:101CC0000EF053EF0EF00350015C016E0450025809
:101CD000026E12005C0E0001916F000E926F000EFA
:101CE000526E000E536E5AC054F05BC055F0910E08
:101CF000566E000E576EA8EC0DF01200000E390162
:101D0000C06F000EC16F000EC26F000EC36F000ED9
:101D1000C46F000EC56F000EC66F000EC76F1200B5
:101D2000016E3901A6A797EF0EF099EF0EF091EF33
:101D30000EF0600007F0D2FD1200620E3901D96F7B
:101D4000000EDB6F000EDD6F020EDF6F000EDE6F28
:101D5000120000EE60F0290EEE6AE806FDE10001D7
:101D6000C3EF0CF07EEC0EF05EEC0DF09DEC0EF08F
:101D7000DCEC0DF01200026E025090EC0EF012003E
:101D800001C08BF002C08CF0120001C08DF002C0C7
:0E1D90008EF0120001C089F002C08AF012002D
:04FFFC00A9EF0EF06B
:020000040020DA
:10000000FF0FFF0FFF0FFF0FFF0FFF0FFF0FFF0F80
:020000040030CA
:0A000000ECFEF7FF9FFFFFFFFFFF7C
:00000001FF
