:020000040000FA
:04000000FEEF7FF0A0
:10100000000A20546865206172656120756E646510
:1010100072207468652066756E6374696F6E2075E2
:1010200073696E672053696D70736F6E27732052FA
:10103000756C652069733A202566000A2073756D0A
:1010400020312069733A202566200A2073756D329D
:101050002069733A20256620000A2064656C74615B
:10106000782069733A202566200A000A205831202A
:1010700069733A202566000A20586E2069733A2069
:10108000256600494E46004E414E00696E66006E70
:07109000616E006C660000B8
:10109800000E0001976F000E966F72C0A8F073C023
:1010A800A9F074C0AAF075C0ABF0ABBF60EF08F050
:1010B8005EEF08F076EF08F0000E976F010E966F5E
:1010C800A8C001F0A9C002F0AAC003F0ABC004F0A8
:1010D80074EC20F001C0A8F002C0A9F003C0AAF087
:1010E80004C0ABF0000E0001AF6F000EAE6FE9C098
:1010F8009AF0EAC09BF096519711D8A486EF08F0B1
:1011080088EF08F08FEF08F0EDA58DEF08F08FEF6E
:1011180008F0A9EF08F096519711D8A496EF08F0B7
:1011280098EF08F09EEF08F0000E7D6F2B0E7C6F95
:10113800A2EF08F0000E7D6F2D0E7C6F7CC000F1D1
:10114800AE4BAF2B9A07D8A09B07A8C001F0A9C047
:1011580002F0AAC003F0ABC004F02FEC1CF00104AD
:101168000210D8A4BAEF08F0BCEF08F013EF09F0AA
:10117800BF0E0001776FFF0E786F7651796F7A6B2B
:101188007751792778517A237A510AE11A0E795DD5
:10119800D8A0D1EF08F0D4EF08F0010ED5EF08F091
:1011A800000E7E6F7F6B7E517F11D8B4DEEF08F0A2
:1011B800E0EF08F0EEEF08F0000EAE25016E010E2C
:1011C800AF21026E830E036E100E046E2FEC1FF01B
:1011D800FAEF08F0000EAE25016E010EAF21026E87
:1011E8008B0E036E100E046E2FEC1FF00001FD0E27
:1011F8009A27FF0E9B2370C013F071C014F0000EE5
:10120800156E010E166E9AC017F09BC018F028ECE8
:101218001DF013C070F014C071F0A0EF0EF0A8C05C
:1012280001F0A9C002F0AAC003F0ABC004F02FEC93
:101238001CF001500210D8A424EF09F026EF09F0A1
:101248007DEF09F0BF0E0001776FFF0E786F7651C2
:10125800796F7A6B7751792778517A237A510AE135
:101268001A0E795DD8A03BEF09F03EEF09F0010EA8
:101278003FEF09F0000E806F816B80518111D8B467
:1012880048EF09F04AEF09F058EF09F0000EAE25D3
:10129800016E010EAF21026E870E036E100E046EF2
:1012A8002FEC1FF064EF09F0000EAE25016E010E61
:1012B800AF21026E8F0E036E100E046E2FEC1FF01E
:1012C8000001FD0E9A27FF0E9B2370C013F071C01A
:1012D80014F0000E156E010E166E9AC017F09BC022
:1012E80018F028EC1DF013C070F014C071F0A0EFD6
:1012F8000EF0000E0001B06F000EB16F800EB26FDD
:101308003F0EB36F000EAD6F000EAC6FA8C001F0BA
:10131800A9C002F0AAC003F0ABC004F0000E056E2D
:10132800000E066E000E076E000E086E45EC1EF0ED
:10133800D8B0A1EF09F0A3EF09F026EF0AF0C2EF49
:1013480009F0B0C00FF0B1C010F0B2C011F0B3C0D6
:1013580012F0000E136E000E146E200E156E410E64
:10136800166E37EC13F00FC0B0F010C0B1F011C01A
:10137800B2F012C0B3F00001AC4BAD2BA8C028F0FE
:10138800A9C029F0AAC02AF0ABC02BF0000E136E3A
:10139800000E146E200E156E410E166EB0C00FF0C2
:1013A800B1C010F0B2C011F0B3C012F037EC13F0B6
:1013B8000FC02CF010C02DF011C02EF012C02FF06D
:1013C800ADEC1BF0D8B0EBEF09F0EDEF09F0A5EFAD
:1013D80009F00DEF0AF0B0C040F0B1C041F0B2C062
:1013E80042F0B3C043F0000E446E000E456E200E6E
:1013F800466E410E476E78EC17F040C0B0F041C021
:10140800B1F042C0B2F043C0B3F00001AC07D8A0BD
:10141800AD07A8C028F0A9C029F0AAC02AF0ABC01F
:101428002BF0B0C02CF0B1C02DF0B2C02EF0B3C07C
:101438002FF0ADEC1BF0D8A024EF0AF026EF0AF04D
:10144800EFEF09F076C007F0086A98EC1FF0075034
:1014580000019D6F9DC09CF0670E9D19D8A437EFC1
:101468000AF039EF0AF05FEF0AF0EB51EC11D8A45B
:1014780040EF0AF042EF0AF046EF0AF0000EEC6F78
:10148800010EEB6FECBF53EF0AF0EC5106E1EB05F0
:10149800D8B051EF0AF053EF0AF059EF0AF0000EF6
:1014A800996F060E986F68EF0AF0EBC098F0ECC0E1
:1014B80099F068EF0AF0ECBF64EF0AF066EF0AF003
:1014C80053EF0AF059EF0AF0670E9D19D8A46FEF91
:1014D8000AF071EF0AF0A0EF0AF0ADAF7FEF0AF063
:1014E800FC0EAC5DFF0EAD59D8A07DEF0AF07FEF82
:1014F8000AF09EEF0AF0FF0E776FFF0E786F98C024
:1015080079F099C07AF07751792778517A23AC51DC
:10151800795D7A51800A7B6FAD51800A7B59D8A0DA
:1015280098EF0AF09AEF0AF09EEF0AF0660E9C6FA9
:10153800A0EF0AF0650E9C6F98C08EF099C08FF0EE
:10154800670E9D19D8A4ABEF0AF0ADEF0AF0BDEF16
:101558000AF0660E9C19D8A4B4EF0AF0B6EF0AF0A8
:10156800BFEF0AF0ADBFBDEF0AF0BBEF0AF0BFEF67
:101578000AF08E4B8F2B660E9C19D8A4C6EF0AF082
:10158800C8EF0AF0E8EF0AF0ADBFCFEF0AF0CDEFF1
:101598000AF0DBEF0AF0000EB06F000EB16F800E9C
:1015A800B26F3F0EB36F000EAD6F000EAC6F670EDB
:1015B8009D19D8B4E2EF0AF0E4EF0AF0E8EF0AF078
:1015C800AC518E27AD518F23000EA76F000EA66F6A
:1015D800A8C09EF0A9C09FF0AAC0A0F0ABC0A1F01F
:1015E800B0C090F0B1C091F0B2C092F0B3C093F027
:1015F80079EF0BF09EC040F09FC041F0A0C042F0D0
:10160800A1C043F0B0C044F0B1C045F0B2C046F04C
:10161800B3C047F078EC17F040C059F041C05AF019
:1016280042C05BF043C05CF045EC19F059C0A2F031
:101638005AC0A3F05BC0A4F05CC0A5F0A2C001F042
:10164800A3C002F0A4C003F0A5C004F02AEC1BF06C
:1016580001C094F002C095F09EC038F09FC039F0E8
:10166800A0C03AF0A1C03BF0B0C013F0B1C014F074
:10167800B2C015F0B3C016F0A2C00FF0A3C010F0AE
:10168800A4C011F0A5C012F037EC13F00FC03CF065
:1016980010C03DF011C03EF012C03FF0F6EC1FF054
:1016A80038C09EF039C09FF03AC0A0F03BC0A1F00E
:1016B800B0C040F0B1C041F0B2C042F0B3C043F096
:1016C800000E446E000E456E200E466E410E476EAB
:1016D80078EC17F040C0B0F041C0B1F042C0B2F0B1
:1016E80043C0B3F00001A64BA72B8E51A65DA751AE
:1016F800800A776F8F51800A7759D8A086EF0BF050
:1017080088EF0BF0FEEF0AF0B0C00FF0B1C010F098
:10171800B2C011F0B3C012F0000E136E000E146EBA
:10172800A00E156E400E166E37EC13F00FC0A2F027
:1017380010C0A3F011C0A4F012C0A5F09EC028F0FC
:101748009FC029F0A0C02AF0A1C02BF0A2C02CF0A5
:10175800A3C02DF0A4C02EF0A5C02FF0ADEC1BF057
:10176800D8B0B9EF0BF0BBEF0BF0C6EF0BF0000EE3
:101778000001A26F000EA36F000EA46F000EA56FEC
:10178800EFEF0BF09EC001F09FC002F0A0C003F085
:10179800A1C004F0A2C005F0A3C006F0A4C007F0E1
:1017A800A5C008F045EC1EF0D8A0DDEF0BF0DFEF88
:1017B8000BF0EFEF0BF0000194B1E5EF0BF0E7EF62
:1017C8000BF0EFEF0BF0000EA26F000EA36F000EF0
:1017D800A46F000EA56FA8C028F0A9C029F0AAC060
:1017E8002AF0ABC02BF0A2C02CF0A3C02DF0A4C0EF
:1017F8002EF0A5C02FF0A1EC0EF028C09EF029C055
:101808009FF02AC0A0F02BC0A1F09EC028F09FC076
:1018180029F0A0C02AF0A1C02BF0000E136E000E14
:10182800146E200E156E410E166E90C00FF091C00A
:1018380010F092C011F093C012F037EC13F00FC003
:101848002CF010C02DF011C02EF012C02FF0ADEC0E
:101858001BF0D8A032EF0CF034EF0CF05DEF0CF079
:101868000001AC4BAD2B90C00FF091C010F092C0AE
:1018780011F093C012F0000E136E000E146E200EBD
:10188800156E410E166E37EC13F00FC090F010C0B5
:1018980091F011C092F012C093F0660E00019C19ED
:1018A800D8A459EF0CF05BEF0CF05DEF0CF08E4B09
:1018B8008F2B90C0B0F091C0B1F092C0B2F093C03D
:1018C800B3F0650E00019C19D8B46DEF0CF06FEF02
:1018D8000CF075EF0CF0ACC08CF0ADC08DF079EF6A
:1018E8000CF0000E8D6F000E8C6F000E8B6F000ECB
:1018F8008A6F000E896F000E886F000EA76F000EAA
:10190800A66F74EF0DF09EC040F09FC041F0A0C0DC
:1019180042F0A1C043F0B0C044F0B1C045F0B2C03D
:1019280046F0B3C047F078EC17F040C059F041C01A
:101938005AF042C05BF043C05CF045EC19F059C066
:10194800A2F05AC0A3F05BC0A4F05CC0A5F0A2C08E
:1019580001F0A3C002F0A4C003F0A5C004F02AEC73
:101968001BF001C094F002C095F00001EDB9BFEF83
:101978000CF0C1EF0CF0DEEF0CF094519511D8A4E7
:10198800C8EF0CF0CAEF0CF0DEEF0CF0670E9D19F3
:10199800D8A4D1EF0CF0D3EF0CF0DEEF0CF08DBF34
:1019A800DAEF0CF0D8EF0CF0DEEF0CF0884B892B57
:1019B80028EF0DF08A518B11D8A4E5EF0CF0E7EF72
:1019C8000CF011EF0DF08DBFEEEF0CF0ECEF0CF01A
:1019D80011EF0DF0000EAE25D96E010EAF21DA6EB3
:1019E8002E0EDF6EAE4BAF2B9A07D8A09B07000ECA
:1019F8008B6F010E8A6F11EF0DF0000EAE25D96EB8
:101A0800010EAF21DA6E300EDF6EAE4BAF2B9A07A8
:101A1800D8A09B078807D8A0890788518911D8A41E
:101A280018EF0DF01AEF0DF001EF0DF0000EAE25D6
:101A3800D96E010EAF21DA6E9451300FDF6EAE4BC6
:101A4800AF2B9A07D8A09B079EC038F09FC039F0EB
:101A5800A0C03AF0A1C03BF0B0C013F0B1C014F080
:101A6800B2C015F0B3C016F0A2C00FF0A3C010F0BA
:101A7800A4C011F0A5C012F037EC13F00FC03CF071
:101A880010C03DF011C03EF012C03FF0F6EC1FF060
:101A980038C09EF039C09FF03AC0A0F03BC0A1F01A
:101AA800B0C040F0B1C041F0B2C042F0B3C043F0A2
:101AB800000E446E000E456E200E466E410E476EB7
:101AC80078EC17F040C0B0F041C0B1F042C0B2F0BD
:101AD80043C0B3F000018C07D8A08D07A64BA72BF5
:101AE8008E51A65DA751800A776F8F51800A77596A
:101AF800D8B081EF0DF083EF0DF091EF0DF0AFBF8F
:101B08008FEF0DF0AF5109E14B0EAE5DD8A08FEF0E
:101B18000DF091EF0DF087EF0CF08A518B11D8A4DE
:101B280098EF0DF09AEF0DF0ABEF0DF0EDA99FEFE8
:101B38000DF0A1EF0DF0ABEF0DF0000EAE25D96E54
:101B4800010EAF21DA6E2E0EDF6EAE4BAF2B000EFC
:101B5800AE25D96E010EAF21DA6E000EDF6E650E6E
:101B68009C19D8A4BAEF0DF0BCEF0DF08EEF0EF073
:101B7800000EA76F4F0EA66F000EA625D96E010E98
:101B8800A721DA6E000EDF6E000E976F000E966FBB
:101B9800ADBFD3EF0DF0D1EF0DF0DBEF0DF0000E80
:101BA800976F010E966FAC6DAD1FD8B0AD2B000EC0
:101BB800996F020E986F0CEF0EF0A607D8A0A70732
:101BC800000EA625D96E010EA721DA6EACC001F071
:101BD800ADC002F0000E046E0A0E036EEDEC1DF0AF
:101BE8000150300FDF6EACC001F0ADC002F0000E46
:101BF800046E0A0E036E8BEC1DF001C0ACF002C03F
:101C0800ADF000019807D8A099079A07D8A09B07BC
:101C1800AC51AD11D8A413EF0EF015EF0EF0E1EFB3
:101C28000DF099BF22EF0EF0995106E19805D8B052
:101C380020EF0EF022EF0EF0E1EF0DF0A607D8A08E
:101C4800A70796519711D8A42CEF0EF02EEF0EF09F
:101C580034EF0EF0000E836F2B0E826F38EF0EF00C
:101C6800000E836F2D0E826F000EA625D96E010E11
:101C7800A721DA6E60000BF2DFFF9A07D8A09B0756
:101C8800A607D8A0A707BF0E776FFF0E786F76510B
:101C9800796F7A6B7751792778517A237A510AE1EB
:101CA8001A0E795DD8A05BEF0EF05EEF0EF0010E14
:101CB8005FEF0EF0000E866F876B86518711D8A4F0
:101CC80068EF0EF06AEF0EF070EF0EF0000E856F01
:101CD800650E846F74EF0EF0000E856F450E846FED
:101CE800000EA625D96E010EA721DA6E600013F248
:101CF800DFFF9A07D8A09B07000EAE25016E010EE4
:101D0800AF21026E000EA625036E010EA721046EF8
:101D18002FEC1FF070C013F071C014F0000E156E98
:101D2800010E166E9AC017F09BC018F028EC1DF033
:101D380013C070F014C071F012002B50800B346E79
:101D48002B502B24366E2AAEACEF0EF0AEEF0EF011
:101D5800AFEF0EF036803650D8B4B5EF0EF0B7EFCF
:101D68000EF0CCEF0EF03628D8A4BDEF0EF0BFEF82
:101D78000EF0C7EF0EF0000E286E000E296E000E52
:101D88002A6E000E2B6E2A8E000E2B6ED4EF0EF0EC
:101D9800000E286E000E296E000E2A6E000E2B6EA5
:101DA8002F50800B356E34503518D8B4DEEF0EF056
:101DB800E0EF0EF0E1EF0EF0348C2F502F24356E4B
:101DC8002EAEE9EF0EF0EBEF0EF0ECEF0EF03580F3
:101DD8003550D8B4F2EF0EF0F4EF0EF009EF0FF033
:101DE8003528D8A4FAEF0EF0FCEF0EF004EF0FF050
:101DF800000E2C6E000E2D6E000E2E6E000E2F6E35
:101E08002E8E000E2F6E11EF0FF0000E2C6E000EAE
:101E18002D6E000E2E6E000E2F6E3650355CD8B02B
:101E280018EF0FF01AEF0FF041EF0FF034AC1FEF7F
:101E38000FF021EF0FF023EF0FF0800E341A36C0A9
:101E480037F035C036F037C035F028C037F02CC031
:101E580028F037C02CF029C037F02DC029F037C042
:101E68002DF02AC037F02EC02AF037C02EF02BC034
:101E780037F02FC02BF037C02FF0000E376E3650DA
:101E880035C030F0316A305E000E315A31BE56EF3F
:101E98000FF0315009E11A0E305CD8A056EF0FF060
:101EA80058EF0FF08FEF0FF0285029102A102B1041
:101EB800D8A461EF0FF064EF0FF0010E65EF0FF09B
:101EC800000E376E000E286E000E296E000E2A6E68
:101ED800000E2B6E35C036F098EF0FF037A077EF75
:101EE8000FF079EF0FF07FEF0FF0D890373001093E
:101EF800376E81EF0FF0D890373228A086EF0FF0B9
:101F080088EF0FF089EF0FF0378E2B342B322A32FF
:101F180029322832362A3550365CD8A096EF0FF091
:101F280098EF0FF072EF0FF034BC9DEF0FF09FEFBA
:101F38000FF0DFEF0FF03650D8A4A5EF0FF0A7EFA2
:101F48000FF0B1EF0FF0000E286E000E296E000E94
:101F58002A6E000E2B6E00EF11F02C5028262D5003
:101F680029222E502A222F502B222BA0BEEF0FF011
:101F7800C0EF0FF06CEF10F037A0C5EF0FF0C7EF10
:101F88000FF0CDEF0FF0D89037300109376ECFEF53
:101F98000FF0D890373228A0D4EF0FF0D6EF0FF01B
:101FA800D7EF0FF0378E2B342B322A3229322832D2
:101FB800362A6CEF10F02C50285C2D5029582E50E2
:101FC8002A582B50800A306E2F50800A3058D8B0CB
:101FD800F0EF0FF0F2EF0FF01DEF10F028502C5C2F
:101FE800306E29502D58316E2A502E58326E2B5093
:101FF8002F58336EFF0E3024286EFF0E3120296EC5
:10200800FF0E32202A6EFF0E33202B6E800E341AFC
:10201800376C3750D8A413EF10F015EF10F025EFF8
:1020280010F0010E2826000E29222A222B2225EF45
:1020380010F02C50285E2D50295A2E502A5A2F5015
:102048002B5A285029102A102B10D8A42EEF10F044
:1020580030EF10F065EF10F03750D8A436EF10F0DD
:1020680038EF10F065EF10F0000E286E000E296EA4
:10207800000E2A6E000E2B6E00EF11F0D890283655
:1020880029362A362B3637AE4CEF10F04EEF10F0CB
:102098004FEF10F0288037A054EF10F056EF10F0F3
:1020A8005AEF10F0D88037365CEF10F0D8903736FA
:1020B8003650D8B462EF10F064EF10F065EF10F00E
:1020C80036062AAE6AEF10F06CEF10F042EF10F00F
:1020D800000E356E37AE73EF10F075EF10F08DEF20
:1020E80010F037C030F07F0E3016D8B47EEF10F005
:1020F80080EF10F084EF10F0010E356E8DEF10F0C8
:1021080028A089EF10F08BEF10F08DEF10F080EF22
:1021180010F03550D8B493EF10F095EF10F0C0EFF1
:1021280010F0010E2826000E29222A222B222BA08D
:10213800A0EF10F0A2EF10F0C0EF10F028C030F0C0
:1021480029C031F02AC032F02BC033F03334333297
:1021580032323132303230C028F031C029F032C04A
:102168002AF033C02BF03628D8B4BDEF10F0BFEFFB
:1021780010F0C0EF10F0362A3628D8B4C6EF10F0A9
:10218800C8EF10F0D0EF10F03650D8A4CEEF10F012
:10219800D0EF10F0E2EF10F0000E286E000E296E5E
:1021A800000E2A6E000E2B6E3650D8A4DEEF10F00B
:1021B800E0EF10F0E2EF10F0000E346E36A0E7EF1B
:1021C80010F0E9EF10F0ECEF10F02A8EEDEF10F0C0
:1021D8002A9ED89036302B6E34AEF5EF10F0F7EF1C
:1021E80010F0F8EF10F02B8E28C028F029C029F045
:1021F8002AC02AF02BC02BF01200DFEC20F0000ED2
:102208000101546F000E556F800E566F3F0E576FC9
:10221800000E586F000E596F400E5A6F400E5B6FDC
:10222800000E7D6F640E7C6F54C13CF055C13DF0CB
:1022380056C13EF057C13FF058C138F059C139F086
:102248005AC13AF05BC13BF0F6EC1FF038C040F0E1
:1022580039C041F03AC042F03BC043F07CC101F0C4
:102268007DC102F0000E02BEFF0E036E046E010E69
:1022780050EC1AF001C044F002C045F003C046F02B
:1022880004C047F078EC17F040C068F141C069F12C
:1022980042C06AF143C06BF1590E0001CE6F100EB7
:1022A800CF6F68C1D0F069C1D1F06AC1D2F06BC1FB
:1022B800D3F090EC20F0000E01016C6F000E6D6FF2
:1022C800000E6E6F000E6F6F000E706F000E716F54
:1022D800000E726F000E736F000E786F000E796F2C
:1022E800000E7A6F000E7B6F000E746F000E756F14
:1022F800000E766F000E776F000E7F6F000E7E6FF8
:1023080043EF12F001017E517F11D8A48EEF11F036
:1023180090EF11F0C7EF11F07EC101F07FC102F01C
:10232800000E02BEFF0E036E046E010E50EC1AF092
:1023380001C00FF002C010F003C011F004C012F089
:10234800000E136E000E146E000E156E3F0E166E04
:1023580037EC13F00FC06CF110C06DF111C06EF1C5
:1023680012C06FF16B0E0001CE6F100ECF6F6CC1F3
:10237800D0F06DC1D1F06EC1D2F06FC1D3F090EC46
:1023880020F040EF12F07EB1CCEF11F0CEEF11F05B
:1023980008EF12F078C128F079C129F07AC12AF043
:1023A8007BC12BF0000E136E000E146E000E156E1E
:1023B800400E166E7EC101F07FC102F0000E02BE13
:1023C800FF0E036E046E010E50EC1AF001C00FF000
:1023D80002C010F003C011F004C012F037EC13F083
:1023E8000FC02CF010C02DF011C02EF012C02FF02D
:1023F800A1EC0EF028C078F129C079F12AC07AF151
:102408002BC07BF140EF12F074C128F075C129F0A0
:1024180076C12AF077C12BF0000E136E000E146EF1
:10242800800E156E3F0E166E7EC101F07FC102F060
:10243800000E02BEFF0E036E046E010E50EC1AF081
:1024480001C00FF002C010F003C011F004C012F078
:1024580037EC13F00FC02CF010C02DF011C02EF087
:1024680012C02FF0A1EC0EF028C074F129C075F14C
:102478002AC076F12BC077F101017E4B7F2B7C516E
:102488007E5D7F51800A0001DC6F01017D51800A69
:102498000001DC59D8A053EF12F055EF12F086EF87
:1024A80011F03B0ECE6F100ECF6F78C1D0F079C10E
:1024B800D1F07AC1D2F07BC1D3F074C1D4F075C128
:1024C800D5F076C1D6F077C1D7F090EC20F07CC17A
:1024D8007EF17DC17FF1A9EF12F07CC101F07DC1D1
:1024E80002F0000E02BEFF0E036E046E010E50ECE9
:1024F8001AF001C00FF002C010F003C011F004C0C0
:1025080012F0000E136E000E146E000E156E3F0EC4
:10251800166E37EC13F00FC070F110C071F111C0D6
:1025280072F112C073F1770E0001CE6F100ECF6FEB
:1025380070C1D0F071C1D1F072C1D2F073C1D3F0C3
:1025480090EC20F001017E4B7F2B010E01017C25D0
:102558000001DC6F000E01017D210001DD6FDC51FF
:1025680001017E5D7F51800A0001DE6FDD51800A26
:10257800DE59D8A0C2EF12F0C4EF12F071EF12F0DA
:1025880070C12CF071C12DF072C12EF073C12FF003
:102598006CC128F06DC129F06EC12AF06FC12BF013
:1025A800A1EC0EF028C064F129C065F12AC066F1DB
:1025B8002BC067F164C128F065C129F066C12AF013
:1025C80067C12BF078C12CF079C12DF07AC12EF0BB
:1025D8007BC12FF0A1EC0EF028C060F129C061F199
:1025E8002AC062F12BC063F168C113F069C114F00D
:1025F8006AC115F06BC116F060C10FF061C110F02F
:1026080062C111F063C112F037EC13F00FC040F053
:1026180010C041F011C042F012C043F0000E446EE9
:10262800000E456E400E466E400E476E78EC17F071
:1026380040C05CF141C05DF142C05EF143C05FF152
:10264800010E0001CE6F100ECF6F5CC1D0F05DC1DE
:10265800D1F05EC1D2F05FC1D3F090EC20F033EF3F
:1026680013F0FEEF7FF01250800B1B6E12501224F5
:10267800216E11AE42EF13F044EF13F045EF13F063
:1026880021802150D8B44BEF13F04DEF13F060EFD9
:1026980013F02128D8A453EF13F055EF13F05DEF92
:1026A80013F0000E0F6E000E106E000E116E000E6D
:1026B800126E118E68EF13F0000E0F6E000E106E82
:1026C800000E116E000E126E1650800B1B1A16505B
:1026D8001624206E15AE73EF13F075EF13F076EF36
:1026E80013F020802050D8B47CEF13F07EEF13F065
:1026F80091EF13F02028D8A484EF13F086EF13F09D
:102708008EEF13F0000E136E000E146E000E156E91
:10271800000E166E158E99EF13F0000E136E000E54
:10272800146E000E156E000E166E2050D8B49FEF72
:1027380013F0A1EF13F0A9EF13F02150D8A4A7EFDD
:1027480013F0A9EF13F0B3EF13F0000E0F6E000EA5
:10275800106E000E116E000E126E5DEF15F0155022
:102768000F026F00CCFF26F06F00D0FF27F0265035
:102778001C6E1D6A1E6A1F6A2750226E236A246A0D
:10278800256A145010026F00CCFF26F06F00D0FFAE
:1027980027F026501C26000E1D221E221F2227501D
:1027A8002226000E232224222522135011026F0014
:1027B800CCFF26F06F00D0FF27F026501C26000E15
:1027C8001D221E221F2227502226000E23222422E9
:1027D80025221EC01FF01DC01EF01CC01DF01C6A63
:1027E800135010026F00CCFF26F06F00D0FF27F0C7
:1027F80026501C2627501D22000E1E22000E1F22C6
:1028080014500F026F00CCFF26F06F00D0FF27F0A6
:1028180026501C2627501D22000E1E22000E1F22A5
:102828001EC01FF01DC01EF01CC01DF01C6A1350F6
:102838000F026F00CCFF26F06F00D0FF27F0265064
:102848001C2627501D22000E1E22000E1F22155086
:1028580010026F00CCFF26F06F00D0FF27F0265043
:10286800222627502322000E2422000E252214504F
:1028780011026F00CCFF26F06F00D0FF27F0265022
:10288800222627502322000E2422000E252215502E
:1028980011026F00CCFF26F06F00D0FF27F0265002
:1028A800176E2750186E196A1A6A19C01AF018C0DC
:1028B80019F017C018F0176A17502226185023224B
:1028C800195024221A5025221CC017F01DC018F0D8
:1028D8001EC019F01FC01AF0190E78EF14F0D89026
:1028E8001A32193218321732E82E73EF14F01750D3
:1028F800222618502322195024221A5025221EC09D
:102908001FF01DC01EF01CC01DF01C6A205021C005
:1029180017F0186A1726000E1822820E1724266E42
:10292800FF0E1820276EAEEF14F0D890223623360B
:10293800243625361FAEA3EF14F0A5EF14F0A6EF4A
:1029480014F02280D8901C361D361E361F362606F7
:10295800D8A0270624AEB3EF14F0B5EF14F099EF22
:1029680014F0000E206E1FAEBCEF14F0BEEF14F092
:10297800E2EF14F0FF0E1C14176EFF0E1D14186EF4
:10298800FF0E1E14196E7F0E1F141A6E17501810A2
:1029980019101A10D8B4D3EF14F0D5EF14F0D9EFFA
:1029A80014F0010E206EE2EF14F022A0DEEF14F016
:1029B800E0EF14F0E2EF14F0D5EF14F02050D8B4A3
:1029C800E8EF14F0EAEF14F00EEF15F0010E2226EE
:1029D800000E23222422252225A0F5EF14F0F7EF7C
:1029E80014F00EEF15F022C017F023C018F024C021
:1029F80019F025C01AF01A341A321932183217325F
:102A080017C022F018C023F019C024F01AC025F00E
:102A1800264A272A27BE19EF15F0275008E126284D
:102A2800D8A019EF15F01BEF15F025EF15F0000EE3
:102A3800226E000E236E800E246E7F0E256E53EFDD
:102A480015F027BE32EF15F0275006E12604D8B05E
:102A580030EF15F032EF15F03EEF15F0000E226E54
:102A6800000E236E000E246E000E256E000E1B6EE7
:102A780053EF15F026C021F0FF0E2216FF0E231685
:102A88007F0E2416000E251621A04DEF15F04FEFEE
:102A980015F050EF15F0248ED8902130256E1B507C
:102AA800251222C00FF023C010F024C011F025C059
:102AB80012F012006000DBF2D9FF6000DFF2DAFFEB
:102AC8006F007BFFF6FF6F0077FFF7FFF86A0800DB
:102AD800F550250AD8A473EF15F075EF15F055EFEA
:102AE80017F06000DBF2D9FF6000DFF2DAFFDE2AC0
:102AF800000EDD22000E0001EA6F000EE96FE9C04A
:102B0800EDF0EAC0EEF0EB69EC696000DBF2D9FFAA
:102B18006000DFF2DAFF6F007BFFF6FF6F0077FFE0
:102B2800F7FFF86A0800F550076E086A98EC1FF07E
:102B380007500001C46FC451D8B4A5EF15F0A7EF32
:102B480015F0EFEF15F06000DBF2D9FF6000DFF25F
:102B5800DAFF6F0078FFBAF06F0074FFBBF0010E68
:102B6800BA27000EBB236000EBF2F6FF6000EFF21D
:102B7800F7FFF86A0800F550076E086A98EC1FF02E
:102B880007500001C56FC551D8B4CDEF15F0CFEF90
:102B980015F0EFEF15F06000DBF2D9FF6000DFF20F
:102BA800DAFF6F0078FFBAF06F0074FFBBF0020E17
:102BB800BA27000EBB236000EBF2F6FF6000EFF2CD
:102BC800F7FFF86A0800F550076E086A98EC1FF0DE
:102BD80007500001C66F660EC419D8A4F6EF15F0A9
:102BE800F8EF15F04AEF16F06000DBF2D9FF60004D
:102BF800DFF2DAFF6F007BFFF6FF6F0077FFF7FF6A
:102C0800F86A08006F00D4FFC7F06000DBF2D9FF54
:102C18006000DFF2DAFFDE2A000EDD226000E3F258
:102C2800D9FF6000E7F2DAFF6F007CFFBAF0040E0C
:102C3800DE266F007CFFBBF0000EDD226000EBF2A9
:102C4800D9FF6000EFF2DAFF6F0078FFC0F06F0085
:102C580078FFC1F06F0078FFC2F06F0078FFC3F013
:102C6800B4C070F0B5C071F0C0C072F0C1C073F0EC
:102C7800C2C074F0C3C075F0C7C076F04CEC08F061
:102C880070C0B4F071C0B5F077EF17F0C40E016EE4
:102C9800000E026E930E036E100E046E000E066E8A
:102CA800020E056EAEEC1CF001500210D8A45FEFC6
:102CB80016F061EF16F014EF17F06000DBF2D9FFA1
:102CC8006000DFF2DAFF6F0078FFBAF06F0074FF80
:102CD800BBF0010E0001BA27000EBB236000EBF227
:102CE800F6FF6000EFF2F7FFF86A08006F00D4FF04
:102CF800C7F0BF0EBA6FFF0EBB6F6000DBF2D9FFE3
:102D08006000DFF2DAFF6F007BFFF6FF6F0077FFEE
:102D1800F7FFF86A0800F550BC6FBD6BBA51BC27C5
:102D2800BB51BD23BD510AE11A0EBC5DD8A09FEF6F
:102D380016F0A2EF16F0010EA3EF16F0000EBE6F0C
:102D4800BF6BBE51BF11D8B4ACEF16F0AEEF16F0A2
:102D5800D2EF16F06000E3F2D9FF6000E7F2DAFF85
:102D68006F007CFFBAF0040EDE266F007CFFBBF01C
:102D7800000EDD226000EBF2D9FF6000EFF2DAFF0F
:102D88006F0078FFC0F06F0078FFC1F06F0078FF28
:102D9800C2F06F0078FFC3F0F4EF16F06000E3F2C2
:102DA800D9FF6000E7F2DAFF6F007CFFBAF0040E8B
:102DB800DE266F007CFFBBF0000EDD226000EBF228
:102DC800D9FF6000EFF2DAFF6F0078FFC0F06F0004
:102DD80078FFC1F06F0078FFC2F06F0078FFC3F092
:102DE800020E6000DBF2D9FF6000DFF2DAFFDE26B8
:102DF800000EDD22B4C070F0B5C071F0C0C072F032
:102E0800C1C073F0C2C074F0C3C075F0C7C076F01B
:102E18004CEC08F070C0B4F071C0B5F077EF17F063
:102E28006000DBF2D9FF6000DFF2DAFF6F007BFFA2
:102E3800F6FF6F0077FFF7FFF86A0800F550250ADC
:102E4800D8A429EF17F02BEF17F045EF17F0600023
:102E5800DBF2D9FF6000DFF2DAFFDE2A000EDD22A6
:102E6800000E046E250E036EB4C005F0B5C006F062
:102E78009AEC1EF0000E0001B56F010EB46F77EFEB
:102E880017F06000DBF2D9FF6000DFF2DAFFDE2A1C
:102E9800000EDD22000E0001B56F000EB46F77EF53
:102EA80017F06000DBF2D9FF6000DFF2DAFF6F0095
:102EB8007BFFF6FF6F0077FFF7FFF86A0800F55011
:102EC800036E046AB4C005F0B5C006F09AEC1EF0B3
:102ED8006000DBF2D9FF6000DFF2DAFFDE2A000EC5
:102EE800DD223EEF17F012004350800B506E435026
:102EF8004324576E42AE83EF17F085EF17F086EF45
:102F080017F057805750D8B48CEF17F08EEF17F0A2
:102F1800A3EF17F05728D8A494EF17F096EF17F0FF
:102F28009EEF17F0000E406E000E416E000E426ECE
:102F3800000E436E428E000E436EABEF17F0000E8C
:102F4800406E000E416E000E426E000E436E4750FA
:102F5800800B501A47504724586E46AEB6EF17F00C
:102F6800B8EF17F0B9EF17F058805850D8B4BFEF42
:102F780017F0C1EF17F0D6EF17F05828D8A4C7EF0D
:102F880017F0C9EF17F0D1EF17F0000E446E000EDE
:102F9800456E000E466E000E476E468E000E476E5A
:102FA800DEEF17F0000E446E000E456E000E466E02
:102FB800000E476E4450451046104710D8A4E7EF5E
:102FC80017F0E9EF17F001EF18F0000E406E000E51
:102FD800416E000E426E000E436E800E42127F0E4E
:102FE80043125050431240C040F041C041F042C02B
:102FF80042F043C043F044EF19F05750D8A407EF0C
:1030080018F009EF18F013EF18F0000E406E000EDC
:10301800416E000E426E000E436E44EF19F0585098
:1030280057C048F0496A485E000E495A7F0E482446
:10303800516E000E4920526E40C04CF041C04DF018
:1030480042C04EF043C04FF0000E406E000E416E7D
:10305800000E426E000E436E000E536E000E546E4C
:10306800000E556E000E566E000E586E74EF18F076
:103078005850D8B442EF18F044EF18F05BEF18F04E
:10308800D8904C364D364E364F36D890403641366D
:103098004236433656AE53EF18F055EF18F056EF58
:1030A80018F04080D890533654365536563644502A
:1030B8004C5C45504D5846504E5847504F58D8A034
:1030C80068EF18F06AEF18F073EF18F0568C445058
:1030D8004C5E45504D5A46504E5A47504F5A582A02
:1030E800190E58647AEF18F07CEF18F03CEF18F0DE
:1030F8004C504D104E104F10D8B485EF18F087EF94
:1031080018F09FEF18F053809FEF18F0D8904036D2
:1031180041364236433656AE94EF18F096EF18F023
:1031280097EF18F04080D8905336543655365636B7
:103138005106D8A0520642AEA4EF18F0A6EF18F038
:103148008AEF18F0000E586E56AEADEF18F0AFEFDC
:1031580018F0D3EF18F0FF0E5314486EFF0E5414F6
:10316800496EFF0E55144A6E7F0E56144B6E48502A
:1031780049104A104B10D8B4C4EF18F0C6EF18F035
:10318800CAEF18F0010E586ED3EF18F040A0CFEF39
:1031980018F0D1EF18F0D3EF18F0C6EF18F0585028
:1031A800D8B4D9EF18F0DBEF18F0FFEF18F0010EE4
:1031B8004026000E41224222432243A0E6EF18F0A7
:1031C800E8EF18F0FFEF18F040C048F041C049F0B0
:1031D80042C04AF043C04BF04B344B324A3249327A
:1031E800483248C040F049C041F04AC042F04BC0A4
:1031F80043F0514A522A52BE0AEF19F0525008E1E0
:103208005128D8A00AEF19F00CEF19F017EF19F0B0
:10321800000E526E5168000E406E000E416E000E98
:10322800426E000E436E52BE24EF19F0525006E172
:103238005104D8B022EF19F024EF19F032EF19F049
:10324800000E526E000E516E000E406E000E416E62
:10325800000E426E000E436E000E506E51C057F0C5
:1032680057A039EF19F03BEF19F03EEF19F0428EF5
:103278003FEF19F0429ED8905730436EF5EF17F0A4
:103288001200DFC06CF0E0C06DF0E1C06EF0E2C08B
:103298006FF059C06CF05AC06DF05BC06EF05CC046
:1032A8006FF0810E0001606FFF0E616F6CC062F0FD
:1032B8006DC063F06EC064F06FC065F0180E6AEF01
:1032C80019F0D8906533643363336233E82E65EFC1
:1032D80019F0625160256A6F000E61216B6F6BBF38
:1032E8007FEF19F06B5109E1170E6A5DD8A07FEFE7
:1032F80019F081EF19F08BEF19F059C059F05AC045
:103308005AF05BC05BF05CC05CF04FEF1AF06BBF2B
:1033180090EF19F092EF19F003EF1AF06AC060F01D
:10332800FF0E616FFF0E626F7F0E636F000E646F9A
:103338006067A1EF19F0A9EF19F0643564336333BE
:1033480062336133602F9CEF19F061C066F062C090
:1033580067F063C068F064C069F0000166516C15DD
:10336800606F67516D15616F68516E15626F6951B5
:103378006F15636F6051611162116311D8A4C7EFB3
:1033880019F0C9EF19F0CBEF19F081EF19F06CC003
:1033980060F06DC061F06EC062F06FC063F0200E27
:1033A800DBEF19F0D8906333623361336033E82E72
:1033B800D6EF19F06051611162116311D8B4E7EFCB
:1033C80019F0E9EF19F0F1EF19F066516C27675120
:1033D8006D2368516E2369516F23661D606F671DE9
:1033E800616F681D626F691D636F60516C17615171
:1033F8006D1762516E1763516F1747EF1AF06CC063
:1034080060F06DC061F06EC062F06FC063F0200EB6
:1034180013EF1AF0D8906333623361336033E82EC8
:103428000EEF1AF06051611162116311D8A41FEFF9
:103438001AF021EF1AF02BEF1AF0000E6C6F000E45
:103448006D6F000E6E6F000E6F6F47EF1AF0D89019
:103458006C35606F6D35616F6E35626F6F35636F98
:103468006051611162116311D8B43DEF1AF03FEF5A
:103478001AF047EF1AF0000E6C6F000E6D6F800E99
:103488006E6FBF0E6F6F6CC059F06DC05AF06EC092
:103498005BF06FC05CF01200096E0950D8B457EFAA
:1034A8001AF059EF1AF07BEF1AF004BE60EF1AF029
:1034B8005EEF1AF07BEF1AF001C005F002C006F0CB
:1034C80003C007F004C008F0051E061E071E081EEC
:1034D800052A000E06220722082205C00BF006C0A6
:1034E8000CF007C00DF008C00EF083EF1AF001C011
:1034F8000BF002C00CF003C00DF004C00EF0015038
:10350800021003100410D8A48CEF1AF08EEF1AF0F2
:1035180098EF1AF0000E016E000E026E000E036E98
:10352800000E046E29EF1BF0960E0A6EA2EF1AF039
:103538000A2AD8900E320D320C320B32000E0B14C0
:10354800056E000E0C14066E000E0D14076EFE0EAE
:103558000E14086E0550061007100810D8A4B7EF0F
:103568001AF0B9EF1AF09CEF1AF0C7EF1AF00A2A0E
:10357800010E0B26000E0C220D220E22D8900E32C0
:103588000D320C320B32000E0B14056E000E0C14AB
:10359800066E000E0D14076EFF0E0E14086E055011
:1035A800061007100810D8A4DCEF1AF0DEEF1AF0A6
:1035B800BBEF1AF0E6EF1AF00A06D8900B360C3675
:1035C8000D360E360DBEEBEF1AF0EDEF1AF0F5EFF3
:1035D8001AF0020E0A60F3EF1AF0F5EF1AF0E0EFB6
:1035E8001AF00AB0FAEF1AF0FCEF1AF0FDEF1AF031
:1035F8000D9ED8900A320AC005F0066A076A086A62
:1036080005C008F0076A066A056A05500B120650DD
:103618000C1207500D1208500E120950D8B417EFAB
:103628001BF019EF1BF021EF1BF004BE20EF1BF07D
:103638001EEF1BF021EF1BF00E8E0BC001F00CC02B
:1036480002F00DC003F00EC004F01200033404347D
:103658000A6E0A50D8A433EF1BF035EF1BF03FEF8A
:103668001BF0000E016E000E026E000E036E000EBF
:10367800046EACEF1BF001C005F002C006F003C0F9
:1036880007F004C008F0200E4FEF1BF0D890083266
:10369800073206320532E82E4AEF1BF00550096E54
:1036A800038EFF0E0116FF0E0216FF0E0316000E04
:1036B8000416960E0A5E0ABE66EF1BF064EF1BF056
:1036C8007CEF1BF00A50800A970FD8B06EEF1BF002
:1036D80070EF1BF072EF1BF035EF1BF0D89004323F
:1036E8000332023201320A3E72EF1BF094EF1BF0F4
:1036F8001F0E0A6482EF1BF084EF1BF08CEF1BF0A7
:1037080035EF1BF0D89001360236033604360A0628
:103718000A50D8A492EF1BF094EF1BF086EF1BF031
:103728000950D8B49AEF1BF09CEF1BF0A4EF1BF0E4
:10373800041E031E021E016C000E02220322042234
:1037480001C001F002C002F003C003F004C004F09D
:103758001200000E2814306E000E2914316E800EEF
:103768002A14326E7F0E2B14336E30503110321003
:103778003310D8A4C2EF1BF0C4EF1BF0CCEF1BF042
:10378800000E286E000E296E000E2A6E000E2B6E9B
:10379800000E2C14306E000E2D14316E800E2E1477
:1037A800326E7F0E2F14336E3050311032103310BA
:1037B800D8A4E1EF1BF0E3EF1BF0EBEF1BF0000EDA
:1037C8002C6E000E2D6E000E2E6E000E2F6E2BAE80
:1037D800F0EF1BF0F2EF1BF0FBEF1BF0286C291E3B
:1037E800D8B0292A2A1ED8B02A2A800E2B562FAEE6
:1037F80000EF1CF002EF1CF00BEF1CF02C6C2D1EE0
:10380800D8B02D2A2E1ED8B02E2A800E2F56000E84
:10381800281A000E291A000E2A1A800E2B1A000EDA
:103828002C1A000E2D1A000E2E1A800E2F1A2C504C
:10383800285C2D5029582E502A582F502B58D8B074
:1038480028EF1CF02AEF1CF02DEF1CF0D8902EEF7B
:103858001CF0D8801200E3C00BF0E4C00CF0E5C007
:103868000DF0E6C00EF001C00BF002C00CF003C072
:103878000DF004C00EF00BC005F00CC006F00DC032
:1038880007F00EC008F0180E4FEF1CF0D890083261
:10389800073206320532E82E4AEF1CF00550096E51
:1038A8000A6A09500A10D8A45CEF1CF05EEF1CF0FD
:1038B8007EEF1CF0D8900B34056E0C34066E0D3478
:1038C800076E0E34086E0550061007100810D8A4AD
:1038D80070EF1CF072EF1CF078EF1CF0000E026E17
:1038E800020E016EADEF1CF0000E026E030E016EAB
:1038F800ADEF1CF009280A10D8A485EF1CF087EF5B
:103908001CF0A9EF1CF00BC005F00CC006F00DC0B0
:1039180007F00EC008F0090ED890053606360736AF
:103928000836E82E90EF1CF0055006100710081016
:10393800D8B4A1EF1CF0A4EF1CF0010EA5EF1CF009
:10394800000E016E026AADEF1CF0000E026E040E4E
:10395800016E120001C008F002C009F003C00AF0AD
:1039680004C00BF00506D8A00606052806E10628BF
:10397800D8A4C1EF1CF0C3EF1CF0D0EF1CF0000E70
:10398800026E000E016E27EF1DF0084A092A0A4A46
:103998000B2A0506D8A00606600023F0D9FF6000B0
:1039A80027F0DAFFDF50D8B4DCEF1CF0DEEF1CF0B4
:1039B80011EF1DF060002BF0F6FF60002FF0F7FF0D
:1039C800F86A0800F5500009D8B4EDEF1CF0EFEFE5
:1039D8001CF011EF1DF005500610D8B4F6EF1CF0DE
:1039E800F8EF1CF011EF1DF0600023F0D9FF600024
:1039F80027F0DAFFDF50076E60002BF0F6FF60005B
:103A08002FF0F7FFF86A0800F5500718D8B40FEF41
:103A18001DF011EF1DF0C9EF1CF0600023F0D9FF75
:103A2800600027F0DAFFDF50076E60002BF0F6FF2A
:103A380060002FF0F7FFF86A0800F550075C016E88
:103A4800026AD8A0020612000001EDA12EEF1DF0B7
:103A580030EF1DF03AEF1DF015C00CF016C00DF058
:103A680013C00EF014C00FF019EC20F018BE3FEF91
:103A78001DF041EF1DF047EF1DF017C01CF018C0F6
:103A88001DF04BEF1DF0000E1D6E000E1C6E000E9B
:103A98001B6E000E1A6E5DEF1DF0000E046E200EF8
:103AA800036E13C005F014C006F09AEC1EF01A4A13
:103AB8001B2A1C501A5C1B50800A196E1D50800A64
:103AC8001958D8A06AEF1DF06CEF1DF051EF1DF0EA
:103AD8000001EDB172EF1DF074EF1DF07EEF1DF0E7
:103AE80015C00CF016C00DF013C00EF014C00FF086
:103AF80019EC20F015C001F016C002F03BEC20F0E4
:103B08001C500124136E1D500220146E1200000E6A
:103B1800066E04BE94EF1DF092EF1DF09AEF1DF0B3
:103B2800036C041ED8B0042A010E066E02BEA1EF73
:103B38001DF09FEF1DF0A7EF1DF0016C021ED8B01D
:103B4800022A010E061A000E086E000E076E0350B8
:103B58000410D8B4B2EF1DF0B4EF1DF0DCEF1DF087
:103B6800010E056EBCEF1DF0D89003360436052A09
:103B780004AEC1EF1DF0C3EF1DF0B8EF1DF0D890F3
:103B8800073608360350015C04500258D8A0CFEF1E
:103B98001DF0D1EF1DF0D6EF1DF00350015E04506B
:103BA800025A0780D89004320332052EC3EF1DF065
:103BB8000650D8B4E2EF1DF0E4EF1DF0E8EF1DF079
:103BC800076C081ED8B0082A07C001F008C002F028
:103BD8001200000E066E02BEF6EF1DF0F4EF1DF0A7
:103BE800FCEF1DF0016C021ED8B0022A010E066E11
:103BF80004BE03EF1EF001EF1EF007EF1EF0036C8A
:103C0800041ED8B0042A03500410D8B40EEF1EF0D6
:103C180010EF1EF034EF1EF0010E056E18EF1EF0C7
:103C2800D89003360436052A04AE1DEF1EF01FEFA8
:103C38001EF014EF1EF00350015C04500258D8A087
:103C480028EF1EF02AEF1EF02EEF1EF00350015E43
:103C58000450025AD89004320332052E1FEF1EF08A
:103C68000650D8B43AEF1EF03CEF1EF040EF1EF0BD
:103C7800016C021ED8B0022A01C001F002C002F095
:103C88001200000E0114096E000E02140A6E800E56
:103C980003140B6E7F0E04140C6E09500A100B10DF
:103CA8000C10D8A45AEF1EF05CEF1EF064EF1EF063
:103CB800000E016E000E026E000E036E000E046E02
:103CC800000E0514096E000E06140A6E800E071405
:103CD8000B6E7F0E08140C6E09500A100B100C1096
:103CE800D8A479EF1EF07BEF1EF083EF1EF0000ED4
:103CF800056E000E066E000E076E000E086E05506B
:103D080001180FE1065002180CE10750031809E1E9
:103D180008500418D8B493EF1EF095EF1EF098EFF2
:103D28001EF0D89099EF1EF0D880120005500610AA
:103D3800D8B4A1EF1EF0A3EF1EF0ACEF1EF00550B3
:103D48000610D8A4AAEF1EF0ACEF1EF0B1EF1EF0DB
:103D58000350E8EC20F0E4EF1EF020EE04F00550EC
:103D6800D9260650DA22DE50DE10D8B4BEEF1EF097
:103D7800C0EF1EF0DBEF1EF020EE04F00550D92650
:103D88000650DA2210EE02F00550E1260650E22233
:103D9800DE50E65CE650800A0B6EDE50800A0B5857
:103DA800D8B0D9EF1EF0DBEF1EF0E4EF1EF020EEE6
:103DB80002F00550D9260650DA22DE2A000EDD224E
:103DC8001200000EBE6E000EBD6E000EBA6E000E22
:103DD800BB6E000EBC6E070EC66EC268BF0EC36E09
:103DE800C468C5683A01706960693F0E506F070E74
:103DF800806F4069000E716F000E816F000E516F69
:103E0800000E416F000E616F000E5A6F000E5B6F5F
:103E1800000E6A6F000E6B6F000E7A6F000E7B6FDC
:103E2800000E826F000E426F000E526F000E626F1E
:103E3800000E726F4369536963697369070E836F74
:103E480044695469646974690F0E846F0F0EE86FD2
:103E5800160E0E6F120003C007F004C008F001C070
:103E680009F002C00AF00750056E0850066E074AAE
:103E7800082A600017F0F6FF60001BF0F7FF000E3D
:103E8800F86E600027F0D9FF60002BF0DAFF094ACE
:103E98000A2A0F0EF76403D00800F55007D06F0008
:103EA800DBFFE9FF6F00DFFFEAFFEF50DF6EDF5057
:103EB800D8A461EF1FF063EF1FF037EF1FF0120077
:103EC800CAC05DF0CBC05EF0000E0001E86F000EC6
:103ED800E76F82EF1FF0C8C0B4F0C9C0B5F05D0E3F
:103EE800B66F000EB76FCCC0B8F0CDC0B9F05EECBD
:103EF80015F00001B451E727B551E823600077F1C8
:103F0800F6FF60007BF1F7FFF86A0800F55000093A
:103F1800D8A491EF1FF093EF1FF06FEF1FF0E7C0E9
:103F2800C8F0E8C0C9F01200BF0E096EFF0E0A6E95
:103F380007C00BF008C00CF009500B260A500C22E1
:103F48000C500AE11A0E0B5CD8A0ADEF1FF0B0EFD1
:103F58001FF0010EB1EF1FF0000E0D6E0E6A0D502E
:103F68000E10D8B4BAEF1FF0BCEF1FF0C3EF1FF06C
:103F7800200E0710076E0850086EC7EF1FF007C025
:103F880007F008C008F01200000E3D01D46F000EC3
:103F9800D66F000ED86FB00EDA6F800EDB6F000E92
:103FA800DC6F190EDD6F000EDE6F000EDF6F000E86
:103FB800E06F000EE16F000EE26F000E016E000E62
:103FC800026EF2EC20F0000E016E000E026EEDECB7
:103FD80020F0000E016E000E026EF7EC20F0000ECD
:103FE8005F6E1200000E3C1A000E3D1A000E3E1ABB
:103FF800800E3F1A38C028F039C029F03AC02AF09C
:104008003BC02BF03CC02CF03DC02DF03EC02EF044
:104018003FC02FF0A1EC0EF028C038F029C039F0CD
:104028002AC03AF02BC03BF01200000E126E000EB0
:10403800116E2AEF20F010C003F0046A0EC005F0DC
:104048000FC006F09AEC1EF0114A122A11500C24E7
:10405800D96E12500D20DA6EDF50106E1050D8A4B1
:1040680038EF20F03AEF20F01FEF20F0120001C0E7
:1040780003F002C004F043EF20F0014A022A600076
:1040880007F0D9FF60000BF0DAFFDF50D8A44FEF3C
:1040980020F051EF20F041EF20F00350015C016E59
:1040A80004500258026E1200BF0E036EFF0E046E1B
:1040B80001C005F002C006F0035005260450062290
:1040C80006500AE11A0E055CD8A06DEF20F070EFDB
:1040D80020F0010E71EF20F0000E016E026A12004E
:1040E8000150021003100410D8B47DEF20F07FEFC8
:1040F80020F087EF20F0000E011A000E021A000EC1
:10410800031A800E041A01C001F002C002F003C0B5
:1041180003F004C004F01200D00E0001DA6F000EA4
:10412800DB6F000EC86F000EC96FCEC0CAF0CFC0DB
:10413800CBF0DA0ECC6F000ECD6F64EC1FF01200DE
:10414800000E3901C06F000EC16F000EC26F000E65
:10415800C36F000EC46F000EC56F000EC66F000E51
:10416800C76F120000EE00F1500EEE6AE806FDE19E
:1041780000EEDFF0100EEE6AE806FDE15F6A00016E
:1041880001EF11F0016E3901A6A7CDEF20F0CFEFB6
:1041980020F0C7EF20F0600007F0D2FD1200620E99
:1041A8003901D96F000EDB6F000EDD6F020EDF6F75
:1041B800000EDE6F1200A4EC20F0E5EC1EF0D3EC4C
:1041C80020F0C8EC1FF01200026E0250C6EC20F07E
:1041D800120001C0F1F002C0F2F0120001C0F3F0C9
:1041E80002C0F4F0120001C0EFF002C0F0F01200BB
:04FFFC00B6EF20F04C
:020000040020DA
:10000000FF0FFF0FFF0FFF0FFF0FFF0FFF0FFF0F80
:020000040030CA
:0A000000ECFFF7FF9FFFFFFFFFFF7B
:00000001FF
