:020000040000FA
:04000000FEEF7FF0A0
:10CC160001C0D3F002C0D4F0120001C0D7F002C0A8
:10CC2600D8F0120001C0D5F002C0D6F01200026E94
:10CC3600025034EC66F0120050EC66F031EC68F00D
:10CC460028EC66F069EC67F01200620E3901D96FC4
:10CC5600000EDB6F000EDD6F020EDF6F000EDE6F63
:10CC66001200016E3901A6A73BEF66F03DEF66F0B4
:10CC760035EF66F0600007F0D2FD120000EE00F11D
:10CC8600500EEE6AE806FDE100EEC2F0110EEE6A05
:10CC9600E806FDE1000136EF6CF0000E3901C06FC9
:10CCA600000EC16F000EC26F000EC36F000EC46F80
:10CCB600000EC56F000EC66F000EC76F12009A0EEB
:10CCC6005E6E000E5F6E000E546E000E556E98C0BE
:10CCD60056F099C057F05E0E586E000E596EC8ECAD
:10CCE60067F01200015003026F00CCFF05F06F00E1
:10CCF600D0FF06F001500402F3500626025003024C
:10CD0600F350062605C001F006C002F01200D00E50
:10CD1600036EFF0E046E01C005F002C006F003505C
:10CD260005260450062206500AE10A0E055CD8A024
:10CD36009FEF66F0A2EF66F0010EA3EF66F0000E1D
:10CD4600016E026A12000150021003100410D8B4DA
:10CD5600AFEF66F0B1EF66F0B9EF66F0000E011ABC
:10CD6600000E021A000E031A800E041A01C001F00A
:10CD760002C002F003C003F004C004F01200BF0EAC
:10CD8600036EFF0E046E01C005F002C006F00350EC
:10CD960005260450062206500AE11A0E055CD8A0A4
:10CDA600D7EF66F0DAEF66F0010EDBEF66F0000E05
:10CDB600016E026A120001C003F002C004F0E6EF41
:10CDC60066F0014A022A600007F0D9FF60000BF006
:10CDD600DAFFDF50D8A4F2EF66F0F4EF66F0E4EF86
:10CDE60066F00350015C016E04500258026E120098
:10CDF600000E126E000E116E0CEF67F010C003F0FD
:10CE0600046A0EC005F00FC006F07BEC68F0114A0C
:10CE1600122A11500C24D96E12500D20DA6EDF50F2
:10CE2600106E1050D8A41AEF67F01CEF67F001EFF0
:10CE360067F01200000E1E1A000E1F1A000E201AAE
:10CE4600800E211A1AC001F01BC002F01CC003F0AC
:10CE56001DC004F01EC005F01FC006F020C007F07C
:10CE660021C008F0C8EC72F001C01AF002C01BF035
:10CE760003C01CF004C01DF01200010E076E200E48
:10CE860001180210D8B44AEF67F04CEF67F065EF6F
:10CE960067F0F70E036EFF0E046E01C005F002C0C8
:10CEA60006F00350052604500622065009E1050E39
:10CEB600055CD8A061EF67F063EF67F065EF67F098
:10CEC600000E076E07C001F0026A1200000E3D0157
:10CED600D46F000ED66F000ED86FB00EDA6F800ECC
:10CEE600DB6F000EDC6F190EDD6F000EDE6F000EBD
:10CEF600DF6F000EE06F000EE16F000EE26F000EB6
:10CF0600016E000E026E10EC66F0000E016E000E51
:10CF1600026E15EC66F0000E016E000E026E0BEC52
:10CF260066F0000E0001D26F1200BF0E096EFF0EF2
:10CF36000A6E07C00BF008C00CF009500B260A5009
:10CF46000C220C500AE11A0E0B5CD8A0ADEF67F06C
:10CF5600B0EF67F0010EB1EF67F0000E0D6E0E6ACE
:10CF66000D500E10D8B4BAEF67F0BCEF67F0C3EF00
:10CF760067F0200E0710076E0850086EC7EF67F0BF
:10CF860007C007F008C008F0120056C05AF057C094
:10CF96005BF0000E0001CB6F000ECA6FE6EF67F084
:10CFA60054C03AF055C03BF05A0E3C6E000E3D6E32
:10CFB60058C03EF059C03FF028EC75F03A500001D9
:10CFC600CA273B50CB2360006BF1F6FF60006FF180
:10CFD600F7FFF86A0800F5500009D8A4F5EF67F0E6
:10CFE600F7EF67F0D3EF67F0CAC054F0CBC055F047
:10CFF600120003C007F004C008F001C009F002C027
:10D006000AF00750056E0850066E074A082A6000A7
:10D0160017F0F6FF60001BF0F7FF000EF86E6000D9
:10D0260027F0D9FF60002BF0DAFF094A0A2A0F0E13
:10D03600F76403D00800F55007D06F00DBFFE9FF67
:10D046006F00DFFFEAFFEF50DF6EDF50D8A42EEF50
:10D0560068F030EF68F004EF68F01200000EBE6E64
:10D06600000EBD6E000EBA6E000EBB6E000EBC6EDC
:10D07600070EC66EC268BF0EC36EC468C5683A01A5
:10D08600706960697F0E506F070E806F4069000EF1
:10D09600716F000E816F000E516F000E416F000E12
:10D0A600616F000E5A6F000E5B6F000E6A6F000E06
:10D0B6006B6F000E7A6F000E7B6F000E826F000E94
:10D0C600426F000E526F000E626F000E726F436960
:10D0D600536963697369070E836F446954696469A8
:10D0E60074690F0E846F0F0EE86F160E0E6F120026
:10D0F60005500610D8B482EF68F084EF68F08DEF23
:10D1060068F005500610D8A48BEF68F08DEF68F034
:10D1160092EF68F003501AEC66F0C5EF68F020EE67
:10D1260004F00550D9260650DA22DE50DE10D8B4B7
:10D136009FEF68F0A1EF68F0BCEF68F020EE04F016
:10D146000550D9260650DA2210EE02F00550E126E7
:10D156000650E222DE50E65CE650800A0B6EDE5098
:10D16600800A0B58D8B0BAEF68F0BCEF68F0C5EF8C
:10D1760068F020EE02F00550D9260650DA22DE2AA3
:10D18600000EDD221200000E0114096E000E0214BC
:10D196000A6E800E03140B6E7F0E04140C6E09507B
:10D1A6000A100B100C10D8A4DBEF68F0DDEF68F066
:10D1B600E5EF68F0000E016E000E026E000E036EC3
:10D1C600000E046E000E0514096E000E06140A6E9B
:10D1D600800E07140B6E7F0E08140C6E09500A1091
:10D1E6000B100C10D8A4FAEF68F0FCEF68F004EF0F
:10D1F60069F0000E056E000E066E000E076E000E3C
:10D20600086E055001180FE1065002180CE1075090
:10D21600031809E108500418D8B414EF69F016EFA2
:10D2260069F019EF69F0D8901AEF69F0D88012000A
:10D23600000E066E02BE24EF69F022EF69F02AEFB7
:10D2460069F0016C021ED8B0022A010E066E04BEF9
:10D2560031EF69F02FEF69F035EF69F0036C041ECA
:10D26600D8B0042A03500410D8B43CEF69F03EEF5E
:10D2760069F062EF69F0010E056E46EF69F0D8902D
:10D2860003360436052A04AE4BEF69F04DEF69F01C
:10D2960042EF69F00350015C04500258D8A056EFE3
:10D2A60069F058EF69F05CEF69F00350015E0450D5
:10D2B600025AD89004320332052E4DEF69F006501B
:10D2C600D8B468EF69F06AEF69F06EEF69F0016C47
:10D2D600021ED8B0022A01C001F002C002F01200FC
:10D2E600000E066E04BE7CEF69F07AEF69F082EFFD
:10D2F60069F0036C041ED8B0042A010E066E02BE45
:10D3060089EF69F087EF69F08FEF69F0016C021E13
:10D31600D8B0022A010E061A000E086E000E076E1D
:10D3260003500410D8B49AEF69F09CEF69F0C4EF8B
:10D3360069F0010E056EA4EF69F0D8900336043645
:10D34600052A04AEA9EF69F0ABEF69F0A0EF69F02A
:10D35600D890073608360350015C04500258D8A00E
:10D36600B7EF69F0B9EF69F0BEEF69F00350015EFF
:10D376000450025A0780D89004320332052EABEFD0
:10D3860069F00650D8B4CAEF69F0CCEF69F0D0EF77
:10D3960069F0076C081ED8B0082A07C001F008C05B
:10D3A60002F012000001D0A1DBEF69F0DDEF69F0B9
:10D3B600E7EF69F015C00CF016C00DF013C00EF0C3
:10D3C60014C00FF0FBEC66F018BEECEF69F0EEEF60
:10D3D60069F0F4EF69F017C01CF018C01DF0F8EF03
:10D3E60069F0000E1D6E000E1C6E000E1B6E000E08
:10D3F6001A6E0AEF6AF0000E046E200E036E13C05A
:10D4060005F014C006F07BEC68F01A4A1B2A1C5083
:10D416001A5C1B50800A196E1D50800A1958D8A034
:10D4260017EF6AF019EF6AF0FEEF69F00001D0B16C
:10D436001FEF6AF021EF6AF02BEF6AF015C00CF0CF
:10D4460016C00DF013C00EF014C00FF0FBEC66F022
:10D4560015C001F016C002F0DEEC66F01C50012487
:10D46600136E1D500220146E120001C008F002C097
:10D4760009F003C00AF004C00BF00506D8A00606A2
:10D48600052806E10628D8A44BEF6AF04DEF6AF0AE
:10D496005AEF6AF0000E026E000E016EB1EF6AF0EE
:10D4A600084A092A0A4A0B2A0506D8A00606600079
:10D4B60023F0D9FF600027F0DAFFDF50D8B466EF1B
:10D4C6006AF068EF6AF09BEF6AF060002BF0F6FFF7
:10D4D60060002FF0F7FFF86A0800F5500009D8B48D
:10D4E60077EF6AF079EF6AF09BEF6AF00550061065
:10D4F600D8B480EF6AF082EF6AF09BEF6AF06000C2
:10D5060023F0D9FF600027F0DAFFDF50076E6000D6
:10D516002BF0F6FF60002FF0F7FFF86A0800F550D1
:10D526000718D8B499EF6AF09BEF6AF053EF6AF0E8
:10D53600600023F0D9FF600027F0DAFFDF50076EA6
:10D5460060002BF0F6FF60002FF0F7FFF86A080086
:10D55600F550075C016E026AD8A002061200C6C02A
:10D566000BF0C7C00CF0C8C00DF0C9C00EF001C06A
:10D576000BF002C00CF003C00DF004C00EF00BC09F
:10D5860005F00CC006F00DC007F00EC008F0180E2E
:10D59600D2EF6AF0D8900832073206320532E82E0A
:10D5A600CDEF6AF00550096E0A6A09500A10D8A430
:10D5B600DFEF6AF0E1EF6AF001EF6BF0D8900B3421
:10D5C600056E0C34066E0D34076E0E34086E05506B
:10D5D600061007100810D8A4F3EF6AF0F5EF6AF00A
:10D5E600FBEF6AF0000E026E020E016E30EF6BF07A
:10D5F600000E026E030E016E30EF6BF009280A1062
:10D60600D8A408EF6BF00AEF6BF02CEF6BF00BC0B1
:10D6160005F00CC006F00DC007F00EC008F0090EAC
:10D62600D8900536063607360836E82E13EF6BF027
:10D636000550061007100810D8B424EF6BF027EF3A
:10D646006BF0010E28EF6BF0000E016E026A30EFF0
:10D656006BF0000E026E040E016E1200000E1A141C
:10D66600226E000E1B14236E800E1C14246E7F0E79
:10D676001D14256E2250231024102510D8A446EF21
:10D686006BF048EF6BF050EF6BF0000E1A6E000E69
:10D696001B6E000E1C6E000E1D6E000E1E14226EFA
:10D6A600000E1F14236E800E2014246E7F0E21148C
:10D6B600256E2250231024102510D8A465EF6BF098
:10D6C60067EF6BF06FEF6BF0000E1E6E000E1F6EB5
:10D6D600000E206E000E216E1DAE74EF6BF076EF1D
:10D6E6006BF07FEF6BF01A6C1B1ED8B01B2A1C1E4A
:10D6F600D8B01C2A800E1D5621AE84EF6BF086EF43
:10D706006BF08FEF6BF01E6C1F1ED8B01F2A201E09
:10D71600D8B0202A800E2156000E1A1A000E1B1AA7
:10D72600000E1C1A800E1D1A000E1E1A000E1F1A5D
:10D73600000E201A800E211A1E501A5C1F501B580C
:10D7460020501C5821501D58D8B0ACEF6BF0AEEFEE
:10D756006BF0B1EF6BF0D890B2EF6BF0D88012009F
:10D76600033404340A6E0A50D8A4BCEF6BF0BEEF43
:10D776006BF0C8EF6BF0000E016E000E026E000E2D
:10D78600036E000E046E35EF6CF001C005F002C0AA
:10D7960006F003C007F004C008F0200ED8EF6BF0C7
:10D7A600D8900832073206320532E82ED3EF6BF0F6
:10D7B6000550096E038EFF0E0116FF0E0216FF0EB0
:10D7C6000316000E0416960E0A5E0ABEEFEF6BF005
:10D7D600EDEF6BF005EF6CF00A50800A970FD8B0AA
:10D7E600F7EF6BF0F9EF6BF0FBEF6BF0BEEF6BF062
:10D7F600D89004320332023201320A3EFBEF6BF05C
:10D806001DEF6CF01F0E0A640BEF6CF00DEF6CF061
:10D8160015EF6CF0BEEF6BF0D8900136023603368A
:10D8260004360A060A50D8A41BEF6CF01DEF6CF004
:10D836000FEF6CF00950D8B423EF6CF025EF6CF0C5
:10D846002DEF6CF0041E031E021E016C000E022258
:10D856000322042201C001F002C002F003C003F05B
:10D8660004C004F012001FEC66F0550E0001BE6FF6
:10D87600550EBF6F150EC06F420EC16F630E986FC7
:10D88600FF0E996FBEC09AF0BFC09BF0C0C09CF05F
:10D89600C1C09DF062EC66F03E0E0001986FFF0E6F
:10D8A600996FBEC09AF0BFC09BF0C0C09CF0C1C0CB
:10D8B6009DF062EC66F0170E0001986FFF0E996FEF
:10D8C600BEC09AF0BFC09BF0C0C09CF0C1C09DF026
:10D8D60062EC66F0D40E0001986FFE0E996F62EC52
:10D8E60066F0890E0001986FFE0E996F62EC66F085
:10D8F600000E0001A66F000EA76F500EA86F410E16
:10D90600A96F340EAA6FF10EAB6F110EAC6F410EFC
:10D91600AD6FC50EAE6FE20EAF6F300EB06F420E3A
:10D92600B16F950EB26FE60EB36F9D0EB46F410EDA
:10D93600B56F8B0EB66F5E0EB76FBC0EB86F430E2B
:10D94600B96F920EBA6F240EBB6F490EBC6F400EB4
:10D95600BD6FC90E986FFF0E996F62EC66F0860E6A
:10D966000001986FFF0E996FA6C09AF0A7C09BF0B2
:10D97600A8C09CF0A9C09DF0AAC09EF0ABC09FF0C5
:10D98600ACC0A0F0ADC0A1F0AEC0A2F0AFC0A3F095
:10D99600B0C0A4F0B1C0A5F062EC66F0A80E00011C
:10D9A600986FFF0E996FB2C09AF0B3C09BF0B4C0E7
:10D9B6009CF0B5C09DF0B6C09EF0B7C09FF0B8C051
:10D9C600A0F0B9C0A1F0BAC0A2F0BBC0A3F0BCC021
:10D9D600A4F0BDC0A5F062EC66F0F0EF6CF0FEEFCF
:10D9E6007FF0000E166E000E156E000E0F6E000E06
:10D9F6000E6E00EF6DF0084A092A010E146E6000E3
:10DA060023F0F6FF600027F0F7FFF86A0800F550EC
:10DA1600200AD8B411EF6DF013EF6DF033EF6DF00F
:10DA2600F70E0A6EFF0E0B6E600023F0F6FF600025
:10DA360027F0F7FFF86A0800F5500C6E0D6A0A50D9
:10DA46000C260B500D220D5009E1050E0C5CD8A0DA
:10DA56002FEF6DF031EF6DF033EF6DF0000E146EB9
:10DA660014C010F0116A10501110D8A43DEF6DF0DB
:10DA76003FEF6DF0FEEF6CF049EF6DF0000E0F6EAC
:10DA8600010E0E6E084A092A84EF6DF0600023F03D
:10DA9600F6FF600027F0F7FFF86A0800F5500A6EF7
:10DAA6000B6A0B50000AD8B45BEF6DF084EF6DF093
:10DAB6000A502B0AD8B445EF6DF0060AD8B441EFE8
:10DAC6006DF084EF6DF015C001F016C002F0000E87
:10DAD600046E0A0E036E75EC66F0600023F0F6FF26
:10DAE600600027F0F7FFF86A0800F550015E000EA7
:10DAF600025A300E0124156E000E0220166E45EFF6
:10DB06006DF0D00E0A6EFF0E0B6E600023F0F6FF6E
:10DB1600600027F0F7FFF86A0800F5500C6E0D6AF2
:10DB26000A500C260B500D220D500AE10A0E0C5C11
:10DB3600D8A0A0EF6DF0A3EF6DF0010EA4EF6DF08D
:10DB4600000E126E136A12501310D8A4ADEF6DF0CA
:10DB5600AFEF6DF066EF6DF00E500F10D8A4B6EF74
:10DB66006DF0B8EF6DF0C6EF6DF015C00AF016C097
:10DB76000BF00A1E0B1E0A4A0B2A0AC008F00BC03D
:10DB860009F0CAEF6DF015C008F016C009F01200D2
:10DB9600C2C02AF0C3C02BF0C4C02CF0C5C02DF003
:10DBA6001AC02AF01BC02BF01CC02CF01DC02DF093
:10DBB600810E1E6EFF0E1F6E2AC020F02BC021F0B4
:10DBC6002CC022F02DC023F0180EEFEF6DF0D89088
:10DBD6002332223221322032E82EEAEF6DF0205035
:10DBE6001E24286E000E1F20296E29BE04EF6EF03B
:10DBF600295009E1170E285CD8A004EF6EF006EF55
:10DC06006EF010EF6EF01AC01AF01BC01BF01CC0AD
:10DC16001CF01DC01DF0D3EF6EF029BE15EF6EF09F
:10DC260017EF6EF087EF6EF028C01EF0FF0E1F6E26
:10DC3600FF0E206E7F0E216E000E226E1E6626EFF0
:10DC46006EF02EEF6EF022342232213220321F3255
:10DC56001E2E21EF6EF01FC024F020C025F021C03B
:10DC660026F022C027F024502A141E6E25502B14AD
:10DC76001F6E26502C14206E27502D14216E1E5018
:10DC86001F1020102110D8A44BEF6EF04DEF6EF050
:10DC96004FEF6EF006EF6EF02AC01EF02BC01FF09D
:10DCA6002CC020F02DC021F0200E5FEF6EF0D89032
:10DCB600213220321F321E32E82E5AEF6EF01E50ED
:10DCC6001F1020102110D8B46BEF6EF06DEF6EF0C0
:10DCD60075EF6EF024502A2625502B2226502C2232
:10DCE60027502D22241C1E6E251C1F6E261C206EFE
:10DCF600271C216E1E502A161F502B1620502C163C
:10DD060021502D16CBEF6EF02AC01EF02BC01FF04F
:10DD16002CC020F02DC021F0200E97EF6EF0D89089
:10DD2600213220321F321E32E82E92EF6EF01E5044
:10DD36001F1020102110D8A4A3EF6EF0A5EF6EF0EF
:10DD4600AFEF6EF0000E2A6E000E2B6E000E2C6EDC
:10DD5600000E2D6ECBEF6EF0D8902A341E6E2B344B
:10DD66001F6E2C34206E2D34216E1E501F10201075
:10DD76002110D8B4C1EF6EF0C3EF6EF0CBEF6EF0AA
:10DD8600000E2A6E000E2B6E800E2C6EBF0E2D6EB0
:10DD96002AC01AF02BC01BF02CC01CF02DC01DF0A1
:10DDA60012000450800B116E04500424186E03AE4A
:10DDB600DFEF6EF0E1EF6EF0E2EF6EF018801850D4
:10DDC600D8B4E8EF6EF0EAEF6EF0FFEF6EF01828C9
:10DDD600D8A4F0EF6EF0F2EF6EF0FAEF6EF0000EF0
:10DDE600016E000E026E000E036E000E046E038EB0
:10DDF600000E046E07EF6FF0000E016E000E026E4D
:10DE0600000E036E000E046E0850800B111A0850A7
:10DE16000824196E07AE12EF6FF014EF6FF015EFCE
:10DE26006FF019801950D8B41BEF6FF01DEF6FF02B
:10DE360032EF6FF01928D8A423EF6FF025EF6FF0BB
:10DE46002DEF6FF0000E056E000E066E000E076ECB
:10DE5600000E086E078E000E086E3AEF6FF0000E89
:10DE6600056E000E066E000E076E000E086E05505B
:10DE7600061007100810D8A443EF6FF045EF6FF0B7
:10DE86005DEF6FF0000E016E000E026E000E036E67
:10DE9600000E046E800E03127F0E0412115004123F
:10DEA60001C001F002C002F003C003F004C004F098
:10DEB600A0EF70F01850D8A463EF6FF065EF6FF025
:10DEC6006FEF6FF0000E016E000E026E000E036E15
:10DED600000E046EA0EF70F0195018C009F00A6A1F
:10DEE600095E000E0A5A7F0E0924126E000E0A20E1
:10DEF600136E01C00DF002C00EF003C00FF004C097
:10DF060010F0000E016E000E026E000E036E000E83
:10DF1600046E000E146E000E156E000E166E000EC8
:10DF2600176E000E196ED0EF6FF01950D8B49EEF31
:10DF36006FF0A0EF6FF0B7EF6FF0D8900D360E369A
:10DF46000F361036D890013602360336043617AE31
:10DF5600AFEF6FF0B1EF6FF0B2EF6FF00180D890D6
:10DF6600143615361636173605500D5C06500E5803
:10DF760007500F5808501058D8A0C4EF6FF0C6EFDE
:10DF86006FF0CFEF6FF0178C05500D5E06500E5AEE
:10DF960007500F5A0850105A192A190E1964D6EF4D
:10DFA6006FF0D8EF6FF098EF6FF00D500E100F1066
:10DFB6001010D8B4E1EF6FF0E3EF6FF0FBEF6FF006
:10DFC6001480FBEF6FF0D890013602360336043624
:10DFD60017AEF0EF6FF0F2EF6FF0F3EF6FF0018036
:10DFE600D89014361536163617361206D8A01306EC
:10DFF60003AE00EF70F002EF70F0E6EF6FF0000E88
:10E00600196E17AE09EF70F00BEF70F02FEF70F08E
:10E01600FF0E1414096EFF0E15140A6EFF0E161469
:10E026000B6E7F0E17140C6E09500A100B100C1095
:10E03600D8B420EF70F022EF70F026EF70F0010EEA
:10E04600196E2FEF70F001A02BEF70F02DEF70F02E
:10E056002FEF70F022EF70F01950D8B435EF70F052
:10E0660037EF70F05BEF70F0010E0126000E022212
:10E076000322042204A042EF70F044EF70F05BEF3D
:10E0860070F001C009F002C00AF003C00BF004C032
:10E096000CF00C340C320B320A32093209C001F092
:10E0A6000AC002F00BC003F00CC004F0124A132A97
:10E0B60013BE66EF70F0135008E11228D8A066EF81
:10E0C60070F068EF70F073EF70F0000E136E126868
:10E0D600000E016E000E026E000E036E000E046E40
:10E0E60013BE80EF70F0135006E11204D8B07EEF35
:10E0F60070F080EF70F08EEF70F0000E136E000E71
:10E10600126E000E016E000E026E000E036E000E01
:10E11600046E000E116E12C018F018A095EF70F084
:10E1260097EF70F09AEF70F0038E9BEF70F0039EFE
:10E13600D8901830046E51EF6FF012000450800B27
:10E146000D6E04500424136E03AEACEF70F0AEEF08
:10E1560070F0AFEF70F013801350D8B4B5EF70F0D5
:10E16600B7EF70F0CAEF70F01328D8A4BDEF70F0C7
:10E17600BFEF70F0C7EF70F0000E016E000E026E7A
:10E18600000E036E000E046E038ED2EF70F0000ECA
:10E19600016E000E026E000E036E000E046E085035
:10E1A600800B0D1A08500824126E07AEDDEF70F0D2
:10E1B600DFEF70F0E0EF70F012801250D8B4E6EFA7
:10E1C60070F0E8EF70F0FBEF70F01228D8A4EEEFD5
:10E1D60070F0F0EF70F0F8EF70F0000E056E000EC4
:10E1E600066E000E076E000E086E078E03EF71F0C6
:10E1F600000E056E000E066E000E076E000E086E0F
:10E206001250D8B409EF71F00BEF71F013EF71F003
:10E216001350D8A411EF71F013EF71F01DEF71F0E8
:10E22600000E016E000E026E000E036E000E046EEE
:10E23600C7EF72F0075001026F00CCFF18F06F00B5
:10E24600D0FF19F018500E6E0F6A106A116A195035
:10E25600146E156A166A176A065002026F00CCFF22
:10E2660018F06F00D0FF19F018500E26000E0F227E
:10E276001022112219501426000E152216221722DA
:10E28600055003026F00CCFF18F06F00D0FF19F0A5
:10E2960018500E26000E0F22102211221950142695
:10E2A600000E15221622172210C011F00FC010F012
:10E2B6000EC00FF00E6A055002026F00CCFF18F078
:10E2C6006F00D0FF19F018500E2619500F22000EBD
:10E2D6001022000E1122065001026F00CCFF18F02A
:10E2E6006F00D0FF19F018500E2619500F22000E9D
:10E2F6001022000E112210C011F00FC010F00EC037
:10E306000FF00E6A055001026F00CCFF18F06F0087
:10E31600D0FF19F018500E2619500F22000E1022A9
:10E32600000E1122075002026F00CCFF18F06F009A
:10E33600D0FF19F01850142619501522000E162277
:10E34600000E1722065003026F00CCFF18F06F0074
:10E35600D0FF19F01850142619501522000E162257
:10E36600000E1722075003026F00CCFF18F06F0053
:10E37600D0FF19F01850096E19500A6E0B6A0C6A14
:10E386000BC00CF00AC00BF009C00AF0096A09506C
:10E3960014260A5015220B5016220C5017220EC0B6
:10E3A60009F00FC00AF010C00BF011C00CF0190EE6
:10E3B600E2EF71F0D8900C320B320A320932E82EB5
:10E3C600DDEF71F0095014260A5015220B50162263
:10E3D6000C50172210C011F00FC010F00EC00FF035
:10E3E6000E6A125013C009F00A6A0926000E0A22A4
:10E3F600820E0924186EFF0E0A20196E18EF72F0AD
:10E40600D890143615361636173611AE0DEF72F053
:10E416000FEF72F010EF72F01480D8900E360F36B0
:10E42600103611361806D8A0190616AE1DEF72F072
:10E436001FEF72F003EF72F0000E126E11AE26EFB0
:10E4460072F028EF72F04CEF72F0FF0E0E14096EA8
:10E45600FF0E0F140A6EFF0E10140B6E7F0E1114B2
:10E466000C6E09500A100B100C10D8B43DEF72F068
:10E476003FEF72F043EF72F0010E126E4CEF72F046
:10E4860014A048EF72F04AEF72F04CEF72F03FEFD3
:10E4960072F01250D8B452EF72F054EF72F078EF77
:10E4A60072F0010E1426000E15221622172217A04E
:10E4B6005FEF72F061EF72F078EF72F014C009F05E
:10E4C60015C00AF016C00BF017C00CF00C340C3255
:10E4D6000B320A32093209C014F00AC015F00BC01B
:10E4E60016F00CC017F0184A192A19BE83EF72F0FD
:10E4F600195008E11828D8A083EF72F085EF72F062
:10E506008FEF72F0000E146E000E156E800E166EF2
:10E516007F0E176EBDEF72F019BE9CEF72F01950A8
:10E5260006E11804D8B09AEF72F09CEF72F0A8EFEB
:10E5360072F0000E146E000E156E000E166E000EB2
:10E54600176E000E0D6EBDEF72F018C013F0FF0EC1
:10E556001416FF0E15167F0E1616000E171613A0AC
:10E56600B7EF72F0B9EF72F0BAEF72F0168ED8907C
:10E576001330176E0D50171214C001F015C002F0BB
:10E5860016C003F017C004F012000450800B0D6E85
:10E59600045004240F6E03AED3EF72F0D5EF72F081
:10E5A600D6EF72F00F800F50D8B4DCEF72F0DEEFCA
:10E5B60072F0F3EF72F00F28D8A4E4EF72F0E6EFF2
:10E5C60072F0EEEF72F0000E016E000E026E000E9B
:10E5D600036E000E046E038E000E046EFBEF72F0E7
:10E5E600000E016E000E026E000E036E000E046E2B
:10E5F6000850800B0E6E0D500E18D8B405EF73F050
:10E6060007EF73F008EF73F00D8C085008240E6EB8
:10E6160007AE10EF73F012EF73F013EF73F00E8086
:10E626000E50D8B419EF73F01BEF73F030EF73F0A0
:10E636000E28D8A421EF73F023EF73F02BEF73F0BD
:10E64600000E056E000E066E000E076E000E086EBA
:10E65600078E000E086E38EF73F0000E056E000E82
:10E66600066E000E076E000E086E0F500E5CD8B0D8
:10E676003FEF73F041EF73F068EF73F00DAC46EFC8
:10E6860073F048EF73F04AEF73F0800E0D1A0FC067
:10E6960010F00EC00FF010C00EF001C010F005C053
:10E6A60001F010C005F002C010F006C002F010C064
:10E6B60006F003C010F007C003F010C007F004C056
:10E6C60010F008C004F010C008F0000E106E0F50D5
:10E6D6000EC009F00A6A095E000E0A5A0ABE7DEFEC
:10E6E60073F00A5009E11A0E095CD8A07DEF73F0A9
:10E6F6007FEF73F0B6EF73F00150021003100410B1
:10E70600D8A488EF73F08BEF73F0010E8CEF73F0E3
:10E71600000E106E000E016E000E026E000E036EED
:10E72600000E046E0EC00FF0BFEF73F010A09EEF48
:10E7360073F0A0EF73F0A6EF73F0D89010300109D4
:10E74600106EA8EF73F0D890103201A0ADEF73F001
:10E75600AFEF73F0B0EF73F0108E0434043203326F
:10E76600023201320F2A0E500F5CD8A0BDEF73F0B3
:10E77600BFEF73F099EF73F00DBCC4EF73F0C6EF03
:10E7860073F006EF74F00F50D8A4CCEF73F0CEEF11
:10E7960073F0D8EF73F0000E016E000E026E000EDD
:10E7A600036E000E046E27EF75F005500126065025
:10E7B6000222075003220850042204A0E5EF73F05A
:10E7C600E7EF73F093EF74F010A0ECEF73F0EEEF59
:10E7D60073F0F4EF73F0D89010300109106EF6EF75
:10E7E60073F0D890103201A0FBEF73F0FDEF73F0D9
:10E7F600FEEF73F0108E043404320332023201321B
:10E806000F2A93EF74F00550015C0650025807502A
:10E8160003580450800A096E0850800A0958D8B077
:10E8260017EF74F019EF74F044EF74F00150055CC3
:10E83600096E025006580A6E035007580B6E0450B4
:10E8460008580C6EFF0E0924016EFF0E0A20026E98
:10E85600FF0E0B20036EFF0E0C20046E800E0D1AA9
:10E86600106C1050D8A43AEF74F03CEF74F04CEFF3
:10E8760074F0010E0126000E0222032204224CEF40
:10E8860074F00550015E0650025A0750035A0850AC
:10E89600045A0150021003100410D8A455EF74F066
:10E8A60057EF74F08CEF74F01050D8A45DEF74F04D
:10E8B6005FEF74F08CEF74F0000E016E000E026EC6
:10E8C600000E036E000E046E27EF75F0D890013629
:10E8D60002360336043610AE73EF74F075EF74F03B
:10E8E60076EF74F0018010A07BEF74F07DEF74F08A
:10E8F60081EF74F0D880103683EF74F0D89010361C
:10E906000F50D8B489EF74F08BEF74F08CEF74F07D
:10E916000F0603AE91EF74F093EF74F069EF74F0A5
:10E92600000E0E6E10AE9AEF74F09CEF74F0B4EF1A
:10E9360074F010C009F07F0E0916D8B4A5EF74F074
:10E94600A7EF74F0ABEF74F0010E0E6EB4EF74F037
:10E9560001A0B0EF74F0B2EF74F0B4EF74F0A7EF6B
:10E9660074F00E50D8B4BAEF74F0BCEF74F0E7EF61
:10E9760074F0010E0126000E02220322042204A0D6
:10E98600C7EF74F0C9EF74F0E7EF74F001C009F057
:10E9960002C00AF003C00BF004C00CF00C340C32B9
:10E9A6000B320A32093209C001F00AC002F00BC06C
:10E9B60003F00CC004F00F28D8B4E4EF74F0E6EFCF
:10E9C60074F0E7EF74F00F2A0F28D8B4EDEF74F067
:10E9D600EFEF74F0F7EF74F00F50D8A4F5EF74F082
:10E9E600F7EF74F009EF75F0000E016E000E026E7F
:10E9F600000E036E000E046E0F50D8A405EF75F0DE
:10EA060007EF75F009EF75F0000E0D6E0FA00EEF13
:10EA160075F010EF75F013EF75F0038E14EF75F0C7
:10EA2600039ED8900F30046E0DAE1CEF75F01EEFEE
:10EA360075F01FEF75F0048E01C001F002C002F000
:10EA460003C003F004C004F012006000F3F0D9FF25
:10EA56006000F7F0DAFF6F007BFFF6FF6F0077FFCD
:10EA6600F7FFF86A0800F550250AD8A43DEF75F0BF
:10EA76003FEF75F0CCEF78F06000F3F0D9FF60005F
:10EA8600F7F0DAFFDE2A000EDD22000E0001CD6F60
:10EA9600000ECC6FCCC0D0F0CDC0D1F0CE69CF691E
:10EAA600000E456E000E446EABEF75F00001D0818E
:10EAB6006000F3F0D9FF6000F7F0DAFFDE2A000EFF
:10EAC600DD22ABEF75F00001D0835BEF75F000013E
:10EAD600D0855BEF75F00001D0875BEF75F0000124
:10EAE600D0895BEF75F0000E456E010E446EABEFFC
:10EAF60075F06000F3F0D9FF6000F7F0DAFF6F0001
:10EB06007BFFF6FF6F0077FFF7FFF86A0800F55006
:10EB1600406E416A4150000AD8B494EF75F076EF22
:10EB260075F04050200AD8B46EEF75F0030AD8B4D9
:10EB360072EF75F0080AD8B46AEF75F0060AD8B411
:10EB460059EF75F01D0AD8B466EF75F076EF75F0DB
:10EB560044504510D8B4B2EF75F0B4EF75F07CEFC1
:10EB660075F00001D0A1BAEF75F0BCEF75F0BDEFFE
:10EB760075F0D0936000F3F0D9FF6000F7F0DAFF8C
:10EB86006F007BFFF6FF6F0077FFF7FFF86A08005C
:10EB9600F5502A0AD8A4D2EF75F0D4EF75F007EF36
:10EBA60076F06000F3F0D9FF6000F7F0DAFFDE2AB6
:10EBB600000EDD226000FBF0D9FF6000FFF0DAFFF7
:10EBC6006F007CFF40F0020EDE266F007CFF41F0F6
:10EBD600000EDD22600003F1D9FF600007F1DAFFC5
:10EBE6006F0078FFCCF06F0074FFCDF0CDBF00EF63
:10EBF60076F0FEEF75F055EF76F0D081CC6DCD1F37
:10EC0600D8B0CD2B55EF76F06000F3F0D9FF600059
:10EC1600F7F0DAFF6F0078FF08F06F0074FF09F075
:10EC2600F4EC6CF008C0CCF009C0CDF024EF76F01F
:10EC36006000F3F0D9FF6000F7F0DAFFDE2A000E7D
:10EC4600DD22D00E406EFF0E416E6000F3F0D9FF5C
:10EC56006000F7F0DAFF6F007BFFF6FF6F0077FFCB
:10EC6600F7FFF86A0800F550426E436A40504226A4
:10EC76004150432243500AE10A0E425CD8A046EFB7
:10EC860076F049EF76F0010E4AEF76F0000E466E0A
:10EC9600476A46504710D8A453EF76F055EF76F002
:10ECA6001BEF76F06000F3F0D9FF6000F7F0DAFFB3
:10ECB6006F007BFFF6FF6F0077FFF7FFF86A08002B
:10ECC600F5502E0AD8A46AEF76F06CEF76F006EFD0
:10ECD60077F0000E0001CF6F000ECE6F6000F3F0EC
:10ECE600D9FF6000F7F0DAFFDE2A000EDD226000B1
:10ECF600F3F0D9FF6000F7F0DAFF6F007BFFF6FF55
:10ED06006F0077FFF7FFF86A0800F5502A0AD8A4C3
:10ED16008FEF76F091EF76F0B8EF76F06000F3F0D3
:10ED2600D9FF6000F7F0DAFFDE2A000EDD22600070
:10ED3600FBF0D9FF6000FFF0DAFF6F007CFF40F0C8
:10ED4600020EDE266F007CFF41F0000EDD22600021
:10ED560003F1D9FF600007F1DAFF6F0078FFCEF00C
:10ED66006F0074FFCFF006EF77F06000F3F0D9FF85
:10ED76006000F7F0DAFF6F0078FF08F06F0074FFAD
:10ED860009F0F4EC6CF008C0CEF009C0CFF0D5EF76
:10ED960076F06000F3F0D9FF6000F7F0DAFFDE2AC4
:10EDA600000EDD22D00E406EFF0E416E6000F3F0C5
:10EDB600D9FF6000F7F0DAFF6F007BFFF6FF6F0008
:10EDC60077FFF7FFF86A0800F550426E436A405035
:10EDD60042264150432243500AE10A0E425CD8A023
:10EDE600F7EF76F0FAEF76F0010EFBEF76F0000E15
:10EDF600486E496A48504910D8A404EF77F006EFE8
:10EE060077F0CCEF76F06000F3F0D9FF6000F7F012
:10EE1600DAFF6F007BFFF6FF6F0077FFF7FFF86AF8
:10EE26000800F550076E086A98EC67F00750506EB8
:10EE36005050D8B421EF77F023EF77F069EF77F0F1
:10EE46006000F3F0D9FF6000F7F0DAFF6F0078FF9B
:10EE560040F06F0074FF41F0010E4026000E412283
:10EE6600600003F1F6FF600007F1F7FFF86A08009B
:10EE7600F550076E086A98EC67F00750516E5150CE
:10EE8600D8B448EF77F04AEF77F069EF77F0600093
:10EE9600F3F0D9FF6000F7F0DAFF6F0078FF40F07B
:10EEA6006F0074FF41F0020E4026000E4122600002
:10EEB60003F1F6FF600007F1F7FFF86A0800F55066
:10EEC600076E086A98EC67F00750526E660E501887
:10EED600D8A470EF77F072EF77F0C4EF77F06000A8
:10EEE600F3F0D9FF6000F7F0DAFF6F007BFFF6FF63
:10EEF6006F0077FFF7FFF86A08006F00D4FF53F042
:10EF06006000F3F0D9FF6000F7F0DAFFDE2A000EAA
:10EF1600DD226000FBF0D9FF6000FFF0DAFF6F0032
:10EF26007CFF40F0040EDE266F007CFF41F0000EF1
:10EF3600DD22600003F1D9FF600007F1DAFF6F0000
:10EF460078FF4CF06F0078FF4DF06F0078FF4EF0C1
:10EF56006F0078FF4FF03AC02EF03BC02FF04CC048
:10EF660030F04DC031F04EC032F04FC033F053C0D8
:10EF760034F0EFEC78F02EC03AF02FC03BF0EEEF15
:10EF860078F0500E016E000E026EF70E036EFF0E45
:10EF9600046E000E066E020E056E38EC6AF0015025
:10EFA6000210D8A4D9EF77F0DBEF77F08DEF78F089
:10EFB6006000F3F0D9FF6000F7F0DAFF6F0078FF2A
:10EFC60040F06F0074FF41F0010E4026000E412212
:10EFD600600003F1F6FF600007F1F7FFF86A08002A
:10EFE6006F00D4FF53F0BF0E406EFF0E416E6000FF
:10EFF600F3F0D9FF6000F7F0DAFF6F007BFFF6FF52
:10F006006F0077FFF7FFF86A0800F550426E436A13
:10F01600405042264150432243500AE11A0E425CB8
:10F02600D8A018EF78F01BEF78F0010E1CEF78F0FF
:10F03600000E4A6E4B6A4A504B10D8B425EF78F052
:10F0460027EF78F04BEF78F06000FBF0D9FF600017
:10F05600FFF0DAFF6F007CFF40F0040EDE266F0043
:10F066007CFF41F0000EDD22600003F1D9FF600055
:10F0760007F1DAFF6F0078FF4CF06F0078FF4DF074
:10F086006F0078FF4EF06F0078FF4FF06DEF78F06D
:10F096006000FBF0D9FF6000FFF0DAFF6F007CFF35
:10F0A60040F0040EDE266F007CFF41F0000EDD22EC
:10F0B600600003F1D9FF600007F1DAFF6F0078FF07
:10F0C6004CF06F0078FF4DF06F0078FF4EF06F0048
:10F0D60078FF4FF0020E6000F3F0D9FF6000F7F002
:10F0E600DAFFDE26000EDD223AC02EF03BC02FF0FE
:10F0F6004CC030F04DC031F04EC032F04FC033F04E
:10F1060053C034F0EFEC78F02EC03AF02FC03BF04D
:10F11600EEEF78F06000F3F0D9FF6000F7F0DAFF69
:10F126006F007BFFF6FF6F0077FFF7FFF86A0800B6
:10F13600F550250AD8A4A2EF78F0A4EF78F0BDEF39
:10F1460078F06000F3F0D9FF6000F7F0DAFFDE2A0E
:10F15600000EDD22000E046E250E036E3AC005F089
:10F166003BC006F07BEC68F0000E3B6E010E3A6E7B
:10F17600EEEF78F06000F3F0D9FF6000F7F0DAFF09
:10F18600DE2A000EDD22000E3B6E000E3A6EEEEF1A
:10F1960078F06000F3F0D9FF6000F7F0DAFF6F0057
:10F1A6007BFFF6FF6F0077FFF7FFF86A0800F55060
:10F1B600036E046A3AC005F03BC006F07BEC68F0CB
:10F1C6006000F3F0D9FF6000F7F0DAFFDE2A000EE8
:10F1D600DD22B7EF78F01200000E00017B6F000E03
:10F1E6007A6F30C08CF031C08DF032C08EF033C0F3
:10F1F6008FF08FBF03EF79F001EF79F019EF79F017
:10F20600000E7B6F010E7A6F8CC001F08DC002F08C
:10F216008EC003F08FC004F0A6EC66F001C08CF03F
:10F2260002C08DF003C08EF004C08FF0000E000106
:10F23600936F000E926FCCC07EF0CDC07FF07A51F6
:10F246007B11D8A429EF79F02BEF79F032EF79F022
:10F25600D0A530EF79F032EF79F04CEF79F07A51B2
:10F266007B11D8A439EF79F03BEF79F041EF79F0D3
:10F27600000E616F2B0E606F45EF79F0000E616F27
:10F286002D0E606F60C000F1924B932B7E07D8A0C5
:10F296007F078CC001F08DC002F08EC003F08FC0D6
:10F2A60004F0B2EC6AF001040210D8A45DEF79F024
:10F2B6005FEF79F0B6EF79F0BF0E356EFF0E366E62
:10F2C6003450376E386A3550372636503822385023
:10F2D6000AE11A0E375CD8A073EF79F076EF79F071
:10F2E600010E77EF79F0000E0001626F636B6251D9
:10F2F6006311D8B481EF79F083EF79F091EF79F06B
:10F30600000E9225016E010E9321026EE70E036E2A
:10F31600FF0E046EFCEC67F09DEF79F0000E92256F
:10F32600016E010E9321026EEF0E036EFF0E046E48
:10F33600FCEC67F00001FD0E7E27FF0E7F232EC03A
:10F3460013F02FC014F0000E156E010E166E7EC05F
:10F3560017F07FC018F0D5EC69F013C02EF014C07A
:10F366002FF043EF7FF08CC001F08DC002F08EC00D
:10F3760003F08FC004F0B2EC6AF001500210D8A47A
:10F38600C7EF79F0C9EF79F020EF7AF0BF0E356E4E
:10F39600FF0E366E3450376E386A35503726365083
:10F3A600382238500AE11A0E375CD8A0DDEF79F022
:10F3B600E0EF79F0010EE1EF79F0000E0001646FE5
:10F3C600656B64516511D8B4EBEF79F0EDEF79F028
:10F3D600FBEF79F0000E9225016E010E9321026E6D
:10F3E600EB0E036EFF0E046EFCEC67F007EF7AF08F
:10F3F600000E9225016E010E9321026EF30E036E2E
:10F40600FF0E046EFCEC67F00001FD0E7E27FF0E7A
:10F416007F232EC013F02FC014F0000E156E010EC0
:10F42600166E7EC017F07FC018F0D5EC69F013C0D9
:10F436002EF014C02FF043EF7FF0000E0001946F02
:10F44600000E956F800E966F3F0E976F000E916FB0
:10F45600000E906F8CC001F08DC002F08EC003F0DC
:10F466008FC004F0000E056E000E066E000E076ECD
:10F47600000E086EC6EC68F0D8B044EF7AF046EF9E
:10F486007AF0C9EF7AF065EF7AF094C001F095C092
:10F4960002F096C003F097C004F0000E056E000E51
:10F4A600066E200E076E410E086EA1EC70F001C0CC
:10F4B60094F002C095F003C096F004C097F00001E6
:10F4C600904B912B8CC01AF08DC01BF08EC01CF097
:10F4D6008FC01DF0000E056E000E066E200E076E24
:10F4E600410E086E94C001F095C002F096C003F07C
:10F4F60097C004F0A1EC70F001C01EF002C01FF02E
:10F5060003C020F004C021F031EC6BF0D8B08EEFD0
:10F516007AF090EF7AF048EF7AF0B0EF7AF094C094
:10F5260001F095C002F096C003F097C004F0000EFB
:10F53600056E000E066E200E076E410E086ED4ECA8
:10F546006EF001C094F002C095F003C096F004C0BE
:10F5560097F000019007D8A091078CC01AF08DC0D3
:10F566001BF08EC01CF08FC01DF094C01EF095C01D
:10F576001FF096C020F097C021F031EC6BF0D8A0B8
:10F58600C7EF7AF0C9EF7AF092EF7AF034C007F05D
:10F59600086A98EC67F007500001816F81C080F01F
:10F5A600670E8119D8A4DAEF7AF0DCEF7AF002EF71
:10F5B6007BF0CE51CF11D8A4E3EF7AF0E5EF7AF0E5
:10F5C600E9EF7AF0000ECF6F010ECE6FCFBFF6EFE8
:10F5D6007AF0CF5106E1CE05D8B0F4EF7AF0F6EF27
:10F5E6007AF0FCEF7AF0000E7D6F060E7C6F0BEF63
:10F5F6007BF0CEC07CF0CFC07DF00BEF7BF0CFBFB1
:10F6060007EF7BF009EF7BF0F6EF7AF0FCEF7AF08C
:10F61600670E8119D8A412EF7BF014EF7BF043EF4D
:10F626007BF091AF22EF7BF0FC0E905DFF0E9159BF
:10F63600D8A020EF7BF022EF7BF041EF7BF0FF0EAE
:10F64600356EFF0E366E7CC037F07DC038F0355013
:10F656003726365038229051375C3850800A396E3A
:10F666009151800A3958D8A03BEF7BF03DEF7BF0F3
:10F6760041EF7BF0660E806F43EF7BF0650E806F87
:10F686007CC072F07DC073F0670E8119D8A44EEF6E
:10F696007BF050EF7BF060EF7BF0660E8019D8A40C
:10F6A60057EF7BF059EF7BF062EF7BF091BF60EF95
:10F6B6007BF05EEF7BF062EF7BF0724B732B660E96
:10F6C6008019D8A469EF7BF06BEF7BF08BEF7BF0B2
:10F6D60091BF72EF7BF070EF7BF07EEF7BF0000E58
:10F6E600946F000E956F800E966F3F0E976F000E0B
:10F6F600916F000E906F670E8119D8B485EF7BF07D
:10F7060087EF7BF08BEF7BF090517227915173233B
:10F71600000E8B6F000E8A6F8CC082F08DC083F056
:10F726008EC084F08FC085F094C074F095C075F0DB
:10F7360096C076F097C077F01CEF7CF082C001F09F
:10F7460083C002F084C003F085C004F094C005F0C5
:10F7560095C006F096C007F097C008F0D4EC6EF09E
:10F7660001C01AF002C01BF003C01CF004C01DF05B
:10F77600CBEC6DF01AC086F01BC087F01CC088F079
:10F786001DC089F086C001F087C002F088C003F072
:10F7960089C004F0B3EC6BF001C078F002C079F0D8
:10F7A60082C01AF083C01BF084C01CF085C01DF017
:10F7B60094C005F095C006F096C007F097C008F013
:10F7C60086C001F087C002F088C003F089C004F04B
:10F7D600A1EC70F001C01EF002C01FF003C020F0C3
:10F7E60004C021F01DEC67F01AC082F01BC083F044
:10F7F6001CC084F01DC085F094C001F095C002F0D5
:10F8060096C003F097C004F0000E056E000E066E5B
:10F81600200E076E410E086ED4EC6EF001C094F017
:10F8260002C095F003C096F004C097F000018A4B21
:10F836008B2B72518A5D8B51800A356E7351800A0B
:10F846003558D8A029EF7CF02BEF7CF0A1EF7BF0A8
:10F8560094C001F095C002F096C003F097C004F082
:10F86600000E056E000E066EA00E076E400E086EA8
:10F87600A1EC70F001C086F002C087F003C088F0EA
:10F8860004C089F082C01AF083C01BF084C01CF04B
:10F8960085C01DF086C01EF087C01FF088C020F00E
:10F8A60089C021F031EC6BF0D8B05CEF7CF05EEFF4
:10F8B6007CF069EF7CF0000E0001866F000E876F0A
:10F8C600000E886F000E896F92EF7CF082C001F007
:10F8D60083C002F084C003F085C004F086C005F042
:10F8E60087C006F088C007F089C008F0C6EC68F04B
:10F8F600D8A080EF7CF082EF7CF092EF7CF00001E4
:10F9060078B188EF7CF08AEF7CF092EF7CF0000E05
:10F91600866F000E876F000E886F000E896F8CC091
:10F9260001F08DC002F08EC003F08FC004F086C0D7
:10F9360005F087C006F088C007F089C008F0C8EC5B
:10F9460072F001C082F002C083F003C084F004C0EC
:10F9560085F082C01AF083C01BF084C01CF085C0FD
:10F966001DF0000E056E000E066E200E076E410E8F
:10F97600086E74C001F075C002F076C003F077C05F
:10F9860004F0A1EC70F001C01EF002C01FF003C02D
:10F9960020F004C021F031EC6BF0D8A0D5EF7CF05C
:10F9A600D7EF7CF000EF7DF00001904B912B74C0F7
:10F9B60001F075C002F076C003F077C004F0000EC7
:10F9C600056E000E066E200E076E410E086EA1EC47
:10F9D60070F001C074F002C075F003C076F004C088
:10F9E60077F0660E00018019D8A4FCEF7CF0FEEFDC
:10F9F6007CF000EF7DF0724B732B74C094F075C0F1
:10FA060095F076C096F077C097F0650E00018019E4
:10FA1600D8B410EF7DF012EF7DF018EF7DF090C0B6
:10FA260070F091C071F01CEF7DF0000E716F000E4A
:10FA3600706F000E6F6F000E6E6F000E6D6F000E12
:10FA46006C6F000E8B6F000E8A6F17EF7EF082C010
:10FA560001F083C002F084C003F085C004F094C0B6
:10FA660005F095C006F096C007F097C008F0D4ECF4
:10FA76006EF001C01AF002C01BF003C01CF004C0F7
:10FA86001DF0CBEC6DF01AC086F01BC087F01CC0D1
:10FA960088F01DC089F086C001F087C002F088C0DA
:10FAA60003F089C004F0B3EC6BF001C078F002C03B
:10FAB60079F00001D0B962EF7DF064EF7DF081EF5F
:10FAC6007DF078517911D8A46BEF7DF06DEF7DF064
:10FAD60081EF7DF0670E8119D8A474EF7DF076EF83
:10FAE6007DF081EF7DF071BF7DEF7DF07BEF7DF0E6
:10FAF60081EF7DF06C4B6D2BCBEF7DF06E516F116E
:10FB0600D8A488EF7DF08AEF7DF0B4EF7DF071BF69
:10FB160091EF7DF08FEF7DF0B4EF7DF0000E922532
:10FB2600D96E010E9321DA6E2E0EDF6E924B932B59
:10FB36007E07D8A07F07000E6F6F010E6E6FB4EFC1
:10FB46007DF0000E9225D96E010E9321DA6E300EED
:10FB5600DF6E924B932B7E07D8A07F076C07D8A049
:10FB66006D076C516D11D8A4BBEF7DF0BDEF7DF034
:10FB7600A4EF7DF0000E9225D96E010E9321DA6E68
:10FB86007851300FDF6E924B932B7E07D8A07F07FC
:10FB960082C01AF083C01BF084C01CF085C01DF023
:10FBA60094C005F095C006F096C007F097C008F01F
:10FBB60086C001F087C002F088C003F089C004F057
:10FBC600A1EC70F001C01EF002C01FF003C020F0CF
:10FBD60004C021F01DEC67F01AC082F01BC083F050
:10FBE6001CC084F01DC085F094C001F095C002F0E1
:10FBF60096C003F097C004F0000E056E000E066E68
:10FC0600200E076E410E086ED4EC6EF001C094F023
:10FC160002C095F003C096F004C097F0000170078B
:10FC2600D8A071078A4B8B2B72518A5D8B51800A43
:10FC3600356E7351800A3558D8B024EF7EF026EF22
:10FC46007EF034EF7EF093BF32EF7EF0935109E100
:10FC56004B0E925DD8A032EF7EF034EF7EF02AEFA5
:10FC66007DF06E516F11D8A43BEF7EF03DEF7EF034
:10FC76004EEF7EF0D0A942EF7EF044EF7EF04EEFDD
:10FC86007EF0000E9225D96E010E9321DA6E2E0EAD
:10FC9600DF6E924B932B000E9225D96E010E9321A7
:10FCA600DA6E000EDF6E650E8019D8A45DEF7EF069
:10FCB6005FEF7EF031EF7FF0000E8B6F4F0E8A6F95
:10FCC600000E8A25D96E010E8B21DA6E000EDF6ECC
:10FCD600000E7B6F000E7A6F91BF76EF7EF074EFA9
:10FCE6007EF07EEF7EF0000E7B6F010E7A6F906DD8
:10FCF600911FD8B0912B000E7D6F020E7C6FAFEF77
:10FD06007EF08A07D8A08B07000E8A25D96E010ED1
:10FD16008B21DA6E90C001F091C002F0000E046EE5
:10FD26000A0E036E1BEC69F00150300FDF6E90C0B7
:10FD360001F091C002F0000E046E0A0E036E73EC21
:10FD460069F001C090F002C091F000017C07D8A0D4
:10FD56007D077E07D8A07F0790519111D8A4B6EFF2
:10FD66007EF0B8EF7EF084EF7EF07DBFC5EF7EF0CB
:10FD76007D5106E17C05D8B0C3EF7EF0C5EF7EF07D
:10FD860084EF7EF08A07D8A08B077A517B11D8A41E
:10FD9600CFEF7EF0D1EF7EF0D7EF7EF0000E676FEB
:10FDA6002B0E666FDBEF7EF0000E676F2D0E666F13
:10FDB600000E8A25D96E010E8B21DA6E60009BF14A
:10FDC600DFFF7E07D8A07F078A07D8A08B07BF0E64
:10FDD600356EFF0E366E3450376E386A355037261C
:10FDE6003650382238500AE11A0E375CD8A0FEEF9A
:10FDF6007EF001EF7FF0010E02EF7FF0000E6A6FDA
:10FE06006B6B6A516B11D8A40BEF7FF00DEF7FF08F
:10FE160013EF7FF0000E696F650E686F17EF7FF0C6
:10FE2600000E696F450E686F000E8A25D96E010EA9
:10FE36008B21DA6E6000A3F1DFFF7E07D8A07F0773
:10FE4600000E9225016E010E9321026E000E8A2588
:10FE5600036E010E8B21046EFCEC67F02EC013F0CE
:10FE66002FC014F0000E156E010E166E7EC017F030
:10FE76007FC018F0D5EC69F013C02EF014C02FF037
:10FE86001200000A0D2048692009206D79200920FA
:10FE96006E616D6520092069732009206973200948
:10FEA600090909206D696B652E200A0D20576861C6
:10FEB600742009206973200A0D0A0D0A0D2009090C
:10FEC60020796F7572732009200A0D203F000A0DF4
:10FED60020303132333435363738393031323334F5
:10FEE60035363738393031323334353637383930BC
:10FEF60031323334353637383930313233343536BA
:10FF060037383930313233343536373839200A0DFF
:10FF1600000A0D2054686520616E7377657220773C
:10FF2600697468203031322E33206973203A2025D7
:10FF36003031322E336620000A0D20546865206168
:10FF46006E7377657220776974682031322E33209C
:10FF56006973203A202531322E336620000A0D209F
:10FF660054686520616E73776572207769746820BE
:10FF7600322E33206973203A2025322E3366200034
:10FF86000A0D0A0D203120092025302E3266202048
:10FF9600092025302E3266202009092025302E32F0
:10FFA60066000A0D0A0D203220092025302E326601
:10FFB6002020092025302E32662020092025302ECB
:10FFC6003266000A0D2020202020200920582020FB
:10FFD6002020200909205920202020200909205A04
:10FFE60000494E46004E414E00696E66006E616ED7
:05FFF600006C66000034
:04FFFC0041EF66F07B
:020000040020DA
:10000000FF0FFF0FFF0FFF0FFF0FFF0FFF0FFF0F80
:020000040030CA
:0A000000ECFEF7FF9FFFFFFFFFFF7C
:00000001FF
