:020000040000FA
:04000000FEEF7FF0A0
:101000000074696D6531203D20256C752C20746954
:101010006D6532203D20256C752C2074696D65331B
:10102000203D20256C75200A0D00534D543120437E
:101030006170747572652054657374202D20534D52
:10104000543157494E206F6E205243300A0D0043F1
:10105000617074757265642073657175656E636522
:101060002069732052452C2046452C205245200AE9
:101070000D00534D54204D6F6465203D2025752093
:101080000A0A0D00256325632563256300737461D7
:0910900072740A0D006C75000079
:10109A00600003F1D9FF600007F1DAFF6F007BFF00
:1010AA00F6FF6F0077FFF7FFF86A0800F550250A88
:1010BA00D8A462EF08F064EF08F0D2EF09F06000FC
:1010CA0003F1D9FF600007F1DAFFDE2A000EDD2204
:1010DA00000E0001636F000E626F62C066F063C0AB
:1010EA0067F064696569600003F1D9FF600007F180
:1010FA00DAFF6F007BFFF6FF6F0077FFF7FFF86AF2
:10110A000800F550630AD8A48DEF08F08FEF08F0B5
:10111A00BEEF08F0600003F1D9FF600007F1DAFFC3
:10112A00DE2A000EDD2260000BF1D9FF60000FF10C
:10113A00DAFF6F007CFF44F0020EDE266F007CFFB0
:10114A0045F0000EDD22600013F1D9FF600017F1AF
:10115A00DAFFDF504A6E3EC00CF03FC00DF04AC0C5
:10116A000EF079EC0DF00CC03EF00DC03FF0F4EF3C
:10117A0009F0600003F1D9FF600007F1DAFF6F00A0
:10118A007BFFF6FF6F0077FFF7FFF86A0800F5505C
:10119A00750AD8A4D3EF08F0D5EF08F020EF09F0CC
:1011AA00600003F1D9FF600007F1DAFFDE2A000EC2
:1011BA00DD2260000BF1D9FF60000FF1DAFF6F004A
:1011CA007CFF44F0020EDE266F007CFF45F0000E25
:1011DA00DD22600013F1D9FF600017F1DAFF6F001A
:1011EA0078FF46F06F0074FF47F046C04BF047C0E7
:1011FA004CF04D6A4E6A4F6A506A516A526A3EC052
:10120A001EF03FC01FF04BC020F04CC021F04DC073
:10121A0022F04EC023F04FC024F050C025F051C038
:10122A0026F052C027F0F5EC09F01EC03EF01FC0B0
:10123A003FF0F4EF09F0600003F1D9FF600007F115
:10124A00DAFF6F0078FF01F06F0074FF02F0950E6D
:10125A00036E100E046E000E066E020E056E7EEC14
:10126A000CF001500210D8A43DEF09F03FEF09F04D
:10127A0093EF09F0020E600003F1D9FF600007F155
:10128A00DAFFDE26000EDD2260000BF1D9FF6000D6
:10129A000FF1DAFF6F007CFF44F0040EDE266F00C8
:1012AA007CFF45F0000EDD22600013F1D9FF6000DB
:1012BA0017F1DAFF6F0078FF46F06F0078FF47F00A
:1012CA006F0078FF48F06F0078FF49F046504B6E88
:1012DA0047504C6E48504D6E49504E6E4F6A506A98
:1012EA00516A526A3EC01EF03FC01FF04BC020F048
:1012FA004CC021F04DC022F04EC023F04FC024F064
:10130A0050C025F051C026F052C027F0F5EC09F084
:10131A001EC03EF01FC03FF0F4EF09F0600003F179
:10132A00D9FF600007F1DAFF6F007BFFF6FF6F005D
:10133A0077FFF7FFF86A0800F550250AD8A4A8EF46
:10134A0009F0AAEF09F0C3EF09F0600003F1D9FF31
:10135A00600007F1DAFFDE2A000EDD22000E046EBD
:10136A00250E036E3EC005F03FC006F0FFEC0EF0FE
:10137A00000E3F6E010E3E6EF4EF09F0600003F1BD
:10138A00D9FF600007F1DAFFDE2A000EDD22000E27
:10139A003F6E000E3E6EF4EF09F0600003F1D9FFD4
:1013AA00600007F1DAFF6F007BFFF6FF6F0077FF3F
:1013BA00F7FFF86A0800F550036E046A3EC005F0AC
:1013CA003FC006F0FFEC0EF0600003F1D9FF6000A9
:1013DA0007F1DAFFDE2A000EDD22BDEF09F0120066
:1013EA00000165BFFBEF09F0FDEF09F0FEEF09F020
:1013FA00669365BF0BEF0AF0655106E16405D8B044
:10140A0009EF0AF00BEF0AF011EF0AF0000E316E45
:10141A00010E306E15EF0AF064C030F065C031F08D
:10142A0062C032F063C033F020C034F021C035F01E
:10143A0022C036F023C037F024C038F025C039F076
:10144A0026C03AF027C03BF0000E3D6E1F0E3C6EE0
:10145A00000E906FA7EF0AF03C06D8A03D06710E69
:10146A003C24D96E000E3D20DA6E34C001F035C03E
:10147A0002F036C003F037C004F038C005F039C0B6
:10148A0006F03AC007F03BC008F00A0E096E000EDB
:10149A000A6E000E0B6E000E0C6E000E0D6E000E24
:1014AA000E6E000E0F6E000E106EE5EC0DF001C010
:1014BA0028F002C029F003C02AF004C02BF005C0AE
:1014CA002CF006C02DF007C02EF008C02FF02850CF
:1014DA00300FDF6E3006D8A031063206D8A03306A8
:1014EA0034C001F035C002F036C003F037C004F052
:1014FA0038C005F039C006F03AC007F03BC008F022
:10150A000A0E096E000E0A6E000E0B6E000E0C6EAD
:10151A00000E0D6E000E0E6E000E0F6E000E106E97
:10152A0001EC0DF001C034F002C035F003C036F012
:10153A0004C037F005C038F006C039F007C03AF0E9
:10154A0008C03BF03C503D10D8B4AEEF0AF0B0EF03
:10155A000AF0E1EF0AF0345035103610371038101F
:10156A0039103A103B10D8A4BDEF0AF0BFEF0AF0C9
:10157A0031EF0AF031BECCEF0AF0315006E1300407
:10158A00D8B0CAEF0AF0CCEF0AF031EF0AF033BE56
:10159A00D7EF0AF0335008E13204D8A0D7EF0AF0A7
:1015AA00D9EF0AF0E1EF0AF0000166B3DFEF0AF0C3
:1015BA00E1EF0AF031EF0AF01EC013F01FC014F079
:1015CA00710E3C24156E000E3D20166E32C017F0C7
:1015DA0033C018F04DEC0EF013C01EF014C01FF00B
:1015EA0012000D6E0D50D8B4FDEF0AF0FFEF0AF0AD
:1015FA0021EF0BF008BE06EF0BF004EF0BF021EF22
:10160A000BF005C009F006C00AF007C00BF008C0CD
:10161A000CF0091E0A1E0B1E0C1E092A000E0A22B5
:10162A000B220C2209C00FF00AC010F00BC011F0F7
:10163A000CC012F029EF0BF005C00FF006C010F035
:10164A0007C011F008C012F0055006100710081064
:10165A00D8A432EF0BF034EF0BF03EEF0BF0000E94
:10166A00056E000E066E000E076E000E086ECFEFB6
:10167A000BF0960E0E6E48EF0BF00E2AD89012322F
:10168A00113210320F32000E0F14096E000E1014B0
:10169A000A6E000E11140B6EFE0E12140C6E095017
:1016AA000A100B100C10D8A45DEF0BF05FEF0BF0D3
:1016BA0042EF0BF06DEF0BF00E2A010E0F26000E13
:1016CA00102211221222D8901232113210320F3205
:1016DA00000E0F14096E000E10140A6E000E11147B
:1016EA000B6EFF0E12140C6E09500A100B100C1020
:1016FA00D8A482EF0BF084EF0BF061EF0BF08CEFC4
:10170A000BF00E06D8900F3610361136123611BE6F
:10171A0091EF0BF093EF0BF09BEF0BF0020E0E60C4
:10172A0099EF0BF09BEF0BF086EF0BF00EB0A0EFEA
:10173A000BF0A2EF0BF0A3EF0BF0119ED8900E3234
:10174A000EC009F00A6A0B6A0C6A09C00CF00B6A2F
:10175A000A6A096A09500F120A5010120B50111224
:10176A000C5012120D50D8B4BDEF0BF0BFEF0BF0B6
:10177A00C7EF0BF008BEC6EF0BF0C4EF0BF0C7EFD4
:10178A000BF0128E0FC005F010C006F011C007F062
:10179A0012C008F012007BEC10F0C4864AEC0FF07D
:1017AA002A0E0001916F100E926F43EC10F0720E28
:1017BA000001916F100E926F3F011F510F0B5F6E68
:1017CA005F500001936F946B43EC10F03F011E8F42
:1017DA00DEEC10F0D8EC10F0DBEC10F08D0E00010E
:1017EA00916F100E926F43EC10F03901A19DA1ADDB
:1017FA0001EF0CF003EF0CF0FCEF0BF0BBEC10F078
:10180A0001C005F002C006F003C007F004C008F0EA
:10181A00000EF6EC0AF005C0B1F006C0B2F007C03F
:10182A00B3F008C0B4F03901A19DA1AD1FEF0CF0CF
:10183A0021EF0CF01AEF0CF0BBEC10F001C005F030
:10184A0002C006F003C007F004C008F0000EF6EC70
:10185A000AF005C0B5F006C0B6F007C0B7F008C078
:10186A00B8F03901A19DA1AD3DEF0CF03FEF0CF0AE
:10187A0038EF0CF0BBEC10F001C005F002C006F026
:10188A0003C007F004C008F0000EF6EC0AF005C029
:10189A00B9F006C0BAF007C0BBF008C0BCF04F0EE2
:1018AA000001916F100E926F43EC10F0010E0001CF
:1018BA00916F100E926FB1C093F0B2C094F0B3C0A2
:1018CA0095F0B4C096F0B5C097F0B6C098F0B7C01E
:1018DA0099F0B8C09AF0B9C09BF0BAC09CF0BBC0EE
:1018EA009DF0BCC09EF043EC10F07AEF0CF0FEEFD6
:1018FA007FF001C008F002C009F003C00AF004C07A
:10190A000BF00506D8A00606052806E10628D8A485
:10191A0091EF0CF093EF0CF0A0EF0CF0000E026EBA
:10192A00000E016E00EF0DF0084A092A0A4A0B2A36
:10193A000506D8A00606600023F0F6FF600027F02F
:10194A00F7FFF86A0800F5500009D8B4AFEF0CF0B9
:10195A00B1EF0CF0E7EF0CF060002BF0F6FF60003F
:10196A002FF0F7FFF86A0800F5500009D8B4C0EF65
:10197A000CF0C2EF0CF0E7EF0CF005500610D8B4EB
:10198A00C9EF0CF0CBEF0CF0E7EF0CF0600023F09E
:10199A00F6FF600027F0F7FFF86A08006F00D4FF2F
:1019AA0007F060002BF0F6FF60002FF0F7FFF86AEF
:1019BA000800F5500718D8B4E5EF0CF0E7EF0CF083
:1019CA0099EF0CF0600023F0F6FF600027F0F7FFB4
:1019DA00F86A08006F00D4FF07F060002BF0F6FFEA
:1019EA0060002FF0F7FFF86A0800F550075C016EF7
:1019FA00026AD8A00206120020EE11F0070EDE6A73
:101A0A00E806FDE209500A100B100C100D100E101A
:101A1A000F101010D8B414EF0DF016EF0DF068EF98
:101A2A000DF0010E196E24EF0DF0D89009360A3622
:101A3A000B360C360D360E360F361036192A10AE06
:101A4A0029EF0DF02BEF0DF01AEF0DF0D8901136AB
:101A5A001236133614361536163617361836095016
:101A6A00015C0A5002580B5003580C5004580D5090
:101A7A0005580E5006580F50075810500858D8A04D
:101A8A0049EF0DF04BEF0DF05CEF0DF00950015EE0
:101A9A000A50025A0B50035A0C50045A0D50055A58
:101AAA000E50065A0F50075A1050085A1180D890F3
:101ABA0010320F320E320D320C320B320A32093228
:101ACA00192E2BEF0DF011C001F012C002F013C055
:101ADA0003F014C004F015C005F016C006F017C0D4
:101AEA0007F018C008F01200000162516311D8A46F
:101AFA0081EF0DF083EF0DF089EF0DF062C012F067
:101B0A0063C013F08FEF0DF0FF0E6225126EFF0E09
:101B1A006321136E66A194EF0DF096EF0DF09FEF1F
:101B2A000DF00EC003F0046A0CC005F00DC006F0FB
:101B3A00FFEC0EF013BEA4EF0DF0A6EF0DF0A8EF28
:101B4A000DF0ACEF0DF0000E136E000E126E000ECB
:101B5A00116E000E106EBEEF0DF0000E046E200E18
:101B6A00036E0CC005F00DC006F0FFEC0EF0104A33
:101B7A00112A1250105C1150800A0F6E1350800AFD
:101B8A000F58D8A0CBEF0DF0CDEF0DF0B2EF0DF05E
:101B9A00000166B1D3EF0DF0D5EF0DF0DEEF0DF0D9
:101BAA000EC003F0046A0CC005F00DC006F0FFEC8D
:101BBA000EF0010E10240C6E000E11200D6E120094
:101BCA0009500A100B100C100D100E100F101010E7
:101BDA00D8B4F2EF0DF0F4EF0DF03CEF0EF0010E79
:101BEA00116E02EF0EF0D89009360A360B360C3613
:101BFA000D360E360F361036112A10AE07EF0EF0DC
:101C0A0009EF0EF0F8EF0DF00950015C0A50025886
:101C1A000B5003580C5004580D5005580E500658D6
:101C2A000F50075810500858D8A01EEF0EF020EF9A
:101C3A000EF030EF0EF00950015E0A50025A0B50B6
:101C4A00035A0C50045A0D50055A0E50065A0F509A
:101C5A00075A1050085AD89010320F320E320D32ED
:101C6A000C320B320A320932112E09EF0EF001C082
:101C7A0001F002C002F003C003F004C004F005C082
:101C8A0005F006C006F007C007F008C008F0120009
:101C9A00000166A153EF0EF055EF0EF05FEF0EF064
:101CAA0015C00CF016C00DF013C00EF014C00FF0E2
:101CBA00EFEC0FF018BE64EF0EF066EF0EF06CEF6B
:101CCA000EF017C01CF018C01DF070EF0EF0000ED9
:101CDA001D6E000E1C6E000E1B6E000E1A6E82EF39
:101CEA000EF0000E046E200E036E13C005F014C031
:101CFA0006F0FFEC0EF01A4A1B2A1C501A5C1B5005
:101D0A00800A196E1D50800A1958D8A08FEF0EF05C
:101D1A0091EF0EF076EF0EF0000166B197EF0EF03C
:101D2A0099EF0EF0A3EF0EF015C00CF016C00DF0EF
:101D3A0013C00EF014C00FF0EFEC0FF015C001F055
:101D4A0016C002F011EC10F01C500124136E1D5045
:101D5A000220146E1200000EBE6E000EBD6E000E42
:101D6A00BA6E000EBB6E000EBC6E070EC66EC2685F
:101D7A00BF0EC36EC468C5683A017069F60E606F1B
:101D8A007F0E506F070E806F4069000E716F000E54
:101D9A00816F000E516F000E416F000E616F000ED1
:101DAA005A6F000E5B6F000E6A6F000E6B6F000EAB
:101DBA007A6F000E7B6F000E826F000E426F000E6C
:101DCA00526F000E626F000E726F43695369636946
:101DDA007369070E836F44695469646974690F0EE5
:101DEA00846F0F0EE86F160E0E6F100ED16F130E62
:101DFA00D26F120005500610D8B406EF0FF008EFA4
:101E0A000FF011EF0FF005500610D8A40FEF0FF0E6
:101E1A0011EF0FF016EF0FF00350C4EC10F049EF7A
:101E2A000FF020EE04F00550D9260650DA22DE50D3
:101E3A00DE10D8B423EF0FF025EF0FF040EF0FF0CC
:101E4A0020EE04F00550D9260650DA2210EE02F0F0
:101E5A000550E1260650E222DE50E65CE650800A92
:101E6A000B6EDE50800A0B58D8B03EEF0FF040EFF1
:101E7A000FF049EF0FF020EE02F00550D926065078
:101E8A00DA22DE2A000EDD221200840E0001916F92
:101E9A00100E926F000E946F1B0E936F000E966FCA
:101EAA005B0E956F000E986F320E976F000E9A6F49
:101EBA004A0E996F43EC10F0840E0001916F100ED8
:101ECA00926F000E946F1B0E936F000E966F5B0E4F
:101EDA00956F000E986F330E976F000E9A6F4A0E29
:101EEA00996F43EC10F0860E0001916F100E926FFD
:101EFA00000E946F1B0E936F000E966F5B0E956F1C
:101F0A00000E986F480E976F43EC10F0120055C000
:101F1A0059F056C05AF0000E0001616F000E606F52
:101F2A00AAEF0FF053C03EF054C03FF0590E406E76
:101F3A00000E416E57C042F058C043F04DEC08F015
:101F4A003E50000160273F506123600067F1F6FFB1
:101F5A0060006BF1F7FFF86A0800F5500009D8A491
:101F6A00B9EF0FF0BBEF0FF097EF0FF060C053F02F
:101F7A0061C054F01200000E3D01D46F000ED66FFE
:101F8A00000ED86FB00EDA6F800EDB6F000EDC6FBA
:101F9A00670EDD6F000EDE6F000EDF6F000EE06F62
:101FAA00000EE16F000EE26F000E016E000E026E6F
:101FBA00CEEC10F0000E016E000E026EC9EC10F0AD
:101FCA00000E016E000E026ED3EC10F0000E00013E
:101FDA00706F1200000E126E000E116E00EF10F0FC
:101FEA0010C003F0046A0EC005F00FC006F0FFEC43
:101FFA000EF0114A122A11500C24D96E12500D20DB
:10200A00DA6EDF50106E1050D8A40EEF10F010EFF9
:10201A0010F0F5EF0FF0120001C003F002C004F057
:10202A0019EF10F0014A022A600007F0D9FF600098
:10203A000BF0DAFFDF50D8A425EF10F027EF10F0ED
:10204A0017EF10F00350015C016E04500258026E43
:10205A001200800E3F011E6F070E1F6F000E206FC9
:10206A00000E216F0D0E236F000E226FF40E1D6FEE
:10207A00240E1C6F000E1B6F1F8F1200930E5D6ED5
:10208A00000E5E6E000E536E000E546E91C055F037
:10209A0092C056F05D0E576E000E586E8CEC0FF023
:1020AA001200230E3901D96F000EDB6F000EDD6FAF
:1020BA00020EDF6F000EDE6FDCA166EF10F068EF34
:1020CA0010F061EF10F01200000E3901C06F000E1F
:1020DA00C16F000EC26F000EC36F000EC46F000EF8
:1020EA00C56F000EC66F000EC76F120069EC10F0C4
:1020FA00B0EC0EF056EC10F02EEC10F08AEC10F06A
:10210A00A6EC10F0C0EC0FF01200010EAE6E000E3D
:10211A00AD6E000EAF6EF90EAB6E000EAA6E3901EF
:10212A00A495F00EAC6E1200016E3901A6A7A0EFBD
:10213A0010F0A2EF10F09AEF10F0600007F0D2FD55
:10214A001200800E6E6E3E0E6D6E400E6C6E3F017A
:10215A005F51FC0B01095F6F120000EE60F0310E57
:10216A00EE6AE806FDE10001D0EF0BF03F011551E0
:10217A00016E1651026E1751036E046A1200026E46
:10218A00025099EC10F0120001C06CF002C06DF020
:10219A00120001C06EF002C06FF0120001C06AF0B6
:1021AA0002C06BF012003F011F8D12003F01208B0D
:0821BA0012003F011F8F12000B
:04FFFC00B2EF10F060
:020000040020DA
:10000000FF0FFF0FFF0FFF0FFF0FFF0FFF0FFF0F80
:020000040030CA
:0A000000AEFEF7FF9FFFFFFFFFFFBA
:00000001FF
