:020000040000FA
:04000000FEEF7FF0A0
:10BDA00001C000F102C001F1120001C004F102C0A3
:10BDB00005F1120001C002F102C003F11200026E8F
:10BDC00002500AEC5FF012000250B76E600007F0FC
:10BDD000B6FF120000EE08F1080EEE6AE806FDE17B
:10BDE000000128EF76F017EC5FF066EC61F0FEECF6
:10BDF0005EF055EC5FF0C5EC5FF01200620E3901A9
:10BE0000D96F000EDB6F000EDD6F060EDF6F000EC8
:10BE1000DE6F1200016E3901A6A711EF5FF013EF7C
:10BE20005FF00BEF5FF0600007F0D2FD1200000E34
:10BE30003901C06F000EC16F000EC26F000EC36FDC
:10BE4000000EC46F000EC56F000EC66F000EC76FE8
:10BE50001200015003026F00CCFF05F06F00D0FF0D
:10BE600006F001500402F350062602500302F3507C
:10BE7000062605C001F006C002F0120047EF5FF091
:10BE8000030E036E980EE82EFED7032EFCD7010694
:10BE9000D8A00206012806E10228D8A452EF5FF0DC
:10BEA00054EF5FF040EF5FF01200400EB96EF00EFD
:10BEB000B76E600EB66EB6506F00DCFE01F0026A1F
:10BEC00001C002F0016A01100101066F0250076F04
:10BED0003901A39F900EB86E1200036E000E026E21
:10BEE0003A0E036076EF5FF078EF5FF082EF5FF07D
:10BEF0002F0E03647EEF5FF080EF5FF082EF5FF064
:10BF0000010E026E02C001F0013012000150021059
:10BF100003100410D8B48FEF5FF091EF5FF099EF4A
:10BF20005FF0000E011A000E021A000E031A800EB6
:10BF3000041A01C001F002C002F003C003F004C003
:10BF400004F01200000E5B1A000E5C1A000E5D1A5F
:10BF5000800E5E1A57C03BF058C03CF059C03DF00F
:10BF60005AC03EF05BC03FF05CC040F05DC041F0A5
:10BF70005EC042F0C8EC73F03BC057F03CC058F0D4
:10BF80003DC059F03EC05AF01200000E3D01D46F82
:10BF9000000ED66F000ED86FB00EDA6F800EDB6F1A
:10BFA000000EDC6FCF0EDD6F000EDE6F000EDF6F58
:10BFB000000EE06F000EE16F000EE26F000E016EEA
:10BFC000000E026ED5EC5EF0000E016E000E026EE9
:10BFD000DAEC5EF0000E016E000E026ED0EC5EF048
:10BFE000000E01010F6F120003500410D8B4FBEFD4
:10BFF0005FF0FDEF5FF021EF60F0010E056E05EFE1
:10C0000060F0D89003360436052A04AE0AEF60F0DB
:10C010000CEF60F001EF60F00350015C0450025837
:10C02000D8A015EF60F017EF60F01BEF60F0035041
:10C03000015E0450025AD89004320332052E0CEFF0
:10C0400060F001C001F002C002F01200000E0B6EA1
:10C05000000E0A6E08500910D8B431EF60F033EFCB
:10C0600060F05BEF60F0010E0C6E3BEF60F0D8907B
:10C07000083609360C2A09AE40EF60F042EF60F056
:10C0800037EF60F0D8900A360B360850065C09503E
:10C090000758D8A04EEF60F050EF60F055EF60F019
:10C0A0000850065E0950075A0A80D89009320832B3
:10C0B0000C2E42EF60F00AC006F00BC007F0120031
:10C0C000000E046E000E036E01010A510B11D8A47C
:10C0D0006CEF60F06EEF60F07FEF60F001500210E7
:10C0E000D8B475EF60F077EF60F07FEF60F0000E8E
:10C0F0000B6F010E0A6F000E046E010E036E0A052F
:10C100000B11D8A486EF60F088EF60F099EF60F033
:10C1100001500210D8A48FEF60F091EF60F099EF1A
:10C1200060F0000E0B6F000E0A6F000E046E020E20
:10C13000036E03C001F004C002F01200CDB2A3EF01
:10C1400060F0A8EF60F00001D86BD82BAAEF60F088
:10C150000001D86BD851016E026A60EC60F001C03A
:10C160000CF102C00DF1000E026E0A0E016E3EECE3
:10C170005FF001010C050D11D8A4C1EF60F0C3EF11
:10C1800060F0DFEF60F0000E026E0A0E016E3EEC12
:10C190005FF001010E2B020E0E65D1EF60F0D3EFC0
:10C1A00060F0D5EF60F0010E0E6FCF0E0001A66FAC
:10C1B000FF0EA76F0EC1A8F0A96BFEEC78F012007D
:10C1C000F20E0001A66FFF0EA76F000EA96F1B0EE7
:10C1D000A86F000EAB6F5B0EAA6F000EAD6F320E34
:10C1E000AC6F000EAF6F4A0EAE6FFEEC78F0F20E41
:10C1F0000001A66FFF0EA76F000EA96F1B0EA86FA0
:10C20000000EAB6F5B0EAA6F000EAD6F330EAC6FFE
:10C21000000EAF6F4A0EAE6FFEEC78F0F40E000128
:10C22000A66FFF0EA76F000EA96F1B0EA86F000E62
:10C23000AB6F5B0EAA6F000EAD6F480EAC6FFEECDD
:10C2400078F012001250131014101510D8B42BEF00
:10C2500061F02DEF61F05DEF61F0010E166E37EFCA
:10C2600061F0D8901236133614361536162A15AEEC
:10C270003CEF61F03EEF61F031EF61F012500E5C87
:10C2800013500F581450105815501158D8A04BEF98
:10C2900061F04DEF61F055EF61F012500E5E1350FA
:10C2A0000F5A1450105A1550115AD8901532143292
:10C2B00013321232162E3EEF61F00EC00EF00FC098
:10C2C0000FF010C010F011C011F01200000EBE6E81
:10C2D000000EBD6E000EBA6E000EBB6E000EBC6E80
:10C2E000070EC66EC268BF0EC36EFA0EC46EFB0E9A
:10C2F000C56EF90E3A01706FFA0E606F3F0E506F07
:10C30000070E806F4069000E716F000E816F000E86
:10C31000516F000E416F000E616F000E5A6F000EDC
:10C320005B6F000E6A6F000E6B6F000E7A6F000E6F
:10C330007B6F000E826F000E426F000E526F000E78
:10C34000626F000E726F4369536963697369070E08
:10C35000836F44695469646974690F0E846F0F0EAA
:10C36000E86F250E106F160E0E6F1200000E096E8C
:10C37000000E0A6E000E0B6E000E0C6E05500610BD
:10C3800007100810D8B4C7EF61F0C9EF61F0FFEFF4
:10C3900061F0010E0D6ED3EF61F0D89005360636D0
:10C3A000073608360D2A08AED8EF61F0DAEF61F0F3
:10C3B000CDEF61F0D89009360A360B360C360550B1
:10C3C000015C065002580750035808500458D8A082
:10C3D000ECEF61F0EEEF61F0F7EF61F00550015E18
:10C3E0000650025A0750035A0850045A0980D89040
:10C3F00008320732063205320D2EDAEF61F009C03D
:10C4000001F00AC002F00BC003F00CC004F01200EF
:10C41000000E27142F6E000E2814306E800E291483
:10C42000316E7F0E2A14326E2F50301031103210C0
:10C43000D8A41DEF62F01FEF62F027EF62F0000E4C
:10C44000276E000E286E000E296E000E2A6E000E5A
:10C450002B142F6E000E2C14306E800E2D14316EA6
:10C460007F0E2E14326E2F50301031103210D8A49F
:10C470003CEF62F03EEF62F046EF62F0000E2B6E92
:10C48000000E2C6E000E2D6E000E2E6E2B502718F7
:10C490000FE12C5028180CE12D50291809E12E50DD
:10C4A0002A18D8B456EF62F058EF62F05BEF62F0F2
:10C4B000D8905CEF62F0D8801200000E066E02BECB
:10C4C00066EF62F064EF62F06CEF62F0016C021EE6
:10C4D000D8B0022A010E066E04BE73EF62F071EF4F
:10C4E00062F077EF62F0036C041ED8B0042A0350A8
:10C4F0000410D8B47EEF62F080EF62F0A4EF62F037
:10C50000010E056E88EF62F0D89003360436052AD6
:10C5100004AE8DEF62F08FEF62F084EF62F00350B3
:10C52000015C04500258D8A098EF62F09AEF62F0D4
:10C530009EEF62F00350015E0450025AD89004321C
:10C540000332052E8FEF62F00650D8B4AAEF62F0E6
:10C55000ACEF62F0B0EF62F0016C021ED8B0022ABC
:10C5600001C001F002C002F01200000E0C6E0ABE03
:10C57000BEEF62F0BCEF62F0C4EF62F0096C0A1E1D
:10C58000D8B00A2A010E0C6E08BECBEF62F0C9EFDC
:10C5900062F0D1EF62F0076C081ED8B0082A010ED5
:10C5A0000C1A000E0E6E000E0D6E09500A10D8B453
:10C5B000DCEF62F0DEEF62F006EF63F0010E0B6E6F
:10C5C000E6EF62F0D89009360A360B2A0AAEEBEF96
:10C5D00062F0EDEF62F0E2EF62F0D8900D360E36C9
:10C5E0000950075C0A500858D8A0F9EF62F0FBEF39
:10C5F00062F000EF63F00950075E0A50085A0D80A0
:10C60000D8900A3209320B2EEDEF62F00C50D8B4FC
:10C610000CEF63F00EEF63F012EF63F00D6C0E1E83
:10C62000D8B00E2A0DC007F00EC008F0120033C0BB
:10C6300027F034C028F035C029F036C02AF0000EAB
:10C640002B6E000E2C6E000E2D6E000E2E6E08EC62
:10C6500062F0D8A02EEF63F030EF63F044EF63F0A8
:10C660006000DFF0D9FF6000E3F0DAFF000EDE6E5D
:10C67000000EDD6E000E336E000E346E000E356E51
:10C68000000E366E82EF63F036507F0B396E3A6AD9
:10C69000D89039363A366000DFF0D9FF6000E3F019
:10C6A000DAFF6000E7F0DEFF6000EBF0DDFF35BE93
:10C6B0005CEF63F060EF63F0396A392A61EF63F091
:10C6C000396A39506000DFF0D9FF6000E3F0DAFF2B
:10C6D000DE12000EDD126000DFF0D9FF6000E3F033
:10C6E000DAFF820EDE26FF0EDD223650800B3F0978
:10C6F000366E359E33C033F034C034F035C035F07B
:10C7000036C036F01200000E0114096E000E02143D
:10C710000A6E800E03140B6E7F0E04140C6E09500B
:10C720000A100B100C10D8A498EF63F09AEF63F086
:10C73000A2EF63F0000E016E000E026E000E036E9B
:10C74000000E046E000E0514096E000E06140A6E2B
:10C75000800E07140B6E7F0E08140C6E09500A1021
:10C760000B100C10D8A4B7EF63F0B9EF63F0C1EF72
:10C7700063F0000E056E000E066E000E076E000ED2
:10C78000086E04AEC6EF63F0C8EF63F0D1EF63F05C
:10C79000016C021ED8B0022A031ED8B0032A800EF4
:10C7A000045608AED6EF63F0D8EF63F0E1EF63F024
:10C7B000056C061ED8B0062A071ED8B0072A800EC0
:10C7C0000856000E011A000E021A000E031A800EFF
:10C7D000041A000E051A000E061A000E071A800E23
:10C7E000081A0550015C06500258075003580850BB
:10C7F0000458D8B0FEEF63F000EF64F003EF64F08C
:10C80000D89004EF64F0D880120011341234186EFE
:10C810001850D8A40EEF64F010EF64F01AEF64F033
:10C82000000E0F6E000E106E000E116E000E126ED6
:10C8300087EF64F00FC013F010C014F011C015F0B2
:10C8400012C016F0200E2AEF64F0D890163215327E
:10C8500014321332E82E25EF64F01350176E118E48
:10C86000FF0E0F16FF0E1016FF0E1116000E1216F9
:10C87000960E185E18BE41EF64F03FEF64F057EF7C
:10C8800064F01850800A970FD8B049EF64F04BEF6E
:10C8900064F04DEF64F010EF64F0D8901232113272
:10C8A00010320F32183E4DEF64F06FEF64F01F0E40
:10C8B00018645DEF64F05FEF64F067EF64F010EF11
:10C8C00064F0D8900F36103611361236180618500C
:10C8D000D8A46DEF64F06FEF64F061EF64F017506F
:10C8E000D8B475EF64F077EF64F07FEF64F0121E58
:10C8F000111E101E0F6C000E1022112212220FC0EA
:10C900000FF010C010F011C011F012C012F01200A0
:10C910005DC06DF05EC06EF00001D8906D376E376F
:10C92000D8906D376E375BC06FF05CC070F06D51A2
:10C930006F276E5170236000BFF1F6FF6000C3F1F6
:10C94000F7FFF86A09006F00D4FF71F009006F006B
:10C95000D4FF72F009006F00D4FF73F00A006F007B
:10C96000D4FF74F005EF65F071C04FF072C050F065
:10C9700073C051F074C052F057C04BF058C04CF027
:10C9800059C04DF05AC04EF046EC6FF04BC03BF032
:10C990004CC03CF04DC03DF04EC03EF05D06D8A00E
:10C9A0005E065DC06DF05EC06EF00001D8906D3720
:10C9B0006E37D8906D376E375BC06FF05CC070F02B
:10C9C0006D516F276E5170236000BFF1F6FF60005C
:10C9D000C3F1F7FFF86A09006F00D4FF3FF00900C8
:10C9E0006F00D4FF40F009006F00D4FF41F00A004F
:10C9F0006F00D4FF42F0C8EC73F03BC071F03CC054
:10CA000072F03DC073F03EC074F05D505E10D8A46B
:10CA10000CEF65F00EEF65F0B4EF64F071C057F005
:10CA200072C058F073C059F074C05AF012004BC075
:10CA300033F04CC034F04DC035F04EC036F0530EDC
:10CA4000376E000E386E17EC63F054BE2CEF65F0B5
:10CA50002AEF65F047EF65F04EBE33EF65F031EF3A
:10CA600065F03DEF65F0000E4B6E000E4C6E800ED3
:10CA70004D6EBF0E4E6EB6EF65F0000E4B6E000EA3
:10CA80004C6E000E4D6E000E4E6EB6EF65F05450BB
:10CA900009E11D0E535CD8A050EF65F052EF65F030
:10CAA0005CEF65F04BC04BF04CC04CF04DC04DF00E
:10CAB0004EC04EF0B6EF65F04BC00FF04CC010F01A
:10CAC0004DC011F04EC012F005EC64F00FC019F02B
:10CAD00010C01AF011C01BF012C01CF0010E7AEC4D
:10CAE00068F019C04FF01AC050F01BC051F01CC0C4
:10CAF00052F04BC001F04CC002F04DC003F04EC0EC
:10CB000004F04FC005F050C006F051C007F052C00D
:10CB100008F083EC63F0D8B090EF65F092EF65F029
:10CB2000AEEF65F04FC03BF050C03CF051C03DF05F
:10CB300052C03EF0000E3F6E000E406E800E416E01
:10CB4000BF0E426EC8EC73F03BC04BF03CC04CF0E3
:10CB50003DC04DF03EC04EF0B6EF65F04FC04BF01B
:10CB600050C04CF051C04DF052C04EF0120075C094
:10CB700027F076C028F077C029F078C02AF0000EA0
:10CB80002B6E000E2C6E000E2D6E000E2E6E08EC1D
:10CB900062F0D8A0CEEF65F0D0EF65F0DBEF65F086
:10CBA000000E0001756F000E766F000E776F000E9D
:10CBB000786F56EF66F0000178517F0B7B6F7C6BCE
:10CBC000D8907B377C377B5179277C517A2377BF8C
:10CBD000ECEF65F0F0EF65F07B6B7B2BF2EF65F02F
:10CBE00000017B6B7B517927000E7A237ABFFDEF22
:10CBF00065F0FBEF65F00DEF66F0000E0101096FC7
:10CC0000220E086F000E0001756F000E766F000E89
:10CC1000776F000E786F56EF66F07ABF16EF66F00A
:10CC20007A05D8A016EF66F018EF66F039EF66F0D7
:10CC3000000E0101096F220E086F000178BF25EF79
:10CC400066F023EF66F02FEF66F0FF0E756FFF0EB4
:10CC5000766F7F0E776FFF0E786F56EF66F0FF0EE0
:10CC6000756FFF0E766F7F0E776F7F0E786F56EFC2
:10CC700066F07A357A317C6F79317B6F78517B1928
:10CC8000800B7B19786F79C07BF0010E7B177B33AB
:10CC90007B3377517B197F0B7B19776F75C075F0EC
:10CCA00076C076F077C077F078C078F01200033461
:10CCB00004340E6E0E50D8A460EF66F062EF66F09A
:10CCC0006CEF66F0000E016E000E026E000E036E39
:10CCD000000E046EFCEF66F0073408340D6E0D5044
:10CCE000D8A475EF66F077EF66F079EF66F062EF43
:10CCF00066F0038EFF0E0116FF0E0216FF0E0316DE
:10CD0000000E0416078EFF0E0516FF0E0616FF0E08
:10CD10000716000E0816000E096E000E0A6E000EB1
:10CD20000B6E000E0C6E7F0E0E5E0D50A00F0E5E91
:10CD3000200E0D6ED89009360A360B360C3605508B
:10CD4000015C065002580750035808500458D8A0F8
:10CD5000ACEF66F0AEEF66F0B7EF66F00550015E3F
:10CD60000650025A0750035A0850045A0980D890B6
:10CD700001360236033604360D2E9AEF66F00EBEEB
:10CD8000C6EF66F0C4EF66F0DCEF66F00E50800A86
:10CD90009F0FD8B0CEEF66F0D0EF66F0D2EF66F01E
:10CDA00062EF66F0D8900C320B320A3209320E3E36
:10CDB000D2EF66F0F4EF66F01F0E0E64E2EF66F05D
:10CDC000E4EF66F0ECEF66F062EF66F0D8900936BB
:10CDD0000A360B360C360E060E50D8A4F2EF66F06B
:10CDE000F4EF66F0E6EF66F009C001F00AC002F069
:10CDF0000BC003F00CC004F0120003C009F00A6A73
:10CE00000B6A0234093601E30A800950116E115091
:10CE1000D8A40DEF67F00FEF67F019EF67F0000E81
:10CE2000016E000E026E000E036E000E046EA7EF80
:10CE300067F007C009F00A6A0B6A0634093601E395
:10CE40000A800950106E1050D8A429EF67F02BEF1C
:10CE500067F02DEF67F00FEF67F0028EFF0E0116FF
:10CE6000FF0E0216000E0316068EFF0E0516FF0EAD
:10CE70000616000E0716000E0C6E000E0D6E000E4C
:10CE80000E6E000E0F6E7F0E115E1050980F115E29
:10CE9000180E106ED8900C360D360E360F36055023
:10CEA000015C0650025807500358D8A05AEF67F0AB
:10CEB0005CEF67F063EF67F00550015E0650025AC1
:10CEC0000750035A0C80D890013602360336102ED4
:10CED0004AEF67F011BE71EF67F06FEF67F087EF11
:10CEE00067F01150800A970FD8B079EF67F07BEFA9
:10CEF00067F07DEF67F00FEF67F0D8900F320E32DA
:10CF00000D320C32113E7DEF67F09FEF67F0170E88
:10CF100011648DEF67F08FEF67F097EF67F00FEF19
:10CF200067F0D8900C360D360E360F3611061150BC
:10CF3000D8A49DEF67F09FEF67F091EF67F00CC00A
:10CF400001F00DC002F00EC003F00FC004F012009B
:10CF5000000178BFB0EF67F0AEEF67F0C0EF67F0A9
:10CF6000000E0101096F210E086F000E0001756FA0
:10CF7000000E766F000E776F000E786F79EF68F015
:10CF800075C027F076C028F077C029F078C02AF065
:10CF9000000E2B6E000E2C6E000E2D6E000E2E6EEF
:10CFA00008EC62F0D8A0D7EF67F0D9EF67F0E9EFAF
:10CFB00067F0000E0101096F220E086F000E0001DC
:10CFC000756F000E766F000E776F000E786F79EF39
:10CFD00068F0000E4F6E000E506E000E516E400E47
:10CFE000526E790E376E000E386E75C033F076C013
:10CFF00034F077C035F078C036F017EC63F033C00A
:10D000004BF034C04CF035C04DF036C04EF046EC1D
:10D010006FF04BC03BF04CC03CF04DC03DF04EC0FB
:10D020003EF0000E3F6E000E406E800E416EBF0E51
:10D03000426EC8EC73F03BC075F03CC076F03DC06A
:10D0400077F03EC078F000017907D8A07A0775C064
:10D0500057F076C058F077C059F078C05AF0150EE6
:10D060005B6EFF0E5C6E000E5E6E080E5D6E88ECF1
:10D0700064F057C075F058C076F059C077F05AC0C8
:10D0800078F0180E4F6E720E506E310E516E3F0ECC
:10D09000526E79C019F07AC01AF0000E1ABEFF0E57
:10D0A0001B6E1C6E010E7AEC68F019C04BF01AC0B2
:10D0B0004CF01BC04DF01CC04EF046EC6FF04BC066
:10D0C0003BF04CC03CF04DC03DF04EC03EF075C052
:10D0D0003FF076C040F077C041F078C042F0C8EC35
:10D0E00073F03BC075F03CC076F03DC077F03EC0B9
:10D0F00078F01200216E2150D8B481EF68F083EFF0
:10D1000068F0A5EF68F01CBE8AEF68F088EF68F061
:10D11000A5EF68F019C01DF01AC01EF01BC01FF06B
:10D120001CC020F01D1E1E1E1F1E201E1D2A000ECC
:10D130001E221F2220221DC023F01EC024F01FC06B
:10D1400025F020C026F0ADEF68F019C023F01AC01A
:10D1500024F01BC025F01CC026F019501A101B101B
:10D160001C10D8A4B6EF68F0B8EF68F0C2EF68F012
:10D17000000E196E000E1A6E000E1B6E000E1C6E55
:10D1800053EF69F0960E226ECCEF68F0222AD89009
:10D190002632253224322332000E23141D6E000E57
:10D1A00024141E6E000E25141F6EFE0E2614206E13
:10D1B0001D501E101F102010D8A4E1EF68F0E3EFFF
:10D1C00068F0C6EF68F0F1EF68F0222A010E23261E
:10D1D000000E242225222622D890263225322432FF
:10D1E0002332000E23141D6E000E24141E6E000E3A
:10D1F00025141F6EFF0E2614206E1D501E101F10CA
:10D200002010D8A406EF69F008EF69F0E5EF68F0A8
:10D2100010EF69F02206D8902336243625362636BC
:10D2200025BE15EF69F017EF69F01FEF69F0020EE8
:10D2300022601DEF69F01FEF69F00AEF69F022B07C
:10D2400024EF69F026EF69F027EF69F0259ED8906A
:10D25000223222C01DF01E6A1F6A206A1DC020F003
:10D260001F6A1E6A1D6A1D5023121E5024121F5071
:10D270002512205026122150D8B441EF69F043EF17
:10D2800069F04BEF69F01CBE4AEF69F048EF69F0B6
:10D290004BEF69F0268E23C019F024C01AF025C088
:10D2A0001BF026C01CF01200000E0001A16F91C0FF
:10D2B00027F092C028F093C029F094C02AF0000E05
:10D2C0002B6E000E2C6E000E2D6E000E2E6E08ECD6
:10D2D00062F0D8A06EEF69F070EF69F099EF69F035
:10D2E000000E016E000E026E000E036E000E046E44
:10D2F00095C005F096C006F097C007F098C008F0FA
:10D3000083EC63F0D8A087EF69F089EF69F08EEFC6
:10D3100069F0000E0101096F210E086F000E000177
:10D32000916F000E926F000E936F000E946F84EF5A
:10D330006AF095C027F096C028F097C029F098C0F1
:10D340002AF0000E2B6E000E2C6E000E2D6E000EBD
:10D350002E6E08EC62F0D8A0B0EF69F0B2EF69F081
:10D36000BDEF69F0000E0001916F000E926F800E0C
:10D37000936F3F0E946F84EF6AF0000194BFC5EF86
:10D3800069F0C3EF69F021EF6AF095C00FF096C025
:10D3900010F097C011F098C012F005EC64F00FC0C7
:10D3A000A2F010C0A3F011C0A4F012C0A5F0A2C05A
:10D3B00019F0A3C01AF0A4C01BF0A5C01CF0000E09
:10D3C0007AEC68F019C027F01AC028F01BC029F0C9
:10D3D0001CC02AF095C02BF096C02CF097C02DF001
:10D3E00098C02EF008EC62F0D8B0F9EF69F0FBEFCE
:10D3F00069F00BEF6AF0000E0101096F210E086F52
:10D40000000E0001916F000E926F000E936F000EE0
:10D41000946F84EF6AF00001A251010BA16F91C0DB
:10D4200001F092C002F093C003F094C004F086ECC7
:10D430005FF001C091F002C092F003C093F004C00D
:10D4400094F091C075F092C076F093C077F094C0DC
:10D4500078F0A8EC67F075C099F076C09AF077C0C4
:10D460009BF078C09CF099C04BF09AC04CF09BC0E8
:10D470004DF09CC04EF095C04FF096C050F097C054
:10D4800051F098C052F046EC6FF04BC09DF04CC08C
:10D490009EF04DC09FF04EC0A0F09DC086F09EC093
:10D4A00087F09FC088F0A0C089F085EC6AF086C044
:10D4B00091F087C092F088C093F089C094F0000189
:10D4C000A151D8B466EF6AF068EF6AF07CEF6AF0B9
:10D4D00091C001F092C002F093C003F094C004F038
:10D4E00086EC5FF001C091F002C092F003C093F0AF
:10D4F00004C094F084EF6AF091C091F092C092F071
:10D5000093C093F094C094F0120086C027F087C0B7
:10D5100028F088C029F089C02AF0000E2B6E000E7A
:10D520002C6E000E2D6E000E2E6E08EC62F0D8A050
:10D530009CEF6AF09EEF6AF0A9EF6AF0000E00011E
:10D54000866F000E876F800E886F3F0E896FFAEF2F
:10D550006BF0180E016E720E026E310E036E440EE9
:10D56000046E86C005F087C006F088C007F089C049
:10D5700008F083EC63F0D8B0C0EF6AF0C2EF6AF055
:10D58000D2EF6AF0000E0101096F220E086FFF0E44
:10D590000001866FFF0E876F7F0E886F7F0E896F89
:10D5A000FAEF6BF086C001F087C002F088C003F08C
:10D5B00089C004F0870E056E480E066E3A0E076E9F
:10D5C000C40E086E83EC63F0D8B0E9EF6AF0EBEFBD
:10D5D0006AF0FBEF6AF0000E0101096F220E086F7E
:10D5E000000E0001866F000E876F000E886F000E20
:10D5F000896FFAEF6BF0000189BF01EF6BF004EF68
:10D600006BF0010E05EF6BF0000E906F9051D8B4E7
:10D610000CEF6BF00EEF6BF020EF6BF086C001F0BB
:10D6200087C002F088C003F089C004F086EC5FF088
:10D6300001C086F002C087F003C088F004C089F002
:10D6400086C04BF087C04CF088C04DF089C04EF0CA
:10D650003B0E4F6EAA0E506EB80E516E3F0E526EBC
:10D6600046EC6FF04BC086F04CC087F04DC088F0A0
:10D670004EC089F086C04BF087C04CF088C04DF09A
:10D6800089C04EF017EC65F04BC08AF04CC08BF0AF
:10D690004DC08CF04EC08DF08AC00FF08BC010F0E2
:10D6A0008CC011F08DC012F005EC64F00FC08EF04C
:10D6B00010C08FF086C057F087C058F088C059F06E
:10D6C00089C05AF08EC019F08FC01AF0000E1ABE31
:10D6D000FF0E1B6E1C6E010E7AEC68F019C05BF039
:10D6E0001AC05CF01BC05DF01CC05EF0A2EC5FF0E5
:10D6F00057C086F058C087F059C088F05AC089F0EA
:10D7000086C057F087C058F088C059F089C05AF0D9
:10D71000C50E5B6EFE0E5C6E000E5E6E090E5D6EDB
:10D7200088EC64F057C075F058C076F059C077F0B7
:10D730005AC078F08EC079F08FC07AF0B7EC65F0FF
:10D7400075C086F076C087F077C088F078C089F021
:10D7500000019051D8B4AFEF6BF0B1EF6BF0F2EF86
:10D760006BF086C027F087C028F088C029F089C0F8
:10D770002AF0FF0E2B6EFF0E2C6E7F0E2D6E7F0E8D
:10D780002E6E08EC62F0D8A0C8EF6BF0CAEF6BF019
:10D79000D5EF6BF0000E0001866F000E876F000E54
:10D7A000886F000E896FFAEF6BF0000E00016D6F4D
:10D7B000000E6E6F800E6F6F3F0E706F86C071F03F
:10D7C00087C072F088C073F089C074F078EC6DF097
:10D7D0006DC086F06EC087F06FC088F070C089F0B1
:10D7E000FAEF6BF086C086F087C087F088C088F0BB
:10D7F00089C089F012000001756F6D0E000175651A
:10D8000004EF6CF006EF6CF0C8EF6CF0000E4F6E9A
:10D81000000E506E000E516E3F0E526E000E096EDD
:10D82000640E086E75C006F0076A26EC60F0D890AA
:10D8300006360736D89006360736480E0626000EFE
:10D840000722710E0624F66EFE0E0720F76EF86AA8
:10D85000000EF82209006F00D4FF4BF009006F00A2
:10D86000D4FF4CF009006F00D4FF4DF00A006F00A8
:10D87000D4FF4EF046EC6FF04BC071F04CC072F02C
:10D880004DC073F04EC074F0000E096E0A0E086EA3
:10D89000000E046E640E036E75C001F0026AF4ECB3
:10D8A0005FF001C006F002C007F026EC60F0D890EF
:10D8B00006360736D89006360736240E0626000EA2
:10D8C0000722710E0624F66EFE0E0720F76EF86A28
:10D8D000000EF82209006F00D4FF4FF009006F001E
:10D8E000D4FF50F009006F00D4FF51F00A006F0020
:10D8F000D4FF52F071C04BF072C04CF073C04DF0C9
:10D9000074C04EF046EC6FF04BC06DF04CC06EF042
:10D910004DC06FF04EC070F06DC04BF06EC04CF05B
:10D920006FC04DF070C04EF0000E046E0A0E036E14
:10D9300075C001F0026AF4EC5FF0D890013602364F
:10D94000D89001360236710E0124F66EFE0E0220CA
:10D95000F76EF86A000EF82209006F00D4FF4FF04E
:10D9600009006F00D4FF50F009006F00D4FF51F0A0
:10D970000A006F00D4FF52F046EC6FF04BC057F036
:10D980004CC058F04DC059F04EC05AF077EF6DF0D2
:10D990000A0E7565CEEF6CF0D0EF6CF04AEF6DF0CB
:10D9A000000E4F6E000E506E000E516E3F0E526E06
:10D9B000000E096E0A0E086E75C006F0076A26ECA6
:10D9C00060F0D89006360736D89006360736240E13
:10D9D0000626000E0722710E0624F66EFE0E0720A4
:10D9E000F76EF86A000EF82209006F00D4FF4BF0C2
:10D9F00009006F00D4FF4CF009006F00D4FF4DF018
:10DA00000A006F00D4FF4EF046EC6FF04BC071F08F
:10DA10004CC072F04DC073F04EC074F071C04BF04A
:10DA200072C04CF073C04DF074C04EF0000E046E26
:10DA30000A0E036E75C001F0026AF4EC5FF0D89034
:10DA400001360236D89001360236710E0124F66E88
:10DA5000FE0E0220F76EF86A000EF82209006F0031
:10DA6000D4FF4FF009006F00D4FF50F009006F00A1
:10DA7000D4FF51F00A006F00D4FF52F046EC6FF073
:10DA80004BC057F04CC058F04DC059F04EC05AF042
:10DA900077EF6DF07551040D710EF324F66EFE0EE6
:10DAA000F420F76EF86A000EF82209006F00D4FF28
:10DAB0004BF009006F00D4FF4CF009006F00D4FF59
:10DAC0004DF00A006F00D4FF4EF0000E4F6E000EB6
:10DAD000506E000E516E3F0E526E46EC6FF04BC012
:10DAE00057F04CC058F04DC059F04EC05AF01200DB
:10DAF00000017051800B7D6F70517025846F6FAF86
:10DB000084EF6DF086EF6DF087EF6DF084818451C6
:10DB1000D8B48DEF6DF08FEF6DF0A4EF6DF0842928
:10DB2000D8A495EF6DF097EF6DF09FEF6DF0000EBC
:10DB30006D6F000E6E6F000E6F6F000E706F6F8F47
:10DB4000000E706FACEF6DF0000E6D6F000E6E6F1B
:10DB5000000E6F6F000E706F7451800B7D1B74513F
:10DB60007425856F73AFB7EF6DF0B9EF6DF0BAEF55
:10DB70006DF085818551D8B4C0EF6DF0C2EF6DF0C6
:10DB8000D7EF6DF08529D8A4C8EF6DF0CAEF6DF01E
:10DB9000D2EF6DF0000E716F000E726F000E736F9A
:10DBA000000E746F738F000E746FDFEF6DF0000E58
:10DBB000716F000E726F000E736F000E746F7151F3
:10DBC000721173117411D8A4E8EF6DF0EAEF6DF0E3
:10DBD00002EF6EF0000E6D6F000E6E6F000E6F6F35
:10DBE000000E706F800E6F137F0E70137D517013D7
:10DBF0006DC06DF06EC06EF06FC06FF070C070F0F1
:10DC000045EF6FF08451D8A408EF6EF00AEF6EF084
:10DC100014EF6EF0000E6D6F000E6E6F000E6F6FE2
:10DC2000000E706F45EF6FF0855184C075F0766B14
:10DC3000755F000E765B7F0E75257E6F000E762178
:10DC40007F6F6DC079F06EC07AF06FC07BF070C0EE
:10DC50007CF0000E6D6F000E6E6F000E6F6F000E89
:10DC6000706F000E806F000E816F000E826F000ECD
:10DC7000836F000E856F75EF6EF08551D8B443EF5A
:10DC80006EF045EF6EF05CEF6EF0D89079377A3732
:10DC90007B377C37D8906D376E376F37703783AFEF
:10DCA00054EF6EF056EF6EF057EF6EF06D81D89036
:10DCB00080378137823783377151795D72517A5954
:10DCC00073517B5974517C59D8A069EF6EF06BEF9A
:10DCD0006EF074EF6EF0838D7151795F72517A5BE3
:10DCE00073517B5B74517C5B852B190E85657BEFD3
:10DCF0006EF07DEF6EF03DEF6EF079517A117B1191
:10DD00007C11D8B486EF6EF088EF6EF0A0EF6EF065
:10DD10008081A0EF6EF0D8906D376E376F37703717
:10DD200083AF95EF6EF097EF6EF098EF6EF06D8128
:10DD3000D89080378137823783377E07D8A07F0716
:10DD40006FAFA5EF6EF0A7EF6EF08BEF6EF0000EE9
:10DD5000856F83AFAEEF6EF0B0EF6EF0D4EF6EF084
:10DD6000FF0E8015756FFF0E8115766FFF0E821501
:10DD7000776F7F0E8315786F755176117711781153
:10DD8000D8B4C5EF6EF0C7EF6EF0CBEF6EF0010EBA
:10DD9000856FD4EF6EF06DA1D0EF6EF0D2EF6EF024
:10DDA000D4EF6EF0C7EF6EF08551D8B4DAEF6EF0B5
:10DDB000DCEF6EF000EF6FF0010E6D27000E6E23AA
:10DDC0006F23702370A1E7EF6EF0E9EF6EF000EFC4
:10DDD0006FF06DC075F06EC076F06FC077F070C0F8
:10DDE00078F07835783377337633753375C06DF0E6
:10DDF00076C06EF077C06FF078C070F07E4B7F2BEE
:10DE00007FBF0BEF6FF07F5108E17E29D8A00BEFA9
:10DE10006FF00DEF6FF018EF6FF0000E7F6F7E69FF
:10DE2000000E6D6F000E6E6F000E6F6F000E706F44
:10DE30007FBF25EF6FF07F5106E17E05D8B023EF5D
:10DE40006FF025EF6FF033EF6FF0000E7F6F000E75
:10DE50007E6F000E6D6F000E6E6F000E6F6F000E06
:10DE6000706F000E7D6F7EC084F084A13AEF6FF07A
:10DE70003CEF6FF03FEF6FF06F8F40EF6FF06F9FF1
:10DE8000D8908431706FF6EF6DF012004E50800B19
:10DE90000001606F4E504E24666F4DAE52EF6FF032
:10DEA00054EF6FF055EF6FF066816651D8B45BEFB9
:10DEB0006FF05DEF6FF070EF6FF06629D8A463EF3D
:10DEC0006FF065EF6FF06DEF6FF0000E4B6E000EB0
:10DED0004C6E000E4D6E000E4E6E4D8E78EF6FF054
:10DEE000000E4B6E000E4C6E000E4D6E000E4E6E10
:10DEF0005250800B601B52505224656F51AE83EF1D
:10DF00006FF085EF6FF086EF6FF065816551D8B4E3
:10DF10008CEF6FF08EEF6FF0A1EF6FF06529D8A452
:10DF200094EF6FF096EF6FF09EEF6FF0000E4F6E74
:10DF3000000E506E000E516E000E526E518EA9EF03
:10DF40006FF0000E4F6E000E506E000E516E000E00
:10DF5000526E6551D8B4AFEF6FF0B1EF6FF0B9EF1B
:10DF60006FF06651D8A4B7EF6FF0B9EF6FF0C3EF61
:10DF70006FF0000E4B6E000E4C6E000E4D6E000EDC
:10DF80004E6E6DEF71F051504B026F00CCFF6BF095
:10DF90006F00D0FF6CF06B51616F626B636B646BF1
:10DFA0006C51676F686B696B6A6B50504C026F0005
:10DFB000CCFF6BF06F00D0FF6CF06B516127000E4F
:10DFC0006223632364236C516727000E682369234F
:10DFD0006A234F504D026F00CCFF6BF06F00D0FFF3
:10DFE0006CF06B516127000E6223632364236C5134
:10DFF0006727000E682369236A2363C064F062C048
:10E0000063F061C062F0616B4F504C026F00CCFF57
:10E010006BF06F00D0FF6CF06B5161276C51622385
:10E02000000E6323000E642350504B026F00CCFFA0
:10E030006BF06F00D0FF6CF06B5161276C51622365
:10E04000000E6323000E642363C064F062C063F0BB
:10E0500061C062F0616B4F504B026F00CCFF6BF000
:10E060006F00D0FF6CF06B5161276C516223000E82
:10E070006323000E642351504C026F00CCFF6BF001
:10E080006F00D0FF6CF06B5167276C516823000E56
:10E090006923000E6A2350504D026F00CCFF6BF0D5
:10E0A0006F00D0FF6CF06B5167276C516823000E36
:10E0B0006923000E6A2351504D026F00CCFF6BF0B4
:10E0C0006F00D0FF6CF06B51536E6C51546E556AFB
:10E0D000566A55C056F054C055F053C054F0536AB8
:10E0E00053506727545068235550692356506A236C
:10E0F00061C053F062C054F063C055F064C056F084
:10E10000190E88EF70F0D89056325532543253328F
:10E11000E82E83EF70F05350672754506823555012
:10E12000692356506A2363C064F062C063F061C023
:10E1300062F0616B655166C053F0546A5326000E5D
:10E140005422820E53246B6FFF0E54206C6FBEEF6F
:10E1500070F0D8906737683769376A3764AFB3EFC4
:10E1600070F0B5EF70F0B6EF70F06781D89061375E
:10E170006237633764376B07D8A06C0769AFC3EFAA
:10E1800070F0C5EF70F0A9EF70F0000E656F64AF2E
:10E19000CCEF70F0CEEF70F0F2EF70F0FF0E611583
:10E1A000536EFF0E6215546EFF0E6315556E7F0E93
:10E1B0006415566E5350541055105610D8B4E3EFF2
:10E1C00070F0E5EF70F0E9EF70F0010E656FF2EFBF
:10E1D00070F067A1EEEF70F0F0EF70F0F2EF70F01A
:10E1E000E5EF70F06551D8B4F8EF70F0FAEF70F029
:10E1F0001EEF71F0010E6727000E682369236A2362
:10E200006AA105EF71F007EF71F01EEF71F067C0C2
:10E2100053F068C054F069C055F06AC056F05634E7
:10E22000563255325432533253C067F054C068F0FE
:10E2300055C069F056C06AF06B4B6C2B6CBF29EF70
:10E2400071F06C5108E16B29D8A029EF71F02BEF28
:10E2500071F035EF71F0000E676F000E686F800E81
:10E26000696F7F0E6A6F63EF71F06CBF42EF71F000
:10E270006C5106E16B05D8B040EF71F042EF71F0E0
:10E280004EEF71F0000E676F000E686F000E696F41
:10E29000000E6A6F000E606F63EF71F06BC066F086
:10E2A000FF0E6717FF0E68177F0E6917000E6A17BB
:10E2B00066A15DEF71F05FEF71F060EF71F0698F53
:10E2C000D89066316A6F60516A1367C04BF068C0BE
:10E2D0004CF069C04DF06AC04EF012005F6E5FBE38
:10E2E00076EF71F074EF71F0A0EF72F05F6C5F5039
:10E2F000800A120FD8A07FEF71F081EF71F01FEF4D
:10E3000072F0000E0A6E0A0E096E000E046E640EA4
:10E31000036E5F50016E026A01BE02065DEC62F0A0
:10E3200001C007F002C008F0B5EC62F0090E072644
:10E330000750040D710EF324F66EFE0EF420F76EF6
:10E34000F86A000EF82209006F00D4FF4FF00900B0
:10E350006F00D4FF50F009006F00D4FF51F00A00A5
:10E360006F00D4FF52F0000E0A6E640E096E5F500B
:10E37000076E086A07BE0806B5EC62F0120E0726A3
:10E380000750040D710EF324F66EFE0EF420F76EA6
:10E39000F86A000EF82209006F00D4FF4BF0090064
:10E3A0006F00D4FF4CF009006F00D4FF4DF00A005D
:10E3B0006F00D4FF4EF046EC6FF04BC05BF04CC0EA
:10E3C0005CF04DC05DF04EC05EF05BC04BF05CC0D9
:10E3D0004CF05DC04DF05EC04EF0000E046E0A0EB3
:10E3E000036E5F50016E026A01BE02065DEC62F0D0
:10E3F0000150040D710EF324F66EFE0EF420F76E3C
:10E40000F86A000EF82209006F00D4FF4FF00900EF
:10E410006F00D4FF50F009006F00D4FF51F00A00E4
:10E420006F00D4FF52F046EC6FF04BC057F04CC079
:10E4300058F04DC059F04EC05AF0C7EF73F05F501E
:10E44000800A750FD8A027EF72F029EF72F083EFE2
:10E4500072F0000E0A6E0A0E096E5F50076E086AAF
:10E4600007BE0806B5EC62F0090E07260750040D3A
:10E47000710EF324F66EFE0EF420F76EF86A000EAD
:10E48000F82209006F00D4FF4BF009006F00D4FFA1
:10E490004CF009006F00D4FF4DF00A006F00D4FF6C
:10E4A0004EF0000E046E0A0E036E5F50016E026A9B
:10E4B00001BE02065DEC62F00150040D710EF32402
:10E4C000F66EFE0EF420F76EF86A000EF8220900D0
:10E4D0006F00D4FF4FF009006F00D4FF50F0090027
:10E4E0006F00D4FF51F00A006F00D4FF52F046ECE9
:10E4F0006FF04BC057F04CC058F04DC059F04EC0B3
:10E500005AF0C7EF73F05F50040D710EF324F66EEE
:10E51000FE0EF420F76EF86A000EF82209006F0074
:10E52000D4FF57F009006F00D4FF58F009006F00C6
:10E53000D4FF59F00A006F00D4FF5AF0C7EF73F010
:10E540005F50800A120FD8A0A8EF72F0AAEF72F005
:10E5500048EF73F0000E0A6E0A0E096E000E046E8C
:10E56000640E036E5F50016E026A01BE02065DEC2E
:10E5700062F001C007F002C008F0B5EC62F0090ECD
:10E5800007260750040D3D0EF324F66EFE0EF42010
:10E59000F76EF86A000EF82209006F00D4FF4FF002
:10E5A00009006F00D4FF50F009006F00D4FF51F054
:10E5B0000A006F00D4FF52F0000E0A6E640E096E5E
:10E5C0005F50076E086A07BE0806B5EC62F0120ECF
:10E5D00007260750040D3D0EF324F66EFE0EF420C0
:10E5E000F76EF86A000EF82209006F00D4FF4BF0B6
:10E5F00009006F00D4FF4CF009006F00D4FF4DF00C
:10E600000A006F00D4FF4EF046EC6FF04BC05BF099
:10E610004CC05CF04DC05DF04EC05EF05BC04BF096
:10E620005CC04CF05DC04DF05EC04EF0000E046E5C
:10E630000A0E036E5F50016E026A01BE02065DECB7
:10E6400062F00150040D3D0EF324F66EFE0EF42030
:10E65000F76EF86A000EF82209006F00D4FF4FF041
:10E6600009006F00D4FF50F009006F00D4FF51F093
:10E670000A006F00D4FF52F046EC6FF04BC057F029
:10E680004CC058F04DC059F04EC05AF0C7EF73F06F
:10E690005F50800A750FD8A050EF73F052EF73F0FF
:10E6A000ACEF73F0000E0A6E0A0E096E5F50076E33
:10E6B000086A07BE0806B5EC62F0090E0726075087
:10E6C000040D3D0EF324F66EFE0EF420F76EF86A8C
:10E6D000000EF82209006F00D4FF4BF009006F0014
:10E6E000D4FF4CF009006F00D4FF4DF00A006F001A
:10E6F000D4FF4EF0000E046E0A0E036E5F50016EE2
:10E70000026A01BE02065DEC62F00150040D3D0E8E
:10E71000F324F66EFE0EF420F76EF86A000EF8226F
:10E7200009006F00D4FF4FF009006F00D4FF50F0D4
:10E7300009006F00D4FF51F00A006F00D4FF52F0BF
:10E7400046EC6FF04BC057F04CC058F04DC059F03C
:10E750004EC05AF0C7EF73F05F50040D3D0EF32426
:10E76000F66EFE0EF420F76EF86A000EF82209002D
:10E770006F00D4FF57F009006F00D4FF58F0090074
:10E780006F00D4FF59F00A006F00D4FF5AF0120056
:10E790003E50800B476E3E503E24496E3DAED3EF57
:10E7A00073F0D5EF73F0D6EF73F049804950D8B4C9
:10E7B000DCEF73F0DEEF73F0F3EF73F04928D8A4C9
:10E7C000E4EF73F0E6EF73F0EEEF73F0000E3B6EE4
:10E7D000000E3C6E000E3D6E000E3E6E3D8E000E35
:10E7E0003E6EFBEF73F0000E3B6E000E3C6E000EB3
:10E7F0003D6E000E3E6E4250800B486E47504818EA
:10E80000D8B405EF74F007EF74F008EF74F0478C9C
:10E8100042504224486E41AE10EF74F012EF74F093
:10E8200013EF74F048804850D8B419EF74F01BEF20
:10E8300074F030EF74F04828D8A421EF74F023EF7F
:10E8400074F02BEF74F0000E3F6E000E406E000E61
:10E85000416E000E426E418E000E426E38EF74F033
:10E86000000E3F6E000E406E000E416E000E426EB6
:10E870004950485CD8B03FEF74F041EF74F068EF56
:10E8800074F047AC46EF74F048EF74F04AEF74F060
:10E89000800E471A49C04AF048C049F04AC048F0C3
:10E8A0003BC04AF03FC03BF04AC03FF03CC04AF09A
:10E8B00040C03CF04AC040F03DC04AF041C03DF08D
:10E8C0004AC041F03EC04AF042C03EF04AC042F069
:10E8D000000E4A6E495048C043F0446A435E000E41
:10E8E000445A44BE7DEF74F0445009E11A0E435C73
:10E8F000D8A07DEF74F07FEF74F0B6EF74F03B506A
:10E900003C103D103E10D8A488EF74F08BEF74F0EB
:10E91000010E8CEF74F0000E4A6E000E3B6E000E7E
:10E920003C6E000E3D6E000E3E6E48C049F0BFEFDB
:10E9300074F04AA09EEF74F0A0EF74F0A6EF74F0AC
:10E94000D8904A3001094A6EA8EF74F0D8904A3244
:10E950003BA0ADEF74F0AFEF74F0B0EF74F04A8EFF
:10E960003E343E323D323C323B32492A4850495CCB
:10E97000D8A0BDEF74F0BFEF74F099EF74F047BC0E
:10E98000C4EF74F0C6EF74F006EF75F04950D8A4E8
:10E99000CCEF74F0CEEF74F0D8EF74F0000E3B6E55
:10E9A000000E3C6E000E3D6E000E3E6E27EF76F0C0
:10E9B0003F503B2640503C2241503D2242503E2297
:10E9C0003EA0E5EF74F0E7EF74F093EF75F04AA026
:10E9D000ECEF74F0EEEF74F0F4EF74F0D8904A308E
:10E9E00001094A6EF6EF74F0D8904A323BA0FBEF73
:10E9F00074F0FDEF74F0FEEF74F04A8E3E343E3258
:10EA00003D323C323B32492A93EF75F03F503B5C3C
:10EA100040503C5841503D583E50800A436E425051
:10EA2000800A4358D8B017EF75F019EF75F044EF2E
:10EA300075F03B503F5C436E3C504058446E3D5037
:10EA40004158456E3E504258466EFF0E43243B6E81
:10EA5000FF0E44203C6EFF0E45203D6EFF0E46200B
:10EA60003E6E800E471A4A6C4A50D8A43AEF75F0B1
:10EA70003CEF75F04CEF75F0010E3B26000E3C228A
:10EA80003D223E224CEF75F03F503B5E40503C5AD9
:10EA900041503D5A42503E5A3B503C103D103E10B2
:10EAA000D8A455EF75F057EF75F08CEF75F04A501C
:10EAB000D8A45DEF75F05FEF75F08CEF75F0000E88
:10EAC0003B6E000E3C6E000E3D6E000E3E6E27EF5C
:10EAD00076F0D8903B363C363D363E364AAE73EF44
:10EAE00075F075EF75F076EF75F03B804AA07BEF1F
:10EAF00075F07DEF75F081EF75F0D8804A3683EFC1
:10EB000075F0D8904A364950D8B489EF75F08BEF3C
:10EB100075F08CEF75F049063DAE91EF75F093EF0F
:10EB200075F069EF75F0000E486E4AAE9AEF75F019
:10EB30009CEF75F0B4EF75F04AC043F07F0E4316BA
:10EB4000D8B4A5EF75F0A7EF75F0ABEF75F0010E37
:10EB5000486EB4EF75F03BA0B0EF75F0B2EF75F012
:10EB6000B4EF75F0A7EF75F04850D8B4BAEF75F070
:10EB7000BCEF75F0E7EF75F0010E3B26000E3C226E
:10EB80003D223E223EA0C7EF75F0C9EF75F0E7EFDA
:10EB900075F03BC043F03CC044F03DC045F03EC082
:10EBA00046F04634463245324432433243C03BF0AD
:10EBB00044C03CF045C03DF046C03EF04928D8B4C2
:10EBC000E4EF75F0E6EF75F0E7EF75F0492A4928B4
:10EBD000D8B4EDEF75F0EFEF75F0F7EF75F0495041
:10EBE000D8A4F5EF75F0F7EF75F009EF76F0000EA9
:10EBF0003B6E000E3C6E000E3D6E000E3E6E4950A8
:10EC0000D8A405EF76F007EF76F009EF76F0000E66
:10EC1000476E49A00EEF76F010EF76F013EF76F026
:10EC20003D8E14EF76F03D9ED89049303E6E47AE53
:10EC30001CEF76F01EEF76F01FEF76F03E8E3BC0B5
:10EC40003BF03CC03CF03DC03DF03EC03EF0120009
:10EC5000F3EC5EF0E0EC60F0B80E0001A66FFF0E82
:10EC6000A76FFEEC78F0110E0101076FF60E066F2C
:10EC7000B950F00B0509B96EF00EB816B9500F0B6C
:10EC80000001D96FD951FC6FFD6BB8500F0BD96FD4
:10EC9000D951FE6FFF6BFCC019F0FDC01AF01B6A62
:10ECA0001C6A000E7AEC68F019C0F8F01AC0F9F08E
:10ECB0001BC0FAF01CC0FBF0390E0001A66FFF0E5E
:10ECC000A76F06C1A8F007C1A9F006C1AAF007C145
:10ECD000ABF0FCC0ACF0FDC0ADF0000E916F000ECB
:10ECE000926F000E936F400E946FF8C095F0F9C0CC
:10ECF00096F0FAC097F0FBC098F054EC69F091C020
:10ED0000AEF092C0AFF093C0B0F094C0B1F0FEC0CE
:10ED1000B2F0FFC0B3F0010E0001FE25B46F000E8B
:10ED2000FF21B56FFEEC78F0FCC019F0FDC01AF0C1
:10ED30001B6A1C6A000E7AEC68F019C0F8F01AC061
:10ED4000F9F01BC0FAF01CC0FBF0000E4F6E000E75
:10ED5000506E800E516E470E526E000E3F6E000ECA
:10ED6000406E800E416E3F0E426EFEC019F0FFC035
:10ED70001AF01B6A1C6A000E7AEC68F019C03BF0AE
:10ED80001AC03CF01BC03DF01CC03EF0C8EC73F054
:10ED90003BC04BF03CC04CF03DC04DF03EC04EF08F
:10EDA00046EC6FF04BC0DEF04CC0DFF04DC0E0F041
:10EDB0004EC0E1F0F8C095F0F9C096F0FAC097F0B7
:10EDC000FBC098F0000E0001916F000E926F000ED4
:10EDD000936F400E946F54EC69F091C0F0F092C0C4
:10EDE000F1F093C0F2F094C0F3F0F0C04FF0F1C036
:10EDF00050F0F2C051F0F3C052F006C119F007C153
:10EE00001AF01B6A1C6A000E7AEC68F019C05BF0FD
:10EE10001AC05CF01BC05DF01CC05EF0DEC057F095
:10EE2000DFC058F0E0C059F0E1C05AF0A2EC5FF04A
:10EE300057C04BF058C04CF059C04DF05AC04EF07E
:10EE400046EC6FF04BC0F4F04CC0F5F04DC0F6F05E
:10EE50004EC0F7F0000E4F6E000E506E800E516ED9
:10EE6000400E526EF4C04BF0F5C04CF0F6C04DF0C1
:10EE7000F7C04EF046EC6FF04BC06DF04CC06EF03A
:10EE80004DC06FF04EC070F0000E0001716F240E87
:10EE9000726FF40E736F4A0E746F78EC6DF06DC084
:10EEA000E6F06EC0E7F06FC0E8F070C0E9F0FCC0BB
:10EEB00019F0FDC01AF01B6A1C6A000E7AEC68F0AB
:10EEC00019C0F8F01AC0F9F01BC0FAF01CC0FBF032
:10EED000000E4F6E000E506E800E516E470E526E39
:10EEE000000E3F6E000E406E800E416E3F0E426E71
:10EEF000FEC019F0FFC01AF01B6A1C6A000E7AEC03
:10EF000068F019C03BF01AC03CF01BC03DF01CC0BB
:10EF10003EF0C8EC73F03BC04BF03CC04CF03DC041
:10EF20004DF03EC04EF046EC6FF04BC0E2F04CC0EE
:10EF3000E3F04DC0E4F04EC0E5F0F8C095F0F9C044
:10EF400096F0FAC097F0FBC098F0000E0001916FA8
:10EF5000000E926F000E936F400E946F54EC69F0A8
:10EF600091C0F0F092C0F1F093C0F2F094C0F3F0D1
:10EF7000F0C04FF0F1C050F0F2C051F0F3C052F0C9
:10EF8000000E3F6E940E406E9A0E416EC60E426E9B
:10EF9000E2C03BF0E3C03CF0E4C03DF0E5C03EF031
:10EFA000C8EC73F03BC04BF03CC04CF03DC04DF0A2
:10EFB0003EC04EF046EC6FF04BC0F4F04CC0F5F0A4
:10EFC0004DC0F6F04EC0F7F0000E4F6E000E506EC2
:10EFD000800E516E400E526EF4C04BF0F5C04CF0F6
:10EFE000F6C04DF0F7C04EF046EC6FF04BC06DF040
:10EFF0004CC06EF04DC06FF04EC070F0000E0001BE
:10F00000716F240E726FF40E736F4A0E746F78EC8A
:10F010006DF06DC0EAF06EC0EBF06FC0ECF070C048
:10F02000EDF0000E00016D6F000E6E6F800E6F6FC1
:10F030003F0E706FEAC03FF0EBC040F0ECC041F013
:10F04000EDC042F0E6C03BF0E7C03CF0E8C03DF068
:10F05000E9C03EF0C8EC73F03BC071F03CC072F008
:10F060003DC073F03EC074F078EC6DF06DC0DAF026
:10F070006EC0DBF06FC0DCF070C0DDF07E0E000112
:10F08000A66FFF0EA76FE6C0A8F0E7C0A9F0E8C022
:10F09000AAF0E9C0ABF0EAC0ACF0EBC0ADF0ECC058
:10F0A000AEF0EDC0AFF0DAC0B0F0DBC0B1F0DCC064
:10F0B000B2F0DDC0B3F0FEEC78F09EEC60F04D0EE7
:10F0C0000001EF6F4A0EEE6FF0EF78F0BC84BD9454
:10F0D0003901A39F06C101F007C102F0E4EC5EF024
:10F0E00080EF78F09EEC60F0020E01010E19D8A4BA
:10F0F0007CEF78F07EEF78F080EF78F088EF78F0B2
:10F100003901A3AF86EF78F088EF78F072EF78F0EE
:10F11000BC94BD843901A39FEEC001F0EFC002F0A2
:10F12000E4EC5EF0A2EF78F09EEC60F0020E0101DC
:10F130000E19D8A49EEF78F0A0EF78F0A2EF78F047
:10F140005DEF78F03901A3AFA8EF78F0AAEF78F07F
:10F1500094EF78F05DEF78F0BC84BD843901A39F13
:10F1600006C101F007C102F0E4EC5EF0C5EF78F0F3
:10F170009EEC60F001010E05D8A4C1EF78F0C3EF5A
:10F1800078F0C5EF78F0CDEF78F03901A3AFCBEF91
:10F1900078F0CDEF78F0B8EF78F0BC94BD943901F9
:10F1A000A39FEEC001F0EFC002F0E4EC5EF0E6EFEA
:10F1B00078F09EEC60F001010E05D8A4E2EF78F043
:10F1C000E4EF78F0E6EF78F05DEF78F03901A3AF87
:10F1D000ECEF78F0EEEF78F0D9EF78F05DEF78F0C3
:10F1E00001010E51010AD8B466EF78F0030AD8B4D1
:10F1F000ACEF78F05DEF78F0FEEF7FF0A80E000145
:10F20000C36F000EC46F07EF7FF0250ED719D8B477
:10F210000CEF79F00EEF79F013EF79F0D751DFECC6
:10F220005EF007EF7FF0000EC66F000EC56F600046
:10F230009BF2F6FF60009FF2F7FFF86A0800F550B6
:10F240002E0AD8A426EF79F028EF79F06DEF79F047
:10F25000C68DA64BA72B000ED66F000ED56F59EFAB
:10F2600079F0D5C001F0D6C002F0000E046E0A0E8F
:10F27000036E29EC5FF001C0D5F002C0D6F0D00ECD
:10F280000001B66FFF0EB76F60009BF2F6FF6000E3
:10F290009FF2F7FFF86A0800F550B86FB96BB651E6
:10F2A000B827B751B923B851D527B951D623A64BA2
:10F2B000A72B60009BF2F6FF60009FF2F7FFF86A51
:10F2C0000800F5506DEC5FF0D8B069EF79F06BEFA6
:10F2D00079F031EF79F0CBEF79F0000ED66F000EB8
:10F2E000D56FC689CBEF79F0C685F0EF79F0C58F81
:10F2F000F0EF79F0D551D611D8B481EF79F083EFE2
:10F3000079F0A2EF79F0D6BF90EF79F0D65106E10F
:10F31000D505D8B08EEF79F090EF79F0A2EF79F0C3
:10F32000D5C0C1F0D6C0C2F0A2EF79F06000FBF208
:10F33000D9FF6000FFF2DAFFDF50DFEC5EF0000182
:10F34000BE4BBF2BC107D8A0C207C12906E1C22905
:10F35000D8A4ADEF79F0AFEF79F096EF79F007EF41
:10F360007FF060000FF3D9FF600013F3DAFFDF5086
:10F37000D76F020EC327000EC423D70EBE6F000E38
:10F38000BF6F000EC26F010EC16F7AEF79F0C00E31
:10F39000C513F0EF79F060009BF2F6FF60009FF27A
:10F3A000F7FF0001A64BA72BF86A08006F00D4FFF7
:10F3B000D7F0D751000AD8B41DEF7FF0630AD8B454
:10F3C000B1EF79F0050AD8B474EF79F0130AD8B424
:10F3D000C7EF79F00D0AD8B477EF79F0BDEF79F087
:10F3E000070EC615D8B4F7EF79F0F9EF79F08CEF86
:10F3F0007DF0C6A9FEEF79F000EF7AF004EF7AF025
:10F40000000ED66F060ED56F60000FF3D9FF6000B7
:10F4100013F3DAFF6F0078FFD1F06F0078FFD2F0BE
:10F420006F0078FFD3F06F0078FFD4F0040EC3278D
:10F43000000EC423D4BF21EF7AF01FEF7AF036EF2D
:10F440007AF0D1C001F0D2C002F0D3C003F0D4C032
:10F4500004F086EC5FF001C0D1F002C0D2F003C02E
:10F46000D3F004C0D4F0030E0001C513000EC86F22
:10F47000000EC76FD1C027F0D2C028F0D3C029F04A
:10F48000D4C02AF0000E2B6E000E2C6E000E2D6ED6
:10F49000000E2E6E08EC62F0D8B051EF7AF053EF08
:10F4A0007AF0E6EF7AF00001D335D435820FC76FDA
:10F4B000C86BFF0EC823C707D8A0C807C7C001F094
:10F4C000C8C002F0000E046E030E036E29EC5FF05C
:10F4D00001C0C7F002C0C8F0C7C007F0C8C008F03C
:10F4E000000E0A6E0A0E096EB5EC62F007C0C7F096
:10F4F00008C0C8F00001C8BF82EF7AF080EF7AF050
:10F5000085EF7AF0C707D8A0C807C75100086EEC8E
:10F5100071F057C0CDF058C0CEF059C0CFF05AC0EE
:10F52000D0F0CDC04BF0CEC04CF0CFC04DF0D0C02D
:10F530004EF0D1C04FF0D2C050F0D3C051F0D4C083
:10F5400052F046EC6FF04BC0CDF04CC0CEF04DC049
:10F55000CFF04EC0D0F0CDC001F0CEC002F0CFC091
:10F5600003F0D0C004F0000E056E000E066E800E93
:10F57000076E3F0E086E83EC63F0D8B0C2EF7AF0EE
:10F58000C4EF7AF0CAEF7AF00001C707D8A0C80725
:10F59000E6EF7AF0CDC001F0CEC002F0CFC003F0AC
:10F5A000D0C004F0000E056E000E066E200E076E31
:10F5B000410E086E83EC63F0D8A0E1EF7AF0E3EF40
:10F5C0007AF0E6EF7AF00001C74BC82B0001D6BFF6
:10F5D000F5EF7AF0D65107E10D0ED55DD8B0F3EF17
:10F5E0007AF0F5EF7AF012EF7BF0D1C03BF0D2C0A9
:10F5F0003CF0D3C03DF0D4C03EF0D551FBEC6BF0F5
:10F6000057C03FF058C040F059C041F05AC042F0D6
:10F61000C8EC73F03BC0D1F03CC0D2F03DC0D3F099
:10F620003EC0D4F00001C8BF21EF7BF0C85107E114
:10F630000A0EC75DD8B01FEF7BF021EF7BF05EEFC5
:10F640007BF0D1C027F0D2C028F0D3C029F0D4C0BD
:10F650002AF0000E2B6E000E2C6E000E2D6E000E8A
:10F660002E6E08EC62F0D8B038EF7BF03AEF7BF00A
:10F67000B3EF7BF0D1C00FF0D2C010F0D3C011F0C7
:10F68000D4C012F005EC64F00F50101011101210DD
:10F69000D8A44DEF7BF04FEF7BF0B3EF7BF0000190
:10F6A000C8BF5CEF7BF0C85109E1020EC75DD8A06E
:10F6B0005CEF7BF05EEF7BF0B3EF7BF0CDC001F051
:10F6C000CEC002F0CFC003F0D0C004F05F0E056ED4
:10F6D000700E066E890E076E400E086E83EC63F0A6
:10F6E000D8B075EF7BF077EF7BF07EEF7BF0000119
:10F6F000F70EC727FF0EC82383EF7BF00001F80E3B
:10F70000C727FF0EC823C7516EEC71F057C0CDF06C
:10F7100058C0CEF059C0CFF05AC0D0F0D1C001F0DF
:10F72000D2C002F0D3C003F0D4C004F0CDC005F0C5
:10F73000CEC006F0CFC007F0D0C008F057EC66F09E
:10F7400001C0C9F002C0CAF003C0CBF004C0CCF0C5
:10F75000000E0001D16F000ED26F000ED36F000EAD
:10F76000D46FEFEF7BF0D1C00FF0D2C010F0D3C058
:10F7700011F0D4C012F005EC64F00FC0C9F010C055
:10F78000CAF011C0CBF012C0CCF0D1C057F0D2C03B
:10F7900058F0D3C059F0D4C05AF0C9C019F0CAC04B
:10F7A0001AF0CBC01BF0CCC01CF0000E7AEC68F055
:10F7B00019C05BF01AC05CF01BC05DF01CC05EF0AD
:10F7C000A2EC5FF057C0D1F058C0D2F059C0D3F0CE
:10F7D0005AC0D4F0000E0001C86F000EC76F010EB2
:10F7E000D76F0A0ED719D8A4F8EF7BF0FAEF7BF0A9
:10F7F000FCEF7BF01FEF7CF0D751040DED0EF324EE
:10F80000F66EFE0EF420F76EF86A000EF82209007C
:10F81000F550C95D0900F550CA590900F550CB599A
:10F820000900F550CC59D8B018EF7CF01AEF7CF0F5
:10F830001CEF7CF01FEF7CF0D72BF1EF7BF0030E79
:10F84000C515B66F000EC615B76FB651B711D8B44F
:10F850002CEF7CF02EEF7CF07FEF7CF02D0EDFECB8
:10F860005EF07FEF7CF0C9C001F0CAC002F0CBC0EF
:10F8700003F0CCC004F0D751040DED0EF324F66E66
:10F88000FE0EF420F76EF86A000EF82209006F00F1
:10F89000D4FF05F009006F00D4FF06F009006F00E7
:10F8A000D4FF07F00A006F00D4FF08F0B6EC61F057
:10F8B00001C0CDF002C0CEF003C0CFF004C0D0F044
:10F8C000CDC00EF0CEC00FF0CFC010F0D0C011F000
:10F8D0000A0E126E000E136E000E146E000E156EE0
:10F8E00022EC61F00EC0CDF00FC0CEF010C0CFF012
:10F8F00011C0D0F00001CD51300FDFEC5EF00001FF
:10F90000D707D729D8A487EF7CF089EF7CF033EFB5
:10F910007CF092EF7CF0300EDFEC5EF00001C70768
:10F92000D8A0C807C8BF9FEF7CF0C85106E1C70543
:10F93000D8B09DEF7CF09FEF7CF08BEF7CF0D6BFD2
:10F94000ABEF7CF0D65109E1090ED55DD8A0ABEF45
:10F950007CF0ADEF7CF0B1EF7CF0080ED76FB3EF29
:10F960007CF0D5C0D7F0D751D55F000ED65BD7510C
:10F97000D8B4BDEF7CF0BFEF7CF0C2EF7CF02E0E70
:10F98000DFEC5EF00001D7516EEC71F057C0BAF0B9
:10F9900058C0BBF059C0BCF05AC0BDF0D1C04FF048
:10F9A000D2C050F0D3C051F0D4C052F0BAC04BF026
:10F9B000BBC04CF0BCC04DF0BDC04EF046EC6FF08B
:10F9C0004BC00FF04CC010F04DC011F04EC012F003
:10F9D00005EC64F00FC0C9F010C0CAF011C0CBF044
:10F9E00012C0CCF06EEF7DF0C9C001F0CAC002F0C9
:10F9F000CBC003F0CCC004F0D751040DED0EF324BE
:10FA0000F66EFE0EF420F76EF86A000EF82209007A
:10FA10006F00D4FF05F009006F00D4FF06F0090065
:10FA20006F00D4FF07F00A006F00D4FF08F0B6ECB7
:10FA300061F001C0CDF002C0CEF003C0CFF004C031
:10FA4000D0F0CDC00EF0CEC00FF0CFC010F0D0C0BF
:10FA500011F00A0E126E000E136E000E146E000EE0
:10FA6000156E22EC61F00EC0CDF00FC0CEF010C0CC
:10FA7000CFF011C0D0F00001CD51300FDFEC5EF0BF
:10FA8000C9C00EF0CAC00FF0CBC010F0CCC011F04E
:10FA90000001D751040DED0EF324F66EFE0EF42096
:10FAA000F76EF86A000EF82209006F00D4FF12F01A
:10FAB00009006F00D4FF13F009006F00D4FF14F0A9
:10FAC0000A006F00D4FF15F022EC61F00EC0C9F0FF
:10FAD0000FC0CAF010C0CBF011C0CCF00001D707A6
:10FAE000D729D8A476EF7DF078EF7DF0F4EF7CF0A5
:10FAF00081EF7DF0300EDFEC5EF00001D507D8A07D
:10FB0000D607D551D611D8A488EF7DF08AEF7DF0C5
:10FB10007AEF7DF007EF7FF060000FF3D9FF600010
:10FB200013F3DAFF6F0078FFB6F06F0074FFB7F0E1
:10FB3000B6C0C9F0B7C0CAF0CB6BCC6B020EC327FE
:10FB4000000EC423D551D611D8A4A9EF7DF0ABEF98
:10FB50007DF01AEF7EF0C951CA11CB11CC11D8A497
:10FB6000B4EF7DF0B6EF7DF01AEF7EF0D54BD62BDB
:10FB70001AEF7EF0010ED76F0A0ED719D8A4C3EF83
:10FB80007DF0C5EF7DF0C7EF7DF026EF7EF0D75119
:10FB9000040DED0EF324F66EFE0EF420F76EF86AF7
:10FBA000000EF8220900F550C95D0900F550CA5948
:10FBB0000900F550CB590900F550CC59D8B0E3EF06
:10FBC0007DF0E5EF7DF0E7EF7DF026EF7EF0D72BBF
:10FBD000BCEF7DF0010ED76F080ED719D8A4F3EF54
:10FBE0007DF0F5EF7DF0F7EF7DF026EF7EF0D75159
:10FBF000040DA50EF324F66EFE0EF420F76EF86ADF
:10FC0000000EF8220900F550C95D0900F550CA59E7
:10FC10000900F550CB590900F550CC59D8B013EF75
:10FC20007EF015EF7EF017EF7EF026EF7EF0D72BFB
:10FC3000ECEF7DF0C551C00B800AD8B4EAEF7DF03F
:10FC4000400AD8B4BAEF7DF026EF7EF0D751B66FF8
:10FC5000B76BD551B65DB751800AB86FD651800ADF
:10FC6000B859D8B036EF7EF038EF7EF03CEF7EF03A
:10FC7000D5C0D7F051EF7EF0D751B66FB76BB65104
:10FC8000D55DD651800AB86FB751800AB859D8B03F
:10FC90004CEF7EF04EEF7EF051EF7EF0D7C0D5F006
:10FCA000D66B030EC515B66F000EC615B76FB651ED
:10FCB000B711D8B45EEF7EF060EF7EF0F9EF7EF022
:10FCC0002D0EDFEC5EF0F9EF7EF0D5C0B6F0D6C0B9
:10FCD000B7F0D890B637B737D890B637B737ED0EFC
:10FCE000B625F66EFE0EB721F76EF86A000EF82202
:10FCF00009006F00D4FF05F009006F00D4FF06F083
:10FD000009006F00D4FF07F00A006F00D4FF08F06D
:10FD1000C9C001F0CAC002F0CBC003F0CCC004F0EF
:10FD2000B6EC61F001C00EF002C00FF003C010F09D
:10FD300004C011F00A0E126E000E136E000E146E47
:10FD4000000E156E22EC61F00E50300F0001D76FDF
:10FD5000F6EF7EF0C9C001F0CAC002F0CBC003F0DC
:10FD6000CCC004F0D5C0B6F0D6C0B7F0D890B63746
:10FD7000B737D890B637B737A50EB625F66EFE0E54
:10FD8000B721F76EF86A000EF82209006F00D4FF61
:10FD900005F009006F00D4FF06F009006F00D4FFE2
:10FDA00007F00A006F00D4FF08F0B6EC61F00150D4
:10FDB0000F0B0001C06FE10EC025F66EF76AFF0E53
:10FDC000F722F86A000EF82208006F00D4FFD7F07F
:10FDD000F6EF7EF0C551C00B800AD8B4AAEF7EF0D2
:10FDE000400AD8B465EF7EF0F6EF7EF0D751DFEC35
:10FDF0005EF00001D507D8A0D607D52906E1D6299F
:10FE0000D8A405EF7FF007EF7FF0EAEF7EF0600007
:10FE10009BF2F6FF60009FF2F7FF0001A64BA72BB5
:10FE2000F86A08006F00D4FFD7F0D751D8A41BEFB1
:10FE30007FF01DEF7FF005EF79F0120000000080E9
:10FE40003F000020410000C84200007A4400401CEE
:10FE5000460050C347002474498096184B20BCBE0E
:10FE60004C286B6E4EF9021550EC78AD60CAF24921
:10FE7000710000803FCDCCCC3D0AD7233C6F12836C
:10FE80003A17B7D138ACC52737BD37863595BFD6B9
:10FE90003377CC2B325F708930FFE6DB2E08E53CF0
:10FEA0001E6042A20D0100000010000000000100D1
:10FEB0000000100000000001000000100000000021
:10FEC00001000000100000803F1872313FF0FD7506
:10FED0003E4758633D58951D3C82C4AE3AA87821F0
:10FEE00039EF938037A092A73546561534010000AC
:10FEF000000A00000064000000E803000010270072
:10FF000000A086010040420F008096980000E1F5B5
:10FF10000500CA9A3B00000000C4FF7F3F80EFFF4E
:10FF2000BE90E1A93EEC8276BE82AD2B3E0E3CC374
:10FF3000BD87D1133D4178D3BB74696D6572305272
:10FF4000656C6F616456616C313662697420257529
:10FF5000203D20307825782C206E203D2025752CE2
:10FF6000204E203D20252E30662C206D203D202562
:10FF7000752C204D203D202575200A0A0D00524485
:10FF800032204F6E2054696D652025662C204F6607
:10FF9000662054696D65202566207365636F6E6405
:10FFA000732C206672657175656E6379203D20251E
:10FFB0006620487A0A0A0D0031362D4249542054F1
:10FFC0004D52302044656C617973200A0A0D00623D
:10FFD0006C696E6B72617465203D202575200A0D79
:10FFE0000030313233343536373839616263646515
:10FFF000660025632563256325630000EAEF5EF054
:020000040020DA
:10000000FF0FFF0FFF0FFF0FFF0FFF0FFF0FFF0F80
:020000040030CA
:0A000000ECFEF7FF9FFFFFFFFFFF7C
:00000001FF
