:020000040000FA
:04000000FEEF7FF0A0
:108E980001C0FAF002C0FBF0120001C0FEF002C0EF
:108EA800FFF0120001C0FCF002C0FDF01200026EDB
:108EB800025075EC47F0120093EC47F069EC49F06A
:108EC80069EC47F0A2EC48F01200620E3901D96F44
:108ED800000EDB6F000EDD6F020EDF6F000EDE6F1F
:108EE8001200016E3901A6A77CEF47F07EEF47F02C
:108EF80076EF47F0600007F0D2FD1200FF0E056E16
:108F0800FF0E066EFF0E076E7F0E086E05C001F09D
:108F180006C002F007C003F008C004F01200000EFB
:108F28003901C06F000EC16F000EC26F000EC36F13
:108F3800000EC46F000EC56F000EC66F000EC76F1F
:108F48001200C40E0001D66F000ED76F000EBA6F64
:108F5800000EBB6FC2C0BCF0C3C0BDF0D60EBE6F62
:108F6800000EBF6F00EC49F012003333834014AE9B
:108F78008F4000009040EC519040CDCC9C40333362
:108F880083C014AE8FC0000090C0EC5190C0CDCC0F
:108F98009CC0E4C005F0E5C006F0E6C007F0E7C0F5
:108FA80008F001C005F002C006F003C007F004C0D5
:108FB80008F0089E05C001F006C002F007C003F0E3
:108FC80008C004F012000150021003100410D8B4B5
:108FD800F0EF47F0F2EF47F0FAEF47F0000E011A12
:108FE800000E021A000E031A800E041A01C001F0C6
:108FF80002C002F003C003F004C004F01200BF0E68
:10900800036EFF0E046E01C005F002C006F00350A7
:1090180005260450062206500AE11A0E055CD8A05F
:1090280018EF48F01BEF48F0010E1CEF48F0000E57
:10903800016E026A120001C003F002C004F027EFBB
:1090480048F0014A022A600007F0D9FF60000BF0DF
:10905800DAFFDF50D8A433EF48F035EF48F025EFBA
:1090680048F00350015C016E04500258026E120071
:10907800720EF66E8F0EF76E000EF86E00EEBCF1F3
:1090880010EE28F009006F00D7FFEEFFE550E15021
:10909800F9E100EE00F3500EEE6AE806FDE100EE9D
:1090A800E0F01A0EEE6AE806FDE15F6A000128EFBB
:1090B8005AF0000E126E000E116E6EEF48F010C0DE
:1090C80003F0046A0EC005F00FC006F0B3EC49F0D7
:1090D800114A122A11500C24D96E12500D20DA6E42
:1090E800DF50106E1050D8A47CEF48F07EEF48F0A7
:1090F80063EF48F01200000E2E1A000E2F1A000E11
:10910800301A800E311A2AC001F02BC002F02CC090
:1091180003F02DC004F02EC005F02FC006F030C0BB
:1091280007F031C008F068EC55F001C02AF002C021
:109138002BF003C02CF004C02DF01200000E3D01EE
:10914800D46F000ED66F000ED86FB00EDA6F800E97
:10915800DB6F000EDC6F190EDD6F000EDE6F000E88
:10916800DF6F000EE06F000EE16F000EE26F000E81
:10917800016E000E026E51EC47F0000E016E000EFB
:10918800026E56EC47F0000E016E000E026E4CECBB
:1091980047F0000E5F6E1200BF0E096EFF0E0A6EDA
:1091A80007C00BF008C00CF009500B260A500C221F
:1091B8000C500AE11A0E0B5CD8A0E5EF48F0E8EF76
:1091C80048F0010EE9EF48F0000E0D6E0E6A0D50E2
:1091D8000E10D8B4F2EF48F0F4EF48F0FBEF48F087
:1091E800200E0710076E0850086EFFEF48F007C002
:1091F80007F008C008F01200BCC0C0F0BDC0C1F044
:10920800000E0001F36F000EF26F1EEF49F0BAC0B6
:10921800A4F0BBC0A5F0C00EA66F000EA76FBEC01D
:10922800A8F0BFC0A9F0ECEC5CF00001A451F22753
:10923800A551F323600003F3F6FF600007F3F7FF7F
:10924800F86A0800F5500009D8A42DEF49F02FEF6F
:1092580049F00BEF49F0F2C0BAF0F3C0BBF01200CE
:1092680003C007F004C008F001C009F002C00AF00A
:109278000750056E0850066E074A082A600017F066
:10928800F6FF60001BF0F7FF000EF86E600027F095
:10929800D9FF60002BF0DAFF094A0A2A0F0EF7649B
:1092A80003D00800F55007D06F00DBFFE9FF6F001F
:1092B800DFFFEAFFEF50DF6EDF50D8A466EF49F01A
:1092C80068EF49F03CEF49F01200000EBE6E000E48
:1092D800BD6E000EBA6E000EBB6E000EBC6E070EA1
:1092E800C66EC268BF0EC36EC468C5683A017069AD
:1092F80060697F0E506F070E806F4069000E716FB6
:10930800000E816F000E516F000E416F000E616FED
:10931800000E5A6F000E5B6F000E6A6F000E6B6FC7
:10932800000E7A6F000E7B6F000E826F000E426F88
:10933800000E526F000E626F000E726F4369536920
:1093480063697369070E836F446954696469746952
:109358000F0E846F0F0EE86F160E0E6F1200055079
:109368000610D8B4BAEF49F0BCEF49F0C5EF49F0A0
:1093780005500610D8A4C3EF49F0C5EF49F0CAEF6D
:1093880049F003505BEC47F0FDEF49F020EE04F0A4
:109398000550D9260650DA22DE50DE10D8B4D7EFB1
:1093A80049F0D9EF49F0F4EF49F020EE04F0055008
:1093B800D9260650DA2210EE02F00550E1260650B2
:1093C800E222DE50E65CE650800A0B6EDE50800A30
:1093D8000B58D8B0F2EF49F0F4EF49F0FDEF49F03F
:1093E80020EE02F00550D9260650DA22DE2A000EB9
:1093F800DD221200000E0114096E000E02140A6E1E
:10940800800E03140B6E7F0E04140C6E09500A10A4
:109418000B100C10D8A413EF4AF015EF4AF01DEF0B
:109428004AF0000E016E000E026E000E036E000E72
:10943800046E000E0514096E000E06140A6E800EE6
:1094480007140B6E7F0E08140C6E09500A100B10CF
:109458000C10D8A432EF4AF034EF4AF03CEF4AF04F
:10946800000E056E000E066E000E076E000E086EEA
:10947800055001180FE1065002180CE107500318B7
:1094880009E108500418D8B44CEF4AF04EEF4AF0FE
:1094980051EF4AF0D89052EF4AF0D8801200000EEF
:1094A800066E02BE5CEF4AF05AEF4AF062EF4AF0ED
:1094B800016C021ED8B0022A010E066E04BE69EFC6
:1094C8004AF067EF4AF06DEF4AF0036C041ED8B01B
:1094D800042A03500410D8B474EF4AF076EF4AF027
:1094E8009AEF4AF0010E056E7EEF4AF0D8900336E7
:1094F8000436052A04AE83EF4AF085EF4AF07AEF86
:109508004AF00350015C04500258D8A08EEF4AF08C
:1095180090EF4AF094EF4AF00350015E0450025A6B
:10952800D89004320332052E85EF4AF00650D8B49D
:10953800A0EF4AF0A2EF4AF0A6EF4AF0016C021E33
:10954800D8B0022A01C001F002C002F01200000ED9
:10955800066E04BEB4EF4AF0B2EF4AF0BAEF4AF032
:10956800036C041ED8B0042A010E066E02BEC1EFB9
:109578004AF0BFEF4AF0C7EF4AF0016C021ED8B0BC
:10958800022A010E061A000E086E000E076E03501E
:109598000410D8B4D2EF4AF0D4EF4AF0FCEF4AF006
:1095A800010E056EDCEF4AF0D89003360436052A22
:1095B80004AEE1EF4AF0E3EF4AF0D8EF4AF0D89072
:1095C800073608360350015C04500258D8A0EFEF64
:1095D8004AF0F1EF4AF0F6EF4AF00350015E04500A
:1095E800025A0780D89004320332052EE3EF4AF07E
:1095F8000650D8B402EF4BF004EF4BF008EF4BF0F5
:10960800076C081ED8B0082A07C001F008C002F08D
:1096180012000001F8A113EF4BF015EF4BF01FEF0C
:109628004BF015C00CF016C00DF013C00EF014C0AE
:109638000FF05DEC48F018BE24EF4BF026EF4BF02E
:109648002CEF4BF017C01CF018C01DF030EF4BF09A
:10965800000E1D6E000E1C6E000E1B6E000E1A6EA4
:1096680042EF4BF0000E046E200E036E13C005F09F
:1096780014C006F0B3EC49F01A4A1B2A1C501A5CB5
:109688001B50800A196E1D50800A1958D8A04FEF38
:109698004BF051EF4BF036EF4BF00001F8B157EFBC
:1096A8004BF059EF4BF063EF4BF015C00CF016C0C0
:1096B8000DF013C00EF014C00FF05DEC48F015C0AB
:1096C80001F016C002F01FEC48F01C500124136E84
:1096D8001D500220146E120001C008F002C009F0EB
:1096E80003C00AF004C00BF00506D8A0060605283A
:1096F80006E10628D8A483EF4BF085EF4BF092EFF4
:109708004BF0000E026E000E016EE9EF4BF0084AB6
:10971800092A0A4A0B2A0506D8A00606600023F083
:10972800D9FF600027F0DAFFDF50D8B49EEF4BF086
:10973800A0EF4BF0D3EF4BF060002BF0F6FF60008A
:109748002FF0F7FFF86A0800F5500009D8B4AFEF1A
:109758004BF0B1EF4BF0D3EF4BF005500610D8B4F7
:10976800B8EF4BF0BAEF4BF0D3EF4BF0600023F0BB
:10977800D9FF600027F0DAFFDF50076E60002BF09A
:10978800F6FF60002FF0F7FFF86A0800F550071899
:10979800D8B4D1EF4BF0D3EF4BF08BEF4BF0600028
:1097A80023F0D9FF600027F0DAFFDF50076E600072
:1097B8002BF0F6FF60002FF0F7FFF86A0800F5506D
:1097C800075C016E026AD8A002061200ECC00BF01A
:1097D800EDC00CF0EEC00DF0EFC00EF001C00BF0C4
:1097E80002C00CF003C00DF004C00EF00BC005F071
:1097F8000CC006F00DC007F00EC008F0180E0AEFF6
:109808004CF0D8900832073206320532E82E05EFC0
:109818004CF00550096E0A6A09500A10D8A417EFCF
:109828004CF019EF4CF039EF4CF0D8900B34056E32
:109838000C34066E0D34076E0E34086E0550061093
:1098480007100810D8A42BEF4CF02DEF4CF033EF95
:109858004CF0000E026E020E016E68EF4CF0000E26
:10986800026E030E016E68EF4CF009280A10D8A4A6
:1098780040EF4CF042EF4CF064EF4CF00BC005F0B9
:109888000CC006F00DC007F00EC008F0090ED89005
:109898000536063607360836E82E4BEF4CF00550ED
:1098A800061007100810D8B45CEF4CF05FEF4CF0CE
:1098B800010E60EF4CF0000E016E026A68EF4CF08A
:1098C800000E026E040E016E1200000E32143A6E83
:1098D800000E33143B6E800E34143C6E7F0E35142C
:1098E8003D6E3A503B103C103D10D8A47EEF4CF032
:1098F80080EF4CF088EF4CF0000E326E000E336EA5
:10990800000E346E000E356E000E36143A6E000EE0
:1099180037143B6E800E38143C6E7F0E39143D6E42
:109928003A503B103C103D10D8A49DEF4CF09FEFEF
:109938004CF0A7EF4CF0000E366E000E376E000E9E
:10994800386E000E396E35AEACEF4CF0AEEF4CF021
:10995800B7EF4CF0326C331ED8B0332A341ED8B06F
:10996800342A800E355639AEBCEF4CF0BEEF4CF0C1
:10997800C7EF4CF0366C371ED8B0372A381ED8B02F
:10998800382A800E3956000E321A000E331A000E8D
:10999800341A800E351A000E361A000E371A000EC9
:1099A800381A800E391A3650325C375033583850CE
:1099B800345839503558D8B0E4EF4CF0E6EF4CF055
:1099C800E9EF4CF0D890EAEF4CF0D880120003345D
:1099D80004340A6E0A50D8A4F4EF4CF0F6EF4CF0B9
:1099E80000EF4DF0000E016E000E026E000E036EC9
:1099F800000E046E6DEF4DF001C005F002C006F0D8
:109A080003C007F004C008F0200E10EF4DF0D89006
:109A18000832073206320532E82E0BEF4DF00550BA
:109A2800096E038EFF0E0116FF0E0216FF0E0316B7
:109A3800000E0416960E0A5E0ABE27EF4DF025EFBB
:109A48004DF03DEF4DF00A50800A970FD8B02FEF38
:109A58004DF031EF4DF033EF4DF0F6EF4CF0D8907C
:109A680004320332023201320A3E33EF4DF055EF31
:109A78004DF01F0E0A6443EF4DF045EF4DF04DEFEA
:109A88004DF0F6EF4CF0D890013602360336043626
:109A98000A060A50D8A453EF4DF055EF4DF047EFA2
:109AA8004DF00950D8B45BEF4DF05DEF4DF065EF28
:109AB8004DF0041E031E021E016C000E022203223A
:109AC800042201C001F002C002F003C003F004C088
:109AD80004F01200136E1350D8B475EF4DF077EF01
:109AE8004DF099EF4DF00EBE7EEF4DF07CEF4DF04E
:109AF80099EF4DF00BC00FF00CC010F00DC011F035
:109B08000EC012F00F1E101E111E121E0F2A000E7C
:109B18001022112212220FC015F010C016F011C029
:109B280017F012C018F0A1EF4DF00BC015F00CC0E3
:109B380016F00DC017F00EC018F00B500C100D10D9
:109B48000E10D8A4AAEF4DF0ACEF4DF0B6EF4DF0E3
:109B5800000E0B6E000E0C6E000E0D6E000E0E6EDB
:109B680047EF4EF0960E146EC0EF4DF0142AD890C1
:109B78001832173216321532000E15140F6E000EF9
:109B88001614106E000E1714116EFE0E1814126EB5
:109B98000F50101011101210D8A4D5EF4DF0D7EFB8
:109BA8004DF0BAEF4DF0E5EF4DF0142A010E1526F1
:109BB800000E162217221822D890183217321632A1
:109BC8001532000E15140F6E000E1614106E000ECE
:109BD8001714116EFF0E1814126E0F50101011107A
:109BE8001210D8A4FAEF4DF0FCEF4DF0D9EF4DF07C
:109BF80004EF4EF01406D890153616361736183678
:109C080017BE09EF4EF00BEF4EF013EF4EF0020EB9
:109C1800146011EF4EF013EF4EF0FEEF4DF014B05C
:109C280018EF4EF01AEF4EF01BEF4EF0179ED8903B
:109C3800143214C00FF0106A116A126A0FC012F0C1
:109C4800116A106A0F6A0F5015121050161211502F
:109C58001712125018121350D8B435EF4EF037EFD0
:109C68004EF03FEF4EF00EBE3EEF4EF03CEF4EF0A2
:109C78003FEF4EF0188E15C00BF016C00CF017C051
:109C88000DF018C00EF01200E8C011F0E9C012F093
:109C9800EAC013F0EBC014F001C011F002C012F0DA
:109CA80003C013F004C014F0810E056EFF0E066E9B
:109CB80011C007F012C008F013C009F014C00AF070
:109CC800180E6CEF4EF0D8900A320932083207327B
:109CD800E82E67EF4EF0075005240F6E000E0620A1
:109CE800106E10BE81EF4EF0105009E1170E0F5C98
:109CF800D8A081EF4EF083EF4EF08DEF4EF001C00B
:109D080001F002C002F003C003F004C004F050EFF9
:109D18004FF010BE92EF4EF094EF4EF004EF4FF07C
:109D28000FC005F0FF0E066EFF0E076E7F0E086E61
:109D3800000E096E0566A3EF4EF0ABEF4EF0093446
:109D48000932083207320632052E9EEF4EF006C061
:109D58000BF007C00CF008C00DF009C00EF00B5056
:109D68001114056E0C501214066E0D501314076E64
:109D78000E501414086E0550061007100810D8A4C9
:109D8800C8EF4EF0CAEF4EF0CCEF4EF083EF4EF036
:109D980011C005F012C006F013C007F014C008F097
:109DA800200EDCEF4EF0D89008320732063205322A
:109DB800E82ED7EF4EF00550061007100810D8A46B
:109DC800E8EF4EF0EAEF4EF0F2EF4EF00B501126AE
:109DD8000C5012220D5013220E5014220B1C056E2B
:109DE8000C1C066E0D1C076E0E1C086E0550111615
:109DF80006501216075013160850141648EF4FF065
:109E080011C005F012C006F013C007F014C008F026
:109E1800200E14EF4FF0D890083207320632053280
:109E2800E82E0FEF4FF00550061007100810D8B4B1
:109E380020EF4FF022EF4FF02CEF4FF0000E116E95
:109E4800000E126E000E136E800E146E48EF4FF067
:109E5800D8901134056E1234066E1334076E14341C
:109E6800086E0550061007100810D8B43EEF4FF0E2
:109E780040EF4FF048EF4FF0000E116E000E126EDB
:109E8800800E136E3F0E146E11C001F012C002F066
:109E980013C003F014C004F01200E0C05BF0E1C08E
:109EA8005CF0E2C05DF0E3C05EF04BC05BF04CC01C
:109EB8005CF04DC05DF04EC05EF0810E4F6EFF0E3F
:109EC800506E5BC051F05CC052F05DC053F05EC094
:109ED80054F0180E75EF4FF0D89054325332523276
:109EE8005132E82E70EF4FF051504F24596E000E4A
:109EF80050205A6E5ABE8AEF4FF05A5009E1170E99
:109F0800595CD8A08AEF4FF08CEF4FF096EF4FF0E6
:109F18004BC04BF04CC04CF04DC04DF04EC04EF015
:109F280059EF50F05ABE9BEF4FF09DEF4FF00DEFF9
:109F380050F059C04FF0FF0E506EFF0E516E7F0E5D
:109F4800526E000E536E4F66ACEF4FF0B4EF4FF009
:109F5800533453325232513250324F2EA7EF4FF012
:109F680050C055F051C056F052C057F053C058F089
:109F780055505B144F6E56505C14506E57505D141C
:109F8800516E58505E14526E4F505010511052106E
:109F9800D8A4D1EF4FF0D3EF4FF0D5EF4FF08CEFBF
:109FA8004FF05BC04FF05CC050F05DC051F05EC038
:109FB80052F0200EE5EF4FF0D89052325132503225
:109FC8004F32E82EE0EF4FF04F5050105110521022
:109FD800D8B4F1EF4FF0F3EF4FF0FBEF4FF05550DF
:109FE8005B2656505C2257505D2258505E22551C05
:109FF8004F6E561C506E571C516E581C526E4F5067
:10A008005B1650505C1651505D1652505E1651EF5B
:10A0180050F05BC04FF05CC050F05DC051F05EC0C6
:10A0280052F0200E1DEF50F0D8905232513250327B
:10A038004F32E82E18EF50F04F5050105110521078
:10A04800D8A429EF50F02BEF50F035EF50F0000E68
:10A058005B6E000E5C6E000E5D6E000E5E6E51EF64
:10A0680050F0D8905B344F6E5C34506E5D34516E56
:10A078005E34526E4F50501051105210D8B447EF02
:10A0880050F049EF50F051EF50F0000E5B6E000EAB
:10A098005C6E800E5D6EBF0E5E6E5BC04BF05CC08A
:10A0A8004CF05DC04DF05EC04EF012002AC038F092
:10A0B8002BC039F02CC03AF02DC03BF02FBE6EEF0C
:10A0C80050F02F5009E1800E2E5CD8A06EEF50F0B2
:10A0D80070EF50F0CEEF50F038C011F039C012F0E8
:10A0E8003AC013F03BC014F0000E156E000E166E49
:10A0F800000E176E7F0E186E41EC53F011C038F049
:10A1080012C039F013C03AF014C03BF0810E2E266D
:10A11800FF0E2F222FBE9AEF50F02F5009E1800E2C
:10A128002E5CD8A09AEF50F09CEF50F038EF51F029
:10A1380038C011F039C012F03AC013F03BC014F027
:10A14800000E156E000E166E000E176E7F0E186E3E
:10A1580041EC53F011C038F012C039F013C03AF096
:10A1680014C03BF0810E2E26FF0E2F222FBEC6EF05
:10A1780050F02F5009E1800E2E5CD8A0C6EF50F0A9
:10A18800C8EF50F038EF51F0000E2F6E7F0E2E6E94
:10A1980038EF51F02FAEDAEF50F0820E2E5CFF0E42
:10A1A8002F58D8B0DAEF50F0DCEF50F038EF51F01C
:10A1B80038C011F039C012F03AC013F03BC014F0A7
:10A1C800000E156E000E166E800E176E0C0E186EB1
:10A1D80041EC53F011C038F012C039F013C03AF016
:10A1E80014C03BF0660E2E26000E2F222FAE06EF6F
:10A1F80051F0820E2E5CFF0E2F58D8B006EF51F0AA
:10A2080008EF51F038EF51F038C011F039C012F0B2
:10A218003AC013F03BC014F0000E156E000E166E17
:10A22800800E176E0C0E186E41EC53F011C038F00A
:10A2380012C039F013C03AF014C03BF0660E2E2657
:10A24800000E2F222FAE32EF51F0820E2E5CFF0E41
:10A258002F58D8B032EF51F034EF51F038EF51F0B9
:10A26800FF0E2F6E820E2E6E7F0E2E24306E000E85
:10A278002F20316E326A336A170ED8903036313655
:10A2880032363336E82E41EF51F030C034F031C069
:10A2980035F032C036F033C037F034C011F035C075
:10A2A80012F036C013F037C014F038C015F039C0BA
:10A2B80016F03AC017F03BC018F041EC53F011C04B
:10A2C8002AF012C02BF013C02CF014C02DF02AC0B5
:10A2D8002AF02BC02BF02CC02CF02DC02DF0120032
:10A2E8003550800B426E35503524496E34AE7FEFC1
:10A2F80051F081EF51F082EF51F049804950D8B4C4
:10A3080088EF51F08AEF51F09FEF51F04928D8A417
:10A3180090EF51F092EF51F09AEF51F0000E326E3B
:10A32800000E336E000E346E000E356E348E000E45
:10A33800356EA7EF51F0000E326E000E336E000E30
:10A34800346E000E356E3950800B421A395039245C
:10A358004A6E38AEB2EF51F0B4EF51F0B5EF51F0AC
:10A368004A804A50D8B4BBEF51F0BDEF51F0D2EF5C
:10A3780051F04A28D8A4C3EF51F0C5EF51F0CDEF02
:10A3880051F0000E366E000E376E000E386E000E5D
:10A39800396E388E000E396EDAEF51F0000E366ED7
:10A3A800000E376E000E386E000E396E36503710BC
:10A3B80038103910D8A4E3EF51F0E5EF51F0FDEF74
:10A3C80051F0000E326E000E336E000E346E000E29
:10A3D800356E800E34127F0E35124250351232C05F
:10A3E80032F033C033F034C034F035C035F040EFCC
:10A3F80053F04950D8A403EF52F005EF52F00FEF95
:10A4080052F0000E326E000E336E000E346E000EE7
:10A41800356E40EF53F04A5049C03AF03B6A3A5E15
:10A42800000E3B5A7F0E3A24436E000E3B20446ECA
:10A4380032C03EF033C03FF034C040F035C041F088
:10A44800000E326E000E336E000E346E000E356E46
:10A45800000E456E000E466E000E476E000E486EEA
:10A46800000E4A6E70EF52F04A50D8B43EEF52F0E8
:10A4780040EF52F057EF52F0D8903E363F36403614
:10A488004136D890323633363436353648AE4FEF0B
:10A4980052F051EF52F052EF52F03280D8904536D8
:10A4A80046364736483636503E5C37503F58385067
:10A4B800405839504158D8A064EF52F066EF52F036
:10A4C8006FEF52F0488C36503E5E37503F5A385046
:10A4D800405A3950415A4A2A190E4A6476EF52F0C6
:10A4E80078EF52F038EF52F03E503F1040104110D4
:10A4F800D8B481EF52F083EF52F09BEF52F04580D1
:10A508009BEF52F0D890323633363436353648AE73
:10A5180090EF52F092EF52F093EF52F03280D890D1
:10A5280045364636473648364306D8A0440634AE44
:10A53800A0EF52F0A2EF52F086EF52F0000E4A6EF2
:10A5480048AEA9EF52F0ABEF52F0CFEF52F0FF0E4A
:10A5580045143A6EFF0E46143B6EFF0E47143C6ED0
:10A568007F0E48143D6E3A503B103C103D10D8B455
:10A57800C0EF52F0C2EF52F0C6EF52F0010E4A6E31
:10A58800CFEF52F032A0CBEF52F0CDEF52F0CFEF39
:10A5980052F0C2EF52F04A50D8B4D5EF52F0D7EF8C
:10A5A80052F0FBEF52F0010E3226000E3322342215
:10A5B800352235A0E2EF52F0E4EF52F0FBEF52F013
:10A5C80032C03AF033C03BF034C03CF035C03DF007
:10A5D8003D343D323C323B323A323AC032F03BC035
:10A5E80033F03CC034F03DC035F0434A442A44BE01
:10A5F80006EF53F0445008E14328D8A006EF53F083
:10A6080008EF53F013EF53F0000E446E4368000E4A
:10A61800326E000E336E000E346E000E356E44BE80
:10A6280020EF53F0445006E14304D8B01EEF53F036
:10A6380020EF53F02EEF53F0000E446E000E436EE1
:10A64800000E326E000E336E000E346E000E356E44
:10A65800000E426E43C049F049A035EF53F037EF82
:10A6680053F03AEF53F0348E3BEF53F0349ED890CA
:10A678004930356EF1EF51F012001450800B1D6E09
:10A6880014501424236E13AE4CEF53F04EEF53F0D6
:10A698004FEF53F023802350D8B455EF53F057EFC2
:10A6A80053F06AEF53F02328D8A45DEF53F05FEF1F
:10A6B80053F067EF53F0000E116E000E126E000E8D
:10A6C800136E000E146E138E72EF53F0000E116E9F
:10A6D800000E126E000E136E000E146E1850800BD2
:10A6E8001D1A18501824226E17AE7DEF53F07FEF15
:10A6F80053F080EF53F022802250D8B486EF53F005
:10A7080088EF53F09BEF53F02228D8A48EEF53F034
:10A7180090EF53F098EF53F0000E156E000E166E82
:10A72800000E176E000E186E178EA3EF53F0000E72
:10A73800156E000E166E000E176E000E186E225063
:10A74800D8B4A9EF53F0ABEF53F0B3EF53F0235065
:10A75800D8A4B1EF53F0B3EF53F0BDEF53F0000EB0
:10A76800116E000E126E000E136E000E146E67EF5F
:10A7780055F0175011026F00CCFF28F06F00D0FF82
:10A7880029F028501E6E1F6A206A216A2950246EFB
:10A79800256A266A276A165012026F00CCFF28F035
:10A7A8006F00D0FF29F028501E26000E1F222022FD
:10A7B800212229502426000E252226222722155040
:10A7C80013026F00CCFF28F06F00D0FF29F028504B
:10A7D8001E26000E1F222022212229502426000E88
:10A7E80025222622272220C021F01FC020F01EC0CB
:10A7F8001FF01E6A155012026F00CCFF28F06F0080
:10A80800D0FF29F028501E2629501F22000E202292
:10A81800000E2122165011026F00CCFF28F06F00A5
:10A82800D0FF29F028501E2629501F22000E202272
:10A83800000E212220C021F01FC020F01EC01FF0F2
:10A848001E6A155011026F00CCFF28F06F00D0FF70
:10A8580029F028501E2629501F22000E2022000E03
:10A868002122175012026F00CCFF28F06F00D0FF92
:10A8780029F02850242629502522000E2622000ED1
:10A888002722165013026F00CCFF28F06F00D0FF6C
:10A8980029F02850242629502522000E2622000EB1
:10A8A8002722175013026F00CCFF28F06F00D0FF4B
:10A8B80029F02850196E29501A6E1B6A1C6A1BC091
:10A8C8001CF01AC01BF019C01AF0196A1950242676
:10A8D8001A5025221B5026221C5027221EC019F070
:10A8E8001FC01AF020C01BF021C01CF0190E82EF07
:10A8F80054F0D8901C321B321A321932E82E7DEFF0
:10A9080054F0195024261A5025221B5026221C5078
:10A91800272220C021F01FC020F01EC01FF01E6A91
:10A92800225023C019F01A6A1926000E1A22820E24
:10A938001924286EFF0E1A20296EB8EF54F0D8900B
:10A94800243625362636273621AEADEF54F0AFEF44
:10A9580054F0B0EF54F02480D8901E361F362036BD
:10A9680021362806D8A0290626AEBDEF54F0BFEF41
:10A9780054F0A3EF54F0000E226E21AEC6EF54F04F
:10A98800C8EF54F0ECEF54F0FF0E1E14196EFF0ED2
:10A998001F141A6EFF0E20141B6E7F0E21141C6EDE
:10A9A80019501A101B101C10D8B4DDEF54F0DFEF4B
:10A9B80054F0E3EF54F0010E226EECEF54F024A0B3
:10A9C800E8EF54F0EAEF54F0ECEF54F0DFEF54F016
:10A9D8002250D8B4F2EF54F0F4EF54F018EF55F0D9
:10A9E800010E2426000E25222622272227A0FFEF6B
:10A9F80054F001EF55F018EF55F024C019F025C0B8
:10AA08001AF026C01BF027C01CF01C341C321B3265
:10AA18001A32193219C024F01AC025F01BC026F0CA
:10AA28001CC027F0284A292A29BE23EF55F02950AF
:10AA380008E12828D8A023EF55F025EF55F02FEF8F
:10AA480055F0000E246E000E256E800E266E7F0EC9
:10AA5800276E5DEF55F029BE3CEF55F0295006E111
:10AA68002804D8B03AEF55F03CEF55F048EF55F0D0
:10AA7800000E246E000E256E000E266E000E276E48
:10AA8800000E1D6E5DEF55F028C023F0FF0E241652
:10AA9800FF0E25167F0E2616000E271623A057EF49
:10AAA80055F059EF55F05AEF55F0268ED8902330CF
:10AAB800276E1D50271224C011F025C012F026C0A1
:10AAC80013F027C014F012000450800B0D6E0450D0
:10AAD80004240F6E03AE73EF55F075EF55F076EF63
:10AAE80055F00F800F50D8B47CEF55F07EEF55F03D
:10AAF80093EF55F00F28D8A484EF55F086EF55F062
:10AB08008EEF55F0000E016E000E026E000E036E01
:10AB1800000E046E038E000E046E9BEF55F0000EBF
:10AB2800016E000E026E000E036E000E046E0850D9
:10AB3800800B0E6E0D500E18D8B4A5EF55F0A7EF88
:10AB480055F0A8EF55F00D8C085008240E6E07AE8E
:10AB5800B0EF55F0B2EF55F0B3EF55F00E800E5050
:10AB6800D8B4B9EF55F0BBEF55F0D0EF55F00E283B
:10AB7800D8A4C1EF55F0C3EF55F0CBEF55F0000E58
:10AB8800056E000E066E000E076E000E086E078E2C
:10AB9800000E086ED8EF55F0000E056E000E066E1A
:10ABA800000E076E000E086E0F500E5CD8B0DFEF77
:10ABB80055F0E1EF55F008EF56F00DACE6EF55F023
:10ABC800E8EF55F0EAEF55F0800E0D1A0FC010F0BF
:10ABD8000EC00FF010C00EF001C010F005C001F05B
:10ABE80010C005F002C010F006C002F010C006F058
:10ABF80003C010F007C003F010C007F004C010F045
:10AC080008C004F010C008F0000E106E0F500EC0FF
:10AC180009F00A6A095E000E0A5A0ABE1DEF56F0CC
:10AC28000A5009E11A0E095CD8A01DEF56F01FEF73
:10AC380056F056EF56F00150021003100410D8A435
:10AC480028EF56F02BEF56F0010E2CEF56F0000EC1
:10AC5800106E000E016E000E026E000E036E000EE6
:10AC6800046E0EC00FF05FEF56F010A03EEF56F0E6
:10AC780040EF56F046EF56F0D89010300109106EAC
:10AC880048EF56F0D890103201A04DEF56F04FEF34
:10AC980056F050EF56F0108E04340432033202326C
:10ACA80001320F2A0E500F5CD8A05DEF56F05FEF0F
:10ACB80056F039EF56F00DBC64EF56F066EF56F0DB
:10ACC800A6EF56F00F50D8A46CEF56F06EEF56F082
:10ACD80078EF56F0000E016E000E026E000E036E45
:10ACE800000E046EC7EF57F00550012606500222E9
:10ACF800075003220850042204A085EF56F087EF7E
:10AD080056F033EF57F010A08CEF56F08EEF56F058
:10AD180094EF56F0D89010300109106E96EF56F067
:10AD2800D890103201A09BEF56F09DEF56F09EEFA1
:10AD380056F0108E043404320332023201320F2AE4
:10AD480033EF57F00550015C06500258075003587E
:10AD58000450800A096E0850800A0958D8B0B7EF25
:10AD680056F0B9EF56F0E4EF56F00150055C096E65
:10AD7800025006580A6E035007580B6E04500858C4
:10AD88000C6EFF0E0924016EFF0E0A20026EFF0EE4
:10AD98000B20036EFF0E0C20046E800E0D1A106C33
:10ADA8001050D8A4DAEF56F0DCEF56F0ECEF56F07E
:10ADB800010E0126000E022203220422ECEF56F0B7
:10ADC8000550015E0650025A0750035A0850045AAB
:10ADD8000150021003100410D8A4F5EF56F0F7EF55
:10ADE80056F02CEF57F01050D8A4FDEF56F0FFEFB7
:10ADF80056F02CEF57F0000E016E000E026E000E9A
:10AE0800036E000E046EC7EF57F0D8900136023675
:10AE18000336043610AE13EF57F015EF57F016EF60
:10AE280057F0018010A01BEF57F01DEF57F021EFEE
:10AE380057F0D880103623EF57F0D89010360F50BF
:10AE4800D8B429EF57F02BEF57F02CEF57F00F0637
:10AE580003AE31EF57F033EF57F009EF57F0000E1C
:10AE68000E6E10AE3AEF57F03CEF57F054EF57F034
:10AE780010C009F07F0E0916D8B445EF57F047EF18
:10AE880057F04BEF57F0010E0E6E54EF57F001A03C
:10AE980050EF57F052EF57F054EF57F047EF57F095
:10AEA8000E50D8B45AEF57F05CEF57F087EF57F0D1
:10AEB800010E0126000E02220322042204A067EFDD
:10AEC80057F069EF57F087EF57F001C009F002C05B
:10AED8000AF003C00BF004C00CF00C340C320B3237
:10AEE8000A32093209C001F00AC002F00BC003F0AF
:10AEF8000CC004F00F28D8B484EF57F086EF57F051
:10AF080087EF57F00F2A0F28D8B48DEF57F08FEF3F
:10AF180057F097EF57F00F50D8A495EF57F097EFE9
:10AF280057F0A9EF57F0000E016E000E026E000EEA
:10AF3800036E000E046E0F50D8A4A5EF57F0A7EFCC
:10AF480057F0A9EF57F0000E0D6E0FA0AEEF57F0B7
:10AF5800B0EF57F0B3EF57F0038EB4EF57F0039EFE
:10AF6800D8900F30046E0DAEBCEF57F0BEEF57F01F
:10AF7800BFEF57F0048E01C001F002C002F003C019
:10AF880003F004C004F012003EC06CF03FC06DF046
:10AF980040C06EF041C06FF06CC084F06DC085F0A9
:10AFA8006EC086F06FC087F0000E00018415426EF7
:10AFB800000E8515436E800E8615446E7F0E87152C
:10AFC800456E800E441809E17F0E45184210431063
:10AFD800D8A4F1EF57F0F3EF57F021EF58F03EC047
:10AFE80015F03FC016F040C017F041C018F03EC041
:10AFF80011F03FC012F040C013F041C014F041EC12
:10B0080053F011C001F012C002F013C003F014C0D5
:10B0180004F03EC005F03FC006F040C007F041C054
:10B0280008F068EC55F001C03EF002C03FF003C0E4
:10B0380040F004C041F027EF5AF087BF30EF58F0D6
:10B0480087518611851106E18405D8B02EEF58F096
:10B0580030EF58F06CEF58F0FF0E8415426EFF0E7B
:10B068008515436EFF0E8615446E7F0E8715456E57
:10B078004250431044104510D8A445EF58F047EF0C
:10B0880058F051EF58F03EC03EF03FC03FF040C08E
:10B0980040F041C041F027EF5AF087BF58EF58F011
:10B0A80056EF58F06CEF58F0000EF16F210EF06F6C
:10B0B800E70E016EFF0E026E82EC47F001C03EF013
:10B0C80002C03FF003C040F004C041F027EF5AF03F
:10B0D800170E426E84C043F085C044F086C045F028
:10B0E80087C046F042667BEF58F083EF58F046344D
:10B0F8004632453244324332422E76EF58F043C04E
:10B108007CF044C07DF045C07EF046C07FF0000171
:10B118007C517D117E117F11D8A495EF58F097EFDF
:10B1280058F0C7EF58F0000E686F000E696F000EF8
:10B138006A6F000E6B6FACEF58F0D8908437853784
:10B1480086378737010E6827000E69236A236B2329
:10B1580086AFB1EF58F0B3EF58F0A1EF58F0FF0EFB
:10B168006825426EFF0E6921436EFF0E6A21446E08
:10B17800FF0E6B21456E42507C5F43507D5B44500F
:10B188007E5B45507F5B810E7C27FF0E7D23FF0E83
:10B198007E23FF0E7F23FF0E8415426EFF0E85155A
:10B1A800436E7F0E8615446E000E8715456E000EA1
:10B1B8004210846F000E4310856F800E4410866F16
:10B1C800000E4510876F7CA1ECEF58F0EEEF58F0B9
:10B1D800F6EF58F0845184278551852386518623BC
:10B1E800875187237F357F337E337D337C3384518A
:10B1F8008427855185238651862387518723000E0E
:10B20800646F000E656F000E666F000E676F64C096
:10B2180070F065C071F066C072F067C073F0000E20
:10B22800806F000E816F000E826F010E836F65EFD5
:10B2380059F064518025746F65518121756F66518D
:10B248008221766F67518321776F7451845D7551C0
:10B258008559765186598751800A426E7751800AFE
:10B268004258D8A03AEF59F03CEF59F058EF59F04E
:10B2780074518025646F75518121656F76518221E3
:10B28800666F77518321676F7451845F7551855B51
:10B298007651865B7751875B805170278151712386
:10B2A80082517223835173238451842785518523C6
:10B2B8008651862387518723D890833382338133FD
:10B2C80080338051811182118311D8A46EEF59F017
:10B2D80070EF59F01DEF59F08451851186118711CF
:10B2E800D8B479EF59F07BEF59F0DCEF59F0000E44
:10B2F800786F000E796F800E7A6F3F0E7B6F78C083
:10B3080032F079C033F07AC034F07BC035F0000EEB
:10B31800366E000E376E800E386E3F0E396E69EC51
:10B328004CF0D8A09AEF59F09CEF59F0DCEF59F0A7
:10B33800000E0001786F000E796F800E7A6F3F0E55
:10B348007B6F000E326E000E336E800E346E3F0E31
:10B35800356E78C036F079C037F07AC038F07BC0E7
:10B3680039F069EC4CF0D8B0BCEF59F0BEEF59F0A9
:10B37800C7EF59F0020E00017027000E71237223E7
:10B388007323DCEF59F0010E00017015426E000EB8
:10B398007115436E000E7215446E000E7315456EDE
:10B3A80042507027435071234450722345507323F1
:10B3B80070C042F071C043F072C044F073C045F0F1
:10B3C80045344532443243324232000E42240001B1
:10B3D800846F000E4320856F000E4420866F3F0E59
:10B3E8004520876F7CC042F07DC043F07EC044F0AA
:10B3F8007FC045F0170ED89042364336443645365E
:10B40800E82EFFEF59F042508427435085234450DB
:10B4180086234550872384C06CF085C06DF086C0B4
:10B428006EF087C06FF06CC078F06DC079F06EC0B8
:10B438007AF06FC07BF078C03EF079C03FF07AC0F8
:10B4480040F07BC041F0120060EC47F0000E0201B2
:10B45800D06F000ED16F800ED26F3F0ED36F000EEB
:10B46800D46F000ED56F000ED66F400ED76F000E4A
:10B478004B6E000E4C6E800E4D6E3F0E4E6E2CECD9
:10B4880060F04BC0D8F24CC0D9F24DC0DAF24EC0D1
:10B49800DBF2D8C211F0D9C212F0DAC213F0DBC263
:10B4A80014F0000E156E000E166E800E176E400E0C
:10B4B800186E41EC53F011C0DEF212C0DFF213C077
:10B4C800E0F214C0E1F2000E00018C6F000E8D6FE7
:10B4D800400E8E6F400E8F6FD0C288F0D1C289F0B7
:10B4E800D2C28AF0D3C28BF0C2EC6AF088C0E2F212
:10B4F80089C0E3F28AC0E4F28BC0E5F2000E156E53
:10B50800000E166E800E176E400E186EDEC211F019
:10B51800DFC212F0E0C213F0E1C214F041EC53F0C4
:10B5280011C0E6F212C0E7F213C0E8F214C0E9F263
:10B53800E2C215F0E3C216F0E4C217F0E5C218F053
:10B54800E6C211F0E7C212F0E8C213F0E9C214F043
:10B5580041EC53F011C032F012C033F013C034F094
:10B5680014C035F0000E366E000E376E400E386E81
:10B57800400E396E74EC51F032C0C8F233C0C9F2D3
:10B5880034C0CAF235C0CBF2000E00018C6F000E39
:10B598008D6F400E8E6F400E8F6FD4C288F0D5C26B
:10B5A80089F0D6C28AF0D7C28BF0C2EC6AF088C0A4
:10B5B800E2F289C0E3F28AC0E4F28BC0E5F2000E41
:10B5C800156E000E166E800E176E400E186EDEC2D7
:10B5D80011F0DFC212F0E0C213F0E1C214F041EC46
:10B5E80053F011C0E6F212C0E7F213C0E8F214C03B
:10B5F800E9F2E2C215F0E3C216F0E4C217F0E5C2C0
:10B6080018F0E6C211F0E7C212F0E8C213F0E9C27E
:10B6180014F041EC53F011C032F012C033F013C0F3
:10B6280034F014C035F0000E366E000E376E400E42
:10B63800386E400E396E74EC51F032C0CCF233C023
:10B64800CDF234C0CEF235C0CFF26D0E0001C26F1C
:10B65800FF0EC36FC8C2C4F0C9C2C5F0CAC2C6F0E3
:10B66800CBC2C7F0A5EC47F09B0E0001C26FFF0EDE
:10B67800C36FCCC2C4F0CDC2C5F0CEC2C6F0CFC233
:10B68800C7F0A5EC47F020EEBCF110EEA0F2270EB3
:10B698006F006FFFE3FFE806FBE2000E0201DD6FBB
:10B6A8000A0EDC6F000EEB6F000EEA6FD6EF5CF04F
:10B6B800A00ED86F020ED96FD8900201EA35D96E64
:10B6C800EB35DA6ED890D936DA360001D851D9265A
:10B6D800D951DA22000EDA6F020EDB6FD890020120
:10B6E800EA35E16EEB35E26ED890E136E2360001DC
:10B6F800DA51E126DB51E2226F007BFFE6FF6F00A3
:10B708007BFFE6FF6F007BFFE6FF6F007BFFE6FF36
:10B71800A00ED86F020ED96FD8900201EA35D96E03
:10B72800EB35DA6ED890D936DA360001D851D926F9
:10B73800D951DA226F0078FF4BF06F0078FF4CF098
:10B748006F0078FF4DF06F0078FF4EF051EC4FF02E
:10B75800280E0001DA6F020EDB6FD8900201EA357D
:10B76800D96EEB35DA6ED890D936DA360001DA516F
:10B77800D926DB51DA2260002FF1DEFF600033F1B9
:10B78800DEFF600037F1DEFF60003BF1DEFFA00E58
:10B79800D86F020ED96FD8900201EA35D96EEB3511
:10B7A800DA6ED890D936DA360001D851D926D9516F
:10B7B800DA226F0078FF01F06F0078FF02F06F0067
:10B7C80078FF03F06F0078FF04F048EC4EF0500E5D
:10B7D8000001DA6F020EDB6FD8900201EA35D96EEC
:10B7E800EB35DA6ED890D936DA360001DA51D92637
:10B7F800DB51DA22600007F0DEFF60000BF0DEFFAD
:10B8080060000FF0DEFF600013F0DEFFA00ED86FBF
:10B81800020ED96FD8900201EA35D96EEB35DA6E8F
:10B82800D890D936DA360001D851D926D951DA223A
:10B838006F0078FF01F06F0078FF02F06F0078FF6B
:10B8480003F06F0078FF04F0EBEC4CF001C00BF054
:10B8580002C00CF0000E0CBEFF0E0D6E0E6E010E37
:10B868006EEC4DF0780E0001DA6F020EDB6FD890A7
:10B878000201EA35D96EEB35DA6ED890D936DA3668
:10B888000001DA51D926DB51DA2260002FF0DEFF01
:10B89800600033F0DEFF600037F0DEFF60003BF051
:10B8A800DEFFC70EC26FFF0EC36F000ED86F020E09
:10B8B800D96FD8900201EA35D96EEB35DA6ED89097
:10B8C800D936DA360001D851D926D951DA226F0093
:10B8D80078FFC4F06F0078FFC5F06F0078FFC6F0FE
:10B8E8006F0078FFC7F0280EDA6F020EDB6FD89072
:10B8F8000201EA35D96EEB35DA6ED890D936DA36E8
:10B908000001DA51D926DB51DA226F0078FFC8F03E
:10B918006F0078FFC9F06F0078FFCAF06F0078FFFA
:10B92800CBF0500EDC6F020EDD6FD8900201EA35C5
:10B93800D96EEB35DA6ED890D936DA360001DC519B
:10B94800D926DD51DA226F0078FFCCF06F0078FF3E
:10B95800CDF06F0078FFCEF06F0078FFCFF0780E53
:10B96800DE6F020EDF6FD8900201EA35D96EEB3533
:10B97800DA6ED890D936DA360001DE51D926DF5191
:10B98800DA226F0078FFD0F06F0078FFD1F06F00F7
:10B9980078FFD2F06F0078FFD3F0A5EC47F00201F2
:10B9A800EA4BEB2BDC51EA5DEB51800A0001D86FC2
:10B9B8000201DD51800A0001D859D8A0E6EF5CF0F9
:10B9C800E8EF5CF05CEF5BF0E8EF5CF0FEEF7FF037
:10B9D80060009BF2D9FF60009FF2DAFF6F007BFFE7
:10B9E800F6FF6F0077FFF7FFF86A0800F550250AA1
:10B9F800D8A401EF5DF003EF5DF009EF60F060009F
:10BA08009BF2D9FF60009FF2DAFFDE2A000EDD22EA
:10BA1800000E0001F56F000EF46FF4C0F8F0F5C0E9
:10BA2800F9F0F669F76960009BF2D9FF60009FF2B0
:10BA3800DAFF6F007BFFF6FF6F0077FFF7FFF86A0A
:10BA48000800F550076E086AD0EC48F0075000016E
:10BA5800B26FB251D8B433EF5DF035EF5DF07DEFE2
:10BA68005DF060009BF2D9FF60009FF2DAFF6F0083
:10BA780078FFAAF06F0074FFABF0010EAA27000E42
:10BA8800AB236000ABF2F6FF6000AFF2F7FFF86A95
:10BA98000800F550076E086AD0EC48F0075000011E
:10BAA800B36FB351D8B45BEF5DF05DEF5DF07DEF40
:10BAB8005DF060009BF2D9FF60009FF2DAFF6F0033
:10BAC80078FFAAF06F0074FFABF0020EAA27000EF1
:10BAD800AB236000ABF2F6FF6000AFF2F7FFF86A45
:10BAE8000800F550076E086AD0EC48F007500001CE
:10BAF800B46F660EB219D8A484EF5DF086EF5DF0DE
:10BB0800D8EF5DF060009BF2D9FF60009FF2DAFF8A
:10BB18006F007BFFF6FF6F0077FFF7FFF86A0800FA
:10BB28006F00D4FFB5F060009BF2D9FF60009FF270
:10BB3800DAFFDE2A000EDD226000A3F2D9FF6000E2
:10BB4800A7F2DAFF6F007CFFAAF0040EDE266F0072
:10BB58007CFFABF0000EDD226000ABF2D9FF600085
:10BB6800AFF2DAFF6F0078FFB6F06F0078FFB7F03A
:10BB78006F0078FFB8F06F0078FFB9F0A4C060F0EC
:10BB8800A5C061F0B6C062F0B7C063F0B8C064F099
:10BB9800B9C065F0B5C066F06DEC64F060C0A4F0A3
:10BBA80061C0A5F02BEF60F0B20E016E000E026EC0
:10BBB800F40E036EFF0E046E000E066E020E056E86
:10BBC80070EC4BF001500210D8A4EDEF5DF0EFEFF0
:10BBD8005DF0A2EF5EF060009BF2D9FF60009FF27B
:10BBE800DAFF6F0078FFAAF06F0074FFABF0010E68
:10BBF8000001AA27000EAB236000ABF2F6FF60003D
:10BC0800AFF2F7FFF86A08006F00D4FFB5F0BF0E77
:10BC1800AA6FFF0EAB6F60009BF2D9FF60009FF226
:10BC2800DAFF6F007BFFF6FF6F0077FFF7FFF86A18
:10BC38000800F550AC6FAD6BAA51AC27AB51AD23E2
:10BC4800AD510AE11A0EAC5DD8A02DEF5EF030EFD1
:10BC58005EF0010E31EF5EF0000EAE6FAF6BAE51CD
:10BC6800AF11D8B43AEF5EF03CEF5EF060EF5EF0F3
:10BC78006000A3F2D9FF6000A7F2DAFF6F007CFF33
:10BC8800AAF0040EDE266F007CFFABF0000EDD226A
:10BC98006000ABF2D9FF6000AFF2DAFF6F0078FF07
:10BCA800B6F06F0078FFB7F06F0078FFB8F06F005C
:10BCB80078FFB9F082EF5EF06000A3F2D9FF600070
:10BCC800A7F2DAFF6F007CFFAAF0040EDE266F00F1
:10BCD8007CFFABF0000EDD226000ABF2D9FF600004
:10BCE800AFF2DAFF6F0078FFB6F06F0078FFB7F0B9
:10BCF8006F0078FFB8F06F0078FFB9F0020E6000AF
:10BD08009BF2D9FF60009FF2DAFFDE26000EDD22EB
:10BD1800A4C060F0A5C061F0B6C062F0B7C063F01F
:10BD2800B8C064F0B9C065F0B5C066F06DEC64F0F9
:10BD380060C0A4F061C0A5F02BEF60F0670E0001B1
:10BD4800B219D8A4AAEF5EF0ACEF5EF0FEEF5EF099
:10BD580060009BF2D9FF60009FF2DAFF6F007BFF63
:10BD6800F6FF6F0077FFF7FFF86A08006F00D4FF4F
:10BD7800B5F060009BF2D9FF60009FF2DAFFDE2A7F
:10BD8800000EDD226000A3F2D9FF6000A7F2DAFFFF
:10BD98006F007CFFAAF0040EDE266F007CFFABF07C
:10BDA800000EDD226000ABF2D9FF6000AFF2DAFFCF
:10BDB8006F0078FFB6F06F0078FFB7F06F0078FF7C
:10BDC800B8F06F0078FFB9F0A4C060F0A5C061F0CA
:10BDD800B6C062F0B7C063F0B8C064F0B9C065F02F
:10BDE800B5C066F06DEC64F060C0A4F061C0A5F069
:10BDF8002BEF60F0B20E016E000E026EF70E036EAE
:10BE0800FF0E046E000E066E020E056E70EC4BF00F
:10BE180001500210D8A413EF5FF015EF5FF0C8EFE0
:10BE28005FF060009BF2D9FF60009FF2DAFF6F00BD
:10BE380078FFAAF06F0074FFABF0010E0001AA278B
:10BE4800000EAB236000ABF2F6FF6000AFF2F7FF25
:10BE5800F86A08006F00D4FFB5F0BF0EAA6FFF0E96
:10BE6800AB6F60009BF2D9FF60009FF2DAFF6F00B2
:10BE78007BFFF6FF6F0077FFF7FFF86A0800F550C1
:10BE8800AC6FAD6BAA51AC27AB51AD23AD510AE1F4
:10BE98001A0EAC5DD8A053EF5FF056EF5FF0010EBD
:10BEA80057EF5FF0000EB06FB16BB051B111D8B45D
:10BEB80060EF5FF062EF5FF086EF5FF06000A3F283
:10BEC800D9FF6000A7F2DAFF6F007CFFAAF0040E2A
:10BED800DE266F007CFFABF0000EDD226000ABF2C7
:10BEE800D9FF6000AFF2DAFF6F0078FFB6F06F009D
:10BEF80078FFB7F06F0078FFB8F06F0078FFB9F0FF
:10BF0800A8EF5FF06000A3F2D9FF6000A7F2DAFFA4
:10BF18006F007CFFAAF0040EDE266F007CFFABF0FA
:10BF2800000EDD226000ABF2D9FF6000AFF2DAFF4D
:10BF38006F0078FFB6F06F0078FFB7F06F0078FFFA
:10BF4800B8F06F0078FFB9F0020E60009BF2D9FFDD
:10BF580060009FF2DAFFDE26000EDD22A4C060F04A
:10BF6800A5C061F0B6C062F0B7C063F0B8C064F0B5
:10BF7800B9C065F0B5C066F06DEC64F060C0A4F0BF
:10BF880061C0A5F02BEF60F060009BF2D9FF600064
:10BF98009FF2DAFF6F007BFFF6FF6F0077FFF7FF76
:10BFA800F86A0800F550250AD8A4DDEF5FF0DFEF46
:10BFB8005FF0F9EF5FF060009BF2D9FF60009FF23D
:10BFC800DAFFDE2A000EDD22000E046E250E036E57
:10BFD800A4C005F0A5C006F0B3EC49F0000E0001BE
:10BFE800A56F010EA46F2BEF60F060009BF2D9FFE4
:10BFF80060009FF2DAFFDE2A000EDD22000E00014B
:10C00800A56F000EA46F2BEF60F060009BF2D9FFC4
:10C0180060009FF2DAFF6F007BFFF6FF6F0077FF8B
:10C02800F7FFF86A0800F550036E046AA4C005F02B
:10C03800A5C006F0B3EC49F060009BF2D9FF6000A0
:10C048009FF2DAFFDE2A000EDD22F2EF5FF0120027
:10C058004BC060F04CC061F04DC062F04EC063F060
:10C0680060C08EF061C08FF062C090F063C091F044
:10C078008EC04FF08FC050F090C051F091C052F078
:10C08800200E4CEF60F0D8905232513250324F327D
:10C09800E82E47EF60F04FC078F050C079F051C0FB
:10C0A8007AF052C07BF00001919F800E905D4C0E9B
:10C0B8009159D8A062EF60F064EF60F0D2EF60F0C1
:10C0C8004BC001F04CC002F04DC003F04EC004F06C
:10C0D800EAEC4BF001500210D8A475EF60F077EF4E
:10C0E80060F081EF60F04BC04BF04CC04CF04DC09D
:10C0F8004DF04EC04EF06CEF64F0ED0EF66EFE0E95
:10C10800F76EF86A09006F00D4FF01F009006F00AC
:10C11800D4FF02F009006F00D4FF03F00A006F009B
:10C12800D4FF04F0000E056E000E066E800E076E3A
:10C13800030E086E68EC55F001C08AF002C08BF05F
:10C1480003C08CF004C08DF00001785179117A1188
:10C158007B11D8A4B2EF60F0B4EF60F0BEEF60F0EE
:10C168008AC04BF08BC04CF08CC04DF08DC04EF0A7
:10C178006CEF64F08AC001F08BC002F08CC003F051
:10C188008DC004F0E7EC47F001C04BF002C04CF062
:10C1980003C04DF004C04EF06CEF64F0E00E905D0B
:10C1A8003E0E9159D8B0DBEF60F0DDEF60F0EEEFB6
:10C1B80060F0800E905D390E9159D8B0E6EF60F0CE
:10C1C800E8EF60F0EAEF60F077EF60F0886989697E
:10C1D80030EF62F04BC001F04CC002F04DC003F0EC
:10C1E8004EC004F0CDEC47F001C04BF002C04CF05B
:10C1F80003C04DF004C04EF0980E0001905D3F0E54
:10C208009159D8B00AEF61F00CEF61F0B1EF61F02D
:10C21800300E905D3F0E9159D8B015EF61F017EFD1
:10C2280061F06DEF61F0000E896F000E886F000EEF
:10C23800056E000E066E800E076EBF0E086E000EAD
:10C24800156E000E166E000E176E400E186E4BC05F
:10C2580011F04CC012F04DC013F04EC014F041EC78
:10C2680053F011C001F012C002F013C003F014C063
:10C2780004F068EC55F001C032F002C033F003C09E
:10C2880034F004C035F0000E056E000E066E000E88
:10C29800076E400E086E4BC001F04CC002F04DC056
:10C2A80003F04EC004F068EC55F001C036F002C04F
:10C2B80037F003C038F004C039F074EC51F032C0E4
:10C2C8004BF033C04CF034C04DF035C04EF030EF79
:10C2D80062F0000E896F010E886F000E056E000E69
:10C2E800066E800E076EBF0E086E4BC001F04CC084
:10C2F80002F04DC003F04EC004F068EC55F001C0E8
:10C3080032F002C033F003C034F004C035F0000E40
:10C31800056E000E066E800E076E3F0E086E4BC04F
:10C3280001F04CC002F04DC003F04EC004F068ECC0
:10C3380055F001C036F002C037F003C038F004C031
:10C3480039F074EC51F032C04BF033C04CF034C0CB
:10C358004DF035C04EF030EF62F01C0E905D400E8F
:10C368009159D8B0BAEF61F0BCEF61F012EF62F00A
:10C37800000E896F020E886F000E056E000E066EA5
:10C38800C00E076EBF0E086E4BC001F04CC002F025
:10C398004DC003F04EC004F068EC55F001C032F017
:10C3A80002C033F003C034F004C035F0000E056E4F
:10C3B800000E066E800E076E3F0E086E000E156E9C
:10C3C800000E166EC00E176E3F0E186E4BC011F0A1
:10C3D8004CC012F04DC013F04EC014F041EC53F0B5
:10C3E80011C001F012C002F013C003F014C004F031
:10C3F80068EC55F001C036F002C037F003C038F0E1
:10C4080004C039F074EC51F032C04BF033C04CF03A
:10C4180034C04DF035C04EF030EF62F0000E896F39
:10C42800030E886F000E326E000E336E800E346E6F
:10C43800BF0E356E4BC036F04CC037F04DC038F0EB
:10C448004EC039F074EC51F032C04BF033C04CF0B0
:10C4580034C04DF035C04EF04BC011F04CC012F056
:10C468004DC013F04EC014F04BC015F04CC016F080
:10C478004DC017F04EC018F041EC53F011C08AF0CF
:10C4880012C08BF013C08CF014C08DF08AC011F06C
:10C498008BC012F08CC013F08DC014F08AC015F058
:10C4A8008BC016F08CC017F08DC018F041EC53F01B
:10C4B80011C084F012C085F013C086F014C087F054
:10C4C800C50EF66EFE0EF76EF86A09006F00D4FF0F
:10C4D80005F009006F00D4FF06F009006F00D4FFD3
:10C4E80007F00A006F00D4FF08F084C015F085C07B
:10C4F80016F086C017F087C018F0CD0EF66EFE0E47
:10C50800F76EF86A09006F00D4FF11F009006F0098
:10C51800D4FF12F009006F00D4FF13F00A006F0077
:10C52800D4FF14F041EC53F011C001F012C002F036
:10C5380013C003F014C004F068EC55F001C07CF09F
:10C5480002C07DF003C07EF004C07FF0BD0EF66E21
:10C55800FE0EF76E000EF86E09006F00D4FF05F0AE
:10C5680009006F00D4FF06F009006F00D4FF07F040
:10C578000A006F00D4FF08F084C015F085C016F0DB
:10C5880086C017F087C018F07CC011F07DC012F08B
:10C598007EC013F07FC014F041EC53F011C001F0DD
:10C5A80012C002F013C003F014C004F068EC55F098
:10C5B80001C064F002C065F003C066F004C067F013
:10C5C80064C011F065C012F066C013F067C014F0C3
:10C5D8008AC015F08BC016F08CC017F08DC018F00B
:10C5E80041EC53F011C070F012C071F013C072F03A
:10C5F80014C073F0C10EF66EFE0EF76EF86A0900ED
:10C608006F00D4FF05F009006F00D4FF06F00900A1
:10C618006F00D4FF07F00A006F00D4FF08F084C051
:10C6280015F085C016F086C017F087C018F0C90E3F
:10C63800F66EFE0EF76EF86A09006F00D4FF11F06F
:10C6480009006F00D4FF12F009006F00D4FF13F047
:10C658000A006F00D4FF14F041EC53F011C001F050
:10C6680012C002F013C003F014C004F068EC55F0D7
:10C6780001C07CF002C07DF003C07EF004C07FF0F2
:10C688007CC011F07DC012F07EC013F07FC014F0A2
:10C6980084C015F085C016F086C017F087C018F062
:10C6A80041EC53F011C074F012C075F013C076F06D
:10C6B80014C077F0000189BF66EF63F064EF63F0A0
:10C6C800AEEF63F04BC015F04CC016F04DC017F03C
:10C6D8004EC018F074C005F075C006F076C007F0BB
:10C6E80077C008F070C001F071C002F072C003F0AA
:10C6F80073C004F068EC55F001C011F002C012F0EC
:10C7080003C013F004C014F041EC53F011C080F0E2
:10C7180012C081F013C082F014C083F04BC02AF01D
:10C728004CC02BF04DC02CF04EC02DF080C02EF028
:10C7380081C02FF082C030F083C031F07FEC48F028
:10C748002AC04BF02BC04CF02CC04DF02DC04EF041
:10C758006CEF64F04BC015F04CC016F04DC017F0EC
:10C768004EC018F074C005F075C006F076C007F02A
:10C7780077C008F070C001F071C002F072C003F019
:10C7880073C004F068EC55F001C011F002C012F05B
:10C7980003C013F004C014F041EC53F011C080F052
:10C7A80012C081F013C082F014C083F088C04FF02B
:10C7B80089C050F0D8904F365036D8904F36503602
:10C7C800D10E4F24F66EFE0E5020F76EF86A000E5A
:10C7D800F82209006F00D4FF2EF009006F00D4FF83
:10C7E8002FF009006F00D4FF30F00A006F00D4FF6B
:10C7F80031F080C02AF081C02BF082C02CF083C0B9
:10C808002DF07FEC48F02AC068F02BC069F02CC0EE
:10C818006AF02DC06BF04BC02EF04CC02FF04DC00D
:10C8280030F04EC031F068C02AF069C02BF06AC001
:10C838002CF06BC02DF07FEC48F02AC06CF02BC0B8
:10C848006DF02CC06EF02DC06FF088C04FF089C01D
:10C8580050F0D8904F365036D8904F365036E10EBB
:10C868004F24F66EFE0E5020F76EF86A000EF8227E
:10C8780009006F00D4FF2AF009006F00D4FF2BF0E5
:10C8880009006F00D4FF2CF00A006F00D4FF2DF0D0
:10C898006CC02EF06DC02FF06EC030F06FC031F05C
:10C8A8007FEC48F02AC08AF02BC08BF02CC08CF0AB
:10C8B8002DC08DF00001785179117A117B11D8A41F
:10C8C80068EF64F06AEF64F0BEEF60F0B4EF60F018
:10C8D8001200000E0001876F000E866F62C098F08C
:10C8E80063C099F064C09AF065C09BF09BBF81EF6C
:10C8F80064F07FEF64F097EF64F0000E876F010E2D
:10C90800866F98C001F099C002F09AC003F09BC0EE
:10C9180004F0E7EC47F001C098F002C099F003C0BA
:10C928009AF004C09BF0000E00019F6F000E9E6FEE
:10C93800F4C08AF0F5C08BF086518711D8A4A7EF10
:10C9480064F0A9EF64F0B0EF64F0F8A5AEEF64F01E
:10C95800B0EF64F0CAEF64F086518711D8A4B7EF3E
:10C9680064F0B9EF64F0BFEF64F0000E6D6F2B0E4A
:10C978006C6FC3EF64F0000E6D6F2D0E6C6F6CC0A2
:10C9880000F39E4B9F2B8A07D8A08B0798C001F015
:10C9980099C002F09AC003F09BC004F0EAEC4BF097
:10C9A80001040210D8A4DBEF64F0DDEF64F034EF8B
:10C9B80065F0BF0E0001676FFF0E686F6651696F03
:10C9C8006A6B6751692768516A236A510AE11A0E2E
:10C9D800695DD8A0F2EF64F0F5EF64F0010EF6EFB0
:10C9E80064F0000E6E6F6F6B6E516F11D8B4FFEF6D
:10C9F80064F001EF65F00FEF65F0000E9E25016E03
:10CA0800030E9F21026EE40E036EFF0E046E34ECDB
:10CA180049F01BEF65F0000E9E25016E030E9F2165
:10CA2800026EEC0E036EFF0E046E34EC49F000014A
:10CA3800FD0E8A27FF0E8B2360C013F061C014F02F
:10CA4800000E156E030E166E8AC017F08BC018F014
:10CA58000DEC4BF013C060F014C061F0C1EF6AF048
:10CA680098C001F099C002F09AC003F09BC004F08E
:10CA7800EAEC4BF001500210D8A445EF65F047EFFF
:10CA880065F09EEF65F0BF0E0001676FFF0E686FDF
:10CA98006651696F6A6B6751692768516A236A51E1
:10CAA8000AE11A0E695DD8A05CEF65F05FEF65F0EA
:10CAB800010E60EF65F0000E706F716B70517111AF
:10CAC800D8B469EF65F06BEF65F079EF65F0000EAB
:10CAD8009E25016E030E9F21026EE80E036EFF0E67
:10CAE800046E34EC49F085EF65F0000E9E25016E6A
:10CAF800030E9F21026EF00E036EFF0E046E34ECDF
:10CB080049F00001FD0E8A27FF0E8B2360C013F049
:10CB180061C014F0000E156E030E166E8AC017F071
:10CB28008BC018F00DEC4BF013C060F014C061F02E
:10CB3800C1EF6AF0000E0001A06F000EA16F800E19
:10CB4800A26F3F0EA36F000E9D6F000E9C6F98C0E2
:10CB580001F099C002F09AC003F09BC004F0000EE7
:10CB6800056E000E066E000E076E000E086EFEECD7
:10CB780049F0D8B0C2EF65F0C4EF65F047EF66F052
:10CB8800E3EF65F0A0C011F0A1C012F0A2C013F04D
:10CB9800A3C014F0000E156E000E166E200E176E50
:10CBA800410E186E41EC53F011C0A0F012C0A1F074
:10CBB80013C0A2F014C0A3F000019C4B9D2B98C099
:10CBC80032F099C033F09AC034F09BC035F0000EB3
:10CBD800156E000E166E200E176E410E186EA0C050
:10CBE80011F0A1C012F0A2C013F0A3C014F041ECE0
:10CBF80053F011C036F012C037F013C038F014C02B
:10CC080039F069EC4CF0D8B00CEF66F00EEF66F036
:10CC1800C6EF65F02EEF66F0A0C032F0A1C033F089
:10CC2800A2C034F0A3C035F0000E366E000E376E89
:10CC3800200E386E410E396E74EC51F032C0A0F0FF
:10CC480033C0A1F034C0A2F035C0A3F000019C07A6
:10CC5800D8A09D0798C032F099C033F09AC034F03C
:10CC68009BC035F0A0C036F0A1C037F0A2C038F0A4
:10CC7800A3C039F069EC4CF0D8A045EF66F047EF57
:10CC880066F010EF66F066C007F0086AD0EC48F06E
:10CC9800075000018D6F8DC08CF0670E8D19D8A4D8
:10CCA80058EF66F05AEF66F080EF66F0F651F7112C
:10CCB800D8A461EF66F063EF66F067EF66F0000EE8
:10CCC800F76F010EF66FF7BF74EF66F0F75106E1E4
:10CCD800F605D8B072EF66F074EF66F07AEF66F09A
:10CCE800000E896F060E886F89EF66F0F6C088F02F
:10CCF800F7C089F089EF66F0F7BF85EF66F087EF38
:10CD080066F074EF66F07AEF66F0670E8D19D8A4B6
:10CD180090EF66F092EF66F0C1EF66F09DAFA0EF7E
:10CD280066F0FC0E9C5DFF0E9D59D8A09EEF66F044
:10CD3800A0EF66F0BFEF66F0FF0E676FFF0E686F3B
:10CD480088C069F089C06AF06751692768516A2309
:10CD58009C51695D6A51800A6B6F9D51800A6B59BD
:10CD6800D8A0B9EF66F0BBEF66F0BFEF66F0660ECD
:10CD78008C6FC1EF66F0650E8C6F88C07EF089C03D
:10CD88007FF0670E8D19D8A4CCEF66F0CEEF66F071
:10CD9800DEEF66F0660E8C19D8A4D5EF66F0D7EFF3
:10CDA80066F0E0EF66F09DBFDEEF66F0DCEF66F060
:10CDB800E0EF66F07E4B7F2B660E8C19D8A4E7EF68
:10CDC80066F0E9EF66F009EF67F09DBFF0EF66F0F7
:10CDD800EEEF66F0FCEF66F0000EA06F000EA16F9C
:10CDE800800EA26F3F0EA36F000E9D6F000E9C6F0A
:10CDF800670E8D19D8B403EF67F005EF67F009EFF8
:10CE080067F09C517E279D517F23000E976F000E7F
:10CE1800966F98C08EF099C08FF09AC090F09BC022
:10CE280091F0A0C080F0A1C081F0A2C082F0A3C0A0
:10CE380083F09AEF67F08EC032F08FC033F090C065
:10CE480034F091C035F0A0C036F0A1C037F0A2C0D0
:10CE580038F0A3C039F074EC51F032C04BF033C055
:10CE68004CF034C04DF035C04EF051EC4FF04BC093
:10CE780092F04CC093F04DC094F04EC095F092C023
:10CE880001F093C002F094C003F095C004F0EBECFD
:10CE98004CF001C084F002C085F08EC02AF08FC02B
:10CEA8002BF090C02CF091C02DF0A0C015F0A1C0BF
:10CEB80016F0A2C017F0A3C018F092C011F093C0EA
:10CEC80012F094C013F095C014F041EC53F011C067
:10CED8002EF012C02FF013C030F014C031F07FECE8
:10CEE80048F02AC08EF02BC08FF02CC090F02DC0D7
:10CEF80091F0A0C032F0A1C033F0A2C034F0A3C0BA
:10CF080035F0000E366E000E376E200E386E410E6C
:10CF1800396E74EC51F032C0A0F033C0A1F034C0C7
:10CF2800A2F035C0A3F00001964B972B7E51965D79
:10CF38009751800A676F7F51800A6759D8A0A7EF79
:10CF480067F0A9EF67F01FEF67F0A0C011F0A1C06C
:10CF580012F0A2C013F0A3C014F0000E156E000E5C
:10CF6800166EA00E176E400E186E41EC53F011C0ED
:10CF780092F012C093F013C094F014C095F08EC0D4
:10CF880032F08FC033F090C034F091C035F092C0C9
:10CF980036F093C037F094C038F095C039F069EC9A
:10CFA8004CF0D8B0DAEF67F0DCEF67F0E7EF67F046
:10CFB800000E0001926F000E936F000E946F000E2A
:10CFC800956F10EF68F08EC001F08FC002F090C02E
:10CFD80003F091C004F092C005F093C006F094C02D
:10CFE80007F095C008F0FEEC49F0D8A0FEEF67F016
:10CFF80000EF68F010EF68F0000184B106EF68F008
:10D0080008EF68F010EF68F0000E926F000E936F53
:10D01800000E946F000E956F98C001F099C002F051
:10D028009AC003F09BC004F092C005F093C006F0CC
:10D0380094C007F095C008F068EC55F001C08EF078
:10D0480002C08FF003C090F004C091F08EC032F09F
:10D058008FC033F090C034F091C035F0000E156EDB
:10D06800000E166E200E176E410E186E80C011F05D
:10D0780081C012F082C013F083C014F041EC53F069
:10D0880011C036F012C037F013C038F014C039F0B0
:10D0980069EC4CF0D8A053EF68F055EF68F07EEFDC
:10D0A80068F000019C4B9D2B80C011F081C012F0EC
:10D0B80082C013F083C014F0000E156E000E166EB9
:10D0C800200E176E410E186E41EC53F011C080F01F
:10D0D80012C081F013C082F014C083F0660E000104
:10D0E8008C19D8A47AEF68F07CEF68F07EEF68F0CE
:10D0F8007E4B7F2B80C0A0F081C0A1F082C0A2F03F
:10D1080083C0A3F0650E00018C19D8B48EEF68F0C7
:10D1180090EF68F096EF68F09CC07CF09DC07DF0C1
:10D128009AEF68F0000E7D6F000E7C6F000E7B6F2B
:10D13800000E7A6F000E796F000E786F000E976FF1
:10D14800000E966F95EF69F08EC032F08FC033F005
:10D1580090C034F091C035F0A0C036F0A1C037F0CF
:10D16800A2C038F0A3C039F074EC51F032C04BF0D3
:10D1780033C04CF034C04DF035C04EF051EC4FF098
:10D188004BC092F04CC093F04DC094F04EC095F057
:10D1980092C001F093C002F094C003F095C004F06F
:10D1A800EBEC4CF001C084F002C085F00001F8B946
:10D1B800E0EF68F0E2EF68F0FFEF68F08451851166
:10D1C800D8A4E9EF68F0EBEF68F0FFEF68F0670EBE
:10D1D8008D19D8A4F2EF68F0F4EF68F0FFEF68F06B
:10D1E8007DBFFBEF68F0F9EF68F0FFEF68F0784B70
:10D1F800792B49EF69F07A517B11D8A406EF69F0D1
:10D2080008EF69F032EF69F07DBF0FEF69F00DEFBD
:10D2180069F032EF69F0000E9E25D96E030E9F214A
:10D22800DA6E2E0EDF6E9E4B9F2B8A07D8A08B07D7
:10D23800000E7B6F010E7A6F32EF69F0000E9E25AB
:10D24800D96E030E9F21DA6E300EDF6E9E4B9F2B38
:10D258008A07D8A08B077807D8A079077851791161
:10D26800D8A439EF69F03BEF69F022EF69F0000EBE
:10D278009E25D96E030E9F21DA6E8451300FDF6E22
:10D288009E4B9F2B8A07D8A08B078EC02AF08FC091
:10D298002BF090C02CF091C02DF0A0C015F0A1C0CB
:10D2A80016F0A2C017F0A3C018F092C011F093C0F6
:10D2B80012F094C013F095C014F041EC53F011C073
:10D2C8002EF012C02FF013C030F014C031F07FECF4
:10D2D80048F02AC08EF02BC08FF02CC090F02DC0E3
:10D2E80091F0A0C032F0A1C033F0A2C034F0A3C0C6
:10D2F80035F0000E366E000E376E200E386E410E79
:10D30800396E74EC51F032C0A0F033C0A1F034C0D3
:10D31800A2F035C0A3F000017C07D8A07D07964B8A
:10D32800972B7E51965D9751800A676F7F51800ACF
:10D338006759D8B0A2EF69F0A4EF69F0B2EF69F0CD
:10D348009FBFB0EF69F09F5109E14B0E9E5DD8A0D9
:10D35800B0EF69F0B2EF69F0A8EF68F07A517B118D
:10D36800D8A4B9EF69F0BBEF69F0CCEF69F0F8A980
:10D37800C0EF69F0C2EF69F0CCEF69F0000E9E25AE
:10D38800D96E030E9F21DA6E2E0EDF6E9E4B9F2BF9
:10D39800000E9E25D96E030E9F21DA6E000EDF6EF9
:10D3A800650E8C19D8A4DBEF69F0DDEF69F0AFEFFB
:10D3B8006AF0000E976F4F0E966F000E9625D96E85
:10D3C800030E9721DA6E000EDF6E000E876F000ED7
:10D3D800866F9DBFF4EF69F0F2EF69F0FCEF69F03A
:10D3E800000E876F010E866F9C6D9D1FD8B09D2B18
:10D3F800000E896F020E886F2DEF6AF09607D8A08D
:10D408009707000E9625D96E030E9721DA6E9CC0F9
:10D4180001F09DC002F0000E046E0A0E036E53EC7C
:10D428004AF00150300FDF6E9CC001F09DC002F041
:10D43800000E046E0A0E036EABEC4AF001C09CF0BD
:10D4480002C09DF000018807D8A089078A07D8A0E4
:10D458008B079C519D11D8A434EF6AF036EF6AF01F
:10D4680002EF6AF089BF43EF6AF0895106E1880547
:10D47800D8B041EF6AF043EF6AF002EF6AF096071E
:10D48800D8A0970786518711D8A44DEF6AF04FEFBF
:10D498006AF055EF6AF0000E736F2B0E726F59EF3A
:10D4A8006AF0000E736F2D0E726F000E9625D96EFE
:10D4B800030E9721DA6E6000CBF1DFFF8A07D8A050
:10D4C8008B079607D8A09707BF0E676FFF0E686F88
:10D4D8006651696F6A6B6751692768516A236A5197
:10D4E8000AE11A0E695DD8A07CEF6AF07FEF6AF056
:10D4F800010E80EF6AF0000E766F776B7651771128
:10D50800D8A489EF6AF08BEF6AF091EF6AF0000E09
:10D51800756F650E746F95EF6AF0000E756F450EA6
:10D52800746F000E9625D96E030E9721DA6E60008F
:10D53800D3F1DFFF8A07D8A08B07000E9E25016E66
:10D54800030E9F21026E000E9625036E030E97218F
:10D55800046E34EC49F060C013F061C014F0000EA2
:10D56800156E030E166E8AC017F08BC018F00DECFE
:10D578004BF013C060F014C061F0120088C0B8F11D
:10D5880089C0B9F18AC0BAF18BC0BBF1B8C160F1EA
:10D59800B9C161F1BAC162F1BBC163F18CC0B8F124
:10D5A8008DC0B9F18EC0BAF18FC0BBF1B8C184F19A
:10D5B800B9C185F1BAC186F1BBC187F1FF0E01017E
:10D5C8006015A86FFF0E6115A96FFF0E6215AA6F8F
:10D5D8007F0E6315AB6FFF0E8415986FFF0E8515D0
:10D5E800996FFF0E86159A6F7F0E87159B6F98515E
:10D5F80099119A119B11D8A404EF6BF006EF6BF008
:10D6080011EF6BF0000E0001886F000E896F800E1D
:10D618008A6F3F0E8B6F5DEF7FF0800E621909E114
:10D628003F0E631960116111D8A41DEF6BF01FEF55
:10D638006BF02AEF6BF0000E0001886F000E896F07
:10D64800800E8A6F3F0E8B6F5DEF7FF0ABBF3BEFB5
:10D658006BF0A805000EA959800EAA597F0EAB5988
:10D66800D8B039EF6BF03BEF6BF04CEF6BF09BBF32
:10D678004AEF6BF09805000E9959800E9A597F0E63
:10D688009B59D8A04AEF6BF04CEF6BF068EF6BF04A
:10D6980088C001F089C002F08AC003F08BC004F092
:10D6A8008CC005F08DC006F08EC007F08FC008F062
:10D6B80068EC55F001C088F002C089F003C08AF018
:10D6C80004C08BF05DEF7FF0000E506F000E516FBD
:10D6D800000E526F000E536F63BF77EF6BF075EF5C
:10D6E8006BF022EF6CF09BBF83EF6BF0800E9A5DBE
:10D6F8004B0E9B59D8A083EF6BF085EF6BF08FEF43
:10D708006BF0020E506F000E516F000E526F000E3C
:10D71800536F22EF6CF09BBF9BEF6BF0800E9A5D0E
:10D728003F0E9B59D8A09BEF6BF09DEF6BF022EF5B
:10D738006CF0170E4B6E98C14CF099C14DF09AC120
:10D748004EF09BC14FF04B66ACEF6BF0B4EF6BF053
:10D758004F344F324E324D324C324B2EA7EF6BF0D6
:10D76800810E4C240101A06FFF0E4D20A16FFF0E0A
:10D778004E20A26FFF0E4F20A36FA05117084B6ECB
:10D7880098C14CF099C14DF09AC14EF09BC14FF031
:10D798004B66D1EF6BF0D9EF6BF04F344F324E320E
:10D7A8004D324C324B2ECCEF6BF04CC0ACF14DC02F
:10D7B800ADF14EC0AEF14FC0AFF10101A051170855
:10D7C8004B6EACC14CF0ADC14DF0AEC14EF0AFC127
:10D7D8004FF04B2AF5EF6BF0D8904C364D364E365D
:10D7E8004F364B2EF0EF6BF098514C180DE19951D4
:10D7F8004D180AE19A514E1807E19B514F18D8A4C9
:10D8080008EF6CF00AEF6CF022EF6CF0010EAC152B
:10D818004B6E000EAD154C6E000EAE154D6E000E23
:10D82800AF154E6E4B500208506F000E4C54516F9E
:10D83800000E4D54526F000E4E54536F800E9A19BD
:10D8480009E17F0E9B1998119911D8A42EEF6CF05D
:10D8580030EF6CF09CEF6CF0800EAA1909E13F0ED6
:10D86800AB19A811A911D8A43CEF6CF03EEF6CF0ED
:10D8780049EF6CF0000E0001886F000E896F800E72
:10D888008A6F3F0E8B6F5DEF7FF0ABBF58EF6CF088
:10D89800A805000EA959800EAA593F0EAB59D8A069
:10D8A80058EF6CF05AEF6CF076EF6CF087BF61EFD1
:10D8B8006CF05FEF6CF06CEF6CF0000E0001886F9D
:10D8C800000E896F000E8A6F000E8B6F5DEF7FF080
:10D8D8008CC088F08DC089F08EC08AF08FC08BF024
:10D8E8005DEF7FF087BF7DEF6CF07BEF6CF091EF21
:10D8F8006CF08CC001F08DC002F08EC003F08FC0B8
:10D9080004F0E7EC47F001C088F002C089F003C0DA
:10D918008AF004C08BF05DEF7FF0000E0001886F85
:10D92800000E896F000E8A6F000E8B6F5DEF7FF01F
:10D93800800E9A1909E13F0E9B1998119911D8A4E4
:10D94800A8EF6CF0AAEF6CF0D7EF6CF087BFB1EFDF
:10D958006CF0AFEF6CF0CDEF6CF0000E326E000E95
:10D96800336E800E346E3F0E356E88C036F089C037
:10D9780037F08AC038F08BC039F074EC51F032C0FF
:10D9880088F033C089F034C08AF035C08BF05DEF81
:10D998007FF088C088F089C089F08AC08AF08BC07F
:10D9A8008BF05DEF7FF0400E871984118511861189
:10D9B800D8A4E1EF6CF0E3EF6CF0FFEF6CF088C0F7
:10D9C80011F089C012F08AC013F08BC014F088C01F
:10D9D80015F089C016F08AC017F08BC018F041EC1A
:10D9E80053F011C088F012C089F013C08AF014C037
:10D9F8008BF05DEF7FF03F0E87198411851186113A
:10DA0800D8A409EF6DF00BEF6DF026EF6DF063BF52
:10DA180010EF6DF012EF6DF026EF6DF088C03EF05C
:10DA280089C03FF08AC040F08BC041F0C8EC57F085
:10DA38003EC088F03FC089F040C08AF041C08BF0FA
:10DA48005DEF7FF088C001F089C002F08AC003F062
:10DA58008BC004F0CDEC47F001C070F102C071F149
:10DA680003C072F104C073F1800E0101AA190BE121
:10DA78007F0EAB19A811A911D8B445EF6DF047EF87
:10DA88006DF060EF6DF0A851A911AA11AB11D8B4CF
:10DA980050EF6DF052EF6DF060EF6DF0800EAA1947
:10DAA80009E13F0EAB19A811A911D8A45EEF6DF0DA
:10DAB80060EF6DF01BEF6EF070C1B4F171C1B5F19C
:10DAC80072C1B6F173C1B7F187BF6FEF6DF06DEF3B
:10DAD8006DF089EF6DF0000E326E000E336E800E21
:10DAE800346E3F0E356EB4C136F0B5C137F0B6C1ED
:10DAF80038F0B7C139F074EC51F032C0B4F133C02A
:10DB0800B5F134C0B6F135C0B7F1010163BF91EF8B
:10DB18006DF08FEF6DF011EF6EF0000EA8254B6ED3
:10DB2800000EA9214C6E800EAA214D6EC00EAB21AD
:10DB38004E6E50514B104F6E51514C10506E525109
:10DB48004D10516E53514E10526E4F50501051108F
:10DB58005210D8A4B2EF6DF0B4EF6DF0F4EF6DF0A1
:10DB6800B4C12EF0B5C12FF0B6C130F0B7C131F055
:10DB7800B4C12AF0B5C12BF0B6C12CF0B7C12DF055
:10DB88007FEC48F02AC032F02BC033F02CC034F0C0
:10DB98002DC035F0B4C12EF0B5C12FF0B6C130F0AC
:10DBA800B7C131F0B4C12AF0B5C12BF0B6C12CF021
:10DBB800B7C12DF07FEC48F02AC036F02BC037F003
:10DBC8002CC038F02DC039F074EC51F032C0B4F1EB
:10DBD80033C0B5F134C0B6F135C0B7F111EF6EF00E
:10DBE8005005511152115311D8A4FDEF6DF0FFEFFC
:10DBF8006DF011EF6EF0B4C101F0B5C102F0B6C11D
:10DC080003F0B7C104F0E7EC47F001C0B4F102C07B
:10DC1800B5F103C0B6F104C0B7F1B4C188F0B5C11D
:10DC280089F0B6C18AF0B7C18BF05DEF7FF0000EC6
:10DC3800886F000E896F800E8A6F3F0E8B6F63BFEF
:10DC48002AEF6EF028EF6EF088EF6EF05051511108
:10DC580052115311D8A433EF6EF035EF6EF075EF13
:10DC68006EF088C02EF089C02FF08AC030F08BC0CB
:10DC780031F088C02AF089C02BF08AC02CF08BC004
:10DC88002DF07FEC48F02AC032F02BC033F02CC0C6
:10DC980034F02DC035F088C02EF089C02FF08AC02E
:10DCA80030F08BC031F088C02AF089C02BF08AC0D0
:10DCB8002CF08BC02DF07FEC48F02AC036F02BC03A
:10DCC80037F02CC038F02DC039F074EC51F032C068
:10DCD80088F033C089F034C08AF035C08BF05DEF2E
:10DCE8007FF05005511152115311D8A47EEF6EF0F8
:10DCF80080EF6EF088EF6EF0000E886F000E896F6F
:10DD0800800E8A6FBF0E8B6F9BBF97EF6EF09805E2
:10DD1800000E9959000E9A594D0E9B59D8A097EFAD
:10DD28006EF099EF6EF01EEF71F0ABBFABEF6EF0D7
:10DD3800F80EA85DFF0EA9597F0EAA593F0EAB59E0
:10DD4800D8B0A9EF6EF0ABEF6EF01EEF6FF087BFA3
:10DD5800B0EF6EF0B2EF6EF0E8EF6EF0600E156E99
:10DD6800420E166EA20E176E0D0E186E88C111F0B7
:10DD780089C112F08AC113F08BC114F041EC53F041
:10DD880011C0A4F112C0A5F113C0A6F114C0A7F1E7
:10DD9800A4C111F0A5C112F0A6C113F0A7C114F0D7
:10DDA800600E156E420E166EA20E176E0D0E186ED0
:10DDB80041EC53F011C088F012C089F013C08AF00A
:10DDC80014C08BF05DEF7FF0CA0E156EF20E166E62
:10DDD800490E176E710E186E88C111F089C112F0C4
:10DDE8008AC113F08BC114F041EC53F011C0A4F1B7
:10DDF80012C0A5F113C0A6F114C0A7F1A4C111F077
:10DE0800A5C112F0A6C113F0A7C114F0CA0E156E71
:10DE1800F20E166E490E176E710E186E41EC53F025
:10DE280011C088F012C089F013C08AF014C08BF0BA
:10DE38005DEF7FF0ABBF2EEF6FF0080EA85D000E10
:10DE4800A959800EAA593F0EAB59D8A02EEF6FF0F2
:10DE580030EF6FF0ABEF6FF087BF3FEF6FF0875198
:10DE68008611851106E18405D8B03DEF6FF03FEFCC
:10DE78006FF075EF6FF0600E156E420E166EA20E03
:10DE8800176E0D0E186E88C111F089C112F08AC183
:10DE980013F08BC114F041EC53F011C0A4F112C07F
:10DEA800A5F113C0A6F114C0A7F1A4C111F0A5C132
:10DEB80012F0A6C113F0A7C114F0600E156E420E41
:10DEC800166EA20E176E0D0E186E41EC53F011C0AF
:10DED80088F012C089F013C08AF014C08BF05DEF8F
:10DEE8007FF0CA0E156EF20E166E490E176E710E81
:10DEF800186E88C111F089C112F08AC113F08BC164
:10DF080014F041EC53F011C0A4F112C0A5F113C0F4
:10DF1800A6F114C0A7F1A4C111F0A5C112F0A6C1C1
:10DF280013F0A7C114F0CA0E156EF20E166E490E44
:10DF3800176E710E186E41EC53F011C088F012C0C4
:10DF480089F013C08AF014C08BF05DEF7FF070C1C8
:10DF580001F071C102F072C103F073C104F0000E48
:10DF6800056E000E066E800E076EBF0E086E68EC1A
:10DF780055F001C0B0F102C0B1F103C0B2F104C064
:10DF8800B3F1000E156E000E166E800E176E3E0E63
:10DF9800186EB0C111F0B1C112F0B2C113F0B3C123
:10DFA80014F041EC53F011C02EF012C02FF013C042
:10DFB80030F014C031F0AB0E2A6EAA0E2B6EAA0EEA
:10DFC8002C6E3E0E2D6E7FEC48F02AC0A4F12BC0BB
:10DFD800A5F12CC0A6F12DC0A7F1B0C115F0B1C1B3
:10DFE80016F0B2C117F0B3C118F0B0C111F0B1C149
:10DFF80012F0B2C113F0B3C114F041EC53F011C0E8
:10E0080054F112C055F113C056F114C057F1B0C104
:10E0180015F0B1C116F0B2C117F0B3C118F0A4C120
:10E0280011F0A5C112F0A6C113F0A7C114F041EC7C
:10E0380053F011C02EF012C02FF013C030F014C0EE
:10E0480031F0000E2A6E000E2B6E000E2C6E3F0E65
:10E058002D6E7FEC48F02AC048F12BC049F12CC046
:10E068004AF12DC04BF154C111F055C112F056C1FF
:10E0780013F057C114F048C115F049C116F04AC150
:10E0880017F04BC118F041EC53F011C044F112C025
:10E0980045F113C046F114C047F1B0C111F0B1C148
:10E0A80012F0B2C113F0B3C114F0000E156EAA0E2F
:10E0B800166EB80E176E3F0E186E41EC53F011C075
:10E0C80074F112C075F113C076F114C077F1700EB7
:10E0D800156EA50E166EEC0E176E360E186EB0C1C4
:10E0E80011F0B1C112F0B2C113F0B3C114F041EC98
:10E0F80053F011C02AF012C02BF013C02CF014C03A
:10E108002DF03B0E156EAA0E166EB80E176E3F0E4A
:10E11800186E44C111F045C112F046C113F047C151
:10E1280014F041EC53F011C02EF012C02FF013C0C0
:10E1380030F014C031F07FEC48F02AC078F12BC0E1
:10E1480079F12CC07AF12DC07BF174C101F075C151
:10E1580002F076C103F077C104F078C105F079C107
:10E1680006F07AC107F07BC108F068EC55F001C0F1
:10E1780080F102C081F103C082F104C083F180C143
:10E18800B8F181C1B9F182C1BAF183C1BBF1B8C19B
:10E1980090F1B9C191F1BAC192F1BBC193F1000EEE
:10E1A80001019015B86FF00E9115B96FFF0E921519
:10E1B800BA6FFF0E9315BB6FB8C180F1B9C181F179
:10E1C800BAC182F1BBC183F174C12EF075C12FF0C1
:10E1D80076C130F077C131F080C12AF081C12BF0CF
:10E1E80082C12CF083C12DF07FEC48F02AC094F155
:10E1F8002BC095F12CC096F12DC097F178C12AF06B
:10E2080079C12BF07AC12CF07BC12DF094C12EF08E
:10E2180095C12FF096C130F097C131F07FEC48F0EE
:10E228002AC01CF12BC01DF12CC01EF12DC01FF1FE
:10E2380090EF78F0000E7C6F000E7D6F000E7E6F01
:10E24800000E7F6FABBF34EF71F0AB5107E1800E6A
:10E25800AA5DD8B032EF71F034EF71F067EF71F06A
:10E2680070C111F071C112F072C113F073C114F0D2
:10E27800000E156E000E166E800E176E4B0E186E81
:10E2880041EC53F011C070F112C071F113C072F17A
:10E2980014C073F1E80E01017C27FF0E7D23FF0EE9
:10E2A8007E23FF0E7F2370C1B8F171C1B9F172C12D
:10E2B800BAF173C1BBF1B8C1A8F1B9C1A9F1BAC12A
:10E2C800AAF1BBC1ABF1170E4B6EA8C14CF0A9C1A6
:10E2D8004DF0AAC14EF0ABC14FF04B6676EF71F02E
:10E2E8007EEF71F04F344F324E324D324C324B2E5E
:10E2F80071EF71F0810E4C24506EFF0E4D20516E5F
:10E30800FF0E4E20526EFF0E4F20536E50500101EB
:10E318007C2751507D2352507E2353507F23FF0E7C
:10E32800A815AC6FFF0EA915AD6F7F0EAA15AE6FBD
:10E33800000EAB15AF6F000EAC11A86F000EAD113B
:10E34800A96F800EAE11AA6F3F0EAF11AB6FAFBFB2
:10E35800BDEF71F0AF510BE1720EAC5DC40EAD595B
:10E368001C0EAE59D8B0BBEF71F0BDEF71F0C7EF1E
:10E3780071F0000EA06F000EA16F000EA26F000ECC
:10E38800A36FF9EF71F0AFBFD9EF71F0AF510BE1A7
:10E39800D70EAC5DB30EAD595D0EAE59D8B0D7EF00
:10E3A80071F0D9EF71F0E3EF71F0010EA06F000E7C
:10E3B800A16F000EA26F000EA36FF9EF71F0000EAF
:10E3C800A06F000EA16F000EA26F000EA36F010ECA
:10E3D8007C27000E7D237E237F23000EA827000EB6
:10E3E800A923800EAA23FF0EAB23A8C1B8F1A9C1A7
:10E3F800B9F1AAC1BAF1ABC1BBF1B8C170F1B9C1E9
:10E4080071F1BAC172F1BBC173F170C12AF071C167
:10E418002BF072C12CF073C12DF0A0C14BF0A1C13B
:10E428004CF0D8904B364C36D8904B364C36590E6B
:10E438004B24F66EFF0E4C20F76EF86A000EF82299
:10E4480009006F00D4FF2EF009006F00D4FF2FF0F1
:10E4580009006F00D4FF30F00A006F00D4FF31F0DC
:10E468007FEC48F02AC074F12BC075F12CC076F10E
:10E478002DC077F1000E326E000E336E800E346EB2
:10E488003F0E356E70C105F071C106F072C107F01C
:10E4980073C108F0A0C14BF0A1C14CF0D8904B3625
:10E4A8004C36D8904B364C36590E4B24F66EFF0E30
:10E4B8004C20F76EF86A000EF82209006F00D4FFAE
:10E4C80001F009006F00D4FF02F009006F00D4FFCB
:10E4D80003F00A006F00D4FF04F068EC55F001C0A7
:10E4E80036F002C037F003C038F004C039F074ECDD
:10E4F80051F032C078F133C079F134C07AF135C0C7
:10E508007BF174C111F075C112F076C113F077C1B7
:10E5180014F078C115F079C116F07AC117F07BC1F3
:10E5280018F041EC53F011C05CF112C05DF113C05A
:10E538005EF114C05FF15CC16CF15DC16DF15EC14B
:10E548006EF15FC16FF16CC1B8F16DC1B9F16EC107
:10E55800BAF16FC1BBF1B8C190F1B9C191F1BAC1BB
:10E5680092F1BBC193F1000E01019015B86FF00E46
:10E578009115B96FFF0E9215BA6FFF0E9315BB6F09
:10E58800B8C16CF1B9C16DF1BAC16EF1BBC16FF11F
:10E59800A8C14BF0A9C14CF0AAC14DF0ABC14EF0D7
:10E5A8004E344E324D324C324B32000E4B144F6EBD
:10E5B800F00E4C14506EFF0E4D14516EFF0E4E149B
:10E5C800526E000E4F10906F000E5010916F000E9B
:10E5D8005110926F200E5210936FA0C14BF0A1C141
:10E5E8004CF0A2C14DF0A3C14EF0150ED8904B3699
:10E5F8004C364D364E36E82EFAEF72F090514B24D9
:10E608004F6E91514C20506E92514D20516E935146
:10E618004E20526E000E4F24B86F000E5020B96F76
:10E62800400E5120BA6F000E5220BB6FB8C168F17E
:10E63800B9C169F1BAC16AF1BBC16BF1A0C14BF0B4
:10E64800A1C14CF0D8904B364C36D8904B364C364E
:10E65800590E4B24F66EFF0E4C20F76EF86A000E2A
:10E66800F82209006F00D4FF2EF009006F00D4FFD4
:10E678002FF009006F00D4FF30F00A006F00D4FFBC
:10E6880031F068C12AF069C12BF06AC12CF06BC166
:10E698002DF07FEC48F02AC094F12BC095F12CC0E6
:10E6A80096F12DC097F170C12AF071C12BF072C19B
:10E6B8002CF073C12DF094C12EF095C12FF096C1A6
:10E6C80030F097C131F07FEC48F02AC034F12BC00C
:10E6D80035F12CC036F12DC037F168C115F069C18C
:10E6E80016F06AC117F06BC118F06CC111F06DC15A
:10E6F80012F06EC113F06FC114F041EC53F011C069
:10E708002EF012C02FF013C030F014C031F074C1D5
:10E718002AF075C12BF076C12CF077C12DF07FEC73
:10E7280048F02AC094F12BC095F12CC096F12DC069
:10E7380097F134C115F035C116F036C117F037C15D
:10E7480018F06CC111F06DC112F06EC113F06FC1F9
:10E7580014F041EC53F011C02EF012C02FF013C08A
:10E7680030F014C031F094C12AF095C12BF096C155
:10E778002CF097C12DF07FEC48F02AC054F12BC043
:10E7880055F12CC056F12DC057F154C111F055C1A7
:10E7980012F056C113F057C114F078C115F079C1C1
:10E7A80016F07AC117F07BC118F041EC53F011C094
:10E7B80030F112C031F113C032F114C033F15CC131
:10E7C80011F05DC112F05EC113F05FC114F05CC1BD
:10E7D80015F05DC116F05EC117F05FC118F041EC8D
:10E7E80053F011C08CF112C08DF113C08EF114C01A
:10E7F8008FF1550E056E320E066E6C0E076E3E0ECC
:10E80800086E420E156EF10E166E530E176E3E0E02
:10E81800186E8CC111F08DC112F08EC113F08FC12A
:10E8280014F041EC53F011C001F012C002F013C013
:10E8380003F014C004F068EC55F001C0A4F102C064
:10E84800A5F103C0A6F104C0A7F1050E056EA30E3D
:10E85800066E8B0E076E3E0E086E8CC115F08DC1CC
:10E8680016F08EC117F08FC118F0A4C111F0A5C120
:10E8780012F0A6C113F0A7C114F041EC53F011C077
:10E8880001F012C002F013C003F014C004F068ECE9
:10E8980055F001C054F102C055F103C056F104C04F
:10E8A80057F1AB0E056EAA0E066EAA0E076E3E0E47
:10E8B800086E8CC115F08DC116F08EC117F08FC18E
:10E8C80018F054C111F055C112F056C113F057C1D8
:10E8D80014F041EC53F011C001F012C002F013C063
:10E8E80003F014C004F068EC55F001C048F102C010
:10E8F80049F103C04AF104C04BF1B70E056E6D0E25
:10E90800066EDB0E076E3E0E086E8CC115F08DC1CB
:10E9180016F08EC117F08FC118F048C111F049C127
:10E9280012F04AC113F04BC114F041EC53F011C07E
:10E9380001F012C002F013C003F014C004F068EC38
:10E9480055F001C038F102C039F103C03AF104C0F2
:10E958003BF19A0E056E990E066E190E076E3F0E64
