:020000040000FA
:04000000FEEF7FF0A0
:10EDDC0012001200120001C0AEF002C0AFF012001F
:10EDEC0001C0B2F002C0B3F0120001C0B0F002C01A
:10EDFC00B1F01200026E02502FEC77F012003CECD6
:10EE0C0077F064EC78F023EC77F0C0EC77F012003C
:10EE1C0000EE60F0280EEE6AE806FDE15F6A000184
:10EE2C008CEF7BF03901A6B51EEF77F021EF77F070
:10EE3C00010E22EF77F0000E1200620E3901D96F2D
:10EE4C00000EDB6F000EDD6F020EDF6F000EDE6F4B
:10EE5C001200016E3901A6A736EF77F038EF77F084
:10EE6C0030EF77F0600007F0D2FD1200000E390190
:10EE7C00C06F000EC16F000EC26F000EC36F000E8C
:10EE8C00C46F000EC56F000EC66F000EC76F120068
:10EE9C008A0E5D6E000E5E6E000E536E000E546E8A
:10EEAC0088C055F089C056F05D0E576E000E586E36
:10EEBC00EEEC77F0120001C003F002C004F069EF31
:10EECC0077F0014A022A600007F0D9FF60000BF0CE
:10EEDC00DAFFDF50D8A475EF77F077EF77F067EFB4
:10EEEC0077F00350015C016E04500258026E120060
:10EEFC0014BE8BEF77F0145006E11304D8B089EFF1
:10EF0C0077F08BEF77F099EF77F013C015F014C012
:10EF1C0016F0151E161E154A162A15C013F016C02B
:10EF2C0014F09DEF77F013C013F014C014F012001E
:10EF3C00000E126E000E116EAFEF77F010C003F0E2
:10EF4C00046A0EC005F00FC006F0AEEC78F0114A62
:10EF5C00122A11500C24D96E12500D20DA6EDF508B
:10EF6C00106E1050D8A4BDEF77F0BFEF77F0A4EF80
:10EF7C0077F01200000E3D01D46F000ED66F000E1C
:10EF8C00D86FB00EDA6F800EDB6F000EDC6F190ECF
:10EF9C00DD6F000EDE6F000EDF6F000EE06F000EF7
:10EFAC00E16F000EE26FDE0E016EED0E026EF6ECFE
:10EFBC0076F0E00E016EED0E026EFBEC76F0DC0EE0
:10EFCC00016EED0E026EF1EC76F0000E5F6E12002B
:10EFDC0055C059F056C05AF0000E0001616F000E7A
:10EFEC00606F0CEF78F053C042F054C043F0590EF0
:10EFFC00446E000E456E57C046F058C047F075EC95
:10F00C007CF042500001602743506123600067F19F
:10F01C00F6FF60006BF1F7FFF86A0800F550000985
:10F02C00D8A41BEF78F01DEF78F0F9EF77F060C003
:10F03C0053F061C054F01200F20E0001886FFF0E05
:10F04C00896F000E8B6F1B0E8A6F000E8D6F5B0E1F
:10F05C008C6F000E8F6F320E8E6F000E916F4A0EFA
:10F06C00906F4EEC77F0F20E0001886FFF0E896FF7
:10F07C00000E8B6F1B0E8A6F000E8D6F5B0E8C6FEC
:10F08C00000E8F6F330E8E6F000E916F4A0E906FC5
:10F09C004EEC77F0F40E0001886FFF0E896F000EB6
:10F0AC008B6F1B0E8A6F000E8D6F5B0E8C6F000EBC
:10F0BC008F6F480E8E6F4EEC77F01200000EBE6E06
:10F0CC00000EBD6E000EBA6E000EBB6E000EBC6E56
:10F0DC00070EC66EC268BF0EC36EC468C5683A011F
:10F0EC00706960697F0E506F070E806F4069000E6B
:10F0FC00716F000E816F000E516F000E416F000E8C
:10F10C00616F000E5A6F000E5B6F000E6A6F000E7F
:10F11C006B6F000E7A6F000E7B6F000E826F000E0D
:10F12C00426F000E526F000E626F000E726F4369D9
:10F13C00536963697369070E836F44695469646921
:10F14C0074690F0E846F0F0EE86F160E0E6F12009F
:10F15C0005500610D8B4B5EF78F0B7EF78F0C0EFE3
:10F16C0078F005500610D8A4BEEF78F0C0EF78F018
:10F17C00C5EF78F0035000EC77F0F8EF78F020EE64
:10F18C0004F00550D9260650DA22DE50DE10D8B431
:10F19C00D2EF78F0D4EF78F0EFEF78F020EE04F0C7
:10F1AC000550D9260650DA2210EE02F00550E12661
:10F1BC000650E222DE50E65CE650800A0B6EDE5012
:10F1CC00800A0B58D8B0EDEF78F0EFEF78F0F8EF4D
:10F1DC0078F020EE02F00550D9260650DA22DE2A0D
:10F1EC00000EDD2212003901A6A5FFEF78F001EF29
:10F1FC0079F0F9EF78F0000E5F6E3D01E1A709EFB1
:10F20C0079F00BEF79F019EF79F05F8202D819EFF2
:10F21C0079F00500FA6E0001B251FD6EB351FE6E2D
:10F22C00FF6AFA5012003D01E1A31FEF79F021EFC4
:10F23C0079F02FEF79F05F8402D82FEF79F0050089
:10F24C00FA6E0001B051FD6EB151FE6EFF6AFA50BC
:10F25C0012005F50D8B435EF79F037EF79F044EF06
:10F26C0079F002D844EF79F00500FA6E0001AE5146
:10F27C00FD6EAF51FE6EFF6AFA5012003D01D05187
:10F28C001200000166A14DEF79F04FEF79F059EFC4
:10F29C0079F015C00CF016C00DF013C00EF014C0B0
:10F2AC000FF09EEC77F018BE5EEF79F060EF79F01E
:10F2BC0066EF79F017C01CF018C01DF06AEF79F0FA
:10F2CC00000E1D6E000E1C6E000E1B6E000E1A6ED4
:10F2DC007CEF79F0000E046E200E036E13C005F067
:10F2EC0014C006F0AEEC78F01A4A1B2A1C501A5CBB
:10F2FC001B50800A196E1D50800A1958D8A089EF2E
:10F30C0079F08BEF79F070EF79F0000166B191EF45
:10F31C0079F093EF79F09DEF79F015C00CF016C0F1
:10F32C000DF013C00EF014C00FF09EEC77F015C06A
:10F33C0001F016C002F061EC77F01C500124136E42
:10F34C001D500220146E1200000162516311D8A4EA
:10F35C00B2EF79F0B4EF79F0BAEF79F062C012F055
:10F36C0063C013F0C0EF79F0FF0E6225126EFF0E32
:10F37C006321136E66A1C5EF79F0C7EF79F0D0EF7A
:10F38C0079F00EC003F0046A0CC005F00DC006F055
:10F39C00AEEC78F013BED5EF79F0D7EF79F0D9EF6A
:10F3AC0079F0DDEF79F0000E136E000E126E000E88
:10F3BC00116E000E106EEFEF79F0000E046E200E41
:10F3CC00036E0CC005F00DC006F0AEEC78F0104AE0
:10F3DC00112A1250105C1150800A0F6E1350800AC3
:10F3EC000F58D8A0FCEF79F0FEEF79F0E3EF79F04D
:10F3FC00000166B104EF7AF006EF7AF00FEF7AF0C5
:10F40C000EC003F0046A0CC005F00DC006F0AEECA3
:10F41C0078F0010E10240C6E000E11200D6E1200EF
:10F42C00000E126E08BE1FEF7AF01DEF7AF031EF6E
:10F43C007AF0081E071E061E051E041E031E021E61
:10F44C00016C000E0222032204220522062207224E
:10F45C000822010E126E10BE38EF7AF036EF7AF0F9
:10F46C0048EF7AF0101E0F1E0E1E0D1E0C1E0B1EEA
:10F47C000A1E096C000E0A220B220C220D220E22EF
:10F48C000F22102209500A100B100C100D100E1028
:10F49C000F101010D8B455EF7AF057EF7AF09FEFA9
:10F4AC007AF0010E116E65EF7AF0D89009360A36B3
:10F4BC000B360C360D360E360F361036112A10AEB2
:10F4CC006AEF7AF06CEF7AF05BEF7AF00950015C3E
:10F4DC000A5002580B5003580C5004580D50055844
:10F4EC000E5006580F50075810500858D8A081EFEE
:10F4FC007AF083EF7AF093EF7AF00950015E0A50BC
:10F50C00025A0B50035A0C50045A0D50055A0E5007
:10F51C00065A0F50075A1050085AD89010320F3212
:10F52C000E320D320C320B320A320932112E6CEFC4
:10F53C007AF01250D8B4A5EF7AF0A7EF7AF0B7EFC3
:10F54C007AF0081E071E061E051E041E031E021E50
:10F55C00016C000E0222032204220522062207223D
:10F56C00082201C001F002C002F003C003F004C085
:10F57C0004F005C005F006C006F007C007F008C08F
:10F58C0008F01200000E126E10BED1EF7AF0CFEF21
:10F59C007AF0E3EF7AF0101E0F1E0E1E0D1E0C1EDD
:10F5AC000B1E0A1E096C000E0A220B220C220D22C5
:10F5BC000E220F221022010E126E08BEEAEF7AF014
:10F5CC00E8EF7AF0FCEF7AF0081E071E061E051E07
:10F5DC00041E031E021E016C000E022203220422D2
:10F5EC000522062207220822010E121A20EE13F021
:10F5FC00070EDE6AE806FDE209500A100B100C102B
:10F60C000D100E100F101010D8B40FEF7BF011EF7F
:10F61C007BF063EF7BF0010E116E1FEF7BF0D89047
:10F62C0009360A360B360C360D360E360F361036BA
:10F63C00112A10AE24EF7BF026EF7BF015EF7BF058
:10F64C00D890133614361536163617361836193632
:10F65C001A360950015C0A5002580B5003580C50D2
:10F66C0004580D5005580E5006580F50075810509E
:10F67C000858D8A044EF7BF046EF7BF057EF7BF0B7
:10F68C000950015E0A50025A0B50035A0C50045A8E
:10F69C000D50055A0E50065A0F50075A1050085A62
:10F6AC001380D89010320F320E320D320C320B32D6
:10F6BC000A320932112E26EF7BF01250D8B469EFC2
:10F6CC007BF06BEF7BF07BEF7BF01A1E191E181E84
:10F6DC00171E161E151E141E136C000E1422152256
:10F6EC0016221722182219221A2213C001F014C054
:10F6FC0002F015C003F016C004F017C005F018C0D6
:10F70C0006F019C007F01AC008F0120005EC77F0EB
:10F71C004C0E0001886FFF0E896F4EEC77F0000ED7
:10F72C000001AD6F800EAC6F090E886FFF0E896FF4
:10F73C00ACC08AF0ADC08BF0ACC08CF0ADC08DF01D
:10F74C00100EAC258E6F000EAD218F6F010EAC2507
:10F75C00906F000EAD21916F200EAC25926F000EB4
:10F76C00AD21936F200EAC25946F000EAD21956FDB
:10F77C00300EAC25966F000EAD21976F300EAC2578
:10F78C00986F000EAD21996F400EAC259A6F000E4C
:10F79C00AD219B6F400EAC259C6F000EAD219D6F73
:10F7AC00500EAC259E6F000EAD219F6F500EAC25F8
:10F7BC00A06F000EAD21A16F600EAC25A26F000EE4
:10F7CC00AD21A36F600EAC25A46F000EAD21A56F0B
:10F7DC00700EAC25A66F000EAD21A76F700EAC2578
:10F7EC00A86F000EAD21A96F4EEC77F00001AC4B69
:10F7FC00AD2BADBF0BEF7CF0AD5109E1900EAC5DC4
:10F80C00D8A00BEF7CF00DEF7CF09AEF7BF0650E3F
:10F81C00886FFE0E896F4EEC77F018EC77F00009CC
:10F82C00D8B41BEF7CF01DEF7CF013EF7CF0F9ECFF
:10F83C0078F00001AA6FAA51AC6FAD6B55EF7CF05C
:10F84C00E30E886FFF0E896F000E8B6F070E8A6FA9
:10F85C004EEC77F013EF7CF0D30E886FFF0E896FB0
:10F86C004EEC77F013EF7CF0BC0E886FFF0E896FB7
:10F87C004EEC77F013EF7CF022EC78F0670E000181
:10F88C00886FFE0E896F4EEC77F013EF7CF08F0EC5
:10F89C00886FFF0E896F4EEC77F013EF7CF0ACC0E5
:10F8AC00AAF0ADC0ABF0AB51000AD8B460EF7CF05D
:10F8BC004DEF7CF0AA51300AD8B426EF7CF0010A47
:10F8CC00D8B432EF7CF0030AD8B43AEF7CF0010ADA
:10F8DC00D8B442EF7CF04DEF7CF0FEEF7FF060008F
:10F8EC0013F1D9FF600017F1DAFF6F007BFFF6FF11
:10F8FC006F0077FFF7FFF86A0800F550250AD8A4C7
:10F90C008AEF7CF08CEF7CF09DEF7DF0600013F1C2
:10F91C00D9FF600017F1DAFFDE2A000EDD22000E9F
:10F92C000001636F000E626F62C066F063C067F027
:10F93C0064696569600013F1D9FF600017F1DAFFA3
:10F94C006F007BFFF6FF6F0077FFF7FFF86A080088
:10F95C00F550630AD8A4B5EF7CF0B7EF7CF0E6EF76
:10F96C007CF0600013F1D9FF600017F1DAFFDE2A9A
:10F97C00000EDD2260001BF1D9FF60001FF1DAFFE1
:10F98C006F007CFF48F0020EDE266F007CFF49F012
:10F99C00000EDD22600023F1D9FF600027F1DAFFB1
:10F9AC00DF50526E42C00CF043C00DF052C00EF04E
:10F9BC00AAEC79F00CC042F00DC043F0BFEF7DF023
:10F9CC00600013F1D9FF600017F1DAFF6F007BFFC5
:10F9DC00F6FF6F0077FFF7FFF86A0800F550640A2E
:10F9EC00D8B4FBEF7CF0FDEF7CF014EF7DF0600001
:10F9FC0013F1D9FF600017F1DAFF6F007BFFF6FF00
:10FA0C006F0077FFF7FFF86A0800F550690AD8A471
:10FA1C0012EF7DF014EF7DF05EEF7DF0600013F1DE
:10FA2C00D9FF600017F1DAFFDE2A000EDD2260003C
:10FA3C001BF1D9FF60001FF1DAFF6F007CFF48F06B
:10FA4C00020EDE266F007CFF49F0000EDD22600006
:10FA5C0023F1D9FF600027F1DAFF6F0078FF4AF03D
:10FA6C006F0074FF4BF0000E4BBEFF0E4C6E4D6ED4
:10FA7C004E6E4F6E506E516E42C01EF043C01FF062
:10FA8C004AC020F04BC021F04CC022F04DC023F0F6
:10FA9C004EC024F04FC025F050C026F051C027F0C6
:10FAAC00C0EC7DF01EC042F01FC043F0BFEF7DF0F4
:10FABC00600013F1D9FF600017F1DAFF6F007BFFD4
:10FACC00F6FF6F0077FFF7FFF86A0800F550250A7C
:10FADC00D8A473EF7DF075EF7DF08EEF7DF06000B4
:10FAEC0013F1D9FF600017F1DAFFDE2A000EDD22D8
:10FAFC00000E046E250E036E42C005F043C006F0E6
:10FB0C00AEEC78F0000E436E010E426EBFEF7DF04E
:10FB1C00600013F1D9FF600017F1DAFFDE2A000E46
:10FB2C00DD22000E436E000E426EBFEF7DF06000D2
:10FB3C0013F1D9FF600017F1DAFF6F007BFFF6FFBE
:10FB4C006F0077FFF7FFF86A0800F550036E046A40
:10FB5C0042C005F043C006F0AEEC78F0600013F143
:10FB6C00D9FF600017F1DAFFDE2A000EDD2288EFE4
:10FB7C007DF0120020C038F021C039F022C03AF0DC
:10FB8C0023C03BF024C03CF025C03DF026C03EF025
:10FB9C0027C03FF03FBED5EF7DF0D8EF7DF0010ED2
:10FBAC00D9EF7DF0000E366E376A36503710D8B468
:10FBBC00E2EF7DF0E4EF7DF0F4EF7DF03F1E3E1EB2
:10FBCC003D1E3C1E3B1E3A1E391E386C000E39225F
:10FBDC003A223B223C223D223E223F22000165BFBD
:10FBEC00FAEF7DF0FCEF7DF0FDEF7DF0669365BFE5
:10FBFC000AEF7EF0655106E16405D8B008EF7EF09F
:10FC0C000AEF7EF010EF7EF0000E336E010E326EB6
:10FC1C0014EF7EF064C032F065C033F062C034F093
:10FC2C0063C035F036503710D8A41FEF7EF021EFAB
:10FC3C007EF028EF7EF066A526EF7EF028EF7EF0B2
:10FC4C002BEF7EF03406D8A03506000E416E1F0E49
:10FC5C00406E000E876FAFEF7EF04006D8A04106D5
:10FC6C00680E4024D96E000E4120DA6E38C001F0C7
:10FC7C0039C002F03AC003F03BC004F03CC005F0C0
:10FC8C003DC006F03EC007F03FC008F00A0E096EFA
:10FC9C00000E0A6E000E0B6E000E0C6E000E0D6E3A
:10FCAC00000E0E6E000E0F6E000E106E16EC7AF03B
:10FCBC0001C028F002C029F003C02AF004C02BF0C8
:10FCCC0005C02CF006C02DF007C02EF008C02FF098
:10FCDC0028C013F02AC014F07EEC77F01350300FCC
:10FCEC00DF6E3206D8A033063406D8A0350638C0ED
:10FCFC0001F039C002F03AC003F03BC004F03CC044
:10FD0C0005F03DC006F03EC007F03FC008F00A0EFB
:10FD1C00096E000E0A6E000E0B6E000E0C6E000EBD
:10FD2C000D6E000E0E6E000E0F6E000E106EC8ECF7
:10FD3C007AF001C038F002C039F003C03AF004C0C8
:10FD4C003BF005C03CF006C03DF007C03EF008C0DB
:10FD5C003FF041BEBAEF7EF0415008E14004D8A01C
:10FD6C00BAEF7EF0BCEF7EF0EDEF7EF0385039103C
:10FD7C003A103B103C103D103E103F10D8A4C9EF78
:10FD8C007EF0CBEF7EF033EF7EF033BED8EF7EF01B
:10FD9C00335006E13204D8B0D6EF7EF0D8EF7EF0C7
:10FDAC0033EF7EF035BEE3EF7EF0355008E13404DE
:10FDBC00D8A0E3EF7EF0E5EF7EF0EDEF7EF00001F2
:10FDCC0066B3EBEF7EF0EDEF7EF033EF7EF0365066
:10FDDC003710D8A4F4EF7EF0F6EF7EF0FEEF7EF055
:10FDEC00000166A5FCEF7EF0FEEF7EF01DEF7FF0CC
:10FDFC004006D8A0410636503710D8A408EF7FF043
:10FE0C000AEF7FF010EF7FF0000E316E2B0E306E8C
:10FE1C0014EF7FF0000E316E2D0E306E680E402404
:10FE2C00D96E000E4120DA6E6000C3F0DFFF1EC0F9
:10FE3C0013F01FC014F0680E4024156E000E412004
:10FE4C00166E34C017F035C018F047EC79F013C0BB
:10FE5C001EF014C01FF01200000A0D57656C636F82
:10FE6C006D6520746F2074686520506879736963C0
:10FE7C00732031363030206D656E752E200A0D20C2
:10FE8C0053656C6563742066726F6D2074686520B1
:10FE9C00666F6C6C6F77696E673A0A0D302D205067
:10FEAC006C6179207468652042656C6C20536F75A9
:10FEBC006E640A0D312D426C696E6B20616E204CA4
:10FECC0045440A0D322D4D656173757265206120B4
:10FEDC00566F6C746167650A0D332D436C656172E6
:10FEEC002073637265656E20616E6420726570723A
:10FEFC00696E74206D656E750A0D203E000A0D0A40
:10FF0C000D202564202563200920256420256320ED
:10FF1C0009202564202563200920256420256320E1
:10FF2C0009202564202563200920256420256320D1
:10FF3C0009202564202563200920256420256300E1
:10FF4C000A0D0A0D2023436861722009202343689F
:10FF5C0061722009202343686172200920234368C1
:10FF6C0061722009202343686172200920234368B1
:10FF7C0061722009202343686172200920234368A1
:10FF8C0061720054686174206973206E6F74206113
:10FF9C002076616C69642073656C656374696F6E3F
:10FFAC002E2054727920616761696E2E0A0D3E0015
:10FFBC004D6561737572696E67206120566F6C7444
:10FFCC006167650A0D3E00426C696E6420616E20AB
:10FFDC004C45440A0D3E00534F554E442120256399
:10FFEC00200A0D3E20002563256325632563000050
:04FFFC000EEF77F09D
:020000040020DA
:10000000FF0FFF0FFF0FFF0FFF0FFF0FFF0FFF0F80
:020000040030CA
:0A000000ECFEF7FF9FFFFFFFFFFF7C
:00000001FF
