:020000040000FA
:04000000FEEF7FF0A0
:10100000000A0D0A0D54686520646966666572659C
:101010006E6365206265747765656E202564206D5A
:101020006F6E7468202564206461792025642061D6
:101030006E64202564206D6F6E74682025642064C2
:10104000617920256420697320257520000A0D2010
:1010500054686520256420646179206F66202564CA
:10106000206D6F6E746820697320746865206461F8
:101070007920256420696E20746865207965617225
:10108000202564000A0D0A0D2564000020C038F0F8
:1010900021C039F022C03AF023C03BF024C03CF01C
:1010A00025C03DF026C03EF027C03FF03FBE5BEFBD
:1010B00008F05EEF08F0010E5FEF08F0000E366EEC
:1010C000376A36503710D8B468EF08F06AEF08F086
:1010D0007AEF08F03F1E3E1E3D1E3C1E3B1E3A1E90
:1010E000391E386C000E39223A223B223C223D2226
:1010F0003E223F2200017FBF80EF08F082EF08F020
:1011000083EF08F05E927FBF90EF08F07F5106E119
:101110007E05D8B08EEF08F090EF08F096EF08F05B
:10112000000E336E010E326E9AEF08F07EC032F080
:101130007FC033F07CC034F07DC035F036503710BE
:10114000D8A4A5EF08F0A7EF08F0AEEF08F05EA472
:10115000ACEF08F0AEEF08F0B1EF08F03406D8A01D
:101160003506000E416E1F0E406E000EA06F35EF6B
:1011700009F04006D8A04106810E4024D96E000E29
:101180004120DA6E38C001F039C002F03AC003F0F5
:101190003BC004F03CC005F03DC006F03EC007F087
:1011A0003FC008F00A0E096E000E0A6E000E0B6EAC
:1011B000000E0C6E000E0D6E000E0E6E000E0F6E09
:1011C000000E106EE1EC0CF001C028F002C029F016
:1011D00003C02AF004C02BF005C02CF006C02DF08F
:1011E00007C02EF008C02FF028C013F02AC014F05A
:1011F0002FEC12F01350300FDF6E3206D8A03306FA
:101200003406D8A0350638C001F039C002F03AC023
:1012100003F03BC004F03CC005F03DC006F03EC00A
:1012200007F03FC008F00A0E096E000E0A6E000EAD
:101230000B6E000E0C6E000E0D6E000E0E6E000E8C
:101240000F6E000E106E1DEC0CF001C038F002C0E5
:1012500039F003C03AF004C03BF005C03CF006C0D2
:101260003DF007C03EF008C03FF041BE40EF09F03E
:10127000415008E14004D8A040EF09F042EF09F0E6
:1012800072EF09F0385039103A103B103C103D1005
:101290003E103F10D8A44FEF09F051EF09F0B9EF1D
:1012A00008F033BE5EEF09F0335006E13204D8B0E7
:1012B0005CEF09F05EEF09F0B9EF08F035BE69EFB9
:1012C00009F0355008E13404D8A069EF09F06BEF5C
:1012D00009F072EF09F05EB270EF09F072EF09F0F9
:1012E000B9EF08F036503710D8A479EF09F07BEF4A
:1012F00009F082EF09F05EA480EF09F082EF09F0B7
:10130000A1EF09F04006D8A0410636503710D8A406
:101310008CEF09F08EEF09F094EF09F0000E316EBA
:101320002B0E306E98EF09F0000E316E2D0E306EE0
:10133000810E4024D96E000E4120DA6E6000C3F0A9
:10134000DFFF1EC013F01FC014F0810E4024156E85
:10135000000E4120166E34C017F035C018F018EC9E
:1013600010F013C01EF014C01FF01200600013F143
:10137000D9FF600017F1DAFF6F007BFFF6FF6F0007
:1013800077FFF7FFF86A0800F550250AD8A4CBEFDD
:1013900009F0CDEF09F0FAEF0AF0600013F1D9FF80
:1013A000600017F1DAFFDE2A000EDD22000E0001D8
:1013B0007D6F000E7C6F7CC05EF07DC05FF07E694B
:1013C0007F69600013F1D9FF600017F1DAFF6F0049
:1013D0007BFFF6FF6F0077FFF7FFF86A0800F55014
:1013E000640AD8B4F6EF09F0F8EF09F00FEF0AF04D
:1013F000600013F1D9FF600017F1DAFF6F007BFF87
:10140000F6FF6F0077FFF7FFF86A0800F550690AEA
:10141000D8A40DEF0AF00FEF0AF059EF0AF06000C0
:1014200013F1D9FF600017F1DAFFDE2A000EDD228A
:1014300060001BF1D9FF60001FF1DAFF6F007CFF35
:1014400048F0020EDE266F007CFF49F0000EDD2220
:10145000600023F1D9FF600027F1DAFF6F0078FF09
:101460004CF06F0074FF4DF0000E4DBEFF0E4E6E3F
:101470004F6E506E516E526E536E42C01EF043C09E
:101480001FF04CC020F04DC021F04EC022F04FC0E4
:1014900023F050C024F051C025F052C026F053C0B4
:1014A00027F046EC08F01EC042F01FC043F01CEFCE
:1014B0000BF0600013F1D9FF600017F1DAFF6F0045
:1014C0007BFFF6FF6F0077FFF7FFF86A0800F55023
:1014D000750AD8A46EEF0AF070EF0AF0BBEF0AF0BD
:1014E000600013F1D9FF600017F1DAFFDE2A000E69
:1014F000DD2260001BF1D9FF60001FF1DAFF6F00F1
:101500007CFF48F0020EDE266F007CFF49F0000EE3
:10151000DD22600023F1D9FF600027F1DAFF6F00C0
:1015200078FF4AF06F0074FF4BF04AC054F04BC094
:1015300055F0566A576A586A596A5A6A5B6A42C0D5
:101540001EF043C01FF054C020F055C021F056C01B
:1015500022F057C023F058C024F059C025F05AC0DB
:1015600026F05BC027F01DEC0BF01EC042F01FC040
:1015700043F01CEF0BF0600013F1D9FF600017F18E
:10158000DAFF6F007BFFF6FF6F0077FFF7FFF86A67
:101590000800F550250AD8A4D0EF0AF0D2EF0AF0DF
:1015A000EBEF0AF0600013F1D9FF600017F1DAFFEA
:1015B000DE2A000EDD22000E046E250E036E42C0F0
:1015C00005F043C006F0D1EC10F0000E436E010EA2
:1015D000426E1CEF0BF0600013F1D9FF600017F1B1
:1015E000DAFFDE2A000EDD22000E436E000E426E90
:1015F0001CEF0BF0600013F1D9FF600017F1DAFF68
:101600006F007BFFF6FF6F0077FFF7FFF86A0800B7
:10161000F550036E046A42C005F043C006F0D1ECF9
:1016200010F0600013F1D9FF600017F1DAFFDE2A35
:10163000000EDD22E5EF0AF0120000017FBF23EF6C
:101640000BF025EF0BF026EF0BF05E927FBF33EF30
:101650000BF07F5106E17E05D8B031EF0BF033EF90
:101660000BF039EF0BF0000E316E010E306E3DEFD6
:101670000BF07EC030F07FC031F07CC032F07DC016
:1016800033F020C034F021C035F022C036F023C042
:1016900037F024C038F025C039F026C03AF027C012
:1016A0003BF0000E3D6E1F0E3C6E000EA06FCFEFA4
:1016B0000BF03C06D8A03D06810E3C24D96E000EEE
:1016C0003D20DA6E34C001F035C002F036C003F0C0
:1016D00037C004F038C005F039C006F03AC007F052
:1016E0003BC008F00A0E096E000E0A6E000E0B6E6B
:1016F000000E0C6E000E0D6E000E0E6E000E0F6EC4
:10170000000E106EB0EC0FF001C028F002C029F0FE
:1017100003C02AF004C02BF005C02CF006C02DF049
:1017200007C02EF008C02FF02850300FDF6E3006B3
:10173000D8A031063206D8A0330634C001F035C037
:1017400002F036C003F037C004F038C005F039C0ED
:1017500006F03AC007F03BC008F00A0E096E000E12
:101760000A6E000E0B6E000E0C6E000E0D6E000E5B
:101770000E6E000E0F6E000E106E38EC0FF001C0F2
:1017800034F002C035F003C036F004C037F005C0B5
:1017900038F006C039F007C03AF008C03BF03C50C2
:1017A0003D10D8B4D6EF0BF0D8EF0BF008EF0CF0EB
:1017B0003450351036103710381039103A103B10AD
:1017C000D8A4E5EF0BF0E7EF0BF059EF0BF031BECB
:1017D000F4EF0BF0315006E13004D8B0F2EF0BF02B
:1017E000F4EF0BF059EF0BF033BEFFEF0BF033507B
:1017F00008E13204D8A0FFEF0BF001EF0CF008EF86
:101800000CF05EB206EF0CF008EF0CF059EF0BF0A5
:101810001EC013F01FC014F0810E3C24156E000E84
:101820003D20166E32C017F033C018F018EC10F0DF
:1018300013C01EF014C01FF01200000E126E10BE76
:1018400026EF0CF024EF0CF038EF0CF0101E0F1EFA
:101850000E1E0D1E0C1E0B1E0A1E096C000E0A2207
:101860000B220C220D220E220F221022010E126ECC
:1018700008BE3FEF0CF03DEF0CF051EF0CF0081EEE
:10188000071E061E051E041E031E021E016C000E0E
:101890000222032204220522062207220822010E28
:1018A000121A20EE13F0070EDE6AE806FDE2095078
:1018B0000A100B100C100D100E100F101010D8B4D1
:1018C00064EF0CF066EF0CF0B8EF0CF0010E116E47
:1018D00074EF0CF0D89009360A360B360C360D36FC
:1018E0000E360F361036112A10AE79EF0CF07BEF62
:1018F0000CF06AEF0CF0D890133614361536163605
:101900001736183619361A360950015C0A50025833
:101910000B5003580C5004580D5005580E500658E3
:101920000F50075810500858D8A099EF0CF09BEFB3
:101930000CF0ACEF0CF00950015E0A50025A0B504B
:10194000035A0C50045A0D50055A0E50065A0F50A7
:10195000075A1050085A1380D89010320F320E32A6
:101960000D320C320B320A320932112E7BEF0CF0A1
:101970001250D8B4BEEF0CF0C0EF0CF0D0EF0CF06A
:101980001A1E191E181E171E161E151E141E136C65
:10199000000E1422152216221722182219221A22AA
:1019A00013C001F014C002F015C003F016C004F01B
:1019B00017C005F018C006F019C007F01AC008F0EB
:1019C0001200000E126E08BEEAEF0CF0E8EF0CF009
:1019D000FCEF0CF0081E071E061E051E041E031E4B
:1019E000021E016C000E022203220422052206229E
:1019F00007220822010E126E10BE03EF0DF001EF58
:101A00000DF013EF0DF0101E0F1E0E1E0D1E0C1EFE
:101A10000B1E0A1E096C000E0A220B220C220D223C
:101A20000E220F22102209500A100B100C100D105C
:101A30000E100F101010D8B420EF0DF022EF0DF0A3
:101A40006AEF0DF0010E116E30EF0DF0D8900936EF
:101A50000A360B360C360D360E360F361036112A76
:101A600010AE35EF0DF037EF0DF026EF0DF0095009
:101A7000015C0A5002580B5003580C5004580D508A
:101A800005580E5006580F50075810500858D8A047
:101A90004CEF0DF04EEF0DF05EEF0DF00950015ED2
:101AA0000A50025A0B50035A0C50045A0D50055A52
:101AB0000E50065A0F50075A1050085AD89010323C
:101AC0000F320E320D320C320B320A320932112E25
:101AD00037EF0DF01250D8B470EF0DF072EF0DF03B
:101AE00082EF0DF0081E071E061E051E041E031EB3
:101AF000021E016C000E022203220422052206228D
:101B00000722082201C001F002C002F003C003F066
:101B100004C004F005C005F006C006F007C007F0D9
:101B200008C008F01200000E4D6E000E4C6E000E44
:101B30004F6E000E4E6E3C50361809E13D5037187E
:101B4000D8B4A5EF0DF0A7EF0DF0EAEF0DF03C5083
:101B5000365C3750800A426E3D50800A4258D8B0F9
:101B6000B4EF0DF0B6EF0DF0EAEF0DF036C054F023
:101B700037C055F0DBEF0DF054C007F055C008F04A
:101B800066EC11F007C044F008C045F0440445106D
:101B9000D8A4CDEF0DF0CFEF0DF0D5EF0DF06E0E18
:101BA0004C26010E4D22D9EF0DF06D0E4E26010E82
:101BB0004F22544A552A3C50545C5550800A426E7C
:101BC0003D50800A4258D8A0E8EF0DF0EAEF0DF042
:101BD000BCEF0DF036C007F037C008F066EC11F02E
:101BE00036C00DF037C00EF038C00FF039C010F01D
:101BF0003AC011F03BC012F02DEC0EF00DC050F0C9
:101C00000EC051F03CC007F03DC008F066EC11F08A
:101C10003CC00DF03DC00EF03EC00FF03FC010F0D4
:101C200040C011F041C012F02DEC0EF00DC052F08A
:101C30000EC053F05050525C4A6E515053584B6E88
:101C40004E504C24426E4F504D20436E4A50422419
:101C5000366E4B504320376E12000DC007F00EC099
:101C600008F066EC11F007C02EF008C02FF02E50DF
:101C70002F10D8A43EEF0EF040EF0EF046EF0EF01E
:101C8000000E316E1C0E306E4AEF0EF0000E316EFB
:101C90001D0E306E20EE14F0190EDE6AE806FDE22D
:101CA000000E156E000E146E000E176E1F0E166ECF
:101CB00030C018F031C019F0000E1B6E1F0E1A6EE6
:101CC000000E1D6E1E0E1C6E000E1F6E1F0E1E6E71
:101CD000000E216E1E0E206E000E236E1F0E226E51
:101CE000000E256E1F0E246E000E276E1E0E266E31
:101CF000000E296E1F0E286E000E2B6E1E0E2A6E11
:101D0000000E2D6E1F0E2C6E000E336E000E326E06
:101D1000000E356E000E346E9DEF0EF0D890343408
:101D2000D96E3534DA6E140ED926000EDA22DE5062
:101D30003226DD503322344A352A0F50345C355078
:101D4000800A136E1050800A1358D8A0AAEF0EF024
:101D5000ACEF0EF08EEF0EF0115032240D6E1250DB
:101D600033200E6E1200B6EC12F0070E086EE40E71
:101D7000076E66EC11F007C0BBF008C0BCF0840E23
:101D80000001A76F100EA86FBBC0A9F0BCC0AAF0DD
:101D90006CEC12F0070E0E6EE40E0D6E000E106E5F
:101DA000060E0F6E000E126E150E116E2DEC0EF05B
:101DB0000DC0BDF00EC0BEF04D0E0001A76F100E9D
:101DC000A86F000EAA6F150EA96F000EAC6F060E5D
:101DD000AB6FBDC0ADF0BEC0AEF0070EB06FE40E8D
:101DE000AF6F6CEC12F0070E376E4B0E366E000EB6
:101DF000396E070E386E000E3B6E010E3A6E070EFE
:101E00003D6EE20E3C6E000E3F6E020E3E6E000E08
:101E1000416E050E406E93EC0DF036C0BFF037C03A
:101E2000C0F0010E0001A76F100EA86F070EAA6F79
:101E30004B0EA96F000EAC6F070EAB6F000EAE6FAE
:101E4000010EAD6F070EB06FE20EAF6F000EB26FF6
:101E5000020EB16F000EB46F050EB36FBFC0B5F0C8
:101E6000C0C0B6F06CEC12F034EF0FF0FEEF7FF074
:101E700020EE11F0070EDE6AE806FDE209500A10B6
:101E80000B100C100D100E100F101010D8B44BEFDB
:101E90000FF04DEF0FF09FEF0FF0010E196E5BEF9B
:101EA0000FF0D89009360A360B360C360D360E3642
:101EB0000F361036192A10AE60EF0FF062EF0FF0F8
:101EC00051EF0FF0D89011361236133614361536FE
:101ED0001636173618360950015C0A5002580B5056
:101EE00003580C5004580D5005580E5006580F500A
:101EF000075810500858D8A080EF0FF082EF0FF06D
:101F000093EF0FF00950015E0A50025A0B50035A2A
:101F10000C50045A0D50055A0E50065A0F50075ACD
:101F20001050085A1180D89010320F320E320D32F4
:101F30000C320B320A320932192E62EF0FF011C047
:101F400001F012C002F013C003F014C004F015C079
:101F500005F016C006F017C007F018C008F0120010
:101F600009500A100B100C100D100E100F1010104D
:101F7000D8B4BDEF0FF0BFEF0FF007EF10F0010E78
:101F8000116ECDEF0FF0D89009360A360B360C36AD
:101F90000D360E360F361036112A10AED2EF0FF076
:101FA000D4EF0FF0C3EF0FF00950015C0A50025854
:101FB0000B5003580C5004580D5005580E5006583D
:101FC0000F50075810500858D8A0E9EF0FF0EBEF6A
:101FD0000FF0FBEF0FF00950015E0A50025A0B5050
:101FE000035A0C50045A0D50055A0E50065A0F5001
:101FF000075A1050085AD89010320F320E320D3254
:102000000C320B320A320932112ED4EF0FF001C01C
:1020100001F002C002F003C003F004C004F005C0E8
:1020200005F006C006F007C007F008C008F012006F
:102030005EA01DEF10F01FEF10F029EF10F015C09B
:102040000CF016C00DF013C00EF014C00FF00DEC24
:1020500012F018BE2EEF10F030EF10F036EF10F047
:1020600017C01CF018C01DF03AEF10F0000E1D6EE6
:10207000000E1C6E000E1B6E000E1A6E4CEF10F060
:10208000000E046E200E036E13C005F014C006F09F
:10209000D1EC10F01A4A1B2A1C501A5C1B50800A03
:1020A000196E1D50800A1958D8A059EF10F05BEF37
:1020B00010F040EF10F05EB060EF10F062EF10F043
:1020C0006CEF10F015C00CF016C00DF013C00EF040
:1020D00014C00FF00DEC12F015C001F016C002F0A4
:1020E0004FEC12F01C500124136E1D500220146E90
:1020F0001200000E066E02BE82EF10F080EF10F0AC
:1021000088EF10F0016C021ED8B0022A010E066E94
:1021100004BE8FEF10F08DEF10F093EF10F0036C12
:10212000041ED8B0042A03500410D8B49AEF10F05B
:102130009CEF10F0C0EF10F0010E056EA4EF10F050
:10214000D89003360436052A04AEA9EF10F0ABEFA1
:1021500010F0A0EF10F00350015C04500258D8A01A
:10216000B4EF10F0B6EF10F0BAEF10F00350015ECC
:102170000450025AD89004320332052EABEF10F00F
:102180000650D8B4C6EF10F0C8EF10F0CCEF10F046
:10219000016C021ED8B0022A01C001F002C002F098
:1021A000120005500610D8B4D8EF10F0DAEF10F096
:1021B000E3EF10F005500610D8A4E1EF10F0E3EFC4
:1021C00010F0E8EF10F00350BFEC12F01BEF11F02D
:1021D00020EE04F00550D9260650DA22DE50DE103B
:1021E000D8B4F5EF10F0F7EF10F012EF11F020EE89
:1021F00004F00550D9260650DA2210EE02F0055000
:10220000E1260650E222DE50E65CE650800A0B6EC4
:10221000DE50800A0B58D8B010EF11F012EF11F019
:102220001BEF11F020EE02F00550D9260650DA22FD
:10223000DE2A000EDD221200000EBE6E000EBD6E04
:10224000000EBA6E000EBB6E000EBC6E070EC66EA0
:10225000C268BF0EC36EC468C5683A017069606920
:102260007F0E506F070E806F4069000E716F000E79
:10227000816F000E516F000E416F000E616F000EF6
:102280005A6F000E5B6F000E6A6F000E6B6F000ED0
:102290007A6F000E7B6F000E826F000E426F000E91
:1022A000526F000E626F000E726F4369536963696B
:1022B0007369070E836F44695469646974690F0E0A
:1022C000846F0F0EE86F160E0E6F1200030E0714C8
:1022D000096E000E08140A6E09500A10D8A473EF94
:1022E00011F075EF11F0A1EF11F007C001F008C077
:1022F00002F0000E046E640E036E79EC10F00150D3
:102300000210D8A486EF11F088EF11F09BEF11F0C6
:1023100007C001F008C002F0010E046E900E036EBB
:1023200079EC10F001500210D8A499EF11F09BEF56
:1023300011F0A1EF11F0000E0C6E010E0B6EA5EF67
:1023400011F0000E0C6E000E0B6E0BC007F00CC0EF
:1023500008F01200A3C05CF0A4C05DF0000E000104
:102360007B6F000E7A6FC8EF11F0A1C042F0A2C0DF
:1023700043F05C0E446E000E456EA5C046F0A6C04C
:1023800047F0B6EC09F0425000017A2743507B2316
:10239000600073F1F6FF600077F1F7FFF86A08005C
:1023A000F5500009D8A4D7EF11F0D9EF11F0B5EF2F
:1023B00011F07AC0A1F07BC0A2F01200000E3D0126
:1023C000D46F000ED66F000ED86FB00EDA6F800E8D
:1023D000DB6F000EDC6F190EDD6F000EDE6F000E7E
:1023E000DF6F000EE06F000EE16F000EE26F000E77
:1023F000016E000E026EC9EC12F0000E016E000EAE
:10240000026EC4EC12F0000E016E000E026ECEECF5
:1024100012F0000E0001806F1200000E126E000E0E
:10242000116E1EEF12F010C003F0046A0EC005F02A
:102430000FC006F0D1EC10F0114A122A11500C24F2
:10244000D96E12500D20DA6EDF50106E1050D8A4E5
:102450002CEF12F02EEF12F013EF12F0120014BE58
:102460003CEF12F0145006E11304D8B03AEF12F02A
:102470003CEF12F04AEF12F013C015F014C016F042
:10248000151E161E154A162A15C013F016C014F094
:102490004EEF12F013C013F014C014F0120001C07C
:1024A00003F002C004F057EF12F0014A022A600064
:1024B00007F0D9FF60000BF0DAFFDF50D8A463EF1C
:1024C00012F065EF12F055EF12F00350015C016E4F
:1024D00004500258026E1200A90E0001B96F000EDE
:1024E000BA6F000EA16F000EA26FA7C0A3F0A8C024
:1024F000A4F0B90EA56F000EA66FAAEC11F01200A1
:10250000000E3901C06F000EC16F000EC26F000EC9
:10251000C36F000EC46F000EC56F000EC66F000EB5
:10252000C76F1200016E3901A6A799EF12F09BEF59
:1025300012F093EF12F0600007F0D2FD1200620E6D
:102540003901D96F000EDB6F000EDD6F020EDF6FF9
:10255000000EDE6F120000EE60F0410EEE6AE8063B
:10256000FDE15F6A5E6A0001B3EF0EF080EC12F0ED
:102570001CEC11F09FEC12F0DEEC11F01200026E78
:10258000025092EC12F0120001C0C3F002C0C4F07D
:10259000120001C0C5F002C0C6F0120001C0C1F0B7
:0625A00002C0C2F01200AF
:04FFFC00ABEF12F065
:020000040020DA
:10000000FF0FFF0FFF0FFF0FFF0FFF0FFF0FFF0F80
:020000040030CA
:0A000000ECFEF7FF9FFFFFFFFFFF7C
:00000001FF
