:020000040000FA
:04000000FEEF7FF0A0
:1082820001C050F202C051F2120001C0FEF002C061
:10829200FFF0120001C052F202C053F21200026E4D
:1082A200025079EC41F01200620E3901D96F000ED2
:1082B200DB6F000EDD6F060EDF6F000EDE6F120049
:1082C2008C0E7E6E010E7D6EF30E7C6E3F015E5152
:1082D200FC0B01095E6F1200800E6E6E020E6D6E57
:1082E200400E6C6E3F015F51FC0B02095F6F120082
:1082F200016E3901A6A780EF41F082EF41F07AEFDB
:1083020041F0600007F0D2FD1200010EAE6E000EC9
:10831200AD6E000EAF6EF90EAB6E000EAA6E390195
:10832200A495F00EAC6E12000B0EA26E000EA16EA2
:10833200000EA36E040E9F6E000E9E6E3901A79171
:10834200F00EA06E1200C6EC41F091EC45F055EC37
:1083520041F061EC41F095EC41F06DEC41F086ECBE
:1083620041F07BEC43F01200FF0E056EFF0E066E2D
:10837200FF0E076E7F0E086E05C001F006C002F008
:1083820007C003F008C004F01200000E3901C06FEC
:10839200000EC16F000EC26F000EC36F000EC46FDD
:1083A200000EC56F000EC66F000EC76F1200DC0E06
:1083B2000001EE6F000EEF6F000ED46F000ED56F4E
:1083C200DAC0D6F0DBC0D7F0EE0ED86F000ED96F50
:1083D20008EC44F01200015003026F00CCFF05F0DC
:1083E2006F00D0FF06F001500402F350062602503F
:1083F2000302F350062605C001F006C002F0120087
:1084020000EE00F2500EEE6AE806FDE100EEF4F135
:108412000C0EEE6AE806FDE100EEF2F00C0EEE6ADA
:10842200E806FDE15F6A0001E3EF5DF020EF42F054
:10843200030E036E980EE82EFED7032EFCD701061C
:10844200D8A00206012806E10228D8A42BEF42F0A8
:108452002DEF42F019EF42F0120001C003F002C00A
:1084620004F0D89004320332D8900432033203501D
:108472006D6E01C003F0030E0316060E046ED89053
:108482000336042E40EF42F003506C6E1200FCC122
:1084920005F0FDC106F0FEC107F0FFC108F001C002
:1084A20005F002C006F003C007F004C008F0089E01
:1084B20005C001F006C002F007C003F008C004F0D6
:1084C2001200D00E036EFF0E046E01C005F002C052
:1084D20006F0035005260450062206500AE10A0E51
:1084E200055CD8A077EF42F07AEF42F0010E7BEF05
:1084F20042F0000E016E026A1200015002100310D7
:108502000410D8B487EF42F089EF42F091EF42F0C5
:10851200000E011A000E021A000E031A800E041A2F
:1085220001C001F002C002F003C003F004C004F075
:108532001200BF0E036EFF0E046E01C005F002C0F2
:1085420006F0035005260450062206500AE11A0ED0
:10855200055CD8A0AFEF42F0B2EF42F0010EB3EFEC
:1085620042F0000E016E026A12009F0E036EFF0EB1
:10857200046E01C005F002C006F003500526045047
:10858200062206500AE11A0E055CD8A0CBEF42F093
:10859200CEEF42F0010ECFEF42F0000E016E026A02
:1085A200120001C003F002C004F0DAEF42F0014A07
:1085B200022A600007F0D9FF60000BF0DAFFDF50FB
:1085C200D8A4E6EF42F0E8EF42F0D8EF42F00350D1
:1085D200015C016E04500258026E12009F0E036E7F
:1085E200FF0E046E200E0110056E000E0210066EC4
:1085F200035005260450062206500AE11A0E055CB5
:10860200D8A006EF43F009EF43F0010E0AEF43F062
:10861200000E016E026A1200000E126E000E116E42
:108622001EEF43F010C003F0046A0EC005F00FC045
:1086320006F0F1EC44F0114A122A11500C24D96EC2
:1086420012500D20DA6EDF50106E1050D8A42CEFAD
:1086520043F02EEF43F013EF43F01200000E3C1AEA
:10866200000E3D1A000E3E1A800E3F1A38C00FF05F
:1086720039C010F03AC011F03BC012F03CC013F008
:108682003DC014F03EC015F03FC016F089EC54F026
:108692000FC038F010C039F011C03AF012C03BF0F0
:1086A2001200010E076E200E01180210D8B45CEF02
:1086B20043F05EEF43F077EF43F0F70E036EFF0EE9
:1086C200046E01C005F002C006F0035005260450F6
:1086D2000622065009E1050E055CD8A073EF43F0AF
:1086E20075EF43F077EF43F0000E076E07C001F01D
:1086F200026A1200000E3D01D46F000ED66F000E0A
:10870200D86FB00EDA6F800EDB6F000EDC6FCF0E0B
:10871200DD6F000EDE6F000EDF6F000EE06F000EE9
:10872200E16F000EE26F000E016E000E026E46EC6B
:1087320041F0000E016E000E026E4BEC41F0000E95
:10874200016E000E026E41EC41F0000E5F6E1200EF
:108752009F0E096EFF0E0A6E07C00BF008C00CF0E8
:1087620009500B260A500C220C500AE11A0E0B5C1F
:10877200D8A0BEEF43F0C1EF43F0010EC2EF43F0C9
:10878200000E0D6E0E6A0D500E10D8B4CBEF43F0F2
:10879200CDEF43F0D3EF43F05F0E0714076E086A84
:1087A200D7EF43F007C007F008C008F01200BF0E71
:1087B200096EFF0E0A6E07C00BF008C00CF00950DC
:1087C2000B260A500C220C500AE11A0E0B5CD8A0A0
:1087D200EDEF43F0F0EF43F0010EF1EF43F0000E46
:1087E2000D6E0E6A0D500E10D8B4FAEF43F0FCEF86
:1087F20043F003EF44F0200E0710076E0850086E96
:1088020007EF44F007C007F008C008F01200D6C016
:108812005DF0D7C05EF0000E0001F56F000EF46F40
:1088220026EF44F0D4C0B4F0D5C0B5F05D0EB66FFB
:10883200000EB76FD8C0B8F0D9C0B9F049EC59F002
:108842000001B451F427B551F523600077F1F6FF2A
:1088520060007BF1F7FFF86A0800F5500009D8A420
:1088620035EF44F037EF44F013EF44F0F4C0D4F0A6
:10887200F5C0D5F0120003C007F004C008F001C033
:1088820009F002C00AF00750056E0850066E074A4A
:10889200082A600017F0F6FF60001BF0F7FF000ED9
:1088A200F86E600027F0D9FF60002BF0DAFF094A6A
:1088B2000A2A0F0EF76403D00800F55007D06F00A4
:1088C200DBFFE9FF6F00DFFFEAFFEF50DF6EDF50F3
:1088D200D8A46EEF44F070EF44F044EF44F012007D
:1088E200000E046E000E036E0001FC51FD11D8A4AF
:1088F2007DEF44F07FEF44F090EF44F0015002101E
:10890200D8B486EF44F088EF44F090EF44F0000EC4
:10891200FD6F010EFC6F000E046E010E036EFC056E
:10892200FD11D8A497EF44F099EF44F0AAEF44F078
:1089320001500210D8A4A0EF44F0A2EF44F0AAEF35
:1089420044F0000EFD6F000EFC6F000E046E020E6E
:10895200036E03C001F004C002F01200D50E000144
:10896200DA6FFF0EDB6F000EDD6F1B0EDC6F000E89
:10897200DF6F5B0EDE6F000EE16F320EE06F000EF6
:10898200E36F4A0EE26FD8EC41F0D50E0001DA6FC8
:10899200FF0EDB6F000EDD6F1B0EDC6F000EDF6F54
:1089A2005B0EDE6F000EE16F330EE06F000EE36FC1
:1089B2004A0EE26FD8EC41F0D70E0001DA6FFF0EDB
:1089C200DB6F000EDD6F1B0EDC6F000EDF6F5B0EC8
:1089D200DE6F000EE16F480EE06FD8EC41F012003E
:1089E20005500610D8B4F8EF44F0FAEF44F003EF64
:1089F20045F005500610D8A401EF45F003EF45F00D
:108A020008EF45F0035050EC41F03BEF45F020EE0B
:108A120004F00550D9260650DA22DE50DE10D8B412
:108A220015EF45F017EF45F032EF45F020EE04F078
:108A32000550D9260650DA2210EE02F00550E12642
:108A42000650E222DE50E65CE650800A0B6EDE50F3
:108A5200800A0B58D8B030EF45F032EF45F03BEFCB
:108A620045F020EE02F00550D9260650DA22DE2A21
:108A7200000EDD221200000E0114096E000E021417
:108A82000A6E800E03140B6E7F0E04140C6E0950D6
:108A92000A100B100C10D8A451EF45F053EF45F01B
:108AA2005BEF45F0000E016E000E026E000E036ECB
:108AB200000E046E000E0514096E000E06140A6EF6
:108AC200800E07140B6E7F0E08140C6E09500A10EC
:108AD2000B100C10D8A470EF45F072EF45F07AEF4E
:108AE20045F0000E056E000E066E000E076E000EBB
:108AF200086E055001180FE1065002180CE10750EC
:108B0200031809E108500418D8B48AEF45F08CEF35
:108B120045F08FEF45F0D89090EF45F0D8801200E5
:108B2200000EBE6E000EBD6E000EBA6E000EBB6E63
:108B3200000EBC6E070EC66EC268BF0EC36E0F0E6D
:108B4200C46EFB0EC56EF90E3A01706F0F0E606FA8
:108B52003F0E506F070E806F4069000E716F000E5E
:108B6200816F000E516F000E416F000E616F000E9B
:108B72005A6F000E5B6F000E6A6F000E6B6F000E75
:108B82007A6F000E7B6F000E826F000E426F000E36
:108B9200526F000E626F000E726F43695369636910
:108BA2007369070E836F44695469646974690F0EAF
:108BB200846F0F0EE86F160E0E6F0D0E146F090EF6
:108BC200156F090E166F090E176F1200000E066E52
:108BD20002BEF0EF45F0EEEF45F0F6EF45F0016C26
:108BE200021ED8B0022A010E066E04BEFDEF45F049
:108BF200FBEF45F001EF46F0036C041ED8B0042AE7
:108C020003500410D8B408EF46F00AEF46F02EEFF6
:108C120046F0010E056E12EF46F0D8900336043688
:108C2200052A04AE17EF46F019EF46F00EEF46F0B4
:108C32000350015C04500258D8A022EF46F024EF02
:108C420046F028EF46F00350015E0450025AD890D5
:108C520004320332052E19EF46F00650D8B434EF31
:108C620046F036EF46F03AEF46F0016C021ED8B0FD
:108C7200022A01C001F002C002F01200000E066ECC
:108C820004BE48EF46F046EF46F04EEF46F0036C66
:108C9200041ED8B0042A010E066E02BE55EF46F03D
:108CA20053EF46F05BEF46F0016C021ED8B0022A89
:108CB200010E061A000E086E000E076E0350041015
:108CC200D8B466EF46F068EF46F090EF46F0010E3A
:108CD200056E70EF46F0D89003360436052A04AECE
:108CE20075EF46F077EF46F06CEF46F0D890073616
:108CF20008360350015C04500258D8A083EF46F0B6
:108D020085EF46F08AEF46F00350015E0450025AA6
:108D12000780D89004320332052E77EF46F00650D2
:108D2200D8B496EF46F098EF46F09CEF46F0076C09
:108D3200081ED8B0082A07C001F008C002F01200CD
:108D42000001FAA1A7EF46F0A9EF46F0B3EF46F013
:108D520015C00CF016C00DF013C00EF014C00FF0C9
:108D62000DEC43F018BEB8EF46F0BAEF46F0C0EF94
:108D720046F017C01CF018C01DF0C4EF46F0000EFC
:108D82001D6E000E1C6E000E1B6E000E1A6ED6EFCC
:108D920046F0000E046E200E036E13C005F014C0E0
:108DA20006F0F1EC44F01A4A1B2A1C501A5C1B50C4
:108DB200800A196E1D50800A1958D8A0E3EF46F0B8
:108DC200E5EF46F0CAEF46F00001FAB1EBEF46F0EC
:108DD200EDEF46F0F7EF46F015C00CF016C00DF0BF
:108DE20013C00EF014C00FF00DEC43F015C001F0EB
:108DF20016C002F0D2EC42F01C500124136E1D503A
:108E02000220146E120009500A100B100C100D10E3
:108E12000E100F101010D8B411EF47F013EF47F0F7
:108E22005BEF47F0010E116E21EF47F0D890093643
:108E32000A360B360C360D360E360F361036112A20
:108E420010AE26EF47F028EF47F017EF47F0095032
:108E5200015C0A5002580B5003580C5004580D5034
:108E620005580E5006580F50075810500858D8A0F1
:108E72003DEF47F03FEF47F04FEF47F00950015EFB
:108E82000A50025A0B50035A0C50045A0D50055AFC
:108E92000E50065A0F50075A1050085AD8901032E6
:108EA2000F320E320D320C320B320A320932112ECF
:108EB20028EF47F001C001F002C002F003C003F046
:108EC20004C004F005C005F006C006F007C007F0B4
:108ED20008C008F012000001F651F711D8A474EF8F
:108EE20047F076EF47F07CEF47F0F6C012F0F7C09C
:108EF20013F082EF47F0FF0EF625126EFF0EF721F8
:108F0200136EFAA187EF47F089EF47F092EF47F02F
:108F12000EC003F0046A0CC005F00DC006F0F1ECBF
:108F220044F013BE97EF47F099EF47F09BEF47F0FD
:108F32009FEF47F0000E136E000E126E000E116EC0
:108F4200000E106EB1EF47F0000E046E200E036E9D
:108F52000CC005F00DC006F0F1EC44F0104A112AE5
:108F62001250105C1150800A0F6E1350800A0F5875
:108F7200D8A0BEEF47F0C0EF47F0A5EF47F00001E1
:108F8200FAB1C6EF47F0C8EF47F0D1EF47F00EC095
:108F920003F0046A0CC005F00DC006F0F1EC44F0D9
:108FA200010E10240C6E000E11200D6E120020EE28
:108FB20011F0070EDE6AE806FDE209500A100B10F6
:108FC2000C100D100E100F101010D8B4EBEF47F06C
:108FD200EDEF47F03FEF48F0010E196EFBEF47F05F
:108FE200D89009360A360B360C360D360E360F3649
:108FF2001036192A10AE00EF48F002EF48F0F1EFF8
:1090020047F0D89011361236133614361536163606
:10901200173618360950015C0A5002580B50035893
:109022000C5004580D5005580E5006580F50075852
:1090320010500858D8A020EF48F022EF48F033EF44
:1090420048F00950015E0A50025A0B50035A0C5064
:10905200045A0D50055A0E50065A0F50075A105016
:10906200085A1180D89010320F320E320D320C3263
:109072000B320A320932192E02EF48F011C001F008
:1090820012C002F013C003F014C004F015C005F0C2
:1090920016C006F017C007F018C008F0120001C091
:1090A20008F002C009F003C00AF004C00BF0050684
:1090B200D8A00606052806E10628D8A463EF48F0E2
:1090C20065EF48F072EF48F0000E026E000E016E7E
:1090D200C9EF48F0084A092A0A4A0B2A0506D8A00D
:1090E2000606600023F0D9FF600027F0DAFFDF50A8
:1090F200D8B47EEF48F080EF48F0B3EF48F060005C
:109102002BF0F6FF60002FF0F7FFF86A0800F55029
:109112000009D8B48FEF48F091EF48F0B3EF48F070
:1091220005500610D8B498EF48F09AEF48F0B3EF24
:1091320048F0600023F0D9FF600027F0DAFFDF502B
:10914200076E60002BF0F6FF60002FF0F7FFF86A61
:109152000800F5500718D8B4B1EF48F0B3EF48F063
:109162006BEF48F0600023F0D9FF600027F0DAFFD0
:10917200DF50076E60002BF0F6FF60002FF0F7FF64
:10918200F86A0800F550075C016E026AD8A0020670
:109192001200F8C10BF0F9C10CF0FAC10DF0FBC1DD
:1091A2000EF001C00BF002C00CF003C00DF004C0C1
:1091B2000EF00BC005F00CC006F00DC007F00EC09B
:1091C20008F0180EEAEF48F0D8900832073206325B
:1091D2000532E82EE5EF48F00550096E0A6A09509B
:1091E2000A10D8A4F7EF48F0F9EF48F019EF49F068
:1091F200D8900B34056E0C34066E0D34076E0E34A7
:10920200086E0550061007100810D8A40BEF49F09D
:109212000DEF49F013EF49F0000E026E020E016EDF
:1092220048EF49F0000E026E030E016E48EF49F05E
:1092320009280A10D8A420EF49F022EF49F044EFA0
:1092420049F00BC005F00CC006F00DC007F00EC0CF
:1092520008F0090ED8900536063607360836E82E8D
:109262002BEF49F00550061007100810D8B43CEF58
:1092720049F03FEF49F0010E40EF49F0000E016E58
:10928200026A48EF49F0000E026E040E016E1200EF
:10929200000E4014486E000E4114496E800E4214B6
:1092A2004A6E7F0E43144B6E485049104A104B10C1
:1092B200D8A45EEF49F060EF49F068EF49F0000E84
:1092C200406E000E416E000E426E000E436E000EA6
:1092D2004414486E000E4514496E800E46144A6EC0
:1092E2007F0E47144B6E485049104A104B10D8A4B9
:1092F2007DEF49F07FEF49F087EF49F0000E446EB1
:10930200000E456E000E466E000E476E43AE8CEFA9
:1093120049F08EEF49F097EF49F0406C411ED8B00A
:10932200412A421ED8B0422A800E435647AE9CEFD5
:1093320049F09EEF49F0A7EF49F0446C451ED8B0C2
:10934200452A461ED8B0462A800E4756000E401ABD
:10935200000E411A000E421A800E431A000E441AE1
:10936200000E451A000E461A800E471A4450405C01
:10937200455041584650425847504358D8B0C4EF20
:1093820049F0C6EF49F0C9EF49F0D890CAEF49F069
:10939200D8801200033404340A6E0A50D8A4D4EFE1
:1093A20049F0D6EF49F0E0EF49F0000E016E000EF1
:1093B200026E000E036E000E046E4DEF4AF001C005
:1093C20005F002C006F003C007F004C008F0200E4A
:1093D200F0EF49F0D8900832073206320532E82E13
:1093E200EBEF49F00550096E038EFF0E0116FF0EDA
:1093F2000216FF0E0316000E0416960E0A5E0ABE31
:1094020007EF4AF005EF4AF01DEF4AF00A50800AD2
:10941200970FD8B00FEF4AF011EF4AF013EF4AF06E
:10942200D6EF49F0D89004320332023201320A3EBA
:1094320013EF4AF035EF4AF01F0E0A6423EF4AF0A9
:1094420025EF4AF02DEF4AF0D6EF49F0D8900136D9
:109452000236033604360A060A50D8A433EF4AF01D
:1094620035EF4AF027EF4AF00950D8B43BEF4AF003
:109472003DEF4AF045EF4AF0041E031E021E016C46
:10948200000E02220322042201C001F002C002F0F7
:1094920003C003F004C004F01200000E166E000EAA
:1094A200156E000E0F6E000E0E6E5AEF4AF0084A4D
:1094B200092A010E146E600023F0F6FF600027F007
:1094C200F7FFF86A0800F550200AD8B46BEF4AF0AB
:1094D2006DEF4AF08DEF4AF0F70E0A6EFF0E0B6E3B
:1094E200600023F0F6FF600027F0F7FFF86A08003B
:1094F200F5500C6E0D6A0A500C260B500D220D50C1
:1095020009E1050E0C5CD8A089EF4AF08BEF4AF016
:109512008DEF4AF0000E146E14C010F0116A105054
:109522001110D8A497EF4AF099EF4AF058EF4AF099
:10953200A3EF4AF0000E0F6E010E0E6E084A092AC2
:10954200DEEF4AF0600023F0F6FF600027F0F7FF3D
:10955200F86A0800F5500A6E0B6A0B50000AD8B47C
:10956200B5EF4AF0DEEF4AF00A502B0AD8B49FEF6B
:109572004AF0060AD8B49BEF4AF0DEEF4AF015C073
:1095820001F016C002F0000E046E0A0E036EECEC3F
:1095920041F0600023F0F6FF600027F0F7FFF86A61
:1095A2000800F550015E000E025A300E0124156EBD
:1095B200000E0220166E9FEF4AF0D00E0A6EFF0ECA
:1095C2000B6E600023F0F6FF600027F0F7FFF86AE9
:1095D2000800F5500C6E0D6A0A500C260B500D2235
:1095E2000D500AE10A0E0C5CD8A0FAEF4AF0FDEF2A
:1095F2004AF0010EFEEF4AF0000E126E136A12508C
:109602001310D8A407EF4BF009EF4BF0C0EF4AF06C
:109612000E500F10D8A410EF4BF012EF4BF020EFCA
:109622004BF015C00AF016C00BF00A1E0B1E0A4AB8
:109632000B2A0AC008F00BC009F024EF4BF015C04A
:1096420008F016C009F01200096E0950D8B42CEFC8
:109652004BF02EEF4BF050EF4BF004BE35EF4BF0DA
:1096620033EF4BF050EF4BF001C005F002C006F0B3
:1096720003C007F004C008F0051E061E071E081EE0
:10968200052A000E06220722082205C00BF006C09A
:109692000CF007C00DF008C00EF058EF4BF001C0FF
:1096A2000BF002C00CF003C00DF004C00EF001502C
:1096B200021003100410D8A461EF4BF063EF4BF0DB
:1096C2006DEF4BF0000E016E000E026E000E036E87
:1096D200000E046EFEEF4BF0960E0A6E77EF4BF023
:1096E2000A2AD8900E320D320C320B32000E0B14B5
:1096F200056E000E0C14066E000E0D14076EFE0EA3
:109702000E14086E0550061007100810D8A48CEF2E
:109712004BF08EEF4BF071EF4BF09CEF4BF00A2ABF
:10972200010E0B26000E0C220D220E22D8900E32B4
:109732000D320C320B32000E0B14056E000E0C149F
:10974200066E000E0D14076EFF0E0E14086E055005
:10975200061007100810D8A4B1EF4BF0B3EF4BF08E
:1097620090EF4BF0BBEF4BF00A06D8900B360C365D
:109772000D360E360DBEC0EF4BF0C2EF4BF0CAEF06
:109782004BF0020E0A60C8EF4BF0CAEF4BF0B5EF98
:109792004BF00AB0CFEF4BF0D1EF4BF0D2EF4BF0E2
:1097A2000D9ED8900A320AC005F0066A076A086A56
:1097B20005C008F0076A066A056A05500B120650D2
:1097C2000C1207500D1208500E120950D8B4ECEFCB
:1097D2004BF0EEEF4BF0F6EF4BF004BEF5EF4BF033
:1097E200F3EF4BF0F6EF4BF00E8E0BC001F00CC016
:1097F20002F00DC003F00EC004F012000001F9BF28
:1098020005EF4CF007EF4CF008EF4CF0FA93F9BF7C
:1098120015EF4CF0F95106E1F805D8B013EF4CF012
:1098220015EF4CF01BEF4CF0000E316E010E306E56
:109832001FEF4CF0F8C030F0F9C031F0F6C032F052
:10984200F7C033F020C034F021C035F022C036F02A
:1098520023C037F024C038F025C039F026C03AF0D2
:1098620027C03BF0000E3D6E4F0E3C6E000E020113
:109872004F6FB2EF4CF03C06D8A03D06000E3C24E0
:10988200D96E020E3D20DA6E34C001F035C002F00E
:1098920036C003F037C004F038C005F039C006F016
:1098A2003AC007F03BC008F00A0E096E000E0A6EBD
:1098B200000E0B6E000E0C6E000E0D6E000E0E6E84
:1098C200000E0F6E000E106E04EC47F001C028F07F
:1098D20002C029F003C02AF004C02BF005C02CF00E
:1098E20006C02DF007C02EF008C02FF02850300F10
:1098F200DF6E3006D8A031063206D8A0330634C057
:1099020001F035C002F036C003F037C004F038C0B1
:1099120005F039C006F03AC007F03BC008F00A0E65
:10992200096E000E0A6E000E0B6E000E0C6E000E1B
:109932000D6E000E0E6E000E0F6E000E106ED8EC45
:1099420047F001C034F002C035F003C036F004C065
:1099520037F005C038F006C039F007C03AF008C049
:109962003BF03C503D10D8B4B9EF4CF0BBEF4CF09B
:10997200ECEF4CF0345035103610371038103910E7
:109982003A103B10D8A4C8EF4CF0CAEF4CF03CEFB1
:109992004CF031BED7EF4CF0315006E13004D8B074
:1099A200D5EF4CF0D7EF4CF03CEF4CF033BEE2EF8A
:1099B2004CF0335008E13204D8A0E2EF4CF0E4EF6F
:1099C2004CF0ECEF4CF00001FAB3EAEF4CF0ECEFA4
:1099D2004CF03CEF4CF01EC013F01FC014F0000E10
:1099E2003C24156E020E3D20166E32C017F033C0B5
:1099F20018F0A1EC46F013C01EF014C01FF01200C4
:109A0200F4C16CF0F5C16DF0F6C16EF0F7C16FF004
:109A120059C06CF05AC06DF05BC06EF05CC06FF064
:109A2200810E0001606FFF0E616F6CC062F06DC04D
:109A320063F06EC064F06FC065F0180E26EF4DF053
:109A4200D8906533643363336233E82E21EF4DF0EF
:109A5200625160256A6F000E61216B6F6BBF3BEF35
:109A62004DF06B5109E1170E6A5DD8A03BEF4DF046
:109A72003DEF4DF047EF4DF059C059F05AC05AF042
:109A82005BC05BF05CC05CF00BEF4EF06BBF4CEF69
:109A92004DF04EEF4DF0BFEF4DF06AC060F0FF0E9B
:109AA200616FFF0E626F7F0E636F000E646F6067FF
:109AB2005DEF4DF065EF4DF064356433633362332F
:109AC2006133602F58EF4DF061C066F062C067F0FD
:109AD20063C068F064C069F0000166516C15606F84
:109AE20067516D15616F68516E15626F69516F151F
:109AF200636F6051611162116311D8A483EF4DF05D
:109B020085EF4DF087EF4DF03DEF4DF06CC060F00A
:109B12006DC061F06EC062F06FC063F0200E97EF0F
:109B22004DF0D8906333623361336033E82E92EFA5
:109B32004DF06051611162116311D8B4A3EF4DF081
:109B4200A5EF4DF0ADEF4DF066516C2767516D23D7
:109B520068516E2369516F23661D606F671D616FC7
:109B6200681D626F691D636F60516C1761516D17DB
:109B720062516E1763516F1703EF4EF06CC060F0C5
:109B82006DC061F06EC062F06FC063F0200ECFEF67
:109B92004DF0D8906333623361336033E82ECAEFFD
:109BA2004DF06051611162116311D8A4DBEF4DF0E9
:109BB200DDEF4DF0E7EF4DF0000E6C6F000E6D6FB4
:109BC200000E6E6F000E6F6F03EF4EF0D8906C3583
:109BD200606F6D35616F6E35626F6F35636F6051A7
:109BE200611162116311D8B4F9EF4DF0FBEF4DF042
:109BF20003EF4EF0000E6C6F000E6D6F800E6E6FF5
:109C0200BF0E6F6F6CC059F06DC05AF06EC05BF042
:109C12006FC05CF0120038C046F039C047F03AC05D
:109C220048F03BC049F03DBE20EF4EF03D5009E107
:109C3200800E3C5CD8A020EF4EF022EF4EF080EF79
:109C42004EF046C01FF047C020F048C021F049C086
:109C520022F0000E236E000E246E000E256E7F0E83
:109C6200266E62EC52F01FC046F020C047F021C0C1
:109C720048F022C049F0810E3C26FF0E3D223DBE37
:109C82004CEF4EF03D5009E1800E3C5CD8A04CEF09
:109C92004EF04EEF4EF0EAEF4EF046C01FF047C0D6
:109CA20020F048C021F049C022F0000E236E000EC1
:109CB200246E000E256E7F0E266E62EC52F01FC0DF
:109CC20046F020C047F021C048F022C049F0810E82
:109CD2003C26FF0E3D223DBE78EF4EF03D5009E19D
:109CE200800E3C5CD8A078EF4EF07AEF4EF0EAEFAF
:109CF2004EF0000E3D6E7F0E3C6EEAEF4EF03DAE32
:109D02008CEF4EF0820E3C5CFF0E3D58D8B08CEFCB
:109D12004EF08EEF4EF0EAEF4EF046C01FF047C015
:109D220020F048C021F049C022F0000E236E000E40
:109D3200246E800E256E0C0E266E62EC52F01FC051
:109D420046F020C047F021C048F022C049F0660E1C
:109D52003C26000E3D223DAEB8EF4EF0820E3C5C3A
:109D6200FF0E3D58D8B0B8EF4EF0BAEF4EF0EAEF22
:109D72004EF046C01FF047C020F048C021F049C055
:109D820022F0000E236E000E246E800E256E0C0E45
:109D9200266E62EC52F01FC046F020C047F021C090
:109DA20048F022C049F0660E3C26000E3D223DAE30
:109DB200E4EF4EF0820E3C5CFF0E3D58D8B0E4EF6B
:109DC2004EF0E6EF4EF0EAEF4EF0FF0E3D6E820EE1
:109DD2003C6E7F0E3C243E6E000E3D203F6E406A7C
:109DE200416A170ED8903E363F3640364136E82E4D
:109DF200F3EF4EF03EC042F03FC043F040C044F0AB
:109E020041C045F042C01FF043C020F044C021F0E1
:109E120045C022F046C023F047C024F048C025F0D8
:109E220049C026F062EC52F01FC038F020C039F071
:109E320021C03AF022C03BF038C038F039C039F0C6
:109E42003AC03AF03BC03BF012000001F9BF2CEFE0
:109E52004FF02EEF4FF02FEF4FF0FA93F9BF3CEF98
:109E62004FF0F95106E1F805D8B03AEF4FF03CEF68
:109E72004FF042EF4FF0000E366E010E356E46EF98
:109E82004FF0F8C035F0F9C036F0F6C037F0F7C041
:109E920038F0FAA94FEF4FF051EF4FF055EF4FF076
:109EA200FE0E3726FF0E382220C039F021C03AF0CC
:109EB20022C03BF023C03CF024C03DF025C03EF060
:109EC20026C03FF027C040F0000E426E4F0E416E9A
:109ED200000E02014F6F22EF50F04106D8A0420659
:109EE2000F0E3914436E446A44BE81EF4FF0445062
:109EF20009E10A0E435CD8A081EF4FF083EF4FF0E7
:109F02008BEF4FF0570E4324436E000E4420446EF5
:109F120091EF4FF0300E4324436E000E4420446E06
:109F2200BF0E296EFF0E2A6E28502B6E2C6A295006
:109F32002B262A502C222C500AE11A0E2B5CD8A078
:109F4200A5EF4FF0A8EF4FF0010EA9EF4FF0000E72
:109F5200316E326A31503210D8B4B2EF4FF0B4EFF2
:109F62004FF0E4EF4FF09F0E296EFF0E2A6E200E87
:109F720043102B6E000E44102C6E29502B262A50B3
:109F82002C222C500AE11A0E2B5CD8A0CBEF4FF0FA
:109F9200CEEF4FF0010ECFEF4FF0000E336E346A6A
:109FA20033503410D8B4D8EF4FF0DAEF4FF0E4EF7B
:109FB2004FF043C007F044C008F0A9EC43F007C0DB
:109FC20043F008C044F0000E4124D96E020E422034
:109FD200DA6E60000FF1DFFF3506D8A036063706CD
:109FE200D8A0380639C029F03AC02AF03BC02BF07D
:109FF2003CC02CF03DC02DF03EC02EF03FC02FF0F3
:10A0020040C030F0050E0FEF50F0D89030322F32B2
:10A012002E322D322C322B322A322932E82E06EF02
:10A0220050F029C039F02AC03AF02BC03BF02CC0C6
:10A032003CF02DC03DF02EC03EF02FC03FF030C0AE
:10A0420040F042BE2EEF50F0425009E1020E415C58
:10A05200D8A02EEF50F030EF50F061EF50F03950B1
:10A062003A103B103C103D103E103F104010D8A457
:10A072003DEF50F03FEF50F06EEF4FF036BE4CEF39
:10A0820050F0365006E13504D8B04AEF50F04CEFAC
:10A0920050F06EEF4FF038BE57EF50F0385008E1F5
:10A0A2003704D8A057EF50F059EF50F061EF50F05D
:10A0B2000001FAB35FEF50F061EF50F06EEF4FF036
:10A0C2000001FAA967EF50F069EF50F080EF50F00D
:10A0D2004106D8A04206000E4124D96E020E42204B
:10A0E200DA6E6000A3F0DFFF4106D8A04206000E40
:10A0F2004124D96E020E4220DA6E300EDF6E1EC08F
:10A1020013F01FC014F0000E4124156E020E4220FF
:10A11200166E37C017F038C018F0A1EC46F013C025
:10A122001EF014C01FF012004350800B506E4350BB
:10A132004324576E42AEA0EF50F0A2EF50F0A3EFCF
:10A1420050F057805750D8B4A9EF50F0ABEF50F011
:10A15200C0EF50F05728D8A4B1EF50F0B3EF50F051
:10A16200BBEF50F0000E406E000E416E000E426ECC
:10A17200000E436E428E000E436EC8EF50F0000E8A
:10A18200406E000E416E000E426E000E436E47504E
:10A19200800B501A47504724586E46AED3EF50F00A
:10A1A200D5EF50F0D6EF50F058805850D8B4DCEFCD
:10A1B20050F0DEEF50F0F3EF50F05828D8A4E4EF5F
:10A1C20050F0E6EF50F0EEEF50F0000E446E000E4D
:10A1D200456E000E466E000E476E468E000E476EAE
:10A1E200FBEF50F0000E446E000E456E000E466E00
:10A1F200000E476E4450451046104710D8A404EF95
:10A2020051F006EF51F01EEF51F0000E406E000EBD
:10A21200416E000E426E000E436E800E42127F0EA1
:10A2220043125050431240C040F041C041F042C07E
:10A2320042F043C043F061EF52F05750D8A424EFEC
:10A2420051F026EF51F030EF51F0000E406E000E4B
:10A25200416E000E426E000E436E61EF52F0585096
:10A2620057C048F0496A485E000E495A7F0E48249A
:10A27200516E000E4920526E40C04CF041C04DF06C
:10A2820042C04EF043C04FF0000E406E000E416ED1
:10A29200000E426E000E436E000E536E000E546EA0
:10A2A200000E556E000E566E000E586E91EF51F074
:10A2B2005850D8B45FEF51F061EF51F078EF51F0A0
:10A2C200D8904C364D364E364F36D89040364136C1
:10A2D2004236433656AE70EF51F072EF51F073EFE3
:10A2E20051F04080D8905336543655365636445045
:10A2F2004C5C45504D5846504E5847504F58D8A088
:10A3020085EF51F087EF51F090EF51F0568C4450A9
:10A312004C5E45504D5A46504E5A47504F5A582A55
:10A32200190E586497EF51F099EF51F059EF51F02F
:10A332004C504D104E104F10D8B4A2EF51F0A4EF74
:10A3420051F0BCEF51F05380BCEF51F0D890403641
:10A3520041364236433656AEB1EF51F0B3EF51F0CB
:10A36200B4EF51F04080D8905336543655365636B5
:10A372005106D8A0520642AEC1EF51F0C3EF51F0E0
:10A38200A7EF51F0000E586E56AECAEF51F0CCEF67
:10A3920051F0F0EF51F0FF0E5314486EFF0E5414BB
:10A3A200496EFF0E55144A6E7F0E56144B6E48507E
:10A3B20049104A104B10D8B4E1EF51F0E3EF51F0DD
:10A3C200E7EF51F0010E586EF0EF51F040A0ECEFC4
:10A3D20051F0EEEF51F0F0EF51F0E3EF51F0585041
:10A3E200D8B4F6EF51F0F8EF51F01CEF52F0010E35
:10A3F2004026000E41224222432243A003EF52F0A4
:10A4020005EF52F01CEF52F040C048F041C049F055
:10A4120042C04AF043C04BF04B344B324A324932CD
:10A42200483248C040F049C041F04AC042F04BC0F7
:10A4320043F0514A522A52BE27EF52F0525008E1DD
:10A442005128D8A027EF52F029EF52F034EF52F002
:10A45200000E526E5168000E406E000E416E000EEC
:10A46200426E000E436E52BE41EF52F0525006E170
:10A472005104D8B03FEF52F041EF52F04FEF52F09B
:10A48200000E526E000E516E000E406E000E416EB6
:10A49200000E426E000E436E000E506E51C057F019
:10A4A20057A056EF52F058EF52F05BEF52F0428E47
:10A4B2005CEF52F0429ED8905730436E12EF51F04B
:10A4C20012002250800B2B6E22502224316E21AEBC
:10A4D2006DEF52F06FEF52F070EF52F03180315069
:10A4E200D8B476EF52F078EF52F08BEF52F0312879
:10A4F200D8A47EEF52F080EF52F088EF52F0000EB7
:10A502001F6E000E206E000E216E000E226E218E36
:10A5120093EF52F0000E1F6E000E206E000E216EA1
:10A52200000E226E2650800B2B1A26502624306EE7
:10A5320025AE9EEF52F0A0EF52F0A1EF52F0308024
:10A542003050D8B4A7EF52F0A9EF52F0BCEF52F05E
:10A552003028D8A4AFEF52F0B1EF52F0B9EF52F079
:10A56200000E236E000E246E000E256E000E266E67
:10A57200258EC4EF52F0000E236E000E246E000EE4
:10A58200256E000E266E3050D8B4CAEF52F0CCEFD2
:10A5920052F0D4EF52F03150D8A4D2EF52F0D4EFAF
:10A5A20052F0DEEF52F0000E1F6E000E206E000E13
:10A5B200216E000E226E88EF54F025501F026F00AC
:10A5C200CCFF36F06F00D0FF37F036502C6E2D6A7C
:10A5D2002E6A2F6A3750326E336A346A356A2450D3
:10A5E20020026F00CCFF36F06F00D0FF37F03650FC
:10A5F2002C26000E2D222E222F2237503226000E1C
:10A60200332234223522235021026F00CCFF36F050
:10A612006F00D0FF37F036502C26000E2D222E224E
:10A622002F2237503226000E3322342235222EC0FA
:10A632002FF02DC02EF02CC02DF02C6A23502002BA
:10A642006F00CCFF36F06F00D0FF37F036502C266B
:10A6520037502D22000E2E22000E2F2224501F02D0
:10A662006F00CCFF36F06F00D0FF37F036502C264B
:10A6720037502D22000E2E22000E2F222EC02FF038
:10A682002DC02EF02CC02DF02C6A23501F026F001B
:10A69200CCFF36F06F00D0FF37F036502C26375003
:10A6A2002D22000E2E22000E2F22255020026F0096
:10A6B200CCFF36F06F00D0FF37F0365032263750DD
:10A6C2003322000E3422000E3522245021026F0064
:10A6D200CCFF36F06F00D0FF37F0365032263750BD
:10A6E2003322000E3422000E3522255021026F0043
:10A6F200CCFF36F06F00D0FF37F03650276E375060
:10A70200286E296A2A6A29C02AF028C029F027C09F
:10A7120028F0276A27503226285033222950342223
:10A722002A5035222CC027F02DC028F02EC029F047
:10A732002FC02AF0190EA3EF53F0D8902A322932F3
:10A7420028322732E82E9EEF53F027503226285027
:10A752003322295034222A5035222EC02FF02DC008
:10A762002EF02CC02DF02C6A305031C027F0286A10
:10A772002726000E2822820E2724366EFF0E28205E
:10A78200376ED9EF53F0D890323633363436353609
:10A792002FAECEEF53F0D0EF53F0D1EF53F0328023
:10A7A200D8902C362D362E362F363606D8A03706C0
:10A7B20034AEDEEF53F0E0EF53F0C4EF53F0000E8F
:10A7C200306E2FAEE7EF53F0E9EF53F00DEF54F098
:10A7D200FF0E2C14276EFF0E2D14286EFF0E2E1462
:10A7E200296E7F0E2F142A6E2750281029102A1046
:10A7F200D8B4FEEF53F000EF54F004EF54F0010E22
:10A80200306E0DEF54F032A009EF54F00BEF54F01C
:10A812000DEF54F000EF54F03050D8B413EF54F071
:10A8220015EF54F039EF54F0010E3226000E3322A8
:10A832003422352235A020EF54F022EF54F039EFC4
:10A8420054F032C027F033C028F034C029F035C0AC
:10A852002AF02A342A3229322832273227C032F00B
:10A8620028C033F029C034F02AC035F0364A372ADE
:10A8720037BE44EF54F0375008E13628D8A044EFF1
:10A8820054F046EF54F050EF54F0000E326E000ECA
:10A89200336E800E346E7F0E356E7EEF54F037BE0F
:10A8A2005DEF54F0375006E13604D8B05BEF54F058
:10A8B2005DEF54F069EF54F0000E326E000E336E0D
:10A8C200000E346E000E356E000E2B6E7EEF54F0CD
:10A8D20036C031F0FF0E3216FF0E33167F0E3416DD
:10A8E200000E351631A078EF54F07AEF54F07BEF7A
:10A8F20054F0348ED8903130356E2B50351232C030
:10A902001FF033C020F034C021F035C022F0120015
:10A912001250800B1B6E125012241D6E11AE94EF5A
:10A9220054F096EF54F097EF54F01D801D50D8B4B8
:10A932009DEF54F09FEF54F0B4EF54F01D28D8A4CB
:10A94200A5EF54F0A7EF54F0AFEF54F0000E0F6EE6
:10A95200000E106E000E116E000E126E118E000EA1
:10A96200126EBCEF54F0000E0F6E000E106E000E51
:10A97200116E000E126E1650800B1C6E1B501C18AE
:10A98200D8B4C6EF54F0C8EF54F0C9EF54F01B8CA2
:10A99200165016241C6E15AED1EF54F0D3EF54F0BE
:10A9A200D4EF54F01C801C50D8B4DAEF54F0DCEF32
:10A9B20054F0F1EF54F01C28D8A4E2EF54F0E4EF85
:10A9C20054F0ECEF54F0000E136E000E146E000EF5
:10A9D200156E000E166E158E000E166EF9EF54F0FF
:10A9E200000E136E000E146E000E156E000E166E23
:10A9F2001D501C5CD8B000EF55F002EF55F029EF66
:10AA020055F01BAC07EF55F009EF55F00BEF55F081
:10AA1200800E1B1A1DC01EF01CC01DF01EC01CF0B3
:10AA22000FC01EF013C00FF01EC013F010C01EF0B6
:10AA320014C010F01EC014F011C01EF015C011F0A9
:10AA42001EC015F012C01EF016C012F01EC016F085
:10AA5200000E1E6E1D501CC017F0186A175E000E05
:10AA6200185A18BE3EEF55F0185009E11A0E175C3D
:10AA7200D8A03EEF55F040EF55F077EF55F00F506C
:10AA8200101011101210D8A449EF55F04CEF55F0E8
:10AA9200010E4DEF55F0000E1E6E000E0F6E000EF1
:10AAA200106E000E116E000E126E1CC01DF080EFB3
:10AAB20055F01EA05FEF55F061EF55F067EF55F0CE
:10AAC200D8901E3001091E6E69EF55F0D8901E32E3
:10AAD2000FA06EEF55F070EF55F071EF55F01E8E2E
:10AAE20012341232113210320F321D2A1C501D5CE8
:10AAF200D8A07EEF55F080EF55F05AEF55F01BBC11
:10AB020085EF55F087EF55F0C7EF55F01D50D8A4EB
:10AB12008DEF55F08FEF55F099EF55F0000E0F6E57
:10AB2200000E106E000E116E000E126EE8EF56F05F
:10AB320013500F26145010221550112216501222B3
:10AB420012A0A6EF55F0A8EF55F054EF56F01EA054
:10AB5200ADEF55F0AFEF55F0B5EF55F0D8901E3090
:10AB620001091E6EB7EF55F0D8901E320FA0BCEF50
:10AB720055F0BEEF55F0BFEF55F01E8E1234123273
:10AB8200113210320F321D2A54EF56F013500F5C5F
:10AB920014501058155011581250800A176E165042
:10ABA200800A1758D8B0D8EF55F0DAEF55F005EF14
:10ABB20056F00F50135C176E10501458186E115047
:10ABC2001558196E125016581A6EFF0E17240F6E72
:10ABD200FF0E1820106EFF0E1920116EFF0E1A20A4
:10ABE200126E800E1B1A1E6C1E50D8A4FBEF55F07D
:10ABF200FDEF55F00DEF56F0010E0F26000E10225C
:10AC0200112212220DEF56F013500F5E1450105AFB
:10AC12001550115A1650125A0F50101011101210CE
:10AC2200D8A416EF56F018EF56F04DEF56F01E501E
:10AC3200D8A41EEF56F020EF56F04DEF56F0000E5E
:10AC42000F6E000E106E000E116E000E126EE8EF07
:10AC520056F0D8900F361036113612361EAE34EF3B
:10AC620056F036EF56F037EF56F00F801EA03CEF4D
:10AC720056F03EEF56F042EF56F0D8801E3644EFC3
:10AC820056F0D8901E361D50D8B44AEF56F04CEF0D
:10AC920056F04DEF56F01D0611AE52EF56F054EF3E
:10ACA20056F02AEF56F0000E1C6E1EAE5BEF56F009
:10ACB2005DEF56F075EF56F01EC017F07F0E1716B7
:10ACC200D8B466EF56F068EF56F06CEF56F0010E0E
:10ACD2001C6E75EF56F00FA071EF56F073EF56F041
:10ACE20075EF56F068EF56F01C50D8B47BEF56F073
:10ACF2007DEF56F0A8EF56F0010E0F26000E10223F
:10AD02001122122212A088EF56F08AEF56F0A8EF15
:10AD120056F00FC017F010C018F011C019F012C091
:10AD22001AF01A341A3219321832173217C00FF0C9
:10AD320018C010F019C011F01AC012F01D28D8B4B2
:10AD4200A5EF56F0A7EF56F0A8EF56F01D2A1D28E2
:10AD5200D8B4AEEF56F0B0EF56F0B8EF56F01D5043
:10AD6200D8A4B6EF56F0B8EF56F0CAEF56F0000E80
:10AD72000F6E000E106E000E116E000E126E1D5040
:10AD8200D8A4C6EF56F0C8EF56F0CAEF56F0000E40
:10AD92001B6E1DA0CFEF56F0D1EF56F0D4EF56F058
:10ADA200118ED5EF56F0119ED8901D30126E1BAE4B
:10ADB200DDEF56F0DFEF56F0E0EF56F0128E0FC0E7
:10ADC2000FF010C010F011C011F012C012F01200FA
:10ADD2004CC06CF04DC06DF04EC06EF04FC06FF0C5
:10ADE2006CC084F06DC085F06EC086F06FC087F0D5
:10ADF200000E00018415506E000E8515516E800EF6
:10AE02008615526E7F0E8715536E800E521809E119
:10AE12007F0E531850105110D8A412EF57F014EFB0
:10AE220057F042EF57F04CC023F04DC024F04EC013
:10AE320025F04FC026F04CC01FF04DC020F04EC090
:10AE420021F04FC022F062EC52F01FC00FF020C080
:10AE520010F021C011F022C012F04CC013F04DC00E
:10AE620014F04EC015F04FC016F089EC54F00FC02C
:10AE72004CF010C04DF011C04EF012C04FF048EF30
:10AE820059F087BF51EF57F087518611851106E1BE
:10AE92008405D8B04FEF57F051EF57F08DEF57F0D0
:10AEA200FF0E8415506EFF0E8515516EFF0E86152E
:10AEB200526E7F0E8715536E505051105210531020
:10AEC200D8A466EF57F068EF57F072EF57F04CC016
:10AED2004CF04DC04DF04EC04EF04FC04FF048EF19
:10AEE20059F087BF79EF57F077EF57F08DEF57F0B2
:10AEF200000EF36F210EF26FC90E016EFF0E026E8D
:10AF0200B5EC41F001C04CF002C04DF003C04EF070
:10AF120004C04FF048EF59F0170E506E84C051F044
:10AF220085C052F086C053F087C054F050669CEF43
:10AF320057F0A4EF57F05434543253325232513254
:10AF4200502E97EF57F051C07CF052C07DF053C0A5
:10AF52007EF054C07FF000017C517D117E117F1183
:10AF6200D8A4B6EF57F0B8EF57F0E8EF57F0000E5D
:10AF7200686F000E696F000E6A6F000E6B6FCDEF87
:10AF820057F0D8908437853786378737010E682780
:10AF9200000E69236A236B2386AFD2EF57F0D4EFFA
:10AFA20057F0C2EF57F0FF0E6825506EFF0E692171
:10AFB200516EFF0E6A21526EFF0E6B21536E50507E
:10AFC2007C5F51507D5B52507E5B53507F5B810EA4
:10AFD2007C27FF0E7D23FF0E7E23FF0E7F23FF0EB5
:10AFE2008415506EFF0E8515516E7F0E8615526EBA
:10AFF200000E8715536E000E5010846F000E511014
:10B00200856F800E5210866F000E5310876F7CA1E1
:10B012000DEF58F00FEF58F017EF58F084518427D6
:10B022008551852386518623875187237F357F3338
:10B032007E337D337C338451842785518523865129
:10B04200862387518723000E646F000E656F000E02
:10B05200666F000E676F64C070F065C071F066C005
:10B0620072F067C073F0000E806F000E816F000EE9
:10B07200826F010E836F86EF58F064518025746FE2
:10B0820065518121756F66518221766F67518321E7
:10B09200776F7451845D7551855976518659875100
:10B0A200800A506E7751800A5058D8A05BEF58F052
:10B0B2005DEF58F079EF58F074518025646F755147
:10B0C2008121656F76518221666F77518321676F87
:10B0D2007451845F7551855B7651865B7751875BCE
:10B0E20080517027815171238251722383517323BE
:10B0F200845184278551852386518623875187234E
:10B10200D89083338233813380338051811182110D
:10B112008311D8A48FEF58F091EF58F03EEF58F01A
:10B122008451851186118711D8B49AEF58F09CEF9B
:10B1320058F0FDEF58F0000E786F000E796F800E18
:10B142007A6F3F0E7B6F78C040F079C041F07AC0D1
:10B1520042F07BC043F0000E446E000E456E800E3E
:10B16200466E3F0E476E49EC49F0D8A0BBEF58F04F
:10B17200BDEF58F0FDEF58F0000E0001786F000EA1
:10B18200796F800E7A6F3F0E7B6F000E406E000E5D
:10B19200416E800E426E3F0E436E78C044F079C01D
:10B1A20045F07AC046F07BC047F049EC49F0D8B090
:10B1B200DDEF58F0DFEF58F0E8EF58F0020E000133
:10B1C2007027000E712372237323FDEF58F0010ED6
:10B1D20000017015506E000E7115516E000E721541
:10B1E200526E000E7315536E5050702751507123DA
:10B1F200525072235350732370C050F071C051F0FB
:10B2020072C052F073C053F053345332523251323F
:10B212005032000E50240001846F000E5120856FC1
:10B22200000E5220866F3F0E5320876F7CC050F075
:10B232007DC051F07EC052F07FC053F0170ED890FF
:10B242005036513652365336E82E20EF59F05050D0
:10B25200842751508523525086235350872384C01C
:10B262006CF085C06DF086C06EF087C06FF06CC068
:10B2720078F06DC079F06EC07AF06FC07BF078C064
:10B282004CF079C04DF07AC04EF07BC04FF0120006
:10B292006000DBF2D9FF6000DFF2DAFF6F007BFFB4
:10B2A200F6FF6F0077FFF7FFF86A0800F550250AEE
:10B2B200D8A45EEF59F060EF59F0C0EF5DF0600086
:10B2C200DBF2D9FF6000DFF2DAFFDE2A000EDD22B8
:10B2D200000E0001F76F000EF66FF6C0FAF0F7C02D
:10B2E200FBF0F869F9696000DBF2D9FF6000DFF278
:10B2F200DAFF6F007BFFF6FF6F0077FFF7FFF86A58
:10B302000800F5502A0AD8A489EF59F08BEF59F0BA
:10B31200BEEF59F06000DBF2D9FF6000DFF2DAFF26
:10B32200DE2A000EDD226000E3F2D9FF6000E7F2C0
:10B33200DAFF6F007CFFBAF0020EDE266F007CFFA0
:10B34200BBF0000EDD226000EBF2D9FF6000EFF2ED
:10B35200DAFF6F0078FFF6F06F0074FFF7F0F7BFC7
:10B36200B7EF59F0B5EF59F00DEF5AF0FA81F66DDB
:10B37200F71FD8B0F72B0DEF5AF06000DBF2D9FFC0
:10B382006000DFF2DAFF6F0078FF08F06F0074FFF1
:10B3920009F04EEC4AF008C0F6F009C0F7F0DBEF16
:10B3A20059F06000DBF2D9FF6000DFF2DAFFDE2A3B
:10B3B200000EDD22D00E0001BA6FFF0EBB6F6000DF
:10B3C200DBF2D9FF6000DFF2DAFF6F007BFFF6FFEE
:10B3D2006F0077FFF7FFF86A0800F550BC6FBD6B8E
:10B3E200BA51BC27BB51BD23BD510AE10A0EBC5D57
:10B3F200D8A0FEEF59F001EF5AF0010E02EF5AF019
:10B40200000EBE6FBF6BBE51BF11D8A40BEF5AF036
:10B412000DEF5AF0D2EF59F06000DBF2D9FF600075
:10B42200DFF2DAFF6F007BFFF6FF6F0077FFF7FFB7
:10B43200F86A0800F5502E0AD8A422EF5AF024EF39
:10B442005AF0BEEF5AF0000EF96F000EF86F60006E
:10B45200DBF2D9FF6000DFF2DAFFDE2A000EDD2226
:10B462006000DBF2D9FF6000DFF2DAFF6F007BFFE2
:10B47200F6FF6F0077FFF7FFF86A0800F5502A0A17
:10B48200D8A446EF5AF048EF5AF06FEF5AF0600036
:10B49200DBF2D9FF6000DFF2DAFFDE2A000EDD22E6
:10B4A2006000E3F2D9FF6000E7F2DAFF6F007CFF91
:10B4B200BAF0020EDE266F007CFFBBF0000EDD222A
:10B4C2006000EBF2D9FF6000EFF2DAFF6F0078FF65
:10B4D200F8F06F0074FFF9F0BEEF5AF06000DBF293
:10B4E200D9FF6000DFF2DAFF6F0078FF08F06F002B
:10B4F20074FF09F04EEC4AF008C0F8F009C0F9F008
:10B502008CEF5AF06000DBF2D9FF6000DFF2DAFF65
:10B51200DE2A000EDD22D00E0001BA6FFF0EBB6FD5
:10B522006000DBF2D9FF6000DFF2DAFF6F007BFF21
:10B53200F6FF6F0077FFF7FFF86A0800F550BC6F5F
:10B54200BD6BBA51BC27BB51BD23BD510AE10A0EE6
:10B55200BC5DD8A0AFEF5AF0B2EF5AF0010EB3EFD4
:10B562005AF0000EC06FC16BC051C111D8A4BCEF1C
:10B572005AF0BEEF5AF083EF5AF06000DBF2D9FFC7
:10B582006000DFF2DAFF6F007BFFF6FF6F0077FFEC
:10B59200F7FFF86A0800F550076E086AD8EC43F026
:10B5A20007500001D06FD051D8B4DAEF5AF0DCEF77
:10B5B2005AF024EF5BF06000DBF2D9FF6000DFF2AB
:10B5C200DAFF6F0078FFBAF06F0074FFBBF0010E74
:10B5D200BA27000EBB236000EBF2F6FF6000EFF229
:10B5E200F7FFF86A0800F550076E086AD8EC43F0D6
:10B5F20007500001D16FD151D8B402EF5BF004EFD4
:10B602005BF024EF5BF06000DBF2D9FF6000DFF259
:10B61200DAFF6F0078FFBAF06F0074FFBBF0020E22
:10B62200BA27000EBB236000EBF2F6FF6000EFF2D8
:10B63200F7FFF86A0800F550076E086AD8EC43F085
:10B6420007500001D26F6000DBF2D9FF6000DFF229
:10B65200DAFF6F007BFFF6FF6F0077FFF7FFF86AF4
:10B662000800F550630AD8A439EF5BF03BEF5BF0BA
:10B672006AEF5BF06000DBF2D9FF6000DFF2DAFF15
:10B68200DE2A000EDD226000E3F2D9FF6000E7F25D
:10B69200DAFF6F007CFFBAF0020EDE266F007CFF3D
:10B6A200BBF0000EDD226000EBF2D9FF6000EFF28A
:10B6B200DAFFDF50D36FB4C00CF0B5C00DF0D3C0C9
:10B6C2000EF06CEC47F00CC0B4F00DC0B5F0E2EF38
:10B6D2005DF0660ED019D8A471EF5BF073EF5BF0EA
:10B6E200C5EF5BF06000DBF2D9FF6000DFF2DAFF4A
:10B6F2006F007BFFF6FF6F0077FFF7FFF86A080025
:10B702006F00D4FFD3F06000DBF2D9FF6000DFF2FC
:10B71200DAFFDE2A000EDD226000E3F2D9FF6000CC
:10B72200E7F2DAFF6F007CFFBAF0040EDE266F004C
:10B732007CFFBBF0000EDD226000EBF2D9FF60005F
:10B74200EFF2DAFF6F0078FFCCF06F0078FFCDF0F8
:10B752006F0078FFCEF06F0078FFCFF0B4C070F0CA
:10B76200B5C071F0CCC072F0CDC073F0CEC074F031
:10B77200CFC075F0D3C076F0AFEC63F070C0B4F018
:10B7820071C0B5F0E2EF5DF0D00E016E000E026EF8
:10B79200F70E036EFF0E046E000E066E020E056EAD
:10B7A20050EC48F001500210D8A4DAEF5BF0DCEF65
:10B7B2005BF08FEF5CF06000DBF2D9FF6000DFF23C
:10B7C200DAFF6F0078FFBAF06F0074FFBBF0010E72
:10B7D2000001BA27000EBB236000EBF2F6FF600007
:10B7E200EFF2F7FFF86A08006F00D4FFD3F0BF0E44
:10B7F200BA6FFF0EBB6F6000DBF2D9FF6000DFF2B1
:10B80200DAFF6F007BFFF6FF6F0077FFF7FFF86A42
:10B812000800F550BC6FBD6BBA51BC27BB51BD23AC
:10B82200BD510AE11A0EBC5DD8A01AEF5CF01DEF03
:10B832005CF0010E1EEF5CF0000EC26FC36BC251D2
:10B84200C311D8B427EF5CF029EF5CF04DEF5CF048
:10B852006000E3F2D9FF6000E7F2DAFF6F007CFFDD
:10B86200BAF0040EDE266F007CFFBBF0000EDD2274
:10B872006000EBF2D9FF6000EFF2DAFF6F0078FFB1
:10B88200CCF06F0078FFCDF06F0078FFCEF06F0044
:10B8920078FFCFF06FEF5CF06000E3F2D9FF600059
:10B8A200E7F2DAFF6F007CFFBAF0040EDE266F00CB
:10B8B2007CFFBBF0000EDD226000EBF2D9FF6000DE
:10B8C200EFF2DAFF6F0078FFCCF06F0078FFCDF077
:10B8D2006F0078FFCEF06F0078FFCFF0020E6000AD
:10B8E200DBF2D9FF6000DFF2DAFFDE26000EDD2296
:10B8F200B4C070F0B5C071F0CCC072F0CDC073F0BE
:10B90200CEC074F0CFC075F0D3C076F0AFEC63F068
:10B9120070C0B4F071C0B5F0E2EF5DF06000DBF230
:10B92200D9FF6000DFF2DAFF6F007BFFF6FF6F00E6
:10B9320077FFF7FFF86A0800F550750AD8A4A4EF5C
:10B942005CF0A6EF5CF0F2EF5CF06000DBF2D9FF96
:10B952006000DFF2DAFFDE2A000EDD226000E3F291
:10B96200D9FF6000E7F2DAFF6F007CFFBAF0020E47
:10B97200DE266F007CFFBBF0000EDD226000EBF2E2
:10B98200D9FF6000EFF2DAFF6F0078FFBCF06F00C2
:10B9920074FFBDF0BCC0C4F0BDC0C5F00001C66BF1
:10B9A200C76BC86BC96BCA6BCB6BB4C01EF0B5C09A
:10B9B2001FF0C4C020F0C5C021F0C6C022F0C7C02D
:10B9C20023F0C8C024F0C9C025F0CAC026F0CBC0FD
:10B9D20027F0FFEC4BF01EC0B4F01FC0B5F0E2EF51
:10B9E2005DF06000DBF2D9FF6000DFF2DAFF6F008A
:10B9F2007BFFF6FF6F0077FFF7FFF86A0800F5504C
:10BA0200780AD8B407EF5DF009EF5DF020EF5DF042
:10BA12006000DBF2D9FF6000DFF2DAFF6F007BFF2C
:10BA2200F6FF6F0077FFF7FFF86A0800F550580A33
:10BA3200D8A41EEF5DF020EF5DF07FEF5DF06000B7
:10BA4200DBF2D9FF6000DFF2DAFF6F007BFFF6FF67
:10BA52006F0077FFF7FFF86A08006F00D4FFD3F09A
:10BA62006000DBF2D9FF6000DFF2DAFFDE2A000EAF
:10BA7200DD226000E3F2D9FF6000E7F2DAFF6F0037
:10BA82007CFFBAF0020EDE266F007CFFBBF0000ED8
:10BA9200DD226000EBF2D9FF6000EFF2DAFF6F0007
:10BAA20078FFBCF06F0074FFBDF0BCC0C4F0BDC035
:10BAB200C5F00001C66BC76BC86BC96BCA6BCB6B99
:10BAC200B4C01EF0B5C01FF0C4C020F0C5C021F044
:10BAD200C6C022F0C7C023F0C8C024F0C9C025F0F8
:10BAE200CAC026F0CBC027F0D3C028F026EC4FF016
:10BAF2001EC0B4F01FC0B5F0E2EF5DF06000DBF2F3
:10BB0200D9FF6000DFF2DAFF6F007BFFF6FF6F0004
:10BB120077FFF7FFF86A0800F550250AD8A494EFDA
:10BB22005DF096EF5DF0B0EF5DF06000DBF2D9FF03
:10BB32006000DFF2DAFFDE2A000EDD22000E046E64
:10BB4200250E036EB4C005F0B5C006F0F1EC44F06A
:10BB5200000E0001B56F010EB46FE2EF5DF0600000
:10BB6200DBF2D9FF6000DFF2DAFFDE2A000EDD220F
:10BB7200000E0001B56F000EB46FE2EF5DF06000E1
:10BB8200DBF2D9FF6000DFF2DAFF6F007BFFF6FF26
:10BB92006F0077FFF7FFF86A0800F550036E046A3A
:10BBA200B4C005F0B5C006F0F1EC44F06000DBF281
:10BBB200D9FF6000DFF2DAFFDE2A000EDD22A9EFF4
:10BBC2005DF01200A4EC41F0AFEC44F0000E010174
:10BBD200D96F000ED86F000EDB6FC80EDA6F6000EF
:10BBE2006BF7ABFFAC38070B0001F06FF0510101AE
:10BBF200EE6FEF6BEEC101F0EFC102F0036A046A6F
:10BC0200000E25EC4BF001C0F0F102C0F1F103C0CF
:10BC1200F2F104C0F3F1F0C18CF0F1C18DF0F2C188
:10BC22008EF0F3C18FF0000E0001886F000E896F55
:10BC3200000E8A6F400E8B6F04EC6AF088C0E2F14E
:10BC420089C0E3F18AC0E4F18BC0E5F1E2C123F0DF
:10BC5200E3C124F0E4C125F0E5C126F0000E136E25
:10BC6200000E146E800E156E3F0E166EAB50016EF6
:10BC7200026A036A046A000E25EC4BF001C00FF061
:10BC820002C010F003C011F004C012F089EC54F0AD
:10BC92000FC01FF010C020F011C021F012C022F01E
:10BCA20062EC52F01FC0E6F120C0E7F121C0E8F1DA
:10BCB20022C0E9F1000E236E000E246E800E256E66
:10BCC200400E266EE6C11FF0E7C120F0E8C121F068
:10BCD200E9C122F062EC52F01FC040F020C041F0F6
:10BCE20021C042F022C043F0000E446E240E456E85
:10BCF200F40E466E4A0E476E95EC50F040C0EAF1E3
:10BD020041C0EBF142C0ECF143C0EDF1000E406ED8
:10BD1200000E416E800E426E3F0E436EEAC144F049
:10BD2200EBC145F0ECC146F0EDC147F095EC50F0A7
:10BD320040C0DEF141C0DFF142C0E0F143C0E1F1B9
:10BD4200000E406E000E416E480E426E440E436E6F
:10BD5200DEC144F0DFC145F0E0C146F0E1C147F089
:10BD620049EC49F0D8B0B8EF5EF0BAEF5EF011EFEF
:10BD72005FF0EEC101F0EFC102F0036A046A000E47
:10BD820025EC4BF001C0F0F102C0F1F103C0F2F179
:10BD920004C0F3F1E70E0001DA6FFE0EDB6F6F00F5
:10BDA200ACFEDCF0DD6B6F00ACFEDEF0DF6B000E94
:10BDB200886F000E896F000E8A6F400E8B6FF0C184
:10BDC2008CF0F1C18DF0F2C18EF0F3C18FF004EC72
:10BDD2006AF088C0E0F089C0E1F08AC0E2F08BC06E
:10BDE200E3F0EAC1E4F0EBC1E5F0ECC1E6F0EDC14D
:10BDF200E7F0DEC1E8F0DFC1E9F0E0C1EAF0E1C15D
:10BE0200EBF0D8EC41F0CA0E0001DA6FFF0EDB6FE7
:10BE12006F00ACFEDCF0DD6BD8EC41F022EF5FF09E
:10BE22000101DA07D8A0DB07DBBF22EF5FF0DB51AD
:10BE320006E1DA05D8B020EF5FF022EF5FF0F0EF15
:10BE42005DF0000E236E000E246E800E256E430EF2
:10BE5200266E7D50016E026A036A046A010E25ECA9
:10BE62004BF001C01FF002C020F003C021F004C05B
:10BE720022F062EC52F01FC00FF020C010F021C07F
:10BE820011F022C012F07C50016E026A036A046A49
:10BE9200010E25EC4BF001C013F002C014F003C0F8
:10BEA20015F004C016F089EC54F00FC0BEF110C0BA
:10BEB200BFF111C0C0F112C0C1F15D0E0001DA6F15
:10BEC200FF0EDB6FBEC1DCF0BFC1DDF0C0C1DEF032
:10BED200C1C1DFF0D8EC41F07C50016E026A036A06
:10BEE200046A010E25EC4BF001C013F002C014F0FD
:10BEF20003C015F004C016F0000E236E000E246E6F
:10BF0200800E256E430E266E7D50016E026A036A14
:10BF1200046A010E25EC4BF001C01FF002C020F0B4
:10BF220003C021F004C022F062EC52F01FC00FF0F7
:10BF320020C010F021C011F022C012F089EC54F0A0
:10BF42000FC0C2F110C0C3F111C0C4F112C0C5F1DB
:10BF5200AB500001F06FF16B010EF027000EF123E0
:10BF6200F0C001F0F1C002F0000E02BEFF0E036E3F
:10BF7200046E010E25EC4BF001C044F002C045F006
:10BF820003C046F004C047F0000E236E000E246E7C
:10BF9200C80E256E420E266EC2C11FF0C3C120F02C
:10BFA200C4C121F0C5C122F062EC52F01FC040F0C2
:10BFB20020C041F021C042F022C043F095EC50F085
:10BFC20040C0C6F141C0C7F142C0C8F143C0C9F187
:10BFD200C6C140F0C7C141F0C8C142F0C9C143F077
:10BFE200000E446E000E456E800E466E400E476E89
:10BFF20095EC50F040C0CAF141C0CBF142C0CCF147
:10C0020043C0CDF1BB0E0001DA6FFF0EDB6FCAC178
:10C01200DCF0CBC1DDF0CCC1DEF0CDC1DFF0D8EC7D
:10C0220041F0000E0101DD6FDC69600073F79FFFD4
:10C03200A038070B0001F06FF0510101EE6FEF6BBA
:10C04200EEC101F0EFC102F0036A046A000E25ECB2
:10C052004BF001C0F0F102C0F1F103C0F2F104C0F3
:10C06200F3F1F0C18CF0F1C18DF0F2C18EF0F3C1A9
:10C072008FF0000E0001886F000E896F000E8A6F2C
:10C08200400E8B6F04EC6AF088C0E2F189C0E3F1E4
:10C092008AC0E4F18BC0E5F1E2C123F0E3C124F0F0
:10C0A200E4C125F0E5C126F0000E136E000E146EF9
:10C0B200800E156E3F0E166E9F50016E026A036A65
:10C0C200046A000E25EC4BF001C00FF002C010F024
:10C0D20003C011F004C012F089EC54F00FC01FF03D
:10C0E20010C020F011C021F012C022F062EC52F018
:10C0F2001FC0E6F120C0E7F121C0E8F122C0E9F15A
:10C10200000E236E000E246E800E256E400E266EEB
:10C11200E6C11FF0E7C120F0E8C121F0E9C122F039
:10C1220062EC52F01FC040F020C041F021C042F04A
:10C1320022C043F0000E446E240E456EF40E466E8D
:10C142004A0E476E95EC50F040C0EAF141C0EBF167
:10C1520042C0ECF143C0EDF1000E406E000E416EA4
:10C16200800E426E3F0E436EEAC144F0EBC145F0D1
:10C17200ECC146F0EDC147F095EC50F040C0DEF165
:10C1820041C0DFF142C0E0F143C0E1F1000E406E78
:10C19200000E416E610E426E440E436EDEC144F0EB
:10C1A200DFC145F0E0C146F0E1C147F049EC49F09A
:10C1B200D8B0DEEF60F0E0EF60F037EF61F0EEC193
:10C1C20001F0EFC102F0036A046A000E25EC4BF0A5
:10C1D20001C0F0F102C0F1F103C0F2F104C0F3F1C9
:10C1E200220E0001DA6FFF0EDB6F6F007CFEDCF0C7
:10C1F200DD6B6F007CFEDEF0DF6B000E886F000EE1
:10C20200896F000E8A6F400E8B6FF0C18CF0F1C106
:10C212008DF0F2C18EF0F3C18FF004EC6AF088C0A9
:10C22200E0F089C0E1F08AC0E2F08BC0E3F0EAC13D
:10C23200E4F0EBC1E5F0ECC1E6F0EDC1E7F0DEC100
:10C24200E8F0DFC1E9F0E0C1EAF0E1C1EBF0D8ECDF
:10C2520041F0DE0E0001DA6FFF0EDB6F6F007CFE35
:10C26200DCF0DD6BD8EC41F048EF61F00101DC0756
:10C27200D8A0DD07DDBF48EF61F0DD5106E1DC0546
:10C28200D8B046EF61F048EF61F016EF60F0850E2E
:10C292000001DA6FFF0EDB6F000EDD6F090EDC6F3F
:10C2A200D8EC41F09F500001F06FF16B010EF027C6
:10C2B200000EF123F0C001F0F1C002F0000E02BE48
:10C2C200FF0E036E046E010E25EC4BF001C044F02C
:10C2D20002C045F003C046F004C047F0000E406EB5
:10C2E200000E416E610E426E440E436E95EC50F0AC
:10C2F20040C0CEF141C0CFF142C0D0F143C0D1F134
:10C30200CEC140F0CFC141F0D0C142F0D1C143F023
:10C31200000E446E000E456E800E466E400E476E55
:10C3220095EC50F040C0D2F141C0D3F142C0D4F1FB
:10C3320043C0D5F1BB0E0001DA6FFF0EDB6FD2C135
:10C34200DCF0D3C1DDF0D4C1DEF0D5C1DFF0D8EC32
:10C3520041F0CDB2AFEF61F0B4EF61F00001F06BEC
:10C36200F02BB6EF61F00001F06BF051016E026A42
:10C3720071EC44F001C0D6F102C0D7F1000E026E9A
:10C382000A0E016E17EC42F00101D605D711D8A4AE
:10C39200CDEF61F0CFEF61F038EF62F0000E026E88
:10C3A2000A0E016E17EC42F00101D84BD92BD9517C
:10C3B20009E1060ED85DD8A0E1EF61F0E3EF61F08C
:10C3C200E7EF61F0000ED96F000ED86FAB0E0001DF
:10C3D200DA6FFF0EDB6FD8C1DCF0D9C1DDF0D8EC2B
:10C3E20041F038EF62F0000E026E000E016E2EEC8C
:10C3F20042F05FEF62F04D0EAB6E9B0E9F6E010E30
:10C40200026E370E016E2EEC42F05FEF62F0330ED9
:10C41200AB6E670E9F6E000E026ED00E016E2EEC9A
:10C4220042F05FEF62F0260EAB6E4D0E9F6E000E75
:10C43200026E9C0E016E2EEC42F05FEF62F01E0E59
:10C44200AB6E3D0E9F6E000E026E7C0E016E2EECE8
:10C4520042F05FEF62F0190EAB6E330E9F6E000E6C
:10C46200026E680E016E2EEC42F05FEF62F0D8C1F0
:10C47200F0F0D9C1F1F00001F151000AD8B444EF53
:10C4820062F05FEF62F0F051000AD8B4F4EF61F0AD
:10C49200010AD8B4FCEF61F0030AD8B408EF62F0E5
:10C4A200010AD8B414EF62F0070AD8B420EF62F0A0
:10C4B200010AD8B42CEF62F05FEF62F0AC38070BE0
:10C4C2000001F06FF0510101EE6FEF6BEEC101F070
:10C4D200EFC102F0036A046A000E25EC4BF001C0C2
:10C4E200F0F102C0F1F103C0F2F104C0F3F1F0C1C6
:10C4F2008CF0F1C18DF0F2C18EF0F3C18FF0000E1D
:10C502000001886F000E896F000E8A6F400E8B6FDC
:10C5120004EC6AF088C0E2F189C0E3F18AC0E4F178
:10C522008BC0E5F1E2C123F0E3C124F0E4C125F0C0
:10C53200E5C126F0000E136E000E146E800E156E0D
:10C542003F0E166EAB50016E026A036A046A000E59
:10C5520025EC4BF001C00FF002C010F003C011F047
:10C5620004C012F089EC54F00FC01FF010C020F08C
:10C5720011C021F012C022F062EC52F01FC0E6F1AD
:10C5820020C0E7F121C0E8F122C0E9F1000E236EDC
:10C59200000E246E800E256E400E266EE6C11FF040
:10C5A200E7C120F0E8C121F0E9C122F062EC52F0CB
:10C5B2001FC040F020C041F021C042F022C043F031
:10C5C200000E446E240E456EF40E466E4A0E476E01
:10C5D20095EC50F040C0EAF141C0EBF142C0ECF101
:10C5E20043C0EDF1000E406E000E416E800E426EB1
:10C5F2003F0E436EEAC144F0EBC145F0ECC146F098
:10C60200EDC147F095EC50F0A038070B0001F06F38
:10C61200F0510101EE6FEF6BEEC101F0EFC102F0DC
:10C62200036A046A000E25EC4BF001C0F0F102C06F
:10C63200F1F103C0F2F104C0F3F1F0C18CF0F1C1E9
:10C642008DF0F2C18EF0F3C18FF0000E0001886F01
:10C65200000E896F000E8A6F400E8B6F04EC6AF039
:10C6620088C0E2F189C0E3F18AC0E4F18BC0E5F150
:10C67200E2C123F0E3C124F0E4C125F0E5C126F0D4
:10C68200000E136E000E146E800E156E3F0E166EA7
:10C692009F50016E026A036A046A000E25EC4BF099
:10C6A20001C00FF002C010F003C011F004C012F07C
:10C6B20089EC54F00FC01FF010C020F011C021F01F
:10C6C20012C022F062EC52F01FC0E6F120C0E7F186
:10C6D20021C0E8F122C0E9F1000E236E000E246EA3
:10C6E200800E256E400E266EE6C11FF0E7C120F0D7
:10C6F200E8C121F0E9C122F062EC52F01FC040F023
:10C7020020C041F021C042F022C043F0000E446E2E
:10C71200240E456EF40E466E4A0E476E95EC50F0AE
:10C7220040C0EAF141C0EBF142C0ECF143C0EDF18F
:10C73200000E406E000E416E800E426E3F0E436E42
:10C74200EAC144F0EBC145F0ECC146F0EDC147F05F
:10C7520095EC50F0AAEF61F0FEEF7FF0000E0001C1
:10C76200976F000E966F72C0A8F073C0A9F074C0E4
:10C77200AAF075C0ABF0ABBFC3EF63F0C1EF63F0DB
:10C78200D9EF63F0000E976F010E966FA8C001F00B
:10C79200A9C002F0AAC003F0ABC004F07EEC42F0E4
:10C7A20001C0A8F002C0A9F003C0AAF004C0ABF017
:10C7B200000E0001AF6F000EAE6FF6C09AF0F7C028
:10C7C2009BF096519711D8A4E9EF63F0EBEF63F079
:10C7D200F2EF63F0FAA5F0EF63F0F2EF63F00CEF23
:10C7E20064F096519711D8A4F9EF63F0FBEF63F070
:10C7F20001EF64F0000E7D6F2B0E7C6F05EF64F08D
:10C80200000E7D6F2D0E7C6F7CC000F2AE4BAF2B05
:10C812009A07D8A09B07A8C001F0A9C002F0AAC03D
:10C8220003F0ABC004F0CAEC48F001040210D8A433
:10C832001DEF64F01FEF64F076EF64F0BF0E0001AD
:10C84200776FFF0E786F7651796F7A6B7751792710
:10C8520078517A237A510AE11A0E795DD8A034EF21
:10C8620064F037EF64F0010E38EF64F0000E7E6F73
:10C872007F6B7E517F11D8B441EF64F043EF64F0D7
:10C8820051EF64F0000EAE25016E020EAF21026E72
:10C89200E70E036EFF0E046E3CEC44F05DEF64F0B5
:10C8A200000EAE25016E020EAF21026EEF0E036E78
:10C8B200FF0E046E3CEC44F00001FD0E9A27FF0EC1
:10C8C2009B2370C013F071C014F0000E156E020E9F
:10C8D200166E9AC017F09BC018F0A1EC46F013C078
:10C8E20070F014C071F003EF6AF0A8C001F0A9C0A3
:10C8F20002F0AAC003F0ABC004F0CAEC48F0015049
:10C902000210D8A487EF64F089EF64F0E0EF64F0DE
:10C91200BF0E0001776FFF0E786F7651796F7A6BD9
:10C922007751792778517A237A510AE11A0E795D83
:10C93200D8A09EEF64F0A1EF64F0010EA2EF64F0C4
:10C94200000E806F816B80518111D8B4ABEF64F01F
:10C95200ADEF64F0BBEF64F0000EAE25016E020E87
:10C96200AF21026EEB0E036EFF0E046E3CEC44F040
:10C97200C7EF64F0000EAE25016E020EAF21026E0B
:10C98200F30E036EFF0E046E3CEC44F00001FD0E4C
:10C992009A27FF0E9B2370C013F071C014F0000E93
:10C9A200156E020E166E9AC017F09BC018F0A1EC1D
:10C9B20046F013C070F014C071F003EF6AF0000E7D
:10C9C2000001B06F000EB16F800EB26F3F0EB36FF9
:10C9D200000EAD6F000EAC6FA8C001F0A9C002F04E
:10C9E200AAC003F0ABC004F0000E056E000E066E86
:10C9F200000E076E000E086E3CEC45F0D8B004EF56
:10CA020065F006EF65F089EF65F025EF65F0B0C0DF
:10CA12001FF0B1C020F0B2C021F0B3C022F0000E6E
:10CA2200236E000E246E200E256E410E266E62ECE1
:10CA320052F01FC0B0F020C0B1F021C0B2F022C04D
:10CA4200B3F00001AC4BAD2BA8C040F0A9C041F03F
:10CA5200AAC042F0ABC043F0000E236E000E246E5B
:10CA6200200E256E410E266EB0C01FF0B1C020F020
:10CA7200B2C021F0B3C022F062EC52F01FC044F009
:10CA820020C045F021C046F022C047F049EC49F0F1
:10CA9200D8B04EEF65F050EF65F008EF65F070EF3B
:10CAA20065F0B0C040F0B1C041F0B2C042F0B3C0D6
:10CAB20043F0000E446E000E456E200E466E410E8F
:10CAC200476E95EC50F040C0B0F041C0B1F042C0AA
:10CAD200B2F043C0B3F00001AC07D8A0AD07A8C0C4
:10CAE20040F0A9C041F0AAC042F0ABC043F0B0C0D0
:10CAF20044F0B1C045F0B2C046F0B3C047F049ECD3
:10CB020049F0D8A087EF65F089EF65F052EF65F044
:10CB120076C007F0086AD8EC43F0075000019D6F19
:10CB22009DC09CF0670E9D19D8A49AEF65F09CEF0A
:10CB320065F0C2EF65F0F851F911D8A4A3EF65F0E2
:10CB4200A5EF65F0A9EF65F0000EF96F010EF86F21
:10CB5200F9BFB6EF65F0F95106E1F805D8B0B4EFC8
:10CB620065F0B6EF65F0BCEF65F0000E996F060E4A
:10CB7200986FCBEF65F0F8C098F0F9C099F0CBEF61
:10CB820065F0F9BFC7EF65F0C9EF65F0B6EF65F084
:10CB9200BCEF65F0670E9D19D8A4D2EF65F0D4EF13
:10CBA20065F003EF66F0ADAFE2EF65F0FC0EAC5D51
:10CBB200FF0EAD59D8A0E0EF65F0E2EF65F001EFAE
:10CBC20066F0FF0E776FFF0E786F98C079F099C00C
:10CBD2007AF07751792778517A23AC51795D7A517D
:10CBE200800A7B6FAD51800A7B59D8A0FBEF65F0BC
:10CBF200FDEF65F001EF66F0660E9C6F03EF66F0E5
:10CC0200650E9C6F98C08EF099C08FF0670E9D19CB
:10CC1200D8A40EEF66F010EF66F020EF66F0660E15
:10CC22009C19D8A417EF66F019EF66F022EF66F0B0
:10CC3200ADBF20EF66F01EEF66F022EF66F08E4B7E
:10CC42008F2B660E9C19D8A429EF66F02BEF66F0A5
:10CC52004BEF66F0ADBF32EF66F030EF66F03EEFBD
:10CC620066F0000EB06F000EB16F800EB26F3F0E15
:10CC7200B36F000EAD6F000EAC6F670E9D19D8B486
:10CC820045EF66F047EF66F04BEF66F0AC518E274A
:10CC9200AD518F23000EA76F000EA66FA8C09EF0A5
:10CCA200A9C09FF0AAC0A0F0ABC0A1F0B0C090F0A4
:10CCB200B1C091F0B2C092F0B3C093F0DCEF66F075
:10CCC2009EC040F09FC041F0A0C042F0A1C043F01E
:10CCD200B0C044F0B1C045F0B2C046F0B3C047F0B6
:10CCE20095EC50F040C059F041C05AF042C05BF0A0
:10CCF20043C05CF001EC4DF059C0A2F05AC0A3F061
:10CD02005BC0A4F05CC0A5F0A2C001F0A3C002F019
:10CD1200A4C003F0A5C004F0CBEC49F001C094F02C
:10CD220002C095F09EC038F09FC039F0A0C03AF022
:10CD3200A1C03BF0B0C023F0B1C024F0B2C025F0D6
:10CD4200B3C026F0A2C01FF0A3C020F0A4C021F0FF
:10CD5200A5C022F062EC52F01FC03CF020C03DF0B2
:10CD620021C03EF022C03FF02FEC43F038C09EF0CD
:10CD720039C09FF03AC0A0F03BC0A1F0B0C040F073
:10CD8200B1C041F0B2C042F0B3C043F0000E446EF5
:10CD9200000E456E200E466E410E476E95EC50F029
:10CDA20040C0B0F041C0B1F042C0B2F043C0B3F0F5
:10CDB2000001A64BA72B8E51A65DA751800A776F63
:10CDC2008F51800A7759D8A0E9EF66F0EBEF66F051
:10CDD20061EF66F0B0C01FF0B1C020F0B2C021F028
:10CDE200B3C022F0000E236E000E246EA00E256E3C
:10CDF200400E266E62EC52F01FC0A2F020C0A3F0DB
:10CE020021C0A4F022C0A5F09EC040F09FC041F016
:10CE1200A0C042F0A1C043F0A2C044F0A3C045F0BC
:10CE2200A4C046F0A5C047F049EC49F0D8B01CEFC9
:10CE320067F01EEF67F029EF67F0000E0001A26FA6
:10CE4200000EA36F000EA46F000EA56F52EF67F0E5
:10CE52009EC001F09FC002F0A0C003F0A1C004F088
:10CE6200A2C005F0A3C006F0A4C007F0A5C008F058
:10CE72003CEC45F0D8A040EF67F042EF67F052EF8C
:10CE820067F0000194B148EF67F04AEF67F052EFA4
:10CE920067F0000EA26F000EA36F000EA46F000ECB
:10CEA200A56FA8C00FF0A9C010F0AAC011F0ABC0C6
:10CEB20012F0A2C013F0A3C014F0A4C015F0A5C0D4
:10CEC20016F089EC54F00FC09EF010C09FF011C014
:10CED200A0F012C0A1F09EC040F09FC041F0A0C0DF
:10CEE20042F0A1C043F0000E236E000E246E200E0D
:10CEF200256E410E266E90C01FF091C020F092C0A8
:10CF020021F093C022F062EC52F01FC044F020C026
:10CF120045F021C046F022C047F049EC49F0D8A0C4
:10CF220095EF67F097EF67F0C0EF67F00001AC4B49
:10CF3200AD2B90C01FF091C020F092C021F093C0A1
:10CF420022F0000E236E000E246E200E256E410E7E
:10CF5200266E62EC52F01FC090F020C091F021C00A
:10CF620092F022C093F0660E00019C19D8A4BCEF87
:10CF720067F0BEEF67F0C0EF67F08E4B8F2B90C06B
:10CF8200B0F091C0B1F092C0B2F093C0B3F0650EB0
:10CF920000019C19D8B4D0EF67F0D2EF67F0D8EF58
:10CFA20067F0ACC08CF0ADC08DF0DCEF67F0000E26
:10CFB2008D6F000E8C6F000E8B6F000E8A6F000E4D
:10CFC200896F000E886F000EA76F000EA66FD7EF55
:10CFD20068F09EC040F09FC041F0A0C042F0A1C0E6
:10CFE20043F0B0C044F0B1C045F0B2C046F0B3C0A7
:10CFF20047F095EC50F040C059F041C05AF042C0A1
:10D002005BF043C05CF001EC4DF059C0A2F05AC095
:10D01200A3F05BC0A4F05CC0A5F0A2C001F0A3C065
:10D0220002F0A4C003F0A5C004F0CBEC49F001C0AB
:10D0320094F002C095F00001FAB922EF68F024EFF3
:10D0420068F041EF68F094519511D8A42BEF68F085
:10D052002DEF68F041EF68F0670E9D19D8A434EF08
:10D0620068F036EF68F041EF68F08DBF3DEF68F091
:10D072003BEF68F041EF68F0884B892B8BEF68F04B
:10D082008A518B11D8A448EF68F04AEF68F074EF28
:10D0920068F08DBF51EF68F04FEF68F074EF68F001
:10D0A200000EAE25D96E020EAF21DA6E2E0EDF6EA5
:10D0B200AE4BAF2B9A07D8A09B07000E8B6F010EC9
:10D0C2008A6F74EF68F0000EAE25D96E020EAF21A2
:10D0D200DA6E300EDF6EAE4BAF2B9A07D8A09B07ED
:10D0E2008807D8A0890788518911D8A47BEF68F0F6
:10D0F2007DEF68F064EF68F0000EAE25D96E020E87
:10D10200AF21DA6E9451300FDF6EAE4BAF2B9A0720
:10D11200D8A09B079EC038F09FC039F0A0C03AF05B
:10D12200A1C03BF0B0C023F0B1C024F0B2C025F0E2
:10D13200B3C026F0A2C01FF0A3C020F0A4C021F00B
:10D14200A5C022F062EC52F01FC03CF020C03DF0BE
:10D1520021C03EF022C03FF02FEC43F038C09EF0D9
:10D1620039C09FF03AC0A0F03BC0A1F0B0C040F07F
:10D17200B1C041F0B2C042F0B3C043F0000E446E01
:10D18200000E456E200E466E410E476E95EC50F035
:10D1920040C0B0F041C0B1F042C0B2F043C0B3F001
:10D1A20000018C07D8A08D07A64BA72B8E51A65D38
:10D1B200A751800A776F8F51800A7759D8B0E4EF70
:10D1C20068F0E6EF68F0F4EF68F0AFBFF2EF68F0F6
:10D1D200AF5109E14B0EAE5DD8A0F2EF68F0F4EF6B
:10D1E20068F0EAEF67F08A518B11D8A4FBEF68F080
:10D1F200FDEF68F00EEF69F0FAA902EF69F004EFB3
:10D2020069F00EEF69F0000EAE25D96E020EAF2165
:10D21200DA6E2E0EDF6EAE4BAF2B000EAE25D96E40
:10D22200020EAF21DA6E000EDF6E650E9C19D8A4D5
:10D232001DEF69F01FEF69F0F1EF69F0000EA76FC3
:10D242004F0EA66F000EA625D96E020EA721DA6E2A
:10D25200000EDF6E000E976F000E966FADBF36EFB9
:10D2620069F034EF69F03EEF69F0000E976F010E3E
:10D27200966FAC6DAD1FD8B0AD2B000E996F020E3C
:10D28200986F6FEF69F0A607D8A0A707000EA62532
:10D29200D96E020EA721DA6EACC001F0ADC002F069
:10D2A200000E046E0A0E036EE7EC45F00150300FDB
:10D2B200DF6EACC001F0ADC002F0000E046E0A0ECB
:10D2C200036E3FEC46F001C0ACF002C0ADF00001CD
:10D2D2009807D8A099079A07D8A09B07AC51AD111F
:10D2E200D8A476EF69F078EF69F044EF69F099BF5E
:10D2F20085EF69F0995106E19805D8B083EF69F09E
:10D3020085EF69F044EF69F0A607D8A0A707965108
:10D312009711D8A48FEF69F091EF69F097EF69F058
:10D32200000E836F2B0E826F9BEF69F0000E836FEE
:10D332002D0E826F000EA625D96E020EA721DA6E7F
:10D3420060000BF2DFFF9A07D8A09B07A607D8A0C0
:10D35200A707BF0E776FFF0E786F7651796F7A6BE2
:10D362007751792778517A237A510AE11A0E795D39
:10D37200D8A0BEEF69F0C1EF69F0010EC2EF69F00B
:10D38200000E866F876B86518711D8A4CBEF69F0A8
:10D39200CDEF69F0D3EF69F0000E856F650E846FF3
:10D3A200D7EF69F0000E856F450E846F000EA6253B
:10D3B200D96E020EA721DA6E600013F2DFFF9A0720
:10D3C200D8A09B07000EAE25016E020EAF21026EA1
:10D3D200000EA625036E020EA721046E3CEC44F05B
:10D3E20070C013F071C014F0000E156E020E166EAE
:10D3F2009AC017F09BC018F0A1EC46F013C070F071
:10D4020014C071F0120088C0B8F189C0B9F18AC0A5
:10D41200BAF18BC0BBF1B8C160F1B9C161F1BAC157
:10D4220062F1BBC163F18CC0B8F18DC0B9F18EC09D
:10D43200BAF18FC0BBF1B8C184F1B9C185F1BAC1EB
:10D4420086F1BBC187F1FF0E01016015A86FFF0EC7
:10D452006115A96FFF0E6215AA6F7F0E6315AB6F80
:10D46200FF0E8415986FFF0E8515996FFF0E8615B6
:10D472009A6F7F0E87159B6F985199119A119B1184
:10D48200D8A446EF6AF048EF6AF053EF6AF0000E54
:10D492000001886F000E896F800E8A6F3F0E8B6FBE
:10D4A20034EF7FF0800E621909E13F0E63196011BB
:10D4B2006111D8A45FEF6AF061EF6AF06CEF6AF075
:10D4C200000E0001886F000E896F800E8A6F3F0E7A
:10D4D2008B6F34EF7FF0ABBF7DEF6AF0A805000ED3
:10D4E200A959800EAA597F0EAB59D8B07BEF6AF0CA
:10D4F2007DEF6AF08EEF6AF09BBF8CEF6AF09805C1
:10D50200000E9959800E9A597F0E9B59D8A08CEF24
:10D512006AF08EEF6AF0AAEF6AF088C00FF089C055
:10D5220010F08AC011F08BC012F08CC013F08DC0C5
:10D5320014F08EC015F08FC016F089EC54F00FC0B5
:10D5420088F010C089F011C08AF012C08BF034EF5D
:10D552007FF0000E506F000E516F000E526F000EE2
:10D56200536F63BFB9EF6AF0B7EF6AF085EF6BF004
:10D572009BBFC5EF6AF0800E9A5D4B0E9B59D8A0F7
:10D58200C5EF6AF0C7EF6AF0D1EF6AF0020E506F92
:10D59200000E516F000E526F000E536F85EF6BF04D
:10D5A2009BBFDDEF6AF0800E9A5D3F0E9B59D8A0BB
:10D5B200DDEF6AF0DFEF6AF085EF6BF0170E000126
:10D5C200906F98C191F099C192F09AC193F09BC16A
:10D5D20094F09067EFEF6AF0F7EF6AF094359433C6
:10D5E200933392339133902FEAEF6AF0810E000168
:10D5F20091250101A06FFF0E000192210101A16F8F
:10D60200FF0E000193210101A26FFF0E0001942180
:10D612000101A36FA05117080001906F98C191F00A
:10D6220099C192F09AC193F09BC194F090671CEF5C
:10D632006BF024EF6BF09435943393339233913340
:10D64200902F17EF6BF091C0ACF192C0ADF193C087
:10D65200AEF194C0AFF10101A05117080001906F23
:10D66200ACC191F0ADC192F0AEC193F0AFC194F0F4
:10D67200902B41EF6BF0D8909137923793379437D4
:10D68200902F3CEF6BF0010198510001911913E1C9
:10D6920001019951000192190EE101019A51000113
:10D6A200931909E101019B5100019419D8A45CEF7F
:10D6B2006BF05EEF6BF085EF6BF0010E0101AC15C4
:10D6C2000001906F000E0101AD150001916F000E77
:10D6D2000101AE150001926F000E0101AF150001AC
:10D6E200936F905102080101506F000E0001915595
:10D6F2000101516F000E000192550101526F000E9F
:10D70200000193550101536F800E01019A1909E13D
:10D712007F0E9B1998119911D8A492EF6BF094EF98
:10D722006BF000EF6CF0800EAA1909E13F0EAB1905
:10D73200A811A911D8A4A0EF6BF0A2EF6BF0ADEF86
:10D742006BF0000E0001886F000E896F800E8A6FE9
:10D752003F0E8B6F34EF7FF0ABBFBCEF6BF0A805D1
:10D76200000EA959800EAA593F0EAB59D8A0BCEFA2
:10D772006BF0BEEF6BF0DAEF6BF087BFC5EF6BF0CB
:10D78200C3EF6BF0D0EF6BF0000E0001886F000E5C
:10D79200896F000E8A6F000E8B6F34EF7FF08CC0A2
:10D7A20088F08DC089F08EC08AF08FC08BF034EF84
:10D7B2007FF087BFE1EF6BF0DFEF6BF0F5EF6BF01F
:10D7C2008CC001F08DC002F08EC003F08FC004F057
:10D7D2007EEC42F001C088F002C089F003C08AF0FA
:10D7E20004C08BF034EF7FF0000E0001886F000E52
:10D7F200896F000E8A6F000E8B6F34EF7FF0800E00
:10D802009A1909E13F0E9B1998119911D8A40CEFAE
:10D812006CF00EEF6CF03BEF6CF087BF15EF6CF025
:10D8220013EF6CF031EF6CF0000E406E000E416EA3
:10D83200800E426E3F0E436E88C044F089C045F0B0
:10D842008AC046F08BC047F095EC50F040C088F09B
:10D8520041C089F042C08AF043C08BF034EF7FF0C0
:10D8620088C088F089C089F08AC08AF08BC08BF0AA
:10D8720034EF7FF0400E8719841185118611D8A4E8
:10D8820045EF6CF047EF6CF063EF6CF088C01FF06F
:10D8920089C020F08AC021F08BC022F088C023F01A
:10D8A20089C024F08AC025F08BC026F062EC52F0C9
:10D8B2001FC088F020C089F021C08AF022C08BF0FE
:10D8C20034EF7FF03F0E8719841185118611D8A499
:10D8D2006DEF6CF06FEF6CF08AEF6CF063BF74EF7A
:10D8E2006CF076EF6CF08AEF6CF088C04CF089C077
:10D8F2004DF08AC04EF08BC04FF0E9EC56F04CC0B0
:10D9020088F04DC089F04EC08AF04FC08BF034EFE2
:10D912007FF088C001F089C002F08AC003F08BC09A
:10D9220004F048EC42F001C070F102C071F103C092
:10D9320072F104C073F1800E0101AA190BE17F0E8E
:10D94200AB19A811A911D8B4A9EF6CF0ABEF6CF028
:10D95200C4EF6CF0A851A911AA11AB11D8B4B4EF5D
:10D962006CF0B6EF6CF0C4EF6CF0800EAA1909E10E
:10D972003F0EAB19A811A911D8A4C2EF6CF0C4EFE5
:10D982006CF08FEF6DF070C1B4F171C1B5F172C17D
:10D99200B6F173C1B7F187BFD3EF6CF0D1EF6CF082
:10D9A200EDEF6CF0000E406E000E416E800E426E86
:10D9B2003F0E436EB4C144F0B5C145F0B6C146F066
:10D9C200B7C147F095EC50F040C0B4F141C0B5F199
:10D9D20042C0B6F143C0B7F1010163BFF5EF6CF08D
:10D9E200F3EF6CF085EF6DF0000EA8250001906F4B
:10D9F200000E0101A9210001916F800E0101AA21EF
:10DA02000001926FC00E0101AB210001936F010171
:10DA1200505100019011946F010151510001911177
:10DA2200956F0101525100019211966F01015351FC
:10DA320000019311976F9451951196119711D8A4E3
:10DA420025EF6DF027EF6DF067EF6DF0B4C13CF09C
:10DA5200B5C13DF0B6C13EF0B7C13FF0B4C138F038
:10DA6200B5C139F0B6C13AF0B7C13BF02FEC43F083
:10DA720038C040F039C041F03AC042F03BC043F0F8
:10DA8200B4C13CF0B5C13DF0B6C13EF0B7C13FF004
:10DA9200B4C138F0B5C139F0B6C13AF0B7C13BF004
:10DAA2002FEC43F038C044F039C045F03AC046F09C
:10DAB2003BC047F095EC50F040C0B4F141C0B5F125
:10DAC20042C0B6F143C0B7F185EF6DF001015005D8
:10DAD200511152115311D8A471EF6DF073EF6DF023
:10DAE20085EF6DF0B4C101F0B5C102F0B6C103F02B
:10DAF200B7C104F07EEC42F001C0B4F102C0B5F14E
:10DB020003C0B6F104C0B7F1B4C188F0B5C189F061
:10DB1200B6C18AF0B7C18BF034EF7FF0000E886F88
:10DB2200000E896F800E8A6F3F0E8B6F63BF9EEF70
:10DB32006DF09CEF6DF0FCEF6DF0505151115211F0
:10DB42005311D8A4A7EF6DF0A9EF6DF0E9EF6DF0D6
:10DB520088C03CF089C03DF08AC03EF08BC03FF0E7
:10DB620088C038F089C039F08AC03AF08BC03BF0E7
:10DB72002FEC43F038C040F039C041F03AC042F0D7
:10DB82003BC043F088C03CF089C03DF08AC03EF003
:10DB92008BC03FF088C038F089C039F08AC03AF0B3
:10DBA2008BC03BF02FEC43F038C044F039C045F055
:10DBB2003AC046F03BC047F095EC50F040C088F0C8
:10DBC20041C089F042C08AF043C08BF034EF7FF04D
:10DBD2005005511152115311D8A4F2EF6DF0F4EF28
:10DBE2006DF0FCEF6DF0000E886F000E896F800EF5
:10DBF2008A6FBF0E8B6F9BBF0BEF6EF09805000E06
:10DC02009959000E9A594D0E9B59D8A00BEF6EF000
:10DC12000DEF6EF092EF70F0ABBF1FEF6EF0F80EEB
:10DC2200A85DFF0EA9597F0EAA593F0EAB59D8B075
:10DC32001DEF6EF01FEF6EF092EF6EF087BF24EFD4
:10DC42006EF026EF6EF05CEF6EF0600E236E420E09
:10DC5200246EA20E256E0D0E266E88C11FF089C19C
:10DC620020F08AC121F08BC122F062EC52F01FC079
:10DC7200A4F120C0A5F121C0A6F122C0A7F1A4C140
:10DC82001FF0A5C120F0A6C121F0A7C122F0600EAD
:10DC9200236E420E246EA20E256E0D0E266E62ECCF
:10DCA20052F01FC088F020C089F021C08AF022C043
:10DCB2008BF034EF7FF0CA0E236EF20E246E490E03
:10DCC200256E710E266E88C11FF089C120F08AC1AF
:10DCD20021F08BC122F062EC52F01FC0A4F120C0EF
:10DCE200A5F121C0A6F122C0A7F1A4C11FF0A5C1D0
:10DCF20020F0A6C121F0A7C122F0CA0E236EF20EB7
:10DD0200246E490E256E710E266E62EC52F01FC013
:10DD120088F020C089F021C08AF022C08BF034EF55
:10DD22007FF0ABBFA2EF6EF0080EA85D000EA959FE
:10DD3200800EAA593F0EAB59D8A0A2EF6EF0A4EF05
:10DD42006EF01FEF6FF087BFB3EF6EF08751861151
