:020000040000FA
:04000000FEEF7FF0A0
:107CDE00026E025074EC3EF01200016E3901A6A73E
:107CEE007BEF3EF07DEF3EF075EF3EF0600007F06B
:107CFE00D2FD1200FF0E056EFF0E066EFF0E076E12
:107D0E007F0E086E05C001F006C002F007C003F03A
:107D1E0008C004F01200C20E0001C86F000EC96F39
:107D2E00000EB86F000EB96FC0C0BAF0C1C0BBF084
:107D3E00C80EBC6F000EBD6F9FEC3FF0120000EE40
:107D4E005CF2500EEE6AE806FDE100EEBCF10C0EA0
:107D5E00EE6AE806FDE100EEE8F0150EEE6AE806C2
:107D6E00FDE10001DBEF50F0C0C105F0C1C106F02E
:107D7E00C2C107F0C3C108F001C005F002C006F091
:107D8E0003C007F004C008F0089E05C001F006C04D
:107D9E0002F007C003F008C004F01200465047106E
:107DAE0048104910D8B4DEEF3EF0E0EF3EF0E8EFB9
:107DBE003EF0000E461A000E471A000E481A800EAC
:107DCE00491A46C046F047C047F048C048F049C07F
:107DDE0049F01200BF0E036EFF0E046E01C005F0D7
:107DEE0002C006F0035005260450062206500AE192
:107DFE001A0E055CD8A006EF3FF009EF3FF0010E1A
:107E0E000AEF3FF0000E016E026A120001C003F08D
:107E1E0002C004F015EF3FF0014A022A600007F09D
:107E2E00D9FF60000BF0DAFFDF50D8A421EF3FF04E
:107E3E0023EF3FF013EF3FF00350015C016E04504F
:107E4E000258026E1200000E126E000E116E3BEF03
:107E5E003FF010C003F0046A0EC005F00FC006F02C
:107E6E0008EC40F0114A122A11500C24D96E12500F
:107E7E000D20DA6EDF50106E1050D8A449EF3FF08F
:107E8E004BEF3FF030EF3FF01200000E2E1A000EB7
:107E9E002F1A000E301A800E311A2AC01AF02BC07B
:107EAE001BF02CC01CF02DC01DF02EC01EF02FC0DC
:107EBE001FF030C020F031C021F077EC55F01AC021
:107ECE002AF01BC02BF01CC02CF01DC02DF0120090
:107EDE00BF0E096EFF0E0A6E07C00BF008C00CF045
:107EEE0009500B260A500C220C500AE11A0E0B5C9C
:107EFE00D8A084EF3FF087EF3FF0010E88EF3FF000
:107F0E00000E0D6E0E6A0D500E10D8B491EF3FF0AC
:107F1E0093EF3FF09AEF3FF0200E0710076E0850D8
:107F2E00086E9EEF3FF007C007F008C008F0120081
:107F3E00BAC0BEF0BBC0BFF0000E0001EF6F000E66
:107F4E00EE6FBDEF3FF0B8C0A4F0B9C0A5F0BE0E05
:107F5E00A66F000EA76FBCC0A8F0BDC0A9F09AEC2A
:107F6E004CF00001A451EE27A551EF236000FBF267
:107F7E00F6FF6000FFF2F7FFF86A0800F5500009FF
:107F8E00D8A4CCEF3FF0CEEF3FF0AAEF3FF0EEC01B
:107F9E00B8F0EFC0B9F0120003C007F004C008F04B
:107FAE0001C009F002C00AF00750056E0850066EB7
:107FBE00074A082A600017F0F6FF60001BF0F7FF73
:107FCE00000EF86E600027F0D9FF60002BF0DAFF8C
:107FDE00094A0A2A0F0EF76403D00800F55007D09D
:107FEE006F00DBFFE9FF6F00DFFFEAFFEF50DF6E90
:107FFE00DF50D8A405EF40F007EF40F0DBEF3FF085
:10800E00120005500610D8B40FEF40F011EF40F0FB
:10801E001AEF40F005500610D8A418EF40F01AEFF2
:10802E0040F01FEF40F003506FEC3EF052EF40F087
:10803E0020EE04F00550D9260650DA22DE50DE106E
:10804E00D8B42CEF40F02EEF40F049EF40F020EE88
:10805E0004F00550D9260650DA2210EE02F0055033
:10806E00E1260650E222DE50E65CE650800A0B6EF8
:10807E00DE50800A0B58D8B047EF40F049EF40F081
:10808E0052EF40F020EE02F00550D9260650DA22CB
:10809E00DE2A000EDD221200000E0114096E000E03
:1080AE0002140A6E800E03140B6E7F0E04140C6EF7
:1080BE0009500A100B100C10D8A468EF40F06AEFAC
:1080CE0040F072EF40F0000E016E000E026E000ED8
:1080DE00036E000E046E000E0514096E000E0614DB
:1080EE000A6E800E07140B6E7F0E08140C6E09506C
:1080FE000A100B100C10D8A487EF40F089EF40F057
:10810E0091EF40F0000E056E000E066E000E076E2B
:10811E00000E086E055001180FE1065002180CE112
:10812E000750031809E108500418D8B4A1EF40F025
:10813E00A3EF40F0A6EF40F0D890A7EF40F0D88024
:10814E001200000E066E02BEB1EF40F0AFEF40F02F
:10815E00B7EF40F0016C021ED8B0022A010E066E77
:10816E0004BEBEEF40F0BCEF40F0C2EF40F0036C37
:10817E00041ED8B0042A03500410D8B4C9EF40F03E
:10818E00CBEF40F0EFEF40F0010E056ED3EF40F075
:10819E00D89003360436052A04AED8EF40F0DAEF55
:1081AE0040F0CFEF40F00350015C04500258D8A0CD
:1081BE00E3EF40F0E5EF40F0E9EF40F00350015EF1
:1081CE000450025AD89004320332052EDAEF40F0F2
:1081DE000650D8B4F5EF40F0F7EF40F0FBEF40F06B
:1081EE00016C021ED8B0022A01C001F002C002F0DA
:1081FE001200000E066E04BE09EF41F007EF41F0CB
:10820E000FEF41F0036C041ED8B0042A010E066E67
:10821E0002BE16EF41F014EF41F01CEF41F0016C7D
:10822E00021ED8B0022A010E061A000E086E000EAB
:10823E00076E03500410D8B427EF41F029EF41F038
:10824E0051EF41F0010E056E31EF41F0D89003363B
:10825E000436052A04AE36EF41F038EF41F02DEF2B
:10826E0041F0D890073608360350015C045002588E
:10827E00D8A044EF41F046EF41F04BEF41F00350F0
:10828E00015E0450025A0780D89004320332052E44
:10829E0038EF41F00650D8B457EF41F059EF41F0A6
:1082AE005DEF41F0076C081ED8B0082A07C001F038
:1082BE0008C002F012000001F4A168EF41F06AEF6D
:1082CE0041F074EF41F015C00CF016C00DF013C064
:1082DE000EF014C00FF02AEC3FF018BE79EF41F00B
:1082EE007BEF41F081EF41F017C01CF018C01DF07C
:1082FE0085EF41F0000E1D6E000E1C6E000E1B6E03
:10830E00000E1A6E97EF41F0000E046E200E036EF3
:10831E0013C005F014C006F008EC40F01A4A1B2AF0
:10832E001C501A5C1B50800A196E1D50800A195879
:10833E00D8A0A4EF41F0A6EF41F08BEF41F0000181
:10834E00F4B1ACEF41F0AEEF41F0B8EF41F015C033
:10835E000CF016C00DF013C00EF014C00FF02AEC86
:10836E003FF015C001F016C002F00DEC3FF01C50AE
:10837E000124136E1D500220146E120001C008F06D
:10838E0002C009F003C00AF004C00BF00506D8A025
:10839E000606052806E10628D8A4D8EF41F0DAEF44
:1083AE0041F0E7EF41F0000E026E000E016E3EEF5F
:1083BE0042F0084A092A0A4A0B2A0506D8A00606E0
:1083CE00600023F0D9FF600027F0DAFFDF50D8B449
:1083DE00F3EF41F0F5EF41F028EF42F060002BF0A3
:1083EE00F6FF60002FF0F7FFF86A0800F55000095D
:1083FE00D8B404EF42F006EF42F028EF42F00550F9
:10840E000610D8B40DEF42F00FEF42F028EF42F015
:10841E00600023F0D9FF600027F0DAFFDF50076E0F
:10842E0060002BF0F6FF60002FF0F7FFF86A0800EF
:10843E00F5500718D8B426EF42F028EF42F0E0EFDF
:10844E0041F0600023F0D9FF600027F0DAFFDF5023
:10845E00076E60002BF0F6FF60002FF0F7FFF86A52
:10846E000800F550075C016E026AD8A002061200E1
:10847E00E8C00BF0E9C00CF0EAC00DF0EBC00EF056
:10848E0001C00BF002C00CF003C00DF004C00EF0E2
:10849E000BC005F00CC006F00DC007F00EC008F0C2
:1084AE00180E5FEF42F0D8900832073206320532CE
:1084BE00E82E5AEF42F00550096E0A6A09500A106A
:1084CE00D8A46CEF42F06EEF42F08EEF42F0D890EF
:1084DE000B34056E0C34066E0D34076E0E34086EBA
:1084EE000550061007100810D8A480EF42F082EF56
:1084FE0042F088EF42F0000E026E020E016EBDEFEA
:10850E0042F0000E026E030E016EBDEF42F009281E
:10851E000A10D8A495EF42F097EF42F0B9EF42F06F
:10852E000BC005F00CC006F00DC007F00EC008F031
:10853E00090ED8900536063607360836E82EA0EF17
:10854E0042F00550061007100810D8B4B1EF42F0F3
:10855E00B4EF42F0010EB5EF42F0000E016E026A6A
:10856E00BDEF42F0000E026E040E016E1200000E00
:10857E0032143A6E000E33143B6E800E34143C6E81
:10858E007F0E35143D6E3A503B103C103D10D8A472
:10859E00D3EF42F0D5EF42F0DDEF42F0000E326E37
:1085AE00000E336E000E346E000E356E000E361455
:1085BE003A6E000E37143B6E800E38143C6E7F0EF2
:1085CE0039143D6E3A503B103C103D10D8A4F2EFDA
:1085DE0042F0F4EF42F0FCEF42F0000E366E000E69
:1085EE00376E000E386E000E396E35AE01EF43F069
:1085FE0003EF43F00CEF43F0326C331ED8B0332A46
:10860E00341ED8B0342A800E355639AE11EF43F0F1
:10861E0013EF43F01CEF43F0366C371ED8B0372AF9
:10862E00381ED8B0382A800E3956000E321A000E77
:10863E00331A000E341A800E351A000E361A000E3A
:10864E00371A000E381A800E391A3650325C3750EF
:10865E0033583850345839503558D8B039EF43F074
:10866E003BEF43F03EEF43F0D8903FEF43F0D8801E
:10867E0012002C342D34336E3350D8A449EF43F00E
:10868E004BEF43F055EF43F0000E2A6E000E2B6EAB
:10869E00000E2C6E000E2D6EC2EF43F02AC02EF08F
:1086AE002BC02FF02CC030F02DC031F0200E65EF16
:1086BE0043F0D890313230322F322E32E82E60EF26
:1086CE0043F02E50326E2C8EFF0E2A16FF0E2B16F6
:1086DE00FF0E2C16000E2D16960E335E33BE7CEF5B
:1086EE0043F07AEF43F092EF43F03350800A970F46
:1086FE00D8B084EF43F086EF43F088EF43F04BEFB2
:10870E0043F0D8902D322C322B322A32333E88EF62
:10871E0043F0AAEF43F01F0E336498EF43F09AEF45
:10872E0043F0A2EF43F04BEF43F0D8902A362B36AE
:10873E002C362D3633063350D8A4A8EF43F0AAEFCB
:10874E0043F09CEF43F03250D8B4B0EF43F0B2EFA9
:10875E0043F0BAEF43F02D1E2C1E2B1E2A6C000E7A
:10876E002B222C222D222AC02AF02BC02BF02CC01B
:10877E002CF02DC02DF01200096E0950D8B4CAEF9E
:10878E0043F0CCEF43F0EEEF43F004BED3EF43F0F3
:10879E00D1EF43F0EEEF43F001C005F002C006F05A
:1087AE0003C007F004C008F0051E061E071E081EB3
:1087BE00052A000E06220722082205C00BF006C06D
:1087CE000CF007C00DF008C00EF0F6EF43F001C03C
:1087DE000BF002C00CF003C00DF004C00EF00150FF
:1087EE00021003100410D8A4FFEF43F001EF44F081
:1087FE000BEF44F0000E016E000E026E000E036EC3
:10880E00000E046E9CEF44F0960E0A6E15EF44F0C7
:10881E000A2AD8900E320D320C320B32000E0B1487
:10882E00056E000E0C14066E000E0D14076EFE0E75
:10883E000E14086E0550061007100810D8A42AEF63
:10884E0044F02CEF44F00FEF44F03AEF44F00A2AD4
:10885E00010E0B26000E0C220D220E22D8900E3287
:10886E000D320C320B32000E0B14056E000E0C1472
:10887E00066E000E0D14076EFF0E0E14086E0550D8
:10888E00061007100810D8A44FEF44F051EF44F033
:10889E002EEF44F059EF44F00A06D8900B360C3602
:1088AE000D360E360DBE5EEF44F060EF44F068EF0D
:1088BE0044F0020E0A6066EF44F068EF44F053EFA6
:1088CE0044F00AB06DEF44F06FEF44F070EF44F0F7
:1088DE000D9ED8900A320AC005F0066A076A086A29
:1088EE0005C008F0076A066A056A05500B120650A5
:1088FE000C1207500D1208500E120950D8B48AEF00
:10890E0044F08CEF44F094EF44F004BE93EF44F047
:10891E0091EF44F094EF44F00E8E0BC001F00CC0BA
:10892E0002F00DC003F00EC004F012002AC001F0D8
:10893E002BC002F02CC003F02DC004F02AC005F0AD
:10894E002BC006F02CC007F02DC008F0B4EC4EF092
:10895E0001C042F002C043F003C044F004C045F031
:10896E0042C001F043C002F044C003F045C004F021
:10897E0042C005F043C006F044C007F045C008F001
:10898E00B4EC4EF001C03EF002C03FF003C040F028
:10899E0004C041F0170E056E9A0E066ECC0E076ED1
:1089AE00370E086E42C001F043C002F044C003F01F
:1089BE0045C004F0B4EC4EF001C01AF002C01BF03A
:1089CE0003C01CF004C01DF03F0E1E6E040E1F6E81
:1089DE00B60E206EBA0E216E77EC55F01AC02EF040
:1089EE001BC02FF01CC030F01DC031F0000E1E6EEB
:1089FE00000E1F6E800E206E3F0E216E000E056E55
:108A0E00000E066E000E076EBF0E086E42C001F01D
:108A1E0043C002F044C003F045C004F0B4EC4EF085
:108A2E0001C01AF002C01BF003C01CF004C01DF000
:108A3E0077EC55F01AC032F01BC033F01CC034F086
:108A4E001DC035F042C005F043C006F044C007F02B
:108A5E0045C008F03EC001F03FC002F040C003F038
:108A6E0041C004F0B4EC4EF001C036F002C037F055
:108A7E0003C038F004C039F09F0E056EAA0E066EC4
:108A8E002A0E076E3D0E086E3EC001F03FC002F08A
:108A9E0040C003F041C004F0B4EC4EF001C01EF033
:108AAE0002C01FF003C020F004C021F032C01AF043
:108ABE0033C01BF034C01CF035C01DF077EC55F000
:108ACE001AC03AF01BC03BF01CC03CF01DC03DF07C
:108ADE003AC01AF03BC01BF03CC01CF03DC01DF06C
:108AEE002EC005F02FC006F030C007F031C008F0E0
:108AFE0036C001F037C002F038C003F039C004F0C0
:108B0E00B4EC4EF001C01EF002C01FF003C020F006
:108B1E0004C021F077EC55F01AC02AF01BC02BF0E0
:108B2E001CC02CF01DC02DF01200BCC15BF0BDC1ED
:108B3E005CF0BEC15DF0BFC15EF04BC05BF04CC0DF
:108B4E005CF04DC05DF04EC05EF0810E4F6EFF0EBC
:108B5E00506E5BC051F05CC052F05DC053F05EC011
:108B6E0054F0180EC0EF45F0D890543253325232B2
:108B7E005132E82EBBEF45F051504F24596E000E86
:108B8E0050205A6E5ABED5EF45F05A5009E1170ED5
:108B9E00595CD8A0D5EF45F0D7EF45F0E1EF45F0A1
:108BAE004BC04BF04CC04CF04DC04DF04EC04EF093
:108BBE00A4EF46F05ABEE6EF45F0E8EF45F058EF69
:108BCE0046F059C04FF0FF0E506EFF0E516E7F0EE5
:108BDE00526E000E536E4F66F7EF45F0FFEF45F005
:108BEE00533453325232513250324F2EF2EF45F04F
:108BFE0050C055F051C056F052C057F053C058F007
:108C0E0055505B144F6E56505C14506E57505D1499
:108C1E00516E58505E14526E4F50501051105210EB
:108C2E00D8A41CEF46F01EEF46F020EF46F0D7EF2B
:108C3E0045F05BC04FF05CC050F05DC051F05EC0BF
:108C4E0052F0200E30EF46F0D89052325132503260
:108C5E004F32E82E2BEF46F04F505010511052105D
:108C6E00D8B43CEF46F03EEF46F046EF46F0555096
:108C7E005B2656505C2257505D2258505E22551C82
:108C8E004F6E561C506E571C516E581C526E4F50E4
:108C9E005B1650505C1651505D1652505E169CEF8E
:108CAE0046F05BC04FF05CC050F05DC051F05EC04E
:108CBE0052F0200E68EF46F0D890523251325032B8
:108CCE004F32E82E63EF46F04F50501051105210B5
:108CDE00D8A474EF46F076EF46F080EF46F0000E23
:108CEE005B6E000E5C6E000E5D6E000E5E6E9CEF97
:108CFE0046F0D8905B344F6E5C34506E5D34516EDE
:108D0E005E34526E4F50501051105210D8B492EF34
:108D1E0046F094EF46F09CEF46F0000E5B6E000EB0
:108D2E005C6E800E5D6EBF0E5E6E5BC04BF05CC007
:108D3E004CF05DC04DF05EC04EF012004AC001F026
:108D4E004BC002F04CC003F04DC004F04AC005F019
:108D5E004BC006F04CC007F04DC008F0B4EC4EF01E
:108D6E0001C078F002C079F003C07AF004C07BF045
:108D7E0078C001F079C002F07AC003F07BC004F035
:108D8E0078C005F079C006F07AC007F07BC008F015
:108D9E00B4EC4EF001C064F002C065F003C066F0A2
:108DAE0004C067F03C0E056E6C0E066E360E076E36
:108DBE00360E086E78C001F079C002F07AC003F06A
:108DCE007BC004F0B4EC4EF001C01AF002C01BF0F0
:108DDE0003C01CF004C01DF0CF0E1E6E070E1F6EDA
:108DEE00500E206EB90E216E77EC55F01AC060F061
:108DFE001BC061F01CC062F01DC063F078C001F0B2
:108E0E0079C002F07AC003F07BC004F04AC005F0CE
:108E1E004BC006F04CC007F04DC008F0B4EC4EF05D
:108E2E0001C074F002C075F003C076F004C077F094
:108E3E00AB0E1E6EAA0E1F6E2A0E206EBE0E216E79
:108E4E00840E056E880E066E080E076E3C0E086EBA
:108E5E0078C001F079C002F07AC003F07BC004F054
:108E6E00B4EC4EF001C01AF002C01BF003C01CF0AF
:108E7E0004C01DF077EC55F01AC068F01BC069F005
:108E8E001CC06AF01DC06BF064C005F065C006F032
:108E9E0066C007F067C008F074C001F075C002F03C
:108EAE0076C003F077C004F0B4EC4EF001C06CF065
:108EBE0002C06DF003C06EF004C06FF04AC01EF029
:108ECE004BC01FF04CC020F04DC021F074C005F017
:108EDE0075C006F076C007F077C008F068C001F0E4
:108EEE0069C002F06AC003F06BC004F0B4EC4EF03F
:108EFE0001C01AF002C01BF003C01CF004C01DF02C
:108F0E0077EC55F01AC070F01BC071F01CC072F0F7
:108F1E001DC073F070C01AF071C01BF072C01CF04F
:108F2E0073C01DF060C005F061C006F062C007F0AE
:108F3E0063C008F06CC001F06DC002F06EC003F0AB
:108F4E006FC004F0B4EC4EF001C01EF002C01FF072
:108F5E0003C020F004C021F077EC55F01AC04AF09F
:108F6E001BC04BF01CC04CF01DC04DF012001AC0BF
:108F7E0028F01BC029F01CC02AF01DC02BF01FBE0C
:108F8E00D2EF47F01F5009E1800E1E5CD8A0D2EF41
:108F9E0047F0D4EF47F032EF48F028C001F029C077
:108FAE0002F02AC003F02BC004F0000E056E000E76
:108FBE00066E000E076E7F0E086EB4EC4EF001C00A
:108FCE0028F002C029F003C02AF004C02BF0810E55
:108FDE001E26FF0E1F221FBEFEEF47F01F5009E197
:108FEE00800E1E5CD8A0FEEF47F000EF48F09CEF1D
:108FFE0048F028C001F029C002F02AC003F02BC0AF
:10900E0004F0000E056E000E066E000E076E7F0E4B
:10901E00086EB4EC4EF001C028F002C029F003C077
:10902E002AF004C02BF0810E1E26FF0E1F221FBE3B
:10903E002AEF48F01F5009E1800E1E5CD8A02AEFDF
:10904E0048F02CEF48F09CEF48F0000E1F6E7F0E9C
:10905E001E6E9CEF48F01FAE3EEF48F0820E1E5C77
:10906E00FF0E1F58D8B03EEF48F040EF48F09CEF8F
:10907E0048F028C001F029C002F02AC003F02BC02E
:10908E0004F0000E056E000E066E800E076E0C0EBE
:10909E00086EB4EC4EF001C028F002C029F003C0F7
:1090AE002AF004C02BF0660E1E26000E1F221FAEE5
:1090BE006AEF48F0820E1E5CFF0E1F58D8B06AEFA2
:1090CE0048F06CEF48F09CEF48F028C001F029C042
:1090DE0002F02AC003F02BC004F0000E056E000E45
:1090EE00066E800E076E0C0E086EB4EC4EF001C0CC
:1090FE0028F002C029F003C02AF004C02BF0660E3F
:10910E001E26000E1F221FAE96EF48F0820E1E5C2A
:10911E00FF0E1F58D8B096EF48F098EF48F09CEF2E
:10912E0048F0FF0E1F6E820E1E6E7F0E1E24206EE6
:10913E00000E1F20216E226A236A170ED890203649
:10914E00213622362336E82EA5EF48F020C024F033
:10915E0021C025F022C026F023C027F024C001F044
:10916E0025C002F026C003F027C004F028C005F089
:10917E0029C006F02AC007F02BC008F0B4EC4EF060
:10918E0001C01AF002C01BF003C01CF004C01DF099
:10919E001AC01AF01BC01BF01CC01CF01DC01DF025
:1091AE0012003550800B426E35503524496E34AE68
:1091BE00E3EF48F0E5EF48F0E6EF48F0498049501C
:1091CE00D8B4ECEF48F0EEEF48F003EF49F0492841
:1091DE00D8A4F4EF48F0F6EF48F0FEEF48F0000E9A
:1091EE00326E000E336E000E346E000E356E348EFF
:1091FE00000E356E0BEF49F0000E326E000E336E20
:10920E00000E346E000E356E3950800B421A3950F6
:10921E0039244A6E38AE16EF49F018EF49F019EFBF
:10922E0049F04A804A50D8B41FEF49F021EF49F077
:10923E0036EF49F04A28D8A427EF49F029EF49F034
:10924E0031EF49F0000E366E000E376E000E386E9E
:10925E00000E396E388E000E396E3EEF49F0000E5C
:10926E00366E000E376E000E386E000E396E3650AA
:10927E00371038103910D8A447EF49F049EF49F0AC
:10928E0061EF49F0000E326E000E336E000E346E3A
:10929E00000E356E800E34127F0E3512425035128E
:1092AE0032C032F033C033F034C034F035C035F054
:1092BE00A4EF4AF04950D8A467EF49F069EF49F09E
:1092CE0073EF49F0000E326E000E336E000E346EE8
:1092DE00000E356EA4EF4AF04A5049C03AF03B6A90
:1092EE003A5E000E3B5A7F0E3A24436E000E3B2030
:1092FE00446E32C03EF033C03FF034C040F035C053
:10930E0041F0000E326E000E336E000E346E000E03
:10931E00356E000E456E000E466E000E476E000E48
:10932E00486E000E4A6ED4EF49F04A50D8B4A2EF00
:10933E0049F0A4EF49F0BBEF49F0D8903E363F36E6
:10934E0040364136D890323633363436353648AE1E
:10935E00B3EF49F0B5EF49F0B6EF49F03280D8904F
:10936E00453646364736483636503E5C37503F58BF
:10937E003850405839504158D8A0C8EF49F0CAEF7C
:10938E0049F0D3EF49F0488C36503E5E37503F5A85
:10939E003850405A3950415A4A2A190E4A64DAEF67
:1093AE0049F0DCEF49F09CEF49F03E503F10401081
:1093BE004110D8B4E5EF49F0E7EF49F0FFEF49F07F
:1093CE004580FFEF49F0D890323633363436353695
:1093DE0048AEF4EF49F0F6EF49F0F7EF49F032807E
:1093EE00D89045364636473648364306D8A044060A
:1093FE0034AE04EF4AF006EF4AF0EAEF49F0000E01
:10940E004A6E48AE0DEF4AF00FEF4AF033EF4AF0D6
:10941E00FF0E45143A6EFF0E46143B6EFF0E4714B8
:10942E003C6E7F0E48143D6E3A503B103C103D1082
:10943E00D8B424EF4AF026EF4AF02AEF4AF0010E94
:10944E004A6E33EF4AF032A02FEF4AF031EF4AF076
:10945E0033EF4AF026EF4AF04A50D8B439EF4AF0CB
:10946E003BEF4AF05FEF4AF0010E3226000E332238
:10947E003422352235A046EF4AF048EF4AF05FEF2E
:10948E004AF032C03AF033C03BF034C03CF035C045
:10949E003DF03D343D323C323B323A323AC032F04E
:1094AE003BC033F03CC034F03DC035F0434A442A53
:1094BE0044BE6AEF4AF0445008E14328D8A06AEF50
:1094CE004AF06CEF4AF077EF4AF0000E446E4368B4
:1094DE00000E326E000E336E000E346E000E356EC0
:1094EE0044BE84EF4AF0445006E14304D8B082EF04
:1094FE004AF084EF4AF092EF4AF0000E446E000EEE
:10950E00436E000E326E000E336E000E346E000E81
:10951E00356E000E426E43C049F049A099EF4AF0F5
:10952E009BEF4AF09EEF4AF0348E9FEF4AF0349E46
:10953E00D8904930356E55EF49F012004BC001F00E
:10954E004CC002F04DC003F04EC004F04BC005F00D
:10955E004CC006F04DC007F04EC008F0B4EC4EF013
:10956E0001C084F002C085F003C086F004C087F00D
:10957E0084C005F085C006F086C007F087C008F0ED
:10958E00790EF66EFE0EF76EF86A09006F00D4FFC4
:10959E0001F009006F00D4FF02F009006F00D4FF44
:1095AE0003F00A006F00D4FF04F0B4EC4EF001C0DB
:1095BE001AF002C01BF003C01CF004C01DF0750EA3
:1095CE00F66EFE0EF76EF86A09006F00D4FF1EF0FD
:1095DE0009006F00D4FF1FF009006F00D4FF20F0C8
:1095EE000A006F00D4FF21F077EC55F01AC080F01E
:1095FE001BC081F01CC082F01DC083F084C005F03A
:10960E0085C006F086C007F087C008F0710EF66EB2
:10961E00FE0EF76EF86A09006F00D4FF01F0090024
:10962E006F00D4FF02F009006F00D4FF03F00A00B0
:10963E006F00D4FF04F0B4EC4EF001C01AF002C07B
:10964E001BF003C01CF004C01DF06D0EF66EFE0E76
:10965E00F76EF86A09006F00D4FF1EF009006F0064
:10966E00D4FF1FF009006F00D4FF20F00A006F0036
:10967E00D4FF21F077EC55F01AC060F01BC061F0FA
:10968E001CC062F01DC063F084C001F085C002F002
:10969E0086C003F087C004F084C005F085C006F0D4
:1096AE0086C007F087C008F0B4EC4EF001C078F029
:1096BE0002C079F003C07AF004C07BF084C001F0E0
:1096CE0085C002F086C003F087C004F04BC005F0E1
:1096DE004CC006F04DC007F04EC008F0B4EC4EF092
:1096EE0001C07CF002C07DF003C07EF004C07FF0AC
:1096FE0084C005F085C006F086C007F087C008F06C
:10970E00690EF66EFE0EF76EF86A09006F00D4FF52
:10971E0001F009006F00D4FF02F009006F00D4FFC2
:10972E0003F00A006F00D4FF04F0B4EC4EF001C059
:10973E001AF002C01BF003C01CF004C01DF0650E31
:10974E00F66EFE0EF76E000EF86E09006F00D4FF77
:10975E001EF009006F00D4FF1FF009006F00D4FF48
:10976E0020F00A006F00D4FF21F077EC55F01AC0FC
:10977E0064F01BC065F01CC066F01DC067F078C0B9
:10978E0005F079C006F07AC007F07BC008F07CC007
:10979E0001F07DC002F07EC003F07FC004F0B4EC97
:1097AE004EF001C068F002C069F003C06AF004C058
:1097BE006BF060C01EF061C01FF062C020F063C08D
:1097CE0021F080C005F081C006F082C007F083C092
:1097DE0008F078C001F079C002F07AC003F07BC0C7
:1097EE0004F0B4EC4EF001C01AF002C01BF003C03E
:1097FE001CF004C01DF077EC55F01AC06CF01BC0C5
:10980E006DF01CC06EF01DC06FF04BC01EF04CC052
:10981E001FF04DC020F04EC021F064C005F065C0B1
:10982E0006F066C007F067C008F07CC001F07DC08E
:10983E0002F07EC003F07FC004F0B4EC4EF001C025
:10984E001AF002C01BF003C01CF004C01DF077EC30
:10985E0055F01AC070F01BC071F01CC072F01DC024
:10986E0073F070C01AF071C01BF072C01CF073C0A0
:10987E001DF068C005F069C006F06AC007F06BC045
:10988E0008F06CC001F06DC002F06EC003F06FC046
:10989E0004F0B4EC4EF001C01EF002C01FF003C085
:1098AE0020F004C021F077EC55F01AC080F01BC0F8
:1098BE0081F01CC082F01DC083F04F505010D8A410
:1098CE006BEF4CF06DEF4CF077EF4CF080C074F016
:1098DE0081C075F082C076F083C077F091EF4CF0C6
:1098EE00000E326E000E336E800E346EBF0E356E6D
:1098FE0080C036F081C037F082C038F083C039F0B6
:10990E00D8EC48F032C074F033C075F034C076F045
:10991E0035C077F074C04BF075C04CF076C04DF08A
:10992E0077C04EF0120060009BF2D9FF60009FF2EC
:10993E00DAFF6F007BFFF6FF6F0077FFF7FFF86A25
:10994E000800F550250AD8A4AFEF4CF0B1EF4CF05B
:10995E0091EF4EF060009BF2D9FF60009FF2DAFFAC
:10996E00DE2A000EDD22000E0001F16F000EF06FF8
:10997E00F0C0F4F0F1C0F5F0F269F36960009BF20B
:10998E00D9FF60009FF2DAFF6F007BFFF6FF6F00DA
:10999E0077FFF7FFF86A0800F550076E086A6FEC5C
:1099AE003FF007500001B46FB451D8B4E1EF4CF062
:1099BE00E3EF4CF02BEF4DF060009BF2D9FF60000F
:1099CE009FF2DAFF6F0078FFAAF06F0074FFABF022
:1099DE00010EAA27000EAB236000ABF2F6FF60006B
:1099EE00AFF2F7FFF86A0800F550076E086A6FECE1
:1099FE003FF007500001B56FB551D8B409EF4DF0E7
:109A0E000BEF4DF02BEF4DF060009BF2D9FF600095
:109A1E009FF2DAFF6F0078FFAAF06F0074FFABF0D1
:109A2E00020EAA27000EAB236000ABF2F6FF600019
:109A3E00AFF2F7FFF86A0800F550076E086A6FEC90
:109A4E003FF007500001B66F660EB419D8A432EF7E
:109A5E004DF034EF4DF086EF4DF060009BF2D9FFE4
:109A6E0060009FF2DAFF6F007BFFF6FF6F0077FF5B
:109A7E00F7FFF86A08006F00D4FFB7F060009BF2A2
:109A8E00D9FF60009FF2DAFFDE2A000EDD226000B1
:109A9E00A3F2D9FF6000A7F2DAFF6F007CFFAAF0F5
:109AAE00040EDE266F007CFFABF0000EDD226000A0
:109ABE00ABF2D9FF6000AFF2DAFF6F0078FFB0F0C3
:109ACE006F0078FFB1F06F0078FFB2F06F0078FF93
:109ADE00B3F0A4C060F0A5C061F0B0C062F0B1C038
:109AEE0063F0B2C064F0B3C065F0B7C066F0ACEC22
:109AFE0063F060C0A4F061C0A5F0B3EF4EF0B40EF9
:109B0E00016E000E026EF80E036EFF0E046E000E56
:109B1E00066E020E056EC5EC41F001500210D8A47F
:109B2E009BEF4DF09DEF4DF050EF4EF060009BF22D
:109B3E00D9FF60009FF2DAFF6F0078FFAAF06F0086
:109B4E0074FFABF0010E0001AA27000EAB236000DC
:109B5E00ABF2F6FF6000AFF2F7FFF86A08006F0095
:109B6E00D4FFB7F0BF0EAA6FFF0EAB6F60009BF273
:109B7E00D9FF60009FF2DAFF6F007BFFF6FF6F00E8
:109B8E0077FFF7FFF86A0800F550AC6FAD6BAA517E
:109B9E00AC27AB51AD23AD510AE11A0EAC5DD8A086
:109BAE00DBEF4DF0DEEF4DF0010EDFEF4DF0000E6E
:109BBE00AE6FAF6BAE51AF11D8B4E8EF4DF0EAEF28
:109BCE004DF00EEF4EF06000A3F2D9FF6000A7F249
:109BDE00DAFF6F007CFFAAF0040EDE266F007CFF1A
:109BEE00ABF0000EDD226000ABF2D9FF6000AFF2E9
:109BFE00DAFF6F0078FFB0F06F0078FFB1F06F0002
:109C0E0078FFB2F06F0078FFB3F030EF4EF06000E7
:109C1E00A3F2D9FF6000A7F2DAFF6F007CFFAAF073
:109C2E00040EDE266F007CFFABF0000EDD2260001E
:109C3E00ABF2D9FF6000AFF2DAFF6F0078FFB0F041
:109C4E006F0078FFB1F06F0078FFB2F06F0078FF11
:109C5E00B3F0020E60009BF2D9FF60009FF2DAFFB4
:109C6E00DE26000EDD22A4C060F0A5C061F0B0C0FB
:109C7E0062F0B1C063F0B2C064F0B3C065F0B7C0BB
:109C8E0066F0ACEC63F060C0A4F061C0A5F0B3EF79
:109C9E004EF060009BF2D9FF60009FF2DAFF6F007A
:109CAE007BFFF6FF6F0077FFF7FFF86A0800F550AD
:109CBE00250AD8A465EF4EF067EF4EF081EF4EF017
:109CCE0060009BF2D9FF60009FF2DAFFDE2A000EE1
:109CDE00DD22000E046E250E036EA4C005F0A5C095
:109CEE0006F008EC40F0000E0001A56F010EA46F07
:109CFE00B3EF4EF060009BF2D9FF60009FF2DAFFE7
:109D0E00DE2A000EDD22000E0001A56F000EA46FEC
:109D1E00B3EF4EF060009BF2D9FF60009FF2DAFFC6
:109D2E006F007BFFF6FF6F0077FFF7FFF86A080002
:109D3E00F550036E046AA4C005F0A5C006F008EC49
:109D4E0040F060009BF2D9FF60009FF2DAFFDE2A3E
:109D5E00000EDD227AEF4EF012000450800B0D6ED5
:109D6E0004500424136E03AEBFEF4EF0C1EF4EF05D
:109D7E00C2EF4EF013801350D8B4C8EF4EF0CAEFB6
:109D8E004EF0DDEF4EF01328D8A4D0EF4EF0D2EF08
:109D9E004EF0DAEF4EF0000E016E000E026E000E67
:109DAE00036E000E046E038EE5EF4EF0000E016E94
:109DBE00000E026E000E036E000E046E0850800B35
:109DCE000D1A08500824126E07AEF0EF4EF0F2EFA7
:109DDE004EF0F3EF4EF012801250D8B4F9EF4EF071
:109DEE00FBEF4EF00EEF4FF01228D8A401EF4FF01C
:109DFE0003EF4FF00BEF4FF0000E056E000E066EE8
:109E0E00000E076E000E086E078E16EF4FF0000E56
:109E1E00056E000E066E000E076E000E086E1250D6
:109E2E00D8B41CEF4FF01EEF4FF026EF4FF013504B
:109E3E00D8A424EF4FF026EF4FF030EF4FF0000E86
:109E4E00016E000E026E000E036E000E046EDAEF4F
:109E5E0050F0075001026F00CCFF18F06F00D0FFDA
:109E6E0019F018500E6E0F6A106A116A1950146E9E
:109E7E00156A166A176A065002026F00CCFF18F0B8
:109E8E006F00D0FF19F018500E26000E0F22102270
:109E9E00112219501426000E1522162217220550D3
:109EAE0003026F00CCFF18F06F00D0FF19F01850AE
:109EBE000E26000E0F221022112219501426000E0B
:109ECE0015221622172210C011F00FC010F00EC06E
:109EDE000FF00E6A055002026F00CCFF18F06F00F3
:109EEE00D0FF19F018500E2619500F22000E102216
:109EFE00000E1122065001026F00CCFF18F06F0009
:109F0E00D0FF19F018500E2619500F22000E1022F5
:109F1E00000E112210C011F00FC010F00EC00FF085
:109F2E000E6A055001026F00CCFF18F06F00D0FFD3
:109F3E0019F018500E2619500F22000E1022000E86
:109F4E001122075002026F00CCFF18F06F00D0FFF5
:109F5E0019F01850142619501522000E1622000E54
:109F6E001722065003026F00CCFF18F06F00D0FFCF
:109F7E0019F01850142619501522000E1622000E34
:109F8E001722075003026F00CCFF18F06F00D0FFAE
:109F9E0019F01850096E19500A6E0B6A0C6A0BC034
:109FAE000CF00AC00BF009C00AF0096A0950142619
:109FBE000A5015220B5016220C5017220EC009F013
:109FCE000FC00AF010C00BF011C00CF0190EF5EF17
:109FDE004FF0D8900C320B320A320932E82EF0EFE5
:109FEE004FF0095014260A5015220B5016220C5011
:109FFE00172210C011F00FC010F00EC00FF00E6A35
:10A00E00125013C009F00A6A0926000E0A22820EA7
:10A01E000924186EFF0E0A20196E2BEF50F0D890FF
:10A02E00143615361636173611AE20EF50F022EFD5
:10A03E0050F023EF50F01480D8900E360F361036B5
:10A04E0011361806D8A0190616AE30EF50F032EFC2
:10A05E0050F016EF50F0000E126E11AE39EF50F0B8
:10A06E003BEF50F05FEF50F0FF0E0E14096EFF0E37
:10A07E000F140A6EFF0E10140B6E7F0E11140C6E61
:10A08E0009500A100B100C10D8B450EF50F052EFCC
:10A09E0050F056EF50F0010E126E5FEF50F014A01C
:10A0AE005BEF50F05DEF50F05FEF50F052EF50F07D
:10A0BE001250D8B465EF50F067EF50F08BEF50F0C0
:10A0CE00010E1426000E15221622172217A072EF6B
:10A0DE0050F074EF50F08BEF50F014C009F015C033
:10A0EE000AF016C00BF017C00CF00C340C320B3209
:10A0FE000A32093209C014F00AC015F00BC016F06E
:10A10E000CC017F0184A192A19BE96EF50F01950C4
:10A11E0008E11828D8A096EF50F098EF50F0A2EF73
:10A12E0050F0000E146E000E156E800E166E7F0E21
:10A13E00176ED0EF50F019BEAFEF50F0195006E188
:10A14E001804D8B0ADEF50F0AFEF50F0BBEF50F0B9
:10A15E00000E146E000E156E000E166E000E176EAB
:10A16E00000E0D6ED0EF50F018C013F0FF0E141647
:10A17E00FF0E15167F0E1616000E171613A0CAEF39
:10A18E0050F0CCEF50F0CDEF50F0168ED89013303B
:10A19E00176E0D50171214C001F015C002F016C044
:10A1AE0003F017C004F01200000E0201006F000E43
:10A1BE00016F100E026F400E036F7B0E046F140EB4
:10A1CE00056F6E0E066F400E076F000E0001DB6FFF
:10A1DE00000EDC6F000EDD6F400EDE6F00C2D7F09A
:10A1EE0001C2D8F002C2D9F003C2DAF001EC6AF073
:10A1FE00D7C034F2D8C035F2D9C036F2DAC037F251
:10A20E00000E0001DB6F000EDC6F000EDD6F400EE6
:10A21E00DE6F04C2D7F005C2D8F006C2D9F007C26D
:10A22E00DAF001EC6AF0D7C038F2D8C039F2D9C0F2
:10A23E003AF2DAC03BF234C21AF035C21BF036C223
:10A24E001CF037C21DF038C21EF039C21FF03AC2E0
:10A25E0020F03BC221F077EC55F01AC03CF21BC047
:10A26E003DF21CC03EF21DC03FF23CC25CF03DC24E
:10A27E005DF03EC25EF03FC25FF0D7EC57F05CC0BF
:10A28E0008F25DC009F25EC00AF25FC00BF2CF0E9B
:10A29E000001C06FFF0EC16F08C2C2F009C2C3F049
:10A2AE000AC2C4F00BC2C5F092EC3EF0000E4B6E2B
:10A2BE00000E4C6E800E4D6E3F0E4E6E6BEC5FF0D0
:10A2CE004BC040F24CC041F24DC042F24EC043F280
:10A2DE0040C201F041C202F042C203F043C204F098
:10A2EE00000E056E000E066E800E076E400E086E96
:10A2FE00B4EC4EF001C058F202C059F203C05AF24B
:10A30E0004C05BF2D70E0201106FA30E116F880E00
:10A31E00126F400E136F000E056E000E066E0C0EC1
:10A32E00076E420E086E58C201F059C202F05AC2B0
:10A33E0003F05BC204F0B4EC4EF001C032F002C088
:10A34E0033F003C034F004C035F0000E366E000E4C
:10A35E00376E340E386E430E396ED8EC48F032C07C
:10A36E0014F233C015F234C016F235C017F214C20F
:10A37E0054F015C255F016C256F017C257F0A0ECA5
:10A38E005CF054C044F255C045F256C046F257C078
:10A39E0047F244C201F045C202F046C203F047C282
:10A3AE0004F010C205F011C206F012C207F013C27B
:10A3BE0008F0B4EC4EF001C00CF202C00DF203C076
:10A3CE000EF204C00FF2810E0001C06FFF0EC16FBE
:10A3DE000CC2C2F00DC2C3F00EC2C4F00FC2C5F063
:10A3EE0092EC3EF0330E02011C6F330E1D6FDB0E2E
:10A3FE001E6F400E1F6F000E056E000E066E040ED1
:10A40E00076E420E086E58C201F059C202F05AC2CF
:10A41E0003F05BC204F0B4EC4EF001C032F002C0A7
:10A42E0033F003C034F004C035F0000E366E000E6B
:10A43E00376E340E386E430E396ED8EC48F032C09B
:10A44E0020F233C021F234C022F235C023F2000EC6
:10A45E000001DB6F000EDC6F000EDD6F400EDE6F55
:10A46E0020C254F021C255F022C256F023C257F03A
:10A47E0024EC53F054C0D7F055C0D8F056C0D9F0E4
:10A48E0057C0DAF001EC6AF0D7C048F2D8C049F2F2
:10A49E00D9C04AF2DAC04BF248C201F049C202F00A
:10A4AE004AC203F04BC204F01CC205F01DC206F0F6
:10A4BE001EC207F01FC208F0B4EC4EF001C018F235
:10A4CE0002C019F203C01AF204C01BF29B0E000167
:10A4DE00C06FFF0EC16F18C2C2F019C2C3F01AC20C
:10A4EE00C4F01BC2C5F092EC3EF09A0E0201286F2A
:10A4FE00990E296F090E2A6F400E2B6FC30E2C6F0B
:10A50E00F50E2D6F1C0E2E6F410E2F6F000E056E69
:10A51E00000E066E2C0E076E420E086E58C201F02B
:10A52E0059C202F05AC203F05BC204F0B4EC4EF012
:10A53E0001C032F002C033F003C034F004C035F075
:10A54E00000E366E000E376E340E386E430E396EB8
:10A55E00D8EC48F032C030F233C031F234C032F2AF
:10A56E0035C033F22CC205F02DC206F02EC207F014
:10A57E002FC208F028C201F029C202F02AC203F04D
:10A58E002BC204F0B4EC4EF001C04CF202C04DF2FE
:10A59E0003C04EF204C04FF230C254F031C255F037
:10A5AE0032C256F033C257F024EC53F054C050F27E
:10A5BE0055C051F256C052F257C053F24CC201F080
:10A5CE004DC202F04EC203F04FC204F050C205F06D
:10A5DE0051C206F052C207F053C208F0B4EC4EF06E
:10A5EE0001C054F202C055F203C056F204C057F235
:10A5FE0054C25CF055C25DF056C25EF057C25FF0B9
:10A60E00D7EC57F05CC024F25DC025F25EC026F296
:10A61E005FC027F2B50E0001C06FFF0EC16F24C2DE
:10A62E00C2F025C2C3F026C2C4F027C2C5F092EC18
:10A63E003EF020EF53F0FEEF7FF054C08CF055C08B
:10A64E008DF056C08EF057C08FF08CC0A6F08DC026
:10A65E00A7F08EC0A8F08FC0A9F0A6C058F0A7C072
:10A66E0059F0A8C05AF0A9C05BF0200E44EF53F089
:10A67E00D8905B325A3259325832E82E3FEF53F0AF
:10A68E0058C0A0F059C0A1F00001A99FDB0EA65D35
:10A69E000F0EA759490EA8593F0EA959D8B05AEF17
:10A6AE0053F05CEF53F089EF53F0800EA85D390E36
:10A6BE00A959D8B065EF53F067EF53F071EF53F02F
:10A6CE0054C054F055C055F056C056F057C057F010
:10A6DE0076EF55F054C04BF055C04CF056C04DF0CF
:10A6EE0057C04EF0000E506E000E4F6EA5EC4AF0A5
:10A6FE004BC054F04CC055F04DC056F04EC057F004
:10A70E0076EF55F0D20EA65D530EA7597B0EA859C3
:10A71E00400EA959D8B096EF53F098EF53F055EF7D
:10A72E0054F0E40EA65DCB0EA759160EA859400E96
:10A73E00A959D8B0A5EF53F0A7EF53F0FEEF53F0A1
:10A74E00A051A111D8A4AEEF53F0B0EF53F0CCEF5F
:10A75E0053F054C01AF055C01BF056C01CF057C031
:10A76E001DF0DB0E1E6E0F0E1F6EC90E206EBF0E7D
:10A77E00216E77EC55F01AC090F01BC091F01CC002
:10A78E0092F01DC093F0E6EF53F054C01AF055C08E
:10A79E001BF056C01CF057C01DF0DB0E1E6E0F0EC8
:10A7AE001F6EC90E206E3F0E216E77EC55F01AC04B
:10A7BE0090F01BC091F01CC092F01DC093F090C0A1
:10A7CE004BF091C04CF092C04DF093C04EF0000E85
:10A7DE00506E010E4F6EA5EC4AF04BC054F04CC0BB
:10A7EE0055F04DC056F04EC057F076EF55F0A051D3
:10A7FE00A111D8A405EF54F007EF54F023EF54F055
:10A80E0054C01AF055C01BF056C01CF057C01DF0B6
:10A81E00DB0E1E6E0F0E1F6E490E206EC00E216EC9
:10A82E0077EC55F01AC094F01BC095F01CC096F052
:10A83E001DC097F03DEF54F054C01AF055C01BF0F8
:10A84E0056C01CF057C01DF0DB0E1E6E0F0E1F6E95
:10A85E00490E206E400E216E77EC55F01AC094F022
:10A86E001BC095F01CC096F01DC097F094C04BF025
:10A87E0095C04CF096C04DF097C04EF0000E506E45
:10A88E00000E4F6EA5EC4AF04BC054F04CC055F084
:10A89E004DC056F04EC057F076EF55F0D60EA65D71
:10A8AE00310EA759E20EA859400EA959D8B062EF41
:10A8BE0054F064EF54F021EF55F0E00EA65DED0E6E
:10A8CE00A759AF0EA859400EA959D8B071EF54F040
:10A8DE0073EF54F0CAEF54F0A051A111D8A47AEF3F
:10A8EE0054F07CEF54F098EF54F054C01AF055C069
:10A8FE001BF056C01CF057C01DF0E40E1E6ECB0EA2
:10A90E001F6E960E206EC00E216E77EC55F01AC09B
:10A91E0098F01BC099F01CC09AF01DC09BF0B2EFCE
:10A92E0054F054C01AF055C01BF056C01CF057C05E
:10A93E001DF0E40E1E6ECB0E1F6E960E206E400E98
:10A94E00216E77EC55F01AC098F01BC099F01CC020
:10A95E009AF01DC09BF098C04BF099C04CF09AC075
:10A96E004DF09BC04EF0000E506E010E4F6EA5ECDA
:10A97E004AF04BC054F04CC055F04DC056F04EC08E
:10A98E0057F076EF55F0A051A111D8A4D1EF54F0A5
:10A99E00D3EF54F0EFEF54F054C01AF055C01BF043
:10A9AE0056C01CF057C01DF0DB0E1E6E0F0E1F6E34
:10A9BE00C90E206EC00E216E77EC55F01AC09CF0B9
:10A9CE001BC09DF01CC09EF01DC09FF009EF55F0FE
:10A9DE0054C01AF055C01BF056C01CF057C01DF0E5
:10A9EE00DB0E1E6E0F0E1F6EC90E206E400E216EF8
:10A9FE0077EC55F01AC09CF01BC09DF01CC09EF069
:10AA0E001DC09FF09CC04BF09DC04CF09EC04DF001
:10AA1E009FC04EF0000E506E000E4F6EA5EC4AF029
:10AA2E004BC054F04CC055F04DC056F04EC057F0D0
:10AA3E0076EF55F0800EA85D7F0EA959D8A02AEFAB
:10AA4E0055F02CEF55F048EF55F054C02AF055C094
:10AA5E002BF056C02CF057C02DF054C02EF055C020
:10AA6E002FF056C030F057C031F04CEC3FF02AC0FA
:10AA7E0054F02BC055F02CC056F02DC057F076EF89
:10AA8E0055F054C04AF055C04BF056C04CF057C06C
:10AA9E004DF0A20E4E6E000E4F6E37EC5AF04AC0BD
:10AAAE0088F04BC089F00001000E89BFFF0E8A6F3F
:10AABE008B6FA2C04BF0A3C04CF0A4C04DF0A5C04C
:10AACE004EF0010E88154F6E506AA5EC4AF04BC041
:10AADE0054F04CC055F04DC056F04EC057F0120019
:10AAEE001D50800B266E1D501D24286E1CAE82EF4D
:10AAFE0055F084EF55F085EF55F028802850D8B4E6
:10AB0E008BEF55F08DEF55F0A2EF55F02828D8A415
:10AB1E0093EF55F095EF55F09DEF55F0000E1A6E30
:10AB2E00000E1B6E000E1C6E000E1D6E1C8E000E97
:10AB3E001D6EAAEF55F0000E1A6E000E1B6E000E63
:10AB4E001C6E000E1D6E2150800B276E265027188E
:10AB5E00D8B4B4EF55F0B6EF55F0B7EF55F0268CEC
:10AB6E0021502124276E20AEBFEF55F0C1EF55F0D6
:10AB7E00C2EF55F027802750D8B4C8EF55F0CAEF72
:10AB8E0055F0DFEF55F02728D8A4D0EF55F0D2EFCF
:10AB9E0055F0DAEF55F0000E1E6E000E1F6E000E11
:10ABAE00206E000E216E208E000E216EE7EF55F006
:10ABBE00000E1E6E000E1F6E000E206E000E216E19
:10ABCE002850275CD8B0EEEF55F0F0EF55F017EFA8
:10ABDE0056F026ACF5EF55F0F7EF55F0F9EF55F0CE
:10ABEE00800E261A28C029F027C028F029C027F089
:10ABFE001AC029F01EC01AF029C01EF01BC029F081
:10AC0E001FC01BF029C01FF01CC029F020C01CF073
:10AC1E0029C020F01DC029F021C01DF029C021F04F
:10AC2E00000E296E285027C022F0236A225E000EE5
:10AC3E00235A23BE2CEF56F0235009E11A0E225C44
:10AC4E00D8A02CEF56F02EEF56F065EF56F01A50B6
:10AC5E001B101C101D10D8A437EF56F03AEF56F00B
:10AC6E00010E3BEF56F0000E296E000E1A6E000E0E
:10AC7E001B6E000E1C6E000E1D6E27C028F06EEFB0
:10AC8E0056F029A04DEF56F04FEF56F055EF56F017
:10AC9E00D89029300109296E57EF56F0D8902932F5
:10ACAE001AA05CEF56F05EEF56F05FEF56F0298E6D
:10ACBE001D341D321C321B321A32282A2750285CB2
:10ACCE00D8A06CEF56F06EEF56F048EF56F026BC5B
:10ACDE0073EF56F075EF56F0B5EF56F02850D8A436
:10ACEE007BEF56F07DEF56F087EF56F0000E1A6EA2
:10ACFE00000E1B6E000E1C6E000E1D6ED6EF57F072
:10AD0E001E501A261F501B2220501C2221501D227D
:10AD1E001DA094EF56F096EF56F042EF57F029A093
:10AD2E009BEF56F09DEF56F0A3EF56F0D8902930DA
:10AD3E000109296EA5EF56F0D89029321AA0AAEF74
:10AD4E0056F0ACEF56F0ADEF56F0298E1D341D3295
:10AD5E001C321B321A32282A42EF57F01E501A5C50
:10AD6E001F501B5820501C581D50800A226E215017
:10AD7E00800A2258D8B0C6EF56F0C8EF56F0F3EF5F
:10AD8E0056F01A501E5C226E1B501F58236E1C501C
:10AD9E002058246E1D502158256EFF0E22241A6E47
:10ADAE00FF0E23201B6EFF0E24201C6EFF0E25208F
:10ADBE001D6E800E261A296C2950D8A4E9EF56F084
:10ADCE00EBEF56F0FBEF56F0010E1A26000E1B228B
:10ADDE001C221D22FBEF56F01E501A5E1F501B5AEE
:10ADEE0020501C5A21501D5A1A501B101C101D1099
:10ADFE00D8A404EF57F006EF57F03BEF57F0295069
:10AE0E00D8A40CEF57F00EEF57F03BEF57F0000EB3
:10AE1E001A6E000E1B6E000E1C6E000E1D6ED6EF0F
:10AE2E0057F0D8901A361B361C361D3629AE22EF37
:10AE3E0057F024EF57F025EF57F01A8029A02AEF8C
:10AE4E0057F02CEF57F030EF57F0D880293632EF0D
:10AE5E0057F0D89029362850D8B438EF57F03AEF3B
:10AE6E0057F03BEF57F028061CAE40EF57F042EF7D
:10AE7E0057F018EF57F0000E276E29AE49EF57F036
:10AE8E004BEF57F063EF57F029C022F07F0E2216DA
:10AE9E00D8B454EF57F056EF57F05AEF57F0010E63
:10AEAE00276E63EF57F01AA05FEF57F061EF57F080
:10AEBE0063EF57F056EF57F02750D8B469EF57F0BD
:10AECE006BEF57F096EF57F0010E1A26000E1B226D
:10AEDE001C221D221DA076EF57F078EF57F096EF4B
:10AEEE0057F01AC022F01BC023F01CC024F01DC066
:10AEFE0025F02534253224322332223222C01AF094
:10AF0E0023C01BF024C01CF025C01DF02828D8B487
:10AF1E0093EF57F095EF57F096EF57F0282A282821
:10AF2E00D8B49CEF57F09EEF57F0A6EF57F028508D
:10AF3E00D8A4A4EF57F0A6EF57F0B8EF57F0000ED5
:10AF4E001A6E000E1B6E000E1C6E000E1D6E28502B
:10AF5E00D8A4B4EF57F0B6EF57F0B8EF57F0000E95
:10AF6E00266E28A0BDEF57F0BFEF57F0C2EF57F097
:10AF7E001C8EC3EF57F01C9ED89028301D6E26AE47
:10AF8E00CBEF57F0CDEF57F0CEEF57F01D8E1AC026
:10AF9E001AF01BC01BF01CC01CF01DC01DF01200CF
:10AFAE005CC0BBF05DC0BCF05EC0BDF05FC0BEF06B
:10AFBE00BBC0D3F0BCC0D4F0BDC0D5F0BEC0D6F07F
:10AFCE00000E0001D315AA6F000ED415AB6F800EC4
:10AFDE00D515AC6F7F0ED615AD6F800EAC1909E18D
:10AFEE007F0EAD19AA11AB11D8A400EF58F002EFE5
:10AFFE0058F030EF58F05CC005F05DC006F05EC052
:10B00E0007F05FC008F05CC001F05DC002F05EC0EA
:10B01E0003F05FC004F0B4EC4EF001C01AF002C0B1
:10B02E001BF003C01CF004C01DF05CC01EF05DC020
:10B03E001FF05EC020F05FC021F077EC55F01AC013
:10B04E005CF01BC05DF01CC05EF01DC05FF036EF03
:10B05E005AF0D6BF3FEF58F0D651D511D41106E1B4
:10B06E00D305D8B03DEF58F03FEF58F07BEF58F0D6
:10B07E00FF0ED315AA6FFF0ED415AB6FFF0ED515AD
:10B08E00AC6F7F0ED615AD6FAA51AB11AC11AD11D1
:10B09E00D8A454EF58F056EF58F060EF58F05CC05B
:10B0AE005CF05DC05DF05EC05EF05FC05FF036EFDD
:10B0BE005AF0D6BF67EF58F065EF58F07BEF58F0B7
:10B0CE00000EED6F210EEC6FE70E016EFF0E026E9D
:10B0DE0081EC3EF001C05CF002C05DF003C05EF09A
:10B0EE0004C05FF036EF5AF0170EAA6FD3C0ABF064
:10B0FE00D4C0ACF0D5C0ADF0D6C0AEF0AA678AEF22
:10B10E0058F092EF58F0AE35AE33AD33AC33AB33BF
:10B11E00AA2F85EF58F0ABC0CBF0ACC0CCF0ADC0D1
:10B12E00CDF0AEC0CEF00001CB51CC11CD11CE1171
:10B13E00D8A4A4EF58F0A6EF58F0D6EF58F0000EB2
:10B14E00B76F000EB86F000EB96F000EBA6FBBEF7F
:10B15E0058F0D890D337D437D537D637010EB72716
:10B16E00000EB823B923BA23D5AFC0EF58F0C2EF03
:10B17E0058F0B0EF58F0FF0EB725AA6FFF0EB821AA
:10B18E00AB6FFF0EB921AC6FFF0EBA21AD6FAA5196
:10B19E00CB5FAB51CC5BAC51CD5BAD51CE5B810E79
:10B1AE00CB27FF0ECC23FF0ECD23FF0ECE23FF0E9B
:10B1BE00D315AA6FFF0ED415AB6F7F0ED515AC6FDE
:10B1CE00000ED615AD6F000EAA11D36F000EAB1187
:10B1DE00D46F800EAC11D56F000EAD11D66FCBA112
:10B1EE00FBEF58F0FDEF58F005EF59F0D351D32790
:10B1FE00D451D423D551D523D651D623CE35CE33E3
:10B20E00CD33CC33CB33D351D327D451D423D551D3
:10B21E00D523D651D623000EB36F000EB46F000E99
:10B22E00B56F000EB66FB3C0BFF0B4C0C0F0B5C0FE
:10B23E00C1F0B6C0C2F0000ECF6F000ED06F000E80
:10B24E00D16F010ED26F74EF59F0B351CF25C36F8A
:10B25E00B451D021C46FB551D121C56FB651D22191
:10B26E00C66FC351D35DC451D459C551D559D651AA
:10B27E00800AAA6FC651800AAA59D8A049EF59F080
:10B28E004BEF59F067EF59F0C351CF25B36FC4514F
:10B29E00D021B46FC551D121B56FC651D221B66F31
:10B2AE00C351D35FC451D45BC551D55BC651D65B78
:10B2BE00CF51BF27D051C023D151C123D251C22368
:10B2CE00D351D327D451D423D551D523D651D623F8
:10B2DE00D890D233D133D033CF33CF51D011D11107
:10B2EE00D211D8A47DEF59F07FEF59F02CEF59F021
:10B2FE00D351D411D511D611D8B488EF59F08AEFA5
:10B30E0059F0EBEF59F0000EC76F000EC86F800EAC
:10B31E00C96F3F0ECA6FC7C032F0C8C033F0C9C084
:10B32E0034F0CAC035F0000E366E000E376E800E49
:10B33E00386E3F0E396EBEEC42F0D8A0A9EF59F030
:10B34E00ABEF59F0EBEF59F0000E0001C76F000E96
:10B35E00C86F800EC96F3F0ECA6F000E326E000EA0
:10B36E00336E800E346E3F0E356EC7C036F0C8C0D9
:10B37E0037F0C9C038F0CAC039F0BEEC42F0D8B0D0
:10B38E00CBEF59F0CDEF59F0D6EF59F0020E000188
:10B39E00BF27000EC023C123C223EBEF59F0010ECD
:10B3AE000001BF15AA6F000EC015AB6F000EC115C0
:10B3BE00AC6F000EC215AD6FAA51BF27AB51C023A3
:10B3CE00AC51C123AD51C223BFC0AAF0C0C0ABF077
:10B3DE00C1C0ACF0C2C0ADF00001AD35AD33AC3381
:10B3EE00AB33AA33000EAA25D36F000EAB21D46F58
:10B3FE00000EAC21D56F3F0EAD21D66FCBC0AAF09B
:10B40E00CCC0ABF0CDC0ACF0CEC0ADF0170ED89026
:10B41E00AA37AB37AC37AD37E82E0EEF5AF0AA513C
:10B42E00D327AB51D423AC51D523AD51D623D3C0A2
:10B43E00BBF0D4C0BCF0D5C0BDF0D6C0BEF0BBC012
:10B44E00C7F0BCC0C8F0BDC0C9F0BEC0CAF0C7C00E
:10B45E005CF0C8C05DF0C9C05EF0CAC05FF01200FB
:10B46E00C4C16AF0C5C16BF0C6C16CF0C7C16DF046
:10B47E004AC06AF04BC06BF04CC06CF04DC06DF022
:10B48E006AC050F06BC051F06CC052F06DC053F0FA
:10B49E00200E57EF5AF0D89053325232513250326A
:10B4AE00E82E52EF5AF050C068F051C069F0FF0E0E
:10B4BE0000016A15646FFF0E6B15656FFF0E6C153C
:10B4CE00666F7F0E6D15676F800E665D7F0E675916
:10B4DE00D8A074EF5AF076EF5AF0A0EF5AF04AC0A7
:10B4EE002AF04BC02BF04CC02CF04DC02DF04AC0B2
:10B4FE002EF04BC02FF04CC030F04DC031F04CEC64
:10B50E003FF060003BF1D9FF60003FF1DAFF6000D1
:10B51E00ABF0DEFF6000AFF0DEFF6000B3F0DEFFE9
:10B52E006000B7F0DEFF000E4B6E000E4A6E9FEF0E
:10B53E005CF0DB0E645D0F0E6559C90E66594D0E3B
:10B54E006759D8B0ADEF5AF0AFEF5AF0B0EF5BF0ED
:10B55E004AC001F04BC002F04CC003F04DC004F0E5
:10B56E00BBEC3EF001C076F002C077F003C078F07D
:10B57E0004C079F0000E1E6E000E1F6E000E206EBF
:10B58E003F0E216E830E056EF90E066E220E076EAD
:10B59E003F0E086E76C001F077C002F078C003F05F
:10B5AE0079C004F0B4EC4EF001C01AF002C01BF0EA
:10B5BE0003C01CF004C01DF077EC55F01AC02AF041
:10B5CE001BC02BF01CC02CF01DC02DF040EC43F026
:10B5DE002AC07AF02BC07BF02CC07CF02DC07DF001
:10B5EE007AC001F07BC002F07CC003F07DC004F095
:10B5FE00010EC3EC43F001C072F002C073F003C041
:10B60E0074F004C075F0DA0E056E0F0E066EC90EDC
:10B61E00076E3F0E086E72C001F073C002F074C068
:10B62E0003F075C004F0B4EC4EF001C02EF002C071
:10B63E002FF003C030F004C031F076C02AF077C08E
:10B64E002BF078C02CF079C02DF04CEC3FF02AC0D6
:10B65E006EF02BC06FF02CC070F02DC071F06EC06C
:10B66E002AF06FC02BF070C02CF071C02DF0A30E1D
:10B67E00056E850E066E880E076E320E086E72C04F
:10B68E0001F073C002F074C003F075C004F0B4ECA6
:10B69E004EF001C02EF002C02FF003C030F004C0F7
:10B6AE0031F04CEC3FF060003BF1D9FF60003FF110
:10B6BE00DAFF6000ABF0DEFF6000AFF0DEFF60008F
:10B6CE00B3F0DEFF6000B7F0DEFF000168516911D4
:10B6DE00D8B474EF5BF076EF5BF0AAEF5BF060002E
:10B6EE003BF1D9FF60003FF1DAFF6F0078FF46F0C3
:10B6FE006F0078FF47F06F0078FF48F06F0078FF1B
:10B70E0049F0D5EC3EF060003BF1D9FF60003FF10F
:10B71E00DAFF60001BF1DEFF60001FF1DEFF60004C
:10B72E0023F1DEFF600027F1DEFF7AC050F07BC010
:10B73E0051F0501E511E504A512A50C04AF051C06D
:10B74E004BF09FEF5CF07AC04AF07BC04BF09FEF5E
:10B75E005CF04AC001F04BC002F04CC003F04DC08B
:10B76E0004F0BBEC3EF001C076F002C077F003C0EF
:10B77E0078F004C079F0000E1E6E000E1F6E000EE3
:10B78E00206E3F0E216E830E056EF90E066E220E92
:10B79E00076E3F0E086E76C001F077C002F078C0DB
:10B7AE0003F079C004F0B4EC4EF001C01AF002C000
:10B7BE001BF003C01CF004C01DF077EC55F01AC04E
:10B7CE002AF01BC02BF01CC02CF01DC02DF040EC3D
:10B7DE0043F02AC07AF02BC07BF02CC07CF02DC039
:10B7EE007DF07AC001F07BC002F07CC003F07DC01A
:10B7FE0004F0010EC3EC43F001C072F002C073F00E
:10B80E0003C074F004C075F0DA0E056E0F0E066EEE
:10B81E00C90E076E3F0E086E72C001F073C002F0C3
:10B82E0074C003F075C004F0B4EC4EF001C02EF0FD
:10B83E0002C02FF003C030F004C031F076C02AF001
:10B84E0077C02BF078C02CF079C02DF04CEC3FF087
:10B85E002AC06EF02BC06FF02CC070F02DC071F0AE
:10B86E006EC02AF06FC02BF070C02CF071C02DF09E
:10B87E00A30E056E850E066E880E076E320E086ECE
:10B88E0072C001F073C002F074C003F075C004F012
:10B89E00B4EC4EF001C02EF002C02FF003C030F019
:10B8AE0004C031F04CEC3FF02AC060F02BC061F0C8
:10B8BE002CC062F02DC063F0000168516911D8B43C
:10B8CE006BEF5CF06DEF5CF08BEF5CF060C046F000
:10B8DE0061C047F062C048F063C049F0D5EC3EF05D
:10B8EE0060003BF1D9FF60003FF1DAFF60001BF111
:10B8FE00DEFF60001FF1DEFF600023F1DEFF60005F
:10B90E0027F1DEFF9CEF5BF060003BF1D9FF60009A
:10B91E003FF1DAFF600083F1DEFF600087F1DEFFAA
:10B92E0060008BF1DEFF60008FF1DEFFAAEF5BF0AF
:10B93E00120054C082F055C083F056C084F057C038
:10B94E0085F082C098F083C099F084C09AF085C0CB
:10B95E009BF098C058F099C059F09AC05AF09BC00D
:10B96E005BF0200EC0EF5CF0D8905B325A32593249
:10B97E005832E82EBBEF5CF058C092F059C093F0ED
:10B98E0000019B9FDB0E985D0F0E9959490E9A5937
:10B99E003F0E9B59D8B0D6EF5CF0D8EF5CF001EFBC
:10B9AE005DF0800E9A5D390E9B59D8B0E1EF5CF0D8
:10B9BE00E3EF5CF0EDEF5CF0000E546E000E556E92
:10B9CE00800E566E3F0E576E6AEF5FF054C02AF02F
:10B9DE0055C02BF056C02CF057C02DF09DEC44F006
:10B9EE002AC054F02BC055F02CC056F02DC057F085
:10B9FE006AEF5FF0D20E985D530E99597B0E9A59ED
:10BA0E00400E9B59D8B00EEF5DF010EF5DF0D9EF00
:10BA1E005DF0E40E985DCB0E9959160E9A59400EB4
:10BA2E009B59D8A01DEF5DF01FEF5DF07CEF5DF030
:10BA3E0092519311D8A426EF5DF028EF5DF044EFFC
:10BA4E005DF054C01AF055C01BF056C01CF057C024
:10BA5E001DF0DB0E1E6E0F0E1F6E490E206EC00EF9
:10BA6E00216E77EC55F01AC086F01BC087F01CC013
:10BA7E0088F01DC089F05EEF5DF054C01AF055C01D
:10BA8E001BF056C01CF057C01DF0DB0E1E6E0F0EC5
:10BA9E001F6E490E206E400E216E77EC55F01AC0C7
:10BAAE0086F01BC087F01CC088F01DC089F086C0D0
:10BABE002AF087C02BF088C02CF089C02DF09DECA9
:10BACE0044F02AC046F02BC047F02CC048F02DC0E1
:10BADE0049F0D5EC3EF046C054F047C055F048C092
:10BAEE0056F049C057F06AEF5FF092519311D8B4F7
:10BAFE0083EF5DF085EF5DF0B3EF5DF054C01AF0AB
:10BB0E0055C01BF056C01CF057C01DF0DB0E1E6E4C
:10BB1E000F0E1F6EC90E206E3F0E216E77EC55F084
:10BB2E001AC08EF01BC08FF01CC090F01DC091F09B
:10BB3E008EC04AF08FC04BF090C04CF091C04DF0CB
:10BB4E00A5EC46F04AC054F04BC055F04CC056F030
:10BB5E004DC057F06AEF5FF0DB0E2A6E0F0E2B6EA4
:10BB6E00C90E2C6E3F0E2D6E54C02EF055C02FF008
:10BB7E0056C030F057C031F04CEC3FF02AC04AF0BE
:10BB8E002BC04BF02CC04CF02DC04DF0A5EC46F068
:10BB9E004AC054F04BC055F04CC056F04DC057F053
:10BBAE006AEF5FF0D60E985D310E9959E20E9A59F2
:10BBBE00400E9B59D8B0E6EF5DF0E8EF5DF095EFE3
:10BBCE005EF0E00E985DED0E9959AF0E9A59400E4B
:10BBDE009B59D8A0F5EF5DF0F7EF5DF04AEF5EF000
:10BBEE0092519311D8A4FEEF5DF000EF5EF01CEFC2
:10BBFE005EF054C01AF055C01BF056C01CF057C072
:10BC0E001DF0DB0E1E6E0F0E1F6EC90E206EC00EC7
:10BC1E00216E77EC55F01AC08AF01BC08BF01CC059
:10BC2E008CF01DC08DF036EF5EF054C01AF055C08A
:10BC3E001BF056C01CF057C01DF0DB0E1E6E0F0E13
:10BC4E001F6EC90E206E400E216E77EC55F01AC095
:10BC5E008AF01BC08BF01CC08CF01DC08DF08AC00A
:10BC6E002AF08BC02BF08CC02CF08DC02DF09DECEB
:10BC7E0044F02AC054F02BC055F02CC056F02DC005
:10BC8E0057F06AEF5FF092519311D8B451EF5EF016
:10BC9E0053EF5EF079EF5EF0E40E2A6ECB0E2B6E54
:10BCAE00960E2C6EC00E2D6E54C02EF055C02FF079
:10BCBE0056C030F057C031F04CEC3FF02AC04AF07D
:10BCCE002BC04BF02CC04CF02DC04DF0A5EC46F027
:10BCDE004AC054F04BC055F04CC056F04DC057F012
:10BCEE006AEF5FF054C01AF055C01BF056C01CF03E
:10BCFE0057C01DF0E40E1E6ECB0E1F6E960E206EFC
:10BD0E00C00E216E77EC55F01AC08EF01BC08FF06E
:10BD1E001CC090F01DC091F09FEF5DF0800E9A5DFB
:10BD2E007F0E9B59D8A09EEF5EF0A0EF5EF0BCEFA9
:10BD3E005EF054C02AF055C02BF056C02CF057C000
:10BD4E002DF054C02EF055C02FF056C030F057C015
:10BD5E0031F04CEC3FF02AC054F02BC055F02CC003
:10BD6E0056F02DC057F06AEF5FF054C04AF055C040
:10BD7E004BF056C04CF057C04DF0940E4E6E000E68
:10BD8E004F6E37EC5AF04AC07EF04BC07FF0000188
:10BD9E00000E7FBFFF0E806F816F3AEF5FF094C091
:10BDAE002AF095C02BF096C02CF097C02DF09DEC8C
:10BDBE0044F02AC054F02BC055F02CC056F02DC0C4
:10BDCE0057F06AEF5FF094C046F095C047F096C00A
:10BDDE0048F097C049F0D5EC3EF046C04AF047C057
:10BDEE004BF048C04CF049C04DF0A5EC46F04AC0AF
:10BDFE0054F04BC055F04CC056F04DC057F06AEFA2
:10BE0E005FF094C02AF095C02BF096C02CF097C02E
:10BE1E002DF09DEC44F02AC046F02BC047F02CC00C
:10BE2E0048F02DC049F0D5EC3EF046C054F047C066
:10BE3E0055F048C056F049C057F06AEF5FF094C015
:10BE4E004AF095C04BF096C04CF097C04DF0A5EC63
:10BE5E0046F04AC054F04BC055F04CC056F04DC0A1
:10BE6E0057F06AEF5FF0030E7E15586E000E7F15C9
:10BE7E00596E000E80155A6E000E81155B6E5B506A
:10BE8E00000AD8B463EF5FF026EF5FF05950000A56
:10BE9E00D8B454EF5FF026EF5FF05850000AD8B4D4
:10BEAE00D6EF5EF0010AD8B4EAEF5EF0030AD8B41A
:10BEBE0008EF5FF026EF5FF05A50000AD8B44DEF4E
:10BECE005FF026EF5FF012004BC060F04CC061F0E7
:10BEDE004DC062F04EC063F060C08EF061C08FF056
:10BEEE0062C090F063C091F08EC04FF08FC050F0E2
:10BEFE0090C051F091C052F0200E8BEF5FF0D890B1
:10BF0E005232513250324F32E82E86EF5FF04FC030
:10BF1E0078F050C079F051C07AF052C07BF0000139
:10BF2E00919F800E905D4C0E9159D8A0A1EF5FF0BD
:10BF3E00A3EF5FF011EF60F04BC001F04CC002F0C8
:10BF4E004DC003F04EC004F03FEC42F00150021021
:10BF5E00D8A4B4EF5FF0B6EF5FF0C0EF5FF04BC068
:10BF6E004BF04CC04CF04DC04DF04EC04EF0ABEF10
:10BF7E0063F0AD0EF66EFE0EF76EF86A09006F00F6
:10BF8E00D4FF1AF009006F00D4FF1BF009006F00F8
:10BF9E00D4FF1CF00A006F00D4FF1DF0000E1E6EC1
:10BFAE00000E1F6E800E206E030E216E77EC55F084
:10BFBE001AC08AF01BC08BF01CC08CF01DC08DF017
:10BFCE000001785179117A117B11D8A4F1EF5FF04D
:10BFDE00F3EF5FF0FDEF5FF08AC04BF08BC04CF0DB
:10BFEE008CC04DF08DC04EF0ABEF63F08AC046F0C2
:10BFFE008BC047F08CC048F08DC049F0D5EC3EF0B8
:10C00E0046C04BF047C04CF048C04DF049C04EF012
:10C01E00ABEF63F0E00E905D3E0E9159D8B01AEF83
:10C02E0060F01CEF60F02DEF60F0800E905D390E29
:10C03E009159D8B025EF60F027EF60F029EF60F04E
:10C04E00B6EF5FF0886989696FEF61F04BC001F060
:10C05E004CC002F04DC003F04EC004F0BBEC3EF0FD
:10C06E0001C04BF002C04CF003C04DF004C04EF0C6
:10C07E00980E0001905D3F0E9159D8B049EF60F0D7
:10C08E004BEF60F0F0EF60F0300E905D3F0E915987
:10C09E00D8B054EF60F056EF60F0ACEF60F0000EE9
:10C0AE00896F000E886F000E1E6E000E1F6E800EC2
:10C0BE00206EBF0E216E000E056E000E066E000E77
:10C0CE00076E400E086E4BC001F04CC002F04DC022
:10C0DE0003F04EC004F0B4EC4EF001C01AF002C0F2
:10C0EE001BF003C01CF004C01DF077EC55F01AC015
:10C0FE0032F01BC033F01CC034F01DC035F0000E02
:10C10E001E6E000E1F6E000E206E400E216E4BC076
:10C11E001AF04CC01BF04DC01CF04EC01DF077EC59
:10C12E0055F01AC036F01BC037F01CC038F01DC0D9
:10C13E0039F0D8EC48F032C04BF033C04CF034C07C
:10C14E004DF035C04EF06FEF61F0000E896F010EAD
:10C15E00886F000E1E6E000E1F6E800E206EBF0EBC
:10C16E00216E4BC01AF04CC01BF04DC01CF04EC0DF
:10C17E001DF077EC55F01AC032F01BC033F01CC026
:10C18E0034F01DC035F0000E1E6E000E1F6E800EB8
:10C19E00206E3F0E216E4BC01AF04CC01BF04DC0EE
:10C1AE001CF04EC01DF077EC55F01AC036F01BC0D7
:10C1BE0037F01CC038F01DC039F0D8EC48F032C052
:10C1CE004BF033C04CF034C04DF035C04EF06FEF35
:10C1DE0061F01C0E905D400E9159D8B0F9EF60F0F1
:10C1EE00FBEF60F051EF61F0000E896F020E886F69
:10C1FE00000E1E6E000E1F6EC00E206EBF0E216E44
:10C20E004BC01AF04CC01BF04DC01CF04EC01DF0C0
:10C21E0077EC55F01AC032F01BC033F01CC034F06E
:10C22E001DC035F0000E1E6E000E1F6E800E206EAD
:10C23E003F0E216E000E056E000E066EC00E076ECE
:10C24E003F0E086E4BC001F04CC002F04DC003F023
:10C25E004EC004F0B4EC4EF001C01AF002C01BF058
:10C26E0003C01CF004C01DF077EC55F01AC036F078
:10C27E001BC037F01CC038F01DC039F0D8EC48F0A8
:10C28E0032C04BF033C04CF034C04DF035C04EF0E0
:10C29E006FEF61F0000E896F030E886F000E326E25
:10C2AE00000E336E800E346EBF0E356E4BC036F000
:10C2BE004CC037F04DC038F04EC039F0D8EC48F0D5
:10C2CE0032C04BF033C04CF034C04DF035C04EF0A0
:10C2DE004BC001F04CC002F04DC003F04EC004F054
:10C2EE004BC005F04CC006F04DC007F04EC008F034
:10C2FE00B4EC4EF001C08AF002C08BF003C08CF09B
:10C30E0004C08DF08AC001F08BC002F08CC003F027
:10C31E008DC004F08AC005F08BC006F08CC007F00B
:10C32E008DC008F0B4EC4EF001C084F002C085F070
:10C33E0003C086F004C087F0850EF66EFE0EF76E13
:10C34E00F86A09006F00D4FF1EF009006F00D4FFD9
:10C35E001FF009006F00D4FF20F00A006F00D4FF19
:10C36E0021F084C005F085C006F086C007F087C0B6
:10C37E0008F08D0EF66EFE0EF76EF86A09006F006D
:10C38E00D4FF01F009006F00D4FF02F009006F0026
:10C39E00D4FF03F00A006F00D4FF04F0B4EC4EF0AB
:10C3AE0001C01AF002C01BF003C01CF004C01DF047
:10C3BE0077EC55F01AC07CF01BC07DF01CC07EF0EF
:10C3CE001DC07FF07D0EF66EFE0EF76E000EF86E3F
:10C3DE0009006F00D4FF1EF009006F00D4FF1FF09C
:10C3EE0009006F00D4FF20F00A006F00D4FF21F087
:10C3FE0084C005F085C006F086C007F087C008F03F
:10C40E007CC001F07DC002F07EC003F07FC004F05E
:10C41E00B4EC4EF001C01AF002C01BF003C01CF0C9
:10C42E0004C01DF077EC55F01AC064F01BC065F027
:10C43E001CC066F01DC067F064C001F065C002F05C
:10C44E0066C003F067C004F08AC005F08BC006F02A
:10C45E008CC007F08DC008F0B4EC4EF001C070F047
:10C46E0002C071F003C072F004C073F0810EF66E5C
:10C47E00FE0EF76EF86A09006F00D4FF1EF0090079
:10C48E006F00D4FF1FF009006F00D4FF20F00A00E8
:10C49E006F00D4FF21F084C005F085C006F086C081
:10C4AE0007F087C008F0890EF66EFE0EF76EF86A7A
:10C4BE0009006F00D4FF01F009006F00D4FF02F0F5
:10C4CE0009006F00D4FF03F00A006F00D4FF04F0E0
:10C4DE00B4EC4EF001C01AF002C01BF003C01CF009
:10C4EE0004C01DF077EC55F01AC07CF01BC07DF037
:10C4FE001CC07EF01DC07FF07CC001F07DC002F03C
:10C50E007EC003F07FC004F084C005F085C006F045
:10C51E0086C007F087C008F0B4EC4EF001C074F08E
:10C52E0002C075F003C076F004C077F0000189BF39
:10C53E00A5EF62F0A3EF62F0EDEF62F04BC005F0F5
:10C54E004CC006F04DC007F04EC008F074C01EF08F
:10C55E0075C01FF076C020F077C021F070C01AF0C1
:10C56E0071C01BF072C01CF073C01DF077EC55F05B
:10C57E001AC001F01BC002F01CC003F01DC004F075
:10C58E00B4EC4EF001C080F002C081F003C082F026
:10C59E0004C083F04BC02AF04CC02BF04DC02CF0E1
:10C5AE004EC02DF080C02EF081C02FF082C030F032
:10C5BE0083C031F04CEC3FF02AC04BF02BC04CF056
:10C5CE002CC04DF02DC04EF0ABEF63F04BC005F01C
:10C5DE004CC006F04DC007F04EC008F074C01EF0FF
:10C5EE0075C01FF076C020F077C021F070C01AF031
:10C5FE0071C01BF072C01CF073C01DF077EC55F0CB
:10C60E001AC001F01BC002F01CC003F01DC004F0E4
:10C61E00B4EC4EF001C080F002C081F003C082F095
:10C62E0004C083F088C04FF089C050F0D8904F36C8
:10C63E005036D8904F365036910E4F24F66EFE0E71
:10C64E005020F76EF86A000EF82209006F00D4FF32
:10C65E002EF009006F00D4FF2FF009006F00D4FFF9
:10C66E0030F00A006F00D4FF31F080C02AF081C094
:10C67E002BF082C02CF083C02DF04CEC3FF02AC082
:10C68E0068F02BC069F02CC06AF02DC06BF04BC067
:10C69E002EF04CC02FF04DC030F04EC031F068C0BF
:10C6AE002AF069C02BF06AC02CF06BC02DF04CEC58
:10C6BE003FF02AC06CF02BC06DF02CC06EF02DC078
:10C6CE006FF088C04FF089C050F0D8904F3650367A
:10C6DE00D8904F365036A10E4F24F66EFE0E5020D7
:10C6EE00F76EF86A000EF82209006F00D4FF2AF0E8
:10C6FE0009006F00D4FF2BF009006F00D4FF2CF05F
:10C70E000A006F00D4FF2DF06CC02EF06DC02FF01C
:10C71E006EC030F06FC031F04CEC3FF02AC08AF0A2
:10C72E002BC08BF02CC08CF02DC08DF000017851F9
:10C73E0079117A117B11D8A4A7EF63F0A9EF63F0FA
:10C74E00FDEF5FF0F3EF5FF01200000E0001876F58
:10C75E00000E866F62C098F063C099F064C09AF0C4
:10C76E0065C09BF09BBFC0EF63F0BEEF63F0D6EFEA
:10C77E0063F0000E876F010E866F98C046F099C069
:10C78E0047F09AC048F09BC049F0D5EC3EF046C049
:10C79E0098F047C099F048C09AF049C09BF0000E3F
:10C7AE0000019F6F000E9E6FF0C08AF0F1C08BF0FB
:10C7BE0086518711D8A4E6EF63F0E8EF63F0EFEF50
:10C7CE0063F0F4A5EDEF63F0EFEF63F009EF64F0C3
:10C7DE0086518711D8A4F6EF63F0F8EF63F0FEEF01
:10C7EE0063F0000E6D6F2B0E6C6F02EF64F0000E97
:10C7FE006D6F2D0E6C6F6CC05CF29E4B9F2B8A077B
:10C80E00D8A08B0798C001F099C002F09AC003F02F
:10C81E009BC004F03FEC42F001040210D8A41AEFC2
:10C82E0064F01CEF64F073EF64F0BF0E0001676FED
:10C83E00FF0E686F6651696F6A6B675169276851A1
:10C84E006A236A510AE11A0E695DD8A031EF64F0CD
:10C85E0034EF64F0010E35EF64F0000E6E6F6F6B07
:10C86E006E516F11D8B43EEF64F040EF64F04EEFAE
:10C87E0064F05C0E9E25016E020E9F21026EE80E84
:10C88E00036EFF0E046ED3EC3FF05AEF64F05C0EB5
:10C89E009E25016E020E9F21026EF00E036EFF0E9C
:10C8AE00046ED3EC3FF00001FD0E8A27FF0E8B23A2
:10C8BE0060C013F061C014F05C0E156E020E166EA1
:10C8CE008AC017F08BC018F062EC41F013C060F014
:10C8DE0014C061F000EF6AF098C001F099C002F048
:10C8EE009AC003F09BC004F03FEC42F001500210DE
:10C8FE00D8A484EF64F086EF64F0DDEF64F0BF0E31
:10C90E000001676FFF0E686F6651696F6A6B675142
:10C91E00692768516A236A510AE11A0E695DD8A027
:10C92E009BEF64F09EEF64F0010E9FEF64F0000E3B
:10C93E00706F716B70517111D8B4A8EF64F0AAEFDB
:10C94E0064F0B8EF64F05C0E9E25016E020E9F211E
:10C95E00026EEC0E036EFF0E046ED3EC3FF0C4EFCE
:10C96E0064F05C0E9E25016E020E9F21026EF40E87
:10C97E00036EFF0E046ED3EC3FF00001FD0E8A270E
:10C98E00FF0E8B2360C013F061C014F05C0E156EA9
:10C99E00020E166E8AC017F08BC018F062EC41F0D2
:10C9AE0013C060F014C061F000EF6AF0000E0001D9
:10C9BE00A06F000EA16F800EA26F3F0EA36F000E30
:10C9CE009D6F000E9C6F98C001F099C002F09AC046
:10C9DE0003F09BC004F0000E056E000E066E000EF6
:10C9EE00076E000E086E53EC40F0D8B001EF65F004
:10C9FE0003EF65F086EF65F022EF65F0A0C001F061
:10CA0E00A1C002F0A2C003F0A3C004F0000E056E98
:10CA1E00000E066E200E076E410E086EB4EC4EF040
:10CA2E0001C0A0F002C0A1F003C0A2F004C0A3F0A8
:10CA3E0000019C4B9D2B98C032F099C033F09AC0E8
:10CA4E0034F09BC035F0000E056E000E066E200E03
:10CA5E00076E410E086EA0C001F0A1C002F0A2C088
:10CA6E0003F0A3C004F0B4EC4EF001C036F002C0E7
:10CA7E0037F003C038F004C039F0BEEC42F0D8B045
:10CA8E004BEF65F04DEF65F005EF65F06DEF65F07E
:10CA9E00A0C032F0A1C033F0A2C034F0A3C035F074
:10CAAE00000E366E000E376E200E386E410E396E49
:10CABE00D8EC48F032C0A0F033C0A1F034C0A2F0E0
:10CACE0035C0A3F000019C07D8A09D0798C032F096
:10CADE0099C033F09AC034F09BC035F0A0C036F048
:10CAEE00A1C037F0A2C038F0A3C039F0BEEC42F0BE
:10CAFE00D8A084EF65F086EF65F04FEF65F066C065
:10CB0E0007F0086A6FEC3FF0075000018D6F8DC083
:10CB1E008CF0670E8D19D8A497EF65F099EF65F03C
:10CB2E00BFEF65F0F251F311D8A4A0EF65F0A2EFBC
:10CB3E0065F0A6EF65F0000EF36F010EF26FF3BF16
:10CB4E00B3EF65F0F35106E1F205D8B0B1EF65F041
:10CB5E00B3EF65F0B9EF65F0000E896F060E886FC2
:10CB6E00C8EF65F0F2C088F0F3C089F0C8EF65F049
:10CB7E00F3BFC4EF65F0C6EF65F0B3EF65F0B9EF44
:10CB8E0065F0670E8D19D8A4CFEF65F0D1EF65F083
:10CB9E0000EF66F09DAFDFEF65F0FC0E9C5DFF0EC3
:10CBAE009D59D8A0DDEF65F0DFEF65F0FEEF65F083
:10CBBE00FF0E676FFF0E686F88C069F089C06AF05C
:10CBCE006751692768516A239C51695D6A51800AD1
:10CBDE006B6F9D51800A6B59D8A0F8EF65F0FAEF94
:10CBEE0065F0FEEF65F0660E8C6F00EF66F0650E79
:10CBFE008C6F88C07EF089C07FF0670E8D19D8A427
:10CC0E000BEF66F00DEF66F01DEF66F0660E8C19F9
:10CC1E00D8A414EF66F016EF66F01FEF66F09DBF16
:10CC2E001DEF66F01BEF66F01FEF66F07E4B7F2B5D
:10CC3E00660E8C19D8A426EF66F028EF66F048EF42
:10CC4E0066F09DBF2FEF66F02DEF66F03BEF66F0BE
:10CC5E00000EA06F000EA16F800EA26F3F0EA36F8D
:10CC6E00000E9D6F000E9C6F670E8D19D8B442EFAB
:10CC7E0066F044EF66F048EF66F09C517E279D51BA
:10CC8E007F23000E976F000E966F98C08EF099C09E
:10CC9E008FF09AC090F09BC091F0A0C080F0A1C020
:10CCAE0081F0A2C082F0A3C083F0D9EF66F08EC0EF
:10CCBE0032F08FC033F090C034F091C035F0A0C088
:10CCCE0036F0A1C037F0A2C038F0A3C039F0D8ECCE
:10CCDE0048F032C04BF033C04CF034C04DF035C08C
:10CCEE004EF09CEC45F04BC092F04CC093F04DC012
:10CCFE0094F04EC095F092C02AF093C02BF094C0E1
:10CD0E002CF095C02DF040EC43F02AC084F02BC0DF
:10CD1E0085F08EC02AF08FC02BF090C02CF091C001
:10CD2E002DF0A0C005F0A1C006F0A2C007F0A3C070
:10CD3E0008F092C001F093C002F094C003F095C0C9
:10CD4E0004F0B4EC4EF001C02EF002C02FF003C080
:10CD5E0030F004C031F04CEC3FF02AC08EF02BC006
:10CD6E008FF02CC090F02DC091F0A0C032F0A1C079
:10CD7E0033F0A2C034F0A3C035F0000E366E000EB4
:10CD8E00376E200E386E410E396ED8EC48F032C038
:10CD9E00A0F033C0A1F034C0A2F035C0A3F0000162
:10CDAE00964B972B7E51965D9751800A676F7F51F8
:10CDBE00800A6759D8A0E6EF66F0E8EF66F05EEFFE
:10CDCE0066F0A0C001F0A1C002F0A2C003F0A3C0A3
:10CDDE0004F0000E056E000E066EA00E076E400EDD
:10CDEE00086EB4EC4EF001C092F002C093F003C096
:10CDFE0094F004C095F08EC032F08FC033F090C026
:10CE0E0034F091C035F092C036F093C037F094C034
:10CE1E0038F095C039F0BEEC42F0D8B019EF67F09B
:10CE2E001BEF67F026EF67F0000E0001926F000E09
:10CE3E00936F000E946F000E956F4FEF67F08EC0DC
:10CE4E0001F08FC002F090C003F091C004F092C0C8
:10CE5E0005F093C006F094C007F095C008F053ECAF
:10CE6E0040F0D8A03DEF67F03FEF67F04FEF67F06F
:10CE7E00000184B145EF67F047EF67F04FEF67F0C1
:10CE8E00000E926F000E936F000E946F000E956F52
:10CE9E0098C01AF099C01BF09AC01CF09BC01DF0F0
:10CEAE0092C01EF093C01FF094C020F095C021F0E8
:10CEBE0077EC55F01AC08EF01BC08FF01CC090F0AE
:10CECE001DC091F08EC032F08FC033F090C034F0A0
:10CEDE0091C035F0000E056E000E066E200E076E28
:10CEEE00410E086E80C001F081C002F082C003F0D6
:10CEFE0083C004F0B4EC4EF001C036F002C037F03F
:10CF0E0003C038F004C039F0BEEC42F0D8A092EF66
:10CF1E0067F094EF67F0BDEF67F000019C4B9D2B1F
:10CF2E0080C001F081C002F082C003F083C004F023
:10CF3E00000E056E000E066E200E076E410E086E78
:10CF4E00B4EC4EF001C080F002C081F003C082F05C
:10CF5E0004C083F0660E00018C19D8A4B9EF67F0F7
:10CF6E00BBEF67F0BDEF67F07E4B7F2B80C0A0F06C
:10CF7E0081C0A1F082C0A2F083C0A3F0650E0001B3
:10CF8E008C19D8B4CDEF67F0CFEF67F0D5EF67F01F
:10CF9E009CC07CF09DC07DF0D9EF67F0000E7D6FD8
:10CFAE00000E7C6F000E7B6F000E7A6F000E796F95
:10CFBE00000E786F000E976F000E966FD4EF68F02C
:10CFCE008EC032F08FC033F090C034F091C035F087
:10CFDE00A0C036F0A1C037F0A2C038F0A3C039F01F
:10CFEE00D8EC48F032C04BF033C04CF034C04DF0AA
:10CFFE0035C04EF09CEC45F04BC092F04CC093F017
:10D00E004DC094F04EC095F092C02AF093C02BF014
:10D01E0094C02CF095C02DF040EC43F02AC084F063
:10D02E002BC085F00001F4B91FEF68F021EF68F016
:10D03E003EEF68F084518511D8A428EF68F02AEFEE
:10D04E0068F03EEF68F0670E8D19D8A431EF68F0E6
:10D05E0033EF68F03EEF68F07DBF3AEF68F038EFDF
:10D06E0068F03EEF68F0784B792B88EF68F07A51D4
:10D07E007B11D8A445EF68F047EF68F071EF68F0C8
:10D08E007DBF4EEF68F04CEF68F071EF68F05C0E0C
:10D09E009E25D96E020E9F21DA6E2E0EDF6E9E4BEE
:10D0AE009F2B8A07D8A08B07000E7B6F010E7A6F1D
:10D0BE0071EF68F05C0E9E25D96E020E9F21DA6E1E
:10D0CE00300EDF6E9E4B9F2B8A07D8A08B077807FA
:10D0DE00D8A0790778517911D8A478EF68F07AEF53
:10D0EE0068F061EF68F05C0E9E25D96E020E9F21EE
:10D0FE00DA6E8451300FDF6E9E4B9F2B8A07D8A0BD
:10D10E008B078EC02AF08FC02BF090C02CF091C0F0
:10D11E002DF0A0C005F0A1C006F0A2C007F0A3C07C
:10D12E0008F092C001F093C002F094C003F095C0D5
:10D13E0004F0B4EC4EF001C02EF002C02FF003C08C
:10D14E0030F004C031F04CEC3FF02AC08EF02BC012
:10D15E008FF02CC090F02DC091F0A0C032F0A1C085
:10D16E0033F0A2C034F0A3C035F0000E366E000EC0
:10D17E00376E200E386E410E396ED8EC48F032C044
:10D18E00A0F033C0A1F034C0A2F035C0A3F000016E
:10D19E007C07D8A07D07964B972B7E51965D9751B5
:10D1AE00800A676F7F51800A6759D8B0E1EF68F047
:10D1BE00E3EF68F0F1EF68F09FBFEFEF68F09F517B
:10D1CE0009E14B0E9E5DD8A0EFEF68F0F1EF68F02D
:10D1DE00E7EF67F07A517B11D8A4F8EF68F0FAEF19
:10D1EE0068F00BEF69F0F4A9FFEF68F001EF69F05A
:10D1FE000BEF69F05C0E9E25D96E020E9F21DA6E42
:10D20E002E0EDF6E9E4B9F2B5C0E9E25D96E020E50
:10D21E009F21DA6E000EDF6E650E8C19D8A41AEF00
:10D22E0069F01CEF69F0EEEF69F0000E976F4F0E8C
:10D23E00966F5C0E9625D96E020E9721DA6E000E51
:10D24E00DF6E000E876F000E866F9DBF33EF69F0A5
:10D25E0031EF69F03BEF69F0000E876F010E866FBC
:10D26E009C6D9D1FD8B09D2B000E896F020E886F8E
:10D27E006CEF69F09607D8A097075C0E9625D96ECD
:10D28E00020E9721DA6E9CC001F09DC002F0000ED6
:10D29E00046E0A0E036EA8EC40F00150300FDF6EE4
:10D2AE009CC001F09DC002F0000E046E0A0E036ECB
:10D2BE0000EC41F001C09CF002C09DF00001880717
:10D2CE00D8A089078A07D8A08B079C519D11D8A496
:10D2DE0073EF69F075EF69F041EF69F089BF82EF86
:10D2EE0069F0895106E18805D8B080EF69F082EFC8
:10D2FE0069F041EF69F09607D8A09707865187111C
:10D30E00D8A48CEF69F08EEF69F094EF69F0000EFF
:10D31E00736F2B0E726F98EF69F0000E736F2D0EF8
:10D32E00726F5C0E9625D96E020E9721DA6E600032
:10D33E00CBF1DFFF8A07D8A08B079607D8A09707F7
:10D34E00BF0E676FFF0E686F6651696F6A6B67512C
:10D35E00692768516A236A510AE11A0E695DD8A0DD
:10D36E00BBEF69F0BEEF69F0010EBFEF69F0000E82
:10D37E00766F776B76517711D8A4C8EF69F0CAEF44
:10D38E0069F0D0EF69F0000E756F650E746FD4EF13
:10D39E0069F0000E756F450E746F5C0E9625D96E92
:10D3AE00020E9721DA6E6000D3F1DFFF8A07D8A054
:10D3BE008B075C0E9E25016E020E9F21026E5C0E87
:10D3CE009625036E020E9721046ED3EC3FF060C0DB
:10D3DE0013F061C014F05C0E156E020E166E8AC04C
:10D3EE0017F08BC018F062EC41F013C060F014C05F
:10D3FE0061F01200D7C0B8F1D8C0B9F1D9C0BAF1F6
:10D40E00DAC0BBF1B8C160F1B9C161F1BAC162F164
:10D41E00BBC163F1DBC0B8F1DCC0B9F1DDC0BAF15C
:10D42E00DEC0BBF1B8C184F1B9C185F1BAC186F1D4
:10D43E00BBC187F1FF0E01016015A86FFF0E6115CC
:10D44E00A96FFF0E6215AA6F7F0E6315AB6FFF0EED
:10D45E008415986FFF0E8515996FFF0E86159A6FBE
:10D46E007F0E87159B6F985199119A119B11D8A415
:10D47E0043EF6AF045EF6AF050EF6AF0000E0001DC
:10D48E00D76F000ED86F800ED96F3F0EDA6F31EF67
:10D49E007FF0800E621909E13F0E63196011611170
:10D4AE00D8A45CEF6AF05EEF6AF069EF6AF0000EE6
:10D4BE000001D76F000ED86F800ED96F3F0EDA6F56
:10D4CE0031EF7FF0ABBF7AEF6AF0A805000EA959D5
:10D4DE00800EAA597F0EAB59D8B078EF6AF07AEF6A
:10D4EE006AF08BEF6AF09BBF89EF6AF09805000E29
:10D4FE009959800E9A597F0E9B59D8A089EF6AF0E0
:10D50E008BEF6AF0A7EF6AF0D7C01AF0D8C01BF005
:10D51E00D9C01CF0DAC01DF0DBC01EF0DCC01FF05D
:10D52E00DDC020F0DEC021F077EC55F01AC0D7F048
:10D53E001BC0D8F01CC0D9F01DC0DAF031EF7FF05F
:10D54E00000E506F000E516F000E526F000E536F93
:10D55E0063BFB6EF6AF0B4EF6AF082EF6BF09BBF79
:10D56E00C2EF6AF0800E9A5D4B0E9B59D8A0C2EFA7
:10D57E006AF0C4EF6AF0CEEF6AF0020E506F000E42
:10D58E00516F000E526F000E536F82EF6BF09BBF08
:10D59E00DAEF6AF0800E9A5D3F0E9B59D8A0DAEF53
:10D5AE006AF0DCEF6AF082EF6BF0170E0001DF6FAE
:10D5BE0098C1E0F099C1E1F09AC1E2F09BC1E3F0AD
:10D5CE00DF67ECEF6AF0F4EF6AF0E335E333E23352
:10D5DE00E133E033DF2FE7EF6AF0810E0001E02543
:10D5EE000101A06FFF0E0001E1210101A16FFF0EED
:10D5FE000001E2210101A26FFF0E0001E3210101F2
:10D60E00A36FA05117080001DF6F98C1E0F099C118
:10D61E00E1F09AC1E2F09BC1E3F0DF6719EF6BF026
:10D62E0021EF6BF0E335E333E233E133E033DF2F09
:10D63E0014EF6BF0E0C0ACF1E1C0ADF1E2C0AEF1C1
:10D64E00E3C0AFF10101A05117080001DF6FACC1BB
:10D65E00E0F0ADC1E1F0AEC1E2F0AFC1E3F0DF2B1F
:10D66E003EEF6BF0D890E037E137E237E337DF2F4C
:10D67E0039EF6BF0010198510001E01913E101013E
:10D68E0099510001E1190EE101019A510001E219CF
:10D69E0009E101019B510001E319D8A459EF6BF088
:10D6AE005BEF6BF082EF6BF0010E0101AC15000128
:10D6BE00DF6F000E0101AD150001E06F000E0101DC
:10D6CE00AE150001E16F000E0101AF150001E26F12
:10D6DE00DF5102080101506F000E0001E0550101FB
:10D6EE00516F000E0001E1550101526F000E000155
:10D6FE00E2550101536F800E01019A1909E17F0E67
:10D70E009B1998119911D8A48FEF6BF091EF6BF0D4
:10D71E00FDEF6BF0800EAA1909E13F0EAB19A811AF
:10D72E00A911D8A49DEF6BF09FEF6BF0AAEF6BF0F1
:10D73E00000E0001D76F000ED86F800ED96F3F0E0E
:10D74E00DA6F31EF7FF0ABBFB9EF6BF0A805000ECB
:10D75E00A959800EAA593F0EAB59D8A0B9EF6BF05C
:10D76E00BBEF6BF0D7EF6BF087BFC2EF6BF0C0EF84
:10D77E006BF0CDEF6BF0000E0001D76F000ED86F7F
:10D78E00000ED96F000EDA6F31EF7FF0DBC0D7F0ED
:10D79E00DCC0D8F0DDC0D9F0DEC0DAF031EF7FF0BA
