:020000040000FA
:040000000DEF00F010
:0400080064EF0FF0A2
:06001800FF00BBEF0EF03B
:1010000000010000000A00000064000000E8030086
:101010000010270000A086010040420F0080969833
:101020000000E1F50500CA9A3B0100000010000035
:10103000000001000000100000000001000000108E
:1010400000000000010000001070726573732062E0
:101050007574746F6E206F6E206272656164626F6A
:101060006172640A0D003031323334353637383925
:101070006162636465660020436F756E74203D2075
:101080002575200A0D002534703A256C75202D3EFB
:10109000200025632563256325630052656164791B
:1010A0000A0D3E00256C64202D3E20004E554C4C10
:0310B0000A000033
:1010B400280E00016B6F000E6C6F8AEF0BF0250E8B
:1010C4007119D8B468EF08F06AEF08F06FEF08F010
:1010D4007151CDEC0FF08AEF0BF0000E6E6F000E25
:1010E4006D6F000E706F000E6F6F60009BF0F6FF67
:1010F40060009FF0F7FFF86A0800F550E1EC0EF08D
:10110400D8A087EF08F089EF08F02FEF09F0000E60
:1011140000016E6F000E6D6F6DC010F06EC011F0A7
:10112400000E136E0A0E126E13EC0FF010C06DF069
:1011340011C06EF0D00E306EFF0E316E60009BF069
:10114400F6FF60009FF0F7FFF86A0800F550326E72
:10115400336A3050322631503322325000016D2729
:1011640033506E23264A272A60009BF0F6FF600066
:101174009FF0F7FFF86A0800F550E1EC0EF0D8B0E4
:10118400C6EF08F0C8EF08F08EEF08F02FEF09F073
:101194006F892FEF09F0708B6F8F60EF09F06E513C
:1011A40009E1020E6D5DD8A0DAEF08F0DCEF08F07B
:1011B400E1EF08F06D07D8A06E07EAEF08F0000E23
:1011C4006E6F000E6D6FEAEF08F0200ECDEC0FF09D
:1011D40000016D07D8A06E076D2906E16E29D8A419
:1011E400F6EF08F0F8EF08F0E7EF08F006EF09F083
:1011F400600087F1D9FF60008BF1DAFFDF50CDEC9E
:101204000FF00001614B622B6507D8A066076529C2
:1012140006E16629D8A411EF09F013EF09F0FAEFFB
:1012240008F08AEF0BF06000AFF1D9FF6000B3F172
:10123400DAFFDF50716F020E6B27000E6C23710E04
:10124400616F000E626F000E666F010E656FD1EF65
:1012540008F0C00E6F1360EF09F060009BF0F6FF1A
:1012640060009FF0F7FF264A272AF86A08006F00FB
:10127400D4FF71F000017151000AD8B4A0EF0BF053
:10128400630AD8B415EF09F0070AD8B460EF09F07F
:101294000D0AD8B460EF09F0050AD8B4CAEF08F013
:1012A4001C0AD8B4CDEF08F0050AD8B42BEF09F026
:1012B4000D0AD8B4CEEF08F021EF09F0C00E6F1577
:1012C400306E000E7015316E30503110D8A46DEFB1
:1012D40009F06FEF09F0B6EF09F06FA974EF09F0A8
:1012E40076EF09F08EEF09F06000AFF1D9FF6000EE
:1012F400B3F1DAFF6F0078FF67F06F0078FF68F0F2
:101304006F0078FF69F06F0078FF6AF0040E6B27B6
:10131400000E6C23A3EF09F06000AFF1D9FF600069
:10132400B3F1DAFF6F0078FF67F06F0074FF68F0C5
:10133400000E68BFFF0E696F6A6F020E6B27000E06
:101344006C236ABFAAEF09F0A8EF09F06CEF0AF06A
:10135400030E6F136A1F691F681F676D000E6823F1
:1013640069236A236CEF0AF070ABBBEF09F0BDEFA1
:1013740009F0D5EF09F06000AFF1D9FF6000B3F1D7
:10138400DAFF6F0078FF30F06F0074FF31F030C087
:1013940067F031C068F0696B6A6B020E6B27000E50
:1013A4006C236CEF0AF06FA9DAEF09F0DCEF09F0B7
:1013B400F4EF09F06000AFF1D9FF6000B3F1DAFF98
:1013C4006F0078FF67F06F0078FF68F06F0078FFB8
:1013D40069F06F0078FF6AF0040E6B27000E6C232F
:1013E4006CEF0AF06000AFF1D9FF6000B3F1DAFFEF
:1013F4006F0078FF30F06F0074FF31F030C067F099
:1014040031C068F0696B6A6B020E6B27000E6C23A7
:101414006CEF0AF0010E716F0A0E7119D8A415EF62
:101424000AF017EF0AF019EF0AF07CEF0AF0715195
:10143400040D010EF324F66E100EF420F76EF86A14
:10144400000EF8220900F550675D0900F55068594F
:101454000900F55069590900F5506A59D8B035EFBB
:101464000AF037EF0AF039EF0AF07CEF0AF0712B3B
:101474000EEF0AF0010E716F080E7119D8A445EF32
:101484000AF047EF0AF049EF0AF07CEF0AF07151D5
:10149400040D290EF324F66E100EF420F76EF86A8C
:1014A400000EF8220900F550675D0900F5506859EF
:1014B4000900F55069590900F5506A59D8B065EF2B
:1014C4000AF067EF0AF069EF0AF07CEF0AF0712B7B
:1014D4003EEF0AF06F51C00B000AD8B40CEF0AF0CB
:1014E400800AD8B43CEF0AF0400AD8B40CEF0AF0F2
:1014F4007CEF0AF06D516E11D8B483EF0AF085EFDA
:101504000AF097EF0AF0030E6F15306E000E701597
:10151400316E30503110D8B492EF0AF094EF0AF0E3
:1015240097EF0AF06D07D8A06E077151306E316ADB
:101534006D51305C3150800A326E6E51800A3258DF
:10154400D8B0A7EF0AF0A9EF0AF0AFEF0AF0715193
:101554006D5F000E6E5BB3EF0AF0000E6E6F000E4F
:101564006D6F6D516E11D8B4BAEF0AF0BCEF0AF08A
:10157400CCEF0AF0200ECDEC0FF000016D07D8A0DF
:101584006E076D516E11D8A4CAEF0AF0CCEF0AF0C1
:10159400BCEF0AF0030E6F15306E000E7015316E3D
:1015A40030503110D8B4D9EF0AF0DBEF0AF0DEEF97
:1015B4000AF02D0ECDEC0FF071C063F00001646BE6
:1015C4007CEF0BF063C030F064C031F0D89030365B
:1015D4003136D89030363136010E3024F66E100E86
:1015E4003120F76EF86A000EF82209006F00D4FF6C
:1015F40014F009006F00D4FF15F009006F00D4FF48
:1016040016F00A006F00D4FF17F067C010F068C02E
:1016140011F069C012F06AC013F0EDEC0CF010C0C8
:101624001DF011C01EF012C01FF013C020F00A0EEE
:10163400216E000E226E000E236E000E246E8EECC0
:101644000DF01D50300F0001716F79EF0BF067C082
:1016540010F068C011F069C012F06AC013F063C0E2
:1016640030F064C031F0D89030363136D89030360E
:101674003136290E3024F66E100E3120F76EF86ADA
:10168400000EF82209006F00D4FF14F009006F0067
:10169400D4FF15F009006F00D4FF16F00A006F00A4
:1016A400D4FF17F0EDEC0CF010500F0B0001606F3D
:1016B400660E6025F66EF76A100EF722F86A000EC1
:1016C400F82208006F00D4FF71F079EF0BF06F512E
:1016D400C00B000AD8B4E4EF0AF0800AD8B429EFAA
:1016E4000BF0400AD8B4E4EF0AF079EF0BF0715133
:1016F400CDEC0FF000016307D8A06407632906E16D
:101704006429D8A488EF0BF08AEF0BF069EF0BF093
:1017140060009BF0F6FF60009FF0F7FF264A272A3F
:10172400F86A08006F00D4FF71F000017151D8A469
:101734009EEF0BF0A0EF0BF061EF08F0120076ECD7
:101744000FF0D2EC0DF0000E00017C6F000E7B6FE9
:10175400D2EC0DF09B0E266E100E276E5AEC08F09C
:10176400490E266E100E276E5AEC08F0000ECAB809
:10177400010E0001786F78C010F0116A50EC0EF081
:1017840010C079F011C07AF0000179057A11D8A45B
:10179400CEEF0BF0D0EF0BF0E7EF0BF07B4B7C2B95
:1017A4007C5107E1040E7B5DD8B0DBEF0BF0DDEF7D
:1017B4000BF0E7EF0BF0770E266E100E276E7BC052
:1017C40028F07CC029F05AEC08F000017C5109E1B2
:1017D400040E7B5DD8A0F1EF0BF0F3EF0BF00FEFED
:1017E4000CF0000E7C6F010E7B6F770E266E100ED0
:1017F400276E000E296E010E286E5AEC08F00FEFCA
:101804000CF0BD84BD92B8EF0BF0BD82BD94B8EF6F
:101814000BF0BD94BD92B8EF0BF07BC034F07CC0EC
:1018240035F03550000AD8B41AEF0CF0B8EF0BF0CD
:101834003450010AD8B403EF0CF0030AD8B407EF0C
:101844000CF0010AD8B40BEF0CF0B8EF0BF00DEF6D
:1018540000F03901939F4B504C10D8A434EF0CF096
:1018640036EF0CF03AEF0CF028EC0FF095EF0CF09B
:1018740020EE06F04B50D9264C50DA226F0078FF48
:1018840006F06F0078FF07F06F0078FF08F06F0034
:1018940078FF09F03E50065C0A6E3F5007580B6E05
:1018A400405008580C6E415009580D6E6F00DCFE14
:1018B40006F0076A086A096A0A50065C0B50075862
:1018C4000C5008580D500958D8B06BEF0CF06DEF60
:1018D4000CF087EF0CF0B7503E240001836F000E2C
:1018E4003F20846F000E4020856F000E4120866FDC
:1018F4004BC081F04CC082F07D0E4B6E000E4C6EDE
:10190400B7500A6E0B6A0C6A0D6A0AC002F00BC06B
:1019140003F00CC004F00DC005F03DEC0FF03901EC
:10192400938F010E486E12007D0E011807E1000E20
:101934000218D8A4A0EF0CF0A2EF0CF0A6EF0CF064
:10194400870E016E000E026E20EE04F00150D926BF
:101954000250DA22000EDE6E000EDD6E49504A108F
:10196400D8A4B7EF0CF0B9EF0CF0BFEF0CF001C046
:1019740049F002C04AF0ECEF0CF049C005F04AC04F
:1019840006F0D1EF0CF020EE04F00550D9260650F5
:10199400DA226F0078FF05F06F0074FF06F020EE86
:1019A40004F00550D9260650DA22DE50DE10D8A401
:1019B400DEEF0CF0E0EF0CF0C5EF0CF020EE04F0DD
:1019C4000550D9260650DA22600007F0DEFF6000D9
:1019D4000BF0DDFF1200000E186E000E196E000EE3
:1019E4001A6E000E1B6E1450151016101710D8B472
:1019F400FEEF0CF000EF0DF036EF0DF0010E1C6E53
:101A04000AEF0DF0D89014361536163617361C2A00
:101A140017AE0FEF0DF011EF0DF004EF0DF0D890AD
:101A2400183619361A361B361450105C15501158D6
:101A34001650125817501358D8A023EF0DF025EF65
:101A44000DF02EEF0DF01450105E1550115A165073
:101A5400125A1750135A1880D8901732163215326A
:101A640014321C2E11EF0DF018C010F019C011F033
:101A74001AC012F01BC013F01200000EBE6E000E4E
:101A8400BD6E000EBA6E000EBB6E000EBC6E070E6D
:101A9400C66EC268BF0EC36EC468F90EC56EF90E79
:101AA4003A01706F60693F0E506F070E806FEF0E42
:101AB400406F000E716F000E816F000E516F000EAB
:101AC400416F000E616F000E5A6F000E5B6F000EC7
:101AD4006A6F000E6B6F000E7A6F000E7B6F000E44
:101AE400826F000E426F000E526F000E626F000E86
:101AF400726F4369536963697369070E836F44693D
:101B04005469646974690F0E846F0F0EE86F160EC2
:101B14000E6F040EC36F12002150221023102410E4
:101B2400D8B497EF0DF099EF0DF0C9EF0DF0010E59
:101B3400256EA3EF0DF0D8902136223623362436B5
:101B4400252A24AEA8EF0DF0AAEF0DF09DEF0DF0BD
:101B540021501D5C22501E5823501F5824502058D9
:101B6400D8A0B7EF0DF0B9EF0DF0C1EF0DF0215093
:101B74001D5E22501E5A23501F5A2450205AD890BA
:101B84002432233222322132252EAAEF0DF01DC039
:101B94001DF01EC01EF01FC01FF020C020F0120058
:101BA400920E266E100E276E000E296E1B0E286EE6
:101BB400000E2B6E5B0E2A6E000E2D6E320E2C6EF6
:101BC400000E2F6E4A0E2E6E5AEC08F0920E266E00
:101BD400100E276E000E296E1B0E286E000E2B6E43
:101BE4005B0E2A6E000E2D6E330E2C6E000E2F6EC1
:101BF4004A0E2E6E5AEC08F0940E266E100E276EC6
:101C0400000E296E1B0E286E000E2B6E5B0E2A6EC4
:101C1400000E2D6E480E2C6E5AEC08F0120020EEC9
:101C240004F04B50D9264C50DA226F0078FF0EF0A6
:101C34006F0074FF0FF020EE06F04B50D9264C5085
:101C4400DA226F0078FF3EF06F0078FF3FF06F00FC
:101C540078FF40F06F0078FF41F0000E3A6E000EFE
:101C64003B6E000E3C6E000E3D6E7D0E4B1809E17E
:101C7400000E4C18D8B441EF0EF043EF0EF049EFCC
:101C84000EF04BC001F04CC002F096EC0CF00EC00C
:101C94004BF00FC04CF02BEC0CF01200000E136E46
:101CA400000E126E42504310D8A45BEF0EF05DEFAD
:101CB4000EF06EEF0EF010501110D8B464EF0EF069
:101CC40066EF0EF06EEF0EF0000E436E010E426EE4
:101CD400000E136E010E126E42044310D8A475EF69
:101CE4000EF077EF0EF088EF0EF010501110D8A41C
:101CF4007EEF0EF080EF0EF088EF0EF0000E436ED4
:101D0400000E426E000E136E020E126E12C010F020
:101D140013C011F01200000E3D01D46F000ED66FF7
:101D2400000ED86FB00EDA6F800EDB6F000EDC6F22
:101D3400CF0EDD6F000EDE6F000EDF6F000EE06F62
:101D4400000EE16F000EE26F000E106E000E116EB9
:101D5400D7EC0FF0000E106E000E116ED2EC0FF0E7
:101D6400000E106E000E116EDCEC0FF0000E476ECC
:101D74001200900EF66E1F0EF76E000EF86E00EE57
:101D840087F010EE0AF009006F00D7FFEEFFE55070
:101D9400E150F9E100EE7DF00A0EEE6AE806FDE19D
:101DA40000EE36F0170EEE6AE806FDE1080ED56E79
:101DB400000ED66E000ED76E0001A1EF0BF0126E6E
:101DC400000E116E3A0E1260EAEF0EF0ECEF0EF018
:101DD400F6EF0EF02F0E1264F2EF0EF0F4EF0EF0A9
:101DE400F6EF0EF0010E116E11C010F0103012005B
:101DF4003901A39F000191519211D8B404EF0FF05F
:101E040006EF0FF012EF0FF002D812EF0FF00500FB
:101E1400FA6E9151FD6E9251FE6EFF6AFA501200F5
:101E24001200105012026F00CCFF14F06F00D0FFAC
:101E340015F010501302F350152611501202F350EE
:101E4400152614C010F015C011F012003901939F2B
:101E5400000E3E6E000E3F6E000E406E000E416E90
:101E6400000E3A6E000E3B6E000E3C6E000E3D6E90
:101E7400000E486E12000250B75C3A6E03503B6A83
:101E84003B5A04503C6A3C5A05503D6A3D5A000E88
:101E9400E6EC0FF03901A39F3A50E6EC0FF0120084
:101EA400000E3901C06F000EC16F000EC26F000E2C
:101EB400C36F000EC46F000EC56F000EC66F000E18
:101EC400C76F1200390193AF6AEF0FF06CEF0FF098
:101ED40075EF0FF0A3AF71EF0FF073EF0FF075EF25
:101EE4000FF0FAEC0EF01100EBEC0FF052EC0FF0E7
:101EF4003FEC0DF0A5EC0FF087EC0FF08DEC0EF03D
:101F0400BAEC0FF0C1EC0FF01200000EB96EB76816
:101F1400000EB66E3901A39F938FDA0E106E1F0E5A
:101F2400116EE1EC0FF0800EB86E1200106E3901E4
:101F3400A6A79FEF0FF0A1EF0FF099EF0FF060004D
:101F440043F0D2FD1200620E3901D96F000EDB6F2F
:101F5400000EDD6F060EDF6F000EDE6F1200010E45
:101F64003626000E3722382239223901A39F120067
:101F7400220E106E1C0E116EE1EC0FF01200620EB8
:101F8400106E1F0E116EE1EC0FF012000000000045
:101F9400000000000000116E115098EC0FF01200C8
:101FA40010C095F011C096F0120010C097F011C047
:101FB40098F0120010C093F011C094F0120010C0F9
:101FC40091F011C092F01200016E600007F0B6FFAC
:081FD4001200D29A1200120063
:020000040020DA
:10000000FF0FFF0FFF0FFF0FFF0FFF0FFF0FFF0F80
:020000040030CA
:0A000000ECFEF7FF9FFFFFFFFFFF7C
:00000001FF
