:020000040000FA
:04000000FEEF7FF0A0
:101000000073696D756C617465642068656C6C6FE4
:1010100021200A0D00006000DFF0D9FF6000E3F03E
:10102000DAFF6F007BFFF6FF6F0077FFF7FFF86ACC
:101030000800F550250AD8A420EF08F022EF08F0A8
:1010400074EF08F06000DFF0D9FF6000E3F0DAFF32
:10105000DE2A000EDD22000E246E000E236E23C059
:1010600027F024C028F0256826686000DFF0D9FF4B
:101070006000E3F0DAFF6F007BFFF6FF6F0077FFA1
:10108000F7FFF86A0800F550250AD8A44AEF08F0DF
:101090004CEF08F065EF08F06000DFF0D9FF60006A
:1010A000E3F0DAFFDE2A000EDD22000E2D6E250EA3
:1010B0002C6E35C02EF036C02FF097EC08F0000EE5
:1010C000366E010E356E96EF08F06000DFF0D9FF46
:1010D0006000E3F0DAFFDE2A000EDD22000E366E3D
:1010E000000E356E96EF08F06000DFF0D9FF60006B
:1010F000E3F0DAFF6F007BFFF6FF6F0077FFF7FF8B
:10110000F86A0800F5502C6E2D6A35C02EF036C0F6
:101110002FF097EC08F06000DFF0D9FF6000E3F0FB
:10112000DAFFDE2A000EDD225FEF08F012002E50FB
:101130002F10D8B49EEF08F0A0EF08F0A9EF08F048
:101140002E502F10D8A4A7EF08F0A9EF08F0AEEFAB
:1011500008F02C50E8EC09F0E1EF08F020EE04F084
:101160002E50D9262F50DA22DE50DE10D8B4BBEF35
:1011700008F0BDEF08F0D8EF08F020EE04F02E5094
:10118000D9262F50DA2210EE02F02E50E1262F50F1
:10119000E222DE50E65CE650800A346EDE50800AC1
:1011A0003458D8B0D6EF08F0D8EF08F0E1EF08F0E7
:1011B00020EE02F02E50D9262F50DA22DE2A000E21
:1011C000DD221200000EBE6E000EBD6E000EBA6E65
:1011D000000EBB6E000EBC6E070EC66EC268BF0E60
:1011E000C36EC468C5683A01706960693F0E506F8C
:1011F000070E806F4069000E716F000E816F000E48
:10120000516F000E416F000E616F000E5A6F000E9D
:101210005B6F000E6A6F000E6B6F000E7A6F000E30
:101220007B6F000E826F000E426F000E526F000E39
:10123000626F000E726F4369536963697369070EC9
:10124000836F44695469646974690F0E846F0F0E6B
:10125000E86F160E0E6F12003DC041F03EC042F026
:10126000000E226E000E216E48EF09F03BC035F0F3
:101270003CC036F0410E376E000E386E3FC039F07C
:1012800040C03AF00BEC08F03550212636502222AF
:10129000600007F1F6FF60000BF1F7FFF86A080045
:1012A000F5500009D8A457EF09F059EF09F036EFCF
:1012B00009F021C03BF022C03CF01200000E3D01BD
:1012C000D46F000ED66F000ED86FB00EDA6F800E9E
:1012D000DB6F000EDC6F400EDD6F030EDE6F000E65
:1012E000DF6F000EE06F000EE16F000EE26F000E88
:1012F0002A6E000E2B6EF2EC09F0000E2A6E000E24
:101300002B6EEDEC09F0000E2A6E000E2B6EF7EC42
:1013100009F0000E296E1200450E476E000E486E51
:10132000000E3B6E000E3C6E43C03DF044C03EF0EC
:10133000470E3F6E000E406E2CEC09F01200000EBE
:101340003901C06F000EC16F000EC26F000EC36F77
:10135000000EC46F000EC56F000EC66F000EC76F83
:1013600012002A6E3901A6A7B8EF09F0BAEF09F00A
:10137000B2EF09F06000ABF0D2FD1200DFEC09F033
:10138000010E436E100E446E8CEC09F0C0EF09F0B4
:10139000FEEF7FF0600E3901D96F000EDB6F000E9B
:1013A000DD6F060EDF6F000EDE6F120000EE01F043
:1013B000290EEE6AE806FDE10001BEEF09F09FECA0
:1013C00009F0E2EC08F0CAEC09F05EEC09F012005A
:1013D0002B6E2B50B1EC09F012002AC04BF02BC041
:1013E0004CF012002AC04DF02BC04EF012002AC063
:0813F00049F02BC04AF0120085
:04FFFC00D6EF09F043
:020000040020DA
:10000000FF0FFF0FFF0FFF0FFF0FFF0FFF0FFF0F80
:020000040030CA
:0A000000ECFFF7FF9FFFFFFFFFFF7B
:00000001FF
