:020000040000FA
:04000000FEEF7FF0A0
:1010000000534D54312047617465642054696D6507
:1010100072202D20524520746F204645206F6E208F
:10102000534D54315349472028524335290A0A0D5C
:10103000000A0D53797374656D206973204F6666DD
:101040002C20507265737320427574746F6E207417
:101050006F2073746172740044697374616E6365A8
:10106000206973203D20256620636D0A0D00534DD5
:1010700054204D6F6465203D202575200A0A0D001F
:101080000A0D53797374656D206973204F6E000AE1
:101090000D636F756E746572203D202575002563A4
:1010A00025632563256300494E46004E414E006985
:0B10B0006E66006E616E006C66000052
:1010BC00000E00017B6F000E7A6F30C08CF031C0D7
:1010CC008DF032C08EF033C08FF08FBF72EF08F00E
:1010DC0070EF08F088EF08F0000E7B6F010E7A6F4E
:1010EC008CC001F08DC002F08EC003F08FC004F0F4
:1010FC00C8EC24F001C08CF002C08DF003C08EF05F
:10110C0004C08FF0000E0001936F000E926FD6C0DA
:10111C007EF0D7C07FF07A517B11D8A498EF08F0FD
:10112C009AEF08F0A1EF08F0DAA59FEF08F0A1EF15
:10113C0008F0BBEF08F07A517B11D8A4A8EF08F0A7
:10114C00AAEF08F0B0EF08F0000E616F2B0E606F85
:10115C00B4EF08F0000E616F2D0E606F60C000F1EF
:10116C00924B932B7E07D8A07F078CC001F08DC0CB
:10117C0002F08EC003F08FC004F0ACEC1EF0010442
:10118C000210D8A4CCEF08F0CEEF08F025EF09F050
:10119C00BF0E356EFF0E366E3450376E386A3550D2
:1011AC0037263650382238500AE11A0E375CD8A050
:1011BC00E2EF08F0E5EF08F0010EE6EF08F0000EA4
:1011CC000001626F636B62516311D8B4F0EF08F0E9
:1011DC00F2EF08F000EF09F0000E9225016E010EFF
:1011EC009321026EA70E036E100E046E82EC23F098
:1011FC000CEF09F0000E9225016E010E9321026E88
:10120C00AF0E036E100E046E82EC23F00001FD0E87
:10121C007E27FF0E7F232EC013F02FC014F0000E7C
:10122C00156E010E166E7EC017F07FC018F0F1EC33
:10123C0020F013C02EF014C02FF0B2EF0EF08CC0C3
:10124C0001F08DC002F08EC003F08FC004F0ACEC46
:10125C001EF001500210D8A436EF09F038EF09F057
:10126C008FEF09F0BF0E356EFF0E366E3450376EB1
:10127C00386A355037263650382238500AE11A0E63
:10128C00375CD8A04CEF09F04FEF09F0010E50EF8E
:10129C0009F0000E0001646F656B64516511D8B4E0
:1012AC005AEF09F05CEF09F06AEF09F0000E922595
:1012BC00016E010E9321026EAB0E036E100E046EC6
:1012CC0082EC23F076EF09F0000E9225016E010EF0
:1012DC009321026EB30E036E100E046E82EC23F09B
:1012EC000001FD0E7E27FF0E7F232EC013F02FC0B2
:1012FC0014F0000E156E010E166E7EC017F07FC036
:10130C0018F0F1EC20F013C02EF014C02FF0B2EF57
:10131C000EF0000E0001946F000E956F800E966F0C
:10132C003F0E976F000E916F000E906F8CC001F006
:10133C008DC002F08EC003F08FC004F0000E056E5D
:10134C00000E066E000E076E000E086E0EEC22F0FC
:10135C00D8B0B3EF09F0B5EF09F038EF0AF0D4EFDD
:10136C0009F094C001F095C002F096C003F097C04C
:10137C0004F0000E056E000E066E200E076E410E78
:10138C00086ECEEC16F001C094F002C095F003C0CC
:10139C0096F004C097F00001904B912B8CC01AF082
:1013AC008DC01BF08EC01CF08FC01DF0000E056EA2
:1013BC00000E066E200E076E410E086E94C001F0F2
:1013CC0095C002F096C003F097C004F0CEEC16F076
:1013DC0001C01EF002C01FF003C020F004C021F0B9
:1013EC002AEC1EF0D8B0FDEF09F0FFEF09F0B7EFD3
:1013FC0009F01FEF0AF094C001F095C002F096C0FE
:10140C0003F097C004F0000E056E000E066E200E61
:10141C00076E410E086EF5EC18F001C094F002C096
:10142C0095F003C096F004C097F000019007D8A087
:10143C0091078CC01AF08DC01BF08EC01CF08FC0B1
:10144C001DF094C01EF095C01FF096C020F097C000
:10145C0021F02AEC1EF0D8A036EF0AF038EF0AF093
:10146C0001EF0AF034C007F0086AEBEC23F00750E8
:10147C000001816F81C080F0670E8119D8A449EFFB
:10148C000AF04BEF0AF071EF0AF0D851D911D8A439
:10149C0052EF0AF054EF0AF058EF0AF0000ED96F31
:1014AC00010ED86FD9BF65EF0AF0D95106E1D80506
:1014BC00D8B063EF0AF065EF0AF06BEF0AF0000E9C
:1014CC007D6F060E7C6F7AEF0AF0D8C07CF0D9C025
:1014DC007DF07AEF0AF0D9BF76EF0AF078EF0AF0D8
:1014EC0065EF0AF06BEF0AF0670E8119D8A481EF53
:1014FC000AF083EF0AF0B2EF0AF091AF91EF0AF025
:10150C00FC0E905DFF0E9159D8A08FEF0AF091EF71
:10151C000AF0B0EF0AF0FF0E356EFF0E366E7CC08F
:10152C0037F07DC038F03550372636503822905180
:10153C00375C3850800A396E9151800A3958D8A0DE
:10154C00AAEF0AF0ACEF0AF0B0EF0AF0660E806F6B
:10155C00B2EF0AF0650E806F7CC072F07DC073F044
:10156C00670E8119D8A4BDEF0AF0BFEF0AF0CFEFD8
:10157C000AF0660E8019D8A4C6EF0AF0C8EF0AF07C
:10158C00D1EF0AF091BFCFEF0AF0CDEF0AF0D1EF17
:10159C000AF0724B732B660E8019D8A4D8EF0AF0A0
:1015AC00DAEF0AF0FAEF0AF091BFE1EF0AF0DFEFA1
:1015BC000AF0EDEF0AF0000E946F000E956F800E9E
:1015CC00966F3F0E976F000E916F000E906F670E27
:1015DC008119D8B4F4EF0AF0F6EF0AF0FAEF0AF03A
:1015EC009051722791517323000E8B6F000E8A6FEE
:1015FC008CC082F08DC083F08EC084F08FC085F0DB
:10160C0094C074F095C075F096C076F097C077F0E2
:10161C008BEF0BF082C001F083C002F084C003F0AA
:10162C0085C004F094C005F095C006F096C007F094
:10163C0097C008F0F5EC18F001C01AF002C01BF0CE
:10164C0003C01CF004C01DF0C2EC1AF01AC086F0E6
:10165C001BC087F01CC088F01DC089F086C001F04B
:10166C0087C002F088C003F089C004F0A7EC1DF01D
:10167C0001C078F002C079F082C01AF083C01BF070
:10168C0084C01CF085C01DF094C005F095C006F018
:10169C0096C007F097C008F086C001F087C002F032
:1016AC0088C003F089C004F0CEEC16F001C01EF027
:1016BC0002C01FF003C020F004C021F04AEC24F05B
:1016CC001AC082F01BC083F01CC084F01DC085F0D2
:1016DC0094C001F095C002F096C003F097C004F0DE
:1016EC00000E056E000E066E200E076E410E086E83
:1016FC00F5EC18F001C094F002C095F003C096F020
:10170C0004C097F000018A4B8B2B72518A5D8B5170
:10171C00800A356E7351800A3558D8A098EF0BF0BB
:10172C009AEF0BF010EF0BF094C001F095C002F0A3
:10173C0096C003F097C004F0000E056E000E066E06
:10174C00A00E076E400E086ECEEC16F001C086F0AF
:10175C0002C087F003C088F004C089F082C01AF080
:10176C0083C01BF084C01CF085C01DF086C01EF029
:10177C0087C01FF088C020F089C021F02AEC1EF031
:10178C00D8B0CBEF0BF0CDEF0BF0D8EF0BF0000E89
:10179C000001866F000E876F000E886F000E896F38
:1017AC0001EF0CF082C001F083C002F084C003F0A2
:1017BC0085C004F086C005F087C006F088C007F02D
:1017CC0089C008F00EEC22F0D8A0EFEF0BF0F1EF8F
:1017DC000BF001EF0CF0000178B1F7EF0BF0F9EF23
:1017EC000BF001EF0CF0000E866F000E876F000EF1
:1017FC00886F000E896F8CC001F08DC002F08EC016
:10180C0003F08FC004F086C005F087C006F088C0D6
:10181C0007F089C008F06EEC14F001C082F002C031
:10182C0083F003C084F004C085F082C01AF083C03A
:10183C001BF084C01CF085C01DF0000E056E000E60
:10184C00066E200E076E410E086E74C001F075C056
:10185C0002F076C003F077C004F0CEEC16F001C0B5
:10186C001EF002C01FF003C020F004C021F02AECCF
:10187C001EF0D8A044EF0CF046EF0CF06FEF0CF01C
:10188C000001904B912B74C001F075C002F076C032
:10189C0003F077C004F0000E056E000E066E200EED
:1018AC00076E410E086ECEEC16F001C074F002C04B
:1018BC0075F003C076F004C077F0660E0001801955
:1018CC00D8A46BEF0CF06DEF0CF06FEF0CF0724BCB
:1018DC00732B74C094F075C095F076C096F077C0F9
:1018EC0097F0650E00018019D8B47FEF0CF081EFF2
:1018FC000CF087EF0CF090C070F091C071F08BEF92
:10190C000CF0000E716F000E706F000E6F6F000EFA
:10191C006E6F000E6D6F000E6C6F000E8B6F000EF5
:10192C008A6F86EF0DF082C001F083C002F084C094
:10193C0003F085C004F094C005F095C006F096C085
:10194C0007F097C008F0F5EC18F001C01AF002C0CF
:10195C001BF003C01CF004C01DF0C2EC1AF01AC03E
:10196C0086F01BC087F01CC088F01DC089F086C0B3
:10197C0001F087C002F088C003F089C004F0A7EC26
:10198C001DF001C078F002C079F00001DAB9D1EF96
:10199C000CF0D3EF0CF0F0EF0CF078517911D8A4D7
:1019AC00DAEF0CF0DCEF0CF0F0EF0CF0670E8119B5
:1019BC00D8A4E3EF0CF0E5EF0CF0F0EF0CF071BFF6
:1019CC00ECEF0CF0EAEF0CF0F0EF0CF06C4B6D2B35
:1019DC003AEF0DF06E516F11D8A4F7EF0CF0F9EF50
:1019EC000CF023EF0DF071BF00EF0DF0FEEF0CF0DB
:1019FC0023EF0DF0000E9225D96E010E9321DA6EB5
:101A0C002E0EDF6E924B932B7E07D8A07F07000E15
:101A1C006F6F010E6E6F23EF0DF0000E9225D96ED5
:101A2C00010E9321DA6E300EDF6E924B932B7E07F4
:101A3C00D8A07F076C07D8A06D076C516D11D8A486
:101A4C002AEF0DF02CEF0DF013EF0DF0000E922598
:101A5C00D96E010E9321DA6E7851300FDF6E924BF6
:101A6C00932B7E07D8A07F0782C01AF083C01BF08F
:101A7C0084C01CF085C01DF094C005F095C006F024
:101A8C0096C007F097C008F086C001F087C002F03E
:101A9C0088C003F089C004F0CEEC16F001C01EF033
:101AAC0002C01FF003C020F004C021F04AEC24F067
:101ABC001AC082F01BC083F01CC084F01DC085F0DE
:101ACC0094C001F095C002F096C003F097C004F0EA
:101ADC00000E056E000E066E200E076E410E086E8F
:101AEC00F5EC18F001C094F002C095F003C096F02C
:101AFC0004C097F000017007D8A071078A4B8B2B9C
:101B0C0072518A5D8B51800A356E7351800A35583B
:101B1C00D8B093EF0DF095EF0DF0A3EF0DF093BF50
:101B2C00A1EF0DF0935109E14B0E925DD8A0A1EFFE
:101B3C000DF0A3EF0DF099EF0CF06E516F11D8A4CE
:101B4C00AAEF0DF0ACEF0DF0BDEF0DF0DAA9B1EF8F
:101B5C000DF0B3EF0DF0BDEF0DF0000E9225D96E28
:101B6C00010E9321DA6E2E0EDF6E924B932B000E2C
:101B7C009225D96E010E9321DA6E000EDF6E650E82
:101B8C008019D8A4CCEF0DF0CEEF0DF0A0EF0EF035
:101B9C00000E8B6F4F0E8A6F000E8A25D96E010EC8
:101BAC008B21DA6E000EDF6E000E7B6F000E7A6FEB
:101BBC0091BFE5EF0DF0E3EF0DF0EDEF0DF0000E42
:101BCC007B6F010E7A6F906D911FD8B0912B000E28
:101BDC007D6F020E7C6F1EEF0EF08A07D8A08B076C
:101BEC00000E8A25D96E010E8B21DA6E90C001F0A1
:101BFC0091C002F0000E046E0A0E036EB6EC21F0DA
:101C0C000150300FDF6E90C001F091C002F0000E59
:101C1C00046E0A0E036E54EC21F001C090F002C069
:101C2C0091F000017C07D8A07D077E07D8A07F0724
:101C3C0090519111D8A425EF0EF027EF0EF0F3EF91
:101C4C000DF07DBF34EF0EF07D5106E17C05D8B070
:101C5C0032EF0EF034EF0EF0F3EF0DF08A07D8A050
:101C6C008B077A517B11D8A43EEF0EF040EF0EF0AB
:101C7C0046EF0EF0000E676F2B0E666F4AEF0EF0FC
:101C8C00000E676F2D0E666F000E8A25D96E010E41
:101C9C008B21DA6E60009BF1DFFF7E07D8A07F07F7
:101CAC008A07D8A08B07BF0E356EFF0E366E3450E8
:101CBC00376E386A355037263650382238500AE19C
:101CCC001A0E375CD8A06DEF0EF070EF0EF0010E0F
:101CDC0071EF0EF0000E6A6F6B6B6A516B11D8A42A
:101CEC007AEF0EF07CEF0EF082EF0EF0000E696FC3
:101CFC00650E686F86EF0EF0000E696F450E686F0B
:101D0C00000E8A25D96E010E8B21DA6E6000A3F1CC
:101D1C00DFFF7E07D8A07F07000E9225016E010E13
:101D2C009321026E000E8A25036E010E8B21046E28
:101D3C0082EC23F02EC013F02FC014F0000E156EA1
:101D4C00010E166E7EC017F07FC018F0F1EC20F07B
:101D5C0013C02EF014C02FF012006FEC25F0C486C7
:101D6C00000E0001B26F240EB36F740EB46F490EE7
:101D7C00B56F000EB66F000EB76FAA0EB86F430E9C
:101D8C00B96F000EBA6F000EBB6F480EBC6F420EDF
:101D9C00BD6F000EC76F000EC66F02EC23F0010E74
:101DAC0000019A6F100E9B6F13EC25F06E0E000164
:101DBC009A6F100E9B6F3F011F510F0B0001A86F04
:101DCC00A8519C6F9D6B13EC25F03F011E8FC9EC45
:101DDC0025F0C3EC25F0000E026E000E016EE4EC53
:101DEC0024F0CDB2FCEF0EF001EF0FF00001A86B68
:101DFC00A82B03EF0FF00001A86BA851016E026A2B
:101E0C0044EC23F001C0E0F002C0E1F00001E00579
:101E1C00E111D8A414EF0FF016EF0FF056EF0FF0FE
:101E2C00DE4BDF2B8F0E9A6F100E9B6FDEC09CF07B
:101E3C00DFC09DF013EC25F00001DE05DF11D8A406
:101E4C002AEF0FF02CEF0FF032EF0FF0310E9A6FEC
:101E5C00100E9B6F13EC25F0020E0001DE19DF1142
:101E6C00D8A43BEF0FF03DEF0FF043EF0FF0800ED7
:101E7C009A6F100E9B6F13EC25F00001DFBF50EF33
:101E8C000FF0DF5109E1030EDE5DD8A050EF0FF02B
:101E9C0052EF0FF056EF0FF0000EDF6F000EDE6FFB
:101EAC00DE05DF11D8A45DEF0FF05FEF0FF07BEFD5
:101EBC000FF0BD94000E026E000E016EE4EC24F0E7
:101ECC00BD86000E026E320E016E27EC25F0BD961B
:101EDC00000E026E320E016E27EC25F0BD86000E50
:101EEC00026E320E016E27EC25F0020E0001DE1997
:101EFC00DF11D8A484EF0FF086EF0FF0F7EF0EF0A0
:101F0C00C496BC86000E026E0A0E016E27EC25F0FC
:101F1C00C486C9EC25F0C6EC25F03901A19FA1AF10
:101F2C009AEF0FF09CEF0FF095EF0FF0A1AFA1EF30
:101F3C000FF0A3EF0FF0D2EF0FF0A6EC25F001C0DD
:101F4C0005F002C006F003C007F004C008F0000E54
:101F5C00CDEC1CF005C0C2F006C0C3F007C0C4F045
:101F6C0008C0C5F0C2C001F0C3C002F0C4C003F089
:101F7C00C5C004F0B2C005F0B3C006F0B4C007F0A1
:101F8C00B5C008F0F5EC18F001C0AEF002C0AFF02F
:101F9C0003C0B0F004C0B1F0B6C005F0B7C006F095
:101FAC00B8C007F0B9C008F0AEC001F0AFC002F085
:101FBC00B0C003F0B1C004F0CEEC16F001C0BEF01E
:101FCC0002C0BFF003C0C0F004C0C1F0BEC001F03D
:101FDC00BFC002F0C0C003F0C1C004F0BAC005F02D
:101FEC00BBC006F0BCC007F0BDC008F0CEEC16F0CC
:101FFC0001C0C8F002C0C9F003C0CAF004C0CBF0E5
:10200C00580E00019A6F100E9B6FC8C09CF0C9C08F
:10201C009DF0CAC09EF0CBC09FF013EC25F0000ED3
:10202C00026E780E016E27EC25F0000E1A6E000E73
:10203C001B6E700E1C6E420E1D6EC8C01EF0C9C009
:10204C001FF0CAC020F0CBC021F02AEC1EF0D8B093
:10205C0032EF10F034EF10F039EF10F0000E0001F9
:10206C00C76F010EC66F000E1A6E000E1B6EA00E0F
:10207C001C6E410E1D6EC8C01EF0C9C01FF0CAC038
:10208C0020F0CBC021F02AEC1EF0D8B050EF10F0AD
:10209C0052EF10F070EF10F0000E1A6E000E1B6E67
:1020AC00F00E1C6E410E1D6EC8C01EF0C9C01FF094
:1020BC00CAC020F0CBC021F02AEC1EF0D8A069EFEA
:1020CC0010F06BEF10F070EF10F0000E0001C76F06
:1020DC00020EC66F000E1A6E000E1B6EF00E1C6EFA
:1020EC00410E1D6EC8C01EF0C9C01FF0CAC020F042
:1020FC00CBC021F02AEC1EF0D8B087EF10F089EF9E
:10210C0010F0A7EF10F0000E1A6E000E1B6E200ED2
:10211C001C6E420E1D6EC8C01EF0C9C01FF0CAC096
:10212C0020F0CBC021F02AEC1EF0D8A0A0EF10F0CC
:10213C00A2EF10F0A7EF10F0000E0001C76F030E16
:10214C00C66F000E1A6E000E1B6E200E1C6E420E19
:10215C001D6EC8C01EF0C9C01FF0CAC020F0CBC095
:10216C0021F02AEC1EF0D8B0BEEF10F0C0EF10F04A
:10217C00DEEF10F0000E1A6E000E1B6E480E1C6E79
:10218C00420E1D6EC8C01EF0C9C01FF0CAC020F0A0
:10219C00CBC021F02AEC1EF0D8A0D7EF10F0D9EF6D
:1021AC0010F0DEEF10F0000E0001C76F040EC66FCA
:1021BC00000E1A6E000E1B6E480E1C6E420E1D6E2B
:1021CC00C8C01EF0C9C01FF0CAC020F0CBC021F09F
:1021DC002AEC1EF0D8B0F5EF10F0F7EF10F015EF79
:1021EC0011F0000E1A6E000E1B6E700E1C6E420E5D
:1021FC001D6EC8C01EF0C9C01FF0CAC020F0CBC0F5
:10220C0021F02AEC1EF0D8A00EEF11F010EF11F017
:10221C0015EF11F0000E0001C76F050EC66F000E12
:10222C001A6E000E1B6EA00E1C6E410E1D6EC8C0E9
:10223C001EF0C9C01FF0CAC020F0CBC021F02AECA0
:10224C001EF0D8A02CEF11F02EEF11F089EF11F049
:10225C00000E0001C76F060EC66F89EF11F0BD8628
:10226C00BD94F1EF0EF0BD96BD841E0EAB6E000E4C
:10227C00026E230E016EE4EC24F0F7EF0EF0BD9627
:10228C00BD841E0EAB6E000E026E190E016EE4ECD8
:10229C0024F0F7EF0EF0BD96BD84140EAB6E000E5D
:1022AC00026E120E016EE4EC24F0F7EF0EF0BD9608
:1022BC00BD841E0EAB6E000E026E0C0E016EE4ECB5
:1022CC0024F0F7EF0EF01E0EAB6E000E026E3E0EFB
:1022DC00016EE4EC24F0BD96BD84000E026E320E4D
:1022EC00016E27EC25F0BD94000E026E320E016ECD
:1022FC0027EC25F0BD84000E026E320E016E27EC29
:10230C0025F0F7EF0EF0C6C0A8F0C7C0A9F0000189
:10231C00A951000AD8B495EF11F0F7EF0EF0A851BF
:10232C00010AD8B435EF11F0030AD8B439EF11F023
:10233C00010AD8B445EF11F0070AD8B451EF11F0E7
:10234C00010AD8B45DEF11F0030AD8B469EF11F0AB
:10235C00F7EF0EF0FEEF7FF0600003F1D9FF6000A5
:10236C0007F1DAFF6F007BFFF6FF6F0077FFF7FFD7
:10237C00F86A0800F550250AD8A4C7EF11F0C9EF88
:10238C0011F04BEF14F0600003F1D9FF600007F17E
:10239C00DAFFDE2A000EDD22000E0001D76F000EE0
:1023AC00D66FD6C0DAF0D7C0DBF0D869D969600037
:1023BC0003F1D9FF600007F1DAFF6F007BFFF6FF36
:1023CC006F0077FFF7FFF86A0800F550076E086A90
:1023DC00EBEC23F00750566E5650D8B4F8EF11F0D2
:1023EC00FAEF11F040EF12F0600003F1D9FF60003A
:1023FC0007F1DAFF6F0078FF44F06F0074FF45F0CF
:10240C00010E4426000E4522600013F1F6FF600019
:10241C0017F1F7FFF86A0800F550076E086AEBEC45
:10242C0023F00750576E5750D8B41FEF12F021EF1E
:10243C0012F040EF12F0600003F1D9FF600007F1D9
:10244C00DAFF6F0078FF44F06F0074FF45F0020E66
:10245C004426000E4522600013F1F6FF600017F1D0
:10246C00F7FFF86A0800F550076E086AEBEC23F0EA
:10247C000750586E600003F1D9FF600007F1DAFFD6
:10248C006F007BFFF6FF6F0077FFF7FFF86A08001D
:10249C00F550630AD8A455EF12F057EF12F086EFFF
:1024AC0012F0600003F1D9FF600007F1DAFFDE2AB9
:1024BC00000EDD2260000BF1D9FF60000FF1DAFF96
:1024CC006F007CFF44F0020EDE266F007CFF45F0AF
:1024DC00000EDD22600013F1D9FF600017F1DAFF66
:1024EC00DF50596E3EC00CF03FC00DF059C00EF0DD
:1024FC001DEC20F00CC03EF00DC03FF06DEF14F061
:10250C00660E5618D8A48DEF12F08FEF12F0E1EF93
:10251C0012F0600003F1D9FF600007F1DAFF6F00E1
:10252C007BFFF6FF6F0077FFF7FFF86A08006F007C
:10253C00D4FF59F0600003F1D9FF600007F1DAFF16
:10254C00DE2A000EDD2260000BF1D9FF60000FF1D6
:10255C00DAFF6F007CFF44F0040EDE266F007CFF78
:10256C0045F0000EDD22600013F1D9FF600017F179
:10257C00DAFF6F0078FF52F06F0078FF53F06F00B6
:10258C0078FF54F06F0078FF55F03EC02EF03FC03E
:10259C002FF052C030F053C031F054C032F055C05F
:1025AC0033F059C034F05EEC08F02EC03EF02FC072
:1025BC003FF06DEF14F0560E016E000E026EB70E6A
:1025CC00036E100E046E000E066E020E056E2BECE2
:1025DC001FF001500210D8A4F6EF12F0F8EF12F031
:1025EC00AAEF13F0600003F1D9FF600007F1DAFFE6
:1025FC006F0078FF44F06F0074FF45F0010E442625
:10260C00000E4522600013F1F6FF600017F1F7FF92
:10261C00F86A08006F00D4FF59F0BF0E446EFF0E2D
:10262C00456E600003F1D9FF600007F1DAFF6F001F
:10263C007BFFF6FF6F0077FFF7FFF86A0800F55095
:10264C00466E476A445046264550472247500AE199
:10265C001A0E465CD8A035EF13F038EF13F0010ECC
:10266C0039EF13F0000E506E516A50505110D8B41F
:10267C0042EF13F044EF13F068EF13F060000BF12E
:10268C00D9FF60000FF1DAFF6F007CFF44F0040EFD
:10269C00DE266F007CFF45F0000EDD22600013F19A
:1026AC00D9FF600017F1DAFF6F0078FF52F06F006E
:1026BC0078FF53F06F0078FF54F06F0078FF55F0FF
:1026CC008AEF13F060000BF1D9FF60000FF1DAFF15
:1026DC006F007CFF44F0040EDE266F007CFF45F09B
:1026EC00000EDD22600013F1D9FF600017F1DAFF54
:1026FC006F0078FF52F06F0078FF53F06F0078FF97
:10270C0054F06F0078FF55F0020E600003F1D9FF12
:10271C00600007F1DAFFDE26000EDD223EC02EF04F
:10272C003FC02FF052C030F053C031F054C032F0E3
:10273C0055C033F059C034F05EEC08F02EC03EF0BA
:10274C002FC03FF06DEF14F0600003F1D9FF600073
:10275C0007F1DAFF6F007BFFF6FF6F0077FFF7FFE3
:10276C00F86A0800F550750AD8A4BFEF13F0C1EF52
:10277C0013F00CEF14F0600003F1D9FF600007F1C7
:10278C00DAFFDE2A000EDD2260000BF1D9FF6000BB
:10279C000FF1DAFF6F007CFF44F0020EDE266F00B3
:1027AC007CFF45F0000EDD22600013F1D9FF6000C4
:1027BC0017F1DAFF6F0078FF46F06F0074FF47F0F7
:1027CC0046C048F047C049F04A6A4B6A4C6A4D6AA9
:1027DC004E6A4F6A3EC01EF03FC01FF048C020F04A
:1027EC0049C021F04AC022F04BC023F04CC024F069
:1027FC004DC025F04EC026F04FC027F0CBEC1BF09F
:10280C001EC03EF01FC03FF06DEF14F0600003F1EE
:10281C00D9FF600007F1DAFF6F007BFFF6FF6F0056
:10282C0077FFF7FFF86A0800F550250AD8A421EFC6
:10283C0014F023EF14F03CEF14F0600003F1D9FF17
:10284C00600007F1DAFFDE2A000EDD22000E046EB6
:10285C00250E036E3EC005F03FC006F0B7EC22F02B
:10286C00000E3F6E010E3E6E6DEF14F0600003F132
:10287C00D9FF600007F1DAFFDE2A000EDD22000E20
:10288C003F6E000E3E6E6DEF14F0600003F1D9FF49
:10289C00600007F1DAFF6F007BFFF6FF6F0077FF38
:1028AC00F7FFF86A0800F550036E046A3EC005F0A5
:1028BC003FC006F0B7EC22F0600003F1D9FF6000D6
:1028CC0007F1DAFFDE2A000EDD2236EF14F01200DB
:1028DC000450800B0D6E045004240F6E03AE79EF80
:1028EC0014F07BEF14F07CEF14F00F800F50D8B481
:1028FC0082EF14F084EF14F099EF14F00F28D8A4A1
:10290C008AEF14F08CEF14F094EF14F0000E016EBB
:10291C00000E026E000E036E000E046E038E000E8F
:10292C00046EA1EF14F0000E016E000E026E000E8C
:10293C00036E000E046E0850800B0E6E0D500E18B8
:10294C00D8B4ABEF14F0ADEF14F0AEEF14F00D8C77
:10295C00085008240E6E07AEB6EF14F0B8EF14F062
:10296C00B9EF14F00E800E50D8B4BFEF14F0C1EFD5
:10297C0014F0D6EF14F00E28D8A4C7EF14F0C9EF5A
:10298C0014F0D1EF14F0000E056E000E066E000E62
:10299C00076E000E086E078E000E086EDEEF14F048
:1029AC00000E056E000E066E000E076E000E086E11
:1029BC000F500E5CD8B0E5EF14F0E7EF14F00EEF0B
:1029CC0015F00DACECEF14F0EEEF14F0F0EF14F09A
:1029DC00800E0D1A0FC010F00EC00FF010C00EF0CC
:1029EC0001C010F005C001F010C005F002C010F0DD
:1029FC0006C002F010C006F003C010F007C003F0D0
:102A0C0010C007F004C010F008C004F010C008F0AB
:102A1C00000E106E0F500EC009F00A6A095E000E0F
:102A2C000A5A0ABE23EF15F00A5009E11A0E095C86
:102A3C00D8A023EF15F025EF15F05CEF15F0015041
:102A4C00021003100410D8A42EEF15F031EF15F07E
:102A5C00010E32EF15F0000E106E000E016E000E1E
:102A6C00026E000E036E000E046E0EC00FF065EFCA
:102A7C0015F010A044EF15F046EF15F04CEF15F0E3
:102A8C00D89010300109106E4EEF15F0D89010321E
:102A9C0001A053EF15F055EF15F056EF15F0108E11
:102AAC00043404320332023201320F2A0E500F5C0E
:102ABC00D8A063EF15F065EF15F03FEF15F00DBCE6
:102ACC006AEF15F06CEF15F0ACEF15F00F50D8A4C1
:102ADC0072EF15F074EF15F07EEF15F0000E016E2D
:102AEC00000E026E000E036E000E046ECDEF16F09B
:102AFC0005500126065002220750032208500422DA
:102B0C0004A08BEF15F08DEF15F039EF16F010A037
:102B1C0092EF15F094EF15F09AEF15F0D890103065
:102B2C000109106E9CEF15F0D890103201A0A1EFA6
:102B3C0015F0A3EF15F0A4EF15F0108E0434043249
:102B4C000332023201320F2A39EF16F00550015CC4
:102B5C0006500258075003580450800A096E08505A
:102B6C00800A0958D8B0BDEF15F0BFEF15F0EAEFA9
:102B7C0015F00150055C096E025006580A6E0350A0
:102B8C0007580B6E045008580C6EFF0E0924016E8A
:102B9C00FF0E0A20026EFF0E0B20036EFF0E0C20A0
:102BAC00046E800E0D1A106C1050D8A4E0EF15F0C6
:102BBC00E2EF15F0F2EF15F0010E0126000E0222E5
:102BCC0003220422F2EF15F00550015E0650025A62
:102BDC000750035A0850045A0150021003100410F5
:102BEC00D8A4FBEF15F0FDEF15F032EF16F01050F6
:102BFC00D8A403EF16F005EF16F032EF16F0000E26
:102C0C00016E000E026E000E036E000E046ECDEF10
:102C1C0016F0D890013602360336043610AE19EF92
:102C2C0016F01BEF16F01CEF16F0018010A021EF30
:102C3C0016F023EF16F027EF16F0D880103629EF98
:102C4C0016F0D89010360F50D8B42FEF16F031EF95
:102C5C0016F032EF16F00F0603AE37EF16F039EF21
:102C6C0016F00FEF16F0000E0E6E10AE40EF16F0D1
:102C7C0042EF16F05AEF16F010C009F07F0E09164D
:102C8C00D8B44BEF16F04DEF16F051EF16F0010ED5
:102C9C000E6E5AEF16F001A056EF16F058EF16F024
:102CAC005AEF16F04DEF16F00E50D8B460EF16F048
:102CBC0062EF16F08DEF16F0010E0126000E0222C7
:102CCC000322042204A06DEF16F06FEF16F08DEFC7
:102CDC0016F001C009F002C00AF003C00BF004C0EA
:102CEC000CF00C340C320B320A32093209C001F0F0
:102CFC000AC002F00BC003F00CC004F00F28D8B4CB
:102D0C008AEF16F08CEF16F08DEF16F00F2A0F28C5
:102D1C00D8B493EF16F095EF16F09DEF16F00F5018
:102D2C00D8A49BEF16F09DEF16F0AFEF16F0000E47
:102D3C00016E000E026E000E036E000E046E0F503C
:102D4C00D8A4ABEF16F0ADEF16F0AFEF16F0000E07
:102D5C000D6E0FA0B4EF16F0B6EF16F0B9EF16F03B
:102D6C00038EBAEF16F0039ED8900F30046E0DAEA2
:102D7C00C2EF16F0C4EF16F0C5EF16F0048E01C0CA
:102D8C0001F002C002F003C003F004C004F0120012
:102D9C000450800B0D6E04500424136E03AED9EF57
:102DAC0016F0DBEF16F0DCEF16F013801350D8B4EE
:102DBC00E2EF16F0E4EF16F0F7EF16F01328D8A4B4
:102DCC00EAEF16F0ECEF16F0F4EF16F0000E016ED1
:102DDC00000E026E000E036E000E046E038EFFEFEB
:102DEC0016F0000E016E000E026E000E036E000E49
:102DFC00046E0850800B0D1A08500824126E07AE92
:102E0C000AEF17F00CEF17F00DEF17F012801250BD
:102E1C00D8B413EF17F015EF17F028EF17F01228AE
:102E2C00D8A41BEF17F01DEF17F025EF17F0000ECD
:102E3C00056E000E066E000E076E000E086E078EF5
:102E4C0030EF17F0000E056E000E066E000E076ECA
:102E5C00000E086E1250D8B436EF17F038EF17F09A
:102E6C0040EF17F01350D8A43EEF17F040EF17F0D7
:102E7C004AEF17F0000E016E000E026E000E036E8C
:102E8C00000E046EF4EF18F0075001026F00CCFF37
:102E9C0018F06F00D0FF19F018500E6E0F6A106A00
:102EAC00116A1950146E156A166A176A06500202D6
:102EBC006F00CCFF18F06F00D0FF19F018500E26E1
:102ECC00000E0F221022112219501426000E15226A
:102EDC0016221722055003026F00CCFF18F06F006A
:102EEC00D0FF19F018500E26000E0F2210221122BE
:102EFC0019501426000E15221622172210C011F09C
:102F0C000FC010F00EC00FF00E6A055002026F00D9
:102F1C00CCFF18F06F00D0FF19F018500E26195086
:102F2C000F22000E1022000E1122065001026F001B
:102F3C00CCFF18F06F00D0FF19F018500E26195066
:102F4C000F22000E1022000E112210C011F00FC023
:102F5C0010F00EC00FF00E6A055001026F00CCFF8E
:102F6C0018F06F00D0FF19F018500E2619500F22D0
:102F7C00000E1022000E1122075002026F00CCFF2F
:102F8C0018F06F00D0FF19F01850142619501522A4
:102F9C00000E1622000E1722065003026F00CCFF03
:102FAC0018F06F00D0FF19F0185014261950152284
:102FBC00000E1622000E1722075003026F00CCFFE2
:102FCC0018F06F00D0FF19F01850096E19500A6EE6
:102FDC000B6A0C6A0BC00CF00AC00BF009C00AF0AB
:102FEC00096A095014260A5015220B5016220C504F
:102FFC0017220EC009F00FC00AF010C00BF011C060
:10300C000CF0190E0FEF18F0D8900C320B320A326C
:10301C000932E82E0AEF18F0095014260A5015222E
:10302C000B5016220C50172210C011F00FC010F0CC
:10303C000EC00FF00E6A125013C009F00A6A09266E
:10304C00000E0A22820E0924186EFF0E0A20196E39
:10305C0045EF18F0D890143615361636173611AED3
:10306C003AEF18F03CEF18F03DEF18F01480D890C0
:10307C000E360F36103611361806D8A0190616AEB5
:10308C004AEF18F04CEF18F030EF18F0000E126EFB
:10309C0011AE53EF18F055EF18F079EF18F0FF0E52
:1030AC000E14096EFF0E0F140A6EFF0E10140B6E29
:1030BC007F0E11140C6E09500A100B100C10D8B4A2
:1030CC006AEF18F06CEF18F070EF18F0010E126E3A
:1030DC0079EF18F014A075EF18F077EF18F079EF7E
:1030EC0018F06CEF18F01250D8B47FEF18F081EF95
:1030FC0018F0A5EF18F0010E1426000E152216225A
:10310C00172217A08CEF18F08EEF18F0A5EF18F01F
:10311C0014C009F015C00AF016C00BF017C00CF063
:10312C000C340C320B320A32093209C014F00AC0CA
:10313C0015F00BC016F00CC017F0184A192A19BE5E
:10314C00B0EF18F0195008E11828D8A0B0EF18F01B
:10315C00B2EF18F0BCEF18F0000E146E000E156EE6
:10316C00800E166E7F0E176EEAEF18F019BEC9EFBF
:10317C0018F0195006E11804D8B0C7EF18F0C9EFD1
:10318C0018F0D5EF18F0000E146E000E156E000E30
:10319C00166E000E176E000E0D6EEAEF18F018C0CA
:1031AC0013F0FF0E1416FF0E15167F0E1616000EDA
:1031BC00171613A0E4EF18F0E6EF18F0E7EF18F08D
:1031CC00168ED8901330176E0D50171214C001F0D4
:1031DC0015C002F016C003F017C004F01200045022
:1031EC00800B116E04500424186E03AE00EF19F01E
:1031FC0002EF19F003EF19F018801850D8B409EF4A
:10320C0019F00BEF19F020EF19F01828D8A411EFD2
:10321C0019F013EF19F01BEF19F0000E016E000EF0
:10322C00026E000E036E000E046E038E000E046E12
:10323C0028EF19F0000E016E000E026E000E036EE8
:10324C00000E046E0850800B111A08500824196ED9
:10325C0007AE33EF19F035EF19F036EF19F019808E
:10326C001950D8B43CEF19F03EEF19F053EF19F0A8
:10327C001928D8A444EF19F046EF19F04EEF19F0C5
:10328C00000E056E000E066E000E076E000E086E28
:10329C00078E000E086E5BEF19F0000E056E000E27
:1032AC00066E000E076E000E086E05500610071015
:1032BC000810D8A464EF19F066EF19F07EEF19F03E
:1032CC00000E016E000E026E000E036E000E046EF8
:1032DC00800E03127F0E04121150041201C001F073
:1032EC0002C002F003C003F004C004F0C1EF1AF0F6
:1032FC001850D8A484EF19F086EF19F090EF19F05C
:10330C00000E016E000E026E000E036E000E046EB7
:10331C00C1EF1AF0195018C009F00A6A095E000EC4
:10332C000A5A7F0E0924126E000E0A20136E01C079
:10333C000DF002C00EF003C00FF004C010F0000E30
:10334C00016E000E026E000E036E000E046E000E77
:10335C00146E000E156E000E166E000E176E000E1B
:10336C00196EF1EF19F01950D8B4BFEF19F0C1EF85
:10337C0019F0D8EF19F0D8900D360E360F361036EE
:10338C00D890013602360336043617AED0EF19F05A
:10339C00D2EF19F0D3EF19F00180D890143615360E
:1033AC001636173605500D5C06500E5807500F5840
:1033BC0008501058D8A0E5EF19F0E7EF19F0F0EF2E
:1033CC0019F0178C05500D5E06500E5A07500F5A07
:1033DC000850105A192A190E1964F7EF19F0F9EF61
:1033EC0019F0B9EF19F00D500E100F101010D8B4D1
:1033FC0002EF1AF004EF1AF01CEF1AF014801CEF15
:10340C001AF0D890013602360336043617AE11EF97
:10341C001AF013EF1AF014EF1AF00180D89014364A
:10342C001536163617361206D8A0130603AE21EF42
:10343C001AF023EF1AF007EF1AF0000E196E17AE00
:10344C002AEF1AF02CEF1AF050EF1AF0FF0E1414AA
:10345C00096EFF0E15140A6EFF0E16140B6E7F0EFE
:10346C0017140C6E09500A100B100C10D8B441EF45
:10347C001AF043EF1AF047EF1AF0010E196E50EFE5
:10348C001AF001A04CEF1AF04EEF1AF050EF1AF0B0
:10349C0043EF1AF01950D8B456EF1AF058EF1AF04F
:1034AC007CEF1AF0010E0126000E022203220422E8
:1034BC0004A063EF1AF065EF1AF07CEF1AF001C06C
:1034CC0009F002C00AF003C00BF004C00CF00C347D
:1034DC000C320B320A32093209C001F00AC002F078
:1034EC000BC003F00CC004F0124A132A13BE87EF72
:1034FC001AF0135008E11228D8A087EF1AF089EFC0
:10350C001AF094EF1AF0000E136E1268000E016E92
:10351C00000E026E000E036E000E046E13BEA1EFC1
:10352C001AF0135006E11204D8B09FEF1AF0A1EF75
:10353C001AF0AFEF1AF0000E136E000E126E000EA2
:10354C00016E000E026E000E036E000E046E000E75
:10355C00116E12C018F018A0B6EF1AF0B8EF1AF0EE
:10356C00BBEF1AF0038EBCEF1AF0039ED890183004
:10357C00046E72EF19F01200CCC02AF0CDC02BF003
:10358C00CEC02CF0CFC02DF01AC02AF01BC02BF0EF
:10359C001CC02CF01DC02DF0810E1E6EFF0E1F6E78
:1035AC002AC020F02BC021F02CC022F02DC023F01B
:1035BC00180EE6EF1AF0D890233222322132203244
:1035CC00E82EE1EF1AF020501E24286E000E1F206A
:1035DC00296E29BEFBEF1AF0295009E1170E285C61
:1035EC00D8A0FBEF1AF0FDEF1AF007EF1BF01AC092
:1035FC001AF01BC01BF01CC01CF01DC01DF0CAEF44
:10360C001BF029BE0CEF1BF00EEF1BF07EEF1BF036
:10361C0028C01EF0FF0E1F6EFF0E206E7F0E216E57
:10362C00000E226E1E661DEF1BF025EF1BF02234E0
:10363C002232213220321F321E2E18EF1BF01FC0F7
:10364C0024F020C025F021C026F022C027F0245001
:10365C002A141E6E25502B141F6E26502C14206E0F
:10366C0027502D14216E1E501F1020102110D8A48D
:10367C0042EF1BF044EF1BF046EF1BF0FDEF1AF08E
:10368C002AC01EF02BC01FF02CC020F02DC021F042
:10369C00200E56EF1BF0D890213220321F321E32F2
:1036AC00E82E51EF1BF01E501F1020102110D8B423
:1036BC0062EF1BF064EF1BF06CEF1BF024502A261A
:1036CC0025502B2226502C2227502D22241C1E6ED6
:1036DC00251C1F6E261C206E271C216E1E502A16C0
:1036EC001F502B1620502C1621502D16C2EF1BF0FC
:1036FC002AC01EF02BC01FF02CC020F02DC021F0D2
:10370C00200E8EEF1BF0D890213220321F321E3249
:10371C00E82E89EF1BF01E501F1020102110D8A48A
:10372C009AEF1BF09CEF1BF0A6EF1BF0000E2A6E1D
:10373C00000E2B6E000E2C6E000E2D6EC2EF1BF0C9
:10374C00D8902A341E6E2B341F6E2C34206E2D34E0
:10375C00216E1E501F1020102110D8B4B8EF1BF092
:10376C00BAEF1BF0C2EF1BF0000E2A6E000E2B6E90
:10377C00800E2C6EBF0E2D6E2AC01AF02BC01BF0C3
:10378C002CC01CF02DC01DF012000001D9BFD1EFD0
:10379C001BF0D3EF1BF0D4EF1BF0DA93D9BFE1EFA2
:1037AC001BF0D95106E1D805D8B0DFEF1BF0E1EFE3
:1037BC001BF0E7EF1BF0000E316E010E306EEBEFDD
:1037CC001BF0D8C030F0D9C031F0D6C032F0D7C021
:1037DC0033F020C034F021C035F022C036F023C0C5
:1037EC0037F024C038F025C039F026C03AF027C095
:1037FC003BF0000E3D6E4F0E3C6E000E01014F6F04
:10380C007EEF1CF03C06D8A03D06000E3C24D96E81
:10381C00010E3D20DA6E34C001F035C002F036C026
:10382C0003F037C004F038C005F039C006F03AC0D8
:10383C0007F03BC008F00A0E096E000E0A6E000E6F
:10384C000B6E000E0C6E000E0D6E000E0E6E000E4A
:10385C000F6E000E106E89EC20F001C028F002C033
:10386C0029F003C02AF004C02BF005C02CF006C0D0
:10387C002DF007C02EF008C02FF02850300FDF6E4F
:10388C003006D8A031063206D8A0330634C001F079
:10389C0035C002F036C003F037C004F038C005F074
:1038AC0039C006F03AC007F03BC008F00A0E096EAA
:1038BC00000E0A6E000E0B6E000E0C6E000E0D6EDE
:1038CC00000E0E6E000E0F6E000E106EA5EC1FF0AB
:1038DC0001C034F002C035F003C036F004C037F03C
:1038EC0005C038F006C039F007C03AF008C03BF00C
:1038FC003C503D10D8B485EF1CF087EF1CF0B8EFAE
:10390C001CF03450351036103710381039103A106E
:10391C003B10D8A494EF1CF096EF1CF008EF1CF0B1
:10392C0031BEA3EF1CF0315006E13004D8B0A1EF4A
:10393C001CF0A3EF1CF008EF1CF033BEAEEF1CF034
:10394C00335008E13204D8A0AEEF1CF0B0EF1CF0FD
:10395C00B8EF1CF00001DAB3B6EF1CF0B8EF1CF0B6
:10396C0008EF1CF01EC013F01FC014F0000E3C2416
:10397C00156E010E3D20166E32C017F033C018F0D4
:10398C00F1EC20F013C01EF014C01FF012000D6EED
:10399C000D50D8B4D4EF1CF0D6EF1CF0F8EF1CF09F
:1039AC0008BEDDEF1CF0DBEF1CF0F8EF1CF005C0DF
:1039BC0009F006C00AF007C00BF008C00CF0091E95
:1039CC000A1E0B1E0C1E092A000E0A220B220C22A8
:1039DC0009C00FF00AC010F00BC011F00CC012F0AF
:1039EC0000EF1DF005C00FF006C010F007C011F07D
:1039FC0008C012F00550061007100810D8A409EFE3
:103A0C001DF00BEF1DF015EF1DF0000E056E000EF6
:103A1C00066E000E076E000E086EA6EF1DF0960ED9
:103A2C000E6E1FEF1DF00E2AD8901232113210328A
:103A3C000F32000E0F14096E000E10140A6E000ED9
:103A4C0011140B6EFE0E12140C6E09500A100B1092
:103A5C000C10D8A434EF1DF036EF1DF019EF1DF04B
:103A6C0044EF1DF00E2A010E0F26000E102211221B
:103A7C001222D8901232113210320F32000E0F1463
:103A8C00096E000E10140A6E000E11140B6EFF0E50
:103A9C0012140C6E09500A100B100C10D8A459EF0C
:103AAC001DF05BEF1DF038EF1DF063EF1DF00E06FF
:103ABC00D8900F3610361136123611BE68EF1DF045
:103ACC006AEF1DF072EF1DF0020E0E6070EF1DF02C
:103ADC0072EF1DF05DEF1DF00EB077EF1DF079EF7A
:103AEC001DF07AEF1DF0119ED8900E320EC009F029
:103AFC000A6A0B6A0C6A09C00CF00B6A0A6A096A3A
:103B0C0009500F120A5010120B5011120C501212B5
:103B1C000D50D8B494EF1DF096EF1DF09EEF1DF0F4
:103B2C0008BE9DEF1DF09BEF1DF09EEF1DF0128E59
:103B3C000FC005F010C006F011C007F012C008F05D
:103B4C001200033404340A6E0A50D8A4B0EF1DF0EE
:103B5C00B2EF1DF0BCEF1DF0000E016E000E026EF8
:103B6C00000E036E000E046E29EF1EF001C005F06E
:103B7C0002C006F003C007F004C008F0200ECCEF22
:103B8C001DF0D8900832073206320532E82EC7EF06
:103B9C001DF00550096E038EFF0E0116FF0E021666
:103BAC00FF0E0316000E0416960E0A5E0ABEE3EF15
:103BBC001DF0E1EF1DF0F9EF1DF00A50800A970F90
:103BCC00D8B0EBEF1DF0EDEF1DF0EFEF1DF0B2EF05
:103BDC001DF0D89004320332023201320A3EEFEF6C
:103BEC001DF011EF1EF01F0E0A64FFEF1DF001EF28
:103BFC001EF009EF1EF0B2EF1DF0D8900136023620
:103C0C00033604360A060A50D8A40FEF1EF011EF43
:103C1C001EF003EF1EF00950D8B417EF1EF019EF89
:103C2C001EF021EF1EF0041E031E021E016C000E7E
:103C3C0002220322042201C001F002C002F003C0E0
:103C4C0003F004C004F01200000E1A14226E000ED1
:103C5C001B14236E800E1C14246E7F0E1D14256EF7
:103C6C002250231024102510D8A43FEF1EF041EF52
:103C7C001EF049EF1EF0000E1A6E000E1B6E000EA9
:103C8C001C6E000E1D6E000E1E14226E000E1F14F4
:103C9C00236E800E2014246E7F0E2114256E22506C
:103CAC00231024102510D8A45EEF1EF060EF1EF038
:103CBC0068EF1EF0000E1E6E000E1F6E000E206EC2
:103CCC00000E216E1DAE6DEF1EF06FEF1EF078EF43
:103CDC001EF01A6C1B1ED8B01B2A1C1ED8B01C2A36
:103CEC00800E1D5621AE7DEF1EF07FEF1EF088EF8B
:103CFC001EF01E6C1F1ED8B01F2A201ED8B0202A02
:103D0C00800E2156000E1A1A000E1B1A000E1C1AD9
:103D1C00800E1D1A000E1E1A000E1F1A000E201AFD
:103D2C00800E211A1E501A5C1F501B5820501C5814
:103D3C0021501D58D8B0A5EF1EF0A7EF1EF0AAEF2A
:103D4C001EF0D890ABEF1EF0D8801200D0C00BF054
:103D5C00D1C00CF0D2C00DF0D3C00EF001C00BF0EE
:103D6C0002C00CF003C00DF004C00EF00BC005F047
:103D7C000CC006F00DC007F00EC008F0180ECCEF0A
:103D8C001EF0D8900832073206320532E82EC7EF03
:103D9C001EF00550096E0A6A09500A10D8A4D9EF12
:103DAC001EF0DBEF1EF0FBEF1EF0D8900B34056E0F
:103DBC000C34066E0D34076E0E34086E055006106A
:103DCC0007100810D8A4EDEF1EF0EFEF1EF0F5EF82
:103DDC001EF0000E026E020E016E2AEF1FF0000E96
:103DEC00026E030E016E2AEF1FF009280A10D8A4E8
:103DFC0002EF1FF004EF1FF026EF1FF00BC005F0D1
:103E0C000CC006F00DC007F00EC008F0090ED890DB
:103E1C000536063607360836E82E0DEF1FF005502E
:103E2C00061007100810D8B41EEF1FF021EF1FF07A
:103E3C00010E22EF1FF0000E016E026A2AEF1FF036
:103E4C00000E026E040E016E120001C008F002C0DA
:103E5C0009F003C00AF004C00BF00506D8A0060652
:103E6C00052806E10628D8A43EEF1FF040EF1FF00E
:103E7C004DEF1FF0000E026E000E016EA4EF1FF04E
:103E8C00084A092A0A4A0B2A0506D8A00606600029
:103E9C0023F0D9FF600027F0DAFFDF50D8B459EFD8
:103EAC001FF05BEF1FF08EEF1FF060002BF0F6FFA2
:103EBC0060002FF0F7FFF86A0800F5500009D8B43D
:103ECC006AEF1FF06CEF1FF08EEF1FF0055006101D
:103EDC00D8B473EF1FF075EF1FF08EEF1FF060007A
:103EEC0023F0D9FF600027F0DAFFDF50076E600087
:103EFC002BF0F6FF60002FF0F7FFF86A0800F55082
:103F0C000718D8B48CEF1FF08EEF1FF046EF1FF0A0
:103F1C00600023F0D9FF600027F0DAFFDF50076E56
:103F2C0060002BF0F6FF60002FF0F7FFF86A080036
:103F3C00F550075C016E026AD8A00206120020EE52
:103F4C0011F0070EDE6AE806FDE209500A100B10AC
:103F5C000C100D100E100F101010D8B4B8EF1FF07D
:103F6C00BAEF1FF00CEF20F0010E196EC8EF1FF026
:103F7C00D89009360A360B360C360D360E360F36FF
:103F8C001036192A10AECDEF1FF0CFEF1FF0BEEF99
:103F9C001FF0D890113612361336143615361636E5
:103FAC00173618360950015C0A5002580B5003584A
:103FBC000C5004580D5005580E5006580F50075809
:103FCC0010500858D8A0EDEF1FF0EFEF1FF000EFE6
:103FDC0020F00950015E0A50025A0B50035A0C5043
:103FEC00045A0D50055A0E50065A0F50075A1050CD
:103FFC00085A1180D89010320F320E320D320C321A
:10400C000B320A320932192ECFEF1FF011C001F01A
:10401C0012C002F013C003F014C004F015C005F078
:10402C0016C006F017C007F018C008F01200000107
:10403C00D651D711D8A425EF20F027EF20F02DEF83
:10404C0020F0D6C012F0D7C013F033EF20F0FF0EE3
:10405C00D625126EFF0ED721136EDAA138EF20F0A1
:10406C003AEF20F043EF20F00EC003F0046A0CC0CE
:10407C0005F00DC006F0B7EC22F013BE48EF20F0AF
:10408C004AEF20F04CEF20F050EF20F0000E136EB2
:10409C00000E126E000E116E000E106E62EF20F00C
:1040AC00000E046E200E036E0CC005F00DC006F061
:1040BC00B7EC22F0104A112A1250105C1150800AF1
:1040CC000F6E1350800A0F58D8A06FEF20F071EFCD
:1040DC0020F056EF20F00001DAB177EF20F079EF05
:1040EC0020F082EF20F00EC003F0046A0CC005F043
:1040FC000DC006F0B7EC22F0010E10240C6E000E71
:10410C0011200D6E120009500A100B100C100D101E
:10411C000E100F101010D8B496EF20F098EF20F07E
:10412C00E0EF20F0010E116EA6EF20F0D8900936CA
:10413C000A360B360C360D360E360F361036112A63
:10414C0010AEABEF20F0ADEF20F09CEF20F009505B
:10415C00015C0A5002580B5003580C5004580D5077
:10416C0005580E5006580F50075810500858D8A034
:10417C00C2EF20F0C4EF20F0D4EF20F00950015E24
:10418C000A50025A0B50035A0C50045A0D50055A3F
:10419C000E50065A0F50075A1050085AD890103229
:1041AC000F320E320D320C320B320A320932112E12
:1041BC00ADEF20F001C001F002C002F003C003F02B
:1041CC0004C004F005C005F006C006F007C007F0F7
:1041DC0008C008F012000001DAA1F7EF20F0F9EFA7
:1041EC0020F003EF21F015C00CF016C00DF013C039
:1041FC000EF014C00FF06DEC24F018BE08EF21F097
:10420C000AEF21F010EF21F017C01CF018C01DF0C0
:10421C0014EF21F0000E1D6E000E1C6E000E1B6EB6
:10422C00000E1A6E26EF21F0000E046E200E036EA7
:10423C0013C005F014C006F0B7EC22F01A4A1B2A82
:10424C001C501A5C1B50800A196E1D50800A19589C
:10425C00D8A033EF21F035EF21F01AEF21F0000157
:10426C00DAB13BEF21F03DEF21F047EF21F015C023
:10427C000CF016C00DF013C00EF014C00FF06DEC66
:10428C0024F015C001F016C002F08FEC24F01C5085
:10429C000124136E1D500220146E1200000E066EC7
:1042AC0004BE5DEF21F05BEF21F063EF21F0036CB6
:1042BC00041ED8B0042A010E066E02BE6AEF21F06D
:1042CC0068EF21F070EF21F0016C021ED8B0022AC9
:1042DC00010E061A000E086E000E076E0350041035
:1042EC00D8B47BEF21F07DEF21F0A5EF21F0010E8A
:1042FC00056E85EF21F0D89003360436052A04AEFE
:10430C008AEF21F08CEF21F081EF21F0D890073665
:10431C0008360350015C04500258D8A098EF21F0E5
:10432C009AEF21F09FEF21F00350015E0450025AE6
:10433C000780D89004320332052E8CEF21F0065002
:10434C00D8B4ABEF21F0ADEF21F0B1EF21F0076C59
:10435C00081ED8B0082A07C001F008C002F01200ED
:10436C00000E066E02BEBFEF21F0BDEF21F0C5EFCF
:10437C0021F0016C021ED8B0022A010E066E04BE9A
:10438C00CCEF21F0CAEF21F0D0EF21F0036C041E2A
:10439C00D8B0042A03500410D8B4D7EF21F0D9EFC9
:1043AC0021F0FDEF21F0010E056EE1EF21F0D89028
:1043BC0003360436052A04AEE6EF21F0E8EF21F0CF
:1043CC00DDEF21F00350015C04500258D8A0F1EF4E
:1043DC0021F0F3EF21F0F7EF21F00350015E0450D0
:1043EC00025AD89004320332052EE8EF21F0065021
:1043FC00D8B403EF22F005EF22F009EF22F0016CA4
:10440C00021ED8B0022A01C001F002C002F0120054
:10441C00000E0114096E000E02140A6E800E0314B5
:10442C000B6E7F0E04140C6E09500A100B100C103E
:10443C00D8A423EF22F025EF22F02DEF22F0000E6E
:10444C00016E000E026E000E036E000E046E000E66
:10445C000514096E000E06140A6E800E07140B6EFE
:10446C007F0E08140C6E09500A100B100C10D8A4F7
:10447C0042EF22F044EF22F04CEF22F0000E056EDA
:10448C00000E066E000E076E000E086E0550011829
:10449C000FE1065002180CE10750031809E108500F
:1044AC000418D8B45CEF22F05EEF22F061EF22F03A
:1044BC00D89062EF22F0D8801200000EBE6E000E73
:1044CC00BD6E000EBA6E000EBB6E000EBC6E070EFB
:1044DC00C66EFD0EC26EBF0EC36EC468F30EC56E03
:1044EC00F10E3A01706FD40E606F3F0E506F070ED5
:1044FC00806F4069000E716F000E816F000E516F5E
:10450C00000E416F000E616F000E5A6F000E5B6F54
:10451C00000E6A6F000E6B6F000E7A6F000E7B6FD1
:10452C00000E826F000E426F000E526F000E626F13
:10453C00000E726F4369536963697369070E836F69
:10454C0044695469646974690F0E846F0F0EE86FC7
:10455C00160E0E6F100ED16F130ED26F0D0E016F63
:10456C00120005500610D8B4BEEF22F0C0EF22F0B6
:10457C00C9EF22F005500610D8A4C7EF22F0C9EFFE
:10458C0022F0CEEF22F00350AFEC25F001EF23F038
:10459C0020EE04F00550D9260650DA22DE50DE104B
:1045AC00D8B4DBEF22F0DDEF22F0F8EF22F020EEB2
:1045BC0004F00550D9260650DA2210EE02F0055010
:1045CC00E1260650E222DE50E65CE650800A0B6ED5
:1045DC00DE50800A0B58D8B0F6EF22F0F8EF22F03C
:1045EC0001EF23F020EE02F00550D9260650DA2216
:1045FC00DE2A000EDD2212009E0E00019A6F100EB4
:10460C009B6F000E9D6F1B0E9C6F000E9F6F5B0EC1
:10461C009E6F000EA16F320EA06F000EA36F4A0E9C
:10462C00A26F13EC25F09E0E00019A6F100E9B6F7B
:10463C00000E9D6F1B0E9C6F000E9F6F5B0E9E6F8E
:10464C00000EA16F330EA06F000EA36F4A0EA26F67
:10465C0013EC25F0A00E00019A6F100E9B6F000E4C
:10466C009D6F1B0E9C6F000E9F6F5B0E9E6F000E5E
:10467C00A16F480EA06F13EC25F01200000E046E13
:10468C00000E036E0001DC51DD11D8A450EF23F0B5
:10469C0052EF23F063EF23F001500210D8B459EF1E
:1046AC0023F05BEF23F063EF23F0000EDD6F010EC0
:1046BC00DC6F000E046E010E036EDC05DD11D8A458
:1046CC006AEF23F06CEF23F07DEF23F00150021022
:1046DC00D8A473EF23F075EF23F07DEF23F0000ED9
:1046EC00DD6F000EDC6F000E046E020E036E03C055
:1046FC0001F004C002F0120003C007F004C008F07F
:10470C0001C009F002C00AF00750056E0850066E91
:10471C00074A082A600017F0F6FF60001BF0F7FF4D
:10472C00000EF86E600027F0D9FF60002BF0DAFF66
:10473C00094A0A2A0F0EF76403D00800F55007D077
:10474C006F00DBFFE1FF6F00DFFFE2FFE750DF6E82
:10475C00DF50D8A4B4EF23F0B6EF23F08AEF23F0A8
:10476C0012005CC098F05DC099F0000E0001D56F8E
:10477C00000ED46FD5EF23F05AC03EF05BC03FF073
:10478C00980E406E000E416E5EC042F05FC043F06A
:10479C00B2EC11F03E500001D4273F50D5236000FD
:1047AC0063F2F6FF600067F2F7FFF86A0800F55055
:1047BC000009D8A4E4EF23F0E6EF23F0C2EF23F0D6
:1047CC00D4C05AF0D5C05BF01200BF0E096EFF0EBC
:1047DC000A6E07C00BF008C00CF009500B260A50EB
:1047EC000C220C500AE11A0E0B5CD8A000EF24F03E
:1047FC0003EF24F0010E04EF24F0000E0D6E0E6A90
:10480C000D500E10D8B40DEF24F00FEF24F016EF6E
:10481C0024F0200E0710076E0850086E1AEF24F0D3
:10482C0007C007F008C008F01200000E3D01D46F5D
:10483C00000ED66F000ED86FB00EDA6F800EDB6FE5
:10484C00000EDC6F670EDD6F000EDE6F000EDF6F8B
:10485C00000EE06F000EE16F000EE26F000E016EB5
:10486C00000E026EB9EC25F0000E016E000E026E09
:10487C00B4EC25F0000E016E000E026EBEEC25F0BD
:10488C00000E0001E86F1200000E1E1A000E1F1A17
:10489C00000E201A800E211A1AC001F01BC002F063
:1048AC001CC003F01DC004F01EC005F01FC006F0B4
:1048BC0020C007F021C008F06EEC14F001C01AF013
:1048CC0002C01BF003C01CF004C01DF01200000E4F
:1048DC00126E000E116E7EEF24F010C003F0046A0D
:1048EC000EC005F00FC006F0B7EC22F0114A122AE8
:1048FC0011500C24D96E12500D20DA6EDF50106E50
:10490C001050D8A48CEF24F08EEF24F073EF24F029
:10491C00120001C003F002C004F097EF24F0014A2A
:10492C00022A600007F0D9FF60000BF0DAFFDF50BD
:10493C00D8A4A3EF24F0A5EF24F095EF24F00350B6
:10494C00015C016E04500258026E1200BF0E036E21
:10495C00FF0E046E01C005F002C006F003500526E0
:10496C000450062206500AE11A0E055CD8A0C1EFCD
:10497C0024F0C4EF24F0010EC5EF24F0000E016EFC
:10498C00026A12000150021003100410D8B4D1EFC7
:10499C0024F0D3EF24F0DBEF24F0000E011A000E0C
:1049AC00021A000E031A800E041A01C001F002C094
:1049BC0002F003C003F004C004F0120001C003F0C5
:1049CC0002C004F0D89004320332D890043203327F
:1049DC0003506D6E01C003F0030E0316060E046E39
:1049EC00D8900336042EF6EF24F003506C6E1200B0
:1049FC00800E3F011E6F010E1F6F000E206F000E08
:104A0C00216F000E236F000E226FF40E1D6F240E0B
:104A1C001C6F000E1B6F1F8F12009C0E0001A66FE7
:104A2C00000EA76F000E5A6E000E5B6E9AC05CF003
:104A3C009BC05DF0A60E5E6E000E5F6EB7EC23F0B1
:104A4C0012002DEF25F0C80E00D0E82EFDD7010680
:104A5C00D8A00206012806E10228D8A438EF25F0D8
:104A6C003AEF25F029EF25F01200230E3901D96F0A
:104A7C00000EDB6F000EDD6F020EDF6F000EDE6FBF
:104A8C00DCA14BEF25F04DEF25F046EF25F01200A1
:104A9C00000E3901C06F000EC16F000EC26F000E08
:104AAC00C36F000EC46F000EC56F000EC66F000EF4
:104ABC00C76F120000EE00F1500EEE6AE806FDE141
:104ACC0000EECCF01D0EEE6AE806FDE10001B3EF3E
:104ADC000EF04EEC25F063EC22F03BEC25F0FEECF6
:104AEC0024F09AEC25F07EEC25F01BEC24F012005F
:104AFC00010EAE6E000EAD6E000EAF6EF90EAB6E0B
:104B0C00000EAA6E3901A495F00EAC6E1200016E67
:104B1C003901A6A794EF25F096EF25F08EEF25F03E
:104B2C00600007F0D2FD1200800E6E6E7C0E6D6E72
:104B3C00C00E6C6E3F015F51FC0B01095F6F1200E0
:104B4C003F011851016E1951026E1A51036E046A1D
:104B5C001200026E02508DEC25F0120001C0E4F040
:104B6C0002C0E5F0120001C0E6F002C0E7F012004E
:104B7C0001C0E2F002C0E3F012003F011F9D1200E1
:0C4B8C003F01208B12003F011F8F120020
:04FFFC0060EF25F09D
:020000040020DA
:10000000FF0FFF0FFF0FFF0FFF0FFF0FFF0FFF0F80
:020000040030CA
:0A000000AEFEF7FF9FFFFFFFFFFFBA
:00000001FF
