:020000040000FA
:04000000FEEF7FF0A0
:1090C00001C0E6F102C0E7F1120001C0EAF102C0FE
:1090D000EBF1120001C0E8F102C0E9F11200026EEA
:1090E0000250A8EC48F012000250B76E600007F082
:1090F000B6FF1200800E666E7F0E656EC00E646E47
:10910000300E3F015F131200620E3901D96F000E5D
:10911000DB6F000EDD6F060EDF6F000EDE6F1200DC
:10912000800E6E6E1F0E6D6E400E6C6E3F015F51B5
:10913000FC0B01095F6F1200900E6A6E1F0E696EC4
:10914000400E686E3F015F51F30B08095F6F12001C
:10915000016E3901A6A7AFEF48F0B1EF48F0A9EFD3
:1091600048F0600007F0D2FD1200010E966E000E6E
:10917000956E000E976E9368000E926E3901A9915C
:10918000F00E946E1200010EAE6E000EAD6E000E6B
:10919000AF6E3E0EAB6E000EAA6E3901A495F00EB6
:1091A000AC6E1200010EA26E000EA16E000EA36E38
:1091B0003E0E9F6E000E9E6E3901A791F00EA06EBE
:1091C000120000EE00F2500EEE6AE806FDE100EE3D
:1091D000E6F0180EEE6AE806FDE15F6A000173EF43
:1091E00060F0FF0E056EFF0E066EFF0E076E7F0E1F
:1091F000086E05C001F006C002F007C003F008C009
:1092000004F01200000E3901C06F000EC16F000E95
:10921000C26F000EC36F000EC46F000EC56F000E4C
:10922000C66F000EC76F1200D80E0001E26F000E6D
:10923000E36F000ED06F000ED16FD6C0D2F0D7C052
:10924000D3F0E20ED46F000ED56FB4EC4AF01200EA
:1092500031EF49F0030E036E980EE82EFED7032E71
:10926000FCD70106D8A00206012806E10228D8A4EE
:109270003CEF49F03EEF49F02AEF49F0120002ECD2
:1092800049F03DEC4CF084EC48F09CEC48F0B5EC37
:1092900048F0D2EC48F0C3EC48F090EC48F07AEC9F
:1092A00048F056EC49F056EC4AF01200000EB96E48
:1092B000FE0EB76E000EB66EB6506F00DCFE01F00B
:1092C000026A01C002F0016A01100001FE6F025043
:1092D000FF6F3901A39F900EB86E120001C003F01A
:1092E00002C004F0D89004320332D8900432033222
:1092F00003506D6E01C003F0030E0316060E046EDC
:10930000D8900336042E80EF49F003506C6E1200A3
:1093100001C003F002C004F0D89004320332D890A8
:10932000043203320350696E01C003F0030E0316CA
:10933000060E046ED8900336042E9AEF49F00350BF
:10934000686E1200EEC005F0EFC006F0F0C007F046
:10935000F1C008F001C005F002C006F003C007F03C
:1093600004C008F0089E05C001F006C002F007C066
:1093700003F008C004F012000150021003100410A2
:10938000D8B4C5EF49F0C7EF49F0CFEF49F0000E70
:10939000011A000E021A000E031A800E041A01C0F0
:1093A00001F002C002F003C003F004C004F0120098
:1093B000BF0E036EFF0E046E01C005F002C006F082
:1093C000035005260450062206500AE11A0E055CD9
:1093D000D8A0EDEF49F0F0EF49F0010EF1EF49F0C0
:1093E000000E016E026A120001C003F002C004F018
:1093F000FCEF49F0014A022A600007F0D9FF600043
:109400000BF0DAFFDF50D8A408EF4AF00AEF4AF079
:10941000FAEF49F00350015C016E04500258026EED
:109420001200000E126E000E116E22EF4AF010C0F4
:1094300003F0046A0EC005F00FC006F09DEC4BF07F
:10944000114A122A11500C24D96E12500D20DA6ED6
:10945000DF50106E1050D8A430EF4AF032EF4AF0CF
:1094600017EF4AF01200000E3C1A000E3D1A000ED3
:109470003E1A800E3F1A38C00FF039C010F03AC0C3
:1094800011F03BC012F03CC013F03DC014F03EC0E0
:1094900015F03FC016F0F0EC58F00FC038F010C0D7
:1094A00039F011C03AF012C03BF01200000E3D013D
:1094B000D46F000ED66F000ED86FB00EDA6F800E2C
:1094C000DB6F000EDC6FCF0EDD6F000EDE6F000E67
:1094D000DF6F000EE06F000EE16F000EE26F000E16
:1094E000016E000E026E65EC48F0000E016E000E7B
:1094F000026E6AEC48F0000E016E000E026E60EC27
:1095000048F0000E5F6E1200BF0E096EFF0E0A6E6D
:1095100007C00BF008C00CF009500B260A500C22B3
:109520000C500AE11A0E0B5CD8A099EF4AF09CEFA0
:109530004AF0010E9DEF4AF0000E0D6E0E6A0D50BE
:109540000E10D8B4A6EF4AF0A8EF4AF0AFEF4AF0F9
:10955000200E0710076E0850086EB3EF4AF007C0E0
:1095600007F008C008F01200D2C05DF0D3C05EF072
:10957000000E0001F56F000EF46FD2EF4AF0D0C07C
:10958000B4F0D1C0B5F05D0EB66F000EB76FD4C0A9
:10959000B8F0D5C0B9F0B0EC5DF00001B451F427DB
:1095A000B551F523600077F1F6FF60007BF1F7FF1E
:1095B000F86A0800F5500009D8A4E1EF4AF0E3EF9B
:1095C0004AF0BFEF4AF0F4C0D0F0F5C0D1F012007D
:1095D00003C007F004C008F001C009F002C00AF09F
:1095E0000750056E0850066E074A082A600017F0FB
:1095F000F6FF60001BF0F7FF000EF86E600027F02A
:10960000D9FF60002BF0DAFF094A0A2A0F0EF7642F
:1096100003D00800F55007D06F00DBFFE1FF6F00BB
:10962000DFFFE2FFE750DF6EDF50D8A41AEF4BF008
:109630001CEF4BF0F0EF4AF01200000E046E000E2B
:10964000036E0001FC51FD11D8A429EF4BF02BEF64
:109650004BF03CEF4BF001500210D8B432EF4BF01E
:1096600034EF4BF03CEF4BF0000EFD6F010EFC6F42
:10967000000E046E010E036EFC05FD11D8A443EF2D
:109680004BF045EF4BF056EF4BF001500210D8A4D1
:109690004CEF4BF04EEF4BF056EF4BF0000EFD6FE2
:1096A000000EFC6F000E046E020E036E03C001F08C
:1096B00004C002F01200DF0E0001D66FFF0ED76F5C
:1096C000000ED96F1B0ED86F000EDB6F5B0EDA6FCA
:1096D000000EDD6F320EDC6F000EDF6F4A0EDE6FA4
:1096E00014EC49F0DF0E0001D66FFF0ED76F000EAD
:1096F000D96F1B0ED86F000EDB6F5B0EDA6F000E9A
:10970000DD6F330EDC6F000EDF6F4A0EDE6F14EC80
:1097100049F0E10E0001D66FFF0ED76F000ED96F32
:109720001B0ED86F000EDB6F5B0EDA6F000EDD6F65
:10973000480EDC6F14EC49F0120005500610D8B446
:10974000A4EF4BF0A6EF4BF0AFEF4BF00550061037
:10975000D8A4ADEF4BF0AFEF4BF0B4EF4BF00350AC
:109760006FEC48F0E7EF4BF020EE04F00550D926FF
:109770000650DA22DE50DE10D8B4C1EF4BF0C3EF52
:109780004BF0DEEF4BF020EE04F00550D9260650EA
:10979000DA2210EE02F00550E1260650E222DE50F9
:1097A000E65CE650800A0B6EDE50800A0B58D8B09B
:1097B000DCEF4BF0DEEF4BF0E7EF4BF020EE02F08A
:1097C0000550D9260650DA22DE2A000EDD221200CC
:1097D000000E0114096E000E02140A6E800E0314AE
:1097E0000B6E7F0E04140C6E09500A100B100C1037
:1097F000D8A4FDEF4BF0FFEF4BF007EF4CF0000E5D
:10980000016E000E026E000E036E000E046E000E5E
:109810000514096E000E06140A6E800E07140B6EF6
:109820007F0E08140C6E09500A100B100C10D8A4EF
:109830001CEF4CF01EEF4CF026EF4CF0000E056EC6
:10984000000E066E000E076E000E086E0550011821
:109850000FE1065002180CE10750031809E1085007
:109860000418D8B436EF4CF038EF4CF03BEF4CF026
:10987000D8903CEF4CF0D8801200000EBE6E000E67
:10988000BD6E000EBA6E000EBB6E000EBC6E070EF3
:10989000C66EC268BF0EC36EFA0EC46EFB0EC56EF6
:1098A000F90E3A01706FFA0E606F3F0E506F070E9F
:1098B000806FEF0E406F000E716F000E816F000E13
:1098C000516F000E416F000E616F000E5A6F000E57
:1098D0005B6F000E6A6F000E6B6F000E7A6F000EEA
:1098E0007B6F000E826F000E426F000E526F000EF3
:1098F000626F000E726F4369536963697369070E83
:10990000836F44695469646974690F0E846F0F0E24
:10991000E86F0F0E106F0E0E1A6F160E0E6F0D0EF3
:10992000126F040EC36F1200000E066E02BE9DEF92
:109930004CF09BEF4CF0A3EF4CF0016C021ED8B042
:10994000022A010E066E04BEAAEF4CF0A8EF4CF0FE
:10995000AEEF4CF0036C041ED8B0042A0350041080
:10996000D8B4B5EF4CF0B7EF4CF0DBEF4CF0010E94
:10997000056EBFEF4CF0D89003360436052A04AECE
:10998000C4EF4CF0C6EF4CF0BBEF4CF00350015C61
:1099900004500258D8A0CFEF4CF0D1EF4CF0D5EFE7
:1099A0004CF00350015E0450025AD8900432033246
:1099B000052EC6EF4CF00650D8B4E1EF4CF0E3EFC3
:1099C0004CF0E7EF4CF0016C021ED8B0022A01C047
:1099D00001F002C002F01200000E066E04BEF5EFA8
:1099E0004CF0F3EF4CF0FBEF4CF0036C041ED8B0DE
:1099F000042A010E066E02BE02EF4DF000EF4DF09C
:109A000008EF4DF0016C021ED8B0022A010E061AB2
:109A1000000E086E000E076E03500410D8B413EF4A
:109A20004DF015EF4DF03DEF4DF0010E056E1DEFC1
:109A30004DF0D89003360436052A04AE22EF4DF0DF
:109A400024EF4DF019EF4DF0D8900736083603504B
:109A5000015C04500258D8A030EF4DF032EF4DF0C9
:109A600037EF4DF00350015E0450025A0780D89042
:109A700004320332052E24EF4DF00650D8B443EFE4
:109A80004DF045EF4DF049EF4DF0076C081ED8B092
:109A9000082A07C001F008C002F012000001FAA174
:109AA00054EF4DF056EF4DF060EF4DF015C00CF057
:109AB00016C00DF013C00EF014C00FF011EC4AF0F8
:109AC00018BE65EF4DF067EF4DF06DEF4DF017C02C
:109AD0001CF018C01DF071EF4DF0000E1D6E000E51
:109AE0001C6E000E1B6E000E1A6E83EF4DF0000E02
:109AF000046E200E036E13C005F014C006F09DEC3A
:109B00004BF01A4A1B2A1C501A5C1B50800A196E13
:109B10001D50800A1958D8A090EF4DF092EF4DF0EB
:109B200077EF4DF00001FAB198EF4DF09AEF4DF05C
:109B3000A4EF4DF015C00CF016C00DF013C00EF0E0
:109B400014C00FF011EC4AF015C001F016C002F07D
:109B5000F4EC49F01C500124136E1D500220146EC9
:109B6000120009500A100B100C100D100E100F10DF
:109B70001010D8B4BEEF4DF0C0EF4DF008EF4EF02E
:109B8000010E116ECEEF4DF0D89009360A360B3625
:109B90000C360D360E360F361036112A10AED3EFB6
:109BA0004DF0D5EF4DF0C4EF4DF00950015C0A5077
:109BB00002580B5003580C5004580D5005580E50C5
:109BC00006580F50075810500858D8A0EAEF4DF02B
:109BD000ECEF4DF0FCEF4DF00950015E0A50025AD7
:109BE0000B50035A0C50045A0D50055A0E50065A89
:109BF0000F50075A1050085AD89010320F320E32B8
:109C00000D320C320B320A320932112ED5EF4DF0E3
:109C100001C001F002C002F003C003F004C004F070
:109C200005C005F006C006F007C007F008C008F040
:109C300012000001F651F711D8A421EF4EF023EFE6
:109C40004EF029EF4EF0F6C012F0F7C013F02FEFF0
:109C50004EF0FF0EF625126EFF0EF721136EFAA1DD
:109C600034EF4EF036EF4EF03FEF4EF00EC003F003
:109C7000046A0CC005F00DC006F09DEC4BF013BE5D
:109C800044EF4EF046EF4EF048EF4EF04CEF4EF002
:109C9000000E136E000E126E000E116E000E106E8E
:109CA0005EEF4EF0000E046E200E036E0CC005F049
:109CB0000DC006F09DEC4BF0104A112A1250105CBA
:109CC0001150800A0F6E1350800A0F58D8A06BEF06
:109CD0004EF06DEF4EF052EF4EF00001FAB173EF1F
:109CE0004EF075EF4EF07EEF4EF00EC003F0046ABA
:109CF0000CC005F00DC006F09DEC4BF0010E1024D9
:109D00000C6E000E11200D6E120020EE11F0070EE9
:109D1000DE6AE806FDE209500A100B100C100D1067
:109D20000E100F101010D8B498EF4EF09AEF4EF0BE
:109D3000ECEF4EF0010E196EA8EF4EF0D8900936F8
:109D40000A360B360C360D360E360F361036192AFB
:109D500010AEADEF4EF0AFEF4EF09EEF4EF0D8905C
:109D6000113612361336143615361636173618369F
:109D70000950015C0A5002580B5003580C5004580B
:109D80000D5005580E5006580F50075810500858DF
:109D9000D8A0CDEF4EF0CFEF4EF0E0EF4EF00950EF
:109DA000015E0A50025A0B50035A0C50045A0D50CF
:109DB000055A0E50065A0F50075A1050085A118073
:109DC000D89010320F320E320D320C320B320A3272
:109DD0000932192EAFEF4EF011C001F012C002F09F
:109DE00013C003F014C004F015C005F016C006F04F
:109DF00017C007F018C008F0120001C008F002C038
:109E000009F003C00AF004C00BF00506D8A006064E
:109E1000052806E10628D8A410EF4FF012EF4FF006
:109E20001FEF4FF0000E026E000E016E76EF4FF046
:109E3000084A092A0A4A0B2A0506D8A00606600025
:109E400023F0D9FF600027F0DAFFDF50D8B42BEF02
:109E50004FF02DEF4FF060EF4FF060002BF0F6FF6A
:109E600060002FF0F7FFF86A0800F5500009D8B439
:109E70003CEF4FF03EEF4FF060EF4FF00550061013
:109E8000D8B445EF4FF047EF4FF060EF4FF0600070
:109E900023F0D9FF600027F0DAFFDF50076E600083
:109EA0002BF0F6FF60002FF0F7FFF86A0800F5507E
:109EB0000718D8B45EEF4FF060EF4FF018EF4FF097
:109EC000600023F0D9FF600027F0DAFFDF50076E53
:109ED00060002BF0F6FF60002FF0F7FFF86A080033
:109EE000F550075C016E026AD8A002061200EAC0B3
:109EF0000BF0EBC00CF0ECC00DF0EDC00EF001C0AB
:109F00000BF002C00CF003C00DF004C00EF00BC04B
:109F100005F00CC006F00DC007F00EC008F0180EDA
:109F200097EF4FF0D8900832073206320532E82E0C
:109F300092EF4FF00550096E0A6A09500A10D8A432
:109F4000A4EF4FF0A6EF4FF0C6EF4FF0D8900B34D0
:109F5000056E0C34066E0D34076E0E34086E055017
:109F6000061007100810D8A4B8EF4FF0BAEF4FF062
:109F7000C0EF4FF0000E026E020E016EF5EF4FF0D3
:109F8000000E026E030E016EF5EF4FF009280A1065
:109F9000D8A4CDEF4FF0CFEF4FF0F1EF4FF00BC063
:109FA00005F00CC006F00DC007F00EC008F0090E59
:109FB000D8900536063607360836E82ED8EF4FF02B
:109FC0000550061007100810D8B4E9EF4FF0ECEF79
:109FD0004FF0010EEDEF4FF0000E016E026AF5EF4B
:109FE0004FF0000E026E040E016E1200000E4014BF
:109FF000486E000E4114496E800E42144A6E7F0E68
:10A0000043144B6E485049104A104B10D8A40BEF24
:10A0100050F00DEF50F015EF50F0000E406E000EB6
:10A02000416E000E426E000E436E000E4414486EE8
:10A03000000E4514496E800E46144A6E7F0E47147A
:10A040004B6E485049104A104B10D8A42AEF50F0DC
:10A050002CEF50F034EF50F0000E446E000E456EC1
:10A06000000E466E000E476E43AE39EF50F03BEFE8
:10A0700050F044EF50F0406C411ED8B0412A421ECF
:10A08000D8B0422A800E435647AE49EF50F04BEF0E
:10A0900050F054EF50F0446C451ED8B0452A461E8F
:10A0A000D8B0462A800E4756000E401A000E411ABC
:10A0B000000E421A800E431A000E441A000E451A72
:10A0C000000E461A800E471A4450405C45504158D5
:10A0D0004650425847504358D8B071EF50F073EF94
:10A0E00050F076EF50F0D89077EF50F0D880120013
:10A0F000033404340A6E0A50D8A481EF50F083EF81
:10A1000050F08DEF50F0000E016E000E026E000E4A
:10A11000036E000E046EFAEF50F001C005F002C0AD
:10A1200006F003C007F004C008F0200E9DEF50F0C9
:10A13000D8900832073206320532E82E98EF50F0F8
:10A140000550096E038EFF0E0116FF0E0216FF0E5C
:10A150000316000E0416960E0A5E0ABEB4EF50F007
:10A16000B2EF50F0CAEF50F00A50800A970FD8B003
:10A17000BCEF50F0BEEF50F0C0EF50F083EF50F066
:10A18000D89004320332023201320A3EC0EF50F05E
:10A19000E2EF50F01F0E0A64D0EF50F0D2EF50F013
:10A1A000DAEF50F083EF50F0D890013602360336E4
:10A1B00004360A060A50D8A4E0EF50F0E2EF50F05F
:10A1C000D4EF50F00950D8B4E8EF50F0EAEF50F077
:10A1D000F2EF50F0041E031E021E016C000E02225C
:10A1E0000322042201C001F002C002F003C003F008
:10A1F00004C004F01200096E0950D8B402EF51F007
:10A2000004EF51F026EF51F004BE0BEF51F009EFCF
:10A2100051F026EF51F001C005F002C006F003C076
:10A2200007F004C008F0051E061E071E081E052ABA
:10A23000000E06220722082205C00BF006C00CF013
:10A2400007C00DF008C00EF02EEF51F001C00BF06A
:10A2500002C00CF003C00DF004C00EF0015002105B
:10A2600003100410D8A437EF51F039EF51F043EF49
:10A2700051F0000E016E000E026E000E036E000E15
:10A28000046ED4EF51F0960E0A6E4DEF51F00A2A8B
:10A29000D8900E320D320C320B32000E0B14056EBC
:10A2A000000E0C14066E000E0D14076EFE0E0E143A
:10A2B000086E0550061007100810D8A462EF51F080
:10A2C00064EF51F047EF51F072EF51F00A2A010E9E
:10A2D0000B26000E0C220D220E22D8900E320D32CB
:10A2E0000C320B32000E0B14056E000E0C14066EB1
:10A2F000000E0D14076EFF0E0E14086E05500610AA
:10A3000007100810D8A487EF51F089EF51F066EFDD
:10A3100051F091EF51F00A06D8900B360C360D36FD
:10A320000E360DBE96EF51F098EF51F0A0EF51F0C0
:10A33000020E0A609EEF51F0A0EF51F08BEF51F04A
:10A340000AB0A5EF51F0A7EF51F0A8EF51F00D9E24
:10A35000D8900A320AC005F0066A076A086A05C082
:10A3600008F0076A066A056A05500B1206500C12BF
:10A3700007500D1208500E120950D8B4C2EF51F018
:10A38000C4EF51F0CCEF51F004BECBEF51F0C9EF68
:10A3900051F0CCEF51F00E8E0BC001F00CC002F06A
:10A3A0000DC003F00EC004F012000001F9BFDBEF96
:10A3B00051F0DDEF51F0DEEF51F0FA93F9BFEBEF22
:10A3C00051F0F95106E1F805D8B0E9EF51F0EBEFA3
:10A3D00051F0F1EF51F0000E316E010E306EF5EFDD
:10A3E00051F0F8C030F0F9C031F0F6C032F0F7C0EB
:10A3F00033F020C034F021C035F022C036F023C045
:10A4000037F024C038F025C039F026C03AF027C014
:10A410003BF0000E3D6E4F0E3C6E000E02014F6F82
:10A4200088EF52F03C06D8A03D06000E3C24D96EC1
:10A43000020E3D20DA6E34C001F035C002F036C0A5
:10A4400003F037C004F038C005F039C006F03AC058
:10A4500007F03BC008F00A0E096E000E0A6E000EEF
:10A460000B6E000E0C6E000E0D6E000E0E6E000ECA
:10A470000F6E000E106EB1EC4DF001C028F002C05E
:10A4800029F003C02AF004C02BF005C02CF006C050
:10A490002DF007C02EF008C02FF02850300FDF6ECF
:10A4A0003006D8A031063206D8A0330634C001F0F9
:10A4B00035C002F036C003F037C004F038C005F0F4
:10A4C00039C006F03AC007F03BC008F00A0E096E2A
:10A4D000000E0A6E000E0B6E000E0C6E000E0D6E5E
:10A4E000000E0E6E000E0F6E000E106E85EC4EF01C
:10A4F00001C034F002C035F003C036F004C037F0BC
:10A5000005C038F006C039F007C03AF008C03BF08B
:10A510003C503D10D8B48FEF52F091EF52F0C2EFA3
:10A5200052F03450351036103710381039103A10B8
:10A530003B10D8A49EEF52F0A0EF52F012EF52F071
:10A5400031BEADEF52F0315006E13004D8B0ABEF80
:10A5500052F0ADEF52F012EF52F033BEB8EF52F0BE
:10A56000335008E13204D8A0B8EF52F0BAEF52F0FD
:10A57000C2EF52F00001FAB3C0EF52F0C2EF52F056
:10A5800012EF52F01EC013F01FC014F0000E3C2456
:10A59000156E020E3D20166E32C017F033C018F053
:10A5A0004EEC4DF013C01EF014C01FF01200E6C0B8
:10A5B0006CF0E7C06DF0E8C06EF0E9C06FF059C014
:10A5C0006CF05AC06DF05BC06EF05CC06FF0810E35
:10A5D0000001606FFF0E616F6CC062F06DC063F0D0
:10A5E0006EC064F06FC065F0180EFCEF52F0D890AA
:10A5F0006533643363336233E82EF7EF52F0625110
:10A6000060256A6F000E61216B6F6BBF11EF53F015
:10A610006B5109E1170E6A5DD8A011EF53F013EFEB
:10A6200053F01DEF53F059C059F05AC05AF05BC0B7
:10A630005BF05CC05CF0E1EF53F06BBF22EF53F0D6
:10A6400024EF53F095EF53F06AC060F0FF0E616F96
:10A65000FF0E626F7F0E636F000E646F606733EFF3
:10A6600053F03BEF53F0643564336333623361334B
:10A67000602F2EEF53F061C066F062C067F063C0D8
:10A6800068F064C069F0000166516C15606F675135
:10A690006D15616F68516E15626F69516F15636F4B
:10A6A0006051611162116311D8A459EF53F05BEF4F
:10A6B00053F05DEF53F013EF53F06CC060F06DC0DA
:10A6C00061F06EC062F06FC063F0200E6DEF53F06A
:10A6D000D8906333623361336033E82E68EF53F010
:10A6E0006051611162116311D8B479EF53F07BEFBF
:10A6F00053F083EF53F066516C2767516D23685117
:10A700006E2369516F23661D606F671D616F681D41
:10A71000626F691D636F60516C1761516D176251F3
:10A720006E1763516F17D9EF53F06CC060F06DC0B6
:10A7300061F06EC062F06FC063F0200EA5EF53F0C1
:10A74000D8906333623361336033E82EA0EF53F067
:10A750006051611162116311D8A4B1EF53F0B3EFEE
:10A7600053F0BDEF53F0000E6C6F000E6D6F000ED6
:10A770006E6F000E6F6FD9EF53F0D8906C35606F2D
:10A780006D35616F6E35626F6F35636F605161114A
:10A7900062116311D8B4CFEF53F0D1EF53F0D9EF7A
:10A7A00053F0000E6C6F000E6D6F800E6E6FBF0E5B
:10A7B0006F6F6CC059F06DC05AF06EC05BF06FC027
:10A7C0005CF0120038C046F039C047F03AC048F09B
:10A7D0003BC049F03DBEF6EF53F03D5009E1800E1D
:10A7E0003C5CD8A0F6EF53F0F8EF53F056EF54F07E
:10A7F00046C01FF047C020F048C021F049C022F0F9
:10A80000000E236E000E246E000E256E7F0E266E47
:10A81000C9EC56F01FC046F020C047F021C048F0F8
:10A8200022C049F0810E3C26FF0E3D223DBE22EFA4
:10A8300054F03D5009E1800E3C5CD8A022EF54F06A
:10A8400024EF54F0C0EF54F046C01FF047C020F092
:10A8500048C021F049C022F0000E236E000E246E85
:10A86000000E256E7F0E266EC9EC56F01FC046F016
:10A8700020C047F021C048F022C049F0810E3C269C
:10A88000FF0E3D223DBE4EEF54F03D5009E1800EDB
:10A890003C5CD8A04EEF54F050EF54F0C0EF54F0B1
:10A8A000000E3D6E7F0E3C6EC0EF54F03DAE62EF89
:10A8B00054F0820E3C5CFF0E3D58D8B062EF54F06D
:10A8C00064EF54F0C0EF54F046C01FF047C020F0D2
:10A8D00048C021F049C022F0000E236E000E246E05
:10A8E000800E256E0C0E266EC9EC56F01FC046F089
:10A8F00020C047F021C048F022C049F0660E3C2637
:10A90000000E3D223DAE8EEF54F0820E3C5CFF0EF9
:10A910003D58D8B08EEF54F090EF54F0C0EF54F0A3
:10A9200046C01FF047C020F048C021F049C022F0C7
:10A93000000E236E000E246E800E256E0C0E266E09
:10A94000C9EC56F01FC046F020C047F021C048F0C7
:10A9500022C049F0660E3C26000E3D223DAEBAEF05
:10A9600054F0820E3C5CFF0E3D58D8B0BAEF54F064
:10A97000BCEF54F0C0EF54F0FF0E3D6E820E3C6E03
:10A980007F0E3C243E6E000E3D203F6E406A416AC1
:10A99000170ED8903E363F3640364136E82EC9EF86
:10A9A00054F03EC042F03FC043F040C044F041C0CC
:10A9B00045F042C01FF043C020F044C021F045C024
:10A9C00022F046C023F047C024F048C025F049C01B
:10A9D00026F0C9EC56F01FC038F020C039F021C075
:10A9E0003AF022C03BF038C038F039C039F03AC0F4
:10A9F0003AF03BC03BF012004350800B506E435086
:10AA00004324576E42AE07EF55F009EF55F00AEFB9
:10AA100055F057805750D8B410EF55F012EF55F05D
:10AA200027EF55F05728D8A418EF55F01AEF55F036
:10AA300022EF55F0000E406E000E416E000E426E89
:10AA4000000E436E428E000E436E2FEF55F0000E47
:10AA5000406E000E416E000E426E000E436E475077
:10AA6000800B501A47504724586E46AE3AEF55F0C7
:10AA70003CEF55F03DEF55F058805850D8B443EFB7
:10AA800055F045EF55F05AEF55F05828D8A44BEF44
:10AA900055F04DEF55F055EF55F0000E446E000E99
:10AAA000456E000E466E000E476E468E000E476ED7
:10AAB00062EF55F0000E446E000E456E000E466EBD
:10AAC000000E476E4450451046104710D8A46BEF57
:10AAD00055F06DEF55F085EF55F0000E406E000E0D
:10AAE000416E000E426E000E436E800E42127F0ECB
:10AAF00043125050431240C040F041C041F042C0A8
:10AB000042F043C043F0C8EF56F05750D8A48BEF43
:10AB100055F08DEF55F097EF55F0000E406E000E9A
:10AB2000416E000E426E000E436EC8EF56F0585054
:10AB300057C048F0496A485E000E495A7F0E4824C3
:10AB4000516E000E4920526E40C04CF041C04DF095
:10AB500042C04EF043C04FF0000E406E000E416EFA
:10AB6000000E426E000E436E000E536E000E546EC9
:10AB7000000E556E000E566E000E586EF8EF55F032
:10AB80005850D8B4C6EF55F0C8EF55F0DFEF55F088
:10AB9000D8904C364D364E364F36D89040364136EA
:10ABA0004236433656AED7EF55F0D9EF55F0DAEFCF
:10ABB00055F04080D890533654365536563644506A
:10ABC0004C5C45504D5846504E5847504F58D8A0B1
:10ABD000ECEF55F0EEEF55F0F7EF55F0568C445092
:10ABE0004C5E45504D5A46504E5A47504F5A582A7F
:10ABF000190E5864FEEF55F000EF56F0C0EF55F017
:10AC00004C504D104E104F10D8B409EF56F00BEFCA
:10AC100056F023EF56F0538023EF56F0D89040368D
:10AC200041364236433656AE18EF56F01AEF56F01C
:10AC30001BEF56F04080D890533654365536563672
:10AC40005106D8A0520642AE28EF56F02AEF56F031
:10AC50000EEF56F0000E586E56AE31EF56F033EF51
:10AC600056F057EF56F0FF0E5314486EFF0E541473
:10AC7000496EFF0E55144A6E7F0E56144B6E4850A7
:10AC800049104A104B10D8B448EF56F04AEF56F02E
:10AC90004EEF56F0010E586E57EF56F040A053EFAE
:10ACA00056F055EF56F057EF56F04AEF56F0585021
:10ACB000D8B45DEF56F05FEF56F083EF56F0010E1B
:10ACC0004026000E41224222432243A06AEF56F062
:10ACD0006CEF56F083EF56F040C048F041C049F0A9
:10ACE00042C04AF043C04BF04B344B324A324932F7
:10ACF000483248C040F049C041F04AC042F04BC021
:10AD000043F0514A522A52BE8EEF56F0525008E19B
:10AD10005128D8A08EEF56F090EF56F09BEF56F0EA
:10AD2000000E526E5168000E406E000E416E000E15
:10AD3000426E000E436E52BEA8EF56F0525006E12E
:10AD40005104D8B0A6EF56F0A8EF56F0B6EF56F083
:10AD5000000E526E000E516E000E406E000E416EDF
:10AD6000000E426E000E436E000E506E51C057F042
:10AD700057A0BDEF56F0BFEF56F0C2EF56F0428E2F
:10AD8000C3EF56F0429ED8905730436E79EF55F09E
:10AD900012002250800B2B6E22502224316E21AEE5
:10ADA000D4EF56F0D6EF56F0D7EF56F03180315051
:10ADB000D8B4DDEF56F0DFEF56F0F2EF56F0312861
:10ADC000D8A4E5EF56F0E7EF56F0EFEF56F0000E9F
:10ADD0001F6E000E206E000E216E000E226E218E60
:10ADE000FAEF56F0000E1F6E000E206E000E216E60
:10ADF000000E226E2650800B2B1A26502624306E11
:10AE000025AE05EF57F007EF57F008EF57F0308009
:10AE10003050D8B40EEF57F010EF57F023EF57F043
:10AE20003028D8A416EF57F018EF57F020EF57F05E
:10AE3000000E236E000E246E000E256E000E266E90
:10AE4000258E2BEF57F0000E236E000E246E000EA1
:10AE5000256E000E266E3050D8B431EF57F033EF28
:10AE600057F03BEF57F03150D8A439EF57F03BEF94
:10AE700057F045EF57F0000E1F6E000E206E000ECB
:10AE8000216E000E226EEFEF58F025501F026F006A
:10AE9000CCFF36F06F00D0FF37F036502C6E2D6AA5
:10AEA0002E6A2F6A3750326E336A346A356A2450FC
:10AEB00020026F00CCFF36F06F00D0FF37F0365025
:10AEC0002C26000E2D222E222F2237503226000E45
:10AED000332234223522235021026F00CCFF36F07A
:10AEE0006F00D0FF37F036502C26000E2D222E2278
:10AEF0002F2237503226000E3322342235222EC024
:10AF00002FF02DC02EF02CC02DF02C6A23502002E3
:10AF10006F00CCFF36F06F00D0FF37F036502C2694
:10AF200037502D22000E2E22000E2F2224501F02F9
:10AF30006F00CCFF36F06F00D0FF37F036502C2674
:10AF400037502D22000E2E22000E2F222EC02FF061
:10AF50002DC02EF02CC02DF02C6A23501F026F0044
:10AF6000CCFF36F06F00D0FF37F036502C2637502C
:10AF70002D22000E2E22000E2F22255020026F00BF
:10AF8000CCFF36F06F00D0FF37F036503226375006
:10AF90003322000E3422000E3522245021026F008D
:10AFA000CCFF36F06F00D0FF37F0365032263750E6
:10AFB0003322000E3422000E3522255021026F006C
:10AFC000CCFF36F06F00D0FF37F03650276E375089
:10AFD000286E296A2A6A29C02AF028C029F027C0C9
:10AFE00028F0276A2750322628503322295034224D
:10AFF0002A5035222CC027F02DC028F02EC029F071
:10B000002FC02AF0190E0AEF58F0D8902A322932B0
:10B0100028322732E82E05EF58F0275032262850E4
:10B020003322295034222A5035222EC02FF02DC031
:10B030002EF02CC02DF02C6A305031C027F0286A39
:10B040002726000E2822820E2724366EFF0E282087
:10B05000376E40EF58F0D8903236333634363536C6
:10B060002FAE35EF58F037EF58F038EF58F0328008
:10B07000D8902C362D362E362F363606D8A03706E9
:10B0800034AE45EF58F047EF58F02BEF58F0000E74
:10B09000306E2FAE4EEF58F050EF58F074EF58F07E
:10B0A000FF0E2C14276EFF0E2D14286EFF0E2E148B
:10B0B000296E7F0E2F142A6E2750281029102A106F
:10B0C000D8B465EF58F067EF58F06BEF58F0010E09
:10B0D000306E74EF58F032A070EF58F072EF58F005
:10B0E00074EF58F067EF58F03050D8B47AEF58F05A
:10B0F0007CEF58F0A0EF58F0010E3226000E3322FC
:10B100003422352235A087EF58F089EF58F0A0EFB0
:10B1100058F032C027F033C028F034C029F035C0D1
:10B120002AF02A342A3229322832273227C032F034
:10B1300028C033F029C034F02AC035F0364A372A07
:10B1400037BEABEF58F0375008E13628D8A0ABEF48
:10B1500058F0ADEF58F0B7EF58F0000E326E000E19
:10B16000336E800E346E7F0E356EE5EF58F037BECD
:10B17000C4EF58F0375006E13604D8B0C2EF58F0AB
:10B18000C4EF58F0D0EF58F0000E326E000E336E60
:10B19000000E346E000E356E000E2B6EE5EF58F08B
:10B1A00036C031F0FF0E3216FF0E33167F0E341606
:10B1B000000E351631A0DFEF58F0E1EF58F0E2EF66
:10B1C00058F0348ED8903130356E2B50351232C055
:10B1D0001FF033C020F034C021F035C022F012003F
:10B1E0001250800B1B6E125012241D6E11AEFBEF1D
:10B1F00058F0FDEF58F0FEEF58F01D801D50D8B408
:10B2000004EF59F006EF59F01BEF59F01D28D8A4B0
:10B210000CEF59F00EEF59F016EF59F0000E0F6ECB
:10B22000000E106E000E116E000E126E118E000ECA
:10B23000126E23EF59F0000E0F6E000E106E000E0E
:10B24000116E000E126E1650800B1C6E1B501C18D7
:10B25000D8B42DEF59F02FEF59F030EF59F01B8C87
:10B26000165016241C6E15AE38EF59F03AEF59F00F
:10B270003BEF59F01C801C50D8B441EF59F043EF1C
:10B2800059F058EF59F01C28D8A449EF59F04BEF6A
:10B2900059F053EF59F0000E136E000E146E000EAD
:10B2A000156E000E166E158E000E166E60EF59F0BC
:10B2B000000E136E000E146E000E156E000E166E4C
:10B2C0001D501C5CD8B067EF59F069EF59F090EF52
:10B2D00059F01BAC6EEF59F070EF59F072EF59F066
:10B2E000800E1B1A1DC01EF01CC01DF01EC01CF0DD
:10B2F0000FC01EF013C00FF01EC013F010C01EF0E0
:10B3000014C010F01EC014F011C01EF015C011F0D2
:10B310001EC015F012C01EF016C012F01EC016F0AE
:10B32000000E1E6E1D501CC017F0186A175E000E2E
:10B33000185A18BEA5EF59F0185009E11A0E175CFB
:10B34000D8A0A5EF59F0A7EF59F0DEEF59F00F5054
:10B35000101011101210D8A4B0EF59F0B3EF59F03B
:10B36000010EB4EF59F0000E1E6E000E0F6E000EAF
:10B37000106E000E116E000E126E1CC01DF0E7EF75
:10B3800059F01EA0C6EF59F0C8EF59F0CEEF59F0B2
:10B39000D8901E3001091E6ED0EF59F0D8901E32A1
:10B3A0000FA0D5EF59F0D7EF59F0D8EF59F01E8E16
:10B3B00012341232113210320F321D2A1C501D5C11
:10B3C000D8A0E5EF59F0E7EF59F0C1EF59F01BBCF9
:10B3D000ECEF59F0EEEF59F02EEF5AF01D50D8A4D3
:10B3E000F4EF59F0F6EF59F000EF5AF0000E0F6E3F
:10B3F000000E106E000E116E000E126E4FEF5BF01D
:10B4000013500F26145010221550112216501222DC
:10B4100012A00DEF5AF00FEF5AF0BBEF5AF01EA03A
:10B4200014EF5AF016EF5AF01CEF5AF0D8901E3075
:10B4300001091E6E1EEF5AF0D8901E320FA023EFA6
:10B440005AF025EF5AF026EF5AF01E8E12341232BF
:10B45000113210320F321D2ABBEF5AF013500F5C1D
:10B4600014501058155011581250800A176E16506B
:10B47000800A1758D8B03FEF5AF041EF5AF06CEFFE
:10B480005AF00F50135C176E10501458186E11506C
:10B490001558196E125016581A6EFF0E17240F6E9B
:10B4A000FF0E1820106EFF0E1920116EFF0E1A20CD
:10B4B000126E800E1B1A1E6C1E50D8A462EF5AF03A
:10B4C00064EF5AF074EF5AF0010E0F26000E1022AE
:10B4D0001122122274EF5AF013500F5E1450105ABA
:10B4E0001550115A1650125A0F50101011101210F8
:10B4F000D8A47DEF5AF07FEF5AF0B4EF5AF01E5007
:10B50000D8A485EF5AF087EF5AF0B4EF5AF0000E46
:10B510000F6E000E106E000E116E000E126E4FEFC9
:10B520005BF0D8900F361036113612361EAE9BEFF8
:10B530005AF09DEF5AF09EEF5AF00F801EA0A3EF35
:10B540005AF0A5EF5AF0A9EF5AF0D8801E36ABEFAB
:10B550005AF0D8901E361D50D8B4B1EF5AF0B3EF60
:10B560005AF0B4EF5AF01D0611AEB9EF5AF0BBEF26
:10B570005AF091EF5AF0000E1C6E1EAEC2EF5AF058
:10B58000C4EF5AF0DCEF5AF01EC017F07F0E17160A
:10B59000D8B4CDEF5AF0CFEF5AF0D3EF5AF0010EF6
:10B5A0001C6EDCEF5AF00FA0D8EF5AF0DAEF5AF029
:10B5B000DCEF5AF0CFEF5AF01C50D8B4E2EF5AF05B
:10B5C000E4EF5AF00FEF5BF0010E0F26000E102291
:10B5D0001122122212A0EFEF5AF0F1EF5AF00FEF02
:10B5E0005BF00FC017F010C018F011C019F012C0B6
:10B5F0001AF01A341A3219321832173217C00FF0F3
:10B6000018C010F019C011F01AC012F01D28D8B4DB
:10B610000CEF5BF00EEF5BF00FEF5BF01D2A1D28C7
:10B62000D8B415EF5BF017EF5BF01FEF5BF01D5028
:10B63000D8A41DEF5BF01FEF5BF031EF5BF0000E65
:10B640000F6E000E106E000E116E000E126E1D5069
:10B65000D8A42DEF5BF02FEF5BF031EF5BF0000E25
:10B660001B6E1DA036EF5BF038EF5BF03BEF5BF03D
:10B67000118E3CEF5BF0119ED8901D30126E1BAE08
:10B6800044EF5BF046EF5BF047EF5BF0128E0FC0CC
:10B690000FF010C010F011C011F012C012F0120023
:10B6A0004CC06CF04DC06DF04EC06EF04FC06FF0EE
:10B6B0006CC084F06DC085F06EC086F06FC087F0FE
:10B6C000000E00018415506E000E8515516E800E1F
:10B6D0008615526E7F0E8715536E800E521809E143
:10B6E0007F0E531850105110D8A479EF5BF07BEF08
:10B6F0005BF0A9EF5BF04CC023F04DC024F04EC0CE
:10B7000025F04FC026F04CC01FF04DC020F04EC0B9
:10B7100021F04FC022F0C9EC56F01FC00FF020C03E
:10B7200010F021C011F022C012F04CC013F04DC037
:10B7300014F04EC015F04FC016F0F0EC58F00FC0EA
:10B740004CF010C04DF011C04EF012C04FF0AFEFF2
:10B750005DF087BFB8EF5BF087518611851106E178
:10B760008405D8B0B6EF5BF0B8EF5BF0F4EF5BF0B8
:10B77000FF0E8415506EFF0E8515516EFF0E861557
:10B78000526E7F0E8715536E505051105210531049
:10B79000D8A4CDEF5BF0CFEF5BF0D9EF5BF04CC0FE
:10B7A0004CF04DC04DF04EC04EF04FC04FF0AFEFDB
:10B7B0005DF087BFE0EF5BF0DEEF5BF0F4EF5BF096
:10B7C000000EF36F210EF26FD00E016EFF0E026EAF
:10B7D000F1EC48F001C04CF002C04DF003C04EF057
:10B7E00004C04FF0AFEF5DF0170E506E84C051F003
:10B7F00085C052F086C053F087C054F0506603EF06
:10B800005CF00BEF5CF0543454325332523251320C
:10B81000502EFEEF5BF051C07CF052C07DF053C063
:10B820007EF054C07FF000017C517D117E117F11AC
:10B83000D8A41DEF5CF01FEF5CF04FEF5CF0000E42
:10B84000686F000E696F000E6A6F000E6B6F34EF49
:10B850005CF0D8908437853786378737010E6827A4
:10B86000000E69236A236B2386AF39EF5CF03BEF50
:10B870005CF029EF5CF0FF0E6825506EFF0E692129
:10B88000516EFF0E6A21526EFF0E6B21536E5050A7
:10B890007C5F51507D5B52507E5B53507F5B810ECD
:10B8A0007C27FF0E7D23FF0E7E23FF0E7F23FF0EDE
:10B8B0008415506EFF0E8515516E7F0E8615526EE3
:10B8C000000E8715536E000E5010846F000E51103D
:10B8D000856F800E5210866F000E5310876F7CA10B
:10B8E00074EF5CF076EF5CF07EEF5CF084518427BF
:10B8F0008551852386518623875187237F357F3362
:10B900007E337D337C338451842785518523865152
:10B91000862387518723000E646F000E656F000E2B
:10B92000666F000E676F64C070F065C071F066C02E
:10B9300072F067C073F0000E806F000E816F000E12
:10B94000826F010E836FEDEF5CF064518025746FA0
:10B9500065518121756F66518221766F6751832110
:10B96000776F7451845D7551855976518659875129
:10B97000800A506E7751800A5058D8A0C2EF5CF010
:10B98000C4EF5CF0E0EF5CF074518025646F75519A
:10B990008121656F76518221666F77518321676FB0
:10B9A0007451845F7551855B7651865B7751875BF7
:10B9B00080517027815171238251722383517323E7
:10B9C0008451842785518523865186238751872377
:10B9D000D890833382338133803380518111821137
:10B9E0008311D8A4F6EF5CF0F8EF5CF0A5EF5CF003
:10B9F0008451851186118711D8B401EF5DF003EFF2
:10BA00005DF064EF5DF0000E786F000E796F800ED0
:10BA10007A6F3F0E7B6F78C040F079C041F07AC0FA
:10BA200042F07BC043F0000E446E000E456E800E67
:10BA3000466E3F0E476EF6EC4FF0D8A022EF5DF059
:10BA400024EF5DF064EF5DF0000E0001786F000EF2
:10BA5000796F800E7A6F3F0E7B6F000E406E000E86
:10BA6000416E800E426E3F0E436E78C044F079C046
:10BA700045F07AC046F07BC047F0F6EC4FF0D8B006
:10BA800044EF5DF046EF5DF04FEF5DF0020E000118
:10BA90007027000E71237223732364EF5DF0010E93
:10BAA00000017015506E000E7115516E000E72156A
:10BAB000526E000E7315536E505070275150712303
:10BAC000525072235350732370C050F071C051F024
:10BAD00072C052F073C053F0533453325232513269
:10BAE0005032000E50240001846F000E5120856FEB
:10BAF000000E5220866F3F0E5320876F7CC050F09F
:10BB00007DC051F07EC052F07FC053F0170ED89028
:10BB10005036513652365336E82E87EF5DF050508E
:10BB2000842751508523525086235350872384C045
:10BB30006CF085C06DF086C06EF087C06FF06CC091
:10BB400078F06DC079F06EC07AF06FC07BF078C08D
:10BB50004CF079C04DF07AC04EF07BC04FF012002F
:10BB60006000DBF2D9FF6000DFF2DAFF6F007BFFDD
:10BB7000F6FF6F0077FFF7FFF86A0800F550250A17
:10BB8000D8A4C5EF5DF0C7EF5DF050EF60F0600046
:10BB9000DBF2D9FF6000DFF2DAFFDE2A000EDD22E1
:10BBA000000E0001F76F000EF66FF6C0FAF0F7C056
:10BBB000FBF0F869F9696000DBF2D9FF6000DFF2A1
:10BBC000DAFF6F007BFFF6FF6F0077FFF7FFF86A81
:10BBD0000800F550076E086A84EC4AF0075000012F
:10BBE000CC6FCC51D8B4F7EF5DF0F9EF5DF041EFD9
:10BBF0005EF06000DBF2D9FF6000DFF2DAFF6F0079
:10BC000078FFBAF06F0074FFBBF0010EBA27000E88
:10BC1000BB236000EBF2F6FF6000EFF2F7FFF86A7B
:10BC20000800F550076E086A84EC4AF007500001DE
:10BC3000CD6FCD51D8B41FEF5EF021EF5EF041EF34
:10BC40005EF06000DBF2D9FF6000DFF2DAFF6F0028
:10BC500078FFBAF06F0074FFBBF0020EBA27000E37
:10BC6000BB236000EBF2F6FF6000EFF2F7FFF86A2B
:10BC70000800F550076E086A84EC4AF0075000018E
:10BC8000CE6F6000DBF2D9FF6000DFF2DAFF6F00F9
:10BC90007BFFF6FF6F0077FFF7FFF86A0800F550AB
:10BCA000630AD8A456EF5EF058EF5EF087EF5EF0BF
:10BCB0006000DBF2D9FF6000DFF2DAFFDE2A000E5F
:10BCC000DD226000E3F2D9FF6000E7F2DAFF6F00E7
:10BCD0007CFFBAF0020EDE266F007CFFBBF0000E88
:10BCE000DD226000EBF2D9FF6000EFF2DAFFDF50F7
:10BCF000CF6FB4C00CF0B5C00DF0CFC00EF019EC92
:10BD00004EF00CC0B4F00DC0B5F072EF60F0660EEE
:10BD1000CC19D8A48EEF5EF090EF5EF0E2EF5EF00B
:10BD20006000DBF2D9FF6000DFF2DAFF6F007BFF1B
:10BD3000F6FF6F0077FFF7FFF86A08006F00D4FF87
:10BD4000CFF06000DBF2D9FF6000DFF2DAFFDE2A1D
:10BD5000000EDD226000E3F2D9FF6000E7F2DAFFB7
:10BD60006F007CFFBAF0040EDE266F007CFFBBF094
:10BD7000000EDD226000EBF2D9FF6000EFF2DAFF87
:10BD80006F0078FFC8F06F0078FFC9F06F0078FF90
:10BD9000CAF06F0078FFCBF0B4C070F0B5C071F09E
:10BDA000C8C072F0C9C073F0CAC074F0CBC075F0DF
:10BDB000CFC076F0EBEC63F070C0B4F071C0B5F0BA
:10BDC00072EF60F0CC0E016E000E026EF80E036E84
:10BDD000FF0E046E000E066E020E056EFDEC4EF0B8
:10BDE00001500210D8A4F7EF5EF0F9EF5EF0ACEF6F
:10BDF0005FF06000DBF2D9FF6000DFF2DAFF6F0076
:10BE000078FFBAF06F0074FFBBF0010E0001BA2793
:10BE1000000EBB236000EBF2F6FF6000EFF2F7FFCD
:10BE2000F86A08006F00D4FFCFF0BF0EBA6FFF0EA4
:10BE3000BB6F6000DBF2D9FF6000DFF2DAFF6F005A
:10BE40007BFFF6FF6F0077FFF7FFF86A0800F550F9
:10BE5000BC6FBD6BBA51BC27BB51BD23BD510AE1BC
:10BE60001A0EBC5DD8A037EF5FF03AEF5FF0010E1D
:10BE70003BEF5FF0000EC66FC76BC651C711D8B459
:10BE800044EF5FF046EF5FF06AEF5FF06000E3F2CF
:10BE9000D9FF6000E7F2DAFF6F007CFFBAF0040E12
:10BEA000DE266F007CFFBBF0000EDD226000EBF2AF
:10BEB000D9FF6000EFF2DAFF6F0078FFC8F06F0083
:10BEC00078FFC9F06F0078FFCAF06F0078FFCBF001
:10BED0008CEF5FF06000E3F2D9FF6000E7F2DAFF79
:10BEE0006F007CFFBAF0040EDE266F007CFFBBF013
:10BEF000000EDD226000EBF2D9FF6000EFF2DAFF06
:10BF00006F0078FFC8F06F0078FFC9F06F0078FF0E
:10BF1000CAF06F0078FFCBF0020E6000DBF2D9FFB1
:10BF20006000DFF2DAFFDE26000EDD22B4C070F022
:10BF3000B5C071F0C8C072F0C9C073F0CAC074F067
:10BF4000CBC075F0CFC076F0EBEC63F070C0B4F00E
:10BF500071C0B5F072EF60F06000DBF2D9FF6000F5
:10BF6000DFF2DAFF6F007BFFF6FF6F0077FFF7FF6E
:10BF7000F86A0800F550750AD8A4C1EF5FF0C3EF66
:10BF80005FF00FEF60F06000DBF2D9FF6000DFF2DE
:10BF9000DAFFDE2A000EDD226000E3F2D9FF600046
:10BFA000E7F2DAFF6F007CFFBAF0020EDE266F00C8
:10BFB0007CFFBBF0000EDD226000EBF2D9FF6000D9
:10BFC000EFF2DAFF6F0078FFBCF06F0074FFBDF096
:10BFD000BCC0BEF0BDC0BFF00001C06BC16BC26B86
:10BFE000C36BC46BC56BB4C01EF0B5C01FF0BEC040
:10BFF00020F0BFC021F0C0C022F0C1C023F0C2C0F9
:10C0000024F0C3C025F0C4C026F0C5C027F0D5EC8D
:10C0100051F01EC0B4F01FC0B5F072EF60F06000C8
:10C02000DBF2D9FF6000DFF2DAFF6F007BFFF6FF83
:10C030006F0077FFF7FFF86A0800F550250AD8A4CB
:10C0400024EF60F026EF60F040EF60F06000DBF27C
:10C05000D9FF6000DFF2DAFFDE2A000EDD22000EDB
:10C06000046E250E036EB4C005F0B5C006F09DEC5D
:10C070004BF0000E0001B56F010EB46F72EF60F06F
:10C080006000DBF2D9FF6000DFF2DAFFDE2A000E8B
:10C09000DD22000E0001B56F000EB46F72EF60F08C
:10C0A0006000DBF2D9FF6000DFF2DAFF6F007BFF98
:10C0B000F6FF6F0077FFF7FFF86A0800F550036E90
:10C0C000046AB4C005F0B5C006F09DEC4BF060000A
:10C0D000DBF2D9FF6000DFF2DAFFDE2A000EDD229C
:10C0E00039EF60F012003FEC49F05BEC4BF0000ED2
:10C0F0000101E36F000EE26FB10ED96FE00ED86F51
:10C10000B950F00B0209B96EF00EB816B9500F0B0A
:10C110000001E46FE4510101E46FE56BB8500F0BCF
:10C120000001E46FE4510101CC6FCD6BE4C101F07B
:10C13000E5C102F0036A046A000EFBEC50F001C096
:10C14000DEF102C0DFF103C0E0F104C0E1F1000E56
:10C15000236E000E246E800E256E470E266E000E96
:10C16000136E000E146E800E156E3F0E166ECCC14F
:10C1700001F0CDC102F0036A046A000EFBEC50F03E
:10C1800001C00FF002C010F003C011F004C012F0A3
:10C19000F0EC58F00FC01FF010C020F011C021F0DB
:10C1A00012C022F0C9EC56F01FC0C0F120C0C1F18E
:10C1B00021C0C2F122C0C3F1DEC18CF0DFC18DF01D
:10C1C000E0C18EF0E1C18FF0000E0001886F000E1B
:10C1D000896F000E8A6F400E8B6F40EC6AF088C04A
:10C1E000C4F189C0C5F18AC0C6F18BC0C7F1C4C112
:10C1F00023F0C5C124F0C6C125F0C7C126F0E00E6A
:10C20000016EB10E026E000E036E000E046E000E83
:10C21000FBEC50F001C03CF002C03DF003C03EF02A
:10C2200004C03FF0C0C138F0C1C139F0C2C13AF01A
:10C23000C3C13BF033EC4AF038C01FF039C020F0E6
:10C240003AC021F03BC022F0C9EC56F01FC0C8F143
:10C2500020C0C9F121C0CAF122C0CBF1000E236E6B
:10C26000000E246E800E256E400E266EC8C11FF093
:10C27000C9C120F0CAC121F0CBC122F0C9EC56F0EF
:10C280001FC040F020C041F021C042F022C043F066
:10C29000000E446E240E456EF40E466E4A0E476E36
:10C2A000FCEC54F040C0DAF141C0DBF142C0DCF1FB
:10C2B00043C0DDF1BF0E0001D66FFF0ED76FDAC1AC
:10C2C000D8F0DBC1D9F0DCC1DAF0DDC1DBF014EC71
:10C2D00049F05F0E0001D66FFF0ED76F000ED96FC9
:10C2E0007D0ED86F6F00ACFEDAF0DB6B14EC49F01A
:10C2F0008F0E0001D66FFF0ED76F000ED96F7D0E27
:10C30000D86F6F007CFEDAF0DB6B14EC49F0CDB235
:10C310008CEF61F091EF61F00001E46BE42B93EF9F
:10C3200061F00001E46BE451016E026A1DEC4BF018
:10C3300001C0CEF102C0CFF1000E026E0A0E016EF6
:10C3400028EC49F00101CE05CF11D8A4AAEF61F085
:10C35000ACEF61F058EF62F0000E026E0A0E016E53
:10C3600028EC49F00101E24BE32BE35109E10A0E0D
:10C37000E25DD8A0BEEF61F0C0EF61F0C4EF61F004
:10C38000000EE36F000EE26FD10E0001D66FFF0EBC
:10C39000D76FE2C1D8F0E3C1D9F014EC49F058EFFF
:10C3A00062F0030E026EE80E016E6EEC49F0030EB1
:10C3B000026E016888EC49F08BEF62F0000E026EAD
:10C3C000640E016E6EEC49F0030E026E016888EC9B
:10C3D00049F08BEF62F0030E026EE80E016E6EEC18
:10C3E00049F0030E026E016888EC49F03901A39F01
:10C3F000D8C101F0D9C102F074EC48F03901A3AF03
:10C4000004EF62F006EF62F0FEEF61F0000E026EE4
:10C41000000E016E6EEC49F0030E026E016888ECAE
:10C4200049F03901A39FD8C101F0D9C102F074ECE1
:10C4300048F03901A3AF1FEF62F021EF62F019EF6E
:10C4400062F08BEF62F0010E026E2C0E016E6EEC4C
:10C4500049F0030E026E840E016E88EC49F08BEFFA
:10C4600062F0010E026E370E016E6EEC49F0030EA3
:10C47000026E016888EC49F08BEF62F0000E026EEC
:10C48000F90E016E6EEC49F0030E026E016888EC45
:10C4900049F08BEF62F0000E026E000E016E6EEC42
:10C4A00049F0030E026E016888EC49F08BEF62F0F0
:10C4B000E2C1E4F0E3C1E5F00001E551000AD8B4BF
:10C4C00064EF62F08BEF62F0E451010AD8B4D1EF6F
:10C4D00061F0030AD8B4DEEF61F0010AD8B4EBEFE3
:10C4E00061F0070AD8B423EF62F0010AD8B431EF43
:10C4F00062F0030AD8B431EF62F0010AD8B43EEF1B
:10C5000062F00F0AD8B431EF62F0010AD8B44BEFF1
:10C5100062F08BEF62F0AC38070B0001E46FE4517E
:10C520000101E46FE56BE4C101F0E5C102F0036ACB
:10C53000046A000EFBEC50F001C0DEF102C0DFF136
:10C5400003C0E0F104C0E1F1DEC18CF0DFC18DF089
:10C55000E0C18EF0E1C18FF0000E0001886F000E87
:10C56000896F000E8A6F400E8B6F40EC6AF088C0B6
:10C57000D0F189C0D1F18AC0D2F18BC0D3F1D0C142
:10C5800023F0D1C124F0D2C125F0D3C126F0000E92
:10C59000136E000E146E800E156E3F0E166EAB50AD
:10C5A000016E026A036A046A000EFBEC50F001C0DF
:10C5B0000FF002C010F003C011F004C012F0F0EC54
:10C5C00058F00FC01FF010C020F011C021F012C0B1
:10C5D00022F0C9EC56F01FC0D4F120C0D5F121C023
:10C5E000D6F122C0D7F1000E236E000E246E800E0D
:10C5F000256E400E266ED4C11FF0D5C120F0D6C1E5
:10C6000021F0D7C122F0C9EC56F01FC040F020C085
:10C6100041F021C042F022C043F0000E446E240ECF
:10C62000456EF40E466E4A0E476EFCEC54F040C068
:10C63000DAF141C0DBF142C0DCF143C0DDF1000EB4
:10C64000406E000E416E800E426E3F0E436EDAC1A8
:10C6500044F0DBC145F0DCC146F0DDC147F0FCEC45
:10C6600054F040C0BCF141C0BDF142C0BEF143C076
:10C67000BFF1A038070B0001E46FE4510101E46F42
:10C68000E56BE4C101F0E5C102F0036A046A000E43
:10C69000FBEC50F001C0DEF102C0DFF103C0E0F1BD
:10C6A00004C0E1F1DEC18CF0DFC18DF0E0C18EF09D
:10C6B000E1C18FF0000E0001886F000E896F000E3F
:10C6C0008A6F400E8B6F40EC6AF088C0D0F189C051
:10C6D000D1F18AC0D2F18BC0D3F1D0C123F0D1C146
:10C6E00024F0D2C125F0D3C126F0000E136E000E47
:10C6F000146E800E156E3F0E166E9F50016E026A0C
:10C70000036A046A000EFBEC50F001C00FF002C097
:10C7100010F003C011F004C012F0F0EC58F00FC09C
:10C720001FF010C020F011C021F012C022F0C9EC9F
:10C7300056F01FC0D4F120C0D5F121C0D6F122C0DF
:10C74000D7F1000E236E000E246E800E256E400E73
:10C75000266ED4C11FF0D5C120F0D6C121F0D7C1BB
:10C7600022F0C9EC56F01FC040F020C041F021C0BB
:10C7700042F022C043F0000E446E240E456EF40ECB
:10C78000466E4A0E476EFCEC54F040C0DAF141C0F0
:10C79000DBF142C0DCF143C0DDF1000E406E000E63
:10C7A000416E800E426E3F0E436EDAC144F0DBC133
:10C7B00045F0DCC146F0DDC147F0FCEC54F040C070
:10C7C000BCF141C0BDF142C0BEF143C0BFF187EF33
:10C7D00061F0FEEF7FF0000E0001976F000E966F84
:10C7E00072C0A8F073C0A9F074C0AAF075C0ABF015
:10C7F000ABBFFFEF63F0FDEF63F015EF64F0000EE9
:10C80000976F010E966FA8C001F0A9C002F0AAC0F0
:10C8100003F0ABC004F0BCEC49F001C0A8F002C0CA
:10C82000A9F003C0AAF004C0ABF0000E0001AF6F86
:10C83000000EAE6FF6C09AF0F7C09BF096519711BC
:10C84000D8A425EF64F027EF64F02EEF64F0FAA58A
:10C850002CEF64F02EEF64F048EF64F096519711DE
:10C86000D8A435EF64F037EF64F03DEF64F0000ECC
:10C870007D6F2B0E7C6F41EF64F0000E7D6F2D0EEF
:10C880007C6F7CC000F2AE4BAF2B9A07D8A09B0701
:10C89000A8C001F0A9C002F0AAC003F0ABC004F028
:10C8A00077EC4FF001040210D8A459EF64F05BEF6D
:10C8B00064F0B2EF64F0BF0E0001776FFF0E786F87
:10C8C0007651796F7A6B7751792778517A237A513B
:10C8D0000AE11A0E795DD8A070EF64F073EF64F08E
:10C8E000010E74EF64F0000E7E6F7F6B7E517F113E
:10C8F000D8B47DEF64F07FEF64F08DEF64F0000E4C
:10C90000AE25016E020EAF21026EE80E036EFF0E21
:10C91000046EE8EC4AF099EF64F0000EAE25016E6B
:10C92000020EAF21026EF00E036EFF0E046EE8ECF5
:10C930004AF00001FD0E9A27FF0E9B2370C013F0F2
:10C9400071C014F0000E156E020E166E9AC017F02C
:10C950009BC018F04EEC4DF013C070F014C071F095
:10C960003FEF6AF0A8C001F0A9C002F0AAC003F02E
:10C97000ABC004F077EC4FF001500210D8A4C3EF25
:10C9800064F0C5EF64F01CEF65F0BF0E0001776F37
:10C99000FF0E786F7651796F7A6B775179277851DE
:10C9A0007A237A510AE11A0E795DD8A0DAEF64F0A1
:10C9B000DDEF64F0010EDEEF64F0000E806F816B3E
:10C9C00080518111D8B4E7EF64F0E9EF64F0F7EF3C
:10C9D00064F0000EAE25016E020EAF21026EEC0E69
:10C9E000036EFF0E046EE8EC4AF003EF65F0000EF4
:10C9F000AE25016E020EAF21026EF40E036EFF0E25
:10CA0000046EE8EC4AF00001FD0E9A27FF0E9B230E
:10CA100070C013F071C014F0000E156E020E166E89
:10CA20009AC017F09BC018F04EEC4DF013C070F098
:10CA300014C071F03FEF6AF0000E0001B06F000EFD
:10CA4000B16F800EB26F3F0EB36F000EAD6F000E70
:10CA5000AC6FA8C001F0A9C002F0AAC003F0ABC03F
:10CA600004F0000E056E000E066E000E076E000E3E
:10CA7000086EE8EC4BF0D8B040EF65F042EF65F09F
:10CA8000C5EF65F061EF65F0B0C01FF0B1C020F0F8
:10CA9000B2C021F0B3C022F0000E236E000E246E4F
:10CAA000200E256E410E266EC9EC56F01FC0B0F068
:10CAB00020C0B1F021C0B2F022C0B3F00001AC4BF5
:10CAC000AD2BA8C040F0A9C041F0AAC042F0ABC055
:10CAD00043F0000E236E000E246E200E256E410ED4
:10CAE000266EB0C01FF0B1C020F0B2C021F0B3C0BC
:10CAF00022F0C9EC56F01FC044F020C045F021C020
:10CB000046F022C047F0F6EC4FF0D8B08AEF65F05F
:10CB10008CEF65F044EF65F0ACEF65F0B0C040F02D
:10CB2000B1C041F0B2C042F0B3C043F0000E446E59
:10CB3000000E456E200E466E410E476EFCEC54F022
:10CB400040C0B0F041C0B1F042C0B2F043C0B3F059
:10CB50000001AC07D8A0AD07A8C040F0A9C041F0C3
:10CB6000AAC042F0ABC043F0B0C044F0B1C045F041
:10CB7000B2C046F0B3C047F0F6EC4FF0D8A0C3EF18
:10CB800065F0C5EF65F08EEF65F076C007F0086AD6
:10CB900084EC4AF0075000019D6F9DC09CF0670E29
:10CBA0009D19D8A4D6EF65F0D8EF65F0FEEF65F0DB
:10CBB000F851F911D8A4DFEF65F0E1EF65F0E5EF8A
:10CBC00065F0000EF96F010EF86FF9BFF2EF65F036
:10CBD000F95106E1F805D8B0F0EF65F0F2EF65F035
:10CBE000F8EF65F0000E996F060E986F07EF66F08C
:10CBF000F8C098F0F9C099F007EF66F0F9BF03EFBD
:10CC000066F005EF66F0F2EF65F0F8EF65F0670E9D
:10CC10009D19D8A40EEF66F010EF66F03FEF66F0B6
:10CC2000ADAF1EEF66F0FC0EAC5DFF0EAD59D8A0A7
:10CC30001CEF66F01EEF66F03DEF66F0FF0E776FBB
:10CC4000FF0E786F98C079F099C07AF07751792704
:10CC500078517A23AC51795D7A51800A7B6FAD515E
:10CC6000800A7B59D8A037EF66F039EF66F03DEFC8
:10CC700066F0660E9C6F3FEF66F0650E9C6F98C085
:10CC80008EF099C08FF0670E9D19D8A44AEF66F018
:10CC90004CEF66F05CEF66F0660E9C19D8A453EF7B
:10CCA00066F055EF66F05EEF66F0ADBF5CEF66F0E4
:10CCB0005AEF66F05EEF66F08E4B8F2B660E9C1976
:10CCC000D8A465EF66F067EF66F087EF66F0ADBF5A
:10CCD0006EEF66F06CEF66F07AEF66F0000EB06F04
:10CCE000000EB16F800EB26F3F0EB36F000EAD6FCE
:10CCF000000EAC6F670E9D19D8B481EF66F083EF1C
:10CD000066F087EF66F0AC518E27AD518F23000E91
:10CD1000A76F000EA66FA8C09EF0A9C09FF0AAC082
:10CD2000A0F0ABC0A1F0B0C090F0B1C091F0B2C023
:10CD300092F0B3C093F018EF67F09EC040F09FC030
:10CD400041F0A0C042F0A1C043F0B0C044F0B1C077
:10CD500045F0B2C046F0B3C047F0FCEC54F040C020
:10CD600059F041C05AF042C05BF043C05CF0D7ECD0
:10CD700052F059C0A2F05AC0A3F05BC0A4F05CC04E
:10CD8000A5F0A2C001F0A3C002F0A4C003F0A5C0AA
:10CD900004F078EC50F001C094F002C095F09EC011
:10CDA00038F09FC039F0A0C03AF0A1C03BF0B0C04D
:10CDB00023F0B1C024F0B2C025F0B3C026F0A2C069
:10CDC0001FF0A3C020F0A4C021F0A5C022F0C9EC40
:10CDD00056F01FC03CF020C03DF021C03EF022C004
:10CDE0003FF033EC4AF038C09EF039C09FF03AC0B3
:10CDF000A0F03BC0A1F0B0C040F0B1C041F0B2C063
:10CE000042F0B3C043F0000E446E000E456E200E9B
:10CE1000466E410E476EFCEC54F040C0B0F041C08D
:10CE2000B1F042C0B2F043C0B3F00001A64BA72B53
:10CE30008E51A65DA751800A776F8F51800A77596E
:10CE4000D8A025EF67F027EF67F09DEF66F0B0C040
:10CE50001FF0B1C020F0B2C021F0B3C022F0000E2C
:10CE6000236E000E246EA00E256E400E266EC9ECB9
:10CE700056F01FC0A2F020C0A3F021C0A4F022C031
:10CE8000A5F09EC040F09FC041F0A0C042F0A1C0FC
:10CE900043F0A2C044F0A3C045F0A4C046F0A5C032
:10CEA00047F0F6EC4FF0D8B058EF67F05AEF67F064
:10CEB00065EF67F0000E0001A26F000EA36F000E79
:10CEC000A46F000EA56F8EEF67F09EC001F09FC0AB
:10CED00002F0A0C003F0A1C004F0A2C005F0A3C0FE
:10CEE00006F0A4C007F0A5C008F0E8EC4BF0D8A00D
:10CEF0007CEF67F07EEF67F08EEF67F0000194B192
:10CF000084EF67F086EF67F08EEF67F0000EA26F98
:10CF1000000EA36F000EA46F000EA56FA8C00FF047
:10CF2000A9C010F0AAC011F0ABC012F0A2C013F05B
:10CF3000A3C014F0A4C015F0A5C016F0F0EC58F092
:10CF40000FC09EF010C09FF011C0A0F012C0A1F061
:10CF50009EC040F09FC041F0A0C042F0A1C043F08D
:10CF6000000E236E000E246E200E256E410E266EDE
:10CF700090C01FF091C020F092C021F093C022F029
:10CF8000C9EC56F01FC044F020C045F021C046F067
:10CF900022C047F0F6EC4FF0D8A0D1EF67F0D3EF06
:10CFA00067F0FCEF67F00001AC4BAD2B90C01FF0B9
:10CFB00091C020F092C021F093C022F0000E236EA9
:10CFC000000E246E200E256E410E266EC9EC56F022
:10CFD0001FC090F020C091F021C092F022C093F0C9
:10CFE000660E00019C19D8A4F8EF67F0FAEF67F01D
:10CFF000FCEF67F08E4B8F2B90C0B0F091C0B1F07A
:10D0000092C0B2F093C0B3F0650E00019C19D8B481
:10D010000CEF68F00EEF68F014EF68F0ACC08CF025
:10D02000ADC08DF018EF68F0000E8D6F000E8C6FA4
:10D03000000E8B6F000E8A6F000E896F000E886FD6
:10D04000000EA76F000EA66F13EF69F09EC040F0B0
:10D050009FC041F0A0C042F0A1C043F0B0C044F076
:10D06000B1C045F0B2C046F0B3C047F0FCEC54F09C
:10D0700040C059F041C05AF042C05BF043C05CF080
:10D08000D7EC52F059C0A2F05AC0A3F05BC0A4F094
:10D090005CC0A5F0A2C001F0A3C002F0A4C003F0E0
:10D0A000A5C004F078EC50F001C094F002C095F0F7
:10D0B0000001FAB95EEF68F060EF68F07DEF68F0AC
:10D0C00094519511D8A467EF68F069EF68F07DEF8F
:10D0D00068F0670E9D19D8A470EF68F072EF68F0E1
:10D0E0007DEF68F08DBF79EF68F077EF68F07DEF46
:10D0F00068F0884B892BC7EF68F08A518B11D8A450
:10D1000084EF68F086EF68F0B0EF68F08DBF8DEFC8
:10D1100068F08BEF68F0B0EF68F0000EAE25D96EC6
:10D12000020EAF21DA6E2E0EDF6EAE4BAF2B9A07DA
:10D13000D8A09B07000E8B6F010E8A6FB0EF68F0CE
:10D14000000EAE25D96E020EAF21DA6E300EDF6E04
:10D15000AE4BAF2B9A07D8A09B078807D8A08907AA
:10D1600088518911D8A4B7EF68F0B9EF68F0A0EF43
:10D1700068F0000EAE25D96E020EAF21DA6E945122
:10D18000300FDF6EAE4BAF2B9A07D8A09B079EC027
:10D1900038F09FC039F0A0C03AF0A1C03BF0B0C059
:10D1A00023F0B1C024F0B2C025F0B3C026F0A2C075
:10D1B0001FF0A3C020F0A4C021F0A5C022F0C9EC4C
:10D1C00056F01FC03CF020C03DF021C03EF022C010
:10D1D0003FF033EC4AF038C09EF039C09FF03AC0BF
:10D1E000A0F03BC0A1F0B0C040F0B1C041F0B2C06F
:10D1F00042F0B3C043F0000E446E000E456E200EA8
:10D20000466E410E476EFCEC54F040C0B0F041C099
:10D21000B1F042C0B2F043C0B3F000018C07D8A017
:10D220008D07A64BA72B8E51A65DA751800A776F5D
:10D230008F51800A7759D8B020EF69F022EF69F05A
:10D2400030EF69F0AFBF2EEF69F0AF5109E14B0E3F
:10D25000AE5DD8A02EEF69F030EF69F026EF68F0F0
:10D260008A518B11D8A437EF69F039EF69F04AEF92
:10D2700069F0FAA93EEF69F040EF69F04AEF69F012
:10D28000000EAE25D96E020EAF21DA6E2E0EDF6EC5
:10D29000AE4BAF2B000EAE25D96E020EAF21DA6E6B
:10D2A000000EDF6E650E9C19D8A459EF69F05BEF94
:10D2B00069F02DEF6AF0000EA76F4F0EA66F000EFB
:10D2C000A625D96E020EA721DA6E000EDF6E000EC3
:10D2D000976F000E966FADBF72EF69F070EF69F057
:10D2E0007AEF69F0000E976F010E966FAC6DAD1F6F
:10D2F000D8B0AD2B000E996F020E986FABEF69F0AE
:10D30000A607D8A0A707000EA625D96E020EA72152
:10D31000DA6EACC001F0ADC002F0000E046E0A0E71
:10D32000036E94EC4CF00150300FDF6EACC001F096
:10D33000ADC002F0000E046E0A0E036EECEC4CF071
:10D3400001C0ACF002C0ADF000019807D8A0990769
:10D350009A07D8A09B07AC51AD11D8A4B2EF69F0E1
:10D36000B4EF69F080EF69F099BFC1EF69F09951AE
:10D3700006E19805D8B0BFEF69F0C1EF69F080EF22
:10D3800069F0A607D8A0A70796519711D8A4CBEFAC
:10D3900069F0CDEF69F0D3EF69F0000E836F2B0ECB
:10D3A000826FD7EF69F0000E836F2D0E826F000E33
:10D3B000A625D96E020EA721DA6E60000BF2DFFF00
:10D3C0009A07D8A09B07A607D8A0A707BF0E776F1C
:10D3D000FF0E786F7651796F7A6B77517927785194
:10D3E0007A237A510AE11A0E795DD8A0FAEF69F032
:10D3F000FDEF69F0010EFEEF69F0000E866F876B9E
:10D4000086518711D8A407EF6AF009EF6AF00FEF91
:10D410006AF0000E856F650E846F13EF6AF0000EE0
:10D42000856F450E846F000EA625D96E020EA721CA
:10D43000DA6E600013F2DFFF9A07D8A09B07000E98
:10D44000AE25016E020EAF21026E000EA625036E00
:10D45000020EA721046EE8EC4AF070C013F071C010
:10D4600014F0000E156E020E166E9AC017F09BC0D7
:10D4700018F04EEC4DF013C070F014C071F01200B3
:10D4800088C0B8F189C0B9F18AC0BAF18BC0BBF1CC
:10D49000B8C160F1B9C161F1BAC162F1BBC163F158
:10D4A0008CC0B8F18DC0B9F18EC0BAF18FC0BBF19C
:10D4B000B8C184F1B9C185F1BAC186F1BBC187F1A8
:10D4C000FF0E01016015A86FFF0E6115A96FFF0E19
:10D4D0006215AA6F7F0E6315AB6FFF0E8415986FF0
:10D4E000FF0E8515996FFF0E86159A6F7F0E8715B3
:10D4F0009B6F985199119A119B11D8A482EF6AF0F1
:10D5000084EF6AF08FEF6AF0000E0001886F000E62
:10D51000896F800E8A6F3F0E8B6F70EF7FF0800EE9
:10D52000621909E13F0E631960116111D8A49BEFE4
:10D530006AF09DEF6AF0A8EF6AF0000E0001886FB4
:10D54000000E896F800E8A6F3F0E8B6F70EF7FF039
:10D55000ABBFB9EF6AF0A805000EA959800EAA5911
:10D560007F0EAB59D8B0B7EF6AF0B9EF6AF0CAEFE7
:10D570006AF09BBFC8EF6AF09805000E9959800EBB
:10D580009A597F0E9B59D8A0C8EF6AF0CAEF6AF08B
:10D59000E6EF6AF088C00FF089C010F08AC011F081
:10D5A0008BC012F08CC013F08DC014F08EC015F03B
:10D5B0008FC016F0F0EC58F00FC088F010C089F062
:10D5C00011C08AF012C08BF070EF7FF0000E506F28
:10D5D000000E516F000E526F000E536F63BFF5EFD8
:10D5E0006AF0F3EF6AF0C1EF6BF09BBF01EF6BF0F5
:10D5F000800E9A5D4B0E9B59D8A001EF6BF003EFA4
:10D600006BF00DEF6BF0020E506F000E516F000EBD
:10D61000526F000E536FC1EF6BF09BBF19EF6BF0B1
:10D62000800E9A5D3F0E9B59D8A019EF6BF01BEF4F
:10D630006BF0C1EF6BF0170E0001906F98C191F085
:10D6400099C192F09AC193F09BC194F090672BEF2F
:10D650006BF033EF6BF09435943393339233913313
:10D66000902F26EF6BF0810E000191250101A06F34
:10D67000FF0E000192210101A16FFF0E0001932115
:10D680000101A26FFF0E000194210101A36FA051BF
:10D6900017080001906F98C191F099C192F09AC15A
:10D6A00093F09BC194F0906758EF6BF060EF6BF0D4
:10D6B00094359433933392339133902F53EF6BF02F
:10D6C00091C0ACF192C0ADF193C0AEF194C0AFF196
:10D6D0000101A05117080001906FACC191F0ADC1DC
:10D6E00092F0AEC193F0AFC194F0902B7DEF6BF050
:10D6F000D8909137923793379437902F78EF6BF01B
:10D70000010198510001911913E1010199510001A2
:10D7100092190EE101019A510001931909E10101E9
:10D720009B5100019419D8A498EF6BF09AEF6BF01D
:10D73000C1EF6BF0010E0101AC150001906F000EFE
:10D740000101AD150001916F000E0101AE15000140
:10D75000926F000E0101AF150001936F9051020806
:10D760000101506F000E000191550101516F000E33
:10D77000000192550101526F000E00019355010105
:10D78000536F800E01019A1909E17F0E9B199811C0
:10D790009911D8A4CEEF6BF0D0EF6BF03CEF6CF0AA
:10D7A000800EAA1909E13F0EAB19A811A911D8A43E
:10D7B000DCEF6BF0DEEF6BF0E9EF6BF0000E0001D9
:10D7C000886F000E896F800E8A6F3F0E8B6F70EF2F
:10D7D0007FF0ABBFF8EF6BF0A805000EA959800EE3
:10D7E000AA593F0EAB59D8A0F8EF6BF0FAEF6BF0E7
:10D7F00016EF6CF087BF01EF6CF0FFEF6BF00CEFF2
:10D800006CF0000E0001886F000E896F000E8A6FA9
:10D81000000E8B6F70EF7FF08CC088F08DC089F0A8
:10D820008EC08AF08FC08BF070EF7FF087BF1DEF46
:10D830006CF01BEF6CF031EF6CF08CC001F08DC020
:10D8400002F08EC003F08FC004F0BCEC49F001C0C0
:10D8500088F002C089F003C08AF004C08BF070EF3A
:10D860007FF0000E0001886F000E896F000E8A6F36
:10D87000000E8B6F70EF7FF0800E9A1909E13F0E5A
:10D880009B1998119911D8A448EF6CF04AEF6CF0ED
:10D8900077EF6CF087BF51EF6CF04FEF6CF06DEFEE
:10D8A0006CF0000E406E000E416E800E426E3F0E18
:10D8B000436E88C044F089C045F08AC046F08BC0F2
:10D8C00047F0FCEC54F040C088F041C089F042C001
:10D8D0008AF043C08BF070EF7FF088C088F089C079
:10D8E00089F08AC08AF08BC08BF070EF7FF0400E19
:10D8F0008719841185118611D8A481EF6CF083EF0C
:10D900006CF09FEF6CF088C01FF089C020F08AC0D7
:10D9100021F08BC022F088C023F089C024F08AC097
:10D9200025F08BC026F0C9EC56F01FC088F020C04F
:10D9300089F021C08AF022C08BF070EF7FF03F0E9B
:10D940008719841185118611D8A4A9EF6CF0ABEF6B
:10D950006CF0C6EF6CF063BFB0EF6CF0B2EF6CF040
:10D96000C6EF6CF088C04CF089C04DF08AC04EF014
:10D970008BC04FF050EC5BF04CC088F04DC089F08C
:10D980004EC08AF04FC08BF070EF7FF088C001F07E
:10D9900089C002F08AC003F08BC004F0A2EC49F009
:10D9A00001C070F102C071F103C072F104C073F1E3
:10D9B000800E0101AA190BE17F0EAB19A811A91164
:10D9C000D8B4E5EF6CF0E7EF6CF000EF6DF0A85124
:10D9D000A911AA11AB11D8B4F0EF6CF0F2EF6CF012
:10D9E00000EF6DF0800EAA1909E13F0EAB19A811E6
:10D9F000A911D8A4FEEF6CF000EF6DF0CBEF6DF045
:10DA000070C1B4F171C1B5F172C1B6F173C1B7F1B2
:10DA100087BF0FEF6DF00DEF6DF029EF6DF0000E89
:10DA2000406E000E416E800E426E3F0E436EB4C1DA
:10DA300044F0B5C145F0B6C146F0B7C147F0FCECC3
:10DA400054F040C0B4F141C0B5F142C0B6F143C09A
:10DA5000B7F1010163BF31EF6DF02FEF6DF0C1EF52
:10DA60006DF0000EA8250001906F000E0101A921A4
:10DA70000001916F800E0101AA210001926FC00E7A
:10DA80000101AB210001936F010150510001901180
:10DA9000946F0101515100019111956F0101525193
:10DAA00000019211966F0101535100019311976F7C
:10DAB0009451951196119711D8A461EF6DF063EF11
:10DAC0006DF0A3EF6DF0B4C13CF0B5C13DF0B6C14F
:10DAD0003EF0B7C13FF0B4C138F0B5C139F0B6C1BE
:10DAE0003AF0B7C13BF033EC4AF038C040F039C0EF
:10DAF00041F03AC042F03BC043F0B4C13CF0B5C184
:10DB00003DF0B6C13EF0B7C13FF0B4C138F0B5C189
:10DB100039F0B6C13AF0B7C13BF033EC4AF038C047
:10DB200044F039C045F03AC046F03BC047F0FCEC49
:10DB300054F040C0B4F141C0B5F142C0B6F143C0A9
:10DB4000B7F1C1EF6DF001015005511152115311A0
:10DB5000D8A4ADEF6DF0AFEF6DF0C1EF6DF0B4C1D3
:10DB600001F0B5C102F0B6C103F0B7C104F0BCECDE
:10DB700049F001C0B4F102C0B5F103C0B6F104C070
:10DB8000B7F1B4C188F0B5C189F0B6C18AF0B7C1A8
:10DB90008BF070EF7FF0000E886F000E896F800EA3
:10DBA0008A6F3F0E8B6F63BFDAEF6DF0D8EF6DF0C9
:10DBB00038EF6EF05051511152115311D8A4E3EFC8
:10DBC0006DF0E5EF6DF025EF6EF088C03CF089C098
:10DBD0003DF08AC03EF08BC03FF088C038F089C06D
:10DBE00039F08AC03AF08BC03BF033EC4AF038C0D1
:10DBF00040F039C041F03AC042F03BC043F088C029
:10DC00003CF089C03DF08AC03EF08BC03FF088C038
:10DC100038F089C039F08AC03AF08BC03BF033EC61
:10DC20004AF038C044F039C045F03AC046F03BC035
:10DC300047F0FCEC54F040C088F041C089F042C08D
:10DC40008AF043C08BF070EF7FF0500551115211F4
:10DC50005311D8A42EEF6EF030EF6EF038EF6EF067
:10DC6000000E886F000E896F800E8A6FBF0E8B6F5B
:10DC70009BBF47EF6EF09805000E9959000E9A5918
:10DC80004D0E9B59D8A047EF6EF049EF6EF0CEEFE6
:10DC900070F0ABBF5BEF6EF0F80EA85DFF0EA959F8
:10DCA0007F0EAA593F0EAB59D8B059EF6EF05BEF1B
:10DCB0006EF0CEEF6EF087BF60EF6EF062EF6EF049
:10DCC00098EF6EF0600E236E420E246EA20E256E4B
:10DCD0000D0E266E88C11FF089C120F08AC121F087
:10DCE0008BC122F0C9EC56F01FC0A4F120C0A5F1F1
:10DCF00021C0A6F122C0A7F1A4C11FF0A5C120F048
:10DD0000A6C121F0A7C122F0600E236E420E246E40
:10DD1000A20E256E0D0E266EC9EC56F01FC088F0BF
:10DD200020C089F021C08AF022C08BF070EF7FF014
:10DD3000CA0E236EF20E246E490E256E710E266EEB
:10DD400088C11FF089C120F08AC121F08BC122F067
:10DD5000C9EC56F01FC0A4F120C0A5F121C0A6F166
:10DD600022C0A7F1A4C11FF0A5C120F0A6C121F0D7
:10DD7000A7C122F0CA0E236EF20E246E490E256E44
:10DD8000710E266EC9EC56F01FC088F020C089F0D5
:10DD900021C08AF022C08BF070EF7FF0ABBFDEEFC6
:10DDA0006EF0080EA85D000EA959800EAA593F0E0C
:10DDB000AB59D8A0DEEF6EF0E0EF6EF05BEF6FF0E6
:10DDC00087BFEFEF6EF087518611851106E184055C
:10DDD000D8B0EDEF6EF0EFEF6EF025EF6FF0600E64
:10DDE000236E420E246EA20E256E0D0E266E88C185
:10DDF0001FF089C120F08AC121F08BC122F0C9EC4B
:10DE000056F01FC0A4F120C0A5F121C0A6F122C088
:10DE1000A7F1A4C11FF0A5C120F0A6C121F0A7C1A0
:10DE200022F0600E236E420E246EA20E256E0D0EA1
:10DE3000266EC9EC56F01FC088F020C089F021C0C2
:10DE40008AF022C08BF070EF7FF0CA0E236EF20EC4
:10DE5000246E490E256E710E266E88C11FF089C191
:10DE600020F08AC121F08BC122F0C9EC56F01FC00E
:10DE7000A4F120C0A5F121C0A6F122C0A7F1A4C140
:10DE80001FF0A5C120F0A6C121F0A7C122F0CA0E43
:10DE9000236EF20E246E490E256E710E266EC9ECAD
:10DEA00056F01FC088F020C089F021C08AF022C03F
:10DEB0008BF070EF7FF070C10FF071C110F072C184
:10DEC00011F073C112F0000E136E000E146E800E6E
:10DED000156EBF0E166EF0EC58F00FC0B0F110C00A
:10DEE000B1F111C0B2F112C0B3F1000E236E000EF9
:10DEF000246E800E256E3E0E266EB0C11FF0B1C19D
:10DF000020F0B2C121F0B3C122F0C9EC56F01FC01D
:10DF10003CF020C03DF021C03EF022C03FF0AB0EEF
:10DF2000386EAA0E396EAA0E3A6E3E0E3B6E33EC78
:10DF30004AF038C0A4F139C0A5F13AC0A6F13BC0FF
:10DF4000A7F1B0C123F0B1C124F0B2C125F0B3C133
:10DF500026F0B0C11FF0B1C120F0B2C121F0B3C1B1
:10DF600022F0C9EC56F01FC054F120C055F121C079
:10DF700056F122C057F1B0C123F0B1C124F0B2C1B3
:10DF800025F0B3C126F0A4C11FF0A5C120F0A6C1A1
:10DF900021F0A7C122F0C9EC56F01FC03CF020C010
:10DFA0003DF021C03EF022C03FF0000E386E000E62
:10DFB000396E000E3A6E3F0E3B6E33EC4AF038C0BD
:10DFC00048F139C049F13AC04AF13BC04BF154C164
:10DFD0001FF055C120F056C121F057C122F048C1B1
:10DFE00023F049C124F04AC125F04BC126F0C9EC09
:10DFF00056F01FC044F120C045F121C046F122C0B7
:10E0000047F1B0C11FF0B1C120F0B2C121F0B3C1DE
:10E0100022F0000E236EAA0E246EB80E256E3F0E5F
:10E02000266EC9EC56F01FC074F120C075F121C0F6
:10E0300076F122C077F1700E236EA50E246EEC0EE1
:10E04000256E360E266EB0C11FF0B1C120F0B2C1F0
:10E0500021F0B3C122F0C9EC56F01FC038F020C047
:10E0600039F021C03AF022C03BF03B0E236EAA0EDD
:10E07000246EB80E256E3F0E266E44C11FF045C1BA
:10E0800020F046C121F047C122F0C9EC56F01FC074
:10E090003CF020C03DF021C03EF022C03FF033EC08
:10E0A0004AF038C078F139C079F13AC07AF13BC012
:10E0B0007BF174C10FF075C110F076C111F077C11A
:10E0C00012F078C113F079C114F07AC115F07BC158
:10E0D00016F0F0EC58F00FC080F110C081F111C0C3
:10E0E00082F112C083F180C1B8F181C1B9F182C15E
:10E0F000BAF183C1BBF1B8C190F1B9C191F1BAC114
:10E1000092F1BBC193F1000E01019015B86FF00EB2
:10E110009115B96FFF0E9215BA6FFF0E9315BB6F75
:10E12000B8C180F1B9C181F1BAC182F1BBC183F13B
:10E1300074C13CF075C13DF076C13EF077C13FF04F
:10E1400080C138F081C139F082C13AF083C13BF01F
:10E1500033EC4AF038C094F139C095F13AC096F1E9
:10E160003BC097F178C138F079C139F07AC13AF003
:10E170007BC13BF094C13CF095C13DF096C13EF0AF
:10E1800097C13FF033EC4AF038C01CF139C01DF1A3
:10E190003AC01EF13BC01FF166EF78F0000E7C6FB5
:10E1A000000E7D6F000E7E6F000E7F6FABBFE4EF41
:10E1B00070F0AB5107E1800EAA5DD8B0E2EF70F0CD
:10E1C000E4EF70F017EF71F070C11FF071C120F033
:10E1D00072C121F073C122F0000E236E000E246E76
:10E1E000800E256E4B0E266EC9EC56F01FC070F1E6
:10E1F00020C071F121C072F122C073F1E80E01015B
:10E200007C27FF0E7D23FF0E7E23FF0E7F2370C130
:10E21000B8F171C1B9F172C1BAF173C1BBF1B8C142
:10E22000A8F1B9C1A9F1BAC1AAF1BBC1ABF1170EEE
:10E230000001906FA8C191F0A9C192F0AAC193F01A
:10E24000ABC194F0906727EF71F02FEF71F0943528
:10E250009433933392339133902F22EF71F0810EE8
:10E2600000019125956FFF0E9221966FFF0E93216D
:10E27000976FFF0E9421986F955101017C27000143
:10E28000965101017D230001975101017E23000178
:10E29000985101017F23FF0EA815AC6FFF0EA91541
:10E2A000AD6F7F0EAA15AE6F000EAB15AF6F000EEF
:10E2B000AC11A86F000EAD11A96F800EAE11AA6F40
:10E2C0003F0EAF11AB6FAFBF75EF71F0AF510BE108
:10E2D000720EAC5DC40EAD591C0EAE59D8B073EFC2
:10E2E00071F075EF71F07FEF71F0000EA06F000E0E
:10E2F000A16F000EA26F000EA36FB1EF71F0AFBF60
:10E3000091EF71F0AF510BE1D70EAC5DB30EAD598B
:10E310005D0EAE59D8B08FEF71F091EF71F09BEFB9
:10E3200071F0010EA06F000EA16F000EA26F000E23
:10E33000A36FB1EF71F0000EA06F000EA16F000E81
:10E34000A26F000EA36F010E7C27000E7D237E239B
:10E350007F23000EA827000EA923800EAA23FF0EFC
:10E36000AB23A8C1B8F1A9C1B9F1AAC1BAF1ABC137
:10E37000BBF1B8C170F1B9C171F1BAC172F1BBC1E1
:10E3800073F170C138F071C139F072C13AF073C1E4
:10E390003BF0A0C190F0A1C191F00001D89090375E
:10E3A0009137D890903791374B0E9025F66EFF0E2F
:10E3B0009121F76EF86A000EF82209006F00D4FF71
:10E3C0003CF009006F00D4FF3DF009006F00D4FF5E
:10E3D0003EF00A006F00D4FF3FF033EC4AF038C043
:10E3E00074F139C075F13AC076F13BC077F1000E97
:10E3F000406E000E416E800E426E3F0E436E70C145
:10E4000013F071C114F072C115F073C116F0A0C100
:10E4100090F0A1C191F00001D89090379137D89039
:10E42000903791374B0E9025F66EFF0E9121F76EC7
:10E43000F86A000EF82209006F00D4FF0FF00900FF
:10E440006F00D4FF10F009006F00D4FF11F00A0034
:10E450006F00D4FF12F0F0EC58F00FC044F010C081
:10E4600045F011C046F012C047F0FCEC54F040C03B
:10E4700078F141C079F142C07AF143C07BF174C1B7
:10E480001FF075C120F076C121F077C122F078C16C
:10E4900023F079C124F07AC125F07BC126F0C9ECC4
:10E4A00056F01FC05CF120C05DF121C05EF122C0BA
:10E4B0005FF15CC16CF15DC16DF15EC16EF15FC178
:10E4C0006FF16CC1B8F16DC1B9F16EC1BAF16FC134
:10E4D000BBF1B8C190F1B9C191F1BAC192F1BBC120
:10E4E00093F1000E01019015B86FF00E9115B96F00
:10E4F000FF0E9215BA6FFF0E9315BB6FB8C16CF18A
:10E50000B9C16DF1BAC16EF1BBC16FF1A8C190F094
:10E51000A9C191F0AAC192F0ABC193F0000193356B
:10E520009333923391339033000E9015946FF00E25
:10E530009115956FFF0E9215966FFF0E9315976FBD
:10E54000000E94110101906F000E00019511010160
:10E55000916F000E000196110101926F200E0001D3
:10E5600097110101936FA0C190F0A1C191F0A2C1D8
:10E5700092F0A3C193F0150ED89000019037913717
:10E5800092379337E82EBCEF72F0010190510001F1
:10E590009025946F0101915100019121956F010126
:10E5A000925100019221966F010193510001932134
:10E5B000976F000E94250101B86F000E00019521A0
:10E5C0000101B96F400E000196210101BA6F000EE2
:10E5D000000197210101BB6FB8C168F1B9C169F1B0
:10E5E000BAC16AF1BBC16BF1A0C190F0A1C191F0B9
:10E5F0000001D89090379137D890903791374B0ED3
:10E600009025F66EFF0E9121F76EF86A000EF82243
:10E6100009006F00D4FF3CF009006F00D4FF3DF00B
:10E6200009006F00D4FF3EF00A006F00D4FF3FF0F6
:10E6300068C138F069C139F06AC13AF06BC13BF08A
:10E6400033EC4AF038C094F139C095F13AC096F1F4
:10E650003BC097F170C138F071C139F072C13AF026
:10E6600073C13BF094C13CF095C13DF096C13EF0C2
:10E6700097C13FF033EC4AF038C034F139C035F17E
:10E680003AC036F13BC037F168C123F069C124F0CC
:10E690006AC125F06BC126F06CC11FF06DC120F07E
:10E6A0006EC121F06FC122F0C9EC56F01FC03CF0E2
:10E6B00020C03DF021C03EF022C03FF074C138F0D0
:10E6C00075C139F076C13AF077C13BF033EC4AF0CE
:10E6D00038C094F139C095F13AC096F13BC097F13A
:10E6E00034C123F035C124F036C125F037C126F0FE
:10E6F0006CC11FF06DC120F06EC121F06FC122F01E
:10E70000C9EC56F01FC03CF020C03DF021C03EF0E7
:10E7100022C03FF094C138F095C139F096C13AF06B
:10E7200097C13BF033EC4AF038C054F139C055F191
:10E730003AC056F13BC057F154C11FF055C120F00B
:10E7400056C121F057C122F078C123F079C124F0DD
:10E750007AC125F07BC126F0C9EC56F01FC030F11C
:10E7600020C031F121C032F122C033F15CC11FF071
:10E770005DC120F05EC121F05FC122F05CC123F0D9
:10E780005DC124F05EC125F05FC126F0C9EC56F0F2
:10E790001FC08CF120C08DF121C08EF122C08FF1FD
:10E7A000550E136E320E146E6C0E156E3E0E166EF6
:10E7B000420E236EF10E246E530E256E3E0E266E13
:10E7C0008CC11FF08DC120F08EC121F08FC122F0CD
:10E7D000C9EC56F01FC00FF020C010F021C011F09E
:10E7E00022C012F0F0EC58F00FC0A4F110C0A5F157
:10E7F00011C0A6F112C0A7F1050E136EA30E146E80
:10E800008B0E156E3E0E166E8CC123F08DC124F05A
:10E810008EC125F08FC126F0A4C11FF0A5C120F044
:10E82000A6C121F0A7C122F0C9EC56F01FC00FF01D
:10E8300020C010F021C011F022C012F0F0EC58F00E
:10E840000FC054F110C055F111C056F112C057F16C
:10E85000AB0E136EAA0E146EAA0E156E3E0E166E39
:10E860008CC123F08DC124F08EC125F08FC126F01C
:10E8700054C11FF055C120F056C121F057C122F0FC
:10E88000C9EC56F01FC00FF020C010F021C011F0ED
:10E8900022C012F0F0EC58F00FC048F110C049F15E
:10E8A00011C04AF112C04BF1B70E136E6D0E146E0B
:10E8B000DB0E156E3E0E166E8CC123F08DC124F05A
:10E8C0008EC125F08FC126F048C11FF049C120F04C
:10E8D0004AC121F04BC122F0C9EC56F01FC00FF025
:10E8E00020C010F021C011F022C012F0F0EC58F05E
:10E8F0000FC038F110C039F111C03AF112C03BF12C
:10E900009A0E136E990E146E190E156E3F0E166E3A
:10E910008CC123F08DC124F08EC125F08FC126F06B
:10E9200038C11FF039C120F03AC121F03BC122F0BB
:10E93000C9EC56F01FC00FF020C010F021C011F03C
:10E9400022C012F0F0EC58F00FC000F110C001F13D
:10E9500011C002F112C003F18CC123F08DC124F06B
:10E960008EC125F08FC126F08CC11FF08DC120F023
:10E970008EC121F08FC122F0C9EC56F01FC004F106
:10E9800020C005F121C006F122C007F100C11FF02F
:10E9900001C120F002C121F003C122F004C123F023
:10E9A00005C124F006C125F007C126F0C9EC56F0D8
:10E9B0001FC04CF120C04DF121C04EF122C04FF1DB
:10E9C00030C123F031C124F032C125F033C126F02B
:10E9D0005CC113F05DC114F05EC115F05FC116F0AB
:10E9E0006CC10FF06DC110F06EC111F06FC112F06B
:10E9F000F0EC58F00FC01FF010C020F011C021F053
:10EA000012C022F0C9EC56F01FC058F120C059F1D5
:10EA100021C05AF122C05BF14CC10FF04DC110F082
:10EA20004EC111F04FC112F058C113F059C114F08A
:10EA30005AC115F05BC116F0F0EC58F00FC04CF164
:10EA400010C04DF111C04EF112C04FF16CC11FF05A
:10EA50006DC120F06EC121F06FC122F06CC123F0B6
:10EA60006DC124F06EC125F06FC126F0C9EC56F0DF
:10EA70001FC08CF120C08DF121C08EF122C08FF11A
:10EA8000000E136E000E146E400E156E400E166EC4
:10EA90008CC10FF08DC110F08EC111F08FC112F03A
:10EAA000F0EC58F00FC058F110C059F111C05AF1F4
:10EAB00012C05BF158C10FF059C110F05AC111F0EA
:10EAC0005BC112F04CC113F04DC114F04EC115F0F2
:10EAD0004FC116F0F0EC58F00FC068F110C069F1AA
:10EAE00011C06AF112C06BF168C1B8F169C1B9F126
:10EAF0006AC1BAF16BC1BBF1B8C190F1B9C191F172
:10EB0000BAC192F1BBC193F1000E01019015B86F2B
:10EB1000F00E9115B96FFF0E9215BA6FFF0E931597
:10EB2000BB6FB8C168F1B9C169F1BAC16AF1BBC1C3
:10EB30006BF1000E136E000E146E400E156EC00EBB
:10EB4000166E68C10FF069C110F06AC111F06BC197
:10EB500012F0F0EC58F00FC03CF110C03DF111C0C4
:10EB60003EF112C03FF18CC13CF08DC13DF08EC131
:10EB70003EF08FC13FF03CC138F03DC139F03EC19D
:10EB80003AF03FC13BF033EC4AF038C040F139C0B5
