:020000040000FA
:04000000FEEF7FF0A0
:10C5600001C0C5F002C0C6F0120001C0C9F002C08F
:10C57000CAF0120001C0C7F002C0C8F01200026E7B
:10C580000250EAEC62F012000250B76E600007F051
:10C59000B6FF12000001D16BD06BCF6BCE6BCD6BB1
:10C5A0000001CBEF6CF008EC63F0E6EC64F0DEEC3D
:10C5B00062F02FEC63F087EC63F01200620E390139
:10C5C000D96F000EDB6F000EDD6F060EDF6F000E01
:10C5D000DE6F1200016E3901A6A7F1EF62F0F3EFF2
:10C5E00062F0EBEF62F0600007F0D2FD12006F0026
:10C5F000D8FE07F06F00DCFE08F00850036E07500D
:10C60000056E03C006F005C001F006C002F012007E
:10C61000000E3901C06F000EC16F000EC26F000E18
:10C62000C36F000EC46F000EC56F000EC66F000E04
:10C63000C76F1200015003026F00CCFF05F06F00BE
:10C64000D0FF06F001500402F35006260250030208
:10C65000F350062605C001F006C002F012004E0E8F
:10C66000B96EF40EB76E140EB66EB6506F00DCFEE7
:10C6700001F0026A01C002F0016A01100001CB6FF3
:10C680000250CC6F3901A39F900EB86E120001507A
:10C69000021003100410D8B450EF63F052EF63F0AF
:10C6A0005AEF63F0000E011A000E021A000E031A70
:10C6B000800E041A01C001F002C002F003C003F0B2
:10C6C00004C004F01200000E0001751B000E761B62
:10C6D000000E771B800E781B71C058F072C059F0A5
:10C6E00073C05AF074C05BF075C05CF076C05DF04A
:10C6F00077C05EF078C05FF040EC78F058C071F021
:10C7000059C072F05AC073F05BC074F01200000E92
:10C710003D01D46F000ED66F000ED86FB00EDA6FE9
:10C72000800EDB6F000EDC6FCF0EDD6F000EDE6F54
:10C73000000EDF6F000EE06F000EE16F000EE26F83
:10C74000000E016E000E026EB5EC62F0000E016E7E
:10C75000000E026EBAEC62F0000E016E000E026E68
:10C76000B0EC62F0000E0001D16F12000350041013
:10C77000D8B4BDEF63F0BFEF63F0E3EF63F0010EF9
:10C78000056EC7EF63F0D89003360436052A04AE71
:10C79000CCEF63F0CEEF63F0C3EF63F00350015CC6
:10C7A00004500258D8A0D7EF63F0D9EF63F0DDEF63
:10C7B00063F00350015E0450025AD89004320332F1
:10C7C000052ECEEF63F001C001F002C002F01200AE
:10C7D000000E0B6E000E0A6E08500910D8B4F3EF6D
:10C7E00063F0F5EF63F01DEF64F0010E0C6EFDEFEA
:10C7F00063F0D890083609360C2A09AE02EF64F0CF
:10C8000004EF64F0F9EF63F0D8900A360B36085065
:10C81000065C09500758D8A010EF64F012EF64F0DE
:10C8200017EF64F00850065E0950075A0A80D89046
:10C83000093208320C2E04EF64F00AC006F00BC077
:10C8400007F01200000E046E000E036E0001CF51BF
:10C85000D011D8A42EEF64F030EF64F041EF64F013
:10C8600001500210D8B437EF64F039EF64F041EFB3
:10C8700064F0000ED06F010ECF6F000E046E010E3B
:10C88000036ECF05D011D8A448EF64F04AEF64F0EE
:10C890005BEF64F001500210D8A451EF64F053EF45
:10C8A00064F05BEF64F0000ED06F000ECF6F000EEF
:10C8B000046E020E036E03C001F004C002F0120009
:10C8C000F20E0001796FFF0E7A6F000E7C6F1B0E67
:10C8D0007B6F000E7E6F5B0E7D6F000E806F320EE1
:10C8E0007F6F000E826F4A0E816FA1EC7AF0F20E1C
:10C8F0000001796FFF0E7A6F000E7C6F1B0E7B6F4D
:10C90000000E7E6F5B0E7D6F000E806F330E7F6FAB
:10C91000000E826F4A0E816FA1EC7AF0F40E0001D6
:10C92000796FFF0E7A6F000E7C6F1B0E7B6F000E0F
:10C930007E6F5B0E7D6F000E806F480E7F6FA1ECE7
:10C940007AF012001250131014101510D8B4ABEF77
:10C9500064F0ADEF64F0DDEF64F0010E166EB7EF3A
:10C9600064F0D8901236133614361536162A15AEE2
:10C97000BCEF64F0BEEF64F0B1EF64F012500E5CF7
:10C9800013500F581450105815501158D8A0CBEF11
:10C9900064F0CDEF64F0D5EF64F012500E5E1350EA
:10C9A0000F5A1450105A1550115AD890153214328B
:10C9B00013321232162EBEEF64F00EC00EF00FC00E
:10C9C0000FF010C010F011C011F01200000EBE6E7A
:10C9D000000EBD6E000EBA6E000EBB6E000EBC6E79
:10C9E000070EC66EC268BF0EC36EC468FB0EC56E6E
:10C9F000F90E3A01706F60693F0E506F070E806F3D
:10CA00004069000E716F000E816F000E516F000EB5
:10CA1000416F000E616F000E5A6F000E5B6F000ECB
:10CA20006A6F000E6B6F000E7A6F000E7B6F000E48
:10CA3000826F000E426F000E526F000E626F000E8A
:10CA4000726F4369536963697369070E836F446941
:10CA50005469646974690F0E846F0F0EE86F160EC7
:10CA60000E6F1200000E096E000E0A6E000E0B6EA5
:10CA7000000E0C6E0550061007100810D8B443EFD6
:10CA800065F045EF65F07BEF65F0010E0D6E4FEF41
:10CA900065F0D89005360636073608360D2A08AEFA
:10CAA00054EF65F056EF65F049EF65F0D890093620
:10CAB0000A360B360C360550015C065002580750FA
:10CAC000035808500458D8A068EF65F06AEF65F085
:10CAD00073EF65F00550015E0650025A0750035A85
:10CAE0000850045A0980D8900832073206320532BD
:10CAF0000D2E56EF65F009C001F00AC002F00BC020
:10CB000003F00CC004F01200000E27142F6E000E6C
:10CB10002814306E800E2914316E7F0E2A14326E66
:10CB20002F50301031103210D8A499EF65F09BEFE0
:10CB300065F0A3EF65F0000E276E000E286E000E64
:10CB4000296E000E2A6E000E2B142F6E000E2C1470
:10CB5000306E800E2D14316E7F0E2E14326E2F50DB
:10CB6000301031103210D8A4B8EF65F0BAEF65F08C
:10CB7000C2EF65F0000E2B6E000E2C6E000E2D6EB7
:10CB8000000E2E6E2B5027180FE12C5028180CE1A8
:10CB90002D50291809E12E502A18D8B4D2EF65F08B
:10CBA000D4EF65F0D7EF65F0D890D8EF65F0D88076
:10CBB0001200000E066E02BEE2EF65F0E0EF65F0D7
:10CBC000E8EF65F0016C021ED8B0022A010E066E75
:10CBD00004BEEFEF65F0EDEF65F0F3EF65F0036C89
:10CBE000041ED8B0042A03500410D8B4FAEF65F03C
:10CBF000FCEF65F020EF66F0010E056E04EF66F0C5
:10CC0000D89003360436052A04AE09EF66F00BEF20
:10CC100066F000EF66F00350015C04500258D8A0A3
:10CC200014EF66F016EF66F01AEF66F00350015E3F
:10CC30000450025AD89004320332052E0BEF66F0EE
:10CC40000650D8B426EF66F028EF66F02CEF66F0B9
:10CC5000016C021ED8B0022A01C001F002C002F02D
:10CC60001200000E0C6E0ABE3AEF66F038EF66F066
:10CC700040EF66F0096C0A1ED8B00A2A010E0C6E4D
:10CC800008BE47EF66F045EF66F04DEF66F0076CC3
:10CC9000081ED8B0082A010E0C1A000E0E6E000EE7
:10CCA0000D6E09500A10D8B458EF66F05AEF66F0CE
:10CCB00082EF66F0010E0B6E62EF66F0D8900936D7
:10CCC0000A360B2A0AAE67EF66F069EF66F05EEF90
:10CCD00066F0D8900D360E360950075C0A50085899
:10CCE000D8A075EF66F077EF66F07CEF66F009503C
:10CCF000075E0A50085A0D80D8900A3209320B2E6E
:10CD000069EF66F00C50D8B488EF66F08AEF66F0F1
:10CD10008EEF66F00D6C0E1ED8B00E2A0DC007F017
:10CD20000EC008F0120033C027F034C028F035C020
:10CD300029F036C02AF0000E2B6E000E2C6E000E6D
:10CD40002D6E000E2E6E84EC65F0D8A0AAEF66F072
:10CD5000ACEF66F0C0EF66F06000DFF0D9FF600076
:10CD6000E3F0DAFF000EDE6E000EDD6E000E336EB5
:10CD7000000E346E000E356E000E366EFEEF66F05D
:10CD800036507F0B396E3A6AD89039363A366000A1
:10CD9000DFF0D9FF6000E3F0DAFF6000E7F0DEFFCC
:10CDA0006000EBF0DDFF35BED8EF66F0DCEF66F03B
:10CDB000396A392ADDEF66F0396A39506000DFF0F0
:10CDC000D9FF6000E3F0DAFFDE12000EDD12600032
:10CDD000DFF0D9FF6000E3F0DAFF820EDE26FF0EFF
:10CDE000DD223650800B3F09366E359E33C033F05E
:10CDF00034C034F035C035F036C036F01200000EC5
:10CE00000114096E000E02140A6E800E03140B6EDC
:10CE10007F0E04140C6E09500A100B100C10D8A4CD
:10CE200014EF67F016EF67F01EEF67F0000E016E6B
:10CE3000000E026E000E036E000E046E000E05144E
:10CE4000096E000E06140A6E800E07140B6E7F0E1C
:10CE500008140C6E09500A100B100C10D8A433EFF4
:10CE600067F035EF67F03DEF67F0000E056E000EDE
:10CE7000066E000E076E000E086E04AE42EF67F0FD
:10CE800044EF67F04DEF67F0016C021ED8B0022A44
:10CE9000031ED8B0032A800E045608AE52EF67F086
:10CEA00054EF67F05DEF67F0056C061ED8B0062AF8
:10CEB000071ED8B0072A800E0856000E011A000E71
:10CEC000021A000E031A800E041A000E051A000E34
:10CED000061A000E071A800E081A0550015C06504B
:10CEE00002580750035808500458D8B07AEF67F03A
:10CEF0007CEF67F07FEF67F0D89080EF67F0D88025
:10CF0000120011341234186E1850D8A48AEF67F04A
:10CF10008CEF67F096EF67F0000E0F6E000E106E4C
:10CF2000000E116E000E126E03EF68F00FC013F0CA
:10CF300010C014F011C015F012C016F0200EA6EFAC
:10CF400067F0D8901632153214321332E82EA1EF62
:10CF500067F01350176E118EFF0E0F16FF0E10168E
:10CF6000FF0E1116000E1216960E185E18BEBDEFBB
:10CF700067F0BBEF67F0D3EF67F01850800A970FA8
:10CF8000D8B0C5EF67F0C7EF67F0C9EF67F08CEF77
:10CF900067F0D8901232113210320F32183EC9EFBA
:10CFA00067F0EBEF67F01F0E1864D9EF67F0DBEF67
:10CFB00067F0E3EF67F08CEF67F0D8900F3610362C
:10CFC0001136123618061850D8A4E9EF67F0EBEFC7
:10CFD00067F0DDEF67F01750D8B4F1EF67F0F3EFCB
:10CFE00067F0FBEF67F0121E111E101E0F6C000E93
:10CFF0001022112212220FC00FF010C010F011C029
:10D0000011F012C012F0120077C079F078C07AF0F7
:10D010000001D89079377A37D89079377A3775C048
:10D020007BF076C07CF079517B277A517C236000BD
:10D03000EFF1F6FF6000F3F1F7FFF86A09006F0007
:10D04000D4FF7DF009006F00D4FF7EF009006F006F
:10D05000D4FF7FF00A006F00D4FF80F081EF68F00A
:10D060007DC03FF07EC040F07FC041F080C042F004
:10D0700071C03BF072C03CF073C03DF074C03EF034
:10D08000BFEC73F03BC058F03CC059F03DC05AF0C3
:10D090003EC05BF000017707D8A0780777C079F031
:10D0A00078C07AF0D89079377A37D89079377A374C
:10D0B00075C07BF076C07CF079517B277A517C2358
:10D0C0006000EFF1F6FF6000F3F1F7FFF86A090086
:10D0D0006F00D4FF5CF009006F00D4FF5DF0090021
:10D0E0006F00D4FF5EF00A006F00D4FF5FF040ECE9
:10D0F00078F058C07DF059C07EF05AC07FF05BC018
:10D1000080F0000177517811D8A489EF68F08BEF97
:10D1100068F030EF68F07DC071F07EC072F07FC0C3
:10D1200073F080C074F0120081C027F082C028F034
:10D1300083C029F084C02AF0000E2B6E000E2C6EE6
:10D14000000E2D6E000E2E6E84EC65F0D8A0ABEFB5
:10D1500068F0ADEF68F0B8EF68F0000E0001816F85
:10D16000000E826F000E836F000E846F2FEF69F048
:10D17000000184517F0B876F886BD8908737883781
:10D18000875185278851862383BFC9EF68F0CDEF8B
:10D1900068F0876B872BCFEF68F00001876B8751B2
:10D1A0008527000E862386BFDAEF68F0D8EF68F097
:10D1B000E8EF68F0000ECE6F220ECD6F000E816F8B
:10D1C000000E826F000E836F000E846F2FEF69F0E8
:10D1D00086BFF1EF68F08605D8A0F1EF68F0F3EFB5
:10D1E00068F012EF69F0000ECE6F220ECD6F84BF93
:10D1F000FEEF68F0FCEF68F008EF69F0FF0E816F5A
:10D20000FF0E826F7F0E836FFF0E846F2FEF69F02A
:10D21000FF0E816FFF0E826F7F0E836F7F0E846F14
:10D220002FEF69F086358631886F8531876F84519D
:10D230008719800B8719846F85C087F0010E8717C7
:10D2400087338733835187197F0B8719836F81C099
:10D2500081F082C082F083C083F084C084F0120029
:10D2600071C033F072C034F073C035F074C036F062
:10D27000790E376E000E386E93EC66F000017ABFBF
:10D2800046EF69F044EF69F061EF69F074BF4DEF6C
:10D2900069F04BEF69F057EF69F0000E716F000E07
:10D2A000726F800E736FBF0E746FD0EF69F0000E57
:10D2B000716F000E726F000E736F000E746FD0EFFF
:10D2C00069F07A5109E11D0E795DD8A06AEF69F025
:10D2D0006CEF69F076EF69F071C071F072C072F0B6
:10D2E00073C073F074C074F0D0EF69F071C00FF0C8
:10D2F00072C010F073C011F074C012F081EC67F0CE
:10D300000FC019F010C01AF011C01BF012C01CF0B1
:10D31000010EF1EC6BF019C075F01AC076F01BC06D
:10D3200077F01CC078F071C001F072C002F073C0D9
:10D3300003F074C004F075C005F076C006F077C045
:10D3400007F078C008F0FFEC66F0D8B0AAEF69F0FB
:10D35000ACEF69F0C8EF69F075C058F076C059F0CD
:10D3600077C05AF078C05BF0000E5C6E000E5D6E08
:10D37000800E5E6EBF0E5F6E40EC78F058C071F0AC
:10D3800059C072F05AC073F05BC074F0D0EF69F00E
:10D3900075C071F076C072F077C073F078C074F029
:10D3A0001200033404340E6E0E50D8A4DAEF69F084
:10D3B000DCEF69F0E6EF69F0000E016E000E026E20
:10D3C000000E036E000E046E76EF6AF00734083428
:10D3D0000D6E0D50D8A4EFEF69F0F1EF69F0F3EFA7
:10D3E00069F0DCEF69F0038EFF0E0116FF0E0216E6
:10D3F000FF0E0316000E0416078EFF0E0516FF0E15
:10D400000616FF0E0716000E0816000E096E000E17
:10D410000A6E000E0B6E000E0C6E7F0E0E5E0D502F
:10D42000A00F0E5E200E0D6ED89009360A360B3610
:10D430000C360550015C065002580750035808503E
:10D440000458D8A026EF6AF028EF6AF031EF6AF0AE
:10D450000550015E0650025A0750035A0850045AFC
:10D460000980D89001360236033604360D2E14EFAB
:10D470006AF00EBE40EF6AF03EEF6AF056EF6AF0D7
:10D480000E50800A9F0FD8B048EF6AF04AEF6AF05A
:10D490004CEF6AF0DCEF69F0D8900C320B320A32B4
:10D4A00009320E3E4CEF6AF06EEF6AF01F0E0E640A
:10D4B0005CEF6AF05EEF6AF066EF6AF0DCEF69F04D
:10D4C000D89009360A360B360C360E060E50D8A404
:10D4D0006CEF6AF06EEF6AF060EF6AF009C001F07D
:10D4E0000AC002F00BC003F00CC004F0120003C02D
:10D4F00009F00A6A0B6A0234093601E30A8009500E
:10D50000116E1150D8A487EF6AF089EF6AF093EF9B
:10D510006AF0000E016E000E026E000E036E000E29
:10D52000046E21EF6BF007C009F00A6A0B6A06343B
:10D53000093601E30A800950106E1050D8A4A3EFF9
:10D540006AF0A5EF6AF0A7EF6AF089EF6AF0028E41
:10D55000FF0E0116FF0E0216000E0316068EFF0EBA
:10D560000516FF0E0616000E0716000E0C6E000EB6
:10D570000D6E000E0E6E000E0F6E7F0E115E1050BF
:10D58000980F115E180E106ED8900C360D360E36B0
:10D590000F360550015C0650025807500358D8A0BA
:10D5A000D4EF6AF0D6EF6AF0DDEF6AF00550015E65
:10D5B0000650025A0750035A0C80D89001360236A2
:10D5C0000336102EC4EF6AF011BEEBEF6AF0E9EFFC
:10D5D0006AF001EF6BF01150800A970FD8B0F3EFAB
:10D5E0006AF0F5EF6AF0F7EF6AF089EF6AF0D89029
:10D5F0000F320E320D320C32113EF7EF6AF019EF96
:10D600006BF0170E116407EF6BF009EF6BF011EF81
:10D610006BF089EF6AF0D8900C360D360E360F3667
:10D6200011061150D8A417EF6BF019EF6BF00BEF48
:10D630006BF00CC001F00DC002F00EC003F00FC083
:10D6400004F01200000184BF2AEF6BF028EF6BF0AA
:10D6500038EF6BF0000ECE6F210ECD6F000E816F94
:10D66000000E826F000E836F000E846FF0EF6BF080
:10D6700081C027F082C028F083C029F084C02AF03E
:10D68000000E2B6E000E2C6E000E2D6E000E2E6EF8
:10D6900084EC65F0D8A04FEF6BF051EF6BF060EFCA
:10D6A0006BF0000E0001CE6F220ECD6F000E816F69
:10D6B000000E826F000E836F000E846FF0EF6BF030
:10D6C000000E3F6E000E406E000E416E400E426E28
:10D6D000850E376E000E386E81C033F082C034F094
:10D6E00083C035F084C036F093EC66F033C03BF075
:10D6F00034C03CF035C03DF036C03EF0BFEC73F0B6
:10D700003BC058F03CC059F03DC05AF03EC05BF001
:10D71000000E5C6E000E5D6E800E5E6EBF0E5F6E64
:10D7200040EC78F058C081F059C082F05AC083F0C4
:10D730005BC084F000018507D8A0860781C071F026
:10D7400082C072F083C073F084C074F02F0E756FC6
:10D75000FF0E766F000E786F080E776F04EC68F09E
:10D7600071C081F072C082F073C083F074C084F025
:10D77000180E3F6E720E406E310E416E3F0E426EBD
:10D7800085C019F086C01AF0000E1ABEFF0E1B6E7F
:10D790001C6E010EF1EC6BF019C03BF01AC03CF0AE
:10D7A0001BC03DF01CC03EF0BFEC73F03BC058F016
:10D7B0003CC059F03DC05AF03EC05BF081C05CF007
:10D7C00082C05DF083C05EF084C05FF040EC78F012
:10D7D00058C081F059C082F05AC083F05BC084F019
:10D7E0001200216E2150D8B4F8EF6BF0FAEF6BF015
:10D7F0001CEF6CF01CBE01EF6CF0FFEF6BF01CEF48
:10D800006CF019C01DF01AC01EF01BC01FF01CC028
:10D8100020F01D1E1E1E1F1E201E1D2A000E1E2271
:10D820001F2220221DC023F01EC024F01FC025F09F
:10D8300020C026F024EF6CF019C023F01AC024F0A9
:10D840001BC025F01CC026F019501A101B101C100C
:10D85000D8A42DEF6CF02FEF6CF039EF6CF0000EC8
:10D86000196E000E1A6E000E1B6E000E1C6ECAEFB3
:10D870006CF0960E226E43EF6CF0222AD89026327E
:10D88000253224322332000E23141D6E000E241480
:10D890001E6E000E25141F6EFE0E2614206E1D50E7
:10D8A0001E101F102010D8A458EF6CF05AEF6CF027
:10D8B0003DEF6CF068EF6CF0222A010E2326000E7B
:10D8C000242225222622D8902632253224322332C1
:10D8D000000E23141D6E000E24141E6E000E25145F
:10D8E0001F6EFF0E2614206E1D501E101F102010DC
:10D8F000D8A47DEF6CF07FEF6CF05CEF6CF087EFFD
:10D900006CF02206D890233624362536263625BEDE
:10D910008CEF6CF08EEF6CF096EF6CF0020E2260E4
:10D9200094EF6CF096EF6CF081EF6CF022B09BEF0F
:10D930006CF09DEF6CF09EEF6CF0259ED89022323B
:10D9400022C01DF01E6A1F6A206A1DC020F01F6AD7
:10D950001E6A1D6A1D5023121E5024121F502512CC
:10D96000205026122150D8B4B8EF6CF0BAEF6CF00A
:10D97000C2EF6CF01CBEC1EF6CF0BFEF6CF0C2EFF9
:10D980006CF0268E23C019F024C01AF025C01BF0BD
:10D9900026C01CF01200D3EC62F0B9500F0B00014E
:10D9A000A96FA951C26FC36B60EC64F08C0E0001CB
:10D9B000796FFF0E7A6FA1EC7AF0B10E0001796FEA
:10D9C000FF0E7A6FC2C07BF0C3C07CF0000E7D6F8B
:10D9D000240E7E6FF40E7F6F4A0E806FA1EC7AF0FA
:10D9E000CDB2F5EF6CF0FAEF6CF00001A96BA92B4A
:10D9F000FCEF6CF00001A96BA951016E026A22ECE8
:10DA000064F001500001C46FC405D8A40AEF6DF0A2
:10DA10000CEF6DF01BEF6DF0DE0E796FFF0E7A6F7D
:10DA2000A1EC7AF0000E026E000E016EC4EC62F002
:10DA30003901A39FBD84020E0001C419D8A423EFAD
:10DA40006DF025EF6DF0F0EF6CF0BD94C80E796FBE
:10DA5000FF0E7A6FA1EC7AF0F7EC62F001C0C0F033
:10DA600002C0C1F0C2C019F0C3C01AF01B6A1C6A20
:10DA7000000EF1EC6BF019C0B2F01AC0B3F01BC08D
:10DA8000B4F01CC0B5F0B2C098F0B3C099F0B4C007
:10DA90009AF0B5C09BF0000E0001946F000E956FD8
:10DAA000000E966F400E976FD0EC6DF094C0B6F0FC
:10DAB00095C0B7F096C0B8F097C0B9F0000E3F6EB1
:10DAC000000E406E800E416E400E426EC0C019F0D6
:10DAD000C1C01AF01B6A1C6A000EF1EC6BF019C091
:10DAE0003BF01AC03CF01BC03DF01CC03EF0BFEC48
:10DAF00073F03BC0BAF03CC0BBF03DC0BCF03EC0D0
:10DB0000BDF0B6C03FF0B7C040F0B8C041F0B9C0FA
:10DB100042F0BAC03BF0BBC03CF0BCC03DF0BDC061
:10DB20003EF0BFEC73F03BC054F03CC055F03DC03C
:10DB300056F03EC057F0000E586E240E596EF40E8B
:10DB40005A6E4A0E5B6EF1EC71F054C0AEF055C0E7
:10DB5000AFF056C0B0F057C0B1F03901A3BFB3EF7A
:10DB60006DF0B6EF6DF0010EB7EF6DF0000E000135
:10DB7000BE6FBF6B530E796FFF0E7A6FAEC07BF036
:10DB8000AFC07CF0B0C07DF0B1C07EF0BEC07FF011
:10DB9000BFC080F0A1EC7AF0F0EF6CF0FEEF7FF008
:10DBA000000E0001A46F94C027F095C028F096C025
:10DBB00029F097C02AF0000E2B6E000E2C6E000E7E
:10DBC0002D6E000E2E6E84EC65F0D8A0EAEF6DF09D
:10DBD000ECEF6DF015EF6EF0000E016E000E026EB0
:10DBE000000E036E000E046E98C005F099C006F09A
:10DBF0009AC007F09BC008F0FFEC66F0D8A003EFD6
:10DC00006EF005EF6EF00AEF6EF0000E0001CE6FC1
:10DC1000210ECD6F000E0001946F000E956F000E67
:10DC2000966F000E976FFFEF6EF098C027F099C0C7
:10DC300028F09AC029F09BC02AF0000E2B6E000E2F
:10DC40002C6E000E2D6E000E2E6E84EC65F0D8A0AA
:10DC50002CEF6EF02EEF6EF039EF6EF0000E00013B
:10DC6000946F000E956F800E966F3F0E976FFFEFCB
:10DC70006EF0000197BF41EF6EF03FEF6EF09CEF4A
:10DC80006EF098C00FF099C010F09AC011F09BC0D0
:10DC900012F081EC67F00FC0A5F010C0A6F011C023
:10DCA000A7F012C0A8F0A5C019F0A6C01AF0A7C02E
:10DCB0001BF0A8C01CF0000EF1EC6BF019C027F0AF
:10DCC0001AC028F01BC029F01CC02AF098C02BF005
:10DCD00099C02CF09AC02DF09BC02EF084EC65F01A
:10DCE000D8B075EF6EF077EF6EF086EF6EF0000E45
:10DCF0000001CE6F210ECD6F000E946F000E956F58
:10DD0000000E966F000E976FFFEF6EF00001A551A9
:10DD1000010BA46F94C001F095C002F096C003F00F
:10DD200097C004F047EC63F001C094F002C095F096
:10DD300003C096F004C097F094C081F095C082F0C3
:10DD400096C083F097C084F022EC6BF081C09CF009
:10DD500082C09DF083C09EF084C09FF09CC03BF0C9
:10DD60009DC03CF09EC03DF09FC03EF098C03FF08B
:10DD700099C040F09AC041F09BC042F0BFEC73F0F4
:10DD80003BC0A0F03CC0A1F03DC0A2F03EC0A3F05B
:10DD9000A0C089F0A1C08AF0A2C08BF0A3C08CF013
:10DDA00000EC6FF089C094F08AC095F08BC096F0BB
:10DDB0008CC097F00001A451D8B4E1EF6EF0E3EF0E
:10DDC0006EF0F7EF6EF094C001F095C002F096C0CF
:10DDD00003F097C004F047EC63F001C094F002C078
:10DDE00095F003C096F004C097F0FFEF6EF094C07A
:10DDF00094F095C095F096C096F097C097F01200F9
:10DE000089C027F08AC028F08BC029F08CC02AF086
:10DE1000000E2B6E000E2C6E000E2D6E000E2E6E60
:10DE200084EC65F0D8A017EF6FF019EF6FF024EFD6
:10DE30006FF0000E0001896F000E8A6F800E8B6FED
:10DE40003F0E8C6F73EF70F0180E016E720E026E43
:10DE5000310E036E440E046E89C005F08AC006F0D0
:10DE60008BC007F08CC008F0FFEC66F0D8B03BEF39
:10DE70006FF03DEF6FF04CEF6FF0000E0001CE6FD2
:10DE8000220ECD6FFF0E896FFF0E8A6F7F0E8B6F94
:10DE90007F0E8C6F73EF70F089C001F08AC002F0C2
:10DEA0008BC003F08CC004F0870E056E480E066E22
:10DEB0003A0E076EC40E086EFFEC66F0D8B063EF42
:10DEC0006FF065EF6FF074EF6FF0000E0001CE6F32
:10DED000220ECD6F000E896F000E8A6F000E8B6FC1
:10DEE000000E8C6F73EF70F000018CBF7AEF6FF053
:10DEF0007DEF6FF0010E7EEF6FF0000E936F935188
:10DF0000D8B485EF6FF087EF6FF099EF6FF089C0AD
:10DF100001F08AC002F08BC003F08CC004F047EC23
:10DF200063F001C089F002C08AF003C08BF004C026
:10DF30008CF089C03BF08AC03CF08BC03DF08CC0B7
:10DF40003EF03B0E3F6EAA0E406EB80E416E3F0E85
:10DF5000426EBFEC73F03BC089F03CC08AF03DC01C
:10DF60008BF03EC08CF089C071F08AC072F08BC01B
:10DF700073F08CC074F030EC69F071C08DF072C039
:10DF80008EF073C08FF074C090F08DC00FF08EC013
:10DF900010F08FC011F090C012F081EC67F00FC04C
:10DFA00091F010C092F089C071F08AC072F08BC0FD
:10DFB00073F08CC074F091C019F092C01AF0000E8A
:10DFC0001ABEFF0E1B6E1C6E010EF1EC6BF019C039
:10DFD00075F01AC076F01BC077F01CC078F063ECC7
:10DFE00063F071C089F072C08AF073C08BF074C0A6
:10DFF0008CF089C071F08AC072F08BC073F08CC055
:10E0000074F0DF0E0001756FFE0E766F000E786FF4
:10E01000090E776F04EC68F071C081F072C082F075
:10E0200073C083F074C084F091C085F092C086F014
:10E0300094EC68F081C089F082C08AF083C08BF0D4
:10E0400084C08CF000019351D8B429EF70F02BEF0D
:10E0500070F06BEF70F089C027F08AC028F08BC099
:10E0600029F08CC02AF0FF0E2B6EFF0E2C6E7F0E57
:10E070002D6E7F0E2E6E84EC65F0D8A042EF70F00E
:10E0800044EF70F04FEF70F0000E0001896F000E4A
:10E090008A6F000E8B6F000E8C6F73EF70F0000EA6
:10E0A000546E000E556E800E566E3F0E576E89C030
:10E0B00058F08AC059F08BC05AF08CC05BF0F1EC7C
:10E0C00071F054C089F055C08AF056C08BF057C02B
:10E0D0008CF073EF70F089C089F08AC08AF08BC031
:10E0E0008BF08CC08CF012000001686F6D0E000187
:10E0F00068657DEF70F07FEF70F041EF71F0000E1A
:10E100003F6E000E406E000E416E3F0E426E000EDE
:10E11000096E640E086E68C006F0076AE8EC63F0EA
:10E12000D89006360736D89006360736480E0626AB
:10E13000000E0722AB0E0624F66EFE0E0720F76EC9
:10E14000F86A000EF82209006F00D4FF3BF00900C6
:10E150006F00D4FF3CF009006F00D4FF3DF00A00CF
:10E160006F00D4FF3EF0BFEC73F03BC064F03CC0E6
:10E1700065F03DC066F03EC067F0000E096E0A0E05
:10E18000086E000E046E640E036E68C001F0026A31
:10E19000B6EC63F001C006F002C007F0E8EC63F0F3
:10E1A000D89006360736D89006360736240E06264F
:10E1B000000E0722AB0E0624F66EFE0E0720F76E49
:10E1C000F86A000EF82209006F00D4FF3FF0090042
:10E1D0006F00D4FF40F009006F00D4FF41F00A0047
:10E1E0006F00D4FF42F064C03BF065C03CF066C0F5
:10E1F0003DF067C03EF0BFEC73F03BC060F03CC048
:10E2000061F03DC062F03EC063F060C03BF061C0B1
:10E210003CF062C03DF063C03EF0000E046E0A0E9A
:10E22000036E68C001F0026AB6EC63F0D890013664
:10E230000236D89001360236AB0E0124F66EFE0E81
:10E240000220F76EF86A000EF82209006F00D4FF72
:10E250003FF009006F00D4FF40F009006F00D4FFC9
:10E2600041F00A006F00D4FF42F0BFEC73F03BC0F6
:10E2700054F03CC055F03DC056F03EC057F0F0EFB2
:10E2800071F00A0E686547EF71F049EF71F0C3EF66
:10E2900071F0000E3F6E000E406E000E416E3F0E9C
:10E2A000426E000E096E0A0E086E68C006F0076A1C
:10E2B000E8EC63F0D89006360736D8900636073675
:10E2C000240E0626000E0722AB0E0624F66EFE0E66
:10E2D0000720F76EF86A000EF82209006F00D4FFDD
:10E2E0003BF009006F00D4FF3CF009006F00D4FF41
:10E2F0003DF00A006F00D4FF3EF0BFEC73F03BC06E
:10E3000064F03CC065F03DC066F03EC067F064C09C
:10E310003BF065C03CF066C03DF067C03EF0000ECB
:10E32000046E0A0E036E68C001F0026AB6EC63F078
:10E33000D89001360236D89001360236AB0E012451
:10E34000F66EFE0E0220F76EF86A000EF822090043
:10E350006F00D4FF3FF009006F00D4FF40F00900C8
:10E360006F00D4FF41F00A006F00D4FF42F0BFEC11
:10E3700073F03BC054F03CC055F03DC056F03EC079
:10E3800057F0F0EF71F06851040DAB0EF324F66E08
:10E39000FE0EF420F76EF86A000EF82209006F00F6
:10E3A000D4FF3BF009006F00D4FF3CF009006F0080
:10E3B000D4FF3DF00A006F00D4FF3EF0000E3F6E28
:10E3C000000E406E000E416E3F0E426EBFEC73F0C9
:10E3D0003BC054F03CC055F03DC056F03EC057F035
:10E3E00012005750800B0001646F575057246B6F19
:10E3F00056AEFDEF71F0FFEF71F000EF72F06B8140
:10E400006B51D8B406EF72F008EF72F01DEF72F0A6
:10E410006B29D8A40EEF72F010EF72F018EF72F0C3
:10E42000000E546E000E556E000E566E000E576EA6
:10E43000568E000E576E25EF72F0000E546E000ED1
:10E44000556E000E566E000E576E5B50800B641BAF
:10E450005B505B246C6F5AAE30EF72F032EF72F0AB
:10E4600033EF72F06C816C51D8B439EF72F03BEF3E
:10E4700072F050EF72F06C29D8A441EF72F043EFC4
:10E4800072F04BEF72F0000E586E000E596E000ED7
:10E490005A6E000E5B6E5A8E000E5B6E58EF72F075
:10E4A000000E586E000E596E000E5A6E000E5B6E16
:10E4B000585059105A105B10D8A461EF72F063EFF6
:10E4C00072F07BEF72F0000E546E000E556E000E6F
:10E4D000566E000E576E800E56127F0E5712645104
:10E4E000571254C054F055C055F056C056F057C09E
:10E4F00057F0BEEF73F06B51D8A481EF72F083EF49
:10E5000072F08DEF72F0000E546E000E556E000E1C
:10E51000566E000E576EBEEF73F06C516BC05CF020
:10E520005D6A5C5E000E5D5A7F0E5C24656F000EB6
:10E530005D20666F54C060F055C061F056C062F057
:10E5400057C063F0000E546E000E556E000E566EEE
:10E55000000E576E000E676F000E686F000E696F39
:10E56000000E6A6F000E6C6FEEEF72F06C51D8B453
:10E57000BCEF72F0BEEF72F0D5EF72F0D89060375A
:10E58000613762376337D89054365536563657362A
:10E590006AAFCDEF72F0CFEF72F0D0EF72F054802F
:10E5A000D8906737683769376A375850605D595077
:10E5B00061595A5062595B506359D8A0E2EF72F02A
:10E5C000E4EF72F0EDEF72F06A8D5850605F5950D1
:10E5D000615B5A50625B5B50635B6C2B190E6C6520
:10E5E000F4EF72F0F6EF72F0B6EF72F06051611175
:10E5F00062116311D8B4FFEF72F001EF73F019EFFD
:10E6000073F0678119EF73F0D8905436553656364B
:10E6100057366AAF0EEF73F010EF73F011EF73F02F
:10E620005480D8906737683769376A376507D8A04C
:10E63000660756AE1EEF73F020EF73F004EF73F031
:10E64000000E6C6F6AAF27EF73F029EF73F04DEF98
:10E6500073F0FF0E67155C6EFF0E68155D6EFF0EA2
:10E6600069155E6E7F0E6A155F6E5C505D105E1000
:10E670005F10D8B43EEF73F040EF73F044EF73F0E7
:10E68000010E6C6F4DEF73F054A049EF73F04BEF38
:10E6900073F04DEF73F040EF73F06C51D8B453EF5B
:10E6A00073F055EF73F079EF73F0010E5426000EFE
:10E6B00055225622572257A060EF73F062EF73F095
:10E6C00079EF73F054C05CF055C05DF056C05EF059
:10E6D00057C05FF05F345F325E325D325C325CC0E7
:10E6E00054F05DC055F05EC056F05FC057F0654B0A
:10E6F000662B66BF84EF73F0665108E16529D8A0E8
:10E7000084EF73F086EF73F091EF73F0000E666F95
:10E710006569000E546E000E556E000E566E000EAA
:10E72000576E66BF9EEF73F0665106E16505D8B07F
:10E730009CEF73F09EEF73F0ACEF73F0000E666F1A
:10E74000000E656F000E546E000E556E000E566E74
:10E75000000E576E000E646F65C06BF06BA1B3EFD7
:10E7600073F0B5EF73F0B8EF73F0568EB9EF73F046
:10E77000569ED8906B31576E6FEF72F012003E507C
:10E78000800B476E3E503E244D6E3DAECAEF73F097
:10E79000CCEF73F0CDEF73F04D804D50D8B4D3EF84
:10E7A00073F0D5EF73F0E8EF73F04D28D8A4DBEFEA
:10E7B00073F0DDEF73F0E5EF73F0000E3B6E000ECB
:10E7C0003C6E000E3D6E000E3E6E3D8EF0EF73F01F
:10E7D000000E3B6E000E3C6E000E3D6E000E3E6E57
:10E7E0004250800B471A425042244C6E41AEFBEF20
:10E7F00073F0FDEF73F0FEEF73F04C804C50D8B423
:10E8000004EF74F006EF74F019EF74F04C28D8A4FC
:10E810000CEF74F00EEF74F016EF74F0000E3F6E14
:10E82000000E406E000E416E000E426E418E21EFD2
:10E8300074F0000E3F6E000E406E000E416E000E32
:10E84000426E4C50D8B427EF74F029EF74F031EFDA
:10E8500074F04D50D8A42FEF74F031EF74F03BEF0B
:10E8600074F0000E3B6E000E3C6E000E3D6E000E0E
:10E870003E6EE5EF75F041503B026F00CCFF52F069
:10E880006F00D0FF53F05250486E496A4A6A4B6A93
:10E8900053504E6E4F6A506A516A40503C026F00AE
:10E8A000CCFF52F06F00D0FF53F052504826000EBC
:10E8B00049224A224B2253504E26000E4F2250220C
:10E8C00051223F503D026F00CCFF52F06F00D0FF4D
:10E8D00053F052504826000E49224A224B225350F0
:10E8E0004E26000E4F22502251224AC04BF049C002
:10E8F0004AF048C049F0486A3F503C026F00CCFFE4
:10E9000052F06F00D0FF53F0525048265350492226
:10E91000000E4A22000E4B2240503B026F00CCFFFB
:10E9200052F06F00D0FF53F0525048265350492206
:10E93000000E4A22000E4B224AC04BF049C04AF05A
:10E9400048C049F0486A3F503B026F00CCFF52F08C
:10E950006F00D0FF53F05250482653504922000E0A
:10E960004A22000E4B2241503C026F00CCFF52F075
:10E970006F00D0FF53F052504E2653504F22000EDE
:10E980005022000E512240503D026F00CCFF52F049
:10E990006F00D0FF53F052504E2653504F22000EBE
:10E9A0005022000E512241503D026F00CCFF52F028
:10E9B0006F00D0FF53F05250436E5350446E456A7F
:10E9C000466A45C046F044C045F043C044F0436A3F
:10E9D00043504E2644504F2245505022465051221B
:10E9E00048C043F049C044F04AC045F04BC046F02F
:10E9F000190E00EF75F0D89046324532443243325A
:10EA0000E82EFBEF74F043504E2644504F22455001
:10EA10005022465051224AC04BF049C04AF048C0EB
:10EA200049F0486A4C504DC043F0446A4326000EFA
:10EA30004422820E4324526EFF0E4420536E36EF62
:10EA400075F0D8904E364F36503651364BAE2BEFD0
:10EA500075F02DEF75F02EEF75F04E80D89048369A
:10EA600049364A364B365206D8A0530650AE3BEFD5
:10EA700075F03DEF75F021EF75F0000E4C6E4BAE6A
:10EA800044EF75F046EF75F06AEF75F0FF0E48142D
:10EA9000436EFF0E4914446EFF0E4A14456E7F0EFE
:10EAA0004B14466E4350441045104610D8B45BEFEB
:10EAB00075F05DEF75F061EF75F0010E4C6E6AEF69
:10EAC00075F04EA066EF75F068EF75F06AEF75F0BF
:10EAD0005DEF75F04C50D8B470EF75F072EF75F0D3
:10EAE00096EF75F0010E4E26000E4F225022512255
:10EAF00051A07DEF75F07FEF75F096EF75F04EC089
:10EB000043F04FC044F050C045F051C046F0463489
:10EB1000463245324432433243C04EF044C04FF097
:10EB200045C050F046C051F0524A532A53BEA1EF9F
:10EB300075F0535008E15228D8A0A1EF75F0A3EF6B
:10EB400075F0ADEF75F0000E4E6E000E4F6E800E3C
:10EB5000506E7F0E516EDBEF75F053BEBAEF75F05D
:10EB6000535006E15204D8B0B8EF75F0BAEF75F023
:10EB7000C6EF75F0000E4E6E000E4F6E000E506E1A
:10EB8000000E516E000E476EDBEF75F052C04DF077
:10EB9000FF0E4E16FF0E4F167F0E5016000E51162A
:10EBA0004DA0D5EF75F0D7EF75F0D8EF75F0508E1A
:10EBB000D8904D30516E475051124EC03BF04FC06F
:10EBC0003CF050C03DF051C03EF012005C6E5CBEA7
:10EBD000EEEF75F0ECEF75F018EF77F05C6C5C50D1
:10EBE000800A120FD8A0F7EF75F0F9EF75F097EFE4
:10EBF00076F0000E0A6E0A0E096E000E046E640EA8
:10EC0000036E5C50016E026A01BE0206D9EC65F02B
:10EC100001C007F002C008F031EC66F0090E0726CB
:10EC20000750040DAB0EF324F66EFE0EF420F76EC3
:10EC3000F86A000EF82209006F00D4FF3FF00900C7
:10EC40006F00D4FF40F009006F00D4FF41F00A00CC
:10EC50006F00D4FF42F0000E0A6E640E096E5C5025
:10EC6000076E086A07BE080631EC66F0120E07262A
:10EC70000750040DAB0EF324F66EFE0EF420F76E73
:10EC8000F86A000EF82209006F00D4FF3BF009007B
:10EC90006F00D4FF3CF009006F00D4FF3DF00A0084
:10ECA0006F00D4FF3EF0BFEC73F03BC058F03CC0A7
:10ECB00059F03DC05AF03EC05BF058C03BF059C01F
:10ECC0003CF05AC03DF05BC03EF0000E046E0A0EF0
:10ECD000036E5C50016E026A01BE0206D9EC65F05B
:10ECE0000150040DAB0EF324F66EFE0EF420F76E09
:10ECF000F86A000EF82209006F00D4FF3FF0090007
:10ED00006F00D4FF40F009006F00D4FF41F00A000B
:10ED10006F00D4FF42F0BFEC73F03BC054F03CC036
:10ED200055F03DC056F03EC057F03FEF78F05C50D4
:10ED3000800A750FD8A09FEF76F0A1EF76F0FBEF79
:10ED400076F0000E0A6E0A0E096E5C50076E086AB5
:10ED500007BE080631EC66F0090E07260750040DC1
:10ED6000AB0EF324F66EFE0EF420F76EF86A000E7A
:10ED7000F82209006F00D4FF3BF009006F00D4FFB8
:10ED80003CF009006F00D4FF3DF00A006F00D4FF93
:10ED90003EF0000E046E0A0E036E5C50016E026AB5
:10EDA00001BE0206D9EC65F00150040DAB0EF32450
:10EDB000F66EFE0EF420F76EF86A000EF8220900D7
:10EDC0006F00D4FF3FF009006F00D4FF40F009004E
:10EDD0006F00D4FF41F00A006F00D4FF42F0BFEC97
:10EDE00073F03BC054F03CC055F03DC056F03EC0FF
:10EDF00057F03FEF78F05C50040DAB0EF324F66E45
:10EE0000FE0EF420F76EF86A000EF82209006F007B
:10EE1000D4FF54F009006F00D4FF55F009006F00D3
:10EE2000D4FF56F00A006F00D4FF57F03FEF78F0A0
:10EE30005C50800A120FD8A020EF77F022EF77F015
:10EE4000C0EF77F0000E0A6E0A0E096E000E046E17
:10EE5000640E036E5C50016E026A01BE0206D9ECBC
:10EE600065F001C007F002C008F031EC66F0090E51
:10EE700007260750040D770EF324F66EFE0EF420DD
:10EE8000F76EF86A000EF82209006F00D4FF3FF019
:10EE900009006F00D4FF40F009006F00D4FF41F07B
:10EEA0000A006F00D4FF42F0000E0A6E640E096E75
:10EEB0005C50076E086A07BE080631EC66F0120E59
:10EEC00007260750040D770EF324F66EFE0EF4208D
:10EED000F76EF86A000EF82209006F00D4FF3BF0CD
:10EEE00009006F00D4FF3CF009006F00D4FF3DF033
:10EEF0000A006F00D4FF3EF0BFEC73F03BC058F047
:10EF00003CC059F03DC05AF03EC05BF058C03BF0E9
:10EF100059C03CF05AC03DF05BC03EF0000E046E9C
:10EF20000A0E036E5C50016E026A01BE0206D9EC45
:10EF300065F00150040D770EF324F66EFE0EF420FA
:10EF4000F76EF86A000EF82209006F00D4FF3FF058
:10EF500009006F00D4FF40F009006F00D4FF41F0BA
:10EF60000A006F00D4FF42F0BFEC73F03BC054F0D6
:10EF70003CC055F03DC056F03EC057F03FEF78F032
:10EF80005C50800A750FD8A0C8EF77F0CAEF77F011
:10EF900024EF78F0000E0A6E0A0E096E5C50076EC0
:10EFA000086A07BE080631EC66F0090E072607500E
:10EFB000040D770EF324F66EFE0EF420F76EF86A59
:10EFC000000EF82209006F00D4FF3BF009006F002B
:10EFD000D4FF3CF009006F00D4FF3DF00A006F0041
:10EFE000D4FF3EF0000E046E0A0E036E5C50016EFC
:10EFF000026A01BE0206D9EC65F00150040D770EDD
:10F00000F324F66EFE0EF420F76EF86A000EF82276
:10F0100009006F00D4FF3FF009006F00D4FF40F0FB
:10F0200009006F00D4FF41F00A006F00D4FF42F0E6
:10F03000BFEC73F03BC054F03CC055F03DC056F0FF
:10F040003EC057F03FEF78F05C50040D770EF3248C
:10F05000F66EFE0EF420F76EF86A000EF822090034
:10F060006F00D4FF54F009006F00D4FF55F0090081
:10F070006F00D4FF56F00A006F00D4FF57F0120063
:10F080005B50800B00016D6F5B505B246F6F5AAE5D
:10F090004CEF78F04EEF78F04FEF78F06F816F51D2
:10F0A000D8B455EF78F057EF78F06CEF78F06F291F
:10F0B000D8A45DEF78F05FEF78F067EF78F0000E9E
:10F0C000586E000E596E000E5A6E000E5B6E5A8E10
:10F0D000000E5B6E74EF78F0000E586E000E596EE5
:10F0E000000E5A6E000E5B6E5F50800B6E6F6D519E
:10F0F0006E19D8B47EEF78F080EF78F081EF78F079
:10F100006D8D5F505F246E6F5EAE89EF78F08BEF90
:10F1100078F08CEF78F06E816E51D8B492EF78F081
:10F1200094EF78F0A9EF78F06E29D8A49AEF78F0F0
:10F130009CEF78F0A4EF78F0000E5C6E000E5D6E30
:10F14000000E5E6E000E5F6E5E8E000E5F6EB1EFA3
:10F1500078F0000E5C6E000E5D6E000E5E6E000EAE
:10F160005F6E6F516E5DD8B0B8EF78F0BAEF78F09F
:10F17000E1EF78F06DADBFEF78F0C1EF78F0C3EF5D
:10F1800078F0800E6D1B6FC070F06EC06FF070C0B5
:10F190006EF058C070F05CC058F070C05CF059C0A0
:10F1A00070F05DC059F070C05DF05AC070F05EC084
:10F1B0005AF070C05EF05BC070F05FC05BF070C072
:10F1C0005FF0000E706F6F516EC069F06A6B695F1F
:10F1D000000E6A5B6ABFF6EF78F06A5109E11A0E19
:10F1E000695DD8A0F6EF78F0F8EF78F02FEF79F0BE
:10F1F000585059105A105B10D8A401EF79F004EF61
:10F2000079F0010E05EF79F0000E706F000E586E68
:10F21000000E596E000E5A6E000E5B6E6EC06FF0DF
:10F2200038EF79F070A117EF79F019EF79F01FEF4F
:10F2300079F0D89070310109706F21EF79F0D89092
:10F24000703358A026EF79F028EF79F029EF79F0A4
:10F25000708F5B345B325A32593258326F2B6E5199
:10F260006F5DD8A036EF79F038EF79F012EF79F0D2
:10F270006DBD3DEF79F03FEF79F07FEF79F06F51A1
:10F28000D8A445EF79F047EF79F051EF79F0000E0F
:10F29000586E000E596E000E5A6E000E5B6EA0EF97
:10F2A0007AF05C5058265D5059225E505A225F50C9
:10F2B0005B225BA05EEF79F060EF79F00CEF7AF003
:10F2C00070A165EF79F067EF79F06DEF79F0D89084
:10F2D00070310109706F6FEF79F0D890703358A0DA
:10F2E00074EF79F076EF79F077EF79F0708F5B3427
:10F2F0005B325A32593258326F2B0CEF7AF05C5035
:10F30000585C5D5059585E505A585B50800A696F7E
:10F310005F50800A6959D8B090EF79F092EF79F098
:10F32000BDEF79F058505C5C696F59505D586A6F59
:10F330005A505E586B6F5B505F586C6FFF0E6925BB
:10F34000586EFF0E6A21596EFF0E6B215A6EFF0E2A
:10F350006C215B6E800E6D1B706D7051D8A4B3EF85
:10F3600079F0B5EF79F0C5EF79F0010E5826000E6F
:10F3700059225A225B22C5EF79F05C50585E5D50ED
:10F38000595A5E505A5A5F505B5A585059105A1089
:10F390005B10D8A4CEEF79F0D0EF79F005EF7AF0DA
:10F3A0007051D8A4D6EF79F0D8EF79F005EF7AF064
:10F3B000000E586E000E596E000E5A6E000E5B6EF7
:10F3C000A0EF7AF0D890583659365A365B3670AF7F
:10F3D000ECEF79F0EEEF79F0EFEF79F0588070A173
:10F3E000F4EF79F0F6EF79F0FAEF79F0D880703732
:10F3F000FCEF79F0D89070376F51D8B402EF7AF003
:10F4000004EF7AF005EF7AF06F075AAE0AEF7AF060
:10F410000CEF7AF0E2EF79F0000E6E6F70AF13EF41
:10F420007AF015EF7AF02DEF7AF070C069F07F0E68
:10F430006917D8B41EEF7AF020EF7AF024EF7AF053
:10F44000010E6E6F2DEF7AF058A029EF7AF02BEFB6
:10F450007AF02DEF7AF020EF7AF06E51D8B433EFD6
:10F460007AF035EF7AF060EF7AF0010E5826000E50
:10F4700059225A225B225BA040EF7AF042EF7AF0E9
:10F4800060EF7AF058C069F059C06AF05AC06BF06A
:10F490005BC06CF06C356C336B336A33693369C0B5
:10F4A00058F06AC059F06BC05AF06CC05BF06F291D
:10F4B000D8B45DEF7AF05FEF7AF060EF7AF06F2BFF
:10F4C0006F29D8B466EF7AF068EF7AF070EF7AF0CF
:10F4D0006F51D8A46EEF7AF070EF7AF082EF7AF085
:10F4E000000E586E000E596E000E5A6E000E5B6EC6
:10F4F0006F51D8A47EEF7AF080EF7AF082EF7AF045
:10F50000000E6D6F6FA187EF7AF089EF7AF08CEFC4
:10F510007AF05A8E8DEF7AF05A9ED8906F315B6EEA
:10F520006DAF95EF7AF097EF7AF098EF7AF05B8E07
:10F5300058C058F059C059F05AC05AF05BC05BF03F
:10F5400012007B0E0001896F000E8A6F24EF7FF09E
:10F55000250E9D19D8B4AFEF7AF0B1EF7AF0B6EF7F
:10F560007AF09D51BFEC62F024EF7FF0000E8C6FBB
:10F57000000E8B6FD4EF7AF08C85F4EF7AF0600098
:10F5800027F2D9FF60002BF2DAFFDF509D6F020EE9
:10F590008927000E8A239D51BFEC62F024EF7FF093
:10F5A000C00E8B13F4EF7AF06000E7F1F6FF600015
:10F5B000EBF1F7FF794B7A2BF86A08006F00D4FF64
:10F5C0009DF09D51000AD8B43AEF7FF0630AD8B499
:10F5D000BFEF7AF0050AD8B4BCEF7AF0130AD8B4BA
:10F5E000D0EF7AF0CBEF7AF0070E8C15D8B4FBEFA2
:10F5F0007AF0FDEF7AF076EF7EF0000E8E6F060E59
:10F600008D6F600027F2D9FF60002BF2DAFF6F00E8
:10F6100078FF99F06F0078FF9AF06F0078FF9BF009
:10F620006F0078FF9CF0040E8927000E8A239CBF90
:10F630001EEF7BF01CEF7BF033EF7BF099C001F005
:10F640009AC002F09BC003F09CC004F047EC63F04A
:10F6500001C099F002C09AF003C09BF004C09CF076
:10F66000030E00018B13000E946F000E936F99C070
:10F6700027F09AC028F09BC029F09CC02AF0000E09
:10F680002B6E000E2C6E000E2D6E000E2E6E84EC76
:10F6900065F0D8B04EEF7BF050EF7BF0E3EF7BF0FE
:10F6A00000019B359C35820F936F946BFF0E942362
:10F6B0009307D8A0940793C001F094C002F0000E05
:10F6C000046E030E036E1AEC63F001C093F002C0E7
:10F6D00094F093C007F094C008F0000E0A6E0A0E72
:10F6E000096E31EC66F007C093F008C094F0000199
:10F6F00094BF7FEF7BF07DEF7BF082EF7BF0930791
:10F70000D8A0940793510008E6EC75F054C095F02A
:10F7100055C096F056C097F057C098F095C03BF092
:10F7200096C03CF097C03DF098C03EF099C03FF0C5
:10F730009AC040F09BC041F09CC042F0BFEC73F017
:10F740003BC095F03CC096F03DC097F03EC098F0AD
:10F7500095C001F096C002F097C003F098C004F085
:10F76000000E056E000E066E800E076E3F0E086ED0
:10F77000FFEC66F0D8B0BFEF7BF0C1EF7BF0C7EFD6
:10F780007BF000019307D8A09407E3EF7BF095C0CE
:10F7900001F096C002F097C003F098C004F0000E8C
:10F7A000056E000E066E200E076E410E086EFFEC11
:10F7B00066F0D8A0DEEF7BF0E0EF7BF0E3EF7BF0CC
:10F7C0000001934B942B99C058F09AC059F09BC0FC
:10F7D0005AF09CC05BF0060E74EC70F054C05CF004
:10F7E00055C05DF056C05EF057C05FF040EC78F059
:10F7F00058C099F059C09AF05AC09BF05BC09CF079
:10F80000000194BF0FEF7CF0945107E10A0E935D65
:10F81000D8B00DEF7CF00FEF7CF04CEF7CF099C08E
:10F8200027F09AC028F09BC029F09CC02AF0000E57
:10F830002B6E000E2C6E000E2D6E000E2E6E84ECC4
:10F8400065F0D8B026EF7CF028EF7CF0A1EF7CF0DB
:10F8500099C00FF09AC010F09BC011F09CC012F03C
:10F8600081EC67F00F50101011101210D8A43BEF6C
:10F870007CF03DEF7CF0A1EF7CF0000194BF4AEFFB
:10F880007CF0945109E1020E935DD8A04AEF7CF020
:10F890004CEF7CF0A1EF7CF095C001F096C002F037
:10F8A00097C003F098C004F05F0E056E700E066EF0
:10F8B000890E076E400E086EFFEC66F0D8B063EF5D
:10F8C0007CF065EF7CF06CEF7CF00001F70E932785
:10F8D000FF0E942371EF7CF00001F80E9327FF0ECA
:10F8E00094239351E6EC75F054C095F055C096F012
:10F8F00056C097F057C098F099C001F09AC002F036
:10F900009BC003F09CC004F095C005F096C006F0C3
:10F9100097C007F098C008F0D1EC69F001C08FF0F3
:10F9200002C090F003C091F004C092F0000E0001FC
:10F93000996F000E9A6F000E9B6F000E9C6FDDEFAB
:10F940007CF099C00FF09AC010F09BC011F09CC0E1
:10F9500012F081EC67F00FC08FF010C090F011C072
:10F9600091F012C092F099C071F09AC072F09BC0F1
:10F9700073F09CC074F08FC019F090C01AF091C061
:10F980001BF092C01CF0000EF1EC6BF019C075F08A
:10F990001AC076F01BC077F01CC078F063EC63F0FF
:10F9A00071C099F072C09AF073C09BF074C09CF063
:10F9B000000E0001946F000E936F010E9D6F9D511C
:10F9C000040D070EF324F66EFF0EF420F76EF86AAE
:10F9D000000EF8220900F5508F5D0900F55090598E
:10F9E0000900F55091590900F5509259D8B0FBEF34
:10F9F0007CF0FDEF7CF0FFEF7CF009EF7DF09D2BBC
:10FA00000A0E9D19D8A407EF7DF009EF7DF0DFEF16
:10FA10007CF0030E8B15836F000E8C15846F835161
:10FA20008411D8B416EF7DF018EF7DF069EF7DF00A
:10FA30002D0EBFEC62F069EF7DF08FC001F090C039
:10FA400002F091C003F092C004F09D51040D070E26
:10FA5000F324F66EFF0EF420F76EF86A000EF8221B
:10FA600009006F00D4FF05F009006F00D4FF06F015
:10FA700009006F00D4FF07F00A006F00D4FF08F000
:10FA800032EC65F001C095F002C096F003C097F02B
:10FA900004C098F095C00EF096C00FF097C010F01B
:10FAA00098C011F00A0E126E000E136E000E146E46
:10FAB000000E156EA2EC64F00EC095F00FC096F02B
:10FAC00010C097F011C098F000019551300FBFECB5
:10FAD00062F000019D079D29D8A471EF7DF073EFBE
:10FAE0007DF01DEF7DF07CEF7DF0300EBFEC62F01D
:10FAF00000019307D8A0940794BF89EF7DF094513B
:10FB000006E19305D8B087EF7DF089EF7DF075EFC2
:10FB10007DF08EBF95EF7DF08E5109E1090E8D5D70
:10FB2000D8A095EF7DF097EF7DF09BEF7DF0080E6C
:10FB30009D6F9DEF7DF08DC09DF09D518D5F000EFE
:10FB40008E5B9D51D8B4A7EF7DF0A9EF7DF0ACEFAF
:10FB50007DF02E0EBFEC62F000019D51E6EC75F0D9
:10FB600054C085F055C086F056C087F057C088F065
:10FB700099C03FF09AC040F09BC041F09CC042F059
:10FB800085C03BF086C03CF087C03DF088C03EF0A9
:10FB9000BFEC73F03BC00FF03CC010F03DC011F063
:10FBA0003EC012F081EC67F00FC08FF010C090F0F3
:10FBB00011C091F012C092F058EF7EF08FC001F0AA
:10FBC00090C002F091C003F092C004F09D51040D6A
:10FBD000070EF324F66EFF0EF420F76EF86A000E9F
:10FBE000F82209006F00D4FF05F009006F00D4FF70
:10FBF00006F009006F00D4FF07F00A006F00D4FF81
:10FC000008F032EC65F001C095F002C096F003C038
:10FC100097F004C098F095C00EF096C00FF097C012
:10FC200010F098C011F00A0E126E000E136E000E46
:10FC3000146E000E156EA2EC64F00EC095F00FC0AD
:10FC400096F010C097F011C098F000019551300F58
:10FC5000BFEC62F08FC00EF090C00FF091C010F0BA
:10FC600092C011F000019D51040D070EF324F66EB1
:10FC7000FF0EF420F76EF86A000EF82209006F00FC
:10FC8000D4FF12F009006F00D4FF13F009006F00D9
:10FC9000D4FF14F00A006F00D4FF15F0A2EC64F05A
:10FCA0000EC08FF00FC090F010C091F011C092F014
:10FCB00000019D079D29D8A460EF7EF062EF7EF0E1
:10FCC000DEEF7DF06BEF7EF0300EBFEC62F00001F6
:10FCD0008D07D8A08E078D518E11D8A472EF7EF0BB
:10FCE00074EF7EF064EF7EF024EF7FF0600027F287
:10FCF000D9FF60002BF2DAFF6F0078FF83F06F000E
:10FD000074FF84F083C08FF084C090F0916B926B8D
:10FD1000020E8927000E8A23010E9D6F9D51040D4E
:10FD2000070EF324F66EFF0EF420F76EF86A000E4D
:10FD3000F8220900F5508F5D0900F550905909002F
:10FD4000F55091590900F5509259D8B0AAEF7EF0BC
:10FD5000ACEF7EF0AEEF7EF0B8EF7EF09D2B0A0E9A
:10FD60009D19D8A4B6EF7EF0B8EF7EF08EEF7EF04E
:10FD7000030E8B15836F000E8C15846F83518411D5
:10FD8000D8B4C5EF7EF0C7EF7EF0CAEF7EF02D0E3F
:10FD9000BFEC62F09DC08DF000018E6B16EF7FF01E
:10FDA0008DC083F08EC084F0D89083378437D8908C
:10FDB00083378437070E8325F66EFF0E8421F76E96
:10FDC000F86A000EF82209006F00D4FF05F0090060
:10FDD0006F00D4FF06F009006F00D4FF07F00A009F
:10FDE0006F00D4FF08F08FC001F090C002F091C006
:10FDF00003F092C004F032EC65F001C00EF002C0D6
:10FE00000FF003C010F004C011F00A0E126E000EC5
:10FE1000136E000E146E000E156EA2EC64F00E5000
:10FE2000300F00019D6F9D51BFEC62F000018D0706
:10FE3000D8A08E078D2906E18E29D8A422EF7FF065
:10FE400024EF7FF0D0EF7EF06000E7F1F6FF600076
:10FE5000EBF1F7FF0001794B7A2BF86A08006F008D
:10FE6000D4FF9DF09D51D8A438EF7FF03AEF7FF09A
:10FE7000A8EF7AF01200000000803F00002041004F
:10FE800000C84200007A4400401C460050C34700AE
:10FE90002474498096184B20BCBE4C286B6E4EF9DA
:10FEA000021550EC78AD60CAF249710000803FCD78
:10FEB000CCCC3D0AD7233C6F12833A17B7D138AC6C
:10FEC000C52737BD37863595BFD63377CC2B325F04
:10FED000708930FFE6DB2E08E53C1E6042A20D0073
:10FEE00000803F1872313FF0FD753E4758633D5822
:10FEF000951D3C82C4AE3AA8782139EF938037A093
:10FF000092A73546561534010000000A000000642F
:10FF1000000000E803000010270000A08601004058
:10FF2000420F008096980000E1F50500CA9A3B0058
:10FF3000000000C4FF7F3F80EFFFBE90E1A93EECD0
:10FF40008276BE82AD2B3E0E3CC3BD87D1133D41B0
:10FF500078D3BB0A0D74203D2025662073202869C4
:10FF60006E636F7272656374206966206F76657266
:10FF7000666C6F77206F63637572726564292066A3
:10FF80006C6167203D202575200A0D000A0D426C2A
:10FF90006F636B2070686F746F676174652077683A
:10FFA000656E65766572207265616479200A0A0D56
:10FFB000000A0D206E3D202575200A0D2078746101
:10FFC0006C3D2025660A0D000A0D70686F746F671E
:10FFD00061746520756E626C6F636B6564000A0DF9
:10FFE00070686F746F6761746520626C6F636B65B6
:10FFF000640025632563256325630000CAEF62F072
:020000040020DA
:10000000FF0FFF0FFF0FFF0FFF0FFF0FFF0FFF0F80
:020000040030CA
:0A000000ECFEF7FF9FFFFFFFFFFF7C
:00000001FF
