:020000040000FA
:04000000FEEF7FF0A0
:10941C0001C0CCF102C0CDF1120001C0D0F102C0EC
:10942C00D1F1120001C0CEF102C0CFF11200026ED8
:10943C00025037EC4AF0120055EC4AF00CEC4CF0B0
:10944C002BEC4AF045EC4BF01200620E3901D96F4F
:10945C00000EDB6F000EDD6F020EDF6F000EDE6F95
:10946C001200016E3901A6A73EEF4AF040EF4AF018
:10947C0038EF4AF0600007F0D2FD1200FF0E056EC7
:10948C00FF0E066EFF0E076E7F0E086E05C001F014
:10949C0006C002F007C003F008C004F01200000E72
:1094AC003901C06F000EC16F000EC26F000EC36F8A
:1094BC00000EC46F000EC56F000EC66F000EC76F96
:1094CC001200C20E0001D06F000ED16F000EB86FEB
:1094DC00000EB96FC0C0BAF0C1C0BBF0D00EBC6FEB
:1094EC00000EBD6FA3EC4BF0120000EE00F2500E1C
:1094FC00EE6AE806FDE100EEBCF1100EEE6AE8063D
:10950C00FDE100EEF6F00A0EEE6AE806FDE15F6A98
:10951C000001A6EF51F0C0C105F0C1C106F0C2C1F7
:10952C0007F0C3C108F001C005F002C006F003C08B
:10953C0007F004C008F0089E05C001F006C002F058
:10954C0007C003F008C004F0120001500210031011
:10955C000410D8B4B4EF4AF0B6EF4AF0BEEF4AF0BC
:10956C00000E011A000E021A000E031A800E041AC5
:10957C0001C001F002C002F003C003F004C004F00B
:10958C001200BF0E036EFF0E046E01C005F002C088
:10959C0006F0035005260450062206500AE11A0E66
:1095AC00055CD8A0DCEF4AF0DFEF4AF0010EE0EFEB
:1095BC004AF0000E016E026A120001C003F002C0F4
:1095CC0004F0EBEF4AF0014A022A600007F0D9FFE1
:1095DC0060000BF0DAFFDF50D8A4F7EF4AF0F9EF98
:1095EC004AF0E9EF4AF00350015C016E0450025856
:1095FC00026E1200000E126E000E116E11EF4BF087
:10960C0010C003F0046A0EC005F00FC006F056EC53
:10961C004CF0114A122A11500C24D96E12500D2004
:10962C00DA6EDF50106E1050D8A41FEF4BF021EF04
:10963C004BF006EF4BF01200000E2E1A000E2F1AF4
:10964C00000E301A800E311A2AC001F02BC002F025
:10965C002CC003F02DC004F02EC005F02FC006F076
:10966C0030C007F031C008F055EC5BF001C02AF0B7
:10967C0002C02BF003C02CF004C02DF01200000E21
:10968C003D01D46F000ED66F000ED86FB00EDA6F9E
:10969C00800EDB6F000EDC6F190EDD6F000EDE6FBF
:1096AC00000EDF6F000EE06F000EE16F000EE26F38
:1096BC00000E016E000E026E13EC4AF0000E016EED
:1096CC00000E026E18EC4AF0000E016E000E026ED7
:1096DC000EEC4AF0000E5F6E1200BF0E096EFF0E0C
:1096EC000A6E07C00BF008C00CF009500B260A508C
:1096FC000C220C500AE11A0E0B5CD8A088EF4BF030
:10970C008BEF4BF0010E8CEF4BF0000E0D6E0E6AD2
:10971C000D500E10D8B495EF4BF097EF4BF09EEF29
:10972C004BF0200E0710076E0850086EA2EF4BF09E
:10973C0007C007F008C008F01200BAC0BEF0BBC0EA
:10974C00BFF0000E0001F96F000EF86FC1EF4BF087
:10975C00B8C0A4F0B9C0A5F0BE0EA66F000EA76FDE
:10976C00BCC0A8F0BDC0A9F014EC57F00001A45186
:10977C00F827A551F9236000FBF2F6FF6000FFF219
:10978C00F7FFF86A0800F5500009D8A4D0EF4BF0A9
:10979C00D2EF4BF0AEEF4BF0F8C0B8F0F9C0B9F027
:1097AC00120003C007F004C008F001C009F002C0A9
:1097BC000AF00750056E0850066E074A082A60002A
:1097CC0017F0F6FF60001BF0F7FF000EF86E60005C
:1097DC0027F0D9FF60002BF0DAFF094A0A2A0F0E96
:1097EC00F76403D00800F55007D06F00DBFFE9FFEA
:1097FC006F00DFFFEAFFEF50DF6EDF50D8A409EFF8
:10980C004CF00BEF4CF0DFEF4BF01200000EBE6E85
:10981C00000EBD6E000EBA6E000EBB6E000EBC6E5E
:10982C00070EC66EC268BF0EC36EC468C5683A0127
:10983C00706960697F0E506F070E806F4069000E73
:10984C00716F000E816F000E516F000E416F000E94
:10985C00616F000E5A6F000E5B6F000E6A6F000E88
:10986C006B6F000E7A6F000E7B6F000E826F000E16
:10987C00426F000E526F000E626F000E726F4369E2
:10988C00536963697369070E836F4469546964692A
:10989C0074690F0E846F0F0EE86F160E0E6F1200A8
:1098AC0005500610D8B45DEF4CF05FEF4CF068EF4C
:1098BC004CF005500610D8A466EF4CF068EF4CF055
:1098CC006DEF4CF003501DEC4AF0A0EF4CF020EE85
:1098DC0004F00550D9260650DA22DE50DE10D8B43A
:1098EC007AEF4CF07CEF4CF097EF4CF020EE04F05C
:1098FC000550D9260650DA2210EE02F00550E1266A
:10990C000650E222DE50E65CE650800A0B6EDE501A
:10991C00800A0B58D8B095EF4CF097EF4CF0A0EFB5
:10992C004CF020EE02F00550D9260650DA22DE2A41
:10993C00000EDD221200000E0114096E000E02143E
:10994C000A6E800E03140B6E7F0E04140C6E0950FD
:10995C000A100B100C10D8A4B6EF4CF0B8EF4CF06A
:10996C00C0EF4CF0000E016E000E026E000E036E86
:10997C00000E046E000E0514096E000E06140A6E1D
:10998C00800E07140B6E7F0E08140C6E09500A1013
:10999C000B100C10D8A4D5EF4CF0D7EF4CF0DFEF38
:1099AC004CF0000E056E000E066E000E076E000EDB
:1099BC00086E055001180FE1065002180CE1075013
:1099CC00031809E108500418D8B4EFEF4CF0F1EF8C
:1099DC004CF0F4EF4CF0D890F5EF4CF0D88012002E
:1099EC00000E066E02BEFFEF4CF0FDEF4CF005EFE3
:1099FC004DF0016C021ED8B0022A010E066E04BE98
:109A0C000CEF4DF00AEF4DF010EF4DF0036C041E0F
:109A1C00D8B0042A03500410D8B417EF4DF019EF46
:109A2C004DF03DEF4DF0010E056E21EF4DF0D8904D
:109A3C0003360436052A04AE26EF4DF028EF4DF020
:109A4C001DEF4DF00350015C04500258D8A031EFCB
:109A5C004DF033EF4DF037EF4DF00350015E0450F5
:109A6C00025AD89004320332052E28EF4DF00650DE
:109A7C00D8B443EF4DF045EF4DF049EF4DF0016C8C
:109A8C00021ED8B0022A01C001F002C002F012007E
:109A9C00000E066E04BE57EF4DF055EF4DF05DEF26
:109AAC004DF0036C041ED8B0042A010E066E02BEE3
:109ABC0064EF4DF062EF4DF06AEF4DF0016C021E59
:109ACC00D8B0022A010E061A000E086E000E076EA0
:109ADC0003500410D8B475EF4DF077EF4DF09FEFB5
:109AEC004DF0010E056E7FEF4DF0D8900336043625
:109AFC00052A04AE84EF4DF086EF4DF07BEF4DF070
:109B0C00D890073608360350015C04500258D8A090
:109B1C0092EF4DF094EF4DF099EF4DF00350015E44
:109B2C000450025A0780D89004320332052E86EF77
:109B3C004DF00650D8B4A5EF4DF0A7EF4DF0ABEFBC
:109B4C004DF0076C081ED8B0082A07C001F008C0F9
:109B5C0002F012000001FEA1B6EF4DF0B8EF4DF08F
:109B6C00C2EF4DF015C00CF016C00DF013C00EF086
:109B7C0014C00FF000EC4BF018BEC7EF4DF0C9EF5E
:109B8C004DF0CFEF4DF017C01CF018C01DF0D3EF07
:109B9C004DF0000E1D6E000E1C6E000E1B6E000EA6
:109BAC001A6EE5EF4DF0000E046E200E036E13C01E
:109BBC0005F014C006F056EC4CF01A4A1B2A1C5047
:109BCC001A5C1B50800A196E1D50800A1958D8A0B7
:109BDC00F2EF4DF0F4EF4DF0D9EF4DF00001FEB186
:109BEC00FAEF4DF0FCEF4DF006EF4EF015C00CF017
:109BFC0016C00DF013C00EF014C00FF000EC4BF0BB
:109C0C0015C001F016C002F0E3EC4AF01C50012420
:109C1C00136E1D500220146E120001C008F002C019
:109C2C0009F003C00AF004C00BF00506D8A0060624
:109C3C00052806E10628D8A426EF4EF028EF4EF0B2
:109C4C0035EF4EF0000E026E000E016E8CEF4EF0F2
:109C5C00084A092A0A4A0B2A0506D8A006066000FB
:109C6C0023F0D9FF600027F0DAFFDF50D8B441EFC2
:109C7C004EF043EF4EF076EF4EF060002BF0F6FF17
:109C8C0060002FF0F7FFF86A0800F5500009D8B40F
:109C9C0052EF4EF054EF4EF076EF4EF005500610AA
:109CAC00D8B45BEF4EF05DEF4EF076EF4EF0600007
:109CBC0023F0D9FF600027F0DAFFDF50076E600059
:109CCC002BF0F6FF60002FF0F7FFF86A0800F55054
:109CDC000718D8B474EF4EF076EF4EF02EEF4EF02E
:109CEC00600023F0D9FF600027F0DAFFDF50076E29
:109CFC0060002BF0F6FF60002FF0F7FFF86A080009
:109D0C00F550075C016E026AD8A002061200000E24
:109D1C004B6E000E4C6E800E4D6E3F0E4E6E15EC63
:109D2C0060F04BC09AF04CC09BF04DC09CF04EC004
:109D3C009DF0000E00018C6F000E8D6F400E8E6F2B
:109D4C00400E8F6F92C088F093C089F094C08AF057
:109D5C0095C08BF0ABEC6AF088C09EF089C09FF088
:109D6C008AC0A0F08BC0A1F0000E156E000E166E0E
:109D7C00800E176E410E186E9AC011F09BC012F037
:109D8C009CC013F09DC014F02EEC59F011C0A2F041
:109D9C0012C0A3F013C0A4F014C0A5F09EC015F01F
:109DAC009FC016F0A0C017F0A1C018F0A2C011F00F
:109DBC00A3C012F0A4C013F0A5C014F02EEC59F0FF
:109DCC0011C032F012C033F013C034F014C035F0AF
:109DDC00000E366E000E376E400E386E400E396E29
:109DEC0047EC55F032C096F033C097F034C098F081
:109DFC0035C099F096C092F097C093F098C094F04B
:109E0C0099C095F01200C8C10BF0C9C10CF0CAC1C1
:109E1C000DF0CBC10EF001C00BF002C00CF003C072
:109E2C000DF004C00EF00BC005F00CC006F00DC018
:109E3C0007F00EC008F0180E29EF4FF0D89008323A
:109E4C00073206320532E82E24EF4FF00550096E2A
:109E5C000A6A09500A10D8A436EF4FF038EF4FF0C9
:109E6C0058EF4FF0D8900B34056E0C34066E0D3451
:109E7C00076E0E34086E0550061007100810D8A493
:109E8C004AEF4FF04CEF4FF052EF4FF0000E026ED6
:109E9C00020E016E87EF4FF0000E026E030E016E84
:109EAC0087EF4FF009280A10D8A45FEF4FF061EF4D
:109EBC004FF083EF4FF00BC005F00CC006F00DC057
:109ECC0007F00EC008F0090ED89005360636073696
:109EDC000836E82E6AEF4FF00550061007100810F0
:109EEC00D8B47BEF4FF07EEF4FF0010E7FEF4FF0C9
:109EFC00000E016E026A87EF4FF0000E026E040E28
:109F0C00016E1200000E32143A6E000E33143B6ECA
:109F1C00800E34143C6E7F0E35143D6E3A503B105F
:109F2C003C103D10D8A49DEF4FF09FEF4FF0A7EFE2
:109F3C004FF0000E326E000E336E000E346E000EBB
:109F4C00356E000E36143A6E000E37143B6E800ED2
:109F5C0038143C6E7F0E39143D6E3A503B103C1059
:109F6C003D10D8A4BCEF4FF0BEEF4FF0C6EF4FF052
:109F7C00000E366E000E376E000E386E000E396E07
:109F8C0035AECBEF4FF0CDEF4FF0D6EF4FF0326C4C
:109F9C00331ED8B0332A341ED8B0342A800E35562E
:109FAC0039AEDBEF4FF0DDEF4FF0E6EF4FF0366CF4
:109FBC00371ED8B0372A381ED8B0382A800E3956FA
:109FCC00000E321A000E331A000E341A800E351A97
:109FDC00000E361A000E371A000E381A800E391A77
:109FEC003650325C37503358385034583950355815
:109FFC00D8B003EF50F005EF50F008EF50F0D890C8
:10A00C0009EF50F0D8801200033404340A6E0A5061
:10A01C00D8A413EF50F015EF50F01FEF50F0000ED6
:10A02C00016E000E026E000E036E000E046E8CEFBD
:10A03C0050F001C005F002C006F003C007F004C0E8
:10A04C0008F0200E2FEF50F0D8900832073206326D
:10A05C000532E82E2AEF50F00550096E038EFF0EE4
:10A06C000116FF0E0216FF0E0316000E0416960EB6
:10A07C000A5E0ABE46EF50F044EF50F05CEF50F031
:10A08C000A50800A970FD8B04EEF50F050EF50F0B6
:10A09C0052EF50F015EF50F0D890043203320232E8
:10A0AC0001320A3E52EF50F074EF50F01F0E0A646A
:10A0BC0062EF50F064EF50F06CEF50F015EF50F091
:10A0CC00D89001360236033604360A060A50D8A454
:10A0DC0072EF50F074EF50F066EF50F00950D8B4B6
:10A0EC007AEF50F07CEF50F084EF50F0041E031E1A
:10A0FC00021E016C000E02220322042201C001F098
:10A10C0002C002F003C003F004C004F01200000E01
:10A11C004B6E000E4C6E800E4D6E3F0E4E6E15EC5F
:10A12C0060F04BC09EF04CC09FF04DC0A0F04EC0F4
:10A13C00A1F0000E156E000E166E800E176E400EFE
:10A14C00186E9EC011F09FC012F0A0C013F0A1C0F9
:10A15C0014F02EEC59F011C0A2F012C0A3F013C0F1
:10A16C00A4F014C0A5F096C015F097C016F098C0D6
:10A17C0017F099C018F0A2C011F0A3C012F0A4C03F
:10A18C0013F0A5C014F02EEC59F011C0A6F012C0BB
:10A19C00A7F013C0A8F014C0A9F0000E00018C6F3A
:10A1AC00000E8D6F000E8E6F400E8F6F92C088F078
:10A1BC0093C089F094C08AF095C08BF0ABEC6AF038
:10A1CC0088C0AAF089C0ABF08AC0ACF08BC0ADF0EF
:10A1DC00A6C011F0A7C012F0A8C013F0A9C014F0CB
:10A1EC00AAC015F0ABC016F0ACC017F0ADC018F09B
:10A1FC002EEC59F011C09AF012C09BF013C09CF0D9
:10A20C0014C09DF09AC092F09BC093F09CC094F047
:10A21C009DC095F01200000E4B6E000E4C6E800E21
:10A22C004D6E3F0E4E6E15EC60F04BC096F04CC070
:10A23C0097F04DC098F04EC099F0000E156E000EC0
:10A24C00166E800E176E410E186E96C011F097C0E8
:10A25C0012F098C013F099C014F02EEC59F011C004
:10A26C009AF012C09BF013C09CF014C09DF053C028
:10A27C0015F054C016F055C017F056C018F09AC01F
:10A28C0011F09BC012F09CC013F09DC014F02EEC8A
:10A29C0059F011C09EF012C09FF013C0A0F014C072
:10A2AC00A1F057C015F058C016F059C017F05AC09D
:10A2BC0018F09EC011F09FC012F0A0C013F0A1C006
:10A2CC0014F02EEC59F011C0A2F012C0A3F013C080
:10A2DC00A4F014C0A5F05BC015F05CC016F05DC016
:10A2EC0017F05EC018F0A2C011F0A3C012F0A4C009
:10A2FC0013F0A5C014F02EEC59F011C032F012C0BE
:10A30C0033F013C034F014C035F0000E366E000E6E
:10A31C00376E400E386E400E396E47EC55F032C039
:10A32C0092F033C093F034C094F035C095F092C0E5
:10A33C0053F093C054F094C055F095C056F01200F1
:10A34C0022EC4AF0000E0001D26F000ED36F600EAB
:10A35C00D46F400ED56F000ED66F000ED76FA00EC7
:10A36C00D86F400ED96F000EDA6F000EDB6F200E27
:10A37C00DC6F410EDD6F000EDE6F000EDF6F400EE6
:10A38C00E06F400EE16F000EE26F000EE36F800E87
:10A39C00E46F400EE56F000EE66F000EE76FC00E27
:10A3AC00E86F400EE96FD2C092F0D3C093F0D4C0E6
:10A3BC0094F0D5C095F08DEC4EF092C0EAF093C0BD
:10A3CC00EBF094C0ECF095C0EDF0D6C092F0D7C095
:10A3DC0093F0D8C094F0D9C095F0DAC096F0DBC0F9
:10A3EC0097F0DCC098F0DDC099F08DEC50F092C085
:10A3FC00EEF093C0EFF094C0F0F095C0F1F0DEC039
:10A40C0053F0DFC054F0E0C055F0E1C056F0E2C0AC
:10A41C0057F0E3C058F0E4C059F0E5C05AF0E6C07C
:10A42C005BF0E7C05CF0E8C05DF0E9C05EF011ECF9
:10A43C0051F053C0F2F054C0F3F055C0F4F056C0D4
:10A44C00F5F0930E0001C06FFF0EC16FEAC0C2F0B1
:10A45C00EBC0C3F0ECC0C4F0EDC0C5F0EEC0C6F06C
:10A46C00EFC0C7F0F0C0C8F0F1C0C9F0F2C0CAF03C
:10A47C00F3C0CBF0F4C0CCF0F5C0CDF067EC4AF0F3
:10A48C0046EF52F0FEEF7FF0096E0950D8B451EF51
:10A49C0052F053EF52F075EF52F004BE5AEF52F0F7
:10A4AC0058EF52F075EF52F001C005F002C006F003
:10A4BC0003C007F004C008F0051E061E071E081E88
:10A4CC00052A000E06220722082205C00BF006C042
:10A4DC000CF007C00DF008C00EF07DEF52F001C07B
:10A4EC000BF002C00CF003C00DF004C00EF00150D4
:10A4FC00021003100410D8A486EF52F088EF52F02B
:10A50C0092EF52F0000E016E000E026E000E036E02
:10A51C00000E046E23EF53F0960E0A6E9CEF52F071
:10A52C000A2AD8900E320D320C320B32000E0B145C
:10A53C00056E000E0C14066E000E0D14076EFE0E4A
:10A54C000E14086E0550061007100810D8A4B1EFB1
:10A55C0052F0B3EF52F096EF52F0C1EF52F00A2ADC
:10A56C00010E0B26000E0C220D220E22D8900E325C
:10A57C000D320C320B32000E0B14056E000E0C1447
:10A58C00066E000E0D14076EFF0E0E14086E0550AD
:10A59C00061007100810D8A4D6EF52F0D8EF52F0DE
:10A5AC00B5EF52F0E0EF52F00A06D8900B360C36AD
:10A5BC000D360E360DBEE5EF52F0E7EF52F0EFEF31
:10A5CC0052F0020E0A60EDEF52F0EFEF52F0DAEFBC
:10A5DC0052F00AB0F4EF52F0F6EF52F0F7EF52F0FF
:10A5EC000D9ED8900A320AC005F0066A076A086AFE
:10A5FC0005C008F0076A066A056A05500B1206507A
:10A60C000C1207500D1208500E120950D8B411EF4D
:10A61C0053F013EF53F01BEF53F004BE1AEF53F04B
:10A62C0018EF53F01BEF53F00E8E0BC001F00CC063
:10A63C0002F00DC003F00EC004F01200BCC15BF0C0
:10A64C00BDC15CF0BEC15DF0BFC15EF04BC05BF044
:10A65C004CC05CF04DC05DF04EC05EF0810E4F6E94
:10A66C00FF0E506E5BC051F05CC052F05DC053F0F9
:10A67C005EC054F0180E48EF53F0D8905432533259
:10A68C0052325132E82E43EF53F051504F24596E51
:10A69C00000E50205A6E5ABE5DEF53F05A5009E12D
:10A6AC00170E595CD8A05DEF53F05FEF53F069EFD4
:10A6BC0053F04BC04BF04CC04CF04DC04DF04EC065
:10A6CC004EF02CEF54F05ABE6EEF53F070EF53F087
:10A6DC00E0EF53F059C04FF0FF0E506EFF0E516E6D
:10A6EC007F0E526E000E536E4F667FEF53F087EF66
:10A6FC0053F0533453325232513250324F2E7AEF90
:10A70C0053F050C055F051C056F052C057F053C0E2
:10A71C0058F055505B144F6E56505C14506E575099
:10A72C005D14516E58505E14526E4F5050105110B3
:10A73C005210D8A4A4EF53F0A6EF53F0A8EF53F0A7
:10A74C005FEF53F05BC04FF05CC050F05DC051F058
:10A75C005EC052F0200EB8EF53F0D8905232513206
:10A76C0050324F32E82EB3EF53F04F50501051107F
:10A77C005210D8B4C4EF53F0C6EF53F0CEEF53F0F1
:10A78C0055505B2656505C2257505D2258505E2225
:10A79C00551C4F6E561C506E571C516E581C526EE9
:10A7AC004F505B1650505C1651505D1652505E1651
:10A7BC0024EF54F05BC04FF05CC050F05DC051F022
:10A7CC005EC052F0200EF0EF53F0D890523251325E
:10A7DC0050324F32E82EEBEF53F04F5050105110D7
:10A7EC005210D8A4FCEF53F0FEEF53F008EF54F0E6
:10A7FC00000E5B6E000E5C6E000E5D6E000E5E6EEB
:10A80C0024EF54F0D8905B344F6E5C34506E5D3452
:10A81C00516E5E34526E4F50501051105210D8B4CD
:10A82C001AEF54F01CEF54F024EF54F0000E5B6E52
:10A83C00000E5C6E800E5D6EBF0E5E6E5BC04BF0EC
:10A84C005CC04CF05DC04DF05EC04EF012002AC0F2
:10A85C0038F02BC039F02CC03AF02DC03BF02FBE95
:10A86C0041EF54F02F5009E1800E2E5CD8A041EF3F
:10A87C0054F043EF54F0A1EF54F038C011F039C04C
:10A88C0012F03AC013F03BC014F0000E156E000E1F
:10A89C00166E000E176E7F0E186E2EEC59F011C04E
:10A8AC0038F012C039F013C03AF014C03BF0810EEE
:10A8BC002E26FF0E2F222FBE6DEF54F02F5009E1E4
:10A8CC00800E2E5CD8A06DEF54F06FEF54F00BEFB0
:10A8DC0055F038C011F039C012F03AC013F03BC03B
:10A8EC0014F0000E156E000E166E000E176E7F0E15
:10A8FC00186E2EEC59F011C038F012C039F013C09C
:10A90C003AF014C03BF0810E2E26FF0E2F222FBEE4
:10A91C0099EF54F02F5009E1800E2E5CD8A099EFDE
:10A92C0054F09BEF54F00BEF55F0000E2F6E7F0E92
:10A93C002E6E0BEF55F02FAEADEF54F0820E2E5C59
:10A94C00FF0E2F58D8B0ADEF54F0AFEF54F00BEF23
:10A95C0055F038C011F039C012F03AC013F03BC0BA
:10A96C0014F0000E156E000E166E800E176E0C0E87
:10A97C00186E2EEC59F011C038F012C039F013C01B
:10A98C003AF014C03BF0660E2E26000E2F222FAE8E
:10A99C00D9EF54F0820E2E5CFF0E2F58D8B0D9EFA1
:10A9AC0054F0DBEF54F00BEF55F038C011F039C018
:10A9BC0012F03AC013F03BC014F0000E156E000EEE
:10A9CC00166E800E176E0C0E186E2EEC59F011C010
:10A9DC0038F012C039F013C03AF014C03BF0660ED8
:10A9EC002E26000E2F222FAE05EF55F0820E2E5C78
:10A9FC00FF0E2F58D8B005EF55F007EF55F00BEFC1
:10AA0C0055F0FF0E2F6E820E2E6E7F0E2E24306EA2
:10AA1C00000E2F20316E326A336A170ED890303602
:10AA2C00313632363336E82E14EF55F030C034F070
:10AA3C0031C035F032C036F033C037F034C011F0CD
:10AA4C0035C012F036C013F037C014F038C015F012
:10AA5C0039C016F03AC017F03BC018F02EEC59F084
:10AA6C0011C02AF012C02BF013C02CF014C02DF022
:10AA7C002AC02AF02BC02BF02CC02CF02DC02DF0AE
:10AA8C0012003550800B426E35503524496E34AE71
:10AA9C0052EF55F054EF55F055EF55F049804950B1
:10AAAC00D8B45BEF55F05DEF55F072EF55F04928D7
:10AABC00D8A463EF55F065EF55F06DEF55F0000E2F
:10AACC00326E000E336E000E346E000E356E348E08
:10AADC00000E356E7AEF55F0000E326E000E336EAE
:10AAEC00000E346E000E356E3950800B421A395000
:10AAFC0039244A6E38AE85EF55F087EF55F088EF64
:10AB0C0055F04A804A50D8B48EEF55F090EF55F07E
:10AB1C00A5EF55F04A28D8A496EF55F098EF55F0CC
:10AB2C00A0EF55F0000E366E000E376E000E386E2C
:10AB3C00000E396E388E000E396EADEF55F0000EEA
:10AB4C00366E000E376E000E386E000E396E3650B3
:10AB5C00371038103910D8A4B6EF55F0B8EF55F0BF
:10AB6C00D0EF55F0000E326E000E336E000E346EC8
:10AB7C00000E356E800E34127F0E35124250351297
:10AB8C0032C032F033C033F034C034F035C035F05D
:10AB9C0013EF57F04950D8A4D6EF55F0D8EF55F035
:10ABAC00E2EF55F0000E326E000E336E000E346E76
:10ABBC00000E356E13EF57F04A5049C03AF03B6A1D
:10ABCC003A5E000E3B5A7F0E3A24436E000E3B2039
:10ABDC00446E32C03EF033C03FF034C040F035C05C
:10ABEC0041F0000E326E000E336E000E346E000E0D
:10ABFC00356E000E456E000E466E000E476E000E52
:10AC0C00486E000E4A6E43EF56F04A50D8B411EF1E
:10AC1C0056F013EF56F02AEF56F0D8903E363F36EA
:10AC2C0040364136D890323633363436353648AE27
:10AC3C0022EF56F024EF56F025EF56F03280D890E4
:10AC4C00453646364736483636503E5C37503F58C8
:10AC5C003850405839504158D8A037EF56F039EF9A
:10AC6C0056F042EF56F0488C36503E5E37503F5A05
:10AC7C003850405A3950415A4A2A190E4A6449EF01
:10AC8C0056F04BEF56F00BEF56F03E503F10401085
:10AC9C004110D8B454EF56F056EF56F06EEF56F014
:10ACAC0045806EEF56F0D890323633363436353622
:10ACBC0048AE63EF56F065EF56F066EF56F0328013
:10ACCC00D89045364636473648364306D8A0440613
:10ACDC0034AE73EF56F075EF56F059EF56F0000E98
:10ACEC004A6E48AE7CEF56F07EEF56F0A2EF56F06F
:10ACFC00FF0E45143A6EFF0E46143B6EFF0E4714C2
:10AD0C003C6E7F0E48143D6E3A503B103C103D108B
:10AD1C00D8B493EF56F095EF56F099EF56F0010E2C
:10AD2C004A6EA2EF56F032A09EEF56F0A0EF56F00E
:10AD3C00A2EF56F095EF56F04A50D8B4A8EF56F063
:10AD4C00AAEF56F0CEEF56F0010E3226000E33224B
:10AD5C003422352235A0B5EF56F0B7EF56F0CEEFD2
:10AD6C0056F032C03AF033C03BF034C03CF035C042
:10AD7C003DF03D343D323C323B323A323AC032F057
:10AD8C003BC033F03CC034F03DC035F0434A442A5C
:10AD9C0044BED9EF56F0445008E14328D8A0D9EF6F
:10ADAC0056F0DBEF56F0E6EF56F0000E446E4368BB
:10ADBC00000E326E000E336E000E346E000E356EC9
:10ADCC0044BEF3EF56F0445006E14304D8B0F1EF23
:10ADDC0056F0F3EF56F001EF57F0000E446E000EF4
:10ADEC00436E000E326E000E336E000E346E000E8B
:10ADFC00356E000E426E43C049F049A008EF57F083
:10AE0C000AEF57F00DEF57F0348E0EEF57F0349EDB
:10AE1C00D8904930356EC4EF55F0120060009BF2AB
:10AE2C00D9FF60009FF2DAFF6F007BFFF6FF6F0027
:10AE3C0077FFF7FFF86A0800F550250AD8A429EF28
:10AE4C0057F02BEF57F00BEF59F060009BF2D9FF46
:10AE5C0060009FF2DAFFDE2A000EDD22000E0001F8
:10AE6C00FB6F000EFA6FFAC0FEF0FBC0FFF0FC693E
:10AE7C00FD6960009BF2D9FF60009FF2DAFF6F0062
:10AE8C007BFFF6FF6F0077FFF7FFF86A0800F550BD
:10AE9C00076E086A73EC4BF007500001B46FB451A5
:10AEAC00D8B45BEF57F05DEF57F0A5EF57F06000AB
:10AEBC009BF2D9FF60009FF2DAFF6F0078FFAAF0D7
:10AECC006F0074FFABF0010EAA27000EAB236000DD
:10AEDC00ABF2F6FF6000AFF2F7FFF86A0800F5502E
:10AEEC00076E086A73EC4BF007500001B56FB55153
:10AEFC00D8B483EF57F085EF57F0A5EF57F060000B
:10AF0C009BF2D9FF60009FF2DAFF6F0078FFAAF086
:10AF1C006F0074FFABF0020EAA27000EAB2360008B
:10AF2C00ABF2F6FF6000AFF2F7FFF86A0800F550DD
:10AF3C00076E086A73EC4BF007500001B66F660E93
:10AF4C00B419D8A4ACEF57F0AEEF57F000EF58F0AF
:10AF5C0060009BF2D9FF60009FF2DAFF6F007BFF6D
:10AF6C00F6FF6F0077FFF7FFF86A08006F00D4FF59
:10AF7C00B7F060009BF2D9FF60009FF2DAFFDE2A87
:10AF8C00000EDD226000A3F2D9FF6000A7F2DAFF09
:10AF9C006F007CFFAAF0040EDE266F007CFFABF086
:10AFAC00000EDD226000ABF2D9FF6000AFF2DAFFD9
:10AFBC006F0078FFB0F06F0078FFB1F06F0078FF92
:10AFCC00B2F06F0078FFB3F0A4C060F0A5C061F0E0
:10AFDC00B0C062F0B1C063F0B2C064F0B3C065F051
:10AFEC00B7C066F056EC64F060C0A4F061C0A5F088
:10AFFC002DEF59F0B40E016E000E026EF80E036EBA
:10B00C00FF0E046E000E066E020E056E13EC4EF073
:10B01C0001500210D8A415EF58F017EF58F0CAEFF2
:10B02C0058F060009BF2D9FF60009FF2DAFF6F00CE
:10B03C0078FFAAF06F0074FFABF0010E0001AA2795
:10B04C00000EAB236000ABF2F6FF6000AFF2F7FF2F
:10B05C00F86A08006F00D4FFB7F0BF0EAA6FFF0E9E
:10B06C00AB6F60009BF2D9FF60009FF2DAFF6F00BC
:10B07C007BFFF6FF6F0077FFF7FFF86A0800F550CB
:10B08C00AC6FAD6BAA51AC27AB51AD23AD510AE1FE
:10B09C001A0EAC5DD8A055EF58F058EF58F0010ED1
:10B0AC0059EF58F0000EAE6FAF6BAE51AF11D8B474
:10B0BC0062EF58F064EF58F088EF58F06000A3F29C
:10B0CC00D9FF6000A7F2DAFF6F007CFFAAF0040E34
:10B0DC00DE266F007CFFABF0000EDD226000ABF2D1
:10B0EC00D9FF6000AFF2DAFF6F0078FFB0F06F00AD
:10B0FC0078FFB1F06F0078FFB2F06F0078FFB3F01B
:10B10C00AAEF58F06000A3F2D9FF6000A7F2DAFFB3
:10B11C006F007CFFAAF0040EDE266F007CFFABF004
:10B12C00000EDD226000ABF2D9FF6000AFF2DAFF57
:10B13C006F0078FFB0F06F0078FFB1F06F0078FF10
:10B14C00B2F06F0078FFB3F0020E60009BF2D9FFF3
:10B15C0060009FF2DAFFDE26000EDD22A4C060F054
:10B16C00A5C061F0B0C062F0B1C063F0B2C064F0D1
:10B17C00B3C065F0B7C066F056EC64F060C0A4F0E4
:10B18C0061C0A5F02DEF59F060009BF2D9FF600073
:10B19C009FF2DAFF6F007BFFF6FF6F0077FFF7FF80
:10B1AC00F86A0800F550250AD8A4DFEF58F0E1EF53
:10B1BC0058F0FBEF58F060009BF2D9FF60009FF253
:10B1CC00DAFFDE2A000EDD22000E046E250E036E61
:10B1DC00A4C005F0A5C006F056EC4CF0000E000122
:10B1EC00A56F010EA46F2DEF59F060009BF2D9FFF3
:10B1FC0060009FF2DAFFDE2A000EDD22000E000155
:10B20C00A56F000EA46F2DEF59F060009BF2D9FFD3
:10B21C0060009FF2DAFF6F007BFFF6FF6F0077FF95
:10B22C00F7FFF86A0800F550036E046AA4C005F035
:10B23C00A5C006F056EC4CF060009BF2D9FF600004
:10B24C009FF2DAFFDE2A000EDD22F4EF58F0120036
:10B25C001450800B1D6E14501424236E13AE39EF52
:10B26C0059F03BEF59F03CEF59F023802350D8B400
:10B27C0042EF59F044EF59F057EF59F02328D8A476
:10B28C004AEF59F04CEF59F054EF59F0000E116E93
:10B29C00000E126E000E136E000E146E138E5FEF06
:10B2AC0059F0000E116E000E126E000E136E000E91
:10B2BC00146E1850800B1D1A18501824226E17AEDD
:10B2CC006AEF59F06CEF59F06DEF59F02280225073
:10B2DC00D8B473EF59F075EF59F088EF59F0222874
:10B2EC00D8A47BEF59F07DEF59F085EF59F0000EA3
:10B2FC00156E000E166E000E176E000E186E178E61
:10B30C0090EF59F0000E156E000E166E000E176EB3
:10B31C00000E186E2250D8B496EF59F098EF59F0F1
:10B32C00A0EF59F02350D8A49EEF59F0A0EF59F09C
:10B33C00AAEF59F0000E116E000E126E000E136E75
:10B34C00000E146E54EF5BF0175011026F00CCFF1F
:10B35C0028F06F00D0FF29F028501E6E1F6A206A5B
:10B36C00216A2950246E256A266A276A1650120211
:10B37C006F00CCFF28F06F00D0FF29F028501E265C
:10B38C00000E1F222022212229502426000E2522C5
:10B39C0026222722155013026F00CCFF28F06F00D5
:10B3AC00D0FF29F028501E26000E1F222022212219
:10B3BC0029502426000E25222622272220C021F0E7
:10B3CC001FC020F01EC01FF01E6A155012026F0025
:10B3DC00CCFF28F06F00D0FF29F028501E262950F2
:10B3EC001F22000E2022000E2122165011026F0087
:10B3FC00CCFF28F06F00D0FF29F028501E262950D2
:10B40C001F22000E2022000E212220C021F01FC07E
:10B41C0020F01EC01FF01E6A155011026F00CCFFE9
:10B42C0028F06F00D0FF29F028501E2629501F222B
:10B43C00000E2022000E2122175012026F00CCFFAA
:10B44C0028F06F00D0FF29F02850242629502522FF
:10B45C00000E2622000E2722165013026F00CCFF7E
:10B46C0028F06F00D0FF29F02850242629502522DF
:10B47C00000E2622000E2722175013026F00CCFF5D
:10B48C0028F06F00D0FF29F02850196E29501A6E41
:10B49C001B6A1C6A1BC01CF01AC01BF019C01AF0E6
:10B4AC00196A195024261A5025221B5026221C508A
:10B4BC0027221EC019F01FC01AF020C01BF021C09B
:10B4CC001CF0190E6FEF5AF0D8901C321B321A3246
:10B4DC001932E82E6AEF5AF0195024261A502522F8
:10B4EC001B5026221C50272220C021F01FC020F008
:10B4FC001EC01FF01E6A225023C019F01A6A1926AA
:10B50C00000E1A22820E1924286EFF0E1A20296EA4
:10B51C00A5EF5AF0D890243625362636273621AE9C
:10B52C009AEF5AF09CEF5AF09DEF5AF02480D89085
:10B53C001E361F36203621362806D8A0290626AE00
:10B54C00AAEF5AF0ACEF5AF090EF5AF0000E226EC0
:10B55C0021AEB3EF5AF0B5EF5AF0D9EF5AF0FF0E17
:10B56C001E14196EFF0E1F141A6EFF0E20141B6E84
:10B57C007F0E21141C6E19501A101B101C10D8B4FD
:10B58C00CAEF5AF0CCEF5AF0D0EF5AF0010E226EFF
:10B59C00D9EF5AF024A0D5EF5AF0D7EF5AF0D9EFE3
:10B5AC005AF0CCEF5AF02250D8B4DFEF5AF0E1EF5A
:10B5BC005AF005EF5BF0010E2426000E2522262200
:10B5CC00272227A0ECEF5AF0EEEF5AF005EF5BF0D4
:10B5DC0024C019F025C01AF026C01BF027C01CF09F
:10B5EC001C341C321B321A32193219C024F01AC006
:10B5FC0025F01BC026F01CC027F0284A292A29BE9A
:10B60C0010EF5BF0295008E12828D8A010EF5BF070
:10B61C0012EF5BF01CEF5BF0000E246E000E256E3B
:10B62C00800E266E7F0E276E4AEF5BF029BE29EF47
:10B63C005BF0295006E12804D8B027EF5BF029EF26
:10B64C005BF035EF5BF0000E246E000E256E000EE5
:10B65C00266E000E276E000E1D6E4AEF5BF028C0A2
:10B66C0023F0FF0E2416FF0E25167F0E2616000E55
:10B67C00271623A044EF5BF046EF5BF047EF5BF03F
:10B68C00268ED8902330276E1D50271224C011F01F
:10B69C0025C012F026C013F027C014F0120004507D
:10B6AC00800B0D6E045004240F6E03AE60EF5BF044
:10B6BC0062EF5BF063EF5BF00F800F50D8B469EF73
:10B6CC005BF06BEF5BF080EF5BF00F28D8A471EFB1
:10B6DC005BF073EF5BF07BEF5BF0000E016E000E26
:10B6EC00026E000E036E000E046E038E000E046ECE
:10B6FC0088EF5BF0000E016E000E026E000E036E02
:10B70C00000E046E0850800B0E6E0D500E18D8B43F
:10B71C0092EF5BF094EF5BF095EF5BF00D8C0850C3
:10B72C0008240E6E07AE9DEF5BF09FEF5BF0A0EF71
:10B73C005BF00E800E50D8B4A6EF5BF0A8EF5BF078
:10B74C00BDEF5BF00E28D8A4AEEF5BF0B0EF5BF072
:10B75C00B8EF5BF0000E056E000E066E000E076E65
:10B76C00000E086E078E000E086EC5EF5BF0000E23
:10B77C00056E000E066E000E076E000E086E0F5062
:10B78C000E5CD8B0CCEF5BF0CEEF5BF0F5EF5BF07E
:10B79C000DACD3EF5BF0D5EF5BF0D7EF5BF0800E29
:10B7AC000D1A0FC010F00EC00FF010C00EF001C03B
:10B7BC0010F005C001F010C005F002C010F006C07A
:10B7CC0002F010C006F003C010F007C003F010C068
:10B7DC0007F004C010F008C004F010C008F0000E10
:10B7EC00106E0F500EC009F00A6A095E000E0A5A5C
:10B7FC000ABE0AEF5CF00A5009E11A0E095CD8A0E7
:10B80C000AEF5CF00CEF5CF043EF5CF001500210BF
:10B81C0003100410D8A415EF5CF018EF5CF0010EC7
:10B82C0019EF5CF0000E106E000E016E000E026E31
:10B83C00000E036E000E046E0EC00FF04CEF5CF0A9
:10B84C0010A02BEF5CF02DEF5CF033EF5CF0D89098
:10B85C0010300109106E35EF5CF0D890103201A059
:10B86C003AEF5CF03CEF5CF03DEF5CF0108E043492
:10B87C0004320332023201320F2A0E500F5CD8A070
:10B88C004AEF5CF04CEF5CF026EF5CF00DBC51EF36
:10B89C005CF053EF5CF093EF5CF00F50D8A459EFD1
:10B8AC005CF05BEF5CF065EF5CF0000E016E000E7F
:10B8BC00026E000E036E000E046EB4EF5DF00550C8
:10B8CC00012606500222075003220850042204A02D
:10B8DC0072EF5CF074EF5CF020EF5DF010A079EF8C
:10B8EC005CF07BEF5CF081EF5CF0D89010300109DC
:10B8FC00106E83EF5CF0D890103201A088EF5CF0F2
:10B90C008AEF5CF08BEF5CF0108E0434043203325F
:10B91C00023201320F2A20EF5DF00550015C065017
:10B92C000258075003580450800A096E0850800AC8
:10B93C000958D8B0A4EF5CF0A6EF5CF0D1EF5CF046
:10B94C000150055C096E025006580A6E03500758E8
:10B95C000B6E045008580C6EFF0E0924016EFF0E7E
:10B96C000A20026EFF0E0B20036EFF0E0C20046EDD
:10B97C00800E0D1A106C1050D8A4C7EF5CF0C9EFF4
:10B98C005CF0D9EF5CF0010E0126000E02220322BE
:10B99C000422D9EF5CF00550015E0650025A0750A4
:10B9AC00035A0850045A0150021003100410D8A472
:10B9BC00E2EF5CF0E4EF5CF019EF5DF01050D8A40E
:10B9CC00EAEF5CF0ECEF5CF019EF5DF0000E016E4D
:10B9DC00000E026E000E036E000E046EB4EF5DF0EE
:10B9EC00D890013602360336043610AE00EF5DF007
:10B9FC0002EF5DF003EF5DF0018010A008EF5DF049
:10BA0C000AEF5DF00EEF5DF0D880103610EF5DF0B0
:10BA1C00D89010360F50D8B416EF5DF018EF5DF0DB
:10BA2C0019EF5DF00F0603AE1EEF5DF020EF5DF039
:10BA3C00F6EF5CF0000E0E6E10AE27EF5DF029EF06
:10BA4C005DF041EF5DF010C009F07F0E0916D8B41F
:10BA5C0032EF5DF034EF5DF038EF5DF0010E0E6EFD
:10BA6C0041EF5DF001A03DEF5DF03FEF5DF041EF88
:10BA7C005DF034EF5DF00E50D8B447EF5DF049EF58
:10BA8C005DF074EF5DF0010E0126000E0222032220
:10BA9C00042204A054EF5DF056EF5DF074EF5DF0FE
:10BAAC0001C009F002C00AF003C00BF004C00CF096
:10BABC000C340C320B320A32093209C001F00AC0C4
:10BACC0002F00BC003F00CC004F00F28D8B471EFD7
:10BADC005DF073EF5DF074EF5DF00F2A0F28D8B4B2
:10BAEC007AEF5DF07CEF5DF084EF5DF00F50D8A441
:10BAFC0082EF5DF084EF5DF096EF5DF0000E016E6D
:10BB0C00000E026E000E036E000E046E0F50D8A4D1
:10BB1C0092EF5DF094EF5DF096EF5DF0000E0D6E20
:10BB2C000FA09BEF5DF09DEF5DF0A0EF5DF0038E3D
:10BB3C00A1EF5DF0039ED8900F30046E0DAEA9EF0F
:10BB4C005DF0ABEF5DF0ACEF5DF0048E01C001F089
:10BB5C0002C002F003C003F004C004F012003EC0A7
:10BB6C006CF03FC06DF040C06EF041C06FF06CC027
:10BB7C0084F06DC085F06EC086F06FC087F0000E4B
:10BB8C0000018415426E000E8515436E800E8615DD
:10BB9C00446E7F0E8715456E800E441809E17F0EAA
:10BBAC00451842104310D8A4DEEF5DF0E0EF5DF0D5
:10BBBC000EEF5EF03EC015F03FC016F040C017F01F
:10BBCC0041C018F03EC011F03FC012F040C013F05D
:10BBDC0041C014F02EEC59F011C001F012C002F06B
:10BBEC0013C003F014C004F03EC005F03FC006F0D3
:10BBFC0040C007F041C008F055EC5BF001C03EF0CE
:10BC0C0002C03FF003C040F004C041F014EF60F0FC
:10BC1C0087BF1DEF5EF087518611851106E1840503
:10BC2C00D8B01BEF5EF01DEF5EF059EF5EF0FF0E2B
:10BC3C008415426EFF0E8515436EFF0E8615446EFD
:10BC4C007F0E8715456E4250431044104510D8A402
:10BC5C0032EF5EF034EF5EF03EEF5EF03EC03EF051
:10BC6C003FC03FF040C040F041C041F014EF60F0E5
:10BC7C0087BF45EF5EF043EF5EF059EF5EF0000ECC
:10BC8C00F76F210EF66FEB0E016EFF0E026E44EC99
:10BC9C004AF001C03EF002C03FF003C040F004C0C7
:10BCAC0041F014EF60F0170E426E84C043F085C073
:10BCBC0044F086C045F087C046F0426668EF5EF0FF
:10BCCC0070EF5EF046344632453244324332422EF7
:10BCDC0063EF5EF043C07CF044C07DF045C07EF065
:10BCEC0046C07FF000017C517D117E117F11D8A4DC
:10BCFC0082EF5EF084EF5EF0B4EF5EF0000E686FE2
:10BD0C00000E696F000E6A6F000E6B6F99EF5EF09C
:10BD1C00D8908437853786378737010E6827000E11
:10BD2C0069236A236B2386AF9EEF5EF0A0EF5EF073
:10BD3C008EEF5EF0FF0E6825426EFF0E6921436E9A
:10BD4C00FF0E6A21446EFF0E6B21456E42507C5FE4
:10BD5C0043507D5B44507E5B45507F5B810E7C275E
:10BD6C00FF0E7D23FF0E7E23FF0E7F23FF0E841517
:10BD7C00426EFF0E8515436E7F0E8615446E000EC7
:10BD8C008715456E000E4210846F000E4310856FB0
:10BD9C00800E4410866F000E4510876F7CA1D9EF82
:10BDAC005EF0DBEF5EF0E3EF5EF0845184278551AB
:10BDBC00852386518623875187237F357F337E33B6
:10BDCC007D337C338451842785518523865186238A
:10BDDC0087518723000E646F000E656F000E666F2F
:10BDEC00000E676F64C070F065C071F066C072F0D1
:10BDFC0067C073F0000E806F000E816F000E826FB3
:10BE0C00010E836F52EF5FF064518025746F6551A2
:10BE1C008121756F66518221766F67518321776F0F
:10BE2C007451845D75518559765186598751800AB4
:10BE3C00426E7751800A4258D8A027EF5FF029EF65
:10BE4C005FF045EF5FF074518025646F755181216F
:10BE5C00656F76518221666F77518321676F7451BC
:10BE6C00845F7551855B7651865B7751875B80511A
:10BE7C007027815171238251722383517323845112
:10BE8C008427855185238651862387518723D89013
:10BE9C00833382338133803380518111821183113A
:10BEAC00D8A45BEF5FF05DEF5FF00AEF5FF08451B9
:10BEBC00851186118711D8B466EF5FF068EF5FF0DB
:10BECC00C9EF5FF0000E786F000E796F800E7A6FFD
:10BEDC003F0E7B6F78C032F079C033F07AC034F00B
:10BEEC007BC035F0000E366E000E376E800E386E4D
:10BEFC003F0E396E88EC4FF0D8A087EF5FF089EFDA
:10BF0C005FF0C9EF5FF0000E0001786F000E796FE3
:10BF1C00800E7A6F3F0E7B6F000E326E000E336E0A
:10BF2C00800E346E3F0E356E78C036F079C037F027
:10BF3C007AC038F07BC039F088EC4FF0D8B0A9EF5C
:10BF4C005FF0ABEF5FF0B4EF5FF0020E0001702713
:10BF5C00000E712372237323C9EF5FF0010E0001F1
:10BF6C007015426E000E7115436E000E7215446E04
:10BF7C00000E7315456E4250702743507123445088
:10BF8C0072234550732370C042F071C043F072C0ED
:10BF9C0044F073C045F045344532443243324232AA
:10BFAC00000E42240001846F000E4320856F000EAA
:10BFBC004420866F3F0E4520876F7CC042F07DC0C9
:10BFCC0043F07EC044F07FC045F0170ED890423647
:10BFDC00433644364536E82EECEF5FF0425084276A
:10BFEC0043508523445086234550872384C06CF0EE
:10BFFC0085C06DF086C06EF087C06FF06CC078F0B5
:10C00C006DC079F06EC07AF06FC07BF078C03EF0F6
:10C01C0079C03FF07AC040F07BC041F012004BC0B9
:10C02C0060F04CC061F04DC062F04EC063F060C077
:10C03C008EF061C08FF062C090F063C091F08EC042
:10C04C004FF08FC050F090C051F091C052F0200EC4
:10C05C0035EF60F0D8905232513250324F32E82ED8
:10C06C0030EF60F04FC078F050C079F051C07AF0EA
:10C07C0052C07BF00001919F800E905D4C0E915947
:10C08C00D8A04BEF60F04DEF60F0BBEF60F04BC011
:10C09C0001F04CC002F04DC003F04EC004F009ECAE
:10C0AC004FF001500210D8A45EEF60F060EF60F02A
:10C0BC006AEF60F04BC04BF04CC04CF04DC04DF0F3
:10C0CC004EC04EF055EF64F0BF0EF66EFE0EF76EDE
:10C0DC00F86A09006F00D4FF01F009006F00D4FF6B
:10C0EC0002F009006F00D4FF03F00A006F00D4FFC8
:10C0FC0004F0000E056E000E066E800E076E030E29
:10C10C00086E55EC5BF001C08AF002C08BF003C0E6
:10C11C008CF004C08DF00001785179117A117B11EB
:10C12C00D8A49BEF60F09DEF60F0A7EF60F08AC0A1
:10C13C004BF08BC04CF08CC04DF08DC04EF055EFD9
:10C14C0064F08AC001F08BC002F08CC003F08DC08B
:10C15C0004F0ABEC4AF001C04BF002C04CF003C051
:10C16C004DF004C04EF055EF64F0E00E905D3E0EC5
:10C17C009159D8B0C4EF60F0C6EF60F0D7EF60F023
:10C18C00800E905D390E9159D8B0CFEF60F0D1EFA1
:10C19C0060F0D3EF60F060EF60F08869896919EFA7
:10C1AC0062F04BC001F04CC002F04DC003F04EC029
:10C1BC0004F091EC4AF001C04BF002C04CF003C00B
:10C1CC004DF004C04EF0980E0001905D3F0E915959
:10C1DC00D8B0F3EF60F0F5EF60F09AEF61F0300E4D
:10C1EC00905D3F0E9159D8B0FEEF60F000EF61F01A
:10C1FC0056EF61F0000E896F000E886F000E056E11
:10C20C00000E066E800E076EBF0E086E000E156EC9
:10C21C00000E166E000E176E400E186E4BC011F00D
:10C22C004CC012F04DC013F04EC014F02EEC59F06F
:10C23C0011C001F012C002F013C003F014C004F0DE
:10C24C0055EC5BF001C032F002C033F003C034F0A7
:10C25C0004C035F0000E056E000E066E000E076E63
:10C26C00400E086E4BC001F04CC002F04DC003F004
:10C27C004EC004F055EC5BF001C036F002C037F054
:10C28C0003C038F004C039F047EC55F032C04BF025
:10C29C0033C04CF034C04DF035C04EF019EF62F0A5
:10C2AC00000E896F010E886F000E056E000E066E73
:10C2BC00800E076EBF0E086E4BC001F04CC002F032
:10C2CC004DC003F04EC004F055EC5BF001C032F0F1
:10C2DC0002C033F003C034F004C035F0000E056E1C
:10C2EC00000E066E800E076E3F0E086E4BC001F0FE
:10C2FC004CC002F04DC003F04EC004F055EC5BF0A6
:10C30C0001C036F002C037F003C038F004C039F079
:10C31C0047EC55F032C04BF033C04CF034C04DF00C
:10C32C0035C04EF019EF62F01C0E905D400E915925
:10C33C00D8B0A3EF61F0A5EF61F0FBEF61F0000E58
:10C34C00896F020E886F000E056E000E066EC00E11
:10C35C00076EBF0E086E4BC001F04CC002F04DC012
:10C36C0003F04EC004F055EC5BF001C032F002C09B
:10C37C0033F003C034F004C035F0000E056E000E2F
:10C38C00066E800E076E3F0E086E000E156E000EC8
:10C39C00166EC00E176E3F0E186E4BC011F04CC0CF
:10C3AC0012F04DC013F04EC014F02EEC59F011C029
:10C3BC0001F012C002F013C003F014C004F055ECED
:10C3CC005BF001C036F002C037F003C038F004C097
:10C3DC0039F047EC55F032C04BF033C04CF034C060
:10C3EC004DF035C04EF019EF62F0000E896F030E60
:10C3FC00886F000E326E000E336E800E346EBF0EE0
:10C40C00356E4BC036F04CC037F04DC038F04EC0D6
:10C41C0039F047EC55F032C04BF033C04CF034C01F
:10C42C004DF035C04EF04BC011F04CC012F04DC069
:10C43C0013F04EC014F04BC015F04CC016F04DC0AC
:10C44C0017F04EC018F02EEC59F011C08AF012C043
:10C45C008BF013C08CF014C08DF08AC011F08BC01F
:10C46C0012F08CC013F08DC014F08AC015F08BC084
:10C47C0016F08CC017F08DC018F02EEC59F011C0CE
:10C48C0084F012C085F013C086F014C087F0970EAC
:10C49C00F66EFE0EF76EF86A09006F00D4FF05F019
:10C4AC0009006F00D4FF06F009006F00D4FF07F0FD
:10C4BC000A006F00D4FF08F084C015F085C016F098
:10C4CC0086C017F087C018F09F0EF66EFE0EF76E42
:10C4DC00F86A09006F00D4FF11F009006F00D4FF57
:10C4EC0012F009006F00D4FF13F00A006F00D4FFA4
:10C4FC0014F02EEC59F011C001F012C002F013C070
:10C50C0003F014C004F055EC5BF001C07CF002C0E9
:10C51C007DF003C07EF004C07FF08F0EF66EFE0E31
:10C52C00F76E000EF86E09006F00D4FF05F00900DD
:10C53C006F00D4FF06F009006F00D4FF07F00A006B
:10C54C006F00D4FF08F084C015F085C016F086C0CB
:10C55C0017F087C018F07CC011F07DC012F07EC0BF
:10C56C0013F07FC014F02EEC59F011C001F012C082
:10C57C0002F013C003F014C004F055EC5BF001C0E2
:10C58C0064F002C065F003C066F004C067F064C0DC
:10C59C0011F065C012F066C013F067C014F08AC0C9
:10C5AC0015F08BC016F08CC017F08DC018F02EEC67
:10C5BC0059F011C070F012C071F013C072F014C0B9
:10C5CC0073F0930EF66EFE0EF76EF86A09006F00AC
:10C5DC00D4FF05F009006F00D4FF06F009006F00CE
:10C5EC00D4FF07F00A006F00D4FF08F084C015F0E8
:10C5FC0085C016F086C017F087C018F09B0EF66E3B
:10C60C00FE0EF76EF86A09006F00D4FF11F00900F6
:10C61C006F00D4FF12F009006F00D4FF13F00A0072
:10C62C006F00D4FF14F02EEC59F011C001F012C0C1
:10C63C0002F013C003F014C004F055EC5BF001C021
:10C64C007CF002C07DF003C07EF004C07FF07CC0A3
:10C65C0011F07DC012F07EC013F07FC014F084C0C6
:10C66C0015F085C016F086C017F087C018F02EECB8
:10C67C0059F011C074F012C075F013C076F014C0EC
:10C68C0077F0000189BF4FEF63F04DEF63F097EF48
:10C69C0063F04BC015F04CC016F04DC017F04EC0F7
:10C6AC0018F074C005F075C006F076C007F077C0BE
:10C6BC0008F070C001F071C002F072C003F073C0DA
:10C6CC0004F055EC5BF001C011F002C012F003C095
:10C6DC0013F004C014F02EEC59F011C080F012C00D
:10C6EC0081F013C082F014C083F04BC02AF04CC010
:10C6FC002BF04DC02CF04EC02DF080C02EF081C020
:10C70C002FF082C030F083C031F022EC4BF02AC005
:10C71C004BF02BC04CF02CC04DF02DC04EF055EF13
:10C72C0064F04BC015F04CC016F04DC017F04EC065
:10C73C0018F074C005F075C006F076C007F077C02D
:10C74C0008F070C001F071C002F072C003F073C049
:10C75C0004F055EC5BF001C011F002C012F003C004
:10C76C0013F004C014F02EEC59F011C080F012C07C
:10C77C0081F013C082F014C083F088C04FF089C0E0
:10C78C0050F0D8904F365036D8904F365036A30EC6
:10C79C004F24F66EFE0E5020F76EF86A000EF8224B
:10C7AC0009006F00D4FF2EF009006F00D4FF2FF0AA
:10C7BC0009006F00D4FF30F00A006F00D4FF31F095
:10C7CC0080C02AF081C02BF082C02CF083C02DF0E9
:10C7DC0022EC4BF02AC068F02BC069F02CC06AF038
:10C7EC002DC06BF04BC02EF04CC02FF04DC030F074
:10C7FC004EC031F068C02AF069C02BF06AC02CF032
:10C80C006BC02DF022EC4BF02AC06CF02BC06DF0FD
:10C81C002CC06EF02DC06FF088C04FF089C050F066
:10C82C00D8904F365036D8904F365036B30E4F24E2
:10C83C00F66EFE0E5020F76EF86A000EF822090014
:10C84C006F00D4FF2AF009006F00D4FF2BF0090011
:10C85C006F00D4FF2CF00A006F00D4FF2DF06CC0D9
:10C86C002EF06DC02FF06EC030F06FC031F022ECA6
:10C87C004BF02AC08AF02BC08BF02CC08CF02DC052
:10C88C008DF00001785179117A117B11D8A451EFF8
:10C89C0064F053EF64F0A7EF60F09DEF60F01200CE
:10C8AC00000E0001876F000E866F62C098F063C0A7
:10C8BC0099F064C09AF065C09BF09BBF6AEF64F07E
:10C8CC0068EF64F080EF64F0000E876F010E866FE6
:10C8DC0098C001F099C002F09AC003F09BC004F01C
:10C8EC00ABEC4AF001C098F002C099F003C09AF08A
:10C8FC0004C09BF0000E00019F6F000E9E6FFAC0EB
:10C90C008AF0FBC08BF086518711D8A490EF64F0AD
:10C91C0092EF64F099EF64F0FEA597EF64F099EF55
:10C92C0064F0B3EF64F086518711D8A4A0EF64F0E3
:10C93C00A2EF64F0A8EF64F0000E6D6F2B0E6C6F1D
:10C94C00ACEF64F0000E6D6F2D0E6C6F6CC000F2CE
:10C95C009E4B9F2B8A07D8A08B0798C001F099C0DB
:10C96C0002F09AC003F09BC004F009EC4FF00104F4
:10C97C000210D8A4C4EF64F0C6EF64F01DEF65F0AC
:10C98C00BF0E0001676FFF0E686F6651696F6A6BAF
:10C99C006751692768516A236A510AE11A0E695D69
:10C9AC00D8A0DBEF64F0DEEF64F0010EDFEF64F093
:10C9BC00000E6E6F6F6B6E516F11D8B4E8EF64F0B0
:10C9CC00EAEF64F0F8EF64F0000E9E25016E020EA3
:10C9DC009F21026EE80E036EFF0E046ED7EC4BF037
:10C9EC0004EF65F0000E9E25016E020E9F21026E73
:10C9FC00F00E036EFF0E046ED7EC4BF00001FD0E33
:10CA0C008A27FF0E8B2360C013F061C014F0000E58
:10CA1C00156E020E166E8AC017F08BC018F0B0ECB3
:10CA2C004DF013C060F014C061F0AAEF6AF098C02A
:10CA3C0001F099C002F09AC003F09BC004F009EC1D
:10CA4C004FF001500210D8A42EEF65F030EF65F0D6
:10CA5C0087EF65F0BF0E0001676FFF0E686F6651C0
:10CA6C00696F6A6B6751692768516A236A510AE1D9
:10CA7C001A0E695DD8A045EF65F048EF65F0010E20
:10CA8C0049EF65F0000E706F716B70517111D8B475
:10CA9C0052EF65F054EF65F062EF65F0000E9E25E5
:10CAAC00016E020E9F21026EEC0E036EFF0E046EE1
:10CABC00D7EC4BF06EEF65F0000E9E25016E020E6A
:10CACC009F21026EF40E036EFF0E046ED7EC4BF03A
:10CADC000001FD0E8A27FF0E8B2360C013F061C08E
:10CAEC0014F0000E156E020E166E8AC017F08BC075
:10CAFC0018F0B0EC4DF013C060F014C061F0AAEF68
:10CB0C006AF0000E0001A06F000EA16F800EA26FE4
:10CB1C003F0EA36F000E9D6F000E9C6F98C001F02E
:10CB2C0099C002F09AC003F09BC004F0000E056E91
:10CB3C00000E066E000E076E000E086EA1EC4CF097
:10CB4C00D8B0ABEF65F0ADEF65F030EF66F0CCEF41
:10CB5C0065F0A0C011F0A1C012F0A2C013F0A3C0E8
:10CB6C0014F0000E156E000E166E200E176E410E90
:10CB7C00186E2EEC59F011C0A0F012C0A1F013C029
:10CB8C00A2F014C0A3F000019C4B9D2B98C032F076
:10CB9C0099C033F09AC034F09BC035F0000E156E7E
:10CBAC00000E166E200E176E410E186EA0C011F0FE
:10CBBC00A1C012F0A2C013F0A3C014F02EEC59F0D7
:10CBCC0011C036F012C037F013C038F014C039F071
:10CBDC0088EC4FF0D8B0F5EF65F0F7EF65F0AFEFFC
:10CBEC0065F017EF66F0A0C032F0A1C033F0A2C020
:10CBFC0034F0A3C035F0000E366E000E376E200EEA
:10CC0C00386E410E396E47EC55F032C0A0F033C08F
:10CC1C00A1F034C0A2F035C0A3F000019C07D8A04D
:10CC2C009D0798C032F099C033F09AC034F09BC085
:10CC3C0035F0A0C036F0A1C037F0A2C038F0A3C0C8
:10CC4C0039F088EC4FF0D8A02EEF66F030EF66F09C
:10CC5C00F9EF65F066C007F0086A73EC4BF007500B
:10CC6C0000018D6F8DC08CF0670E8D19D8A441EF2B
:10CC7C0066F043EF66F069EF66F0FC51FD11D8A445
:10CC8C004AEF66F04CEF66F050EF66F0000EFD6F69
:10CC9C00010EFC6FFDBF5DEF66F0FD5106E1FC057A
:10CCAC00D8B05BEF66F05DEF66F063EF66F0000EF8
:10CCBC00896F060E886F72EF66F0FCC088F0FDC0BD
:10CCCC0089F072EF66F0FDBF6EEF66F070EF66F004
:10CCDC005DEF66F063EF66F0670E8D19D8A479EFFF
:10CCEC0066F07BEF66F0AAEF66F09DAF89EF66F019
:10CCFC00FC0E9C5DFF0E9D59D8A087EF66F089EF66
:10CD0C0066F0A8EF66F0FF0E676FFF0E686F88C0C5
:10CD1C0069F089C06AF06751692768516A239C5190
:10CD2C00695D6A51800A6B6F9D51800A6B59D8A05E
:10CD3C00A2EF66F0A4EF66F0A8EF66F0660E8C6FBB
:10CD4C00AAEF66F0650E8C6F88C07EF089C07FF00C
:10CD5C00670E8D19D8A4B5EF66F0B7EF66F0C7EF84
:10CD6C0066F0660E8C19D8A4BEEF66F0C0EF66F0C4
:10CD7C00C9EF66F09DBFC7EF66F0C5EF66F0C9EF6F
:10CD8C0066F07E4B7F2B660E8C19D8A4D0EF66F024
:10CD9C00D2EF66F0F2EF66F09DBFD9EF66F0D7EFF9
:10CDAC0066F0E5EF66F0000EA06F000EA16F800E2E
:10CDBC00A26F3F0EA36F000E9D6F000E9C6F670E4F
:10CDCC008D19D8B4ECEF66F0EEEF66F0F2EF66F08A
:10CDDC009C517E279D517F23000E976F000E966FFE
:10CDEC0098C08EF099C08FF09AC090F09BC091F0D3
:10CDFC00A0C080F0A1C081F0A2C082F0A3C083F0DB
:10CE0C0083EF67F08EC032F08FC033F090C034F0F7
:10CE1C0091C035F0A0C036F0A1C037F0A2C038F0F8
:10CE2C00A3C039F047EC55F032C04BF033C04CF096
:10CE3C0034C04DF035C04EF024EC53F04BC092F0A2
:10CE4C004CC093F04DC094F04EC095F092C001F0E0
:10CE5C0093C002F094C003F095C004F00AEC50F0BB
:10CE6C0001C084F002C085F08EC02AF08FC02BF078
:10CE7C0090C02CF091C02DF0A0C015F0A1C016F000
:10CE8C00A2C017F0A3C018F092C011F093C012F01A
:10CE9C0094C013F095C014F02EEC59F011C02EF084
:10CEAC0012C02FF013C030F014C031F022EC4BF054
:10CEBC002AC08EF02BC08FF02CC090F02DC091F0BA
:10CECC00A0C032F0A1C033F0A2C034F0A3C035F042
:10CEDC00000E366E000E376E200E386E410E396E17
:10CEEC0047EC55F032C0A0F033C0A1F034C0A2F032
:10CEFC0035C0A3F00001964B972B7E51965D975150
:10CF0C00800A676F7F51800A6759D8A090EF67F04D
:10CF1C0092EF67F008EF67F0A0C011F0A1C012F01B
:10CF2C00A2C013F0A3C014F0000E156E000E166E06
:10CF3C00A00E176E400E186E2EEC59F011C092F028
:10CF4C0012C093F013C094F014C095F08EC032F060
:10CF5C008FC033F090C034F091C035F092C036F0F1
:10CF6C0093C037F094C038F095C039F088EC4FF08E
:10CF7C00D8B0C3EF67F0C5EF67F0D0EF67F0000EE5
:10CF8C000001926F000E936F000E946F000E956F60
:10CF9C00F9EF67F08EC001F08FC002F090C003F083
:10CFAC0091C004F092C005F093C006F094C007F055
:10CFBC0095C008F0A1EC4CF0D8A0E7EF67F0E9EFD2
:10CFCC0067F0F9EF67F0000184B1EFEF67F0F1EF74
:10CFDC0067F0F9EF67F0000E926F000E936F000E82
:10CFEC00946F000E956F98C001F099C002F09AC032
:10CFFC0003F09BC004F092C005F093C006F094C0FF
:10D00C0007F095C008F055EC5BF001C08EF002C043
:10D01C008FF003C090F004C091F08EC032F08FC03E
:10D02C0033F090C034F091C035F0000E156E000E48
:10D03C00166E200E176E410E186E80C011F081C056
:10D04C0012F082C013F083C014F02EEC59F011C012
:10D05C0036F012C037F013C038F014C039F088EC39
:10D06C004FF0D8A03CEF68F03EEF68F067EF68F047
:10D07C0000019C4B9D2B80C011F081C012F082C02E
:10D08C0013F083C014F0000E156E000E166E200EF9
:10D09C00176E410E186E2EEC59F011C080F012C0B4
:10D0AC0081F013C082F014C083F0660E00018C195D
:10D0BC00D8A463EF68F065EF68F067EF68F07E4B1B
:10D0CC007F2B80C0A0F081C0A1F082C0A2F083C0F1
:10D0DC00A3F0650E00018C19D8B477EF68F079EFE6
:10D0EC0068F07FEF68F09CC07CF09DC07DF083EF12
:10D0FC0068F0000E7D6F000E7C6F000E7B6F000ED3
:10D10C007A6F000E796F000E786F000E976F000E1D
:10D11C00966F7EEF69F08EC032F08FC033F090C006
:10D12C0034F091C035F0A0C036F0A1C037F0A2C0E9
:10D13C0038F0A3C039F047EC55F032C04BF033C097
:10D14C004CF034C04DF035C04EF024EC53F04BC0D5
:10D15C0092F04CC093F04DC094F04EC095F092C03C
:10D16C0001F093C002F094C003F095C004F00AECF7
:10D17C0050F001C084F002C085F00001FEB9C9EF87
:10D18C0068F0CBEF68F0E8EF68F084518511D8A413
:10D19C00D2EF68F0D4EF68F0E8EF68F0670E8D1905
:10D1AC00D8A4DBEF68F0DDEF68F0E8EF68F07DBF46
:10D1BC00E4EF68F0E2EF68F0E8EF68F0784B792B79
:10D1CC0032EF69F07A517B11D8A4EFEF68F0F1EFF0
:10D1DC0068F01BEF69F07DBFF8EF68F0F6EF68F0D0
:10D1EC001BEF69F0000E9E25D96E020E9F21DA6EA0
:10D1FC002E0EDF6E9E4B9F2B8A07D8A08B07000E3E
:10D20C007B6F010E7A6F1BEF69F0000E9E25D96EB5
:10D21C00020E9F21DA6E300EDF6E9E4B9F2B8A071B
:10D22C00D8A08B077807D8A0790778517911D8A4A2
:10D23C0022EF69F024EF69F00BEF69F0000E9E25E8
:10D24C00D96E020E9F21DA6E8451300FDF6E9E4B29
:10D25C009F2B8A07D8A08B078EC02AF08FC02BF08B
:10D26C0090C02CF091C02DF0A0C015F0A1C016F00C
:10D27C00A2C017F0A3C018F092C011F093C012F026
:10D28C0094C013F095C014F02EEC59F011C02EF090
:10D29C0012C02FF013C030F014C031F022EC4BF060
:10D2AC002AC08EF02BC08FF02CC090F02DC091F0C6
:10D2BC00A0C032F0A1C033F0A2C034F0A3C035F04E
:10D2CC00000E366E000E376E200E386E410E396E23
:10D2DC0047EC55F032C0A0F033C0A1F034C0A2F03E
:10D2EC0035C0A3F000017C07D8A07D07964B972B87
:10D2FC007E51965D9751800A676F7F51800A6759FE
:10D30C00D8B08BEF69F08DEF69F09BEF69F09FBFA0
:10D31C0099EF69F09F5109E14B0E9E5DD8A099EFF2
:10D32C0069F09BEF69F091EF68F07A517B11D8A40A
:10D33C00A2EF69F0A4EF69F0B5EF69F0FEA9A9EFCF
:10D34C0069F0ABEF69F0B5EF69F0000E9E25D96E70
:10D35C00020E9F21DA6E2E0EDF6E9E4B9F2B000E5F
:10D36C009E25D96E020E9F21DA6E000EDF6E650EC1
:10D37C008C19D8A4C4EF69F0C6EF69F098EF6AF085
:10D38C00000E976F4F0E966F000E9625D96E020EFB
:10D39C009721DA6E000EDF6E000E876F000E866F1F
:10D3AC009DBFDDEF69F0DBEF69F0E5EF69F0000E92
:10D3BC00876F010E866F9C6D9D1FD8B09D2B000E44
:10D3CC00896F020E886F16EF6AF09607D8A0970740
:10D3DC00000E9625D96E020E9721DA6E9CC001F0D4
:10D3EC009DC002F0000E046E0A0E036EF6EC4CF0BB
:10D3FC000150300FDF6E9CC001F09DC002F0000E9A
:10D40C00046E0A0E036E4EEC4DF001C09CF002C08F
:10D41C009DF000018807D8A089078A07D8A08B0740
:10D42C009C519D11D8A41DEF6AF01FEF6AF0EBEF31
:10D43C0069F089BF2CEF6AF0895106E18805D8B0F4
:10D44C002AEF6AF02CEF6AF0EBEF69F09607D8A0A0
:10D45C00970786518711D8A436EF6AF038EF6AF037
:10D46C003EEF6AF0000E736F2B0E726F42EF6AF094
:10D47C00000E736F2D0E726F000E9625D96E020E74
:10D48C009721DA6E6000CBF1DFFF8A07D8A08B07FB
:10D49C009607D8A09707BF0E676FFF0E686F66518F
:10D4AC00696F6A6B6751692768516A236A510AE18F
:10D4BC001A0E695DD8A065EF6AF068EF6AF0010E8C
:10D4CC0069EF6AF0000E766F776B76517711D8A4FE
:10D4DC0072EF6AF074EF6AF07AEF6AF0000E756F13
:10D4EC00650E746F7EEF6AF0000E756F450E746FEB
:10D4FC00000E9625D96E020E9721DA6E6000D3F1DC
:10D50C00DFFF8A07D8A08B07000E9E25016E020E46
:10D51C009F21026E000E9625036E020E9721046E5B
:10D52C00D7EC4BF060C013F061C014F0000E156E18
:10D53C00020E166E8AC017F08BC018F0B0EC4DF0CE
:10D54C0013C060F014C061F0120088C0B8F189C03B
:10D55C00B9F18AC0BAF18BC0BBF1B8C160F1B9C1E5
:10D56C0061F1BAC162F1BBC163F18CC0B8F18DC07D
:10D57C00B9F18EC0BAF18FC0BBF1B8C184F1B9C199
:10D58C0085F1BAC186F1BBC187F1FF0E01016015AF
:10D59C00A86FFF0E6115A96FFF0E6215AA6F7F0EA3
:10D5AC006315AB6FFF0E8415986FFF0E8515996F81
:10D5BC00FF0E86159A6F7F0E87159B6F98519911E8
:10D5CC009A119B11D8A4EDEF6AF0EFEF6AF0FAEF25
:10D5DC006AF0000E0001886F000E896F800E8A6F52
:10D5EC003F0E8B6F46EF7FF0800E621909E13F0E04
:10D5FC00631960116111D8A406EF6BF008EF6BF0A2
:10D60C0013EF6BF0000E0001886F000E896F800E17
:10D61C008A6F3F0E8B6F46EF7FF0ABBF24EF6BF042
:10D62C00A805000EA959800EAA597F0EAB59D8B087
:10D63C0022EF6BF024EF6BF035EF6BF09BBF33EF09
:10D64C006BF09805000E9959800E9A597F0E9B59D4
:10D65C00D8A033EF6BF035EF6BF051EF6BF088C067
:10D66C0001F089C002F08AC003F08BC004F08CC0BA
:10D67C0005F08DC006F08EC007F08FC008F055EC99
:10D68C005BF001C088F002C089F003C08AF004C0CE
:10D69C008BF046EF7FF0000E506F000E516F000EB6
:10D6AC00526F000E536F63BF60EF6BF05EEF6BF069
:10D6BC000BEF6CF09BBF6CEF6BF0800E9A5D4B0E1A
:10D6CC009B59D8A06CEF6BF06EEF6BF078EF6BF0B2
:10D6DC00020E506F000E516F000E526F000E536F02
:10D6EC000BEF6CF09BBF84EF6BF0800E9A5D3F0EDE
:10D6FC009B59D8A084EF6BF086EF6BF00BEF6CF0BE
:10D70C00170E4B6E98C14CF099C14DF09AC14EF06A
:10D71C009BC14FF04B6695EF6BF09DEF6BF04F3468
:10D72C004F324E324D324C324B2E90EF6BF0810E0D
:10D73C004C240101A06FFF0E4D20A16FFF0E4E2057
:10D74C00A26FFF0E4F20A36FA05117084B6E98C10C
:10D75C004CF099C14DF09AC14EF09BC14FF04B6605
:10D76C00BAEF6BF0C2EF6BF04F344F324E324D329A
:10D77C004C324B2EB5EF6BF04CC0ACF14DC0ADF153
:10D78C004EC0AEF14FC0AFF10101A05117084B6E66
:10D79C00ACC14CF0ADC14DF0AEC14EF0AFC14FF0CD
:10D7AC004B2ADEEF6BF0D8904C364D364E364F365A
:10D7BC004B2ED9EF6BF098514C180DE199514D1837
:10D7CC000AE19A514E1807E19B514F18D8A4F1EF7A
:10D7DC006BF0F3EF6BF00BEF6CF0010EAC154B6EC6
:10D7EC00000EAD154C6E000EAE154D6E000EAF1545
:10D7FC004E6E4B500208506F000E4C54516F000E81
:10D80C004D54526F000E4E54536F800E9A1909E10D
:10D81C007F0E9B1998119911D8A417EF6CF019EF82
:10D82C006CF085EF6CF0800EAA1909E13F0EAB1974
:10D83C00A811A911D8A425EF6CF027EF6CF032EFEA
:10D84C006CF0000E0001886F000E896F800E8A6FDD
:10D85C003F0E8B6F46EF7FF0ABBF41EF6CF0A8052E
:10D86C00000EA959800EAA593F0EAB59D8A041EF12
:10D87C006CF043EF6CF05FEF6CF087BF4AEF6CF02D
:10D88C0048EF6CF055EF6CF0000E0001886F000E45
:10D89C00896F000E8A6F000E8B6F46EF7FF08CC085
:10D8AC0088F08DC089F08EC08AF08FC08BF046EF67
:10D8BC007FF087BF66EF6CF064EF6CF07AEF6CF082
:10D8CC008CC001F08DC002F08EC003F08FC004F04C
:10D8DC00ABEC4AF001C088F002C089F003C08AF0BA
:10D8EC0004C08BF046EF7FF0000E0001886F000E35
:10D8FC00896F000E8A6F000E8B6F46EF7FF0800EE3
:10D90C009A1909E13F0E9B1998119911D8A491EF1E
:10D91C006CF093EF6CF0C0EF6CF087BF9AEF6CF08B
:10D92C0098EF6CF0B6EF6CF0000E326E000E336EAA
:10D93C00800E346E3F0E356E88C036F089C037F0DD
:10D94C008AC038F08BC039F047EC55F032C088F003
:10D95C0033C089F034C08AF035C08BF046EF7FF0CD
:10D96C0088C088F089C089F08AC08AF08BC08BF09F
:10D97C0046EF7FF0400E8719841185118611D8A4CB
:10D98C00CAEF6CF0CCEF6CF0E8EF6CF088C011F0E3
:10D99C0089C012F08AC013F08BC014F088C015F047
:10D9AC0089C016F08AC017F08BC018F02EEC59F015
:10D9BC0011C088F012C089F013C08AF014C08BF02B
:10D9CC0046EF7FF03F0E8719841185118611D8A47C
:10D9DC00F2EF6CF0F4EF6CF00FEF6DF063BFF9EF5A
:10D9EC006CF0FBEF6CF00FEF6DF088C03EF089C06F
:10D9FC003FF08AC040F08BC041F0B5EC5DF03EC00A
:10DA0C0088F03FC089F040C08AF041C08BF046EFEF
:10DA1C007FF088C001F089C002F08AC003F08BC08F
:10DA2C0004F091EC4AF001C070F102C071F103C036
:10DA3C0072F104C073F1800E0101AA190BE17F0E83
:10DA4C00AB19A811A911D8B42EEF6DF030EF6DF011
:10DA5C0049EF6DF0A851A911AA11AB11D8B439EF47
:10DA6C006DF03BEF6DF049EF6DF0800EAA1909E1F6
:10DA7C003F0EAB19A811A911D8A447EF6DF049EFCF
:10DA8C006DF004EF6EF070C1B4F171C1B5F172C1FB
:10DA9C00B6F173C1B7F187BF58EF6DF056EF6DF06B
:10DAAC0072EF6DF0000E326E000E336E800E346E1F
:10DABC003F0E356EB4C136F0B5C137F0B6C138F093
:10DACC00B7C139F047EC55F032C0B4F133C0B5F101
:10DADC0034C0B6F135C0B7F1010163BF7AEF6DF018
:10DAEC0078EF6DF0FAEF6DF0000EA8254B6E000E7E
:10DAFC00A9214C6E800EAA214D6EC00EAB214E6E2C
:10DB0C0050514B104F6E51514C10506E52514D1094
:10DB1C00516E53514E10526E4F50501051105210B6
:10DB2C00D8A49BEF6DF09DEF6DF0DDEF6DF0B4C1FF
:10DB3C002EF0B5C12FF0B6C130F0B7C131F0B4C181
:10DB4C002AF0B5C12BF0B6C12CF0B7C12DF022ECE8
:10DB5C004BF02AC032F02BC033F02CC034F02DC067
:10DB6C0035F0B4C12EF0B5C12FF0B6C130F0B7C14D
:10DB7C0031F0B4C12AF0B5C12BF0B6C12CF0B7C14D
:10DB8C002DF022EC4BF02AC036F02BC037F02CC015
:10DB9C0038F02DC039F047EC55F032C0B4F133C039
:10DBAC00B5F134C0B6F135C0B7F1FAEF6DF05005F0
:10DBBC00511152115311D8A4E6EF6DF0E8EF6DF04E
:10DBCC00FAEF6DF0B4C101F0B5C102F0B6C103F0CB
:10DBDC00B7C104F0ABEC4AF001C0B4F102C0B5F12E
:10DBEC0003C0B6F104C0B7F1B4C188F0B5C189F077
:10DBFC00B6C18AF0B7C18BF046EF7FF0000E886F8C
:10DC0C00000E896F800E8A6F3F0E8B6F63BF13EF10
:10DC1C006EF011EF6EF071EF6EF050515111521118
:10DC2C005311D8A41CEF6EF01EEF6EF05EEF6EF089
:10DC3C0088C02EF089C02FF08AC030F08BC031F034
:10DC4C0088C02AF089C02BF08AC02CF08BC02DF034
:10DC5C0022EC4BF02AC032F02BC033F02CC034F045
:10DC6C002DC035F088C02EF089C02FF08AC030F05E
:10DC7C008BC031F088C02AF089C02BF08AC02CF000
:10DC8C008BC02DF022EC4BF02AC036F02BC037F0B5
:10DC9C002CC038F02DC039F047EC55F032C088F06C
:10DCAC0033C089F034C08AF035C08BF046EF7FF07A
:10DCBC005005511152115311D8A467EF6EF069EF52
:10DCCC006EF071EF6EF0000E886F000E896F800E93
:10DCDC008A6FBF0E8B6F9BBF80EF6EF09805000EA6
:10DCEC009959000E9A594D0E9B59D8A080EF6EF0A1
:10DCFC0082EF6EF007EF71F0ABBF94EF6EF0F80EA1
:10DD0C00A85DFF0EA9597F0EAA593F0EAB59D8B08A
:10DD1C0092EF6EF094EF6EF007EF6FF087BF99EF14
:10DD2C006EF09BEF6EF0D1EF6EF0600E156E420E42
:10DD3C00166EA20E176E0D0E186E88C111F089C1E9
:10DD4C0012F08AC113F08BC114F02EEC59F011C0F3
:10DD5C00A4F112C0A5F113C0A6F114C0A7F1A4C17F
:10DD6C0011F0A5C112F0A6C113F0A7C114F0600EFA
:10DD7C00156E420E166EA20E176E0D0E186E2EEC50
:10DD8C0059F011C088F012C089F013C08AF014C089
:10DD9C008BF046EF7FF0CA0E156EF20E166E490E22
:10DDAC00176E710E186E88C111F089C112F08AC1FC
:10DDBC0013F08BC114F02EEC59F011C0A4F112C069
:10DDCC00A5F113C0A6F114C0A7F1A4C111F0A5C10F
:10DDDC0012F0A6C113F0A7C114F0CA0E156EF20E04
:10DDEC00166E490E176E710E186E2EEC59F011C08E
:10DDFC0088F012C089F013C08AF014C08BF046EF83
:10DE0C007FF0ABBF17EF6FF0080EA85D000EA9599D
:10DE1C00800EAA593F0EAB59D8A017EF6FF019EF2F
:10DE2C006FF094EF6FF087BF28EF6FF0875186117A
:10DE3C00851106E18405D8B026EF6FF028EF6FF05E
:10DE4C005EEF6FF0600E156E420E166EA20E176E20
:10DE5C000D0E186E88C111F089C112F08AC113F031
:10DE6C008BC114F02EEC59F011C0A4F112C0A5F125
:10DE7C0013C0A6F114C0A7F1A4C111F0A5C112F0F2
:10DE8C00A6C113F0A7C114F0600E156E420E166EEB
:10DE9C00A20E176E0D0E186E2EEC59F011C088F0F4
:10DEAC0012C089F013C08AF014C08BF046EF7FF0DB
:10DEBC00CA0E156EF20E166E490E176E710E186E96
:10DECC0088C111F089C112F08AC113F08BC114F012
:10DEDC002EEC59F011C0A4F112C0A5F113C0A6F19B
:10DEEC0014C0A7F1A4C111F0A5C112F0A6C113F082
:10DEFC00A7C114F0CA0E156EF20E166E490E176EEF
:10DF0C00710E186E2EEC59F011C088F012C089F009
:10DF1C0013C08AF014C08BF046EF7FF070C101F093
:10DF2C0071C102F072C103F073C104F0000E056EF2
:10DF3C00000E066E800E076EBF0E086E55EC5BF081
:10DF4C0001C0B0F102C0B1F103C0B2F104C0B3F131
:10DF5C00000E156E000E166E800E176E3E0E186EAD
:10DF6C00B0C111F0B1C112F0B2C113F0B3C114F0D1
:10DF7C002EEC59F011C02EF012C02FF013C030F05F
:10DF8C0014C031F0AB0E2A6EAA0E2B6EAA0E2C6E9C
:10DF9C003E0E2D6E22EC4BF02AC0A4F12BC0A5F145
:10DFAC002CC0A6F12DC0A7F1B0C115F0B1C116F06F
:10DFBC00B2C117F0B3C118F0B0C111F0B1C112F079
:10DFCC00B2C113F0B3C114F02EEC59F011C054F1DE
:10DFDC0012C055F113C056F114C057F1B0C115F071
:10DFEC00B1C116F0B2C117F0B3C118F0A4C111F051
:10DFFC00A5C112F0A6C113F0A7C114F02EEC59F074
:10E00C0011C02EF012C02FF013C030F014C031F03C
:10E01C00000E2A6E000E2B6E000E2C6E3F0E2D6E17
:10E02C0022EC4BF02AC048F12BC049F12CC04AF12C
:10E03C002DC04BF154C111F055C112F056C113F063
:10E04C0057C114F048C115F049C116F04AC117F078
:10E05C004BC118F02EEC59F011C044F112C045F12F
:10E06C0013C046F114C047F1B0C111F0B1C112F0A8
:10E07C00B2C113F0B3C114F0000E156EAA0E166ED9
:10E08C00B80E176E3F0E186E2EEC59F011C074F1CD
:10E09C0012C075F113C076F114C077F1700E156EC5
:10E0AC00A50E166EEC0E176E360E186EB0C111F072
:10E0BC00B1C112F0B2C113F0B3C114F02EEC59F08F
:10E0CC0011C02AF012C02BF013C02CF014C02DF08C
:10E0DC003B0E156EAA0E166EB80E176E3F0E186E0E
:10E0EC0044C111F045C112F046C113F047C114F000
:10E0FC002EEC59F011C02EF012C02FF013C030F0DE
:10E10C0014C031F022EC4BF02AC078F12BC079F11D
:10E11C002CC07AF12DC07BF174C101F075C102F0F5
:10E12C0076C103F077C104F078C105F079C106F02F
:10E13C007AC107F07BC108F055EC5BF001C080F1AF
:10E14C0002C081F103C082F104C083F180C1B8F137
:10E15C0081C1B9F182C1BAF183C1BBF1B8C190F1EF
:10E16C00B9C191F1BAC192F1BBC193F1000E010199
:10E17C009015B86FF00E9115B96FFF0E9215BA6F1E
:10E18C00FF0E9315BB6FB8C180F1B9C181F1BAC153
:10E19C0082F1BBC183F174C12EF075C12FF076C131
:10E1AC0030F077C131F080C12AF081C12BF082C1EF
:10E1BC002CF083C12DF022EC4BF02AC094F12BC033
:10E1CC0095F12CC096F12DC097F178C12AF079C148
:10E1DC002BF07AC12CF07BC12DF094C12EF095C19F
:10E1EC002FF096C130F097C131F022EC4BF02AC0E1
:10E1FC001CF12BC01DF12CC01EF12DC01FF179EFAD
:10E20C0078F0000E7C6F000E7D6F000E7E6F000E9E
:10E21C007F6FABBF1DEF71F0AB5107E1800EAA5DB4
:10E22C00D8B01BEF71F01DEF71F050EF71F070C1B1
:10E23C0011F071C112F072C113F073C114F0000E21
:10E24C00156E000E166E800E176E4B0E186E2EECA1
:10E25C0059F011C070F112C071F113C072F114C0F9
:10E26C0073F1E80E01017C27FF0E7D23FF0E7E2348
:10E27C00FF0E7F2370C1B8F171C1B9F172C1BAF14F
:10E28C0073C1BBF1B8C1A8F1B9C1A9F1BAC1AAF166
:10E29C00BBC1ABF1170E4B6EA8C14CF0A9C14DF030
:10E2AC00AAC14EF0ABC14FF04B665FEF71F067EF58
:10E2BC0071F04F344F324E324D324C324B2E5AEFAE
:10E2CC0071F0810E4C24506EFF0E4D20516EFF0EDE
:10E2DC004E20526EFF0E4F20536E505001017C2782
:10E2EC0051507D2352507E2353507F23FF0EA8158F
:10E2FC00AC6FFF0EA915AD6F7F0EAA15AE6F000E99
:10E30C00AB15AF6F000EAC11A86F000EAD11A96F5D
:10E31C00800EAE11AA6F3F0EAF11AB6FAFBFA6EF61
:10E32C0071F0AF510BE1720EAC5DC40EAD591C0E09
:10E33C00AE59D8B0A4EF71F0A6EF71F0B0EF71F058
:10E34C00000EA06F000EA16F000EA26F000EA36F47
:10E35C00E2EF71F0AFBFC2EF71F0AF510BE1D70E2E
:10E36C00AC5DB30EAD595D0EAE59D8B0C0EF71F0C7
:10E37C00C2EF71F0CCEF71F0010EA06F000EA16F27
:10E38C00000EA26F000EA36FE2EF71F0000EA06FF3
:10E39C00000EA16F000EA26F000EA36F010E7C2762
:10E3AC00000E7D237E237F23000EA827000EA923B9
:10E3BC00800EAA23FF0EAB23A8C1B8F1A9C1B9F1F5
:10E3CC00AAC1BAF1ABC1BBF1B8C170F1B9C171F15D
:10E3DC00BAC172F1BBC173F170C12AF071C12BF0DB
:10E3EC0072C12CF073C12DF0A0C14BF0A1C14CF047
:10E3FC00D8904B364C36D8904B364C367F0E4B243F
:10E40C00F66EFF0E4C20F76EF86A000EF82209002B
:10E41C006F00D4FF2EF009006F00D4FF2FF009001D
:10E42C006F00D4FF30F00A006F00D4FF31F022EC03
:10E43C004BF02AC074F12BC075F12CC076F12DC0B5
:10E44C0077F1000E326E000E336E800E346E3F0E7E
:10E45C00356E70C105F071C106F072C107F073C161
:10E46C0008F0A0C14BF0A1C14CF0D8904B364C3603
:10E47C00D8904B364C367F0E4B24F66EFF0E4C204C
:10E48C00F76EF86A000EF82209006F00D4FF01F055
:10E49C0009006F00D4FF02F009006F00D4FF03F0F5
:10E4AC000A006F00D4FF04F055EC5BF001C036F0AD
:10E4BC0002C037F003C038F004C039F047EC55F017
:10E4CC0032C078F133C079F134C07AF135C07BF1C8
:10E4DC0074C111F075C112F076C113F077C114F04C
:10E4EC0078C115F079C116F07AC117F07BC118F01C
:10E4FC002EEC59F011C05CF112C05DF113C05EF14D
:10E50C0014C05FF15CC16CF15DC16DF15EC16EF167
:10E51C005FC16FF16CC1B8F16DC1B9F16EC1BAF1E7
:10E52C006FC1BBF1B8C190F1B9C191F1BAC192F10F
:10E53C00BBC193F1000E01019015B86FF00E91154F
:10E54C00B96FFF0E9215BA6FFF0E9315BB6FB8C162
:10E55C006CF1B9C16DF1BAC16EF1BBC16FF1A8C15B
:10E56C004BF0A9C14CF0AAC14DF0ABC14EF04E34EA
:10E57C004E324D324C324B32000E4B144F6EF00E6D
:10E58C004C14506EFF0E4D14516EFF0E4E14526E05
:10E59C00000E4F10906F000E5010916F000E511026
:10E5AC00926F200E5210936FA0C14BF0A1C14CF092
:10E5BC00A2C14DF0A3C14EF0150ED8904B364C367F
:10E5CC004D364E36E82EE3EF72F090514B244F6EE1
:10E5DC0091514C20506E92514D20516E93514E20C2
:10E5EC00526E000E4F24B86F000E5020B96F400EC3
:10E5FC005120BA6F000E5220BB6FB8C168F1B9C17F
:10E60C0069F1BAC16AF1BBC16BF1A0C14BF0A1C1F8
:10E61C004CF0D8904B364C36D8904B364C367F0E4F
:10E62C004B24F66EFF0E4C20F76EF86A000EF822A3
:10E63C0009006F00D4FF2EF009006F00D4FF2FF0FB
:10E64C0009006F00D4FF30F00A006F00D4FF31F0E6
:10E65C0068C12AF069C12BF06AC12CF06BC12DF096
:10E66C0022EC4BF02AC094F12BC095F12CC096F102
:10E67C002DC097F170C12AF071C12BF072C12CF032
:10E68C0073C12DF094C12EF095C12FF096C130F0CE
:10E69C0097C131F022EC4BF02AC034F12BC035F18C
:10E6AC002CC036F12DC037F168C115F069C116F0D8
:10E6BC006AC117F06BC118F06CC111F06DC112F08A
:10E6CC006EC113F06FC114F02EEC59F011C02EF086
:10E6DC0012C02FF013C030F014C031F074C12AF006
:10E6EC0075C12BF076C12CF077C12DF022EC4BF0DC
:10E6FC002AC094F12BC095F12CC096F12DC097F146
:10E70C0034C115F035C116F036C117F037C118F009
:10E71C006CC111F06DC112F06EC113F06FC114F029
:10E72C002EEC59F011C02EF012C02FF013C030F0A7
:10E73C0014C031F094C12AF095C12BF096C12CF085
:10E74C0097C12DF022EC4BF02AC054F12BC055F19F
:10E75C002CC056F12DC057F154C111F055C112F017
:10E76C0056C113F057C114F078C115F079C116F0E9
:10E77C007AC117F07BC118F02EEC59F011C030F1B2
:10E78C0012C031F113C032F114C033F15CC111F07D
:10E79C005DC112F05EC113F05FC114F05CC115F0E5
:10E7AC005DC116F05EC117F05FC118F02EEC59F088
:10E7BC0011C08CF112C08DF113C08EF114C08FF109
:10E7CC00550E056E320E066E6C0E076E3E0E086E02
:10E7DC00420E156EF10E166E530E176E3E0E186E1F
:10E7EC008CC111F08DC112F08EC113F08FC114F0D9
:10E7FC002EEC59F011C001F012C002F013C003F05E
:10E80C0014C004F055EC5BF001C0A4F102C0A5F1FA
:10E81C0003C0A6F104C0A7F1050E056EA30E066E8B
:10E82C008B0E076E3E0E086E8CC115F08DC116F066
:10E83C008EC117F08FC118F0A4C111F0A5C112F050
:10E84C00A6C113F0A7C114F02EEC59F011C001F0C1
:10E85C0012C002F013C003F014C004F055EC5BF0CE
:10E86C0001C054F102C055F103C056F104C057F178
:10E87C00AB0E056EAA0E066EAA0E076E3E0E086E45
:10E88C008CC115F08DC116F08EC117F08FC118F028
:10E89C0054C111F055C112F056C113F057C114F008
:10E8AC002EEC59F011C001F012C002F013C003F0AD
:10E8BC0014C004F055EC5BF001C048F102C049F102
:10E8CC0003C04AF104C04BF1B70E056E6D0E066E17
:10E8DC00DB0E076E3E0E086E8CC115F08DC116F066
:10E8EC008EC117F08FC118F048C111F049C112F058
:10E8FC004AC113F04BC114F02EEC59F011C001F0C9
:10E90C0012C002F013C003F014C004F055EC5BF01D
:10E91C0001C038F102C039F103C03AF104C03BF137
:10E92C009A0E056E990E066E190E076E3F0E086E46
:10E93C008CC115F08DC116F08EC117F08FC118F077
:10E94C0038C111F039C112F03AC113F03BC114F0C7
:10E95C002EEC59F011C001F012C002F013C003F0FC
:10E96C0014C004F055EC5BF001C000F102C001F1E1
:10E97C0003C002F104C003F18CC115F08DC116F077
:10E98C008EC117F08FC118F08CC111F08DC112F02F
:10E99C008EC113F08FC114F02EEC59F011C004F19C
:10E9AC0012C005F113C006F114C007F100C111F03B
:10E9BC0001C112F002C113F003C114F004C115F02F
:10E9CC0005C116F006C117F007C118F02EEC59F06E
:10E9DC0011C04CF112C04DF113C04EF114C04FF1E7
:10E9EC0030C115F031C116F032C117F033C118F037
:10E9FC005CC105F05DC106F05EC107F05FC108F0B7
:10EA0C006CC101F06DC102F06EC103F06FC104F076
:10EA1C0055EC5BF001C011F002C012F003C013F012
:10EA2C0004C014F02EEC59F011C058F112C059F179
:10EA3C0013C05AF114C05BF14CC101F04DC102F08E
:10EA4C004EC103F04FC104F058C105F059C106F096
:10EA5C005AC107F05BC108F055EC5BF001C04CF1FA
:10EA6C0002C04DF103C04EF104C04FF16CC111F066
:10EA7C006DC112F06EC113F06FC114F06CC115F0C2
:10EA8C006DC116F06EC117F06FC118F02EEC59F075
:10EA9C0011C08CF112C08DF113C08EF114C08FF126
:10EAAC00000E056E000E066E400E076E400E086ED0
:10EABC008CC101F08DC102F08EC103F08FC104F046
:10EACC0055EC5BF001C058F102C059F103C05AF18A
:10EADC0004C05BF158C101F059C102F05AC103F0F6
:10EAEC005BC104F04CC105F04DC106F04EC107F0FE
:10EAFC004FC108F055EC5BF001C068F102C069F140
:10EB0C0003C06AF104C06BF168C1B8F169C1B9F115
:10EB1C006AC1BAF16BC1BBF1B8C190F1B9C191F145
:10EB2C00BAC192F1BBC193F1000E01019015B86FFF
:10EB3C00F00E9115B96FFF0E9215BA6FFF0E93156B
:10EB4C00BB6FB8C168F1B9C169F1BAC16AF1BBC197
:10EB5C006BF1000E056E000E066E400E076EC00EB9
:10EB6C00086E68C101F069C102F06AC103F06BC1A3
:10EB7C0004F055EC5BF001C03CF102C03DF103C068
:10EB8C003EF104C03FF18CC12EF08DC12FF08EC12F
:10EB9C0030F08FC131F03CC12AF03DC12BF03EC1A9
:10EBAC002CF03FC12DF022EC4BF02AC040F12BC0D1
:10EBBC0041F12CC042F12DC043F14CC12AF04DC1A2
:10EBCC002BF04EC12CF04FC12DF040C12EF041C1A5
:10EBDC002FF042C130F043C131F022EC4BF02AC08F
:10EBEC0034F12BC035F12CC036F12DC037F16CC18E
:10EBFC0011F06DC112F06EC113F06FC114F068C149
:10EC0C0015F069C116F06AC117F06BC118F02EEC43
:10EC1C0059F011C074F112C075F113C076F114C023
:10EC2C0077F168C115F069C116F06AC117F06BC1B4
:10EC3C0018F030C111F031C112F032C113F033C1F0
:10EC4C0014F02EEC59F011C001F012C002F013C0F8
:10EC5C0003F014C004F05CC115F05DC116F05EC188
:10EC6C0017F05FC118F034C111F035C112F036C184
:10EC7C0013F037C114F02EEC59F011C005F012C08E
:10EC8C0006F013C007F014C008F055EC5BF001C09F
:10EC9C0078F102C079F103C07AF104C07BF174C140
:10ECAC0001F075C102F076C103F077C104F078C1B0
:10ECBC0005F079C106F07AC107F07BC108F055EC7C
:10ECCC005BF001C09CF102C09DF103C09EF104C039
:10ECDC009FF19CC1B8F19DC1B9F19EC1BAF19FC120
:10ECEC00BBF1B8C190F1B9C191F1BAC192F1BBC1FC
:10ECFC0093F1000E01019015B86FF00E9115B96FDC
:10ED0C00FF0E9215BA6FFF0E9315BB6FB8C19CF135
:10ED1C00B9C19DF1BAC19EF1BBC19FF174C12EF076
:10ED2C0075C12FF076C130F077C131F09CC12AF05B
:10ED3C009DC12BF09EC12CF09FC12DF022EC4BF00D
:10ED4C002AC094F12BC095F12CC096F12DC097F1EF
:10ED5C0078C12AF079C12BF07AC12CF07BC12DF04F
:10ED6C0094C12EF095C12FF096C130F097C131F0BF
:10ED7C0022EC4BF02AC064F12BC065F12CC066F17B
:10ED8C002DC067F19CC111F09DC112F09EC113F012
:10ED9C009FC114F0000E156E400E166E760E176E97
:10EDAC003F0E186E2EEC59F011C020F112C021F15B
:10EDBC0013C022F114C023F14F0E156E380E166ECF
:10EDCC00760E176E3F0E186E64C111F065C112F00D
:10EDDC0066C113F067C114F02EEC59F011C005F0A8
:10EDEC0012C006F013C007F014C008F0C60E156E62
:10EDFC00230E166EF60E176EB80E186E9CC111F01F
:10EE0C009DC112F09EC113F09FC114F02EEC59F06D
:10EE1C0011C001F012C002F013C003F014C004F0D2
:10EE2C0055EC5BF001C058F102C059F103C05AF126
:10EE3C0004C05BF158C101F059C102F05AC103F092
:10EE4C005BC104F0A0C14BF0A1C14CF0D8904B3683
:10EE5C004C36D8904B364C36C30E4B24F66EFE0E09
:10EE6C004C20F76EF86A000EF82209006F00D4FFF0
:10EE7C0005F009006F00D4FF06F009006F00D4FF05
:10EE8C0007F00A006F00D4FF08F055EC5BF001C0EE
:10EE9C0024F102C025F103C026F104C027F17CC186
:10EEAC0001F07DC102F07EC103F07FC104F0010EC0
:10EEBC004AEC52F001C0B0F102C0B1F103C0B2F1A2
:10EECC0004C0B3F124C105F025C106F026C107F03A
:10EEDC0027C108F020C101F021C102F022C103F0CA
